:020000040800F2
:1000000028500020010100082501000827010008F0
:100010002B0100082F010008330100080000000038
:100020000000000000000000000000003701000890
:1000300039010008000000003B0100083D010008F4
:100040001B0100081B0100081B0100081B01000820
:100050001B0100081B010008BD030008D5030008B0
:100060001B0100081B0100081B0100081B01000800
:100070001B0100081B0100081B0100081B010008F0
:100080001B0100081B0100081B0100081B010008E0
:100090001B0100081B0100081B0100080F040008D9
:1000A0001B0100081B0100081B0100081B010008C0
:1000B0001B010008670100081B0100081B01000864
:1000C0001B0100081B0100081B0100081B010008A0
:1000D0001B0100083F010008470100084F0100080C
:1000E000ED0300081B0100081B010008DFF80CD01D
:1000F0000CF02EF80048004717490008285000204F
:100100000648804706480047FEE7FEE7FEE7FEE7B1
:10011000FEE7FEE7FEE7FEE7FEE7FEE71FB60008A4
:10012000ED000008704700BFFEE700BFFEE700BF1C
:10013000FEE700BFFEE7704770477047704710B595
:1001400005F0BBFA10BD10B506F0BFFC10BD10B530
:1001500006F0E3FC10BD10B506F0F0FC10BD10B5C4
:1001600006F023FD10BD10B50121D3480AF0CFFFE2
:1001700000287DD00121D0480AF0DAFF01F0F4F91F
:10018000CE48006828B1CD480068401ECB490860C1
:100190000EE02021CA4809F041FEC0F10100C4B2BE
:1001A00022462021C64809F04AFE0620C3490860BD
:1001B000C4480078142805DAC2480078401CC149B8
:1001C000087015E00020BF490870012080F31388F3
:1001D00000BF00BFBC48006800F4E060BB490843B2
:1001E000001DB9490860BFF34F8F00BF00BFFEE795
:1001F000B7480078142805DAB5480078401CB4499F
:10020000087060E00020B2490870B248007820B160
:10021000B0480078401EAF490870AF48006820B170
:10022000AD480068401EAC490860AC48006820B189
:10023000AA480068401EA9490860A948006820B182
:10024000A7480068401EA6490860A648006820B17B
:10025000A4480068401EA3490860A348006820B174
:10026000A1480068401EA04908609F48406800E01F
:10027000A3E020B19C484068401E9B4948609A48D2
:10028000806820B198488068401E974988609648E9
:10029000C06820B19448C068401E9349C860934824
:1002A000007820B191480078401C9049087090482F
:1002B000007828B18E480078401E8D49087002E011
:1002C00000208C4908728C488078012811DD8A480A
:1002D0008078401E8849887008468078012808D1B7
:1002E0000221864809F0A9FD83488078401E824992
:1002F00088708148C078012811DD7F48C078401E91
:100300007D49C8700846C078012808D102217B4881
:1003100009F093FD7848C078401E7749C870764848
:100320000079012811DD74480079401E7249087176
:1003300008460079012808D10221704809F07DFDA6
:100340006D480079401E6C4908716B48407901285E
:1003500011DD69484079401E674948710846407977
:10036000012808D10221654809F067FD62484079FB
:10037000401E6149487151480068022813D107F0B6
:100380009DF907F046FC07F01BFC07F040FE07F064
:10039000E8FA07F00FFB5A48007820B15848007877
:1003A000401E5749087045480068052805D101F0EE
:1003B000B6FA00F0B0FE00F0D6FF10BD10B5012077
:1003C00009F034F928B1012009F02CF9012009F0D5
:1003D0003EF910BD10B5022009F028F928B102201D
:1003E00009F020F9022009F032F910BD10B54FF4E0
:1003F000804009F01BF948B101F072FD4FF48040D4
:1004000009F010F94FF4804009F021F910BD10B542
:10041000202009F00BF928B1202009F003F9202051
:1004200009F015F9402009F001F928B1402009F040
:10043000F9F8402009F00BF9802009F0F7F828B10D
:10044000802009F0EFF8802009F001F94FF40070E6
:1004500009F0ECF838B14FF4007009F0E3F84FF40C
:10046000007009F0F4F84FF4807009F0DFF810B371
:1004700001F036FD23490860002012490870402130
:100480000F4809F0CBFCC0F10100C4B22246402164
:100490000B4809F0D4FC1C48006820B11B480068D8
:1004A00008B108F0B1F94FF4807009F0BBF84FF4CF
:1004B000807009F0CCF810BD00040040000000205E
:1004C00000180140840700200CED00E00000FA0550
:1004D00009000020D807002058010020D00000208B
:1004E000C0070020B8070020DC4B0020D9070020FF
:1004F000DA070020BD090020AB07002000080140FA
:10050000E0000020040000200C0800200808002063
:100510002DE9F04106460D4630460BF04DF900F04E
:10052000FF0828460BF048F9C7B2002404E0262053
:10053000FE490855601CC4B2092CF8DB0020FB49B9
:100540000872002410E0444502DA305DF74908558E
:10055000C7F10800A04205DCC7F10800201A285C9A
:10056000F2490855601CC4B2082CECDBBDE8F081F0
:1005700070B5044600251EE00121ED4809F05DFC40
:10058000962006F015FE04F0010028B14FF48071AA
:10059000E84809F050FC04E04FF48071E54809F0A8
:1005A0004CFC64100121E24809F045FC962006F05D
:1005B000FFFD681CC5B2082DDEDB70BD10B504461A
:1005C0000221DB4809F039FC962006F0F1FD2046B7
:1005D000FFF7CEFF0221D64809F02DFC962006F049
:1005E000E7FD10BD2DE9F04705460F469046284629
:1005F0000BF0E2F8C6B200240BE0285D402806DAD2
:10060000285D302803DB285D00F00F002855601CB2
:10061000C4B2B442F1DB4020FFF7D0FF0221C4484E
:1006200009F00BFC962006F0C3FDC020FFF7A0FFE9
:1006300000244DE0204604EBD0714910A4EB4101A9
:10064000B9BBC6F1080104EBD472B1EB620F31DC27
:1006500017B3C7F1070104EBD472B1EB620F0ED1EF
:10066000A14604EBD971C6F10802C2EB6101695CD5
:10067000B14A515C8031C8B2FFF77AFF26E0A1464B
:1006800004EBD971C6F10802C2EB6101695CAA4AA8
:10069000505CFFF76DFF19E0A14604EBD971C6F17C
:1006A0000802C2EB6101695CA34A505CFFF760FF7E
:1006B0000CE003E00020FFF75BFF07E0A14604EB3E
:1006C000D971491018F80100FFF752FF601CC4B23D
:1006D000102CAFDB0221964809F0ADFB962006F006
:1006E00067FD8920FFF76AFFBDE8F08730B587B066
:1006F00005469248007808B907B030BD00240BE0E9
:100700008F480068007801A908558D480068401C92
:100710008B490860601CC4B2092CF1DB8948007861
:1007200040B1894A002101A8FFF75CFF00208549FC
:10073000087019E000240DE0C5F10800A04204D0C3
:1007400001A8005D04A9085502E0262004A9085567
:10075000601CC4B2092CEFDB7B4A002104A8FFF720
:1007600041FF01207749087000BFC5E770B500243C
:100770004FF480716F4809F05EFB002518E06410AB
:1007800001216B4809F059FB962006F011FD4FF44A
:100790000071684809F035FB08B144F0800401217C
:1007A000634809F048FB962006F002FD681CC5B2BC
:1007B000082DE4DB204670BD38B5002502215C48D9
:1007C00009F03BFB962006F0F3FC4220FFF7D0FE39
:1007D000002405E0FFF7CAFF0DF80400601CC4B256
:1007E000042CF7DB0221524809F025FB962006F085
:1007F000DFFC002406E01DF80400A0402843C5B239
:10080000601CC4B2042CF6DB002406E00120A040EA
:10081000A84200D103E0601CC4B2082CF6DB00BF84
:10082000204638BD70B504460D464420FFF7C6FE8D
:1008300002213F4809F001FB44F0C000FFF798FE99
:100840002846FFF795FE0221394809F0F4FA70BDF9
:1008500070B504460D4605F003016200521CD0B28B
:10086000FFF7E0FF70BD70B50025C1E04020FFF745
:10087000A5FE02212E4809F0E0FA962006F098FC29
:10088000C120FFF775FE0320FFF772FE0221284802
:1008900009F0D1FA962006F08BFC8E20FFF78EFE31
:1008A0002A4806F085FC0221214809F0C6FA962064
:1008B00006F07EFCC120FFF75BFE0220FFF758FE2A
:1008C00002211B4809F0B7FA962006F071FC8E2031
:1008D000FFF774FE1D4806F06BFC0221144809F076
:1008E000ACFA962006F064FCC120FFF741FE01201F
:1008F000FFF73EFE02210E4809F09DFA962006F011
:1009000057FC8C20FFF75AFE104806F051FC0221DC
:10091000074809F092FA962006F04AFCC120FFF73A
:1009200027FE0020FFF724FE022111E050090020DD
:1009300000180140000C01400C000020690000205C
:100940006C000020680000209A000020404B4C0002
:10095000F74809F070FA962006F02AFC8C20FFF781
:100960002DFEF44806F024FCFFF726FF0446082C71
:1009700000DA41E04020FFF721FE0221EC4809F0B7
:100980005CFA962006F014FCC02101EB4401C8B2C9
:10099000FFF7EEFD002610E0022D01D0072D06D155
:1009A000E549495D8031C8B2FFF7E2FD03E0E24965
:1009B000485DFFF7DDFD701CC6B2102EECDB022196
:1009C000DB4809F038FA962006F0F2FB8920FFF7A1
:1009D000F5FD0221D64809F02EFA962006F0E8FB34
:1009E0008920FFF7EBFDD34806F0E2FB681CC5B297
:1009F000102DFFF63BAF70BD082C00DBFBE7002598
:100A000050E04020FFF7DAFD0221C94809F015FA4D
:100A1000962006F0CDFBC02101EB4401C8B2FFF7E0
:100A2000A7FD082C2DD2DFE804F004090E13181DD1
:100A30002227C149085DFFF79BFD23E0BE49085D01
:100A4000FFF796FD1EE0BC49085DFFF791FD19E038
:100A5000B949085DFFF78CFD14E0B749085DFFF761
:100A600087FD0FE0B449085DFFF782FD0AE0B24957
:100A7000085DFFF77DFD05E0AF49085DFFF778FDF4
:100A800000E000BF00BF0221A94809F0D4F9962078
:100A900006F08EFB8920FFF791FDA64806F088FB43
:100AA000681CC5B2082DACDB00BFA4E710B510214F
:100AB0009F4809F0A6F908B1012000E000209F49F5
:100AC000087001219E4809F09CF908B9012000E056
:100AD00000209A49487010BD002019E09749095C30
:100AE00009B1012100E00021964A11549649095CA0
:100AF000964A11549649095C964A11549649095CE4
:100B0000964A11549649095C964A1154411CC8B240
:100B10003228E3DB70470021914A11549249095C65
:100B20003C291AD03D2902D03E2921D10AE08F4923
:100B300051F820108E4A1268914202D10121884A50
:100B4000115416E0894951F82010894A12689142DF
:100B500002DA0121824A11540BE0844951F8201035
:100B6000834A1268914202DD01217D4A115400E05E
:100B700000BF00BF704700217E4A11547E49095CC6
:100B80003C291AD03D2902D03E2921D10AE07B49D7
:100B900051F820107A4A1268914202D10121754A17
:100BA000115416E0754951F82010754A12689142A7
:100BB00002DA01216F4A11540BE0704951F82010FC
:100BC0006F4A1268914202DD01216A4A115400E025
:100BD00000BF00BF704730B50346542971D004DC14
:100BE00043295CD052296DD12EE057296BD058296A
:100BF000F9D13C2B1AD03D2B02D03E2B21D10AE05B
:100C0000504CA45C4D4DAD5C6C400CB1012400E037
:100C10000024204616E0494CA45C4A4DAD5CAC4330
:100C20000CB1012400E0002420460BE0454CA45CFC
:100C3000424DAD5CAC430CB1012400E000242046E1
:100C400000E000BF00BFDAE03C2B1AD03D2B02D001
:100C50003E2B21D10AE0414CA45C3F4DAD5C6C4081
:100C60000CB1012400E00024204616E03A4CA45CBC
:100C70003A4DAD5CAC430CB1012400E000242046A9
:100C80000BE0364CA45C344DAD5CAC430CB101249C
:100C900000E00024204600E000BF00BFAFE03C2B96
:100CA0001DD03D2B02D03E2B24D10DE0294CA45C5D
:100CB000274DAD5C6C400CB1012400E000242046BF
:100CC00019E01AE09AE06EE0214CA45C214DAD5C85
:100CD000AC430CB1012400E0002420460BE01D4C85
:100CE000A45C1B4DAD5CAC430CB1012400E00024BE
:100CF000204600E000BF00BF81E03C2B45D03D2BEB
:100D000002D03E2B4CD10AE0104CA45C0E4DAD5CE1
:100D10006C400CB1012400E00024204641E00A4C64
:100D2000A45C0A4DAD5CAC430CB101242BE029E07E
:100D300000180140404B4C000C0000208B090020A3
:100D40000008014064100020E60B002096100020EF
:100D5000A80D0020C8100020EF090020FA10002084
:100D6000D40E00202C110020060F00200C0E0020B5
:100D7000900000200010002032100020380F0020CA
:100D800094000020002420460BE0F84CA45CF84DB1
:100D9000AD5CAC430CB1012400E00024204600E02F
:100DA00000BF00BF2BE03C2B1AD03D2B02D03E2BC6
:100DB00021D10AE0EF4CA45CEF4DAD5C6C400CB16E
:100DC000012400E00024204616E0EB4CA45CE94D31
:100DD000AD5CAC430CB1012400E0002420460BE0E4
:100DE000E44CA45CE44DAD5CAC430CB1012400E0E8
:100DF0000024204600E000BF00BF00E000BF00BFAD
:100E000030BD0021DD4A1154DD4A42F82010D84A95
:100E100011547047D949095C41B9DA4951F8201099
:100E2000D74A42F820100121D44A11547047D449BE
:100E300051F8201069B1D24951F82010491ED04A0A
:100E400042F82010114651F82010012901D1C84A5A
:100E5000115470470021CC4A42F82010CB4A11545B
:100E600070470021CA4A11547047C949095CF9B951
:100E7000C84951F8201000291ADDC34951F8202033
:100E8000C44951F82010491E8A420ADABE4951F875
:100E90002010491CBC4A42F820100121BC4A1154C0
:100EA00006E00121B94A11540021B74A42F8201046
:100EB000704710B51021B84808F0A3FF20B10821F1
:100EC000B54808F0B8FF03E00821B34808F0B5FFC3
:100ED0000121B24808F095FF20B10421AE4808F086
:100EE000AAFF03E00421AC4808F0A7FF0421AB48A7
:100EF00008F087FF28B14FF40051A94808F09BFF84
:100F000004E04FF40051A64808F097FF1021A348D1
:100F100008F077FF20B10221A04808F08CFF03E021
:100F200002219E4808F089FF40219C4808F069FF93
:100F300020B10821994808F07EFF03E00821974876
:100F400008F07BFF4FF48071944808F05AFF20B1FD
:100F50002021924808F06FFF03E020218F4808F01D
:100F60006CFF4FF480618D4808F04BFF20B1802169
:100F70008A4808F060FF03E08021884808F05DFFA0
:100F80000221874808F03DFF28B14FF400718348E3
:100F900008F051FF04E04FF40071804808F04DFF65
:100FA0000221804808F02DFF20B101217D4808F082
:100FB00042FF03E001217B4808F03FFF4FF400614E
:100FC000764808F01EFF28B14FF48051734808F0AE
:100FD00032FF04E04FF48051704808F02EFF4FF4C8
:100FE00000516E4808F00DFF28B14FF480416B4866
:100FF00008F021FF04E04FF48041684808F01DFF2D
:101000004FF40041654808F0FCFE20B1012166481C
:1010100008F011FF03E00121634808F00EFF0221F0
:10102000614808F0EEFE20B180215B4808F003FF24
:1010300003E08021584808F000FF4FF480715648C3
:1010400008F0DFFE28B14FF40071534808F0F3FEBA
:1010500004E04FF40071504808F0EFFE4FF4806157
:101060004D4808F0CEFE28B14FF400614A4808F020
:10107000E2FE04E04FF40061474808F0DEFE4FF462
:101080008051454808F0BDFE28B14FF40051424858
:1010900008F0D1FE04E04FF400513F4808F0CDFEC7
:1010A0000221424808F0ADFE20B908213A4808F074
:1010B000C2FE03E00821384808F0BFFE10213B487B
:1010C00008F09FFE20B90421334808F0B4FE03E085
:1010D0000421314808F0B1FE4021344808F091FE67
:1010E00028B94FF400512E4808F0A5FE04E04FF453
:1010F00000512B4808F0A1FE1021294808F081FE7C
:1011000020B90221254808F096FE03E00221234879
:1011100008F093FE10BD2648007830B125480078CD
:1011200040F001002349087005E02248007820F0D3
:101130000100204908701E48407830B11D480078F1
:1011400040F002001B49087005E01A48007820F0C2
:101150000200184908701648807830B115480078A8
:1011600040F00400134908702CE025E096100020A0
:10117000E60B00202C110020D40E0020B40B002020
:10118000240A0020EC0A0020180C0020A80D0020E2
:10119000DA0D0020E00C002000180140001C014086
:1011A00000100140000C01400020014000080140F7
:1011B0008B09002089000020FE48007820F0040000
:1011C000FC490870FC48C07830B1FA48007840F01B
:1011D0000800F849087005E0F648007820F008009B
:1011E000F4490870F448007930B1F248007840F0D2
:1011F0001000F049087005E0EE48007820F010007B
:10120000EC490870EC48407930B1EA48007840F089
:101210002000E849087005E0E648007820F020004A
:10122000E4490870E448807930B1E248007840F041
:101230004000E049087005E0DE48007820F04000FA
:10124000DC490870DC48C07930B1DA48007840F0F9
:101250008000D849087005E0D648007820F080006A
:10126000D4490870D448007A30B1D248407840F070
:101270000100D049487005E0CE48407820F00100D8
:10128000CC494870CC48407A30B1CA48407840F0E8
:101290000200C849487005E0C648407820F00200C6
:1012A000C4494870C448807A30B1C248407840F0A0
:1012B0000400C049487005E0BE48407820F00400B2
:1012C000BC494870BC48C07A30B1BA48407840F058
:1012D0000800B849487005E0B648407820F008009A
:1012E000B4494870B448007B30B1B248407840F00F
:1012F0001000B049487005E0AE48407820F010007A
:10130000AC494870AC48407B30B1AA48407840F0C6
:101310002000A849487005E0A648407820F0200049
:10132000A4494870A448807B30B1A248407840F07E
:101330004000A049487005E09E48407820F04000F9
:101340009C4948709C48C07B30B19A48407840F036
:1013500080009849487005E09648407820F0800069
:101360009449487070479548007830B194480078A7
:1013700040F001009249087005E09148007820F0A3
:1013800001008F4908708D48407830B18C48007852
:1013900040F002008A49087005E08948007820F092
:1013A0000200874908708548807830B18448007809
:1013B00040F004008249087005E08148007820F080
:1013C00004007F4908707D48C07830B17C480078BF
:1013D00040F008007A49087005E07948007820F06C
:1013E0000800774908707548007930B17448007872
:1013F00040F010007249087005E07148007820F054
:1014000010006F4908706D48407930B16C48007821
:1014100040F020006A49087005E06948007820F033
:101420002000674908706548807930B164480078C9
:1014300040F040006249087005E06148007820F003
:1014400040005F4908705D48C07930B15C48007861
:1014500040F080005A49087005E05948007820F0B3
:101460008000574908705548007A30B15448407898
:1014700040F001005249487005E05148407820F0A2
:1014800001004F4948704D48407A30B14C4840788F
:1014900040F002004A49487005E04948407820F091
:1014A0000200474948704548807A30B14448407846
:1014B00040F004004249487005E04148407820F07F
:1014C00004003F4948703D48C07A30B13C484078FC
:1014D00040F008003A49487005E03948407820F06B
:1014E0000800374948703548007B30B134484078AF
:1014F00040F010003249487005E03148407820F053
:1015000010002F4948702D48407B30B12C4840785E
:1015100040F020002A49487005E02948407820F032
:101520002000274948702548807B30B12448407806
:1015300040F040002249487005E02148407820F002
:1015400040001F4948701D48C07B30B11C4840789E
:1015500040F080001A49487005E01948407820F0B2
:10156000800017494870704710B51021154808F0E1
:1015700048FC70B114480078401C134908700846B4
:10158000007801280ADB0020087001200A49087051
:1015900004E000200C4908700749087001210B483D
:1015A00008F02FFCE8B108484078401C0649487014
:1015B00008460DE0890000208B090020BD090020AD
:1015C0008B0000200018014059090020001C014038
:1015D000407801280ADB002048700120FB49487050
:1015E00004E00020FA494870F84948700421F9489D
:1015F00008F007FC70B1F6488078401CF449887008
:101600000846807801280ADB002088700120EF4915
:10161000887004E00020EE498870EC498870102141
:10162000EC4808F0EEFB70B1E948C078401CE8498E
:10163000C8700846C07801280ADB0020C870012065
:10164000E249C87004E00020E149C870DF49C87071
:101650004021E04808F0D5FB70B1DD480079401C1E
:10166000DB4908710846007901280ADB002008716F
:101670000120D649087104E00020D5490871D349FA
:1016800008714FF48071D34808F0BBFB70B1D048AB
:101690004079401CCE4948710846407901280ADB50
:1016A000002048710120C949487104E00020C84960
:1016B0004871C64948714FF48061C64808F0A1FBE3
:1016C00070B1C3488079401CC1498871084680794F
:1016D00001280ADB002088710120BC49887104E0E0
:1016E0000020BB498871B94988710221BA4808F0C5
:1016F00088FB70B1B648C079401CB549C87108462E
:10170000C07901280ADB0020C8710120AF49C871E7
:1017100004E00020AE49C871AC49C8710221AF484D
:1017200008F06FFB70B1AA48007A401CA849087203
:101730000846007A01280ADB002008720120A3492C
:10174000087204E00020A2490872A04908724FF410
:101750000061A04808F055FB70B19D48407A401CDC
:101760009B4948720846407A01280ADB00204872EB
:1017700001209649487204E0002095494872934937
:1017800048724FF40051934808F03BFB70B1904809
:10179000807A401C8E4988720846807A01280ADBCC
:1017A0000020887201208949887204E0002088495D
:1017B0008872864988724FF40041864808F021FB00
:1017C00070B18348C07A401C8149C8720846C07A0B
:1017D00001280ADB0020C87201207C49C87204E09D
:1017E00000207B49C8727949C87202217C4808F000
:1017F00008FB70B17648007B401C754908730846A9
:10180000007B01280ADB0020087301206F49087360
:1018100004E000206E4908736C4908734FF480712E
:10182000704808F0EEFA70B16948407B401C684986
:1018300048730846407B01280ADB002048730120DA
:101840006249487304E00020614948735F49487366
:101850004FF48061634808F0D4FA70B15C48807B33
:10186000401C5B4988730846807B01280ADB002006
:10187000887301205549887304E000205449887317
:10188000524988734FF48051564808F0BAFA70B143
:101890004F48C07B401C4E49C8730846C07B012896
:1018A0000ADB0020C87301204849C87304E0002007
:1018B0004749C8734549C87310BD444800784A4930
:1018C00008704248407848704048807888703F48A7
:1018D000C078C8703D48007908713C48407948712B
:1018E0003A48807988713948C079C8713748007A98
:1018F00008723648407A48723448807A8872334891
:10190000C07AC8723148007B08733048407B487306
:101910002E48807B88732D48C07BC873704710B5F4
:101920003248007800B110BD2F48007820B108215E
:101930002C4808F080FA03E008212A4808F07DFAD4
:101940002948407820B10421264808F074FA03E0C1
:101950000421244808F071FA2348807828B14FF414
:1019600000511D4808F067FA04E04FF400511A488E
:1019700008F063FA1C48C07820B10221154808F02D
:101980005AFA03E00221134808F057FA1648007982
:1019900020B108210F4808F04EFA03E008210D4855
:1019A00008F04BFA1048407920B12021094808F08E
:1019B00042FA03E02021074808F03FFA0A488079FC
:1019C000B0B18021034808F036FA15E08B090020F9
:1019D00059090020001C014000100140000C01408A
:1019E0000020014000180140BD09002087070020A9
:1019F0008021FC4808F021FAFB48C07928B14FF457
:101A00000071F84808F017FA04E04FF40071F54847
:101A100008F013FAF448007A20B10121F34808F0E5
:101A20000AFA03E00121F14808F007FAEE48407A8B
:101A300028B14FF48051EB4808F0FDF904E04FF471
:101A40008051E84808F0F9F9E748807A28B14FF466
:101A50008041E44808F0EFF904E04FF48041E148A8
:101A600008F0EBF9E048C07A20B10121E04808F025
:101A7000E2F903E00121DE4808F0DFF9DA48007BF3
:101A800020B18021DB4808F0D6F903E08021D94855
:101A900008F0D3F9D448407B28B14FF40071D54801
:101AA00008F0C9F904E04FF40071D24808F0C5F914
:101AB000CD48807B28B14FF40061CE4808F0BBF9D7
:101AC00004E04FF40061CB4808F0B7F9C648C07B8A
:101AD00028B14FF40051C74808F0ADF904E04FF4C5
:101AE0000051C44808F0A9F900BF1CE708B501215E
:101AF0004FF4EC7008F0AEFB0121082008F0AAFBBF
:101B00004FF42040ADF8000010208DF803000320B2
:101B10008DF802006946B54808F0E0F84FF400601F
:101B2000ADF8000010208DF8030003208DF80200AE
:101B30006946B14808F0D2F84FF4A040ADF8000073
:101B400004208DF8030003208DF802006946A748A1
:101B500008F0C4F84FF48070ADF8000004208DF850
:101B6000030003208DF802006946A34808F0B6F888
:101B700008BD1CB54FF48070009000208DF8040063
:101B80000C208DF8050001208DF80600684607F04E
:101B9000E7FC0821032008F0B7F91CBD002105E08F
:101BA000002200E0521C0A2AFCD3491C8142F7D3D0
:101BB000704770B504462546002624E04FF40051D6
:101BC0008A4808F03AF90A20FFF7E8FF05F080009C
:101BD000802804D10102854808F02DF904E04FF473
:101BE0000041824808F029F90A20FFF7D7FF4FF497
:101BF00000517E4808F01FF90A20FFF7CFFF680662
:101C0000050E701CC6B2082ED8DB4FF40051774881
:101C100008F013F970BD70B5002400251BE04FF4E7
:101C20000051724808F009F90320FFF7B7FF4FF49D
:101C300000516E4808F0FFF80320FFF7AFFF600681
:101C4000040E4FF48041694808F0DBF808B144F015
:101C50000104681CC5B2082DE1DB4FF40051634854
:101C600008F0EBF8204670BD70B50446002520E072
:101C70004FF400515D4808F0E0F80A20FFF78EFFAE
:101C800004F0004028B14FF40041584808F0D3F860
:101C900004E04FF40041554808F0CFF84FF40051EC
:101CA000524808F0C8F80A20FFF778FF6400681C63
:101CB000C5B2202DDCDB70BD70B5002400251AE014
:101CC0004FF40051494808F0B8F80A20FFF766FFC2
:101CD0004FF40051454808F0AEF80A20FFF75EFFC8
:101CE00064004FF48041414808F08BF808B144F09B
:101CF0000104681CC5B2202DE2DB204670BD70B522
:101D000005460C462846FFF754FF2046FFF7ACFF78
:101D100070BD70B504462046FFF74BFFFFF7CCFFC0
:101D200005464FF40041314808F087F84FF4005160
:101D30002E4808F082F80A20FFF730FF284670BDD1
:101D40002DE9F84307460C4615469846DDF82090E5
:101D500000208DF803009DF803003844C0B28DF8D0
:101D600003009DF80300C006000E8DF803009DF8E7
:101D7000030040EA64008DF8030004F001008DF8D0
:101D800002009DF80200C007000E8DF8020000203E
:101D90008DF801009DF801004044C0B28DF80100AB
:101DA0009DF80100C006000E8DF801009DF80100AD
:101DB00040EA69008DF8010009F001008DF800008B
:101DC0009DF80000C007000E8DF800002E46300779
:101DD000060E46F0050630460099FFF790FFBDE875
:101DE000F8830000001C0140BD090020000C0140E8
:101DF00000200140001801400014014038B54FF4A4
:101E00000041F84808F019F84FF40051F54808F07F
:101E100014F84FF40061F44808F00FF84FF47A70AA
:101E2000FFF7BCFE002404E0FF20FFF7C2FE601CA9
:101E3000C4B20F2CF8DBFE20FFF7BBFE0A20FFF731
:101E4000ADFE4FF000510320FFF759FF00250B2096
:101E5000FFF75FFF054605F0805018B30920FFF734
:101E600058FF05460A20FFF754FF05460B20FFF7F1
:101E700050FF05460C200623002202210090184640
:101E8000FFF75EFF0D20FFF744FF0546C020FFF778
:101E900090FEFFF76EFE4FF40051D24807F0CDFFE1
:101EA000012038BD0020FCE7704770B50446254688
:101EB0002807050E45F00D052846FFF72AFF0646C0
:101EC00070BD10B54FF40041C64807F0B4FFFF20C5
:101ED000FFF76FFE10BD10B5C020FFF76AFE10BD02
:101EE00038B54FF40041BF4807F0A7FF4FF4005149
:101EF000BC4807F0A2FFFFF78EFE0446FFF78BFEFB
:101F00008DF80200FFF787FE8DF80100FFF783FED2
:101F10008DF80000FFF77FFE8DF803000098C010D9
:101F200000900421684603F02FF80546009838BD5C
:101F30002DE9F041AD480078012804D002280CD0EA
:101F400003282DD10FE0AA4A0021AA48FEF74AFB38
:101F5000A9480068A949086023E0A54A0021A848CB
:101F6000FEF740FB1DE0A24A0021A648FEF73AFB1F
:101F7000A1490968A14A1268881A09F0A8FE80469A
:101F800009F02DFF064600229F4B09F028FE04466B
:101F900009F068FF9D49086003209449087000E03B
:101FA00000BF00BFBDE8F08170B50024002901DA50
:101FB0004942012400F1110300265D1E2B462E70BC
:101FC00000BF0A2591FBF5F605FB161505F1300259
:101FD000392A00D9D21D5D1E2B462A700A2591FB95
:101FE000F5F5291EEDD114B1162500F8015B00228C
:101FF00004E013F8015B00F8015B521C102AF8D3CF
:1020000070BD2DE9F0479CB00746BA4680A1504606
:1020100009F0AAFB18B100201CB0BDE8F087BA4651
:102020000024504609F0C8FB8146002622E1042224
:10203000514601A809F0AAFB00208DF808000AF11A
:10204000040A0DF1060009F0DCFBC5B29DF804009E
:1020500057286FD00CDC52283FD004DC43286AD0CC
:10206000502869D1EDE0532867D05428F9D158E0C1
:10207000722847D004DC582807D06328F1D18DE0BE
:10208000742867D07828ECD118E09DF805002D2839
:1020900008D16148405D08B1012000E0002003A99B
:1020A000085508E09DF804109DF805002A46FEF743
:1020B00092FD03A90855601CC4B2D0E09DF805004C
:1020C0002D2807D15448405D08B9012000E00020C8
:1020D00003A90855601CC4B2C1E09DF805002D2875
:1020E00004D14E48405D03A9085508E09DF804104E
:1020F0009DF805002A46FEF76EFD03A90855601CF1
:10210000C4B2ACE09DF805002D2807D14348405DDE
:1021100008B9012000E0002003A90855601CC4B2E2
:102120009DE09DF805002D2808D13D48405D03A99C
:1021300008550CE041E01CE090E077E09DF80410C9
:102140009DF805002A46FEF746FD03A90855601CC8
:10215000C4B284E09DF805002D2807D13048405DC9
:1021600008B9012000E0002003A90855601CC4B292
:1021700075E09DF805002D2804D12A48405D03A98B
:10218000085508E09DF804109DF805002A46FEF762
:1021900022FD03A90855601CC4B260E09DF805004B
:1021A0002D2807D11F48405D08B9012000E000201C
:1021B00003A90855601CC4B251E09DF805002D2804
:1021C00004D11948405D03A9085508E09DF80410A2
:1021D0009DF805002A46FEF7FEFC03A90855601C81
:1021E000C4B23CE0000C0140001401407800002023
:1021F0009A0000203300002004000020700000201E
:102200003A0000204100002000408F407400002070
:10221000502D3032000000008B090020EF09002013
:10222000E60B0020A80D0020D40E00209DF805002C
:102230002D2803D1FE48405D03A90855601CC4B297
:102240000DE0012D02D1012003A90855022D02D174
:10225000002003A90855601CC4B200E000BF00BF05
:10226000002C05DD601E03A9085C08B90020D3E638
:10227000301DC6B24E45FFF6DAAE4FF0010800261B
:102280000BE0B8F1000F04D003A8805D08B1012075
:1022900000E000208046701CC6B2A642F1DB40463A
:1022A000BAE62DE9FE4F8046002000900190029092
:1022B000E0490870E0A1404609F056FA04460834A7
:1022C0000AE02078DB4A12780DF80200D94800783D
:1022D000401CD8490870641C20784028F1D1684619
:1022E00009F08FFAD7490870C14600263CE000206B
:1022F0000090019002904C46D3A1204609F034FA98
:102300000446A41C14F8010B8DF8000014F8010B0E
:102310008DF80100684609F074FAC5B200200090FB
:1023200001900290C34908700AE014F8010BC14AF9
:1023300012780DF80200BF480078401CBD490870B3
:1023400020782C28F1D1684609F05BFA0746601C1A
:10235000044690F800A0BD4840F82570BC4800F83D
:1023600005A0A146701CC6B2B64800788642BEDB06
:10237000BDE8FE8F2DE9FE4F8046002000900190C1
:102380000290B4490870B4A1404609F0EDF9044642
:1023900008340AE02078AF4A12780DF80200AD4800
:1023A0000078401CAB490870641C20784028F1D1AB
:1023B000684609F026FAAB490870C14600263CE0A1
:1023C00000200090019002904C46A7A1204609F001
:1023D000CBF90446A41C14F8010B8DF8000014F886
:1023E000010B8DF80100684609F00BFAC5B2002018
:1023F000009001900290974908700AE014F8010BD0
:10240000944A12780DF8020092480078401C9149D5
:10241000087020782C28F1D1684609F0F2F90746B7
:10242000601C044690F800A0904840F82570904841
:1024300000F805A0A146701CC6B28A480078864202
:10244000BEDBBDE8FE8F2DE9F04FB3B082465546A6
:102450004FF0000B34E02B21284609F0A3F9064683
:1024600000272C46A84619E020787B2813D0207836
:102470007D2810D0207826280DD020782A280AD050
:102480002078282807D014F8012B3846791CCFB2C1
:1024900001A90A5400E0641C08F10108B045E3DB1F
:1024A00000223846791CCFB201A90A5401A8FFF7CF
:1024B000A8FD8146B9F1000F00D03DE035466D1C06
:1024C0002B21284609F06EF90028C4D1292128467D
:1024D00009F068F9064600272C46A8461FE0207838
:1024E0007B2819D020787D2816D02078262813D074
:1024F00020782A2810D0207828280DD02078292864
:102500000AD02078232807D014F8012B3846791CEC
:10251000CFB201A90A5400E0641C08F10108B045DB
:10252000DDDB00223846791CCFB201A90A5401A88C
:10253000FFF767FD814600BF484633B0BDE8F08F26
:10254000FEB507463C46607854282ED008DC2F287C
:1025500021D0432852D0442866D0522865D110E0BB
:10256000592804D0742861D07828F7D1D4E0607855
:1025700040490870A07840490870E0783F490870E9
:10258000FEBD60783B490870A0783B490870E07850
:102590003A490870F4E7607836490870E0783649BF
:1025A0000870207935490870EAE760783149087089
:1025B000A07831490870E078304908700846007802
:1025C00030382D490978303901EB810100EB4100A9
:1025D000C5B23F21384609F0E5F8044660788DF829
:1025E0000000E0788DF8010000208DF802006846B8
:1025F00009F007F9224941F82500C1E760781D4933
:102600000870A0781C490870E0781C4908700846DA
:102610000078303818490978303901EB810100EB36
:102620004100C5B23F212DE040E079E070E00000BC
:10263000001000205D010020575F546F74616C6CC6
:102640000000000098000020575F00000C0E0020E2
:10265000060F00205E010020535F546F74616C6CA4
:102660000000000099000020535F0000380F002098
:1026700032100020B8000020B9000020BA0000206D
:10268000EC0A0020384609F08DF8044660788DF891
:102690000000A0788DF8010000208DF80200684647
:1026A00009F0AFF8FD4941F8250069E76078FC4979
:1026B0000870A078FB490870E078FB49087008466C
:1026C00000783038F7490978303901EB810100EBA7
:1026D0004100C5B23F21384609F064F8441C002689
:1026E00006E014F8012B3046711CCEB2EF490A54B3
:1026F00020782128F5D121223046711CCEB2EB4939
:102700000A5400223046711CCEB2E8490A5437E719
:102710006078E349087033E76078E14908702FE793
:1027200000BF00BF00BF2BE72DE9F04FADF6041D41
:102730009822DF4905A808F0F3FFDEA103C9CDE91F
:102740000301AFF2345103C9CDE90101DFF86C8315
:1027500000240DE02321404609F024F80546A84650
:1027600008F101080DF21C7141F82450601CC4B23C
:10277000D34800788442EDDDDFF8408300240DE08B
:102780002121404609F00EF80546A84608F1010847
:102790000DF23C5040F82450601CC4B2C848007888
:1027A0008442EDDDDFF8148300240CE0252140464F
:1027B00008F0F8FF0546A84608F10108D7A840F838
:1027C0002450601CC4B2BE4800788442EEDD002470
:1027D0000EE00DF23C5050F824000DF21C7151F83F
:1027E0002410401A401C2DA941F82400601CC4B2DA
:1027F000B34800788442ECDD002445E12DA850F870
:1028000024200DF21C7050F82410B9A808F0BEFF67
:1028100000202DA951F82410B9AA5054D7A951F875
:102820002400FFF78DFE2821B9A808F0BBFFD8B31C
:1028300026E02821B9A808F0D4FF0546292128461A
:1028400008F0B0FFCDF8FC08DDF8FC08401B00F1F3
:1028500001094A462946A5A808F098FF0020A5A925
:1028600001F809004A4605A9284608F08FFFA5A8E7
:10287000FFF7E9FD10B10398286001E00198286096
:102880002821B9A808F08EFF0028D2D12521B9A8A7
:1028900008F0A7FF824629208AF80000B9A8FFF7B0
:1028A000D2FDCDF800090DE0FFE72521B9A808F019
:1028B00098FF824629208AF80000B9A8FFF7C3FDD7
:1028C000CDF80009784800783038764909783039F1
:1028D00001EB810100EB4100C7B2DDF800090028DF
:1028E00072D06F480078542820D008DC2F2815D0EB
:1028F00043280FD044282BD052286ED112E05928FB
:1029000004D0742816D07828F7D11AE001206D4938
:10291000C8559AE03846FEF7A8FA96E03846FEF722
:1029200099FA92E001206849C8558EE03846FEF7D2
:1029300071FA8AE001206549087000206449087036
:1029400083E00020614908700120614908707CE043
:10295000564800785338082873D2DFE800F0042E78
:1029600036723F72723D5BA1504808F0FDFE48B1DF
:102970005A4800685A2804DA58480068401C5749E9
:1029800008605FE056A1494808F0EEFE48B15348A0
:102990000068002804DD51480068401E4F49086067
:1029A00050E04248C1788078303800EB800001EB7D
:1029B000400030384949086044E00120434908702C
:1029C0000020434908703DE040E000203F49087086
:1029D00001203F49087035E034E035E0334E28E00F
:1029E0005721304608F0DEFE064670788DF8AC00C0
:1029F000B0788DF8AD0000208DF8AE002BA808F05F
:102A000000FF00F0FF0B30798DF8AC0070798DF885
:102A1000AD00B0798DF8AE00F0798DF8AF000020F0
:102A20008DF8B0002BA808F0ECFE2F4941F82B00E0
:102A3000761C5721304608F0B5FE0028D0D101E0C1
:102A4000FFE700BF00BF00E000BF1BE014480078B4
:102A5000432809D052280BD054280DD059280FD123
:102A600000201849C8550CE03846FEF7FAF908E08E
:102A700000201549C85504E03846FEF7C2F900E0C9
:102A800000BF00BF601CC4B20D48007884427FF7CD
:102A9000B5AE0DF6041DBDE8F08F0000E00C00207F
:102AA000B8000020B9000020BA00002048390020FA
:102AB00010DD0008502D30310000000040190020CA
:102AC000BB000020BD090020EF090020AD00002060
:102AD000AE000020533D706C757300009400002020
:102AE000533D6465630000000C0E0020FE4A0A405E
:102AF0000243FE4B1A60704700B50020FC49086194
:102B0000C8601420486100208861C86108460068D8
:102B100040F00100086008464068F6490840F44962
:102B2000486008460068F4490840F14908600846D2
:102B3000006820F4802008600846406820F4FE0009
:102B400048600020886000214FF00060FFF7CEFF52
:102B500000BD30B504460025FFF7CEFFE44800680D
:102B600040F48030E249086000BFE1480068400C52
:102B70000028FAD04FF48060DD494860A01EC4B23E
:102B80000846406840EA844048600846406840F48F
:102B900080304860D948006840F03200D74908606A
:102BA000D348006840F08070D149086000BFD04829
:102BB0000068400E0028FAD0CD48406840F002007E
:102BC000CB49486005E0CA484068C0F3870505F076
:102BD0000305022DF7D130BD70B5034600224FF03A
:102BE000E0267569C64E367803FB06F400BF4FF049
:102BF000E026B16910E04FF0E026B06988420BD0C2
:102C0000884202D20E1A324402E02E1A0E44324496
:102C10000146A24200D300E0EDE700BF70BDB94815
:102C2000B6494860B84848607047B448006940F009
:102C30008000B24908617047B048C16801F00100E6
:102C400008B10120704701F0040008B10220F9E743
:102C500001F0100008B10320F4E70020F2E730B5DE
:102C6000044600BFFFF7E8FF0546012D00D006E04F
:102C70000120FFF7B1FF601E84B2002CF2D100BF2B
:102C800004B9FF25284630BD30B50546002445F679
:102C9000FF70FFF7E4FF0446C4B99848006940F0AC
:102CA00002009649086108464561006940F040000D
:102CB000086145F6FF70FFF7D2FF0446012C05D0EE
:102CC0008E48006920F002008C490861204630BD22
:102CD00070B505460E46FF20FFF7C1FF044694B9C4
:102CE0008648006940F00100844908612E80FF2079
:102CF000FFF7B5FF0446012C05D08048006920F09D
:102D000001007E490861204670BD01460888704771
:102D1000F0B505460E461746002407E036F81410B5
:102D20002846FFF7D5FFAD1C601C84B2BC42F5DB22
:102D3000F0BD30B503460C461546002207E01846A4
:102D4000FFF7E3FF24F812009B1C501C82B2AA423A
:102D5000F5DB30BD2DE9F04F80468A461746B8F1C5
:102D6000006F02D36948804501D3BDE8F08FFFF7BB
:102D700056FFA8F1006B4FEADB25CBF34909C9F5F3
:102D80008064A74200DC3C464DE04FF0006101EB5F
:102D9000C5204A145E49FFF7CCFF00260BE009EB83
:102DA00006005B4931F810004FF6FF71884200D0F1
:102DB00003E0701C86B2A642F1DB00BFA6421BDA1C
:102DC0004FF0006101EBC520FFF75EFF002608E031
:102DD0003AF8160006EB09014D4A22F81100701C62
:102DE00086B2A642F4DB4FF0006101EBC5204A1425
:102DF0004749FFF78DFF04E0224651464046FFF762
:102E000087FFA74200D10FE06D1C4FF000090AEBCD
:102E1000440AA044381B87B2B7F5806F02DD4FF437
:102E2000806400E03C46B0E700BFFFF7FEFE00BF55
:102E30009BE713B50446012201A92046FFF78AFF4C
:102E40001CBD3449097901B97047002000E0401CDD
:102E500031498842FBDB2F49097901B9F4E74FF486
:102E600016512E4A116001212D4A11601E212D4A52
:102E700011604FF47A712C4A116032212B4A116093
:102E800028212B4A116000212A4A116005212A4A73
:102E900011600A21294A11602821294A1160142150
:102EA000284A11606421284A1160284A11600021D3
:102EB000274A1160274A11606421274A11600F21B7
:102EC000264A11600021264A11604FF41671254AE6
:102ED00011604FF4C871244A11600A21234A11601D
:102EE0000321234A116045E080FFFF1F08ED00E049
:102EF000001002400000FFF8FFFFF6FE0020024035
:102F0000BD00002023016745AB89EFCD0000080814
:102F1000643900208B09002040420F006406002025
:102F2000680600206C060020700600207406002051
:102F3000780600207C060020800600208406002001
:102F4000880600208C0600209006002094060020B1
:102F5000980600209C060020A0060020A406002061
:102F6000A8060020AC060020B0060020B406002011
:102F7000B80600204FF4FA71FC4A11600721FC4AA0
:102F8000116040F6C411FB4A11600A21FA4A11602F
:102F900041F2BA31F94A116041F25631F84A1160F2
:102FA00041F28831F74A1160C821F74A11601421B3
:102FB000F64A11600021F64A116040F6B831F54A30
:102FC00011600021F44A1160F44A1160F44A116062
:102FD000F44A1160F44A11601621F44A1160F44A6F
:102FE0001160F44A1160F44A1160F44A1160022140
:102FF000F34A1160F34A1160F34A1160F34A116019
:10300000F34A11600021F34A1160F34A117000BFC6
:103010001AE710B5F148007800B910BDED48006816
:10302000072802D0082812D108E00020EC490870D7
:10303000EC4A0021EC48FDF7D5FA09E00020E84908
:103040000870E84A0021E948FDF7CCFA00E000BF2B
:1030500000BF00BFE1E72DE9FE43E548006808B97D
:10306000BDE8FE83E3480078162805D1E148401CFE
:1030700008F0A2FBC7B203E0DE4808F09DFBC7B230
:10308000DB480068A0EB0708B8F1000F00DAE7E7BB
:1030900008F10108D7480078162824D1D54C641CC3
:1030A0006E4600BF207806F8010B601C04460078CD
:1030B0000028F7D1CF4C641C002504E0302004F830
:1030C000010B681CC5B24545F8DB6E46002505E0DE
:1030D00016F8010B04F8010B681CC5B2BD42F7DB02
:1030E0000020207021E0C34C6E4600BF207806F817
:1030F000010B601C044600780028F7D1BD4C002568
:1031000004E0302004F8010B681CC5B24545F8DB2B
:103110006E46002505E016F8010B04F8010B681C4B
:10312000C5B2BD42F7DB0020207000BF98E710B5A4
:10313000B148007888B9A948007870B9A6480078E5
:1031400058B90020A6490870FFF785FFA848017804
:10315000A44AA848FDF746FA02E0A848A849086032
:1031600010BD10B5A7480068002825DAA6484078A9
:1031700000F0080018B102209A49887002E000208F
:10318000984988708848006818B102209549C8702D
:1031900002E000209349C8709B48407800F040004E
:1031A00018B102208F49487002E000208D49487014
:1031B00000208C49887111E07348006808F07EFD9A
:1031C000044692480168204608F072FE03D80120A8
:1031D0008449887102E000208249887110BD2DE980
:1031E000FE4F81468A468A48007820B100208849EF
:1031F0000870BDE8FE8F8148083086490978441A76
:103200006E4600270DE02078302807DB207839282B
:1032100004DC14F8010B06F8010B00E0641C781CB8
:10322000C7B27C4800788742EDDB002030706846EA
:1032300008F0E7FA804645467748007840B12846CE
:1032400008F03CFD75490860002073490870D0E71C
:10325000280A734908704D707248C0F80090092020
:103260007149086002F029FA00BFC2E7FEB50446C2
:103270000E4615461A208DF8000021465D48FEF7DF
:1032800093FE5C4800788DF801005A4840788DF82C
:10329000020000208DF8030031465648FEF784FEF8
:1032A00054496846FDF734F960480570594805707F
:1032B00001204B490870514851490860FEBD00B5D6
:1032C00085B05BA0006804905AA0006803905AA0E3
:1032D0000068029059A00068019059A00068009011
:1032E0003C4800681A283DD010DC1A283BD2DFE8A1
:1032F00000F03AB1BDCFF7F5F4F3F2F1F0EFEEEDF7
:10330000ECEBEAE9E8E7E6E5E4E3E2E127282BD0A5
:1033100011DCA0F11B000C28E8D2DFE810F0D90284
:10332000EE02000312035A036C037E039003A20310
:10333000B403C603D8032E2817D00BDCA0F1280055
:103340000628D3D2DFE810F0F003040416042804A2
:103350003A044C04312875D077DC2F2874D03028FB
:1033600001D1F2E361E2F1E3CDE3F0E3BC0600203A
:10337000C0060020C4060020C8060020D006002099
:10338000D4060020CC060020D8060020DC06002051
:10339000E0060020E4060020E8060020EC060020FD
:1033A000F0060020F4060020F80600202C0700207C
:1033B0003007002034070020380700203C07002099
:1033C0004007002044070020480700204C07002049
:1033D00050070020300100201501002016010020B8
:1033E00069000020A8470020330000203A00002098
:1033F00010070020E40000201701002050090020E1
:103400006C000020D00700209C070020CC0000208A
:10341000570100206A0000201401002074000020E1
:10342000B14700208C070020980700206B00002087
:103430001A3032001A3033001A3034000E150D00E5
:103440000E1F1F00F0E300E0EFE332287ED0C82813
:1034500086D1EBE340F2E250FD4908600422FD48CA
:103460000168FD480068FFF701FF45E2F848006881
:10347000401CF74908600421F5480068FFF7AFFEDB
:103480000222F6480168F4480068FFF7EFFEECE717
:10349000EF480068401CEE4908600221EC480068D3
:1034A000FFF79DFE0222EE480168EB480068FFF737
:1034B000DDFEF9E39BE17CE169E156E143E130E1C6
:1034C0001DE10AE1F7E0E4E0D1E0BEE0ABE098E026
:1034D00085E072E05FE04CE039E025E012E0FFE7D4
:1034E000DB480068401CDA4908600221D8480068BF
:1034F000FFF775FE0422DB480168D7480068FFF734
:10350000B5FED1E3D2480068401CD14908600421CF
:10351000CF480068FFF763FE0222D3480168CE4817
:103520000068FFF7A3FEBFE3C9480068401CC84914
:1035300008600221C6480068FFF751FE0222CB480E
:103540000168C5480068FFF791FEADE3A9E3C048F4
:103550000068401CBE4908600221BD480068FFF7B2
:103560003EFE0222C2480168BB480068FFF77EFEAB
:103570009AE3B7480068401CB54908600221B44886
:103580000068FFF72CFE0222BA480168B2480068C2
:10359000FFF76CFE88E3AE480068401CAC49086049
:1035A0000221AB480068FFF71AFE0222B248016808
:1035B000A9480068FFF75AFE76E3A5480068401C5A
:1035C000A34908600221A2480068FFF708FE022212
:1035D000AA480168A0480068FFF748FE64E39C48D9
:1035E0000068401C9A490860022199480068FFF76A
:1035F000F6FD0222A248016897480068FFF736FEF0
:1036000052E393480068401C9149086002219048A9
:103610000068FFF7E4FD04229A4801688E480068BC
:10362000FFF724FE40E38A480068401C8849086090
:10363000042187480068FFF7D2FD04229248016800
:1036400085480068FFF712FE2EE381480068401CA1
:103650007F49086004217E480068FFF7C0FD022210
:103660008A4801687C480068FFF700FE1CE3784840
:103670000068401C76490860022175480068FFF721
:10368000AEFD04228248016873480068FFF7EEFD32
:103690000AE36F480068401C6D49086004216C48CB
:1036A0000068FFF79CFD04227A4801686A480068B8
:1036B000FFF7DCFDF8E266480068401C64490860DA
:1036C000042163480068FFF78AFD022272480168FE
:1036D00061480068FFF7CAFDE6E25D480068401CEB
:1036E0005B49086002215A480068FFF778FD022212
:1036F0006A48016858480068FFF7B8FDD4E25448AA
:103700000068401C52490860022151480068FFF7D8
:1037100066FD0522624801684F480068FFF7A6FD74
:10372000C2E24B480068401C4949086005214848EE
:103730000068FFF754FD05225A48016846480068B2
:10374000FFF794FDB0E242480068401C4049086021
:1037500005213F480068FFF742FD052252480168F5
:103760003D480068FFF782FD9EE239480068401C32
:1037700037490860052136480068FFF730FD05220B
:103780004A48016834480068FFF770FD8CE2304811
:103790000068401C2E49086005212D480068FFF78D
:1037A0001EFD0522424801682B480068FFF75EFDB8
:1037B0007AE227480068401C254908600521244812
:1037C0000068FFF70CFD3B48007840B13A4A002101
:1037D0006846FCF707FF1E203849086006E005220E
:1037E000374801681C480068FFF740FD5CE2184854
:1037F0000068401C16490860052115480068FFF75D
:10380000EEFC3048007840B12B4A00216846FCF7B6
:10381000E9FE1E202949086006E005222A480168C1
:103820000D480068FFF722FD3EE209480068401C91
:1038300007490860052106480068FFF7D0FC05220B
:103840002248016804480068FFF710FD2CE20000E0
:1038500038010020640600203001002068060020A6
:103860006C060020700600207406002078060020F8
:103870007C060020800600208406002088060020A8
:103880008C06002090060020940600209806002058
:103890009C060020A0060020A4060020A806002008
:1038A000AC060020B0060020B4060020B8060020B8
:1038B000BC060020780700209A000020D0000020DD
:1038C000C006002079070020C4060020C80600209A
:1038D000F748007848B9F7480068401CF549086087
:1038E0000521F4480068FFF77AFC0522F2480168D8
:1038F000F2480068FFF7BAFCD6E1EE480068401CC9
:10390000EC4908600521EB480068FFF768FC0522D8
:10391000EB480168E9480068FFF7A8FCC4E1E54806
:103920000068401CE34908600521E2480068FFF791
:1039300056FC0522E3480168E0480068FFF796FC62
:10394000B2E1DC480068401CDA4908600521D9482A
:103950000068FFF744FCDC48007840B1DB4A0021F6
:103960006846FCF73FFE1E20D949086030E0D04889
:10397000007830B3D14800681E2822D10020CC49FD
:103980000870D4490870D4490870D2490870D349E6
:103990000870D348D3490860D34A0021D348FCF7C4
:1039A00021FE0020C5490860D1490870D14803F0C4
:1039B000FFFB0120D04908700020BD49087005B008
:1039C00000BD0522CD480168BC480068FFF74EFCE9
:1039D0006AE1B8480068401CB64908600521B5484E
:1039E0000068FFF7FCFB0522C5480168B348006882
:1039F000FFF73CFC58E1AF480068401CAD49086047
:103A00000521AC480068FFF7EAFB0522BD480168C4
:103A1000AA480068FFF72AFC46E1A6480068401C57
:103A2000A44908600521A3480068FFF7D8FB0522D8
:103A3000B5480168A1480068FFF718FC34E19D48CB
:103A40000068401C9B49086005219A480068FFF700
:103A5000C6FB0522AD48016898480068FFF706FCE0
:103A600022E194480068401C924908600521914871
:103A70000068FFF7B4FB0222A54801688F48006880
:103A8000FFF7F4FB10E18B480068401C894908608F
:103A9000022188480068FFF7A2FB01229D480168C7
:103AA00086480068FFF7E2FBFEE082480068401CA1
:103AB0008049086001217F480068FFF790FB0122E0
:103AC000954801687D480068FFF7D0FBECE0794835
:103AD0000068401C77490860012176480068FFF7BC
:103AE0007EFB01228D48016874480068FFF7BEFB29
:103AF0008A48006818B102207B49C87002E00020A3
:103B00007949C870D0E04FF4C1606A490860042167
:103B100068480068FFF763FB022281480168674834
:103B20000068FFF7A3FBBFE040F20E606149086048
:103B3000022160480068FFF752FB022279480168C1
:103B40005E480068FFF792FBAEE082E0ABE059E030
:103B500058480068401C57490860022155480068D1
:103B6000FFF73DFB02227048016854480068FFF7E8
:103B70007DFB99E04F480068401C4E4908600221D7
:103B80004C480068FFF72BFB0222684801684B484D
:103B90000068FFF76BFB87E046480068401C45491A
:103BA0000860022143480068FFF719FB02226048C1
:103BB000016842480068FFF759FB75E03D4800681E
:103BC000401C3C49086001213A480068FFF707FBA8
:103BD00001225848016839480068FFF747FB63E055
:103BE00034480068401C33490860012131480068AE
:103BF000FFF7F5FA01225048016830480068FFF7E6
:103C000035FB51E02B480068401C2A49086001211F
:103C100028480068FFF7E3FA01224848016827486E
:103C20000068FFF723FB3FE025E000E03AE0214891
:103C30000068401C1F49086001211E480068FFF70A
:103C4000CEFA01223E4801681C480068FFF70EFBCF
:103C50002AE018480068401C1649086001211548F0
:103C60000068FFF7BCFA0122364801681348006873
:103C7000FFF7FCFA18E00F480068401C0D49086087
:103C800002210C480068FFF7AAFA002013490870C7
:103C90000E4A002101A8FCF7A5FC00200749086096
:103CA00002E001E000E000BF00BF00BF87E60000C7
:103CB0001B01002038010020D00600203001002028
:103CC000D4060020CC0600207A0700209A000020AD
:103CD000D00000206A0000206B0000206900002056
:103CE000500900206C000020A84700204E01002051
:103CF00015010020A086010011010020D806002037
:103D0000DC060020E0060020E4060020E806002093
:103D1000EC060020F0060020F4060020F806002043
:103D20002C0700203007002034070020380700202F
:103D30003C070020400700204407002048070020DF
:103D40004C07002050070020FEB504460E461546DD
:103D50000C208DF800002146FE48FEF725F9FD48AD
:103D600000788DF80100FB4840788DF802000020B3
:103D70008DF803003146F748FEF716F9F549684615
:103D8000FCF7C6FBF4480570F44805700120F449BF
:103D90000870F448F4490860FEBD10B5F3480068A7
:103DA000012804D002280AD0032825D10FE00522DB
:103DB000EF480168ED480068FFF7C6FF1DE00522E7
:103DC000EC480168E9480068FFF7BEFF15E00120F4
:103DD000E9490870E949087040F2FC50E849086078
:103DE0001B20E24908600120E64908700020E649EE
:103DF0000870FFF764FA00E000BF00BF10BDFEB519
:103E000004460E46154600208DF801008DF800404E
:103E10003146D048FEF7C8F8CE496846FCF778FB33
:103E2000CD480570CD4805700120CD490870CD48BA
:103E3000CD490860FEBD70B58EB0D4A000680D906D
:103E4000D3A000680C90D3A000680B90D2A00068AB
:103E50000A90D2A000680990D1A103C9CDE9070159
:103E6000D1A000680690D1A103C9CDE90401AFF645
:103E7000302000680390CFA103C9CDE90101BB4800
:103E800000680C2874D2DFE800F073060D1D2D3D8C
:103E90004D617484A7FD0122C84801681A20FFF70C
:103EA000AEFF22E140F21960B54908600121B44833
:103EB0000068FFF794F90222C14801680D20FFF75E
:103EC0009EFF12E140F20960AD4908600221AC4852
:103ED0000068FFF784F90522BA4801680F20FFF750
:103EE0008EFF02E14FF4C360A54908600521A44894
:103EF0000068FFF774F90122B34801680A20FFF750
:103F00007EFFF2E040F21A609D49086001219C4862
:103F10000068FFF764F9AD48052201680C20FFF73F
:103F20006EFFE2E040F2DF509549086005219448B9
:103F30000068FFF754F9A648006807F0EBFE044656
:103F4000052221461120FFF75AFFCEE040F20A6019
:103F50008B49086005218A480068FFF740F9002076
:103F60007F4908709B4A00219B48FCF73BFBBCE063
:103F7000BAE09A4800689A490860002078490870B9
:103F8000012098490873934A00219748FCF72AFBBF
:103F9000ABE08F48006807F0BDFE044605222146CD
:103FA0001120FFF72CFF9148006807F087FE0646B6
:103FB00031468F48006807F0BBFC04468749096812
:103FC000874A1268881A07F082FE0546214607F0E4
:103FD000AFFC8849086088E003F0FDFC8349086075
:103FE00040F20C6066490860052165480068FFF7EB
:103FF000F6F87E48006807F061FE064631467C48C8
:10400000006807F095FC044674490968744A126810
:10401000881A07F05CFE0546214607F089FC7549C1
:10402000086000206F4908737048006807F046FE7A
:10403000044621466F48006807F07AFC6D49086025
:10404000674800686C49086004226C48FEF782FEED
:10405000042269496948FEF76CFE664800686849B1
:104060000860042265480A30FEF774FE04226449A1
:1040700062480A30FEF75DFE62495E48006807F05C
:1040800025FC00E009E0054607F044FE0446062250
:1040900021460DA8FFF7EAF827E001205A490870E9
:1040A000012137480068FFF79AF8564951480068DF
:1040B00007F03EFC4F490860084600685049086018
:1040C00004224E480A30FEF745FE04224C494B4874
:1040D0000A30FEF72EFE0020214908703D4A0021DB
:1040E0001C48FCF77FFA00E000BF00BF0EB070BDB7
:1040F00010B586B045A1D1E900028968CDE9042157
:104100000390FCF759FBC8B91B48007810B9424826
:10411000007898B14148007880B90F480078401C79
:104120000D490870084600780C490978884202DD7C
:10413000012009490870012038490870FCF73CFB50
:10414000012806D10C48007810B93348007867E0A0
:1041500067E08DE0E40000206B0000206A00002092
:1041600069000020500900206C0000203001002070
:1041700054070020580700201501002011010020DD
:10418000380100201B010020170100201A00000048
:10419000300000000D000000303000000F00000073
:1041A00030313233340000002425000035313833FB
:1041B00034000000391B1B0D000000001007002018
:1041C000140700201807002064070020A007002023
:1041D0001C0700209A00002033000020040000206B
:1041E00070000020BD0900203A000020D40000200B
:1041F0002807002074000020A4000020901D07085C
:10420000A800002000401C4614010020350E252582
:104210002626262600000000160100200C010020A2
:1042200030B3FE48007818BBFD480078C0F10800A4
:10423000FC49085C401CC4B2F9480078C0F1080091
:104240000C54392C06DD3020F5490978C1F10801FC
:10425000F44A5054392C01DC302C06DA3020F04975
:104260000978C1F10801EF4A50540120EB49087068
:10427000FCF7A2FA022824D1EB48007808B3EB48F7
:104280000078F0B9EA480078D8B9EA48007848B12F
:10429000E94800681F2804DAE7480068401CE6493E
:1042A000086005E0E4480068401CE349086000BF7E
:1042B000FFF705F80120DE490870DC49087006B0F8
:1042C00010BDFCF779FA022815D1DC48007890B1CE
:1042D000D648007878B9D648007860B9D6480068E2
:1042E000401CD5490860FFF7A6FD0120D0490870A1
:1042F000CE490870E3E7FCF75FFA022815D1D048F1
:10430000007890B1C948007878B9C948007860B998
:10431000C9480068401CC8490860FFF73EFD0120FD
:10432000C3490870C1490870C9E7FCF745FA03287A
:1043300043D1C048007800B1C1E7C2480078D8BB7B
:10434000BF48007858B9BD48007840B9B6480078F1
:1043500028B903F07FF90120BA4908702DE0B84868
:10436000007828B9B548007810B9AF480078F8B19E
:10437000B148006801281BDD0120B3490870AE4830
:104380000068401EAC490860B0480068801EAF4914
:104390000860A548007808B1FEF791FFA7480078AB
:1043A00008B1FFF748FDA648007808B1FFF7F5FC13
:1043B0000120A449087082E7FFE7FCF7FDF9042813
:1043C00007D1A348007808B903F024F90120A049D7
:1043D0000870FCF7F1F905284CD198480078E8BB43
:1043E00097480078D0BB9B480078D8B98E480078B1
:1043F000C0B90020984908708F490860092203A9B4
:10440000684607F0C3F94FF47A7002F0D1FE934A80
:1044100000216846FCF7E6F80120834908708D49C1
:1044200008704CE78B480078C0B97F480078A8B185
:1044300000208B4908707A490870894908708649BC
:104440000870784887490860874A00218748FCF748
:10445000C9F8002078490860734900E00AE0087054
:10446000834802F0A5FE01207A49087000207149B6
:10447000087024E7FCF7A0F9062841D16A480078C3
:10448000E8BB6F480078D0BB00206B4908607948D2
:10449000007898B96948007880B900206E490870A2
:1044A0006E4A00217448FCF79DF8002062490860BC
:1044B0000120624908706F49087000E76D48007874
:1044C000E8B95E480078D0B10320554908706449C6
:1044D00008706A496A48FCF71BF8032060490870B5
:1044E00001205D4908704F485E490860002052492C
:1044F00008605249087001205E490870DFE6FFE756
:10450000FCF75AF9072841D147480078E8BB4B48E7
:104510000078D0BB0020484908605A48007898B914
:104520004748007880B900204B4908704B4A002169
:104530005548FCF757F800203F49086001204049E2
:10454000087050490870BAE64E480078E8B93C480F
:104550000078D0B1032032490870414908704749BA
:104560004748FBF7D5FF03203D49087001203A4931
:1045700008702C483B49086000202F4908603049EA
:10458000087001203F49087099E6FFE700BF96E6F2
:1045900010B5FCF711F910B901203C490870FCF77F
:1045A0000BF9012802D1002038490870FCF704F902
:1045B00010B1002036490870FCF7FEF8012802D03F
:1045C000002016490870FCF7F7F8022803D10020F4
:1045D0001D49087007E0002014490870144908704C
:1045E0000A2002F0E5FDFCF7E7F8032802D00020DE
:1045F00014490870FCF7E0F8042802D000201449A0
:104600000870FCF7D9F8052805D00020114908707A
:104610000A2002F0CDFDFCF7CFF83BE00D010020B1
:104620006B00002050090020150100200E01002021
:10463000180100201B01002030010020160100207D
:10464000170100200F010020570100203801002031
:104650001001002011010020690000209A000020B4
:104660006A0000206C000020A84700204E010020B6
:10467000A0860100120100201C010020640000201F
:104680004A00002013010020250100205C010020C9
:104690000C010020062802D00020FC490870FCF71D
:1046A0008BF8072802D00020F949087010BD2DE9C9
:1046B000F04F85B0F748006807F00EFBCDE9000128
:1046C000F548006807F008FB064632460B46002016
:1046D000F24908F03DFC82468B46F149086807F034
:1046E0007EFB804652465B4607F079FA0446DDE9D8
:1046F000002307F074FACDE9020107F0B3FB049040
:10470000E448006807F0E8FA04460D46E24800680D
:1047100007F0E2FA824652460B460020DF4908F0D5
:1047200017FC80468946DE49086807F058FB424678
:104730004B46CDE9020107F052FA064622462B46C7
:1047400007F060FB14D8D6490868002107F0B0FBD9
:104750000ED840F6B47004F025FDD249049807F055
:10476000B5F8054607F0D6FA044604F043FD38E0F4
:10477000CB490868002107F091FB07D240F6B470DE
:1047800004F010FD012004F035FD2AE0C148006866
:1047900007F0A2FA80468946BF48006807F09CFAF5
:1047A00002460B46CDE902010020BC4908F0D0FBCF
:1047B00004460D46BA49086807F011FB0646224632
:1047C0002B4607F00CFA824642464B4607F032FB76
:1047D00007D240F6B47004F0E5FC4FF6FE7004F02A
:1047E00009FD05B0BDE8F08F2DE9F04F87B0A9486D
:1047F000006807F071FA04460D46A748006807F004
:104800006BFA824652460B460020A44908F0A0FBF2
:10481000CDE90401A249086807F0E1FA8046DDE924
:10482000042307F0DCF9064622462B4607F0EAFA95
:1048300037D89B490868002107F03AFB31D805209A
:1048400004F0B0FC9348006807F046FA04460D46B1
:104850009148006807F040FA804642460B46002027
:104860008E4908F075FBCDE900018D49086807F015
:10487000B6FA0646DDE9002307F0B1F922462B46D9
:10488000CDE9020107F0ABF90022874BCDE9040125
:1048900007F033F9824607F06AFA069004F0AAFCA2
:1048A00036E07F490868002107F0F8FA06D20520B3
:1048B00004F078FC012004F09DFC29E075480068B4
:1048C00007F00AFA82468B467348006807F004FA3C
:1048D00002460B46CDE904010020704908F038FB80
:1048E000804689466E49086807F079FA06464246CE
:1048F0004B4607F074F9044652465B4607F09AFAB5
:1049000006D2052004F04EFC4FF6FE7004F072FC57
:1049100007B0BDE8F08F8AB064A103C9CDE90701F3
:1049200064A2D2E900109268CDE90502049102F078
:10493000AFFC02F0CBFC01206149086002F066F890
:1049400000F059FB00F019FC00F0D5FB00F055FC1D
:1049500000F095FC02F028FE02F03AFE00F0EBFCBD
:1049600002F030FC00BF00BF4021564805F063FA5A
:10497000FDF7BCF800F020FD00F0C1FC0422524914
:104980005248FEF7D6F950480068514908600422A1
:1049900050494E480A30FEF7CCF94E4800684E495F
:1049A000086002224D4949481430FEF7C2F902223C
:1049B0004B4946481E30FEF7BCF902F02DF9494834
:1049C000016849A007F0B4FCFDF718FA7C2005F057
:1049D00016FB38BB4A484B4908F06CFA4A4A03C2F6
:1049E0004A484B4908F0A0FF4A4A03C244484A4992
:1049F00009F010F8444AC2E904014448474909F063
:104A000009F8414AC2E906014048444908F052FA0F
:104A10003D4AC2E902013A483F4908F085FF3D4A54
:104A2000C2E9020120213E4805F007FA02213C4874
:104A300005F003FA04F0E5FB04F0AEFB032039496E
:104A400008703949087008700120384908703848E2
:104A500038490860002035490870374800683749F0
:104A6000086014E22021364805F0E7F980212C483F
:104A700005F0E3F93348007830B10221284805F009
:104A8000DAF94FF0000A70E07EE000001201002029
:104A90001301002018070020100700200000244008
:104AA000CC00002000FE7F47C0FFEF4065666661D6
:104AB00062636400010000000000000000000000CC
:104AC000D007002000180140A4000020901D070816
:104AD00070000020A800002074000020540700206F
:104AE00058070020A007002046465F5461726765A2
:104AF000745F70756C7365203D256C640D0A000051
:104B0000BF6E2D3852C1F03F684100201E2644542C
:104B1000FB21F93F8844002052C1E03FFB21E93FDF
:104B2000000801406B0000206A000020690000209E
:104B3000500900206C000020EC0600202008002016
:104B4000001001401E080020DD4810F80A10DD4862
:104B500006F02EFC00BF8021DA4806F097FC002802
:104B6000F9D00AF1010000F0FF0ABAF1080FEBDBFF
:104B70004FF47A6002F01CFB0221D34805F05DF986
:104B80000020D249087016E04FF0000A10E0D0482B
:104B900010F80A10CF4806F00BFC00BF8021CD486A
:104BA00006F074FC0028F9D00AF1010000F0FF0AB9
:104BB000BAF10A0FEBDBC8480078C8B14FF0000A21
:104BC00010E0C64810F80A10C54806F0F1FB00BF17
:104BD0008021C34806F05AFC0028F9D00AF10100F0
:104BE00000F0FF0ABAF1090FEBDB0020BA490870A8
:104BF000BC480068032807DABB480068BB49086066
:104C0000BB480068BB490860BB480078002847D112
:104C1000BA480078F0B3BA48006807F04FF803903C
:104C2000B848006807F04AF88346B74906F080FEA6
:104C30000746039906F04AFE064607F0D0F80446F8
:104C40000D46B248006807F047F8064632460B4664
:104C50000020AF4908F07CF9CDE90201AD480068B9
:104C600007F02CF8064607F0BAF8CDE90001DDE9B7
:104C7000022306F0B4FF804622462B4607F0C2F816
:104C80000ED2A5480068A5490860A548407840F0C4
:104C9000400000E004E0A2494870012096490870F5
:104CA000A0480078002859D19F480078002855D1A5
:104CB0009E480078002851D19D480068002847D0C0
:104CC00094480068D0B300219A48006807F0E6F8DD
:104CD0003ED18A48007888B39548006806F0EEFF18
:104CE00005468C480468002C01DB214600E0614247
:104CF000084606F0E3FF0646294607F0CFF820D223
:104D00008D48006810B1012819D106E0C8208B49F0
:104D1000086001208849086012E08848006860B98E
:104D20007D4800687D4908607D48407840F040003B
:104D30007B49487000208049086001E008E000BF1E
:104D40000CE000207C490860C8207C49086005E030
:104D5000002079490860C8207849086078480078C0
:104D6000002854D16C480068764908606B48006898
:104D700006F0A4FF83466848006806F0A8FF59467D
:104D8000039006F09DFD81466F480168484606F095
:104D9000CFFD804607F023F8064600226B4B06F055
:104DA00005FE044606F0E3FF5A490860084600681D
:104DB00006F084FF04465F480168204606F080FD47
:104DC0006349086002F007FE62490860084600680F
:104DD00006F074FF04465E490868214606F0A8FD07
:104DE0005B490860086806F095FF5A49096800FBAE
:104DF00001F4204606F062FF55490860086806F095
:104E000089FF044621465448FDF7CEF80BE042489E
:104E1000006806F05CFF054606F07CFF044621466C
:104E20004D48FDF7C1F83B480068002804DA3948CE
:104E300000684042374908603648006847490860C2
:104E40004748006810B1FFF7CFFC01E0FFF72FFCE7
:104E500004F0B8F84348006850B943480078FBF7BD
:104E600045FC0020414908704149087041490870DB
:104E7000FFF78EFBFFF73CF9FEF773F93E48006839
:104E800008B9FEF754F9FEF7C4F8FDF7DAFFE9E5D3
:104E900000B5042239493A48FDF75CFF042237493E
:104EA0003748FDF746FF0422364935480A30FDF7FA
:104EB00051FF0422334932480A30FDF73AFF00BD62
:104EC0002C08002000440040000801401E0800207B
:104ED000194C0020004C004064080020104C0020B9
:104EE00000380140D0070020400700200C080020B7
:104EF0002C07002008080020D8000020E007002030
:104F0000180700206C0600200000C842100700208F
:104F100000002440C0000020040000207000002099
:104F20009C07002017010020160100201501002019
:104F300074060020C8000020DC000020E0000020F3
:104F40005C010020C4000020740000200000E03F4D
:104F5000CC000020D4000020E400002090000020BD
:104F600064070020D00000206B000020780700209C
:104F7000790700207A0700205801002054070020FC
:104F8000A41D07085807002070B502460B46FF24F1
:104F9000FF250AE012F8010B80EA0401FB48405C9F
:104FA00080EA0504FA4810F82150181EA3F1010602
:104FB000B3B2EFD145EA042070BD70B502460B468E
:104FC0004FF6FF70002413E01178484000250AE0F6
:104FD00000F0010626B14AF2010686EA500000E020
:104FE00040086E1CF5B2082DF2DB661CF4B2521CB0
:104FF0009C42E9DB70BD00B585B0012144F2080098
:1050000005F028F90121042004F039FF4020ADF813
:10501000100018208DF8130003208DF8120004A949
:10502000DC4804F05BFE8020ADF8100004208DF811
:10503000130004A9D74804F051FE4FF49660009085
:105040000020ADF80400ADF80600ADF80800ADF89A
:105050000C000C20ADF80A006946CF4806F0AFF806
:105060000121CD4806F037F9012240F22551CA4806
:1050700006F03DF905B000BD00B585B0012144F250
:10508000040005F0E7F84FF40070ADF810001820A8
:105090008DF8130003208DF8120004A9BF4804F016
:1050A0001DFE4FF48060ADF8100004208DF8130051
:1050B00004A9BA4804F012FE4FF496400090002074
:1050C000ADF80400ADF80600ADF80800ADF80C002E
:1050D0000C20ADF80A006946AF4806F070F80121CF
:1050E000AD4806F0F8F8012240F22551AA4806F032
:1050F000FEF805B000BD00B585B00121880405F0BB
:10510000B6F80121082005F0A5F84FF48060ADF84D
:10511000100018208DF8130003208DF8120004A948
:105120009C4804F0DBFD4FF40060ADF81000042053
:105130008DF8130004A9974804F0D0FD4FF41650E1
:1051400000900020ADF80400ADF80600ADF80800AE
:10515000ADF80C000C20ADF80A006946904806F046
:105160002EF8012240F225518D4806F0C0F80121A9
:105170008B4806F0B0F805B000BD00B585B0012140
:10518000480405F074F80121042005F063F80420B8
:10519000ADF8100018208DF8130003208DF81200D0
:1051A00004A97E4804F09AFD0820ADF81000042000
:1051B0008DF8130004A9794804F090FD4FF496404F
:1051C00000900020ADF80400ADF80600ADF808002E
:1051D000ADF80C000C20ADF80A006946714805F0E6
:1051E000EEFF012240F225516E4806F080F80121C1
:1051F0006C4806F070F805B000BD00B585B001211F
:10520000C80405F034F80121102005F023F84FF40C
:105210008060ADF8100018208DF8130003208DF881
:10522000120004A9604804F059FD4FF40060ADF885
:10523000100004208DF8130004A95B4804F04EFD13
:105240004FF4165000900020ADF80400ADF80600B1
:10525000ADF80800ADF80C000C20ADF80A00694666
:10526000524805F0ACFF012240F225514F4806F0AC
:105270003EF801214D4806F02EF805B000BD00B5FE
:1052800085B00121080504F0F2FF0121082004F097
:10529000E1FF4FF48050ADF8100018208DF8130096
:1052A00003208DF8120004A93F4804F017FD0420E4
:1052B000ADF810008DF8130004A93D4804F00EFD70
:1052C0004FF4964000900020ADF80400ADF80600C1
:1052D000ADF80800ADF80C000C20ADF80A006946E6
:1052E000344805F06CFF012240F22551314805F0A9
:1052F000FEFF01212F4805F0EEFF05B000BD08B507
:10530000A220ADF8000010208DF8030003208DF8D6
:1053100002006946214804F0E1FC2820ADF80000B5
:1053200010208DF8030003208DF8020069461E4806
:1053300004F0D4FC08BD08B500214FF0006003F074
:10534000A0FF4FF4E06003F065FF26208DF8000019
:1053500000208DF801008DF8020001208DF8030077
:10536000684603F05CFF4FF4E06003F053FF272032
:105370008DF8000000208DF801008DF8020001205A
:105380008DF80300684603F04AFF08BD6201002063
:1053900064020020000C0140003801400008014078
:1053A000004800400044004000100140004C004014
:1053B000001401400050004008B54FF4E06003F0D5
:1053C00029FF17208DF8000001208DF80100002032
:1053D0008DF8020001208DF80300684603F01FFFDE
:1053E00008BD70B504460D4600BF4021FB4806F0DD
:1053F0004DF80128F9D1204670BD10B500BF20211D
:10540000F64806F043F80128F9D12021F34806F0C8
:105410004AF8F24805F0D0FF10BD30B58BB0054614
:105420000C46EF4803F064FFEC48001D0090019526
:10543000102002900394002004908020059000200A
:105440000690079008904FF48050099000200A9031
:105450006946E34803F0EEFF0BB030BD10B50446DB
:1054600040F2CF7084420DD1DE480068B0F57F4F26
:1054700004D10821DC4804F0DEFC03E00821DA480E
:1054800004F0DBFCB4F5FA6F0DD1D6480068B0F536
:105490007F4F04D10421D44804F0CDFC03E0042163
:1054A000D14804F0CAFC40F2D17084420FD1CD48FB
:1054B0000068B0F57F4F05D14FF40051CB4804F0A0
:1054C000BAFC04E04FF40051C84804F0B6FC40F2C6
:1054D000D27084420DD1C3480068B0F57F4F04D12B
:1054E0000221C34804F0A7FC03E00221C04804F0F5
:1054F000A4FC40F2D37084420DD1BA480068B0F5E4
:105500007F4F04D10821BA4804F095FC03E008213C
:10551000B74804F092FC40F2D47084420DD1B148F7
:105520000068B0F57F4F04D12021B14804F083FC1E
:1055300003E02021AE4804F080FC40F2D5708442A4
:105540000DD1A8480068B0F57F4F04D18021A8484C
:1055500004F071FC03E08021A54804F06EFC40F2E9
:10556000D67084420FD19F480068B0F57F4F05D1B7
:105570004FF400719E4804F05EFC04E04FF40071AB
:105580009B4804F05AFC40F2D77084420DD19548F4
:105590000068B0F57F4F04D10121964804F04BFC20
:1055A00003E00121934804F048FCB4F5FB6F0FD1F0
:1055B0008C480068B0F57F4F05D14FF480518C487E
:1055C00004F039FC04E04FF48051894804F035FCC4
:1055D00040F2D97084420FD182480068B0F57F4F05
:1055E00005D14FF48041824804F025FC04E04FF4DB
:1055F00080417F4804F021FC40F2DA7084420DD1F2
:1056000078480068B0F57F4F04D101217A4804F052
:1056100012FC03E00121784804F00FFC40F2DB703B
:1056200084420DD16F480068B0F57F4F04D18021CE
:105630006D4804F000FC03E080216B4804F0FDFBA2
:1056400040F2DC7084420FD166480068B0F57F4FAD
:1056500005D14FF40071644804F0EDFB04E04FF411
:105660000071614804F0E9FB40F2DD7084420FD123
:105670005C480068B0F57F4F05D14FF400615A488F
:1056800004F0D9FB04E04FF40061574804F0D5FB67
:1056900040F2DE7084420FD152480068B0F57F4F6F
:1056A00005D14FF40051504804F0C5FB04E04FF41D
:1056B00000514D4804F0C1FB10BD2DE9D84701222F
:1056C00040F22551454805F012FE4C4800680C2870
:1056D00081F09181DFE800F0061224303B475A66E2
:1056E000F8F7F6F5C82D07D1322045490870434830
:1056F0000068401C4149086001F085B9032D07D0BE
:10570000052D05D0102D03D000203C490860F3E79B
:105710003C48057039480068401C38490860EBE790
:10572000394805600068000237490860334800685E
:10573000401C32490860DFE733480068284332499B
:1057400008602E480068401C2C490860D4E72548B2
:105750000560006800022349086028480068401C72
:1057600026490860C8E71F48006828431D490860AB
:1057700024480078102803D108202049086004E05C
:105780001E480068401C1D490860B5E71F480560B9
:10579000006800021D49086018480068401C17494D
:1057A0000860A9E7194800682843184908601548A7
:1057B0000078032871D0052870D113480068B0F52F
:1057C000FD6F2ED107480068B0F57F4F24D101202E
:1057D0000F4908700F49087023E0000000380140AD
:1057E00044000240900700200018014000100140D2
:1057F000001C0140000C01400020014098070020DF
:1058000088070020890700208C07002094070020CB
:105810007B070020A80700200020FE490870FE49F1
:105820000870FE48006840F2E97188420FD1FC48D8
:105830000068B0F57F4F05D10120FA490870FA4998
:10584000087004E00020F7490870F7490870F34831
:10585000006840F2EA7188420DD1F1480068B0F565
:105860007F4F05D10120F1490870F149087302E02A
:105870000020EE490870E948006840F2EB71884268
:1058800010D1E7480068B0F57F4F08D10120E94901
:1058900008700020E649087304E064E031E100206C
:1058A000E4490870DD48006840F2E47188420FD195
:1058B000DB480068B0F57F4F07D10120DE49087052
:1058C00006E0E9E3E9E333E125E10020DA49087085
:1058D000D248006840F2EC7188420AD1D048006892
:1058E000B0F57F4F05D1D548007800F0FE00D349D0
:1058F0000870CA48006840F2ED7188420AD1C84871
:105900000068B0F57F4F05D1CC48007800F0FD006D
:10591000CA490870C148006840F2E77188420BD15B
:10592000BF480068B0F57F4F03D10120C44908701B
:1059300002E00020C2490870C148007818B1B74899
:105940000068FFF78BFD0021BE480068401CBD4A7F
:105950001060BD4A11540020BC490870B949086064
:1059600011460870D5E04FF006084146B648FFF7EB
:105970000BFB0746B44CAA4890F800904FEA4960E8
:105980004FEA1069B24909688F4270D1C82004F803
:10599000010B032004F8010B04F8019B00267CE0B6
:1059A000142E76D2DFE806F00A0F14191E23282DD4
:1059B00032373C42474D52585D646970A548407883
:1059C00004F8010B66E0A348007804F8010B61E0DD
:1059D000A148407804F8010B5CE09F48007804F887
:1059E000010B57E09D48C07804F8010B52E09B483A
:1059F000807804F8010B4DE09848407804F8010BDA
:105A000048E09648007804F8010B43E08B48407862
:105A100004F8010B3EE08948007804F8010B39E0F6
:105A20008F480088000A04F8010B33E08C480078A6
:105A300004F8010B2EE08B480088000A04F8010BE3
:105A400028E08848007804F8010B23E086480088A5
:105A5000000A04F8010B1DE08348007804F8010BEC
:105A600018E082480088000A04F8010B12E040E0C8
:105A70007E48007804F8010B0CE07D480088000A9D
:105A800004F8010B06E004E07948007804F8010B03
:105A900000E000BF00BF701CC6B24E4580DB09F1BC
:105AA000030000F0FF0841466748FFF76DFA07461C
:105AB000380A04F8010B04F8017B002004F8010BFC
:105AC000614C08F1020000F0FF0841462046FFF754
:105AD000A4FC01228021674805F02EFC01216648C4
