:020000040800F2
:1000000020500020010100082501000827010008F8
:100010002B0100082F010008330100080000000038
:100020000000000000000000000000003701000890
:1000300039010008000000003B0100083D010008F4
:100040001B0100081B0100081B0100081B01000820
:100050001B0100081B010008C9030008E103000898
:100060001B0100081B0100081B0100081B01000800
:100070001B0100081B0100081B0100081B010008F0
:100080001B0100081B0100081B0100081B010008E0
:100090001B0100081B0100081B0100081B040008CD
:1000A0001B0100081B0100081B0100081B010008C0
:1000B0001B010008670100081B0100081B01000864
:1000C0001B0100081B0100081B0100081B010008A0
:1000D0001B0100083F010008470100084F0100080C
:1000E000F90300081B0100081B010008DFF80CD011
:1000F0000BF0B4FF00480047E749000820500020FB
:100100000648804706480047FEE7FEE7FEE7FEE7B1
:10011000FEE7FEE7FEE7FEE7FEE7FEE7F1B50008D3
:10012000ED000008704700BFFEE700BFFEE700BF1C
:10013000FEE700BFFEE7704770477047704710B595
:1001400005F0FFFA10BD10B506F016FD10BD10B594
:1001500006F03AFD10BD10B506F047FD10BD10B514
:1001600006F07AFD10BD10B50121D6480AF0C1FF96
:10017000F0B30121D3480AF0CDFF01F0F6F9D248DF
:10018000006828B1D0480068401ECF4908600EE0E2
:100190002021CE4809F06AFEC0F10100C4B2224617
:1001A0002021CA4809F073FE0620C7490860C848E4
:1001B0000078142805DAC6480078401CC449087045
:1001C0001EE04FF00000C249087000BF4FF0010070
:1001D00080F3138800BF00BFBE48006800F4E060F1
:1001E000BD4940EA010000F104004FF0E02100E0C9
:1001F000E9E0C1F80C0DBFF3408F00BF00BFFEE780
:10020000B6480078142805DAB4480078401CB34991
:1002100008705EE00020B1490870B148007820B154
:10022000AF480078401EAE490870AE48006820B163
:10023000AC480068401EAB490860AB48006820B17C
:10024000A9480068401EA8490860A848006820B175
:10025000A6480068401EA5490860A548006820B16E
:10026000A3480068401EA2490860A248006820B167
:10027000A0480068401E9F4908609E48406820B121
:100280009C484068401E9B4948609A48806820B15D
:1002900098488068401E974988609648C06820B199
:1002A0009448C068401E9349C8609348007820B1C4
:1002B00091480078401C904908709048007828B117
:1002C0008E480078401E8D49087002E000208C495D
:1002D00008728C488078012811DD8A488078401E99
:1002E0008849887008468078012808D1022186480C
:1002F00009F0CBFD83488078401E82498870814890
:10030000C078012811DD7F48C078401E7D49C87043
:100310000846C078012808D102217B4809F0B5FDC4
:100320007848C078401E7749C8707648007901281F
:1003300011DD74480079401E724908710846007941
:10034000012808D10221704809F09FFD6D4800790D
:10035000401E6C4908716B484079012811DD6948DD
:100360004079401E6749487108464079012808D104
:100370000221654809F089FD62484079401E6149C3
:10038000487151480068022813D107F0E9F907F0D5
:10039000A1FC07F076FC07F072FE07F045FB07F0C2
:1003A0006CFB5A48007820B158480078401E5749E5
:1003B000087045480068052805D101F0B0FA00F042
:1003C000ADFE00F0D1FF10BD10B5012009F04AF9D3
:1003D00028B1012009F043F9012009F054F910BDBA
:1003E00010B5022009F03EF928B1022009F037F9D2
:1003F000022009F048F910BD10B54FF4804009F013
:1004000031F948B101F06CFD4FF4804009F027F953
:100410004FF4804009F037F910BD10B5202009F0E5
:1004200021F928B1202009F01AF9202009F02BF930
:10043000402009F017F928B1402009F010F94020B8
:1004400009F021F9802009F00DF928B1802009F088
:1004500006F9802009F017F94FF4007009F002F94D
:1004600038B14FF4007009F0FAF84FF4007009F059
:100470000AF94FF4807009F0F5F810B301F030FD7F
:100480002349086000201249087040210F4809F0F4
:10049000EDFCC0F10100C4B2224640210B4809F036
:1004A000F6FC1C48006820B11B48006808B108F041
:1004B000B8F94FF4807009F0D2F84FF4807009F069
:1004C000E2F810BD000400400000002000180140C8
:1004D0008C0700200CED00E00000FA050900002068
:1004E00000080020600100202C010020E807002007
:1004F000E0070020DC4B002001080020020800205B
:10050000BD090020B3070020000801403C01002085
:100510000400002034080020300800202DE9F041BC
:1005200006460D4630460BF033F900F0FF0828462A
:100530000BF02EF9C7B2002404E02620FF4908552D
:10054000601CC4B2092CF8DB0020FC4908720024AE
:1005500010E0444502DA305DF8490855C7F108005B
:10056000A04205DCC7F10800201A285CF3490855B1
:10057000601CC4B2082CECDBBDE8F08170B5044609
:1005800000251EE00121EE4809F07FFC962006F0D0
:1005900065FE14F0010F05D04FF48071E94809F0B1
:1005A00072FC04E04FF48071E64809F06EFC6410C0
:1005B0000121E34809F067FC962006F04FFE681C15
:1005C000C5B2082DDEDB70BD10B504460221DC4843
:1005D00009F05BFC962006F041FE2046FFF7CEFFB7
:1005E0000221D74809F04FFC962006F037FE10BDD7
:1005F0002DE9F04705460F46904628460BF0C8F80F
:10060000C6B200240BE0285D402806DA285D3028B9
:1006100003DB285D00F00F002855601CC4B2B44213
:10062000F1DB4020FFF7D0FF0221C54809F02DFC87
:10063000962006F013FEC020FFF7A0FF00244BE039
:1006400004EBD4714910B4EB41013BD1C6F1080170
:1006500004EBD472B1EB620F30DC17B3C7F10701C2
:1006600004EBD472B1EB620F0ED1A14604EBD4714E
:10067000C6F10802C2EB6101695CB34A515C80318A
:10068000C8B2FFF77BFF25E0A14604EBD471C6F1A9
:100690000802C2EB6101695CAB4A505CFFF76EFF78
:1006A00018E0A14604EBD471C6F10802C2EB610167
:1006B000695CA54A505CFFF761FF0BE00020FFF783
:1006C0005DFF07E0A14604EBD471491018F8010062
:1006D000FFF754FF601CC4B2102CB1DB0221984814
:1006E00009F0D1FB962006F0B9FD8920FFF76CFFD9
:1006F000BDE8F08730B587B005469448007808B962
:1007000007B030BD00240BE091480068007801A9D3
:1007100008558F480068401C8D490860601CC4B2B1
:10072000092CF1DB8B48007840B18B4A002101A8ED
:10073000FFF75EFF00208749087019E000240DE0F4
:10074000C5F10800A04204D001A8005D04A9085525
:1007500002E0262004A90855601CC4B2092CEFDB76
:100760007D4A002104A8FFF743FF01207949087062
:1007700000BFC5E770B500244FF48071714809F0DF
:1007800082FB002518E0641001216D4809F07DFB13
:10079000962006F063FD4FF400716A4809F059FB9A
:1007A00008B144F080040121654809F06CFB9620F3
:1007B00006F054FD681CC5B2082DE4DB204670BD70
:1007C00038B5002502215E4809F05FFB962006F04F
:1007D00045FD4220FFF7D2FE002405E0FFF7CAFFE7
:1007E0000DF80400601CC4B2042CF7DB022154484D
:1007F00009F049FB962006F031FD002406E01DF8C3
:100800000400A0402843C5B2601CC4B2042CF6DB2F
:10081000002406E00120A040A84200D103E0601CB3
:10082000C4B2082CF6DB00BF204638BD70B50446C4
:100830000D464420FFF7C8FE0221414809F025FB80
:1008400044F0C000FFF79AFE2846FFF797FE02210A
:100850003B4809F018FB70BD70B504460D4605F025
:1008600003016200521CD0B2FFF7E0FF70BD70B50B
:100870000025C1E04020FFF7A7FE0221304809F023
:1008800004FB962006F0EAFCC120FFF777FE032068
:10089000FFF774FE02212A4809F0F5FA962006F0C7
:1008A000DDFC8E20FFF790FE2C4806F0D7FC0221DD
:1008B000234809F0EAFA962006F0D0FCC120FFF7A1
:1008C0005DFE0220FFF75AFE02211D4809F0DBFA07
:1008D000962006F0C3FC8E20FFF776FE1F4806F038
:1008E000BDFC0221164809F0D0FA962006F0B6FCAD
:1008F000C120FFF743FE0120FFF740FE0221104810
:1009000009F0C1FA962006F0A9FC8C20FFF75CFEE6
:10091000124806F0A3FC0221094809F0B6FA962015
:1009200006F09CFCC120FFF729FE0020FFF726FE01
:100930000221034809F0A7FA962011E0500900208F
:1009400000180140000C01400C000020CA000020EB
:10095000D0000020C900002068000020404B4C005F
:1009600006F07CFC8C20FFF72FFEF84806F076FCA2
:10097000FFF726FF0446082C00DA41E04020FFF78D
:1009800023FE0221F24809F080FA962006F066FC68
:10099000C02101EB4401C8B2FFF7F0FD002610E0D2
:1009A000022D01D0072D06D1EA49495D8031C8B238
:1009B000FFF7E4FD03E0E749485DFFF7DFFD701C4A
:1009C000C6B2102EECDB0221E14809F05CFA962059
:1009D00006F044FC8920FFF7F7FD0221DC4809F00E
:1009E00052FA962006F03AFC8920FFF7EDFDD74831
:1009F00006F034FC681CC5B2102DFFF63BAF70BD8D
:100A0000082C00DBFBE7002550E04020FFF7DCFD71
:100A10000221CF4809F039FA962006F01FFCC021C8
:100A200001EB4401C8B2FFF7A9FD082C2DD2DFE885
:100A300004F004090E13181D2227C649085DFFF7AC
:100A40009DFD23E0C349085DFFF798FD1EE0C14905
:100A5000085DFFF793FD19E0BE49085DFFF78EFDC5
:100A600014E0BC49085DFFF789FD0FE0B949085D56
:100A7000FFF784FD0AE0B749085DFFF77FFD05E059
:100A8000B449085DFFF77AFD00E000BF00BF022116
:100A9000AF4809F0F8F9962006F0E0FB8920FFF74F
:100AA00093FDAA4806F0DAFB681CC5B2082DACDB42
:100AB00000BFA4E710B51021A54809F0CAF908B194
:100AC000012000E00020A44908700121A34809F09A
:100AD000C0F908B9012000E000209F49487010BD0E
:100AE000002019E09C49095C09B1012100E00021C6
:100AF0009B4A11549B49095C9B4A11549B49095CD0
:100B00009B4A11549B49095C9B4A11549B49095CBF
:100B10009B4A1154411CC8B23228E3DB70470021C4
:100B2000964A11549749095C3C291AD03D2902D0B4
:100B30003E2921D10AE0944951F82010934A1268C5
:100B4000914202D101218D4A115416E08E4951F88B
:100B500020108E4A1268914202DA0121874A11540C
:100B60000BE0894951F82010884A1268914202DD51
:100B70000121824A115400E000BF00BF70470021EC
:100B8000834A11548349095C3C291AD03D2902D07B
:100B90003E2921D10AE0804951F820107F4A12688D
:100BA000914202D101217A4A115416E07A4951F852
:100BB00020107A4A1268914202DA0121744A1154D3
:100BC0000BE0754951F82010744A1268914202DD19
:100BD00001216F4A115400E000BF00BF704730B5DB
:100BE0000346542971D004DC43295CD052296DD1CD
:100BF0002EE057296BD0582968D13C2B1AD03D2BB9
:100C000002D03E2B21D10AE0554CA45C524DAD5C84
:100C10006C4001D0012400E00024E0B216E04E4C0C
:100C2000A45C4F4DAD5CAC4301D0012400E0002436
:100C3000E0B20BE04A4CA45C474DAD5CAC4301D044
:100C4000012400E00024E0B200E000BF00BFD9E0D2
:100C50003C2B1AD03D2B02D03E2B21D10AE0464C32
:100C6000A45C444DAD5C6C4001D0012400E0002444
:100C7000E0B216E03F4CA45C3F4DAD5CAC4301D00C
:100C8000012400E00024E0B20BE03B4CA45C394DB1
:100C9000AD5CAC4301D0012400E00024E0B200E0F0
:100CA00000BF00BFAEE03C2B1DD03D2B02D03E2B41
:100CB00024D10DE02E4CA45C2C4DAD5C6C4001D0D9
:100CC000012400E00024E0B219E01AE099E06DE0B0
:100CD000264CA45C264DAD5CAC4301D0012400E061
:100CE0000024E0B20BE0224CA45C204DAD5CAC4390
:100CF00001D0012400E00024E0B200E000BF00BF0A
:100D000080E03C2B1AD03D2B02D03E2B4BD10AE089
:100D1000154CA45C134DAD5C6C4001D0012400E087
:100D20000024E0B240E00F4CA45C0F4DAD5CAC433E
:100D300001D0012400E00024E0B235E00A4CA45CBC
:100D4000084DAD5CAC432BD001242AE0404B4C0055
:100D5000001801400C0000208B0900200008014011
:100D600064100020E60B002096100020A80D002043
:100D7000C8100020EF090020FA100020D40E002037
:100D80002C110020060F00200C0E0020F400002083
:100D90000010002032100020380F0020F800002042
:100DA0000024E0B200E000BF00BF2BE03C2B1AD0D3
:100DB0003D2B02D03E2B21D10AE0FD4CA45CFD4D21
:100DC000AD5C6C4001D0012400E00024E0B216E0EC
:100DD000F84CA45CF64DAD5CAC4301D0012400E0BE
:100DE0000024E0B20BE0F24CA45CF24DAD5CAC43ED
:100DF00001D0012400E00024E0B200E000BF00BF09
:100E000000E000BF00BF30BD0021EB4A1154EB4AA7
:100E100042F82010EA4A11547047E749095C41B989
:100E2000E84951F82010E54A42F820100121E24A31
:100E300011547047E14951F8201069B1DF4951F868
:100E40002010491EDD4A42F82010114651F82010AA
:100E5000012901D1DA4A115470470021DA4A42F8D7
:100E60002010DA4A115470470021D94A11547047B2
:100E7000D749095CF9B9D74951F8201000291ADD82
:100E8000D14951F82020D34951F82010491E8A42F7
:100E90000ADACD4951F82010491CCB4A42F82010FB
:100EA0000121CB4A115406E00121C84A1154002106
:100EB000C54A42F82010704710B51021C64808F006
:100EC000C8FF20B10821C44808F0DDFF03E0082175
:100ED000C14808F0DAFF0121C04808F0BAFF20B18C
:100EE0000421BD4808F0CFFF03E00421BA4808F010
:100EF000CCFF0421B94808F0ACFF28B14FF40051F1
:100F0000B74808F0C0FF04E04FF40051B44808F0BF
:100F1000BCFF1021B14808F09CFF20B10221AF486E
:100F200008F0B1FF03E00221AC4808F0AEFF402119
:100F3000AA4808F08EFF20B10821A84808F0A3FFB6
:100F400003E00821A54808F0A0FF4FF48071A348F2
:100F500008F07FFF20B12021A04808F094FF03E0B3
:100F600020219E4808F091FF4FF480619B4808F0D3
:100F700070FF20B18021994808F085FF03E08021AF
:100F8000964808F082FF0221954808F062FF28B1D8
:100F90004FF40071914808F076FF04E04FF40071BF
:100FA0008E4808F072FF02218E4808F052FF20B1EF
:100FB00001218C4808F067FF03E00121894808F00F
:100FC00064FF4FF40061854808F043FF28B14FF4F7
:100FD0008051824808F057FF04E04FF480517F4869
:100FE00008F053FF4FF400517C4808F032FF28B15D
:100FF0004FF48041794808F046FF04E04FF4804107
:10100000764808F042FF4FF40041744808F021FF91
:1010100020B10121744808F036FF03E00121724835
:1010200008F033FF0221704808F013FF20B180213F
:10103000694808F028FF03E08021674808F025FF91
:101040004FF48071644808F004FF28B14FF4007138
:10105000614808F018FF04E04FF400715E4808F0A2
:1010600014FF4FF480615C4808F0F3FE28B14FF4A0
:101070000061594808F007FF04E04FF4006156484A
:1010800008F003FF4FF48051534808F0E2FE28B106
:101090004FF40051504808F0F6FE04E04FF40051C0
:1010A0004D4808F0F2FE0221504808F0D2FE20B967
:1010B0000821494808F0E7FE03E00821464808F007
:1010C000E4FE1021494808F0C4FE20B9042142483A
:1010D00008F0D9FE03E004213F4808F0D6FE402185
:1010E000424808F0B6FE28B94FF400513C4808F0D9
:1010F000CAFE04E04FF40051394808F0C6FE102142
:10110000374808F0A6FE20B90221344808F0BBFE9B
:1011100003E00221314808F0B8FE10BD34480078E1
:1011200030B13448007840F001003249087005E0E1
:101130003048007820F001002E4908702C48407893
:1011400030B12C48007840F002002A49087005E0D0
:101150002848007820F0020026490870244880784A
:1011600030B12448007840F004002249087005E0BE
:101170002048007820F004001E4908701C48C07800
:1011800030B11C48007840F008001A49087005E0AA
:101190001848007820F008001649087014480079B3
:1011A00050B31448007840F01000124908702AE04B
:1011B0002C110020D40E0020B40B0020240A0020A3
:1011C000E60B0020EC0A0020180C0020A80D0020DF
:1011D000DA0D0020E00C002000180140001C014046
:1011E00000100140000C01400020014000080140B7
:1011F0008B090020ED000020FFE7FF48007820F079
:101200001000FD490870FD48407930B1FA48007877
:1012100040F02000F849087005E0F748007820F019
:101220002000F5490870F548807930B1F24800781F
:1012300040F04000F049087005E0EF48007820F0E9
:101240004000ED490870ED48C07930B1EA480078B7
:1012500040F08000E849087005E0E748007820F099
:101260008000E5490870E548007A30B1E2484078EE
:1012700040F00100E049487005E0DF48407820F088
:101280000100DD494870DD48407A30B1DA484078E5
:1012900040F00200D849487005E0D748407820F077
:1012A0000200D5494870D548807A30B1D24840789C
:1012B00040F00400D049487005E0CF48407820F065
:1012C0000400CD494870CD48C07A30B1CA48407852
:1012D00040F00800C849487005E0C748407820F051
:1012E0000800C5494870C548007B30B1C248407805
:1012F00040F01000C049487005E0BF48407820F039
:101300001000BD494870BD48407B30B1BA484078B4
:1013100040F02000B849487005E0B748407820F018
:101320002000B5494870B548807B30B1B24840785C
:1013300040F04000B049487005E0AF48407820F0E8
:101340004000AD494870AD48C07B30B1AA484078F4
:1013500040F08000A849487005E0A748407820F098
:101360008000A54948707047A548007830B1A5486D
:10137000007840F00100A349087005E0A14800781A
:1013800020F001009F4908709D48407830B19D4889
:10139000007840F002009B49087005E09948007809
:1013A00020F00200974908709548807830B1954840
:1013B000007840F004009349087005E091480078F7
:1013C00020F004008F4908708D48C07830B18D48F6
:1013D000007840F008008B49087005E089480078E3
:1013E00020F00800874908708548007930B18548A9
:1013F000007840F010008349087005E081480078CB
:1014000020F010007F4908707D48407930B17D4858
:10141000007840F020007B49087005E079480078AA
:1014200020F02000774908707548807930B1754800
:10143000007840F040007349087005E0714800787A
:1014400020F040006F4908706D48C07930B16D4898
:10145000007840F080006B49087005E0694800782A
:1014600020F08000674908706548007A30B165480F
:10147000407840F001006349487005E061484078D9
:1014800020F001005F4948705D48407A30B15D4806
:10149000407840F002005B49487005E059484078C8
:1014A00020F00200574948705548807A30B15548BD
:1014B000407840F004005349487005E051484078B6
:1014C00020F004004F4948704D48C07A30B14D4873
:1014D000407840F008004B49487005E049484078A2
:1014E00020F00800474948704548007B30B1454826
:1014F000407840F010004349487005E0414840788A
:1015000020F010003F4948703D48407B30B13D48D5
:10151000407840F020003B49487005E03948407869
:1015200020F02000374948703548807B30B135487D
:10153000407840F040003349487005E03148407839
:1015400020F040002F4948702D48C07B30B12D4815
:10155000407840F080002B49487005E029484078E9
:1015600020F0800027494870704710B510212648A8
:1015700008F06FFC70B125480078401C23490870C2
:101580000846007801280ADB0020087001201B496A
:10159000087004E000201D490870184908700121F6
:1015A0001B4808F056FC70B118484078401C174999
:1015B00048700846407801280ADB00204870012066
:1015C0000E49487004E00020104948700B494870EB
:1015D00004210F4808F03DFCE0B10C488078401C25
:1015E0000A49887008468078012818DB0020887036
:1015F00001200249887012E0ED0000208B090020D4
:10160000BD090020EF00002000180140590900200A
:10161000001C01400020FA498870FA4988701021A6
:10162000F94808F016FC70B1F548C078401CF44940
:10163000C8700846C07801280ADB0020C870012065
:10164000F049C87004E00020ED49C870ED49C87049
:101650004021ED4808F0FDFB70B1E9480079401CDD
:10166000E74908710846007901280ADB0020087163
:101670000120E449087104E00020E1490871E149D2
:1016800008714FF48071E04808F0E3FB70B1DC486A
:101690004079401CDA4948710846407901280ADB44
:1016A000002048710120D749487104E00020D44946
:1016B0004871D44948714FF48061D34808F0C9FBA0
:1016C00070B1CF488079401CCD4988710846807937
:1016D00001280ADB002088710120CA49887104E0D2
:1016E0000020C7498871C74988710221C74808F09E
:1016F000B0FB70B1C248C079401CC149C8710846EE
:10170000C07901280ADB0020C8710120BD49C871D9
:1017100004E00020BA49C871BA49C8710221BC4826
:1017200008F097FB70B1B648007A401CB4490872C3
:101730000846007A01280ADB002008720120B1491E
:10174000087204E00020AE490872AE4908724FF4F6
:101750000061AD4808F07DFB70B1A948407A401C9B
:10176000A74948720846407A01280ADB00204872DF
:101770000120A449487204E00020A1494872A1490F
:1017800048724FF40051A04808F063FB70B19C48C8
:10179000807A401C9A4988720846807A01280ADBC0
:1017A0000020887201209749887204E00020944943
:1017B0008872944988724FF40041934808F049FBBD
:1017C00070B18F48C07A401C8D49C8720846C07AF3
:1017D00001280ADB0020C87201208A49C87204E08F
:1017E00000208749C8728749C8720221894808F0D9
:1017F00030FB70B18248007B401C81490873084669
:10180000007B01280ADB0020087301207D49087352
:1018100004E000207A4908737A4908734FF4807114
:101820007D4808F016FB70B17548407B401C744938
:1018300048730846407B01280ADB002048730120DA
:101840007049487304E000206D4948736D4948733E
:101850004FF48061704808F0FCFA70B16848807BF2
:10186000401C674988730846807B01280ADB0020FA
:10187000887301206349887304E0002060498873FD
:10188000604988734FF48051634808F0E2FA70B100
:101890005B48C07B401C5A49C8730846C07B01287E
:1018A0000ADB0020C87301205649C87304E00020F9
:1018B0005349C8735349C87310BD524800785749FB
:1018C00008705048407848704E48807888704D487D
:1018D000C078C8704B48007908714A48407948710F
:1018E0004848807988714748C079C8714548007A6E
:1018F00008724448407A48724248807A8872414867
:10190000C07AC8723F48007B08733E48407B4873EA
:101910003C48807B88733B48C07BC873704710B5D8
:101920003F48007800B110BD3C48007820B1082144
:10193000394808F0A8FA03E00821374808F0A5FA6A
:101940003648407820B10421334808F09CFA03E07F
:101950000421314808F099FA3048807828B14FF4D2
:1019600000512A4808F08FFA04E04FF4005127484C
:1019700008F08BFA2948C07820B10221224808F0EB
:1019800082FA03E00221204808F07FFA2348007918
:1019900020B108211C4808F076FA03E008211A4813
:1019A00008F073FA1D48407920B12021164808F04C
:1019B0006AFA03E02021144808F067FA1748807992
:1019C00020B18021104808F05EFA03E080210E4823
:1019D00008F05BFA1148C07928B14FF400710A4849
:1019E00008F051FA04E04FF40071074808F04DFA8E
:1019F0000A48007AB0B10121054808F044FA15E020
:101A0000590900208B090020001C014000100140F2
:101A1000000C01400020014000180140BD090020D9
:101A20008F0700200121FA4808F02FFAF948407A80
:101A300028B14FF48051F84808F025FA04E04FF43B
:101A40008051F54808F021FAF248807A28B14FF425
:101A50008041F14808F017FA04E04FF48041EE4865
:101A600008F013FAEB48C07A20B10121EB4808F0E6
:101A70000AFA03E00121E94808F007FAE548007B8B
:101A800020B18021E64808F0FEF903E08021E44817
:101A900008F0FBF9DF48407B28B14FF40071E048C3
:101AA00008F0F1F904E04FF40071DD4808F0EDF9B9
:101AB000D848807B28B14FF40061D94808F0E3F999
:101AC00004E04FF40061D64808F0DFF9D148C07B4C
:101AD00028B14FF40051D24808F0D5F904E04FF492
:101AE0000051CF4808F0D1F900BF1CE708B501212B
:101AF0004FF4EC7008F0CFFB0121082008F0CBFB7D
:101B00004FF42040ADF8000010208DF803000320B2
:101B10008DF802006946BE4808F00AF94FF40060EB
:101B2000ADF8000010208DF8030003208DF80200AE
:101B30006946BC4808F0FCF84FF4A040ADF800003E
:101B400004208DF8030003208DF802006946B04898
:101B500008F0EEF84FF48070ADF8000004208DF826
:101B6000030003208DF802006946AE4808F0E0F853
:101B700008BD1CB54FF48070009000208DF8040063
:101B80000C208DF8050001208DF80600684607F04E
:101B9000FCFC0821032008F0DFF91CBD002105E052
:101BA000002200E0521C0A2AFCD3491C8142F7D3D0
:101BB000704770B504462546002624E04FF40051D6
:101BC000934808F062F90A20FFF7E8FF05F080006B
:101BD000802804D101028E4808F055F904E04FF442
:101BE00000418B4808F051F90A20FFF7D7FF4FF466
:101BF0000051874808F047F90A20FFF7CFFF680631
:101C0000050E701CC6B2082ED8DB4FF40051804878
:101C100008F03BF970BD70B5002400251BE04FF4BF
:101C200000517B4808F031F90320FFF7B7FF4FF46C
:101C30000051774808F027F90320FFF7AFFF60064F
:101C4000040E4FF48041724808F003F908B144F0E3
:101C50000104681CC5B2082DE1DB4FF400516C484B
:101C600008F013F9204670BD70B50446002520E049
:101C70004FF40051664808F008F90A20FFF78EFF7C
:101C800014F0004F05D04FF40041614808F0FBF814
:101C900004E04FF400415E4808F0F7F84FF40051BB
:101CA0005B4808F0F0F80A20FFF778FF6400681C32
:101CB000C5B2202DDCDB70BD70B5002400251AE014
:101CC0004FF40051524808F0E0F80A20FFF766FF91
:101CD0004FF400514E4808F0D6F80A20FFF75EFF97
:101CE00064004FF480414A4808F0B3F808B144F06A
:101CF0000104681CC5B2202DE2DB204670BD70B522
:101D000005460C462846FFF754FF2046FFF7ACFF78
:101D100070BD70B504462046FFF74BFFFFF7CCFFC0
:101D200005464FF400413A4808F0AFF84FF400512F
:101D3000374808F0AAF80A20FFF730FF284670BDA0
:101D40002DE9F84307460C4615469846DDF82090E5
:101D500000208DF803009DF803003844C0B28DF8D0
:101D600003009DF80300C006000E8DF803009DF8E7
:101D7000030040EA64008DF8030004F001008DF8D0
:101D800002009DF80200C007000E8DF8020000203E
:101D90008DF801009DF801004044C0B28DF80100AB
:101DA0009DF80100C006000E8DF801009DF80100AD
:101DB00040EA69008DF8010009F001008DF800008B
:101DC0009DF80000C007000E8DF800002E46300779
:101DD000060E46F0050630460099FFF790FFBDE875
:101DE000F88338B54FF40041094808F04EF84FF435
:101DF0000051074808F049F84FF40061094808F01D
:101E000044F84FF47A70FFF7C9FE002411E0000097
:101E1000000C0140BD090020001C014000200140D1
:101E20000018014000140140FF20FFF7C2FE601CB3
:101E3000C4B20F2CF8DBFE20FFF7BBFE0A20FFF731
:101E4000ADFE4FF000510320FFF759FF00250B2096
:101E5000FFF75FFF054615F0805F23D00920FFF7ED
:101E600058FF05460A20FFF754FF05460B20FFF7F1
:101E700050FF05460C23009306230022022118463A
:101E8000FFF75EFF0D20FFF744FF0546C020FFF778
:101E900090FEFFF76EFE4FF40051FB4807F0F5FF90
:101EA000012038BD0020FCE7704770B50446254688
:101EB0002807050E45F00D052846FFF72AFF0646C0
:101EC00070BD10B54FF40041EF4807F0DCFFFF2074
:101ED000FFF76FFE10BD10B5C020FFF76AFE10BD02
:101EE00038B54FF40041E84807F0CFFF4FF40051F8
:101EF000E54807F0CAFFFFF78EFE0546FFF78BFEA9
:101F00008DF80200FFF787FE8DF80100FFF783FED2
:101F10008DF80000FFF77FFE8DF803000098C010D9
:101F200000900421684603F06DF80446EF21D7487D
:101F300009F033FA00BF8021D44809F09CFA002848
:101F4000F9D09DF80310D14809F027FA00BF80218D
:101F5000CE4809F090FA0028F9D09DF80210CB483D
:101F600009F01BFA00BF8021C84809F084FA002854
:101F7000F9D09DF80110C54809F00FFA00BF802183
:101F8000C24809F078FA0028F9D09DF80010BF483F
:101F900009F003FA00BF8021BC4809F06CFA002860
:101FA000F9D0C4F30F21B94809F0F7F900BF802137
:101FB000B64809F060FA0028F9D0E1B2B34809F058
:101FC000ECF900BF8021B14809F055FA0028F9D09A
:101FD0000021AE4809F0E1F900BF8021AB4809F0CB
:101FE0004AFA0028F9D0009838BD2DE9F041A848F8
:101FF0000078012804D002280CD003282DD10FE04E
:10200000A44A0021A448FEF7F3FAA4480068A449B2
:10201000086023E09F4A0021A248FEF7E9FA1DE08C
:102020009C4A0021A048FEF7E3FA9C4909689C4AB3
:102030001268881A09F03BFE804609F086FE0446C5
:1020400000229A4B09F0BBFD064609F0BDFE9849F7
:10205000086003208E49087000E000BF00BFBDE8A3
:10206000F08170B50024002901DA4942012400F111
:10207000110300265D1E2B462E7000BF0A2591FB22
:10208000F5F605FB161505F13002392A00D9D21DE7
:102090005D1E2B462A700A2591FBF5F52900EDD12E
:1020A00014B1162500F8015B002204E013F8015B6F
:1020B00000F8015B521C102AF8D370BD2DE9F047DF
:1020C0009CB00746BA467BA1504609F036FB18B1D2
:1020D00000201CB0BDE8F087BA460024504609F045
:1020E00057FB8146002623E10422514601A809F04E
:1020F0003AFB00208DF808000AF1040A0DF10600F1
:1021000009F06CFBC5B29DF8040057286FD00CDCB9
:1021100052283FD004DC43286AD0502869D1EEE031
:10212000532867D0542864D158E0722847D004DC83
:10213000582807D063285CD18DE0742867D07828B0
:1021400057D118E09DF805002D2808D15B48405D67
:1021500008B1012000E0002003A9085508E09DF81F
:1021600004109DF805002A46FEF739FD03A908551D
:10217000601CC4B2D1E09DF805002D2807D14F485E
:10218000405D08B9012000E0002003A90855601C4B
:10219000C4B2C2E09DF805002D2804D14848405D36
:1021A00003A9085508E09DF804109DF805002A468B
:1021B000FEF715FD03A90855601CC4B2ADE09DF8FB
:1021C00005002D2807D13E48405D08B9012000E0F8
:1021D000002003A90855601CC4B29EE09DF80500CC
:1021E0002D2808D13748405D03A908550CE041E08F
:1021F0001CE091E078E09DF804109DF805002A4667
:10220000FEF7EDFC03A90855601CC4B285E09DF8FB
:1022100005002D2807D12B48405D08B9012000E0BA
:10222000002003A90855601CC4B276E09DF80500A3
:102230002D2804D12448405D03A9085508E09DF8E5
:1022400004109DF805002A46FEF7C9FC03A90855AD
:10225000601CC4B261E09DF805002D2807D11A4822
:10226000405D08B9012000E0002003A90855601C6A
:10227000C4B252E09DF805002D2829D11348405DD5
:1022800003A908552DE00000000C01400044004067
:10229000DC00002068000020330000200400002043
:1022A000D40000203A0000204100002000408F4070
:1022B000D8000020502D3032000000008B09002093
:1022C000EF090020E60B0020A80D0020D40E00200E
:1022D0009DF804109DF805002A46FEF780FC03A92E
:1022E0000855601CC4B218E09DF805002D2803D1E4
:1022F000FF48405D03A90855601CC4B20DE0012DE4
:1023000002D1012003A90855022D02D1002003A902
:102310000855601CC4B200E000BF00BF002C05DD02
:10232000601E03A9085C08B90020D2E6301DC6B2C1
:102330004E45FFF6D9AE4FF0010800260CE0B8F18B
:10234000000F04D003A8805D08B1012000E0002048
:1023500000F0FF08701CC6B2A642F0DB4046B8E6AB
:102360002DE9FE4F80460020009001900290E14947
:102370000870E1A1404609F0E0F9044608340AE09B
:102380002078DC4A12780DF80200DA480078401C08
:10239000D8490870641C20784028F1D1684609F0BB
:1023A0001DFAD8490870C14600263CE00020009084
:1023B000019002904C46D4A1204609F0BEF9044693
:1023C000A41C14F8010B8DF8000014F8010B8DF813
:1023D0000100684609F002FAC5B2002000900190A1
:1023E0000290C44908700AE014F8010BC14A12783F
:1023F0000DF80200BF480078401CBE4908702078E4
:102400002C28F1D1684609F0E9F90746601C04461A
:1024100090F800A0BD4840F82570BD4800F805A020
:10242000A146701CC6B2B74800788642BEDBBDE844
:10243000FE8F2DE9FE4F8046002000900190029013
:10244000B4490870B4A1404609F077F9044608344D
:102450000AE02078AF4A12780DF80200AD48007803
:10246000401CAC490870641C20784028F1D16846B3
:1024700009F0B4F9AB490870C14600263CE00020E1
:102480000090019002904C46A7A1204609F055F912
:102490000446A41C14F8010B8DF8000014F8010B7D
:1024A0008DF80100684609F099F9C5B20020009046
:1024B00001900290974908700AE014F8010B954AC0
:1024C00012780DF8020093480078401C914908707A
:1024D00020782C28F1D1684609F080F90746601C65
:1024E000044690F800A0914840F82570904800F804
:1024F00005A0A146701CC6B28A4800788642BEDBA1
:10250000BDE8FE8F2DE9F04FB3B0824655464FF03F
:10251000000B34E02B21284609F031F9064600274C
:102520002C46A84619E020787B2813D020787D28F7
:1025300010D0207826280DD020782A280AD020789C
:10254000282807D014F8012B3846791CCFB201A9EE
:102550000A5400E0641C08F10108B045E3DB0022E6
:102560003846791CCFB201A90A5401A8FFF7A6FD8D
:102570008146B9F1000F00D03DE035466D1C2B219E
:10258000284609F0FCF80028C4D12921284609F082
:10259000F6F8064600272C46A8461FE020787B2840
:1025A00019D020787D2816D02078262813D02078BE
:1025B0002A2810D0207828280DD0207829280AD061
:1025C0002078232807D014F8012B3846791CCFB285
:1025D00001A90A5400E0641C08F10108B045DDDBE4
:1025E00000223846791CCFB201A90A5401A8FFF78E
:1025F00065FD814600BF484633B0BDE8F08FFEB5AB
:1026000007463C46607854282ED008DC2F2821D07D
:10261000432852D0442867D0522866D110E0592868
:1026200004D0742862D078285FD1D4E06078414922
:102630000870A07840490870E07840490870FEBDF5
:1026400060783C490870A0783B490870E0783B49C5
:102650000870F4E7607837490870E0783649087008
:10266000207936490870EAE7607832490870A07826
:1026700031490870E07831490870084600783038F0
:102680002D490978303901EB810100EB4100C5B2D9
:102690003F21384609F073F8044660788DF8000051
:1026A000E0788DF8010000208DF80200684609F0FE
:1026B00095F8234941F82500C1E760781D49087065
:1026C000A0781D490870E0781C4908700846007819
:1026D000303819490978303901EB810100EB4100AC
:1026E000C5B23F2138462DE03FE078E06FE00000C2
:1026F00000100020C7000020575F546F74616C6C9D
:1027000000000000FC000020575F00000C0E0020BD
:10271000060F0020C8000020535F546F74616C6C7A
:1027200000000000FD000020535F0000380F002073
:102730003210002014010020150100201601002095
:10274000EC0A002009F01BF8044660788DF80000C0
:10275000A0788DF8010000208DF80200684609F08D
:102760003DF8FD4941F8250069E76078FB490870AC
:10277000A078FB490870E078FA49087008460078AC
:102780003038F7490978303901EB810100EB41001D
:10279000C5B23F21384608F0F2FF441C002606E08F
:1027A00014F8012B3046711CCEB2EF490A54207840
:1027B0002128F5D121223046711CCEB2EA490A54B3
:1027C00000223046711CCEB2E7490A5437E76078E0
:1027D000E249087033E76078E04908702FE700BFEE
:1027E00000BF00BF2BE72DE9F04FADF6041D982286
:1027F000DE4905A808F07CFFDDA103C9CDE903018E
:10280000AFF2505103C9CDE90101DFF86C83002418
:102810000DE02321404608F0B2FF0546A84608F126
:1028200001080DF21C7141F82450601CC4B2D34859
:1028300000788442EDDDDFF8408300240DE02121A3
:10284000404608F09CFF0546A84608F101080DF235
:102850003C5040F82450601CC4B2C8480078844200
:10286000EDDDDFF8148300240CE02521404608F05C
:1028700086FF0546A84608F10108D7A840F824506D
:10288000601CC4B2BD4800788442EEDD00240EE036
:102890000DF23C5050F824000DF21C7151F8241038
:1028A000401A401C2DA941F82400601CC4B2B34852
:1028B00000788442ECDD002444E12DA850F8242067
:1028C0000DF21C7050F82410B9A808F04CFF00203D
:1028D0002DA951F82410B9AA5054D7A951F82400B1
:1028E000FFF78DFE2821B9A808F049FFD8B326E0EC
:1028F0002821B9A808F062FF05462921284608F0DA
:102900003EFFCDF8FC08DDF8FC08401B00F1010992
:102910004A462946A5A808F026FF0020A5A901F8E7
:1029200009004A4605A9284608F01DFFA5A8FFF79B
:10293000E9FD10B10398286001E001982860282182
:10294000B9A808F01CFF0028D2D12521B9A808F0A9
:1029500035FF824629208AF80000B9A8FFF7D2FD8A
:10296000CDF800090DE0FFE72521B9A808F026FF02
:10297000824629208AF80000B9A8FFF7C3FDCDF8E8
:10298000000978480078303875490978303901EB0A
:10299000810100EB4100C7B2DDF8000978B36F4850
:1029A0000078542820D008DC2F2815D043280FD0D9
:1029B00044282CD0522870D112E0592804D0742811
:1029C00016D0782869D11BE001206D49C8559AE0DE
:1029D0003846FEF74DFA96E03846FEF73EFA92E0AA
:1029E00001206849C8558EE03846FEF716FA8AE09D
:1029F00001206549087000206449087083E083E085
:102A00000020614908700120604908707BE0564849
:102A100000785338082872D2DFE800F0042E3571B0
:102A20003D71713C5AA1504808F087FE48B15A48A0
:102A300000685A2804DA58480068401C5649086063
:102A40005EE056A1484808F078FE48B15248006858
:102A5000002804DD50480068401E4F4908604FE0E0
:102A60004148C1788078303800EB800001EB4000AD
:102A700030384949086043E001204349087000208C
:102A8000424908703CE000203F49087001203F495E
:102A9000087035E034E0344E29E033E05721304609
:102AA00008F06DFE064670788DF8AC00B0788DF8B1
:102AB000AD0000208DF8AE002BA808F08FFE00F0CE
:102AC000FF0B30798DF8AC0070798DF8AD00B079DE
:102AD0008DF8AE00F0798DF8AF0000208DF8B000D1
:102AE0002BA808F07BFE2F4941F82B00761C5721BC
:102AF000304608F044FE0028D0D101E0FFE700BFD7
:102B000000BF00E000BF1BE014480078432809D054
:102B100052280BD054280DD059280FD10020184925
:102B2000C8550CE03846FEF79FF908E0002015492B
:102B3000C85504E03846FEF767F900E000BF00BF63
:102B4000601CC4B20D48007884427FF7B6AE0DF623
:102B5000041DBDE8F08F0000E00C002014010020EF
:102B60001501002016010020483900206CD700080C
:102B7000502D3031000000004019002017010020C6
:102B8000BD090020EF090020090100200A010020F2
:102B9000533D706C75730000F8000020533D646570
:102BA000630000000C0E0020FF4A0A400243FF4B66
:102BB0001A60704700B50020FD490861C860142004
:102BC000486100208861C8610846006840F0010043
:102BD000086008464068F7490840F54948600846DB
:102BE0000068F5490840F24908600846006820F48A
:102BF000802008600846406820F4FE0048600020FD
:102C0000886000214FF00060FFF7CEFF00BD30B5B7
:102C100004460025FFF7CEFFE548006840F4803009
:102C2000E349086000BFE2480068400CFBD04FF465
:102C30008060DF494860A01EC4B20846406840EA90
:102C4000844048600846406840F480304860DB4873
:102C5000006840F03200D9490860D548006840F06B
:102C60008070D349086000BFD1480068400EFBD097
:102C7000CF48406840F00200CD49486005E0CC48AC
:102C80004068C0F3870505F00305022DF7D130BD7C
:102C900070B5034600224FF0E0267569C84E3678BD
:102CA00003FB06F400BF4FF0E026B16910E04FF0DF
:102CB000E026B06988420BD0884202D20E1A324414
:102CC00002E02E1A0E4432440146A24200D300E034
:102CD000EDE700BF70BDBB48B8494860BA484860DE
:102CE0007047B648006940F08000B44908617047F9
:102CF000B248C16811F0010F01D00120704711F0F6
:102D0000040F01D00220F9E711F0100F01D00320C9
:102D1000F4E70020F2E730B5044600BFFFF7E8FF14
:102D20000546012D00D006E00120FFF7B1FF601E2F
:102D300084B2002CF2D100BF04B9FF25284630BD73
:102D400030B50546002445F6FF70FFF7E4FF044662
:102D5000C4B99A48006940F00200984908610846E1
:102D60004561006940F04000086145F6FF70FFF7DB
:102D7000D2FF0446012C05D09048006920F00200E3
:102D80008E490861204630BD70B505460E46FF20CD
:102D9000FFF7C1FF044694B98848006940F001007C
:102DA000864908612E80FF20FFF7B5FF0446012CFD
:102DB00005D08248006920F0010080490861204662
:102DC00070BD014608887047F0B505460E461746A7
:102DD000002407E036F814102846FFF7D5FFAD1C95
:102DE000601C84B2BC42F5DBF0BD30B503460C4636
:102DF0001546002207E01846FFF7E3FF24F812000B
:102E00009B1C501C82B2AA42F5DB30BD2DE9F04F6D
:102E100080468A461746B8F1006F02D36B4880455A
:102E200001D3BDE8F08FFFF756FFA8F1006B4FEA22
:102E3000DB25CBF34909C9F58064A74200DC3C4699
:102E40004DE04FF0006101EBC5204A146049FFF7E7
:102E5000CCFF00260BE009EB06005D4931F81000BD
:102E6000A0F57F41FF3900D003E0701C86B2A64276
:102E7000F1DB00BFA6421BDA4FF0006101EBC52079
:102E8000FFF75EFF002608E03AF8160006EB09019E
:102E90004F4A22F81100701C86B2A642F4DB4FF0B4
:102EA000006101EBC5204A144949FFF78DFF04E09A
:102EB000224651464046FFF787FFA74200D10FE068
:102EC0006D1C4FF000090AEB440AA044381B87B27E
:102ED000B7F5806F02DD4FF4806400E03C46B0E758
:102EE00000BFFFF7FEFE00BF9BE713B504460122BB
:102EF00001A92046FFF78AFF1CBD3649097901B9AF
:102F00007047002000E0401C33498842FBDB314918
:102F1000097901B9F4E74FF41651304A11600121E3
:102F20002F4A11601E212F4A11604FF47A712E4AE8
:102F3000116032212D4A116028212D4A1160002193
:102F40002C4A116005212C4A11600A212B4A11607C
:102F500028212B4A116014212A4A116064212A4A2F
:102F600011602A4A11600021294A1160294A116022
:102F70006421294A11600F21284A11600021284A42
:102F800011604FF41671274A11604FF4C871264A38
:102F900011600A21254A11600321254A11604FF46E
:102FA000FA71244A116047E080FFFF1F08ED00E03E
:102FB000001002400000FFF8FFFFF6FE0020024074
:102FC0007100002023016745AB89EFCD00000808A0
:102FD000643900208B09002040420F006C0600205D
:102FE0007006002074060020780600207C06002071
:102FF0008006002084060020880600208C06002021
:103000009006002094060020980600209C060020D0
:10301000A0060020A4060020A8060020AC06002080
:10302000B0060020B4060020B8060020BC06002030
:10303000C0060020C40600200721F64A116040F6B1
:10304000C411F54A11600A21F44A116041F2BA3103
:10305000F34A116041F25631F24A116041F288316F
:10306000F14A1160C821F14A11601421F04A11603F
:103070000021F04A116040F6B831EF4A116000219A
:10308000EE4A1160EE4A1160EE4A1160EE4A11609C
:10309000EE4A11601621EE4A1160EE4A1160EE4AC6
:1030A0001160EE4A1160EE4A11600221ED4A116092
:1030B000ED4A1160ED4A1160ED4A1160ED4A116070
:1030C0000021ED4A1160ED4A117000BF18E710B5FC
:1030D000EB48007800B910BDE7480068072802D027
:1030E000082812D108E00020E6490870E64A0021CD
:1030F000E648FDF77DFA09E00020E2490870E24A5F
:103100000021E348FDF774FA00E000BF00BF00BFF4
:10311000E1E72DE9FE43DF48006808B9BDE8FE831A
:10312000DD480078162805D1DB48401C08F030FB4C
:10313000C7B203E0D84808F02BFBC7B2D5480068F7
:10314000A0EB0708B8F1000F00DAE7E708F1010883
:10315000D1480078162824D1CF4C641C6E4600BF9D
:10316000207806F8010B601C044600780028F7D18F
:10317000C94C641C002504E0302004F8010B681CD5
:10318000C5B24545F8DB6E46002505E016F8010B93
:1031900004F8010B681CC5B2BD42F7DB00202070AB
:1031A00021E0BD4C6E4600BF207806F8010B601C84
:1031B000044600780028F7D1B74C002504E0302001
:1031C00004F8010B681CC5B24545F8DB6E460025C6
:1031D00005E016F8010B04F8010B681CC5B2BD42EE
:1031E000F7DB0020207000BF98E710B5AB480078EF
:1031F00090B9A348007878B9A048007860B9002059
:10320000A0490870FFF785FF9F4AA2480068C1B235
:10321000A148FDF7EDF902E0A148A249086010BD00
:1032200010B5A1480068002825DAA048407810F0C1
:10323000080F03D002209449887002E000209249D0
:1032400088708248006818B102208F49C87002E077
:1032500000208D49C8709548407810F0400F03D089
:1032600002208949487002E0002087494870002008
:103270008549887111E06D48006808F00FFD04462B
:103280008B480168204608F0C5FD03D801207E491F
:10329000887102E000207C49887110BD2DE9FE4F45
:1032A00081468A468348007820B100208149087011
:1032B000BDE8FE8F7A4808307F490978441A6E4687
:1032C00000270DE02078302807DB2078392804DC3F
:1032D00014F8010B06F8010B00E0641C781CC7B25F
:1032E000754800788742EDDB00203070684608F0B2
:1032F00075FA804645467148007840B1284608F086
:10330000CDFC6F49086000206C490870D0E7280A9E
:103310006C4908704D706C48C0F8009009206B49EA
:10332000086002F00EFA00BFC2E7FEB504460E4682
:1033300015461A208DF8000021465748FEF791FEE9
:10334000554800788DF80100534840788DF8020008
:1033500000208DF8030031464F48FEF782FE4E49AB
:103360006846FDF7DBF85A480570534805700120A0
:10337000444908704A484B490860FEBD00B585B015
:1033800054A00068049054A00068039053A0006803
:10339000029053A00068019052A000680090364847
:1033A00000681A2833D00FDC32D2DFE800F031A6F3
:1033B000B2C4D6FCFBFAF9F8F7F6F5F4F3F2F1F043
:1033C000EFEEEDECEBEAE9E8272822D00BDCA0F1E8
:1033D0001B000C281CD2DFE800F0F2F1F0EFEEED5C
:1033E000ECEBEAE9E8E72E287ED008DCA0F1280023
:1033F00006280DD2DFE800F0EAE9E8E7E6E5312843
:1034000073D075DC2F2872D0302801D1FDE3AFE2F4
:10341000DDE0DAE3C8060020CC060020D00600205C
:10342000D8060020DC060020D4060020E00600209C
:10343000E4060020E8060020EC060020F00600204C
:10344000F4060020F8060020FC06002000070020FB
:1034500034070020380700203C07002040070020E8
:1034600044070020480700204C0700205007002098
:103470005407002058070020500100204901002077
:103480004A010020CA000020A84700203300002085
:103490003A00002018070020720000204B01002095
:1034A00050090020D0000020F8070020A4070020C9
:1034B000280100205C010020CB00002048010020F2
:1034C000D8000020B147002094070020A00700206A
:1034D000CC0000201A3032001A3033001A30340089
:1034E0000E150D000E1F1F00EDE3FEE300E0FDE3EF
:1034F000322865D0C8286AD1F9E340F2E250FA498F
:1035000008600422F9480168F9480068FFF70DFFD8
:103510002DE2F5480068401CF34908600421F24898
:103520000068FFF7BBFE0222F2480168F04800681D
:10353000FFF7FBFE1BE2EC480068401CEA4908600C
:103540000221E9480068FFF7A9FE0222EA48016863
:10355000E7480068FFF7E9FE09E2E3480068401C1D
:10356000E14908600221E0480068FFF797FE042265
:10357000E2480168DE480068FFF7D7FEF7E19BE10B
:103580007CE169E156E143E130E11DE10AE1F7E068
:10359000E4E0D1E0BEE0ABE098E085E072E05FE01F
:1035A0004CE039E026E013E0F3E2E0E2CDE2BAE2FB
:1035B000A7E294E281E26EE225E212E2FFE1E9E1B4
:1035C000CBE36EE35BE348E335E322E30EE3C5E3DD
:1035D000C5480068401CC44908600421C24800680E
:1035E000FFF75CFE0222C6480168C1480068FFF789
:1035F0009CFEBCE1BC480068401CBB49086002213D
:10360000B9480068FFF74AFE0222BE480168B84880
:103610000068FFF78AFEFCE3B3480068401CB2492B
:1036200008600221B0480068FFF738FE0222B64861
:103630000168AF480068FFF778FEEAE3AA4800682F
:10364000401CA94908600221A7480068FFF726FE30
:103650000222AE480168A6480068FFF766FED8E37C
:10366000A1480068401CA049086002219E480068EB
:10367000FFF714FE0222A64801689D480068FFF784
:1036800054FEC6E398480068401C97490860022130
:1036900095480068FFF702FE02229E4801689448A0
:1036A0000068FFF742FEB4E38F480068401C8E4973
:1036B000086002218C480068FFF7F0FD022296485E
:1036C00001688B480068FFF730FEA2E38648006877
:1036D000401C85490860022183480068FFF7DEFD31
:1036E00004228E48016882480068FFF71EFE90E3BE
:1036F0007D480068401C7C49086004217A480068C5
:10370000FFF7CCFD04228648016879480068FFF77E
:103710000CFE7EE374480068401C73490860042175
:1037200071480068FFF7BAFD02227E4801687048C0
:103730000068FFF7FAFD6CE36B480068401C6A49BB
:103740000860022168480068FFF7A8FD0422764857
:10375000016867480068FFF7E8FD5AE362480068BF
:10376000401C6149086004215F480068FFF796FD2E
:1037700004226E4801685E480068FFF7D6FD48E302
:1037800059480068401C58490860042156480068A0
:10379000FFF784FD02226648016855480068FFF77C
:1037A000C4FD36E350480068401C4F4908600221C0
:1037B0004D480068FFF772FD02225E4801684C48E0
:1037C0000068FFF7B2FD24E347480068401C464903
:1037D0000860022144480068FFF760FD0522564852
:1037E000016843480068FFF7A0FD12E33E48006807
:1037F000401C3D49086005213B480068FFF74EFD2D
:1038000005224E4801683A480068FFF78EFD00E344
:1038100035480068401C344908600521324800687A
:10382000FFF73CFD05224648016831480068FFF774
:103830007CFDEEE22C480068401C2B490860052105
:1038400029480068FFF72AFD05223E4801682848FC
:103850000068FFF76AFDDCE223480068401C22494B
:103860000860052120480068FFF718FD052236484A
:1038700001681F480068FFF758FDCAE21A4800684F
:10388000401C19490860052117480068FFF706FD2C
:103890002E48007840B12E4A00216846FCF7A8FE69
:1038A0001E202C49086006E005222B4801681048BC
:1038B0000068FFF73AFDACE20B480068401C0A497B
:1038C0000860052108480068FFF7E8FC23480078F5
:1038D00040B11F4A00216846FCF78AFE1E201D49A0
:1038E000086044E03CE00000580100206C06002025
:1038F0005001002070060020740600207806002089
:103900007C06002080060020840600208806002017
:103910008C060020900600209406002098060020C7
:103920009C060020A0060020A4060020A806002077
:10393000AC060020B0060020B4060020B806002027
:10394000BC060020C0060020C4060020800700201E
:10395000680000202C010020C806002081070020FC
:103960000522FF480168FF480068FFF7DEFC50E2CF
:10397000FD480068401CFC4908600521FA480068C1
:10398000FFF78CFC0522F9480168F6480068FFF74C
:10399000CCFC3EE2F648007848B9F3480068401C89
:1039A000F14908600521F0480068FFF777FC05221F
:1039B000F0480168EB480068FFF7B7FC29E2EA48E5
:1039C0000068401CE84908600521E7480068FFF7E7
:1039D00065FC0522E8480168E2480068FFF7A5FC9D
:1039E00017E2E1480068401CDF4908600521DE4815
:1039F0000068FFF753FC0522E0480168D9480068D9
:103A0000FFF793FC05E2D8480068401CD6490860DF
:103A10000521D5480068FFF741FCD948007840B13E
:103A2000D84A00216846FCF7E3FD1E20D64908600D
:103A300030E0CF48007830B3CA4800681E2822D151
:103A40000020CB490870D1490870D1490870CF498E
:103A50000870D0490870D048D0490860D04A002189
:103A6000D048FCF7C5FD0020BE490860CE4908706B
:103A7000CE4803F0F3FB0120CD4908700020BC497B
:103A8000087005B000BD0522CA480168B548006845
:103A9000FFF74BFCBDE1B4480068401CB249086028
:103AA0000521B1480068FFF7F9FB0522C24801680B
:103AB000AC480068FFF739FCABE1AB480068401C3C
:103AC000A94908600521A8480068FFF7E7FB05221F
:103AD000BA480168A3480068FFF727FC99E1A248AB
:103AE0000068401CA049086005219F480068FFF756
:103AF000D5FB0522B24801689A480068FFF715FC1B
:103B000087E199480068401C97490860052196485C
:103B10000068FFF7C3FB0522AA48016891480068C6
:103B2000FFF703FC75E190480068401C8E4908606F
:103B300005218D480068FFF7B1FB0222A248016809
:103B400088480068FFF7F1FB63E187480068401C84
:103B500085490860022184480068FFF79FFB012225
:103B60009A4801687F480068FFF7DFFB51E17E4813
:103B70000068401C7C49086001217B480068FFF711
:103B80008DFB01229248016876480068FFF7CDFB63
:103B90003FE175480068401C734908600121724884
:103BA0000068FFF77BFB01228A4801686D480068C6
:103BB000FFF7BBFB8748006818B102207849C8703E
:103BC00002E000207649C87023E14FF4C1606649E5
:103BD0000860042164480068FFF760FB02227E4809
:103BE000016860480068FFF7A0FB12E140F20E6038
:103BF0005D49086002215C480068FFF74FFB022224
:103C0000764801685748006800E083E0FFF78DFBC5
:103C1000FFE055480068401C5349086002215248A3
:103C20000068FFF73BFB02226D4801684D480068C1
:103C3000FFF77BFBEDE04C480068401C4A490860F8
:103C4000022149480068FFF729FB02226548016804
:103C500044480068FFF769FBDBE043480068401C0C
:103C600041490860022140480068FFF717FB022223
:103C70005D4801683B480068FFF757FBC9E03A48D8
:103C80000068401C38490860012137480068FFF788
:103C900005FB01225548016832480068FFF745FBE3
:103CA000B7E031480068401C2F49086001212E48C8
:103CB0000068FFF7F3FA01224D48016829480068BF
:103CC000FFF733FBA5E028480068401C2649086040
:103CD000012125480068FFF7E1FA01224548016803
:103CE00020480068FFF721FB93E025E000E08EE02C
:103CF0001D480068401C1C49086001211A480068E2
:103D0000FFF7CCFA01223C48016816480068FFF72B
:103D10000CFB7EE014480068401C13490860012138
:103D200011480068FFF7BAFA0122344801680D48CB
:103D30000068FFF7FAFA6CE00B480068401C0A497B
:103D40000860022108480068FFF7A8FA002011491E
:103D500008700C4A002101A852E057E058E000002A
:103D6000CC0600205001002058010020D006002081
:103D70004F010020D8060020DC060020D4060020D9
:103D800082070020680000202C010020CB000020CA
:103D9000CC000020CA00002050090020D0000020E4
:103DA000A8470020BE00002049010020A086010095
:103DB00045010020E0060020E4060020E80600207F
:103DC000EC060020F0060020F4060020F806002093
:103DD000FC060020000700203407002038070020E0
:103DE0003C0700204007002044070020480700202F
:103DF0004C070020500700205407002058070020DF
:103E0000FCF7F6FB0020FF49086002E001E000E05B
:103E100000BF00BF00BF34E6FEB504460E4615469F
:103E20000C208DF800002146F748FEF71AF9F648F5
:103E300000788DF80100F44840788DF802000020E9
:103E40008DF803003146F048FEF70BF9EE4968465D
:103E5000FCF764FBED480570ED4805700120ED4965
:103E60000870ED48ED490860FEBD10B5E5480068F2
:103E7000012804D002280AD0032825D10FE005220A
:103E8000E7480168DF480068FFF7C6FF1DE005222C
:103E9000E4480168DB480068FFF7BEFF15E0012039
:103EA000E1490870E149087040F2FC50E0490860BF
:103EB0001B20D44908600120DE4908700020DE493B
:103EC0000870FFF75BFA00E000BF00BF10BDFEB551
:103ED00004460E46154600208DF801008DF800407E
:103EE0003146C948FEF7BDF8C7496846FCF716FBDE
:103EF000C6480570C64805700120C6490870C64806
:103F0000C6490860FEBD70B58EB0CCA000680D90AB
:103F1000CBA000680C90CBA000680B90CAA00068F2
:103F20000A90CAA000680990C9A103C9CDE9070198
:103F3000C9A000680690C9A103C9CDE90401AFF684
:103F40005C2000680390C7A103C9CDE90101AD4819
:103F500000680C2874D2DFE800F073060D1D2D3DBB
:103F60004D617484A7FE0122C04801681A20FFF742
:103F7000AEFF22E140F21960AD4908600121AC4872
:103F80000068FFF78BF90222B94801680D20FFF79E
:103F90009EFF12E140F20960A54908600221A44891
:103FA0000068FFF77BF90522B24801680F20FFF790
:103FB0008EFF02E14FF4C3609D49086005219C48D3
:103FC0000068FFF76BF90122AB4801680A20FFF790
:103FD0007EFFF2E040F21A609549086001219448A2
:103FE0000068FFF75BF9A548052201680C20FFF780
:103FF0006EFFE2E040F2DF508D49086005218C48F9
:104000000068FFF74BF99E48006807F066FE04461B
:10401000052201461120FFF75AFFCEE040F20A6068
:1040200083490860052182480068FFF737F90020BE
:1040300078490870934A00219348FCF7D9FABCE00C
:10404000BAE09248006892490860002071490870FF
:104050000120904908738B4A00218F48FCF7C8FA69
:10406000ABE08748006807F038FE044605220146A9
:104070001120FFF72CFF8948006807F00FFE064665
:1040800001468748006807F044FC04467F490968F8
:104090007F4A1268881A07F00AFE0546214607F093
:1040A00038FC8049086088E003F066FD7B490860C1
:1040B00040F20C605E49086005215D480068FFF72A
:1040C000EDF87648006807F0E9FD064601467448B9
:1040D000006807F01EFC04466C4909686C4A1268C7
:1040E000881A07F0E4FD0546214607F012FC6D49E9
:1040F00008600020674908736848006807F0CEFD33
:10410000044601466748006807F003FC65490860FB
:104110005F4800686449086004226448FEF776FE40
:10412000042261496148FEF760FE5E48006860490C
:10413000086004225D480A30FEF768FE04225C49EC
:104140005A480A30FEF751FE5A495648006807F0AF
:10415000AAFB054600E008E007F0BFFD0446062282
:1041600001460DA8FFF7E1F827E001205249087049
:1041700001212F480068FFF791F84E49494800682F
:1041800007F0C7FB474908600846006848490860CF
:10419000042246480A30FEF739FE042244494348C7
:1041A0000A30FEF722FE00201A490870354A002125
:1041B0001548FCF71DFA00E000BF00BF0EB070BD4F
:1041C00010B586B03DA1D1E900028968CDE904218E
:1041D0000390FCF7F5FAA0B91348007810B93A48F3
:1041E000007870B13948007858B908480078401C08
:1041F00006490870084600780549097888426BDD51
:1042000067E06CE05001002072000020CC0000202C
:10421000CB000020CA00002050090020D000002060
:104220005C070020600700204901002045010020B4
:10423000580100204F0100204B0100201A0000000F
:10424000300000000D000000303000000F000000C2
:10425000303132333400000024250000353138334A
:1042600034000000391B1B0D00000000180700205F
:104270001C070020200700206C070020A807002052
:1042800024070020680000203300002004000020E4
:10429000D4000020BD0900203A0000203001002099
:1042A00030070020D800002000010020901D0708E2
:1042B0000401002000401C4648010020350E252541
:1042C00026262626000000004A010020400100208A
:1042D00002E00120FF4908700120FF490870FCF747
:1042E0006FFA01282CD1FD48007810B9FC480078FD
:1042F00030B3FC48007818BBF6480078C0F10800DD
:10430000F949085C401CC4B2F2480078C0F10800CA
:104310000C54392C06DD3020EE490978C1F1080132
:10432000F14A5054392C01DC302C06DA3020E949AE
:104330000978C1F10801EC4A50540120E94908709C
:10434000FCF73EFA022824D1E448007808B3E74895
:104350000078F0B9E6480078D8B9E648007848B166
:10436000E54800681F2804DAE3480068401CE24979
:10437000086005E0E0480068401CDF49086000BFB5
:10438000FEF7FCFF0120DA490870D849087006B032
:1043900010BDFCF715FA022815D1D148007890B16C
:1043A000D248007878B9D248007860B9D24800681D
:1043B000401CD1490860FFF7A6FD0120CC490870D8
:1043C000CA490870E3E7FCF7FBF9022815D1CB488E
:1043D000007890B1C548007878B9C548007860B9D0
:1043E000C5480068401CC4490860FFF73EFD012035
:1043F000BF490870BD490870C9E7FCF7E1F9032817
:1044000043D1BC48007800B1C1E7BD480078D8BBB3
:10441000BA48007858B9B248007840B9AF48007837
:1044200028B903F069F90120B54908702DE0B348B7
:10443000007828B9AA48007810B9A8480078F8B1DF
:10444000AD48006801281BDD0120AE490870AA486C
:104450000068401EA8490860AB480068801EAA4951
:1044600008609E48007808B1FEF788FF9C480078F5
:1044700008B1FFF748FDA148007808B1FFF7F5FC47
:1044800001209F49087082E7FFE7FCF799F90428AB
:1044900007D19E48007808B903F00EF901209B4926
:1044A0000870FCF78DF905284CD18D480078F0BBD9
:1044B00092480078D8BB96480078D8B987480078E9
:1044C000C0B90020934908708B490860092203A9EC
:1044D000684607F048F94FF47A7002F0BFFE8E4A42
:1044E00000216846FCF784F801207C49087088495F
:1044F00008704CE786480078C8B978480078B0B1B1
:104500000020864908707349087084490870814901
:104510000870754882490860824A00218248FCF789
:1045200067F80020744908606C49087000E009E0F1
:104530007E4802F093FE01207549087000206D4905
:10454000087024E7FCF73CF9062841D1634800785D
:10455000E8BB6A480078D0BB00206749086074480F
:10456000007898B95E48007880B9002069490870E1
:10457000694A00216F48FCF73BF800205E4908605B
:104580000120574908706A49087000E768480078B8
:10459000E8B953480078D0B103204E4908705F490C
:1045A000087065496548FBF7B9FF03205B4908704F
:1045B0000120584908704C485949086000204E496C
:1045C000086047490870012059490870DFE6FFE795
:1045D000FCF7F6F8072841D140480078E8BB40488E
:1045E0000078D0BB0020444908605548007898B94D
:1045F0004248007880B9002046490870464A0021A8
:104600005048FBF7F5FF00203B49086001203B497B
:1046100008704B490870BAE649480078E8B937484D
:104620000078D0B103202B4908703C4908704249FA
:104630004248FBF773FF03203849087001203549D1
:10464000087029483649086000202B4908602B492A
:10465000087001203A49087099E6FFE700BF96E626
:1046600010B5FCF7ADF810B9012037490870FCF718
:10467000A7F8012802D1002033490870FCF7A0F800
:1046800010B1002014490870FCF79AF8012802D0F4
:10469000002014490870FCF793F8022803D1002089
:1046A0001849087007E00020104908701049087088
:1046B0000A2002F0D3FDFCF783F8032802D0002083
:1046C0000F490870FCF77CF8042802D000200F493D
:1046D00008703BE0CC000020400100204901002090
:1046E0004A01002041010020500900204201002021
:1046F0004C0100204F010020500100204B01002000
:10470000430100205C0100205801002044010020EA
:1047100045010020CA00002068000020CB000020D6
:10472000D0000020A8470020BE000020A086010085
:10473000460100209A000020640000204A0000206A
:1047400047010020A300002064010020FCF738F896
:10475000052805D00020FD4908700A2002F07EFDE2
:10476000FCF72EF8062802D00020F9490870FCF763
:1047700027F8072802D00020F649087010BD2DE95F
:10478000F04F85B0F448006807F096FACDE90001D3
:10479000F248006807F090FA804602460B46002077
:1047A000EF4908F035FA82468B46EE49086807F073
:1047B000CCFA064652465B4607F001FA0446DDE9AC
:1047C000002307F0FCF9CDE9020107F0FDFA04909F
:1047D000E148006807F070FA80468946DF480068C3
:1047E00007F06AFA064602460B460020DC4908F04C
:1047F0000FFA82468B46DB49086807F0A6FA524654
:104800005B46CDE9020107F0DAF9044642464B4621
:1048100007F0B2FA14D8D3490868002107F0FAFA71
:104820000ED840F6B47004F0C9FCCF49049807F0E4
:104830003AF8054607F051FA044604F0E8FC38E07F
:10484000C8490868002107F0DBFA07D240F6B470C7
:1048500004F0B4FC012004F0DAFC2AE0BE48006851
:1048600007F02AFA80468946BC48006807F024FA17
:1048700002460B46CDE902010020B94908F0C8F90B
:1048800004460D46B749086807F05FFA0646224617
:104890002B4607F094F9824642464B4607F080FAD1
:1048A00007D240F6B47004F089FC4FF6FE7004F0B5
:1048B000AEFC05B0BDE8F08F2DE9F04F87B0A648FB
:1048C000006807F0F9F980468946A448006807F0B7
:1048D000F3F9824602460B460020A14908F098F9F8
:1048E000CDE904019F49086807F02FFA0646DDE983
:1048F000042307F064F9044642464B4607F03CFAAD
:1049000037D898490868002107F084FA31D8052083
:1049100004F054FC9048006807F0CEF904460D46B8
:104920008E48006807F0C8F9804602460B46002012
:104930008B4908F06DF9CDE900018A49086807F054
:1049400004FA0646DDE9002307F039F922462B4632
:10495000CDE9020107F033F90022844BCDE90401CF
:1049600007F0BCF8824607F0D1F9069004F04FFC3E
:1049700036E07C490868002107F042FA06D205209B
:1049800004F01CFC012004F042FC29E0724800689D
:1049900007F092F982468B467048006807F08CF960
:1049A00002460B46CDE9040100206D4908F030F9BC
:1049B000804689466B49086807F0C7F906464246B3
:1049C0004B4607F0FCF8044652465B4607F0E8F910
:1049D00006D2052004F0F2FB4FF6FE7004F017FC3F
:1049E00007B0BDE8F08F8AB061A103C9CDE9070126
:1049F00061A2D2E900109268CDE90502049102F0AB
:104A000099FC02F0B5FC4FF0FF305E49086002F0FF
:104A100053F800F02FFB00F0EFFB00F0ABFB00F0D1
:104A20002BFC00F06BFC02F011FE02F023FE00F004
:104A3000C1FC02F019FC00BF00BF4021524805F044
:104A400022FAFDF753F800F0F7FC00F097FC04227F
:104A50004E494F48FEF7C9F94C4800684D49086077
:104A600004224D494A480A30FEF7BFF94A48006817
:104A70004A49086002224A4945481430FEF7B5F910
:104A80000222484942481E30FEF7AFF902F01BF9F6
:104A9000FDF7A7F97C2005F0DAFA38BB4248434914
:104AA00008F060F8424A03C24248434908F09CFDBE
:104AB000424A03C23C48424908F014FE3C4AC2E95B
:104AC00004013C483F4908F00DFE394AC2E906019D
:104AD00038483C4908F046F8354AC2E902013248F4
:104AE000374908F081FD354AC2E9020120213648E4
:104AF00005F0CBF90221344805F0C7F904F08EFB2C
:104B000004F056FB032031490870314908700870E1
:104B100001203049087030483049086000202D4994
:104B200008702F4800682F490860F4E120212E48C2
:104B300005F0ABF98021244805F0A7F92B4800784F
:104B400010B14FF0000864E081E000004501002052
:104B50004601002047010020200700201807002000
:104B6000000024402801002000FE7F47C0FFEF40E6
:104B70006566666162636400010000000000000079
:104B800000000000F807002000180140000100208C
:104B9000901D0708D400002004010020D800002048
:104BA0005C07002060070020BF6E2D3852C1F03F27
:104BB000684100201E264454FB21F93F8844002010
:104BC00052C1E03FFB21E93F00080140CC0000203A
:104BD000CB000020CA00002050090020D000002097
:104BE000F40600204808002000100140460800207C
:104BF000D54810F80810D54806F0CFFB00BF80213B
:104C0000D24806F038FC0028F9D008F1010000F085
:104C1000FF08B8F10C0FEBDB4FF0000810E0CC48B8
:104C200010F80810C94806F0B8FB00BF8021C7483B
:104C300006F021FC0028F9D008F1010000F0FF087F
:104C4000B8F10C0FEBDB0020C249087016E04FF002
:104C5000000810E0C04810F80810C04806F09DFB9E
:104C600000BF8021BD4806F006FC0028F9D008F1FD
:104C7000010000F0FF08B8F10A0FEBDBB84800684C
:104C8000032807DAB7480068B7490860B7480068E2
:104C9000B7490860B7480078F0BBB7480078D8B388
:104CA000B648006806F0FAFF0646B548006806F008
:104CB000F5FF0746B34906F02CFE0546314606F0DF
:104CC000F2FD044607F041F881468A46AE48006886
:104CD00006F0F2FF064602460B460020AB4907F0FD
:104CE00097FF04460D46AA48006806F0D7FF06461F
:104CF00007F02BF822462B46CDE9000106F05FFFB6
:104D00004A465346CDE9020107F036F80ED2A148D3
:104D10000068A149086000E008E0A048407840F041
:104D200040009E4948700120924908709C480078D4
:104D3000A8BB9C48007890BB9B48007878BB9B48F8
:104D4000006868B39248006850B300219848006832
:104D500007F056F83FD18848007808B393480068B8
:104D600006F09CFF05468A480468002C01DB2146BA
:104D700000E06142084606F091FF0646294607F02A
:104D80003FF821D28B48006810B101281AD108E001
:104D9000C8208949086001208649086013E020E0A6
:104DA00019E08548006860B97A4800687A49086067
:104DB0007A48407840F040007849487000207D49AA
:104DC000086000E000BF0CE000207A490860C820BD
:104DD0007949086005E0002076490860C8207649D6
:104DE000086076480078F0BB6A480068744908603B
:104DF0006948006806F052FF83466648006806F07E
:104E000056FF5946039006F048FD82466D480168FA
:104E1000504606F07EFD814606F097FF06460022CA
:104E2000694B06F0B6FD044606F070FF584908606D
:104E30000846006806F032FF04465D4801682046D7
:104E400006F02BFD6149086002F096FE604908609B
:104E50000846006806F022FF04465C4908682146BF
:104E600006F057FD00E016E058490860086806F0B3
:104E700034FF5749096800FB01F4204606F00EFF95
:104E800052490860086806F028FF04460146514868
:104E9000FDF7E7F80BE03F48006806F008FF05461D
:104EA00006F01BFF044601464A48FDF7DAF8384889
:104EB0000068002804DA3648006840423449086037
:104EC00033480068444908604448006810B1FFF75F
:104ED000F3FC01E0FFF753FC04F080F84048006861
:104EE00050B940480078FBF705FC00203E490870A7
:104EF0003E4908703E490870FFF7B2FBFFF760F9C2
:104F0000FEF78EF93B48006808B9FEF76EF9FEF728
:104F1000DEF8FDF7F2FF09E600B50422364937480E
:104F2000FDF774FF042234493448FDF75EFF042284
:104F3000334932480A30FDF769FF042230492F48CF
:104F40000A30FDF752FF00BDCF07002000440040AB
:104F5000C007002046080020104C0020004C0040F4
:104F6000F8070020480700203408002034070020FC
:104F7000300800203401002008080020200700200D
:104F8000740600200000C8421807002000002440DA
:104F90001C01002004000020D4000020A4070020F1
:104FA0004B0100204A010020490100207C0600201E
:104FB00024010020380100203C0100206401002071
:104FC00020010020D80000200000E03F2801002040
:104FD0003001002072000020F40000206C07002047
:104FE0002C010020CC000020800700208107002039
:104FF00082070020600100205C070020A41D070834
:105000006007002070B502460B46FF24FF250BE029
:1050100012F8010B80EA0401FC48405C80EA0504B8
:10502000FB4850F82100C5B21800A3F10106B3B245
:10503000EED145EA042070BD70B502460B464FF62E
:10504000FF70002413E01178484000250AE010F0BA
:10505000010F04D04AF2010686EA500000E0400841
:105060006E1CF5B2082DF2DB661CF4B2521C9C4299
:10507000E9DB70BD00B585B0012144F2080005F000
:105080000AF90121042004F022FF4020ADF81000AD
:1050900018208DF8130003208DF8120004A9DD48B4
:1050A00004F046FE8020ADF8100004208DF81300B7
:1050B00004A9D84804F03CFE4FF49640009000202C
:1050C000ADF80400ADF80600ADF80800ADF80C002E
:1050D0000C20ADF80A006946CF4806F062F80121BD
:1050E000CD4806F0EAF8012240F22551CA4806F000
:1050F000F0F805B000BD00B585B0012144F2040010
:1051000005F0C9F84FF40070ADF8100018208DF8C4
:10511000130003208DF8120004A9C04804F008FE13
:105120004FF48060ADF8100004208DF8130004A93E
:10513000BA4804F0FDFD4FF4964000900020ADF811
:105140000400ADF80600ADF80800ADF80C000C2026
:10515000ADF80A006946B04806F023F80121AE48D0
:1051600006F0ABF8012240F22551AB4806F0B1F849
:1051700005B000BD00B585B00121880405F098F8A0
:105180000121082005F087F84FF48060ADF8100089
:1051900018208DF8130003208DF8120004A99D48F3
:1051A00004F0C6FD4FF40060ADF8100004208DF847
:1051B000130004A9974804F0BBFD4FF4165000906B
:1051C0000020ADF80400ADF80600ADF80800ADF819
:1051D0000C000C20ADF80A006946914805F0E1FF8B
:1051E000012240F225518E4806F073F801218C48C7
:1051F00006F063F805B000BD00B585B00121480494
:1052000005F056F80121042005F045F80420ADF81A
:10521000100018208DF8130003208DF8120004A947
:105220007E4804F085FD0820ADF8100004208DF8BC
:10523000130004A9794804F07BFD4FF496500090C8
:105240000020ADF80400ADF80600ADF80800ADF898
:105250000C000C20ADF80A006946724805F0A1FF69
:10526000012240F225516F4806F033F801216D48C4
:1052700006F023F805B000BD00B585B00121C804D3
:1052800005F016F80121102005F005F84FF48060B4
:10529000ADF8100018208DF8130003208DF81200CF
:1052A00004A9614804F044FD4FF40060ADF810001B
:1052B00004208DF8130004A95B4804F039FD4FF475
:1052C000165000900020ADF80400ADF80600ADF8CF
:1052D0000800ADF80C000C20ADF80A0069465348F0
:1052E00005F05FFF012240F22551504805F0F1FF23
:1052F00001214E4805F0E1FF05B000BD00B585B0C5
:105300000121080504F0D4FF0121082004F0C3FFA7
:105310004FF48050ADF8100018208DF813000320D2
:105320008DF8120004A9404804F002FD0420ADF8F5
:1053300010008DF8130004A93D4804F0F9FC4FF467
:10534000964000900020ADF80400ADF80600ADF8DE
:105350000800ADF80C000C20ADF80A00694635488D
:1053600005F01FFF012240F22551324805F0B1FF40
:105370000121304805F0A1FF05B000BD08B5A2200D
:10538000ADF8000010208DF8030003208DF8020016
:105390006946224804F0CCFC2820ADF8000010201B
:1053A0008DF8030003208DF8020069461E4804F0C2
:1053B000BFFC08BD08B500214FF0006003F076FF88
:1053C0004FF4E06003F032FF26208DF8000000204B
:1053D0008DF801008DF8020001208DF80300684669
:1053E00003F029FF4FF4E06003F020FF27208DF841
:1053F000000000208DF801008DF8020001208DF8DA
:105400000300684603F017FF08BD00006801002094
:1054100068020020000C01400038014000080140F3
:10542000004800400044004000100140004C004093
:10543000001401400050004008B54FF4E06003F054
:10544000F5FE17208DF8000001208DF801000020E6
:105450008DF8020001208DF80300684603F0EBFE92
:1054600008BD70B504460D46E1B2FE4805F095FF53
:1054700000BF4021FB4805F0FEFF0128F9D120467E
:1054800070BD10B500BF2021F64805F0F4FF0128DB
:10549000F9D12021F34805F0FBFFF24805F081FF28
:1054A00010BD30B58BB005460C46EF4803F03AFF0F
:1054B000EC48001D009001951020029003940020FC
:1054C00004908020059000200690079008904FF4EB
:1054D0008050099000200A906946E34803F0C2FF1B
:1054E0000BB030BD10B50446A4F5E060CF380DD147
:1054F000DE480068B0F57F4F04D10821DC4804F095
:10550000C2FC03E00821DA4804F0BFFCB4F5FA6FEE
:105510000DD1D6480068B0F57F4F04D10421D4489E
:1055200004F0B1FC03E00421D14804F0AEFCA4F582
:10553000E060D1380FD1CD480068B0F57F4F05D17C
:105540004FF40051CB4804F09EFC04E04FF40051AE
:10555000C84804F09AFCA4F5E060D2380DD1C348E5
:105560000068B0F57F4F04D10221C34804F08BFCE2
:1055700003E00221C04804F088FCA4F5E060D338C1
:105580000DD1BA480068B0F57F4F04D10821BA4860
:1055900004F079FC03E00821B74804F076FCA4F598
:1055A000E060D4380DD1B1480068B0F57F4F04D128
:1055B0002021B14804F067FC03E02021AE4804F04C
:1055C00064FCA4F5E060D5380DD1A8480068B0F5BA
:1055D0007F4F04D18021A84804F055FC03E08021CE
:1055E000A54804F052FCA4F5E060D6380FD19F48DE
:1055F0000068B0F57F4F05D14FF400719E4804F06C
:1056000042FC04E04FF400719B4804F03EFCA4F51A
:10561000E060D7380DD195480068B0F57F4F04D1D0
:105620000121964804F02FFC03E00121934804F087
:105630002CFCB4F5FB6F0FD18C480068B0F57F4FA0
:1056400005D14FF480518C4804F01DFC04E04FF468
:105650008051894804F019FCA4F5E060D9380FD1D5
:1056600082480068B0F57F4F05D14FF480418248F1
:1056700004F009FC04E04FF480417F4804F005FC8D
:10568000A4F5E060DA380DD178480068B0F57F4FB6
:1056900004D101217A4804F0F6FB03E001217848A7
:1056A00004F0F3FBA4F5E060DB380DD16F4800682F
:1056B000B0F57F4F04D180216D4804F0E4FB03E096
:1056C00080216B4804F0E1FBA4F5E060DC380FD1E9
:1056D00066480068B0F57F4F05D14FF4007164480B
:1056E00004F0D1FB04E04FF40071614804F0CDFBFD
:1056F000A4F5E060DD380FD15C480068B0F57F4F5D
:1057000005D14FF400615A4804F0BDFB04E04FF4AA
:105710000061574804F0B9FBA4F5E060DE380FD112
:1057200052480068B0F57F4F05D14FF40051504802
:1057300004F0A9FB04E04FF400514D4804F0A5FB30
:1057400010BD2DE9D847012240F22551454805F00A
:10575000C0FD4C4800680C287ED2DFE800F006113E
:10576000232F3A465965E7E6E5E4C82D07D13220F4
:105770004549087043480068401C424908600EE2F1
:10578000032D07D0052D05D0102D03D000203D4955
:10579000086004E23D4805703A480068401C3949F9
:1057A0000860FCE13A48056000680002384908607A
:1057B00034480068401C33490860F0E13448006810
:1057C0002843334908602F480068401C2D49086071
:1057D000E5E1264805600068000224490860294880
:1057E0000068401C27490860D9E120480068284328
:1057F0001E49086025480078102803D10820214957
:10580000086004E01F480068401C1E490860C6E1AB
:1058100020480560006800021E49086019480068B9
:10582000401C18490860BAE11A4800682843194921
:10583000086016480078032873D0052872D11448F0
:105840000068B0F5FD6F30D108480068B0F57F4FB3
:1058500026D10120104900E0FEE308700F490870CE
:1058600023E0000000380140440002409807002077
:105870000018014000100140001C0140000C0140D4
:1058800000200140A0070020900700209107002081
:10589000940700209C07002083070020B007002009
:1058A0000020FF490870FF490870FF480068A0F514
:1058B000E061E9390FD1FD480068B0F57F4F05D1AF
:1058C0000120FB490870FB49087004E00020F849FA
:1058D0000870F8490870F4480068A0F5E061EA39FA
:1058E0000DD1F2480068B0F57F4F05D10120F24993
:1058F0000870F249087302E00020EF490870EA4896
:105900000068A0F5E061EB3914D1E8480068B0F513
:105910007F4F0CD10120EA4908700020E749087345
:1059200008E064E032E1FEE3FEE346E138E1002016
:10593000E3490870DC480068A0F5E061E4390BD168
:10594000DA480068B0F57F4F03D10120DD490870C7
:1059500002E00020DB490870D3480068A0F5E06150
:10596000EC390AD1D1480068B0F57F4F05D1D6484F
:10597000007800F0FE00D4490870CB480068A0F51C
:10598000E061ED390AD1C9480068B0F57F4F05D113
:10599000CD48007800F0FD00CB490870C24800688F
:1059A000A0F5E061E7390BD1C0480068B0F57F4F42
:1059B00003D10120C549087002E00020C3490870E6
:1059C000C248007818B1B8480068FFF78BFD002185
:1059D000BF480068401CBE4A1060BE4A11540020F7
:1059E000BD490870BA49086011460870D6E04FF00A
:1059F00006084146B748FFF705FB0746B54CAB48DC
:105A0000006800F0FF094FEA49604FEA1069B349A6
:105A100009688F4270D1C82004F8010B032004F8F4
:105A2000010B04F8019B00267CE0142E76D2DFE8FF
:105A300006F00A0F14191E23282D32373C42474D19
:105A400052585D646970A648407804F8010B66E01E
:105A5000A348007804F8010B61E0A248407804F8FC
:105A6000010B5CE09F48007804F8010B57E09E486A
:105A7000C07804F8010B52E09B48807804F8010BD1
:105A80004DE09948407804F8010B48E096480078CA
:105A900004F8010B43E08C48407804F8010B3EE029
:105AA0008948007804F8010B39E090480068000A42
:105AB00004F8010B33E08D48006804F8010B2EE078
:105AC0008B480068000A04F8010B28E08848006849
:105AD00004F8010B23E087480068000A04F8010B72
