:020000040800F2
:100000001850002001010008250100082701000800
:100010002B0100082F010008330100080000000038
:100020000000000000000000000000003701000890
:1000300039010008000000003B0100083D010008F4
:100040001B0100081B0100081B0100081B01000820
:100050001B0100081B010008BD030008D5030008B0
:100060001B0100081B0100081B0100081B01000800
:100070001B0100081B0100081B0100081B010008F0
:100080001B0100081B0100081B0100081B010008E0
:100090001B0100081B0100081B0100080F040008D9
:1000A0001B0100081B0100081B0100081B010008C0
:1000B0001B010008670100081B0100081B01000864
:1000C0001B0100081B0100081B0100081B010008A0
:1000D0001B0100083F010008470100084F0100080C
:1000E000ED0300081B0100081B010008DFF80CD01D
:1000F0000BF0FCFF00480047E149000818500020C1
:100100000648804706480047FEE7FEE7FEE7FEE7B1
:10011000FEE7FEE7FEE7FEE7FEE7FEE793B6000830
:10012000ED000008704700BFFEE700BFFEE700BF1C
:10013000FEE700BFFEE7704770477047704710B595
:1001400005F023FB10BD10B506F034FD10BD10B551
:1001500006F058FD10BD10B506F065FD10BD10B5D8
:1001600006F098FD10BD10B50121D3480BF009F839
:1001700000287DD00121D0480BF014F801F0F4F9EB
:10018000CE48006828B1CD480068401ECB490860C1
:100190000EE02021CA4809F07BFEC0F10100C4B284
:1001A00022462021C64809F084FE0620C349086083
:1001B000C4480078142805DAC2480078401CC149B8
:1001C000087015E00020BF490870012080F31388F3
:1001D00000BF00BFBC48006800F4E060BB490843B2
:1001E000001DB9490860BFF34F8F00BF00BFFEE795
:1001F000B7480078142805DAB5480078401CB4499F
:10020000087060E00020B2490870B248007820B160
:10021000B0480078401EAF490870AF48006820B170
:10022000AD480068401EAC490860AC48006820B189
:10023000AA480068401EA9490860A948006820B182
:10024000A7480068401EA6490860A648006820B17B
:10025000A4480068401EA3490860A348006820B174
:10026000A1480068401EA04908609F48406800E01F
:10027000A3E020B19C484068401E9B4948609A48D2
:10028000806820B198488068401E974988609648E9
:10029000C06820B19448C068401E9349C860934824
:1002A000007820B191480078401C9049087090482F
:1002B000007828B18E480078401E8D49087002E011
:1002C00000208C4908728C488078012811DD8A480A
:1002D0008078401E8849887008468078012808D1B7
:1002E0000221864809F0E3FD83488078401E824958
:1002F00088708148C078012811DD7F48C078401E91
:100300007D49C8700846C078012808D102217B4881
:1003100009F0CDFD7848C078401E7749C87076480E
:100320000079012811DD74480079401E7249087176
:1003300008460079012808D10221704809F0B7FD6C
:100340006D480079401E6C4908716B48407901285E
:1003500011DD69484079401E674948710846407977
:10036000012808D10221654809F0A1FD62484079C1
:10037000401E6149487151480068022813D107F0B6
:1003800013FA07F0D0FC07F0A5FC07F0A2FE07F077
:1003900072FB07F099FB5A48007820B15848007862
:1003A000401E5749087045480068052805D101F0EE
:1003B000B6FA00F0B0FE00F0D6FF10BD10B5012077
:1003C00009F06EF928B1012009F066F9012009F061
:1003D00078F910BD10B5022009F062F928B10220A9
:1003E00009F05AF9022009F06CF910BD10B54FF46C
:1003F000804009F055F948B101F072FD4FF480409A
:1004000009F04AF94FF4804009F05BF910BD10B5CE
:10041000202009F045F928B1202009F03DF92020DD
:1004200009F04FF9402009F03BF928B1402009F0CC
:1004300033F9402009F045F9802009F031F928B15D
:10044000802009F029F9802009F03BF94FF4007071
:1004500009F026F938B14FF4007009F01DF94FF496
:10046000007009F02EF94FF4807009F019F910B3FB
:1004700001F036FD23490860002012490870402130
:100480000F4809F005FDC0F10100C4B22246402129
:100490000B4809F00EFD1C48006820B11B4800689D
:1004A00008B108F0F2F94FF4807009F0F5F84FF454
:1004B000807009F006F910BD000400400000002023
:1004C00000180140840700200CED00E00000FA0550
:1004D00009000020D807002058010020D00000208B
:1004E000C0070020B8070020D44B0020D907002007
:1004F000DA070020B5090020AB0700200008014002
:10050000E0000020040000200C0800200808002063
:100510002DE9F04106460D4630460BF087F900F014
:10052000FF0828460BF082F9C7B2002404E0262019
:10053000FE490855601CC4B2092CF8DB0020FB49B9
:100540000872002410E0444502DA305DF74908558E
:10055000C7F10800A04205DCC7F10800201A285C9A
:10056000F2490855601CC4B2082CECDBBDE8F081F0
:1005700070B5044600251EE00121ED4809F097FC06
:10058000962006F08BFE04F0010028B14FF4807134
:10059000E84809F08AFC04E04FF48071E54809F06E
:1005A00086FC64100121E24809F07FFC962006F0E9
:1005B00075FE681CC5B2082DDEDB70BD10B50446A3
:1005C0000221DB4809F073FC962006F067FE204606
:1005D000FFF7CEFF0221D64809F067FC962006F00F
:1005E0005DFE10BD2DE9F04705460F4690462846B2
:1005F0000BF01CF9C6B200240BE0285D402806DA97
:10060000285D302803DB285D00F00F002855601CB2
:10061000C4B2B442F1DB4020FFF7D0FF0221C4484E
:1006200009F045FC962006F039FEC020FFF7A0FF38
:1006300000244DE0204604EBD0714910A4EB4101A9
:10064000B9BBC6F1080104EBD472B1EB620F31DC27
:1006500017B3C7F1070104EBD472B1EB620F0ED1EF
:10066000A14604EBD971C6F10802C2EB6101695CD5
:10067000B14A515C8031C8B2FFF77AFF26E0A1464B
:1006800004EBD971C6F10802C2EB6101695CAA4AA8
:10069000505CFFF76DFF19E0A14604EBD971C6F17C
:1006A0000802C2EB6101695CA34A505CFFF760FF7E
:1006B0000CE003E00020FFF75BFF07E0A14604EB3E
:1006C000D971491018F80100FFF752FF601CC4B23D
:1006D000102CAFDB0221964809F0E7FB962006F0CC
:1006E000DDFD8920FFF76AFFBDE8F08730B587B0F0
:1006F00005469248007808B907B030BD00240BE0E9
:100700008F480068007801A908558D480068401C92
:100710008B490860601CC4B2092CF1DB8948007861
:1007200040B1894A002101A8FFF75CFF00208549FC
:10073000087019E000240DE0C5F10800A04204D0C3
:1007400001A8005D04A9085502E0262004A9085567
:10075000601CC4B2092CEFDB7B4A002104A8FFF720
:1007600041FF01207749087000BFC5E770B500243C
:100770004FF480716F4809F098FB002518E0641071
:1007800001216B4809F093FB962006F087FD4FF49A
:100790000071684809F06FFB08B144F08004012142
:1007A000634809F082FB962006F078FD681CC5B20C
:1007B000082DE4DB204670BD38B5002502215C48D9
:1007C00009F075FB962006F069FD4220FFF7D0FE88
:1007D000002405E0FFF7CAFF0DF80400601CC4B256
:1007E000042CF7DB0221524809F05FFB962006F04B
:1007F00055FD002406E01DF80400A0402843C5B2C2
:10080000601CC4B2042CF6DB002406E00120A040EA
:10081000A84200D103E0601CC4B2082CF6DB00BF84
:10082000204638BD70B504460D464420FFF7C6FE8D
:1008300002213F4809F03BFB44F0C000FFF798FE5F
:100840002846FFF795FE0221394809F02EFB70BDBE
:1008500070B504460D4605F003016200521CD0B28B
:10086000FFF7E0FF70BD70B50025C1E04020FFF745
:10087000A5FE02212E4809F01AFB962006F00EFD77
:10088000C120FFF775FE0320FFF772FE0221284802
:1008900009F00BFB962006F001FD8E20FFF78EFE7F
:1008A0002A4806F0FBFC0221214809F000FB9620B3
:1008B00006F0F4FCC120FFF75BFE0220FFF758FEB4
:1008C00002211B4809F0F1FA962006F0E7FC8E2081
:1008D000FFF774FE1D4806F0E1FC0221144809F000
:1008E000E6FA962006F0DAFCC120FFF741FE01206F
:1008F000FFF73EFE02210E4809F0D7FA962006F0D7
:10090000CDFC8C20FFF75AFE104806F0C7FC0221F0
:10091000074809F0CCFA962006F0C0FCC120FFF78A
:1009200027FE0020FFF724FE022111E048090020E5
:1009300000180140000C01400C000020690000205C
:100940006C000020680000209A000020404B4C0002
:10095000F74809F0AAFA962006F0A0FC8C20FFF7D1
:100960002DFEF44806F09AFCFFF726FF0446082CFB
:1009700000DA41E04020FFF721FE0221EC4809F0B7
:1009800096FA962006F08AFCC02101EB4401C8B219
:10099000FFF7EEFD002610E0022D01D0072D06D155
:1009A000E549495D8031C8B2FFF7E2FD03E0E24965
:1009B000485DFFF7DDFD701CC6B2102EECDB022196
:1009C000DB4809F072FA962006F068FC8920FFF7F0
:1009D000F5FD0221D64809F068FA962006F05EFC83
:1009E0008920FFF7EBFDD34806F058FC681CC5B220
:1009F000102DFFF63BAF70BD082C00DBFBE7002598
:100A000050E04020FFF7DAFD0221C94809F04FFA13
:100A1000962006F043FCC02101EB4401C8B2FFF769
:100A2000A7FD082C2DD2DFE804F004090E13181DD1
:100A30002227C149085DFFF79BFD23E0BE49085D01
:100A4000FFF796FD1EE0BC49085DFFF791FD19E038
:100A5000B949085DFFF78CFD14E0B749085DFFF761
:100A600087FD0FE0B449085DFFF782FD0AE0B24957
:100A7000085DFFF77DFD05E0AF49085DFFF778FDF4
:100A800000E000BF00BF0221A94809F00EFA96203D
:100A900006F004FC8920FFF791FDA64806F0FEFB56
:100AA000681CC5B2082DACDB00BFA4E710B510214F
:100AB0009F4809F0E0F908B1012000E000209F49BB
:100AC000087001219E4809F0D6F908B9012000E01C
:100AD00000209A49487010BD002019E09749095C30
:100AE00009B1012100E00021964A11549649095CA0
:100AF000964A11549649095C964A11549649095CE4
:100B0000964A11549649095C964A1154411CC8B240
:100B10003228E3DB70470021914A11549249095C65
:100B20003C291AD03D2902D03E2921D10AE08F4923
:100B300051F820108E4A1268914202D10121884A50
:100B4000115416E0894951F82010894A12689142DF
:100B500002DA0121824A11540BE0844951F8201035
:100B6000834A1268914202DD01217D4A115400E05E
:100B700000BF00BF704700217E4A11547E49095CC6
:100B80003C291AD03D2902D03E2921D10AE07B49D7
:100B900051F820107A4A1268914202D10121754A17
:100BA000115416E0754951F82010754A12689142A7
:100BB00002DA01216F4A11540BE0704951F82010FC
:100BC0006F4A1268914202DD01216A4A115400E025
:100BD00000BF00BF704730B50346542971D004DC14
:100BE00043295CD052296DD12EE057296BD058296A
:100BF000F9D13C2B1AD03D2B02D03E2B21D10AE05B
:100C0000504CA45C4D4DAD5C6C400CB1012400E037
:100C10000024204616E0494CA45C4A4DAD5CAC4330
:100C20000CB1012400E0002420460BE0454CA45CFC
:100C3000424DAD5CAC430CB1012400E000242046E1
:100C400000E000BF00BFDAE03C2B1AD03D2B02D001
:100C50003E2B21D10AE0414CA45C3F4DAD5C6C4081
:100C60000CB1012400E00024204616E03A4CA45CBC
:100C70003A4DAD5CAC430CB1012400E000242046A9
:100C80000BE0364CA45C344DAD5CAC430CB101249C
:100C900000E00024204600E000BF00BFAFE03C2B96
:100CA0001DD03D2B02D03E2B24D10DE0294CA45C5D
:100CB000274DAD5C6C400CB1012400E000242046BF
:100CC00019E01AE09AE06EE0214CA45C214DAD5C85
:100CD000AC430CB1012400E0002420460BE01D4C85
:100CE000A45C1B4DAD5CAC430CB1012400E00024BE
:100CF000204600E000BF00BF81E03C2B45D03D2BEB
:100D000002D03E2B4CD10AE0104CA45C0E4DAD5CE1
:100D10006C400CB1012400E00024204641E00A4C64
:100D2000A45C0A4DAD5CAC430CB101242BE029E07E
:100D300000180140404B4C000C00002083090020AB
:100D4000000801405C100020DE0B00208E10002007
:100D5000A00D0020C0100020E7090020F2100020A4
:100D6000CC0E002024110020FE0E0020040E0020D6
:100D700090000020F80F00202A100020300F0020E3
:100D800094000020002420460BE0F84CA45CF84DB1
:100D9000AD5CAC430CB1012400E00024204600E02F
:100DA00000BF00BF2BE03C2B1AD03D2B02D03E2BC6
:100DB00021D10AE0EF4CA45CEF4DAD5C6C400CB16E
:100DC000012400E00024204616E0EB4CA45CE94D31
:100DD000AD5CAC430CB1012400E0002420460BE0E4
:100DE000E44CA45CE44DAD5CAC430CB1012400E0E8
:100DF0000024204600E000BF00BF00E000BF00BFAD
:100E000030BD0021DD4A1154DD4A42F82010D84A95
:100E100011547047D949095C41B9DA4951F8201099
:100E2000D74A42F820100121D44A11547047D449BE
:100E300051F8201069B1D24951F82010491ED04A0A
:100E400042F82010114651F82010012901D1C84A5A
:100E5000115470470021CC4A42F82010CB4A11545B
:100E600070470021CA4A11547047C949095CF9B951
:100E7000C84951F8201000291ADDC34951F8202033
:100E8000C44951F82010491E8A420ADABE4951F875
:100E90002010491CBC4A42F820100121BC4A1154C0
:100EA00006E00121B94A11540021B74A42F8201046
:100EB000704710B51021B84808F0DDFF20B10821B7
:100EC000B54808F0F2FF03E00821B34808F0EFFF4F
:100ED0000121B24808F0CFFF20B10421AE4808F04C
:100EE000E4FF03E00421AC4808F0E1FF0421AB4833
:100EF00008F0C1FF28B14FF40051A94808F0D5FF10
:100F000004E04FF40051A64808F0D1FF1021A34897
:100F100008F0B1FF20B10221A04808F0C6FF03E0AD
:100F200002219E4808F0C3FF40219C4808F0A3FF1F
:100F300020B10821994808F0B8FF03E0082197483C
:100F400008F0B5FF4FF48071944808F094FF20B189
:100F50002021924808F0A9FF03E020218F4808F0E3
:100F6000A6FF4FF480618D4808F085FF20B18021F5
:100F70008A4808F09AFF03E08021884808F097FF2C
:100F80000221874808F077FF28B14FF400718348A9
:100F900008F08BFF04E04FF40071804808F087FFF1
:100FA0000221804808F067FF20B101217D4808F048
:100FB0007CFF03E001217B4808F079FF4FF40061DA
:100FC000764808F058FF28B14FF48051734808F074
:100FD0006CFF04E04FF48051704808F068FF4FF454
:100FE00000516E4808F047FF28B14FF480416B482C
:100FF00008F05BFF04E04FF48041684808F057FFB9
:101000004FF40041654808F036FF20B101216648E1
:1010100008F04BFF03E00121634808F048FF02217C
:10102000614808F028FF20B180215B4808F03DFFAF
:1010300003E08021584808F03AFF4FF48071564889
:1010400008F019FF28B14FF40071534808F02DFF44
:1010500004E04FF40071504808F029FF4FF480611C
:101060004D4808F008FF28B14FF400614A4808F0E5
:101070001CFF04E04FF40061474808F018FF4FF4EC
:101080008051454808F0F7FE28B14FF4005142481E
:1010900008F00BFF04E04FF400513F4808F007FF51
:1010A0000221424808F0E7FE20B908213A4808F03A
:1010B000FCFE03E00821384808F0F9FE10213B4807
:1010C00008F0D9FE20B90421334808F0EEFE03E011
:1010D0000421314808F0EBFE4021344808F0CBFEF3
:1010E00028B94FF400512E4808F0DFFE04E04FF419
:1010F00000512B4808F0DBFE1021294808F0BBFE08
:1011000020B90221254808F0D0FE03E0022123483F
:1011100008F0CDFE10BD2648007830B12548007893
:1011200040F001002349087005E02248007820F0D3
:101130000100204908701E48407830B11D480078F1
:1011400040F002001B49087005E01A48007820F0C2
:101150000200184908701648807830B115480078A8
:1011600040F00400134908702CE025E08E100020A8
:10117000DE0B002024110020CC0E0020AC0B002040
:101180001C0A0020E40A0020100C0020A00D002002
:10119000D20D0020D80C002000180140001C014096
:1011A00000100140000C01400020014000080140F7
:1011B0008309002089000020FE48007820F0040008
:1011C000FC490870FC48C07830B1FA48007840F01B
:1011D0000800F849087005E0F648007820F008009B
:1011E000F4490870F448007930B1F248007840F0D2
:1011F0001000F049087005E0EE48007820F010007B
:10120000EC490870EC48407930B1EA48007840F089
:101210002000E849087005E0E648007820F020004A
:10122000E4490870E448807930B1E248007840F041
:101230004000E049087005E0DE48007820F04000FA
:10124000DC490870DC48C07930B1DA48007840F0F9
:101250008000D849087005E0D648007820F080006A
:10126000D4490870D448007A30B1D248407840F070
:101270000100D049487005E0CE48407820F00100D8
:10128000CC494870CC48407A30B1CA48407840F0E8
:101290000200C849487005E0C648407820F00200C6
:1012A000C4494870C448807A30B1C248407840F0A0
:1012B0000400C049487005E0BE48407820F00400B2
:1012C000BC494870BC48C07A30B1BA48407840F058
:1012D0000800B849487005E0B648407820F008009A
:1012E000B4494870B448007B30B1B248407840F00F
:1012F0001000B049487005E0AE48407820F010007A
:10130000AC494870AC48407B30B1AA48407840F0C6
:101310002000A849487005E0A648407820F0200049
:10132000A4494870A448807B30B1A248407840F07E
:101330004000A049487005E09E48407820F04000F9
:101340009C4948709C48C07B30B19A48407840F036
:1013500080009849487005E09648407820F0800069
:101360009449487070479548007830B194480078A7
:1013700040F001009249087005E09148007820F0A3
:1013800001008F4908708D48407830B18C48007852
:1013900040F002008A49087005E08948007820F092
:1013A0000200874908708548807830B18448007809
:1013B00040F004008249087005E08148007820F080
:1013C00004007F4908707D48C07830B17C480078BF
:1013D00040F008007A49087005E07948007820F06C
:1013E0000800774908707548007930B17448007872
:1013F00040F010007249087005E07148007820F054
:1014000010006F4908706D48407930B16C48007821
:1014100040F020006A49087005E06948007820F033
:101420002000674908706548807930B164480078C9
:1014300040F040006249087005E06148007820F003
:1014400040005F4908705D48C07930B15C48007861
:1014500040F080005A49087005E05948007820F0B3
:101460008000574908705548007A30B15448407898
:1014700040F001005249487005E05148407820F0A2
:1014800001004F4948704D48407A30B14C4840788F
:1014900040F002004A49487005E04948407820F091
:1014A0000200474948704548807A30B14448407846
:1014B00040F004004249487005E04148407820F07F
:1014C00004003F4948703D48C07A30B13C484078FC
:1014D00040F008003A49487005E03948407820F06B
:1014E0000800374948703548007B30B134484078AF
:1014F00040F010003249487005E03148407820F053
:1015000010002F4948702D48407B30B12C4840785E
:1015100040F020002A49487005E02948407820F032
:101520002000274948702548807B30B12448407806
:1015300040F040002249487005E02148407820F002
:1015400040001F4948701D48C07B30B11C4840789E
:1015500040F080001A49487005E01948407820F0B2
:10156000800017494870704710B51021154808F0E1
:1015700082FC70B114480078401C1349087008467A
:10158000007801280ADB0020087001200A49087051
:1015900004E000200C4908700749087001210B483D
:1015A00008F069FCE8B108484078401C06494870DA
:1015B00008460DE08900002083090020B5090020BD
:1015C0008B0000200018014051090020001C014040
:1015D000407801280ADB002048700120FB49487050
:1015E00004E00020FA494870F84948700421F9489D
:1015F00008F041FC70B1F6488078401CF4498870CE
:101600000846807801280ADB002088700120EF4915
:10161000887004E00020EE498870EC498870102141
:10162000EC4808F028FC70B1E948C078401CE84953
:10163000C8700846C07801280ADB0020C870012065
:10164000E249C87004E00020E149C870DF49C87071
:101650004021E04808F00FFC70B1DD480079401CE3
:10166000DB4908710846007901280ADB002008716F
:101670000120D649087104E00020D5490871D349FA
:1016800008714FF48071D34808F0F5FB70B1D04871
:101690004079401CCE4948710846407901280ADB50
:1016A000002048710120C949487104E00020C84960
:1016B0004871C64948714FF48061C64808F0DBFBA9
:1016C00070B1C3488079401CC1498871084680794F
:1016D00001280ADB002088710120BC49887104E0E0
:1016E0000020BB498871B94988710221BA4808F0C5
:1016F000C2FB70B1B648C079401CB549C8710846F4
:10170000C07901280ADB0020C8710120AF49C871E7
:1017100004E00020AE49C871AC49C8710221AF484D
:1017200008F0A9FB70B1AA48007A401CA8490872C9
:101730000846007A01280ADB002008720120A3492C
:10174000087204E00020A2490872A04908724FF410
:101750000061A04808F08FFB70B19D48407A401CA2
:101760009B4948720846407A01280ADB00204872EB
:1017700001209649487204E0002095494872934937
:1017800048724FF40051934808F075FB70B19048CF
:10179000807A401C8E4988720846807A01280ADBCC
:1017A0000020887201208949887204E0002088495D
:1017B0008872864988724FF40041864808F05BFBC6
:1017C00070B18348C07A401C8149C8720846C07A0B
:1017D00001280ADB0020C87201207C49C87204E09D
:1017E00000207B49C8727949C87202217C4808F000
:1017F00042FB70B17648007B401C7549087308466F
:10180000007B01280ADB0020087301206F49087360
:1018100004E000206E4908736C4908734FF480712E
:10182000704808F028FB70B16948407B401C68494B
:1018300048730846407B01280ADB002048730120DA
:101840006249487304E00020614948735F49487366
:101850004FF48061634808F00EFB70B15C48807BF8
:10186000401C5B4988730846807B01280ADB002006
:10187000887301205549887304E000205449887317
:10188000524988734FF48051564808F0F4FA70B109
:101890004F48C07B401C4E49C8730846C07B012896
:1018A0000ADB0020C87301204849C87304E0002007
:1018B0004749C8734549C87310BD444800784A4930
:1018C00008704248407848704048807888703F48A7
:1018D000C078C8703D48007908713C48407948712B
:1018E0003A48807988713948C079C8713748007A98
:1018F00008723648407A48723448807A8872334891
:10190000C07AC8723148007B08733048407B487306
:101910002E48807B88732D48C07BC873704710B5F4
:101920003248007800B110BD2F48007820B108215E
:101930002C4808F0BAFA03E008212A4808F0B7FA60
:101940002948407820B10421264808F0AEFA03E087
:101950000421244808F0ABFA2348807828B14FF4DA
:1019600000511D4808F0A1FA04E04FF400511A4854
:1019700008F09DFA1C48C07820B10221154808F0F3
:1019800094FA03E00221134808F091FA164800790E
:1019900020B108210F4808F088FA03E008210D481B
:1019A00008F085FA1048407920B12021094808F054
:1019B0007CFA03E02021074808F079FA0A48807988
:1019C000B0B18021034808F070FA15E083090020C7
:1019D00051090020001C014000100140000C014092
:1019E0000020014000180140B509002087070020B1
:1019F0008021FC4808F05BFAFB48C07928B14FF41D
:101A00000071F84808F051FA04E04FF40071F5480D
:101A100008F04DFAF448007A20B10121F34808F0AB
:101A200044FA03E00121F14808F041FAEE48407A17
:101A300028B14FF48051EB4808F037FA04E04FF436
:101A40008051E84808F033FAE748807A28B14FF42B
:101A50008041E44808F029FA04E04FF48041E1486D
:101A600008F025FAE048C07A20B10121E04808F0EA
:101A70001CFA03E00121DE4808F019FADA48007B7D
:101A800020B18021DB4808F010FA03E08021D9481A
:101A900008F00DFAD448407B28B14FF40071D548C6
:101AA00008F003FA04E04FF40071D24808F0FFF99F
:101AB000CD48807B28B14FF40061CE4808F0F5F99D
:101AC00004E04FF40061CB4808F0F1F9C648C07B50
:101AD00028B14FF40051C74808F0E7F904E04FF48B
:101AE0000051C44808F0E3F900BF1CE708B5012124
:101AF0004FF4EC7008F0E8FB0121082008F0E4FB4B
:101B00004FF42040ADF8000010208DF803000320B2
:101B10008DF802006946B54808F01AF94FF40060E4
:101B2000ADF8000010208DF8030003208DF80200AE
:101B30006946B14808F00CF94FF4A040ADF8000038
:101B400004208DF8030003208DF802006946A748A1
:101B500008F0FEF84FF48070ADF8000004208DF816
:101B6000030003208DF802006946A34808F0F0F84E
:101B700008BD1CB54FF48070009000208DF8040063
:101B80000C208DF8050001208DF80600684607F04E
:101B900021FD0821032008F0F1F91CBD002105E01A
:101BA000002200E0521C0A2AFCD3491C8142F7D3D0
:101BB000704770B504462546002624E04FF40051D6
:101BC0008A4808F074F90A20FFF7E8FF05F0800062
:101BD000802804D10102854808F067F904E04FF439
:101BE0000041824808F063F90A20FFF7D7FF4FF45D
:101BF00000517E4808F059F90A20FFF7CFFF680628
:101C0000050E701CC6B2082ED8DB4FF40051774881
:101C100008F04DF970BD70B5002400251BE04FF4AD
:101C20000051724808F043F90320FFF7B7FF4FF463
:101C300000516E4808F039F90320FFF7AFFF600646
:101C4000040E4FF48041694808F015F908B144F0DA
:101C50000104681CC5B2082DE1DB4FF40051634854
:101C600008F025F9204670BD70B50446002520E037
:101C70004FF400515D4808F01AF90A20FFF78EFF73
:101C800004F0004028B14FF40041584808F00DF925
:101C900004E04FF40041554808F009F94FF40051B1
:101CA000524808F002F90A20FFF778FF6400681C28
:101CB000C5B2202DDCDB70BD70B5002400251AE014
:101CC0004FF40051494808F0F2F80A20FFF766FF88
:101CD0004FF40051454808F0E8F80A20FFF75EFF8E
:101CE00064004FF48041414808F0C5F808B144F061
:101CF0000104681CC5B2202DE2DB204670BD70B522
:101D000005460C462846FFF754FF2046FFF7ACFF78
:101D100070BD70B504462046FFF74BFFFFF7CCFFC0
:101D200005464FF40041314808F0C1F84FF4005126
:101D30002E4808F0BCF80A20FFF730FF284670BD97
:101D40002DE9F84307460C4615469846DDF82090E5
:101D500000208DF803009DF803003844C0B28DF8D0
:101D600003009DF80300C006000E8DF803009DF8E7
:101D7000030040EA64008DF8030004F001008DF8D0
:101D800002009DF80200C007000E8DF8020000203E
:101D90008DF801009DF801004044C0B28DF80100AB
:101DA0009DF80100C006000E8DF801009DF80100AD
:101DB00040EA69008DF8010009F001008DF800008B
:101DC0009DF80000C007000E8DF800002E46300779
:101DD000060E46F0050630460099FFF790FFBDE875
:101DE000F8830000001C0140B5090020000C0140F0
:101DF00000200140001801400014014038B54FF4A4
:101E00000041F84808F053F84FF40051F54808F045
:101E10004EF84FF40061F44808F049F84FF47A7036
:101E2000FFF7BCFE002404E0FF20FFF7C2FE601CA9
:101E3000C4B20F2CF8DBFE20FFF7BBFE0A20FFF731
:101E4000ADFE4FF000510320FFF759FF00250B2096
:101E5000FFF75FFF054605F0805018B30920FFF734
:101E600058FF05460A20FFF754FF05460B20FFF7F1
:101E700050FF05460C200623002202210090184640
:101E8000FFF75EFF0D20FFF744FF0546C020FFF778
:101E900090FEFFF76EFE4FF40051D24808F007F8AD
:101EA000012038BD0020FCE7704770B50446254688
:101EB0002807050E45F00D052846FFF72AFF0646C0
:101EC00070BD10B54FF40041C64807F0EEFFFF208B
:101ED000FFF76FFE10BD10B5C020FFF76AFE10BD02
:101EE00038B54FF40041BF4807F0E1FF4FF400510F
:101EF000BC4807F0DCFFFFF78EFE0546FFF78BFEC0
:101F00008DF80200FFF787FE8DF80100FFF783FED2
:101F10008DF80000FFF77FFE8DF803000098C010D9
:101F200000900421684603F093F80446EF21AF487F
:101F300009F078FA00BF8021AC4809F0E1FA0028E6
:101F4000F9D09DF80310A94809F06CFA00BF802170
:101F5000A64809F0D5FA0028F9D09DF80210A34848
:101F600009F060FA00BF8021A04809F0C9FA0028F2
:101F7000F9D09DF801109D4809F054FA00BF802166
:101F80009A4809F0BDFA0028F9D09DF8001097484A
:101F900009F048FA00BF8021944809F0B1FA0028FE
:101FA000F9D0C4F30F21914809F03CFA00BF802119
:101FB0008E4809F0A5FA0028F9D0E1B28B4809F063
:101FC00031FA00BF8021894809F09AFA0028F9D037
:101FD0000021864809F026FA00BF8021834809F0D5
:101FE0008FFA0028F9D0009838BD2DE9F0418048DB
:101FF0000078012804D002280CD003282DD10FE04E
:102000007C4A00217C48FEF7EDFA7C4800687C4958
:10201000086023E0774A00217A48FEF7E3FA1DE0E2
:10202000744A00217848FEF7DDFA74490968744A59
:102030001268881A09F085FE804609F0D0FE06462F
:102040000022724B09F005FE044609F00BFF7049AF
:10205000086003206649087000E000BF00BFBDE8CB
:10206000F08170B50024002901DA4942012400F111
:10207000110300265D1E2B462E7000BF0A2591FB22
:10208000F5F605FB161505F13002392A00D9D21DE7
:102090005D1E2B462A700A2591FBF5F5291EEDD110
:1020A00014B1162500F8015B002204E013F8015B6F
:1020B00000F8015B521C102AF8D370BD2DE9F047DF
:1020C0009CB00746BA4653A1504609F087FB18B1A9
:1020D00000201CB0BDE8F087BA460024504609F045
:1020E000A5FB814600261FE10422514601A809F004
:1020F00087FB00208DF808000AF1040A0DF10600A4
:1021000009F0B9FBC5B29DF80400572866D00CDC75
:1021100052283FD004DC432861D0502860D1EAE047
:1021200053285ED05428F9D17DE0722847D004DCD2
:10213000582807D06328F1D1AEE0742872D07828EF
:10214000ECD118E09DF805002D2808D13348405DFA
:1021500008B1012000E0002003A9085508E09DF81F
:1021600004109DF805002A46FEF735FD03A9085521
:10217000601CC4B2CDE09DF805002D2807D127488A
:10218000405D08B9012000E0002003A90855601C4B
:10219000C4B2BEE09DF805002D2804D12048405D62
:1021A00003A9085508E09DF804109DF805002A468B
:1021B000FEF711FD03A90855601CC4B2A9E09DF803
:1021C00005002D2807D11648405D08B9012000E020
:1021D000002003A90855601CC4B29AE06BE046E0F9
:1021E00096E07DE0000C01400014014000440040F6
:1021F000780000209A000020330000200400002016
:10220000700000203A0000204100002000408F4074
:1022100074000020502D303200000000830900209F
:10222000E709002014E09DF805002D2804D1F948A5
:10223000405D03A9085508E09DF804109DF80500CD
:102240002A46FEF7C8FC03A90855601CC4B260E02A
:102250009DF805002D2807D1EE48405D08B9012002
:1022600000E0002003A90855601CC4B251E09DF8AD
:1022700005002D2804D1E848405D03A9085508E071
:102280009DF804109DF805002A46FEF7A4FC03A95A
:102290000855601CC4B23CE09DF805002D2807D10C
:1022A000DD48405D08B9012000E0002003A9085581
:1022B000601CC4B22DE09DF805002D2804D1D7483C
:1022C000405D03A9085508E09DF804109DF805003D
:1022D0002A46FEF780FC03A90855601CC4B218E02A
:1022E0009DF805002D2803D1CD48405D03A9085570
:1022F000601CC4B20DE0012D02D1012003A90855D4
:10230000022D02D1002003A90855601CC4B200E0D0
:1023100000BF00BF002C05DD601E03A9085C08B9E2
:102320000020D6E6301DC6B24E45FFF6DDAE4FF0BA
:10233000010800260BE0B8F1000F04D003A8805D6F
:1023400008B1012000E000208046701CC6B2A64201
:10235000F1DB4046BDE62DE9FE4F804600200090AF
:1023600001900290AF490870AFA1404609F036FADB
:10237000044608340AE02078AA4A12780DF80200D0
:10238000A8480078401CA7490870641C20784028A1
:10239000F1D1684609F06FFAA6490870C1460026D7
:1023A0003CE000200090019002904C46A2A1204603
:1023B00009F014FA0446A41C14F8010B8DF800006F
:1023C00014F8010B8DF80100684609F054FAC5B203
:1023D0000020009001900290924908700AE014F8E1
:1023E000010B904A12780DF802008E480078401CCC
:1023F0008C49087020782C28F1D1684609F03BFA06
:102400000746601C044690F800A08C4840F82570F0
:102410008B4800F805A0A146701CC6B2854800781C
:102420008642BEDBBDE8FE8F2DE9FE4F80460020D0
:102430000090019002908349087083A1404609F002
:10244000CDF9044608340AE020787E4A12780DF867
:1024500002007C480078401C7A490870641C20788F
:102460004028F1D1684609F006FA7A490870C14659
:1024700000263CE000200090019002904C4676A19E
:10248000204609F0ABF90446A41C14F8010B8DF8A2
:10249000000014F8010B8DF80100684609F0EBF913
:1024A000C5B20020009001900290664908700AE0D1
:1024B00014F8010B634A12780DF8020061480078A5
:1024C000401C6049087020782C28F1D1684609F03A
:1024D000D2F90746601C044690F800A05F4840F817
:1024E00025705F4800F805A0A146701CC6B2594887
:1024F00000788642BEDBBDE8FE8F2DE9F04FB3B019
:10250000824655464FF0000B34E02B21284609F057
:1025100083F9064600272C46A84619E020787B2838
:1025200013D020787D2810D0207826280DD0207850
:102530002A280AD02078282807D014F8012B3846FA
:10254000791CCFB201A90A5400E0641C08F101080B
:10255000B045E3DB00223846791CCFB201A90A540A
:1025600001A8FFF7ABFD8146B9F1000F00D03DE0B7
:1025700035466D1C2B21284609F04EF90028C4D1A0
:102580002921284609F048F9064600272C46A84686
:102590001FE020787B2819D020787D2816D020785D
:1025A000262813D020782A2810D0207828280DD06B
:1025B000207829280AD02078232807D014F8012B66
:1025C0003846791CCFB201A90A5400E0641C08F116
:1025D0000108B045DDDB00223846791CCFB201A9E5
:1025E0000A5401A8FFF76AFD814600BF484633B090
:1025F000BDE8F08FFEB507463C466078542856D0BB
:1026000030DC2F2849D043287DD0442879D0522867
:1026100078D138E0DE0B0020A00D0020CC0E002089
:10262000F80F00205D010020575F546F74616C6CDF
:102630000000000098000020575F0000040E0020FA
:10264000FE0E00205E010020535F546F74616C6CBD
:102650000000000099000020535F0000300F0020B0
:102660002A100020592804D0742875D07828CFD19A
:10267000A9E06078F7490870A078F7490870E07819
:10268000F6490870FEBD6078F2490870A078F249FA
:102690000870E078F1490870F4E76078ED49087057
:1026A000E078ED4908702079EC490870EAE7607835
:1026B000E8490870A078E8490870E078E7490870B0
:1026C000084600783038E4490978303901EB810157
:1026D00000EB4100C5B23F21384609F09DF80446A1
:1026E00060788DF80000E0788DF8010000208DF80A
:1026F0000200684609F0BFF8D94941F82500C1E752
:1027000001E02AE063E06078D2490870A078D249FD
:102710000870E078D1490870084600783038CE4912
:102720000978303901EB810100EB4100C5B23F214E
:10273000384609F071F8044660788DF80000A078FA
:102740008DF8010000208DF80200684609F093F82A
:10275000C44941F8250095E731E06078BD4908702B
:10276000A078BD490870E078BC4908700846007838
:102770003038B9490978303901EB810100EB41006B
:10278000C5B23F21384609F047F8441C002606E050
:1027900014F8012B3046711CCEB2B3490A5420788C
:1027A0002128F5D121223046711CCEB2AE490A54FF
:1027B00000223046711CCEB2AB490A5462E7607801
:1027C000A44908705EE76078A24908705AE700BF24
:1027D00000BF00BF56E72DE9F04FADF6041D98226B
:1027E000A24905A808F0D6FFA1A103C9CDE90301BC
:1027F000AFF2E05103C9CDE90101DFF87C8200248A
:102800000DE02321404609F007F80546A84608F1E7
:1028100001080DF21C7141F82450601CC4B29748A5
:1028200000788442EDDDDFF8508200240DE02121A4
:10283000404608F0F1FF0546A84608F101080DF2F0
:102840003C5040F82450601CC4B28C48007884424C
:10285000EDDDDFF8248200240CE02521404608F05D
:10286000DBFF0546A84608F10108D7A840F8245028
:10287000601CC4B2814800788442EEDD00240EE082
:102880000DF23C5050F824000DF21C7151F8241048
:10289000401A401C2DA941F82400601CC4B277489E
:1028A00000788442ECDD00246FE12DA850F824204C
:1028B0000DF21C7050F82410B9A808F0A1FF0020F8
:1028C0002DA951F82410B9AA5054D7A951F82400C1
:1028D000FFF790FE2821B9A808F09EFFD8B326E0A4
:1028E0002821B9A808F0B7FF05462921284608F095
:1028F00093FFCDF8FC08DDF8FC08401B00F101094E
:102900004A462946A5A808F07BFF0020A5A901F8A2
:1029100009004A4605A9284608F072FFA5A8FFF756
:10292000ECFD10B10398286001E00198286028218F
:10293000B9A808F071FF0028D2D12521B9A808F064
:102940008AFF824629208AF80000B9A8FFF7D5FD42
:10295000CDF800090DE0FFE72521B9A808F07BFFBD
:10296000824629208AF80000B9A8FFF7C6FDCDF8F5
:1029700000093A480078303837490978303901EB96
:10298000810100EB4100C7B2DDF8000900285FD0EB
:1029900030480078542820D008DC2F2815D0432850
:1029A0000FD044282BD0522853D112E0592804D0FC
:1029B000742816D07828F7D11AE001203049C8557C
:1029C000C4E03846FEF751FAC0E03846FEF742FA56
:1029D000BCE001202B49C855B8E03846FEF71AFA8A
:1029E000B4E0012028490870002028490870ADE0B3
:1029F000002025490870012024490870A6E01A48E3
:102A00000078533808287DD2DFE800F00459609C34
:102A1000689C9C671EA1144808F0E0FE48B11E485F
:102A200000685A2804DA1C480068401C1A490860EB
:102A300089E01AA10C4808F0D1FE98B31648006846
:102A4000002804DD14480068401E134908607AE03D
:102A50007DE07AE0B8000020B9000020BA00002034
:102A6000E40A0020D80C00204039002078DA000861
:102A7000502D30310000000038190020BB0000202C
:102A8000B5090020E7090020AD000020AE000020BD
:102A9000533D706C7573000094000020533D6465D5
:102AA00063000000FFE7FE48C1788078303800EB13
:102AB000800001EB40003038FA49086043E0012013
:102AC000F94908700020F94908703CE00020F649F7
:102AD00008700120F549087035E034E0F04E2AE036
:102AE0005721304608F098FE064670788DF8AC0005
:102AF000B0788DF8AD0000208DF8AE002BA808F05E
:102B0000BAFE00E01EE000F0FF0B30798DF8AC005B
:102B100070798DF8AD00B0798DF8AE00F0798DF850
:102B2000AF0000208DF8B0002BA808F0A4FEE0490B
:102B300041F82B00761C5721304608F06DFE002826
:102B4000CED100E000BF00BF00E000BF1BE0D948CD
:102B50000078432809D052280BD054280DD059288A
:102B60000FD10020D449C8550CE03846FEF779F95A
:102B700008E00020D149C85504E03846FEF741F985
:102B800000E000BF00BF601CC4B2CD4800788442A2
:102B90007FF78BAE0DF6041DBDE8F08FC94A0A40E1
:102BA0000243C94B1A60704700B50020C74908614D
:102BB000C8601420486100208861C8610846006828
:102BC00040F00100086008464068C1490840BF491C
:102BD000486008460068BF490840BC49086008468C
:102BE000006820F4802008600846406820F4FE0059
:102BF00048600020886000214FF00060FFF7CEFFA2
:102C000000BD30B504460025FFF7CEFFAF48006891
:102C100040F48030AD49086000BFAC480068400C0B
:102C20000028FAD04FF48060A8494860A01EC4B2C2
:102C30000846406840EA844048600846406840F4DE
:102C400080304860A448006840F03200A249086023
:102C50009E48006840F080709C49086000BF9B4817
:102C60000068400E0028FAD09848406840F0020002
:102C70009649486005E095484068C0F3870505F02F
:102C80000305022DF7D130BD70B5034600224FF089
:102C9000E0267569914E367803FB06F400BF4FF0CD
:102CA000E026B16910E04FF0E026B06988420BD011
:102CB000884202D20E1A324402E02E1A0E443244E6
:102CC0000146A24200D300E0EDE700BF70BD84489A
:102CD000814948608348486070477F48006940F0F8
:102CE00080007D49086170477B48C16801F00100A0
:102CF00008B10120704701F0040008B10220F9E793
:102D000001F0100008B10320F4E70020F2E730B52D
:102D1000044600BFFFF7E8FF0546012D00D006E09E
:102D20000120FFF7B1FF601E84B2002CF2D100BF7A
:102D300004B9FF25284630BD30B50546002445F6C8
:102D4000FF70FFF7E4FF0446C4B96348006940F030
:102D500002006149086108464561006940F0400091
:102D6000086145F6FF70FFF7D2FF0446012C05D03D
:102D70005948006920F0020057490861204630BDDB
:102D800070B505460E46FF20FFF7C1FF044694B913
:102D90005148006940F001004F4908612E80FF2032
:102DA000FFF7B5FF0446012C05D04B48006920F021
:102DB000010049490861204670BD014608887047F6
:102DC000F0B505460E461746002407E036F8141005
:102DD0002846FFF7D5FFAD1C601C84B2BC42F5DB72
:102DE000F0BD30B503460C461546002207E01846F4
:102DF000FFF7E3FF24F812009B1C501C82B2AA428A
:102E0000F5DB30BD2DE9F04F80468A461746B8F114
:102E1000006F02D33448804501D3BDE8F08FFFF73F
:102E200056FFA8F1006B4FEADB25CBF34909C9F542
:102E30008064A74200DC3C4676E04FF0006101EB85
:102E4000C5204A142949FFF7CCFF00260BE009EB07
:102E50000600264931F810004FF6FF71884200D075
:102E600003E0701C86B2A642F1DB00BFA64244DA42
:102E70004FF0006101EBC520FFF75EFF002608E080
:102E80003AF8160006EB0901184A22F81100701CE6
:102E900086B2A642F4DB4FF0006101EBC52027E0CB
:102EA0004039002094000020AD000020AE0000203A
:102EB000040E0020B8000020B5090020E70900201A
:102EC000BB00002080FFFF1F08ED00E00010024063
:102ED0000000FFF8FFFFF6FE00200240BD000020CA
:102EE00023016745AB89EFCD000008085C3900205D
:102EF0004A14FB49FFF764FF04E02246514640466E
:102F0000FFF75EFFA74200D10FE06D1C4FF00009F4
:102F10000AEB440AA044381B87B2B7F5806F02DD84
:102F20004FF4806400E03C4687E700BFFFF7D5FE22
:102F300000BF72E713B50446012201A92046FFF73E
:102F400061FF1CBDE749097901B97047002000E025
:102F5000401CE5498842FBDBE249097901B9F4E705
:102F60004FF41651E14A11600121E14A11601E211E
:102F7000E04A11604FF47A71DF4A11603221DF4A72
:102F800011602821DE4A11600021DE4A116005210E
:102F9000DD4A11600A21DD4A11602821DC4A1160F6
:102FA0001421DC4A11606421DB4A1160DB4A1160A4
:102FB0000021DB4A1160DB4A11606421DA4A1160AA
:102FC0000F21DA4A11600021D94A11604FF41671BD
:102FD000D84A11604FF4C871D74A11600A21D74A04
:102FE00011600321D64A11604FF4FA71D54A11607D
:102FF0000721D54A116040F6C411D44A11600A2154
:10300000D34A116041F2BA31D24A116041F25631CD
:10301000D14A116041F28831D04A1160C821D04AAA
:1030200011601421CF4A11600021CF4A116040F68F
:10303000B831CE4A11600021CD4A1160CD4A1160ED
:10304000CD4A1160CD4A1160CD4A11601621CD4A9A
:103050001160CD4A1160CD4A1160CD4A1160CD4A50
:1030600011600221CC4A1160CC4A1160CC4A116037
:10307000CC4A1160CC4A11600021CC4A1160CC4A84
:10308000117000BF61E710B5CA48007800B910BDE3
:10309000C6480068072802D0082812D108E000209E
:1030A000C5490870C54A0021C548FDF79BFA09E0EB
:1030B0000020C1490870C14A0021C248FDF792FAB8
:1030C00000E000BF00BF00BFE1E72DE9FE43BE48BE
:1030D000006808B9BDE8FE83BC480078162805D111
:1030E000BA48401C08F0A2FBC7B203E0B74808F09A
:1030F0009DFBC7B2B4480068A0EB0708B8F1000F09
:1031000000DAE7E708F10108B0480078162824D172
:10311000AE4C641C6E4600BF207806F8010B601CA4
:10312000044600780028F7D1A84C641C002504E070
:10313000302004F8010B681CC5B24545F8DB6E462B
:10314000002505E016F8010B04F8010B681CC5B258
:10315000BD42F7DB0020207021E09C4C6E4600BF92
:10316000207806F8010B601C044600780028F7D18F
:10317000964C002504E0302004F8010B681CC5B211
:103180004545F8DB6E46002505E016F8010B04F80E
:10319000010B681CC5B2BD42F7DB0020207000BFE8
:1031A00098E710B58A48007888B98248007870B9E5
:1031B0007F48007858B900207F490870FFF785FFE5
:1031C000814801787D4A8148FDF70CFA02E0814888
:1031D0008149086010BD10B580480068002825DAD4
:1031E0007F48407800F0080018B1022073498870C9
:1031F00002E00020714988706148006818B102201F
:103200006E49C87002E000206C49C870744840786C
:1032100000F0400018B102206849487002E0002028
:103220006649487000206549887111E04C48006883
:1032300008F07EFD04466B480168204608F038FE21
:1032400003D801205D49887102E000205B49887144
:1032500010BD2DE9FE4F81468A466348007820B1B3
:10326000002061490870BDE8FE8F5A4808305F4968
:103270000978441A6E4600270DE02078302807DBD5
:103280002078392804DC14F8010B06F8010B00E063
:10329000641C781CC7B2554800788742EDDB0020DB
:1032A0003070684608F0E7FA804645465048007896
:1032B00040B1284608F03CFD4E49086000204C49CA
:1032C0000870D0E7280A4C4908704D704B48C0F888
:1032D000009009204A49086002F057FA00BFC2E78F
:1032E0005C3900208309002040420F006406002062
:1032F000680600206C06002070060020740600207E
:10330000780600207C06002080060020840600202D
:10331000880600208C0600209006002094060020DD
:10332000980600209C060020A0060020A40600208D
:10333000A8060020AC060020B0060020B40600203D
:10334000B8060020BC060020C0060020C4060020ED
:10335000C8060020D0060020D4060020CC0600209D
:10336000D8060020DC060020E0060020E40600204D
:10337000E8060020EC060020F0060020F4060020FD
:10338000F80600202C07002030070020340700201A
:10339000380700203C070020400700204407002099
:1033A000480700204C070020500700203001002073
:1033B000150100201601002069000020A047002010
:1033C000330000203A00002010070020E400002015
:1033D00017010020480900206C000020D0070020C1
:1033E0009C070020CC000020570100206A0000202C
:1033F0001401002074000020A94700208C07002041
:1034000098070020FEB504460E4615461A208DF892
:1034100000002146F848FEF724FEF74800788DF8B2
:103420000100F54840788DF8020000208DF8030077
:103430003146F148FEF715FEEF496846FDF768F89A
:10344000EE480570EE4805700120EE490870EE4820
:10345000EE490860FEBD00B585B0EDA0006804909F
:10346000ECA000680390ECA000680290EBA000685C
:103470000190EBA000680090EA4800681A2872D01A
:1034800010DC1A2870D2DFE800F06F3E4A5C7083CF
:1034900096ABBDCFF1EFEEEDECEBEAE9E8E7E6E560
:1034A000E4E3E2E1272872D011DCA0F11B000C2834
:1034B000E8D2DFE810F067027C028E02A002E80288
:1034C000FA020C031E0330034203540366032E2842
:1034D00070D00BDCA0F128000628D3D2DFE810F072
:1034E0007E038F03A103B3031A042C04312874D084
:1034F00004DC2F2872D0302836D1B6E332286ED0C3
:10350000C828F9D1B2E340F2E250C749086004226A
:10351000C6480168C3480068FFF774FF01E2C2486B
:103520000068401CC04908600421BF480068FFF7DC
:1035300090FE0222BE480168BA480068FFF762FFA9
:10354000ECE7B9480068401CB74908600221B6485A
:103550000068FFF77EFE0222B6480168B1480068A5
:10356000FFF750FFDAE7FBE1F8E3AF480068401CE3
:10357000AD4908600221AC480068FFF76AFE0422EA
:10358000AD480168A7480068FFF73CFFC6E714E3B1
:10359000A5480068401CA44908600421A2480068AE
:1035A000FFF757FE0222A54801689E480068FFF712
:1035B00029FFB3E7D3E39C480068401C9A490860A0
:1035C000022199480068FFF744FE02229C480168E6
:1035D00094480068FFF716FFA0E7F6E3D1E3F5E3B0
:1035E00091480068401C9049086002218E4800689C
:1035F000FFF72FFE0222934801688A480068FFF710
:1036000001FFFDE388480068401C874908600221EB
:1036100085480068FFF71DFE02228B48016881483B
:103620000068FFF7EFFEEBE37F480068401C7E492F
:10363000086002217C480068FFF70BFE02228348E5
:10364000016878480068FFF7DDFED9E36AE14BE1E5
:1036500038E125E112E1BDE0AAE097E084E071E005
:103660005EE04BE038E025E012E0FFE76E480068DE
:10367000401C6D49086002216B480068FFF7E9FDB6
:1036800002227348016867480068FFF7BBFEB7E392
:1036900065480068401C644908600221624800686F
:1036A000FFF7D7FD02226B4801685E480068FFF70C
:1036B000A9FEA5E35C480068401C5B490860022144
:1036C00059480068FFF7C5FD042263480168554862
:1036D0000068FFF797FE93E353480068401C524987
:1036E0000860042150480068FFF7B3FD04225B48DE
:1036F00001684C480068FFF785FE81E34A4800688E
:10370000401C49490860042147480068FFF7A1FDB3
:1037100002225348016843480068FFF773FE6FE3D5
:1037200041480068401C4049086002213E4800684A
:10373000FFF78FFD04224B4801683A480068FFF705
:1037400061FE5DE338480068401C37490860042189
:1037500035480068FFF77DFD042243480168314881
:103760000068FFF74FFE4BE32F480068401C2E49CE
:10377000086004212C480068FFF76BFD02223B48DB
:10378000016828480068FFF73DFE39E326480068D5
:10379000401C25490860022123480068FFF759FDB5
:1037A0000222334801681F480068FFF72BFE27E319
:1037B0001D480068401C1C49086002211A48006826
:1037C000FFF747FD05222B48016816480068FFF700
:1037D00019FE15E314480068401C134908600521D0
:1037E00011480068FFF735FD0522234801680D48A0
:1037F0000068FFF707FE03E3E40000206B000020F1
:103800006A00002069000020480900206C000020A8
:103810001A3032001A3033001A3034000E150D0001
:103820000E1F1F0030010020380100206406002018
:10383000680600206C060020700600207406002038
:10384000780600207C0600208006002084060020E8
:10385000880600208C060020900600209406002098
:10386000980600209C060020A0060020A406002048
:10387000A8060020AC060020B0060020FC48006826
:10388000401CFB4908600521F9480068FFF7E1FC8E
:103890000522F8480168F8480068FFF7B3FDAFE279
:1038A000F3480068401CF24908600521F0480068B0
:1038B000FFF7CFFC0522F1480168EF480068FFF7E9
:1038C000A1FD9DE2EA480068401CE9490860052125
:1038D000E7480068FFF7BDFC0522E9480168E648B3
:1038E0000068FFF78FFD8BE2E1480068401CE0496B
:1038F00008600521DE480068FFF7ABFCE14800786E
:1039000040B1E14A00216846FCF76CFE1E20DF4909
:10391000086006E00522DE480168D7480068FFF726
:1039200071FD6DE2D2480068401CD1490860052154
:10393000CF480068FFF78DFCD648007840B1D24AE6
:1039400000216846FCF74EFE1E20D049086006E0C4
:103950000522D1480168C8480068FFF753FD4FE2CF
:10396000C3480068401CC24908600521C04800687F
:10397000FFF76FFC0522C9480168BF480068FFF7E0
:1039800041FD3DE2C648007848B9B9480068401C8E
:10399000B74908600521B6480068FFF75AFC0522C0
:1039A000C0480168B4480068FFF72CFD28E2B04821
:1039B0000068401CAE4908600521AD480068FFF76B
:1039C00048FC0522B8480168AB480068FFF71AFDBB
:1039D00016E2A7480068401CA54908600521A448D4
:1039E0000068FFF736FC0522B0480168A24800686D
:1039F000FFF708FD04E29E480068401C9C490860EF
:103A000005219B480068FFF724FCA948007840B1D5
:103A10009D4A00216846FCF7E5FD1E209B49086091
:103A200030E09F48007830B3934800681E2822D1C8
:103A300000209B4908709F4908709F4908709D4964
:103A400008709E4908709E489E4908609E4A002161
:103A50009E48FCF7C7FD0020874908609C49087014
:103A60009C4803F01BFC01209B49087000208C49F6
:103A7000087005B000BD0522984801687E480068BE
:103A8000FFF7C0FCBCE17A480068401C7849086038
:103A9000052177480068FFF7DCFB052290480168A4
:103AA00075480068FFF7AEFCAAE171480068401C49
:103AB0006F49086005216E480068FFF7CAFB0522C0
:103AC000884801686C480068FFF79CFC98E16848EA
:103AD0000068401C66490860052165480068FFF7DA
:103AE000B8FB05228048016863480068FFF78AFC3C
:103AF00086E15F480068401C5D49086005215C481C
:103B00000068FFF7A6FB0522784801685A4800685C
:103B1000FFF778FC74E156480068401C544908607F
:103B2000052153480068FFF794FB022270480168A2
:103B300051480068FFF766FC62E14D480068401C90
:103B40004B49086002214A480068FFF782FB0122C6
:103B50006848016848480068FFF754FC50E1444851
:103B60000068401C42490860012141480068FFF795
:103B700070FB0122604801683F480068FFF742FC83
:103B80003EE13B480068401C394908600121384843
:103B90000068FFF75EFB012258480168364800685C
:103BA000FFF730FC5548006818B102204649C8703C
:103BB00002E000204449C87022E14FF4C1602C4962
:103BC000086004212A480068FFF743FB02224C48A2
:103BD000016829480068FFF715FC11E140F20E600A
:103BE00023490860022122480068FFF732FB0222C5
:103BF0004448016820480068FFF704FC00E11C48C5
:103C00000068401C1A490860022119480068FFF743
:103C100020FB02223C48016817480068FFF7F2FBCE
:103C2000EEE013480068401C11490860022110486A
:103C30000068FFF70EFB0222344801680E48006856
:103C4000FFF7E0FBDCE00A480068401C0849086018
:103C5000022107480068FFF7FCFA02222C4801689D
:103C600005480068FFF7CEFBCAE09CE0C6E0000014
:103C700038010020B406002030010020B8060020E2
:103C8000BC060020780700209A000020D000002009
:103C9000C006002079070020C4060020C8060020C6
:103CA0001B010020D0060020D4060020CC060020F6
:103CB0007A0700206A0000206B00002069000020C5
:103CC000480900206C000020A04700204E01002081
:103CD00015010020A086010011010020D806002057
:103CE000DC060020E0060020E4060020E8060020B4
:103CF000EC060020F0060020F4060020F806002064
:103D00002C0700203007002034070020380700204F
:103D10003C070020FE480068401CFD490860012166
:103D2000FB480068FFF795FA0122FA480168FA4853
:103D30000068FFF767FB63E0F5480068401CF44942
:103D400008600121F2480068FFF783FA0122F34876
:103D50000168F1480068FFF755FB51E04FE0EC487F
:103D60000068401CEA4908600121E9480068FFF743
:103D700070FA0122EA480168E7480068FFF742FB51
:103D80003EE0E3480068401CE14908600121E0484A
:103D90000068FFF75EFA0122E2480168DE48006829
:103DA000FFF730FB2CE0DA480068401CD849086077
:103DB0000121D7480068FFF74CFA0122DA48016870
:103DC000D5480068FFF71EFB1AE000E015E0D04878
:103DD0000068401CCE4908600221CD480068FFF70A
:103DE00038FA0020D1490870D14A002101A8FCF717
:103DF000F9FB0020C849086002E001E000E000BFD4
:103E000000BF00BF35E6FEB504460E4615460C2041
:103E10008DF800002146C748FEF723F9C548007811
:103E20008DF80100C34840788DF8020000208DF81D
:103E300003003146BF48FEF714F9BE496846FCF757
:103E400067FBBD480570BD4805700120B749087083
:103E5000BB48BC490860FEBD10B5AF4800680128EA
:103E600004D002280AD0032825D10FE00522B64845
:103E70000168A9480068FFF7C6FF1DE00522B348A6
:103E80000168A5480068FFF7BEFF15E00120B049B2
:103E90000870B049087040F2FC509D4908601B2032
:103EA0009D4908600120AC4908700020AB490870AA
:103EB000FFF7D1FA00E000BF00BF10BDFEB5044619
:103EC0000E46154600208DF801008DF80040314661
:103ED0009848FEF7C6F897496846FCF719FB9648DC
:103EE00005709648057001209049087094489549DE
:103EF0000860FEBD70B58EB099A000680D9099A0C5
:103F000000680C9098A000680B9098A000680A9038
:103F100097A00068099097A103C9CDE9070197A070
:103F20000068069096A103C9CDE90401AFF21070B4
:103F30000068039094A103C9CDE9010176480068A7
:103F40000C2874D2DFE800F073060D1D2D3D4D6185
:103F50007484A7E201228E4801681A20FFF7AEFFA1
:103F600083E140F219606A490860012168480068ED
:103F7000FFF76FF90222874801680D20FFF79EFFC7
:103F800073E140F2096062490860022160480068FC
:103F9000FFF75FF90522804801680F20FFF78EFFC9
:103FA00063E14FF4C3605A4908600521584800682E
:103FB000FFF74FF90122794801680A20FFF77EFFD9
:103FC00053E140F21A6052490860012150480068EC
:103FD000FFF73FF97248052201680C20FFF76EFFDA
:103FE00043E140F2DF504A49086005214848006833
:103FF000FFF72FF96B48006807F0B9FE0446052269
:1040000021461120FFF75AFF2FE140F20A60404994
:10401000086005213E480068FFF71BF9002043496E
:104020000870434A00216048FCF7DCFA1DE11BE1FF
:104030005E4800685E49086000203C490870012025
:104040005C4908733A4A00215B48FCF7CBFA0CE163
:104050005448006807F08BFE0446052221461120D3
:10406000FFF72CFF5548006807F062FE0646314610
:104070005348006807F096FC04464C4909684C4ACE
:104080001268881A07F05DFE0546214607F08AFC93
:104090004C490860E9E003F097FD4849086040F2A8
:1040A0000C601B490860052119480068FFF7D1F82A
:1040B0004248006807F03CFE06463146404800682A
:1040C00007F070FC044639490968394A1268881AB1
:1040D00007F037FE0546214607F064FC39490860C1
:1040E0000020344908733548006807F021FE044673
:1040F00021463448006807F055FC324908602C48D6
:104100000068314908600422304861E085E0000021
:104110003801002040070020300100204407002023
:10412000480700204C0700205007002069000020AD
:104130009A000020E40000206B0000206A000020AC
:10414000480900206C000020540700205807002078
:1041500015010020110100201B0100201701002083
:104160001A000000300000000D0000003030000098
:104170000F000000303132333400000024250000ED
:104180003531383334000000391B1B0D00000000AE
:1041900010070020140700201807002064070020E3
:1041A000A00700201C07002033000020040000208E
:1041B00070000020B50900203A000020D400002043
:1041C0002807002074000020A4000020901D07088C
:1041D000FEF718FE0422F649F648FEF702FEF648FE
:1041E0000068F64908600422F2480A30FEF70AFE29
:1041F0000422F249EF480A30FEF7F3FDF049EE4899
:10420000006807F09DFB054607F0B1FD0446062255
:1042100021460DA8FFF7F6F827E00120E9490870CC
:104220000121E9480068FFF714F8E549E248006811
:1042300007F0B8FBE049086008460068DF490860FD
:104240000422DC480A30FEF7DDFD0422DB49D948B0
:104250000A30FEF7C6FD0020DC490870DC4A002168
:10426000DC48FCF7BFF900E000BF00BF0EB070BD36
:1042700010B586B0D8A1D1E900028968CDE9042142
:104280000390FCF799FAC8B9D648007810B9D64817
:10429000007898B1D548007880B9D5480078401C9E
:1042A000D349087008460078D2490978884202DD6F
:1042B0000120CF4908700120CC490870FCF77CFA36
:1042C00001282CD1C748007810B9C748007830B30E
:1042D000C948007818BBC6480078C0F10800C74933
:1042E000085C401CC4B2C2480078C0F108000C54FD
:1042F000392C06DD3020BE490978C1F10801BF4ADA
:104300005054392C01DC302C06DA3020B8490978B9
:10431000C1F10801B94A50540120B7490870FCF7AF
:104320004BFA022824D1AF48007808B3B44800788B
:10433000F0B9B4480078D8B9B348007848B1B34868
:1043400000681F2804DAB1480068401CAF490860C3
:1043500005E0AE480068401CAC49086000BFFFF7AC
:104360007AF80120A7490870A549087006B010BD69
:10437000FCF722FA022815D19B48007890B1A0489A
:10438000007878B99F48007860B9A0480068401C60
:104390009E490860FFF7AEFD01209A4908709849D0
:1043A0000870E3E7FCF708FA022815D1984800786E
:1043B00090B19348007878B99248007860B99348F2
:1043C0000068401C91490860FFF746FD01208D49B7
:1043D00008708B490870C9E7FCF7EEF9032843D150
:1043E0008948007800B1C1E78A480078D8BB88487E
:1043F000007858B97C48007840B97A48007828B9E4
:1044000003F09EF90120834908702DE08048007870
:1044100028B97548007810B972480078F8B17B481F
:10442000006801281BDD01207B490870774800687F
:10443000401E7649086064480068801E6249086032
:104440006848007808B1FFF706F86748007808B1B7
:10445000FFF750FD6E48007808B1FFF7FDFC012022
:104460006C49087082E7FFE7FCF7A6F9042807D13A
:104470006A48007808B903F043F9012067490870D9
:10448000FCF79AF905284CD157480078F0BB6048F2
:104490000078D8BB62480078D8B952480078C0B9D3
:1044A00000204A49087059490860092203A9684652
:1044B00007F0A6F94FF47A7002F0F0FE444A0021AA
:1044C0006846FCF78FF80120464908705449087087
:1044D0004CE753480078C8B942480078B0B1002092
:1044E00044490870424908704249087037490870C9
:1044F00042484C4908604C4A00214C48FCF772F88D
:104500000020424908603749087000E009E0484847
:1045100002F0C4FE01204249087000203A490870A8
:1045200024E7FCF749F9062840D12E480078E8BB7B
:1045300037480078D0BB0020344908603D480078F7
:1045400098B92948007880B9002020490870204A8D
:1045500000213948FCF746F800202C49086001206A
:10456000214908703349087000E732480078E8B9FB
:104570001D480078D0B103201D4908701D490870FE
:104580002E492F48FBF7C4FF03201A490870012069
:104590000E49087019482349086000201B4908602B
:1045A00011490870012023490870DFE64AE0000045
:1045B000A4000020901D070874000020A80000201F
:1045C00000401C4614010020380100206900002032
:1045D0009A000020E4000020350E252526262626F8
:1045E0000000000015010020160100200C01002031
:1045F0006B0000206A0000200D0100204809002007
:104600000E010020180100201B01002030010020B5
:10461000170100200F010020570100201001002089
:10462000110100206C000020A04700204E01002056
:10463000A0860100120100201C010020640000205F
:104640004A000020FCF7B8F8072841D1FE4800785E
:10465000E8BBFE480078D0BB0020FD490860FD485B
:10466000007898B9FC48007880B90020FB490870B0
:10467000FB4A0021FB48FBF7B5FF0020F449086026
:104680000120F5490870F34908706FE6F148007899
:10469000E8B9F1480078D0B10320F3490870F34934
:1046A0000870F349F348FBF733FF0320EF49087024
:1046B0000120EA490870F048F04908600020E44908
:1046C0000860E54908700120E24908704EE6FFE7FE
:1046D00000BF4BE610B5FCF76FF810B90120E849B0
:1046E0000870FCF769F8012802D10020E44908703D
:1046F000FCF762F810B10020E2490870FCF75CF8A2
:10470000012802D00020E0490870FCF755F8022883
:1047100003D10020DD49087007E00020DC49087063
:10472000DC4908700A2002F0B9FDFCF745F80328BF
:1047300002D00020D8490870FCF73EF8042802D0C7
:104740000020D6490870FCF737F8052805D000206E
:10475000D34908700A2002F0A1FDFCF72DF80628C5
:1047600002D00020CF490870FCF726F8072802D0B5
:104770000020B849087010BD2DE9F04F85B0CA4837
:10478000006807F0E3FACDE90001C848006807F0C7
:10479000DDFA064632460B460020C54908F08CFA81
:1047A00082468B46C349086807F019FB804652468B
:1047B0005B4607F04EFA0446DDE9002307F049FAAC
:1047C000CDE9020107F04EFB0490B748006807F0FE
:1047D000BDFA04460D46B548006807F0B7FA8246B0
:1047E00052460B460020B24908F066FA80468946D8
:1047F000B049086807F0F3FA42464B46CDE902019A
:1048000007F027FA064622462B4607F0FBFA14D893
:10481000A8490868002107F04BFB0ED840F6B47099
:1048200004F0FAFCA449049807F08AF8054607F05A
:104830009EFA044604F018FD38E09E4908680021FD
:1048400007F02CFB07D240F6B47004F0E5FC012021
:1048500004F00AFD2AE09448006807F077FA8046E1
:1048600089469248006807F071FA02460B46CDE986
:10487000020100208E4908F01FFA04460D468D49BA
:10488000086807F0ACFA064622462B4607F0E1F925
:10489000824642464B4607F0CDFA07D240F6B47046
:1048A00004F0BAFC4FF6FE7004F0DEFC05B0BDE883
:1048B000F08F2DE9F04F87B07B48006807F046FA8B
:1048C00004460D467948006807F040FA8246524691
:1048D0000B460020764908F0EFF9CDE9040175494F
:1048E000086807F07CFA8046DDE9042307F0B1F997
:1048F000064622462B4607F085FA37D86D490868E8
:10490000002107F0D5FA31D8052004F085FC66486F
:10491000006807F01BFA04460D466448006807F07B
:1049200015FA804642460B460020614908F0C4F95A
:10493000CDE900015F49086807F051FA0646DDE954
:10494000002307F086F922462B46CDE9020107F045
:1049500080F90022594BCDE9040107F008F982469D
:1049600007F01EFA069004F07FFC36E05149086813
:10497000002107F093FA06D2052004F04DFC012037
:1049800004F072FC29E04848006807F0DFF982462D
:104990008B464648006807F0D9F902460B46CDE938
:1049A00004010020424908F087F9804689464149C0
:1049B000086807F014FA064642464B4607F049F9E4
:1049C000044652465B4607F035FA06D2052004F04D
:1049D00023FC4FF6FE7004F047FC07B0BDE8F08FF3
:1049E0008AB037A103C9CDE9070137A2D2E9001087
:1049F0009268CDE90502049102F0C0FC02F0DCFCF3
:104A00004FF0FF303349086002F074F800F057FBB4
:104A100000F017FC00F0D3FB00F053FC00F093FC17
:104A200002F038FE02F04AFE00F0E9FC02F040FC21
:104A300000BF00BF4021284805F037FAFDF756F8BF
:104A400000F01EFD4AE000001501002016010020C4
:104A50003001002013010020170100206900002010
:104A60009A000020250100206B0000206A00002031
:104A7000640000204A000020480900206C0000204B
:104A80005C0100200C0100200D01002057010020D6
:104A90000E010020180100200F010020100100204D
:104AA000110100201201002018070020100700202B
:104AB00000002440CC00002000FE7F47C0FFEF40F4
:104AC000656666616263640001000000000000002A
:104AD00000000000D00700200018014000F073FC27
:104AE0000422F949F948FEF77CF9F7480068F849CB
:104AF00008600422F749F5480A30FEF772F9F548D4
:104B00000068F54908600222F449F0481430FEF7C5
:104B100068F90222F249ED481E30FEF762F902F010
:104B2000F0F8FDF76BF97C2005F0A3FA38BBED48EF
:104B3000ED4908F073F8ED4A03C2ED48ED4908F07D
:104B4000A7FDED4A03C2E748EC4908F017FEE74A23
:104B5000C2E90401E648EA4908F010FEE34AC2E966
:104B60000601E348E64908F059F8E04AC2E90201C3
:104B7000DC48E24908F08CFDDF4AC2E9020120214D
:104B8000E04805F094F90221DE4805F090F904F0C0
:104B900072FB04F03BFB0320DB490870DB49087023
:104BA00008700120DA490870DA48DB490860002003
:104BB000D7490870D9480068D94908601DE220210A
:104BC000D84805F074F98021CE4805F070F9D64830
:104BD000007888B34FF0000A10E0D44810F80A10AB
:104BE000D34806F01FFC00BF8021D14806F088FCA6
:104BF0000028F9D00AF1010000F0FF0ABAF10C0F09
:104C0000EBDB4FF0000A10E0CA4810F80A10C84861
:104C100006F008FC00BF8021C54806F071FC0028A2
:104C2000F9D00AF1010000F0FF0ABAF10C0FEBDB3A
:104C30000020BD49087017E0FFE74FF0000A10E0C0
:104C4000BD4810F80A10BD4806F0ECFB00BF8021FB
:104C5000BA4806F055FC0028F9D00AF1010000F02E
:104C6000FF0ABAF10A0FEBDBB5480068032807DA40
:104C7000B4480068B4490860B4480068B4490860A2
:104C8000B4480078002847D1B3480078F0B3B3485F
:104C9000006807F04DF80390B148006807F048F845
:104CA0008346B04906F07EFE0746039906F048FEAB
:104CB000064607F094F804460D46AB48006807F036
:104CC00045F8064632460B460020A84907F0F4FF97
:104CD000CDE90201A648006807F02AF8064607F069
:104CE0007EF8CDE90001DDE9022306F0B2FF80463F
:104CF00022462B4607F086F80ED29E48006874497B
:104D000008609D48407840F0400000E004E09A4987
:104D1000487001208F49087098480078002859D1C0
:104D200097480078002855D196480078002851D13E
:104D300095480068002847D08D480068D0B300210E
:104D40009248006807F0AAF83ED18348007888B3FB
:104D50008D48006806F0ECFF054685480468002C85
:104D600001DB214600E06142084606F0E1FF06460D
:104D7000294607F093F820D28548006810B1012831
:104D800019D106E0C82083490860012080490860E5
:104D900012E08048006860B9764800684C490860B5
:104DA0007548407840F040007349487000207849C9
:104DB000086001E008E000BF0CE0002074490860D2
:104DC000C8207449086005E0002071490860C820C7
:104DD0007049086070480078002854D16548006820
:104DE0006E4908603A48006806F0A2FF83466148B1
:104DF000006806F0A6FF5946039006F09BFD814629
:104E000035480168484606F0CDFD804606F0E7FFCC
:104E100006460022624B06F003FE044606F0C0FF81
:104E2000534908600846006806F082FF0446574868
:104E30000168204606F07EFD5A49086002F0C4FE73
:104E4000594908600846006806F072FF0446554953
:104E50000868214606F0A6FD52490860086806F079
:104E600086FF5149096800FB01F4204606F060FF07
:104E70004C490860086806F07AFF044621464B4812
:104E8000FDF7EFF80BE03B48006806F05AFF0546D7
:104E900006F06DFF044621464448FDF7E2F8344829
:104EA0000068002804DA324800684042304908604F
:104EB0002F4800683E4908603E48006810B1FFF77F
:104EC000F8FC7BE078E00000A4000020901D0708BB
:104ED00070000020A800002074000020540700206B
:104EE00058070020BF6E2D3852C1F03F60410020AE
:104EF0001E264454FB21F93F8044002052C1E03F6C
:104F0000FB21E93F000801406B0000206A000020FF
:104F100069000020480900206C000020EC060020F9
:104F200020080020001001401E0800203B0800203F
:104F3000004400402C080020084C0020004C004099
:104F4000D0070020400700200C0800202C0700207C
:104F500008080020D8000020E007002018070020E3
:104F60006C0600200000C84210070020000024400A
:104F7000C0000020040000209C0700201701002032
:104F8000160100201501002074060020C800002032
:104F9000DC000020E00000205C010020C4000020B4
:104FA0000000E03FCC000020D4000020E4000020FE
:104FB0009000002064070020FFF7DEFB04F03CF8BF
:104FC0001A48006850B91A480078FBF78FFB002098
:104FD000184908701849087018490870FFF77AFBDB
:104FE000FFF746F9FEF7F7F81548006808B9FEF72D
:104FF000D8F8FEF748F8FDF7A5FFE0E500B5042274
:1050000010491148FDF7FEFE04220E490E48FDF737
:10501000E8FE04220D490C480A30FDF7F3FE042295
:105020000A4909480A30FDF7DCFE00BDD000002027
:105030006B00002078070020790700207A07002005
:105040005801002054070020A41D0708580700201D
:1050500070B502460B46FF24FF250AE012F8010B4B
:1050600080EA0401FB48405C80EA0504FA4810F835
:105070002150181EA3F10106B3B2EFD145EA042076
:1050800070BD70B502460B464FF6FF70002413E06A
:105090001178484000250AE000F0010626B14AF2E6
:1050A000010686EA500000E040086E1CF5B2082DAB
:1050B000F2DB661CF4B2521C9C42E9DB70BD00B509
:1050C00085B0012144F2080005F0FEF8012104201A
:1050D00004F00FFF4020ADF8100018208DF81300E9
:1050E00003208DF8120004A9DC4804F031FE802072
:1050F000ADF8100004208DF8130004A9D74804F07F
:1051000027FE4FF4964000900020ADF80400ADF863
:105110000600ADF80800ADF80C000C20ADF80A0050
:105120006946CF4806F085F80121CD4806F00DF913
:10513000012240F22551CA4806F013F905B000BD1E
:1051400000B585B0012144F2040005F0BDF84FF42C
:105150000070ADF8100018208DF8130003208DF8B2
:10516000120004A9BF4804F0F3FD4FF48060ADF8CD
:10517000100004208DF8130004A9BA4804F0E8FDDB
:105180004FF4964000900020ADF80400ADF8060002
:10519000ADF80800ADF80C000C20ADF80A00694627
:1051A000AF4806F046F80121AD4806F0CEF80122DE
:1051B00040F22551AA4806F0D4F805B000BD00B56C
:1051C00085B00121880405F08CF80121082005F044
:1051D0007BF84FF48060ADF8100018208DF81300B4
:1051E00003208DF8120004A99C4804F0B1FD4FF48F
:1051F0000060ADF8100004208DF8130004A9974852
:1052000004F0A6FD4FF4165000900020ADF8040005
:10521000ADF80600ADF80800ADF80C000C20ADF8B4
:105220000A006946904806F004F8012240F2255130
:105230008D4806F096F801218B4806F086F805B0F7
:1052400000BD00B585B00121480405F04AF80121F0
:10525000042005F039F80420ADF8100018208DF86E
:10526000130003208DF8120004A97E4804F070FD9D
:105270000820ADF8100004208DF8130004A9794827
:1052800004F066FD4FF4965000900020ADF8040045
:10529000ADF80600ADF80800ADF80C000C20ADF834
:1052A0000A006946714805F0C4FF012240F2255109
:1052B0006E4806F056F801216C4806F046F805B035
:1052C00000BD00B585B00121C80405F00AF8012130
:1052D000102004F0F9FF4FF48060ADF810001820A2
:1052E0008DF8130003208DF8120004A9604804F023
:1052F0002FFD4FF40060ADF8100004208DF813006E
:1053000004A95B4804F024FD4FF4165000900020DF
:10531000ADF80400ADF80600ADF80800ADF80C00DB
:105320000C20ADF80A006946524805F082FF0122C0
:1053300040F225514F4806F014F801214D4806F07F
:1053400004F805B000BD00B585B00121080504F0E2
:10535000C8FF0121082004F0B7FF4FF48050ADF8DA
:10536000100018208DF8130003208DF8120004A9F6
:105370003F4804F0EDFC0420ADF810008DF8130058
:1053800004A93D4804F0E4FC4FF49640009000204E
:10539000ADF80400ADF80600ADF80800ADF80C005B
:1053A0000C20ADF80A006946344805F042FF01229E
:1053B00040F22551314805F0D4FF01212F4805F076
:1053C000C4FF05B000BD08B5A220ADF80000102054
:1053D0008DF8030003208DF802006946214804F08F
:1053E000B7FC2820ADF8000010208DF80300032042
:1053F0008DF8020069461E4804F0AAFC08BD08B5F5
:1054000000214FF0006003F076FF4FF4E06003F0FE
:105410003BFF26208DF8000000208DF801008DF85C
:10542000020001208DF80300684603F032FF4FF4BC
:10543000E06003F029FF27208DF8000000208DF8A0
:1054400001008DF8020001208DF80300684603F08A
:1054500020FF08BD6201002064020020000C014012
:10546000003801400008014000480040004400406E
:1054700000100140004C004000140140005000406A
:1054800008B54FF4E06003F0FFFE17208DF8000030
:1054900001208DF8010000208DF8020001208DF818
:1054A0000300684603F0F5FE08BD70B504460D46DE
:1054B000E1B2FE4805F0B6FF00BF4021FB4806F010
:1054C0001FF80128F9D1204670BD10B500BF20217A
:1054D000F64806F015F80128F9D12021F34806F026
:1054E0001CF8F24805F0A2FF10BD30B58BB00546A0
:1054F0000C46EF4803F036FFEC48001D0090019584
:105500001020029003940020049080200590002039
:105510000690079008904FF48050099000200A9060
:105520006946E34803F0C0FF0BB030BD10B5044638
:1055300040F2CF7084420DD1DE480068B0F57F4F55
:1055400004D10821DC4804F0B0FC03E00821DA486B
:1055500004F0ADFCB4F5FA6F0DD1D6480068B0F593
:105560007F4F04D10421D44804F09FFC03E00421C0
:10557000D14804F09CFC40F2D17084420FD1CD4858
:105580000068B0F57F4F05D14FF40051CB4804F0CF
:105590008CFC04E04FF40051C84804F088FC40F251
:1055A000D27084420DD1C3480068B0F57F4F04D15A
:1055B0000221C34804F079FC03E00221C04804F052
:1055C00076FC40F2D37084420DD1BA480068B0F541
:1055D0007F4F04D10821BA4804F067FC03E008219A
:1055E000B74804F064FC40F2D47084420DD1B14855
:1055F0000068B0F57F4F04D12021B14804F055FC7C
:1056000003E02021AE4804F052FC40F2D570844201
:105610000DD1A8480068B0F57F4F04D18021A8487B
:1056200004F043FC03E08021A54804F040FC40F274
:10563000D67084420FD19F480068B0F57F4F05D1E6
:105640004FF400719E4804F030FC04E04FF4007108
:105650009B4804F02CFC40F2D77084420DD1954851
:105660000068B0F57F4F04D10121964804F01DFC7D
:1056700003E00121934804F01AFCB4F5FB6F0FD14D
:105680008C480068B0F57F4F05D14FF480518C48AD
:1056900004F00BFC04E04FF48051894804F007FC4F
:1056A00040F2D97084420FD182480068B0F57F4F34
:1056B00005D14FF48041824804F0F7FB04E04FF439
:1056C00080417F4804F0F3FB40F2DA7084420DD150
:1056D00078480068B0F57F4F04D101217A4804F082
:1056E000E4FB03E00121784804F0E1FB40F2DB70C9
:1056F00084420DD16F480068B0F57F4F04D18021FE
:105700006D4804F0D2FB03E080216B4804F0CFFB2E
:1057100040F2DC7084420FD166480068B0F57F4FDC
:1057200005D14FF40071644804F0BFFB04E04FF46E
:105730000071614804F0BBFB40F2DD7084420FD180
:105740005C480068B0F57F4F05D14FF400615A48BE
:1057500004F0ABFB04E04FF40061574804F0A7FBF2
:1057600040F2DE7084420FD152480068B0F57F4F9E
:1057700005D14FF40051504804F097FB04E04FF47A
:1057800000514D4804F093FB10BD2DE9D84701228C
:1057900040F22551454805F0E4FD4C4800680C28CE
:1057A00081F09D81DFE800F0061224303B475A6605
:1057B000F8F7F6F5C82D07D132204549087043485F
:1057C0000068401C4149086001F091B9032D07D0E1
:1057D000052D05D0102D03D000203C490860F3E7CB
:1057E0003C48057039480068401C38490860EBE7C0
:1057F000394805600068000237490860334800688E
:10580000401C32490860DFE73348006828433249CA
:1058100008602E480068401C2C490860D4E72548E1
:105820000560006800022349086028480068401CA1
:1058300026490860C8E71F48006828431D490860DA
:1058400024480078102803D108202049086004E08B
:105850001E480068401C1D490860B5E71F480560E8
:10586000006800021D49086018480068401C17497C
:105870000860A9E7194800682843184908601548D6
:105880000078032871D0052870D113480068B0F55E
:10589000FD6F2ED107480068B0F57F4F24D101205D
:1058A0000F4908700F49087023E0000000380140DC
:1058B0004400024090070020001801400010014001
:1058C000001C0140000C014000200140980700200E
:1058D00088070020890700208C07002094070020FB
:1058E0007B070020A80700200020FE490870FE4921
:1058F0000870FE48006840F2E97188420FD1FC4808
:105900000068B0F57F4F05D10120FA490870FA49C7
:10591000087004E00020F7490870F7490870F34860
:10592000006840F2EA7188420DD1F1480068B0F594
:105930007F4F05D10120F1490870F149087302E059
:105940000020EE490870E948006840F2EB71884297
:1059500010D1E7480068B0F57F4F08D10120E94930
:1059600008700020E649087304E064E031E100209B
:10597000E4490870DD48006840F2E47188420FD1C4
:10598000DB480068B0F57F4F07D10120DE49087081
:1059900006E0E9E3E9E333E125E10020DA490870B4
:1059A000D248006840F2EC7188420AD1D0480068C1
:1059B000B0F57F4F05D1D548007800F0FE00D349FF
:1059C0000870CA48006840F2ED7188420AD1C848A0
:1059D0000068B0F57F4F05D1CC48007800F0FD009D
:1059E000CA490870C148006840F2E77188420BD18B
:1059F000BF480068B0F57F4F03D10120C44908704B
:105A000002E00020C2490870C148007818B1B748C8
:105A10000068FFF78BFD0021BE480068401CBD4AAE
:105A20001060BD4A11540020BC490870B949086093
:105A300011460870D5E04FF006084146B648FFF71A
:105A400007FB0746B44CAA4890F800904FEA49601B
:105A50004FEA1069B24909688F4270D1C82004F832
:105A6000010B032004F8010B04F8019B00267CE0E5
:105A7000142E76D2DFE806F00A0F14191E23282D03
:105A800032373C42474D52585D646970A5484078B2
:105A900004F8010B66E0A348007804F8010B61E00C
:105AA000A148407804F8010B5CE09F48007804F8B6
:105AB000010B57E09D48C07804F8010B52E09B4869
:105AC000807804F8010B4DE09848407804F8010B09
:105AD00048E09648007804F8010B43E08B48407892
