:024C9300425C81
:024C950040AD30
:024C97000046D5
:024C99003AA43B
:024C9B001CFCFF
:024C9D0038914C
:024C9F0010CD36
:024CA10009CC3C
:024CA3002E8F52
:024CA5002CA938
:024CA7003B9937
:024CA90043E8DE
:024CAB0046328F
:024CAD0048A31A
:024CAF0045DCE2
:024CB1003D467E
:0300000002414476
:0C414400787FE4F6D8FD75819602418B6F
:104D29002A2A2D0073746172746564210A002A2A83
:0B4D39002E002A2A5028256C75290046
:1031C500420194000142016E00014101D7F36040C4
:1031D50001290A050303050A032801002300030446
:1031E500140F0F1A010501006401040407030A0AFC
:1031F5000F0F030F14010000140A01000314140536
:10320500020000141400000000000000000000008F
:1032150000AAC14BC14AC14CC148C149C1D84201EC
:103225007500004101230042019200004201900017
:10323500004201DC00004201DA00004201D8000032
:103245004101D6004201250000420127000041014D
:103255002400C180C181C104C105C106C107C108DF
:10326500C10AC10DC10FC110C112C113C115C117CA
:10327500C118C11AC11DC11EC1A0C1A2C1A4C1A648
:10328500C128C12AC12CC12EC12FC131C132C1B43F
:10329500C1B6C137C1394101090041010A004101E7
:1032A5000B0042010C000041010E0041010F0041DD
:1032B50001100041011100420112000042011400F9
:1032C50000420116000041011800C13BC13C41010B
:1032D5001900C13DC13EC13F45011A000000000073
:0432E50041011F0084
:10425C001228C47F091220F77D0A7F021222337FB5
:10426C00031220F77D0A7F021222337F041220F7FB
:10427C007D0A7F021222337F051220F77D0A7F020E
:10428C001222337F061220F77D0A7F021222337F1F
:10429C00071220F77D0A7F021222337F081220F7C3
:1042AC007D0A7F021222337F0A1220F77D0A7F02D9
:1042BC001222337F0F1220F77D0A7F0212223380E5
:1042CC0000E490016DF07F021220F77DFA7F02125C
:0742DC002233E4FF02218000
:1028C400124CB3E490016DF0900177F0A3F0A3F003
:1028D400A3F0A3F0A3F0900121F0A3F0900120F065
:1028E400900170F0C255C253C24190016BF0A3F045
:1028F40090018EF0A3F0C24DC24FC24EC244C240FA
:10290400C257D254C243C252C247124A717D647F35
:10291400021222337D647F021222337D647F02120D
:1029240022337D647F021222337D647F02122233BC
:102934009001FA12188C00000000E47F02FEFDFCF6
:102944009001FAE0F8A3E0F9A3E0FAA3E0FBC312D4
:1029540018495068E49001F9F09001F9E0FFC3646C
:10296400809488500B74372FF8E4F6E004F080E983
:10297400E49001F9F09001F9E0FFC3648094905071
:1029840019EF3395E0FE747D2FF58274013EF583D3
:10299400E4F09001F9E004F080DB9001FAE0FCA39C
:1029A400E0FDA3E0FEA3E02401FFE43EFEE43DFDE0
:1029B400E43CFC9001FA12188002293E7F0412487C
:1029C4007C7F01124BF3124A71C245E49001F9F085
:1029D4009001F9E0FFC3648094C05025EF3395E083
:1029E400FE124D449001F9E0FD3395E0FC74962D00
:1029F400F58274013CF583EFF09001F9E004F08076
:102A0400CF1247C77F017E02124D44E4FCFDFE78DD
:102A14001012186DC004C005C006C0077F007E02F6
:102A2400124D44E4FCFDFE781812186DD003D00258
:102A3400D001D000EF2BFFEE3AFEED39FDEC38FC6F
:102A4400C004C005C006C0077402FFFE124D44E472
:102A5400FCFDFE780812186DD003D002D001D0001E
:102A6400EB2FFFEA3EFEE93DFDE83CFCC004C00557
:102A7400C006C0077F037E02124D44E4FCFDFED075
:102A840003D002D001D000EB2FFFEE3AFEED39FD6A
:102A9400EC38FC900171121880E53230E21230E318
:102AA4000FE53430E30A90017112188C0000000025
:052AB4007F2E02487CAA
:100046007D647F021222331247C7124A717D017FF7
:1000560002122233E53E20E7EEE52F139221E52F2B
:10006600A2E19202A2E4920330033220052FE53684
:1000760030E0079001D4E04401F07F30124AD550B9
:10008600079001D4E054FEF0D25674C61244BFE580
:100096002F30E4097DC87F0212223380F230212EF0
:1000A60030202B30021130040E20000B20030820D4
:1000B60005051246D8803230032F30052C20012941
:1000C60020022620042390016D74C6F0801820219A
:1000D6001820201590016DE0FF6005D3946440065A
:1000E60090016D7463F01244C3300205300402D2ED
:1000F60000200205200402C200300305300502D2AA
:1001060001200305200502C201A2219220A202922B
:1001160004A2039205E53030E6057F13124BF390F7
:10012600016DE06005C3946440077F06124BF380BF
:100136000E90016DE0C3946450057F0612487C90D2
:100146000178E07002A3E0600E900179E024FFF0F0
:10015600900178E034FFF090017AE0600214F090AC
:10016600017BE07002A3E0600E90017CE024FFF0CA
:1001760090017BE034FFF0900122E0600214F090E1
:100186000121E07F03600B12487C900121E014F00E
:100196008003124BF3900177E07F18600B12487CC6
:1001A600900177E014F08003124BF3E53130E41A46
:1001B60030E5179001C2E075F00AA4FF900178E5DA
:1001C600F0F0A3EFF07F23124BF3E52F30E30B2083
:1001D60006082053057F011220F7E52FA2E39206B9
:1001E600E53130E3142007119001B4E075F00AA45C
:1001F60090017AF07F24124BF3E531A2E39207A235
:10020600E4921F301F15201E129001C1E075F00AFE
:10021600A4FF900175E5F0F0A3EFF0900175E07092
:1002260002A3E0600E900176E024FFF0900175E0F5
:1002360034FFF0A21F921EE533A2E39214A24A9263
:10024600333033342032319001D4E030E02A301498
:10025600149001C8E075F00AA4FF900114E5F0F0CF
:10026600A3EFF080137F3012487CD24890012574AA
:1002760001F0A3742CF0C24CA2339232E52F30E584
:1002860002D255E53430E42B200A2830552590015A
:10029600B5E075F00AA4900177F09001A0E075F042
:1002A6000AA4FF90017BE5F0F0A3EFF07F25124B47
:1002B600F3C255E534A2E4920AE532A2E29238305E
:1002C600380C20370990016DE0B47E02E4F0A238C4
:1002D6009237E532A2E3923A303A0C20390990017E
:1002E6006DE0B47F02E4F0A23A9239E533A2E192DE
:1002F6001B301B21201A1E900111E070189001B2CC
:10030600E075F00AA4FF900192E5F0F0A3EFF090FB
:10031600011174FAF0900111E0600214F09001925C
:10032600E07002A3E0600E900193E024FFF09001DC
:1003360092E034FFF0900192E07004A3E064017053
:10034600107F3212487C7F27124BF390010F7432D4
:10035600F090010FE0600214F090010FE0B4010B81
:100366007F3312487C9001107464F0900110E060B5
:100376000214F0900110E0B4010B7F32124BF3909F
:10038600010E741EF090010EE0600214F090010E52
:10039600E0B4010A7F2712487C7F33124BF3A21B7D
:1003A600921AE533A2E2921130111B301018201276
:1003B6001590016DE0FF6005C39464400690016DE1
:1003C6007422F01244C3301105301002D2122011EB
:1003D60005201002C212A2119210A21D921CE53332
:1003E600A2E3921430142C2013299001C9E0700561
:1003F60012485C801E9001D4E04401F0C24C304AA1
:10040600129001C8E075F00AA4FF900114E5F0F01F
:10041600A3EFF0A2149213900123E06401702F7FE2
:1004260029124AD5500F7F29124BF39001C5E0904F
:100436000123F080199001D6E060137F2912487CD1
:100446009001C5E0900123F09001D6E014F09001F0
:1004560023E0600214F0E534A2E6923520352D2023
:10046600342A3036279001CBE075F064A4FF900162
:1004760012E5F0F0A3EFF090016DE0FF6005C39484
:1004860064400690016D742EF01244C33035053079
:100496003402D236203505203402C236A2359234D3
:1004A600900112E07002A3E0600E900113E024FFB9
:1004B600F0900112E034FFF0900112E07004A3E026
:1004C600640170057F0B12487CC216C219D223D272
:1004D60025D227C229C22BC22DC230301633301581
:1004E6003020172D7F30124AD55026C2489001D4AD
:1004F600E054FEF0C24C9001C7E075F00AA4FF90EC
:100506000116E5F0F0A3EFF09001C9E06003124890
:100516005C301605301502D217201605201502C2CA
:1005260017A2169215301905201802C249A219926F
:100536001820231820221590016DE0FF6005C39452
:1005460064400690016D7432F01244C320251820D1
:10055600241590016DE0FF6005C394644006900188
:100566006D7433F01244C320271820261590016DB0
:10057600E0FF6005C39464400690016D7434F01288
:1005860044C330291830281590016DE0FF6005C37B
:100596009464400690016D7435F01244C3302B18F4
:1005A600302A1590016DE0FF6005C3946440069003
:1005B600016D7436F01244C3A2239222A22592241E
:1005C600A2279226A2299228A22B922A302D3E30CB
:1005D6002C3B202E38203035900118E0B4392EE41B
:1005E6009001DAF0A3F07F35124BF390016D74376A
:1005F600F01244C39001ACE075F064A4FF9001D8FA
:10060600E5F0F0A3EFF0E4900118F0800C202D093E
:10061600302C069001187437F0202D05202C02C2CC
:100626002E302D05302C02D22EA22D922C30303EAB
:10063600302F3B203138202D35900118E0B4372E6D
:10064600E49001D8F0A3F07F34124BF390016D745F
:1006560039F01244C39001ACE075F064A4FF900138
:10066600DAE5F0F0A3EFF0E4900118F0800C20300A
:1006760009302F069001187439F0203005202F021A
:10068600C231303005302F02D231A230922F900184
:10069600C9E060077F17304C0C80057F17304A058C
:1006A60012487C8003124BF39001DAE07002A3E05B
:1006B600601A7F34124BF37F3512487C9001DBE0E1
:1006C60024FFF09001DAE034FFF080057F35124B0D
:1006D600F39001D8E07002A3E0601A7F35124BF365
:1006E6007F3412487C9001D9E024FFF09001D8E0D5
:1006F60034FFF080057F34124BF39001D4E020E004
:1007060007E53530E102D24CE53530E10B90016D5D
:10071600E0B49516E4F0801290016DE0700C900143
:10072600C9E0600690016D7495F0900114E07004C4
:10073600A3E0640170137F3012487CD248900125F3
:100746007401F0A3742CF0C24C900114E07002A363
:10075600E0600E900115E024FFF0900114E034FFF4
:10076600F0900116E07004A3E0640170117F30126E
:100776004BF3D2499001277401F0A3742CF0900139
:1007860016E07002A3E0600E900117E024FFF090DF
:100796000116E034FFF0900125E07004A3E0640147
:1007A600700C30480990016D7430F01244C390010A
:1007B60025E07002A3E0600E900126E024FFF09091
:1007C6000125E034FFF0900127E07004A3E0640106
:1007D600701230490F9001C9E0600990016D7431C3
:1007E600F01244C3900127E07002A3E0600E90016E
:1007F60028E024FFF0900127E034FFF0E534A2E37F
:10080600920BE533A2E5920C7F1A124AD5503A3084
:100816000B3720083490019DE070077F2812487C32
:10082600800890019DE0900109F07F0512487C90B8
:1008360001A7E0700204F09001A7E075F00AA4FF9A
:1008460090010CE5F0F0A3EFF090010CE07004A32A
:10085600E06401701E900109F07F28124BF39001AD
:10086600AAE070077F05124BF380089001AAE0907A
:10087600010AF090016BE07002A3E0600E90016C3B
:10088600E024FFF090016BE034FFF0900109E0B442
:1008960001057F2812487C90010AE0B401057F0516
:1008A600124BF3900109E0600214F090010AE06037
:1008B6000214F090010CE07002A3E0600E90010DAE
:1008C600E024FFF090010CE034FFF090018DE0B4DD
:1008D60001057F2A124BF390018DE0600214F0901F
:1008E600018EE0B401167F2B124BF37F2C12487C4D
:1008F6009001B0E075F00AA490018FF090018EE0AF
:10090600600214F090018FE0B401057F2C124BF3C6
:1009160090018FE0600214F09001DCE07002A3E029
:1009260060109001DDE024FFF09001DCE034FFF080
:1009360080057F2F124BF3A20B9208A20C9209E5B9
:1009460034A2E5920E300E12300D0F200F0C9001DE
:100956009FE075F00AA490010BF0200E05200D0211
:10096600C20F300E05300D02D20F90010BE064016C
:10097600703B90016DE0FF6005D3946440069001E2
:100986006D742DF01244C3124BEF7F1F124BF37F91
:1009960020124BF37F23124BF3E53620E2057F242A
:1009A600124BF37F25124BF37F27124BF390010B6B
:1009B600E0600214F0A20E920DE53420E20302007C
:0609C6004DD24202004D7B
:1040AD00E4900206F0D2539001B2E075F00AA4FD3F
:1040BD007F021222339001B3E075F00AA42401FEB1
:1040CD00E435F0900178F0A3CEF07F23124BF3127C
:1040DD0047C7E53130E40E9001C1E075F00AA4FF49
:1040ED009001758024E4900175F0A3F0900175E0C6
:1040FD007002A3E0601B7D0A7F021222339001B390
:10410D00E075F00AA4FF900178E5F0F0A3EFF080E0
:10411D00DB7F0212487C9001B3E075F00AA4FD7FAD
:10412D00021222337F02124BF3E4900178F0A3F0D8
:07413D00C2537F0102218043
:103AA4001247C7124A71E53E30E703023B8F2045B7
:103AB40003023B8FE53020E103023B8F90018074C9
:103AC40001F0E52F20E614D23B7D0A7F0212223357
:103AD40090016DE070EC746AF080E79001807402EC
:103AE400F0303B187DFAFF1222337DFA7F02122256
:103AF40033C23B90016DE0B46A02E4F03045A1901A
:103B040001807403F0E52F30E703023B8FE530308A
:103B1400E279E4900208F07D0A7F02122233E52F55
:103B240020E706900208E004F07D0A7F02122233A7
:103B3400E52F20E706900208E004F07D0A7F0212D8
:103B44002233E52F20E706900208E004F0900208F3
:103B5400E0C39402400AE52F30E6057F0712487C53
:103B6400E4900208F07D0A7F02122233900208E0FA
:103B740004F0E0C3942840ED7F07124BF3E52F20B7
:103B8400E70990016DE07003746BF07D027F02120F
:053B94002233023AA4F7
:101CFC001247C7124A71E53E30E703021FCB20455D
:101D0C0003021FC7203C03021F619001817401F084
:101D1C00E53020E1127D057F0212223390016DE047
:101D2C0070EE746DF080E990016DE0B46D02E4F03A
:101D3C00E53020E2127D057F0212223390016DE026
:101D4C0070EE746EF080E990016DE0B46E02E4F018
:101D5C00E52F20E7147D057F02122233D25D90011E
:101D6C006DE070EC746BF080E790016DE0B46B0289
:101D7C00E4F0305D097D647F02122233C25D2045A0
:101D8C00097D057F0212223380F47D327F021222FC
:101D9C00337F0A12487C7F2212487C900197E075B1
:101DAC00F00AA4FD7F021222337F0C12487C7F0CB8
:101DBC001220F77F0A124BF37D147F02122233900C
:101DCC0001817403F0E490020AF0E53020E34A7DCF
:101DDC00017F02122233900197E0FF9001A5E0C32E
:101DEC009FFFE49400FE7C007D0A1216BB90020A51
:101DFC00E004F0C39FEE6480F874809840CC9001AE
:101E0C006DE06005D39464400690016D740BF07F17
:101E1C0022124BF31244C380B17F22124BF37D018B
:101E2C007F02122233E490020AF0E53020E1127DA9
:101E3C00017F0212223390016DE070EE746DF08020
:101E4C00E990016DE0B46D02E4F07F0C124BF3905D
:101E5C0001C3E075F00AA4900121F07F0C122180DF
:101E6C007F0D12487C7F0D1220F7900198E075F0E1
:101E7C000AA4FD7F021222337F011222332045096E
:101E8C007D057F0212223380F47F2112487C900161
:101E9C00817404F0E490020AF0E53020E23E7D010A
:101EAC007F021222339001A6E075F00AA4FFAEF077
:101EBC0090020AE004F0C39FEE6480F874809840AE
:101ECC00D890016DE06005D39464400690016D7468
:101EDC000AF07F21124BF31244C380BD90016DE0D8
:101EEC00B46E02E4F07F21124BF39001817405F083
:101EFC00E490020AF0E53030E0107D0280052045C8
:101F0C00F47D057F0212223380F4E53030E00302C9
:101F1C001FC77F08124AD55003021FC77F0D124BF3
:101F2C00F37F0D1221807D027F021222337F0E126D
:101F3C00487C9001A9E075F00AA4FD7F02122233BF
:101F4C007F0E124BF32040047F0580027F04122287
:101F5C0009C2408066E4900181F090020AF07F2172
:101F6C0012487CE53020E23E7D017F021222339044
:101F7C0001A6E075F00AA4FFAEF090020AE004F0AE
:101F8C00C39FEE6480F874809840D890016DE06037
:101F9C0005D39464400690016D740AF07F21124BB6
:101FAC00F31244C380BD90016DE0B46E02E4F07F87
:101FBC0021124BF37D017F02122233A245923C7D0C
:091FCC00027F02122233021CFC08
:10389100E4900182F07F0F12487C124A717DFA7F19
:1038A100021222337DFA7F021222337F0F124BF371
:1038B100124A717F041222091247C7124A71204528
:1038C100030239A17F011222332045097D057F02C0
:1038D10012223380F49001827401F0900199E07515
:1038E100F00AA4FD7F021222339001A8E0D39400D4
:1038F1004059E490020CF09001A8E014FF90020CF2
:10390100E0C39F502E7F0912487C90019AE075F028
:103911000AA4FD7F021222337F09124BF390019A10
:10392100E075F00AA4FD7F0212223390020CE0043C
:10393100F080C47F0912487C90019AE075F00AA4D6
:10394100FD7F021222337F09124BF3900182740230
:10395100F0E490020DF0E53020E0057F0812487C8C
:103961007D2880052045097D057F0212223380F4E0
:10397100E53020E0117F0812487C7D017F02122290
:10398100331247C780EA7F08124BF3124A71900144
:10399100827403F07D027F021222337F0412220916
:0A39A1007D027F021222330238B9C2
:102CA9001247C7124A71204503022E857D027F0211
:102CB9001222331247C7E53030E62B30E028E531E0
:102CC90030E023205720900122E0701A90016DE036
:102CD900FF6472600AEF646C6005EF64747033E43A
:102CE90090016DF0802C90016DE07008E53020E6D0
:102CF900037472F090016DE07008E53020E0037410
:102D09006CF090016DE070A4E53120E09F7474F0DF
:102D1900809A9001867402F07D05FF1222337D02AC
:102D29007F021222331247C7E53030E62B30E02804
:102D3900E53130E023205720900122E0701A9001FC
:102D49006DE0FF6472600AEF646C6005EF64747093
:102D590033E490016DF0802C90016DE07008E5304E
:102D690020E6037472F090016DE07008E53020E010
:102D790003746CF090016DE070A4E53120E09F745C
:102D890074F0809A2045097D027F0212223380F473
:102D99007F1212487CE490020FF0E53120E1297D91
:102DA900017F0212223390020FE004F0C394FA402B
:102DB900E990016DE0FF6005D39464400690016DD0
:102DC9007411F01244C380D29001867403F0E53087
:102DD90020E01D7F12124BF390016DE0FF6005D3D7
:102DE9009464400690016D7408F01244C3022CA942
:102DF9009001BFE075F00AA4FD7F021222337F1013
:102E090012487C7F0E1220F790019CE075F00AA40D
:102E1900FD7F021222337F12124BF3D257900186A3
:102E29007404F0E490020FF0F0E53120E02E7D0209
:102E39007F021222337F12124BF390020FE004F04B
:102E4900D394FA40E490016DE0FF6005D3946440A7
:102E59000690016D7410F01244C380CD90016DE0AD
:102E6900B47402E4F07F061222092045097D027F2D
:102E79000212223380F49001867405F07D0A7F02E4
:062E8900122233022CA905
:1010CD007F071222091247C7124A712045030216E3
:1010DD0015E4900183F07F011222332045097D052F
:1010ED007F0212223380F49001837401F09001830A
:1010FD007402F0E53020E0127D027F02122233905F
:10110D00016DE070EE746CF080E9E53020E6177D3E
:10111D00017F02122233900211E004F0C394FA40D1
:10112D00E91244BD80E42045097D057F021222337A
:10113D0080F42045097D057F0212223380F4E531CC
:10114D0020E0127D027F0212223390016DE070EEDD
:10115D007474F080E9E53230E1127D027F021222D3
:10116D003390016DE070EE747DF080E9E53330E091
:10117D00127D027F0212223390016DE070EE7484B5
:10118D00F080E9E53130E7127D027F0212223390C3
:10119D00016DE070EE747BF080E9E53230E0127D98
:1011AD00027F0212223390016DE070EE747CF080AC
:1011BD00E92051127D017F0212223390016DE07002
:1011CD00F0747EF080EB2057097D017F02122233EF
:1011DD0080F490016DE0FF646C6022EF6472601D1D
:1011ED00EF64746018EF647D6013EF6484600EEF3C
:1011FD00647B6009EF647C6004EFB47E05E49001CC
:10120D006DF02045097D057F0212223380F41247CF
:10121D00C7E53020E0030210FA20E6030210FAE5DC
:10122D003120E0030210FA2051030210FAE53230AA
:10123D00E1030210FAE53330E0030210FAE5313034
:10124D00E7030210FAE53230E0030210FA205703EB
:10125D000210FA30E3030210FA7F1A124AD5400841
:10126D00E53220E2030210FA9001837403F07F113E
:10127D0012487C124A71E53330E441900196E0FD4D
:10128D0075F00AA4FF900119E0C39FE5F06480F8A2
:10129D007480984003ED70249001B7E090016AF0DE
:1012AD009001C4E0900169F0900119E004F0E0F0C4
:1012BD007F2C124BF37F2D12487C8029E53320E4DF
:1012CD0005E4900119F09001A3E090016AF09001FE
:1012DD00ABE0900169F07F2B124BF37F2C12487C11
:1012ED007F2D124BF39001837406F0E4900211F000
:1012FD00E53020E7207D017F02122233900211E0BC
:10130D0004F0C394FA40E990016D740FF07F11124F
:10131D004BF31244C3C257E53030E74730E6159022
:10132D00016DE0FF6005C39464400690016D740E7D
:10133D00F01244C37F0E1221809001BBE075F00ABC
:10134D00A4FD7F0212223390016DE06416600A7FC6
:10135D001612487C7F2A12487CE53030E0057F0666
:10136D001222097D0F7F021222339001837407F040
:10137D007F10124BF37F1412487C9001B1E075F091
:10138D000AA4FD7F021222337F14124BF37F111238
:10139D004BF3900122741EF07F1312487C90018351
:1013AD007408F0E53230E1297F1512487C7F161262
:1013BD004BF37F2F124BF37F2A124BF390016DE00D
:1013CD00FF6005D39464403490016D7419F00214DC
:1013DD0063E53330E0287F1512487C7F16124BF3FE
:1013ED007F2F124BF37F2A124BF390016DE0FF60BC
:1013FD0005D39464400690016D7420F08058E5315A
:10140D0020E7287F1512487C7F16124BF37F2F1291
:10141D004BF37F2A124BF390016DE0FF6005D394DF
:10142D0064400690016D7417F0802BE53220E03F8B
:10143D007F1512487C7F16124BF37F2F124BF37FD3
:10144D002A124BF390016DE0FF6005D394644006C2
:10145D0090016D7418F01244C39001BDE075F00A4F
:10146D00A4FD7F021222337F15124BF3021615D203
:10147D004A9001B1E075F00AA4FD7F021222337F7C
:10148D001412487CD246D2507D027F021222339034
:10149D0001837409F0E4900211F09001C9E0602716
:1014AD00E53520E0127D027F0212223390016DE0BE
:1014BD0070EE7494F080E990016DE0B49402E4F064
:1014CD00E5351392618026E53320E3127D027F021C
:1014DD0012223390016DE070EE7487F080E9900177
:1014ED006DE0B48702E4F0E533A2E392612061037D
:1014FD00021615900183740AF0C24A90019BE075A3
:10150D00F00AA4FD7F021222339001D3E004F070A3
:10151D00069001D2E004F0120022900171E0FCA3CC
:10152D00E0FDA3E0FEA3E02401FFE43EFEE43DFD6B
:10153D00E43CFC900171121880D258E53230E3047E
:10154D00C2418002D2419001ACE075F00AA4900135
:10155D008DF0E4900211F09001CCE09001D6F06096
:10156D00137F2912487C9001C5E0900123F0900172
:10157D00D6E014F0C2427F1C12487C9001AEE0759B
:10158D00F00AA4FD7F021222337F1C124BF390014F
:10159D00AEE075F00AA4FD7F021222339001A4E0A3
:1015AD00FF900211E004F0C39F50032042C6E49067
:1015BD000123F07F29124BF3D24390016BE07002AF
:1015CD00A3E060097D017F0212223380ED9001833B
:1015DD00740BF09001C9E0600EE53530E0177D0A1F
:1015ED007F0212223380F2E53330E3097D0A7F0258
:1015FD0012223380F22045097D057F0212223380AD
:10160D00F47F07122209D2447D027F021222330297
:02161D0010D2E9
:0100220022BB
:1009CC00E4900184F0900213F0A3F0E53030E608D7
:1009DC0020E7057F1B12487CE53220E34090016D37
:1009EC00E07003747FF07D237F0212223390021398
:1009FC00E475F0011216CDFED3E5F09464EE94008C
:100A0C0040D690016DE06005D39464400690016D72
:100A1C00741BF07F1B124BF31244C380BBE53230C6
:100A2C00E3107F1B124BF3C25190016DE0B47F02B7
:100A3C00E4F0C2501247C7124A712045030210C39A
:100A4C009001847401F0FF1222332045097D057F4B
:100A5C000212223380F4E4900213F0A3F0E532206A
:100A6C00E34090016DE07003747FF07D027F021211
:100A7C002233900213E475F0011216CDFED3E5F08B
:100A8C009496EE940040D690016DE06005D394648A
:100A9C00400690016D741BF07F1B124BF31244C384
:100AAC0080BB90016DE0B47F02E4F0C251E53330BD
:100ABC00E4059001BA80039001B6E0900217F09023
:100ACC000169E0FF900217E0FDC39F50557F0212B1
:100ADC0022339001847402F07F16124BF37F2F1295
:100AEC004BF39001B7E0FF90016AE0B507117F2B43
:100AFC0012487C9001AFE075F00AA490018EF012C0
:100B0C004A713044787F1412487C900217E0FF90B1
:100B1C000169E0C39FFD7F021222337F1912487CCA
:100B2C0080583044177F1412487C900169E0FD7F97
:100B3C00021222337F1912487C124A71900169E02B
:100B4C00FF900217E0C39FFD7F02122233900184B5
:100B5C007402F07F16124BF37F2F124BF39001B7F8
:100B6C00E0FF90016AE0B507117F2B12487C9001E1
:100B7C00AFE075F00AA490018EF0124A7190016AF0
:100B8C00E075F00AA4FD7F021222337F14124BF39E
:100B9C00C246124A719001847403F0E4900213F07F
:100BAC00A3F0304444E53230E40320E53C7D027F81
:100BBC000212223390016DE070037480F0900213E6
:100BCC00E475F0011216CDFED3E5F094FAEE940024
:100BDC0040D390016DE0FF6005D394644006900112
:100BEC006D741CF01244C380BC9001ADE075F00A2A
:100BFC00A4FD7F021222339001847404F0E53420AA
:100C0C00E11290016D745BF01244C37D0A7F0212F5
:100C1C00223380E99001847405F0E53420E71290CA
:100C2C00016D742FF01244C37D0A7F0212223380AF
:100C3C00E99001847406F02045097D057F0212229B
:100C4C003380F4E53430E51990016D742FF01244C3
:100C5C00C37D0A80052045EB7D057F02122233807F
:100C6C00F4E53020E6131244BD7D0A80052045F1E1
:100C7C007D057F0212223380F4E53120E2199001C8
:100C8C006D7412F01244C37D0A80052045EB7D057E
:100C9C007F0212223380F49001847407F07F1A12C1
:100CAC00487CC252124A71E4900213F0A3F0E5346E
:100CBC0020E3347D017F021222331247C7900213C6
:100CCC00E475F0011216CDFED3E5F094F4EE940128
:100CDC0040DC90016DE0FF6005D394644006900108
:100CEC006D742BF01244C3E53430E3347D017F0284
:100CFC001222331247C7900213E475F0011216CD7D
:100D0C00FED3E5F094C4EE940940DC90016DE0FF55
:100D1C006005D39464400690016D742BF01244C3AB
:100D2C009001847408F02044187F1512487C9001BF
:100D3C00BDE075F00AA4FD7F021222337F15124B21
:100D4C00F3C2449001C0E0FD7F02122233D251E481
:100D5C00900216F09001BCE0FF900216E0C39F5089
:100D6C000F7D0A7F02122233900216E004F080E419
:100D7C007F19124BF37D037F02122233E49002138E
:100D8C00F0A3F0E53220E2787D027F02122233904C
:100D9C000213E475F0011216CDFED3E5F09496EE35
:100DAC009400404990016DE0FF6005D394644006C7
:100DBC0090016D741AF0C2471244C37F1A124BF3A0
:100DCC007F19124BF37F1E124BF37F1F124BF37FD5
:100DDC0020124BF37F23124BF3E53620E2057F24E0
:100DEC00124BF37F25124BF37F27124BF390016DBF
:100DFC00E06005D39464408B90016D747EF0808329
:100E0C0090016DE0B47E02E4F09001847409F0E589
:100E1C003230E23B7F1A124BF37F19124BF33047FF
:100E2C002EE53320E52920E626124BEF7F1F124BCF
:100E3C00F37F20124BF37F23124BF3E53620E205B0
:100E4C007F24124BF37F25124BF37F27124BF39029
:100E5C000184740AF02045097D057F02122233803B
:100E6C00F4E53220E63D7D017F0212223390016DC4
:100E7C00E070037482F01247C7900213E475F0011E
:100E8C001216CDFED3E5F094F4EE940140D390010C
:100E9C006DE0FF6005D39464400690016D741EF004
:100EAC001244C390016DE0B48202E4F090018474AA
:100EBC000BF02050097D027F0212223380F4E530C2
:100ECC0020E6127D027F0212223390016DE070EE5B
:100EDC007472F080E92052127D027F02122233904C
:100EEC00016DE070F07476F080EB90016DE0FF64C2
:100EFC0082600EEF64836009EF648D6004EFB4725E
:100F0C0005E490016DF02045097D057F0212223326
:100F1C0080F4E4900215F09001BEE0900215F0D23E
:100F2C0043900184740CF0E53120E21990016D744A
:100F3C0012F01244C37D0A80052045EB7D057F022B
:100F4C0012223380F4E53030E61EE53230E61930FB
:100F5C00E71630E213305010E53020E70B30520822
:100F6C00E53130E203021000E53020E61190016D0E
:100F7C00E06005D39464400690016D7472F0E53224
:100F8C0020E61190016DE06005D394644006900159
:100F9C006D7482F0E53220E71190016DE06005D3AD
:100FAC009464400690016D7483F0E53220E2119058
:100FBC00016DE06005D39464400690016D747EF081
:100FCC0020501190016DE06005D3946440069001AF
:100FDC006D748DF0E53120E21190016DE06005D368
:100FEC009464400690016D7476F07D027F021222AB
:100FFC0033020F5190016DE0FF64726018EF648250
:10100C006013EF6483600EEF647E6009EF648D60A3
:10101C0004EFB47605E490016DF0900184740DF04A
:10102C00900215E075F00AA4FD7F021222337F1B9B
:10103C0012487CC251C243C254900184740EF0E435
:10104C00900213F0A3F07D0A7F02122233E53220C6
:10105C00E34090016DE07003747FF07D027F02121B
:10106C002233900213E475F0011216CDFED3E5F095
:10107C009496EE940040D690016DE06005D3946494
:10108C00400690016D741BF07F1B124BF31244C38E
:10109C0080BB90016DE0B47F02E4F0E53230E317E1
:1010AC0090016DE0B47F02E4F07F1B124BF3C25051
:1010BC00C251304102C2417D027F02122233020A28
:0110CC0040E3
:102E8F001247C7124A71E53E30E703023044E5337B
:102E9F00A2E59264A2E692655420FF90011FE02400
:102EAF001AF582E43401F583EFF090011FE0FF047F
:102EBF00F0EFC394044002E4F020450620470302DC
:102ECF00303C9001857401F0900178E07002A3E02E
:102EDF0070057F2312487C90017AE070057F2412E1
:102EEF00487C90017BE07002A3E070057F251248BB
:102EFF007C7F1E12487C7F1F12487C206403306544
:102F0F00262054237F2012487CE53430E5199001A8
:102F1F00857402F0D23F90016DE06005D394644058
:102F2F000690016D742DF090011BE0FF90011AE0E7
:102F3F002FFF90011CE02FFFA3E02FFFA3E02FD363
:102F4F0094034004D2648002C264206421303E1E88
:102F5F0020651B9001857403F090016DE0FF600503
:102F6F00D39464400690016D7426F01244C37D0122
:102F7F007F02122233206503203D1230640302309A
:102F8F003C203E0302303C30650302303C9001850B
:102F9F007404F020650D20640A7F0B1220F77F2048
:102FAF00124BF3203F0620470302303C90018574FB
:102FBF0005F0E4900219F09001B8E075F005A4FF58
:102FCF00900219E0C39FE5F06480F8748098501D5B
:102FDF002064033065082054057F2012487C7D0251
:102FEF007F02122233900219E004F080CA303F179B
:102FFF00C23F90016DE0FF6005D3946440069001DD
:10300F006D742DF01244C3124BEF7F1F124BF37FE1
:10301F0020124BF37F23124BF3E53620E2057F247A
:10302F00124BF37F25124BF37F27124BF3A26592BE
:0F303F003DA264923E7D027F02122233022E8F49
:103B9900E490021BF07BFF7A4D792D121A0212492B
:103BA900D590021BE014601614602014602B146079
:103BB9004624046003023C6BEFB406E2801EEF70FA
:103BC900028019EFB40602801F8025EFB40102803C
:103BD9000BEFB4060280118017EF700890021BE00A
:103BE90004F080BAEFB4060890021B7401F080AEAD
:103BF900E490021BF080A7EF75F014A4900124F063
:103C0900E490021BF0EF703290016D7462F012447F
:103C1900C37BFF7A4D7937121A027F071221807D03
:103C2900647F021222337F021221807D647F021297
:103C390022337F06122180023BA7205803023BA7AB
:103C49007BFF7A4D793B900171E0FCA3E0FDA3E095
:103C5900FEA3E0FF90021F121880121A02C2580236
:0A3C69003BA7E490021BF0023BA70A
:1043E8009001887401F09001A1E075F00AA4FD7FA6
:1043F80002122233E4900245F09001B9E0FF9002E6
:1044080045E0C39F503A7F1D12487C9001A2E07599
:10441800F00AA4FD7F021222339001887402F07F13
:104428001D124BF39001A2E075F00AA4FD7F021261
:1044380022339001887403F0900245E004F080B9BB
:0B4448009001887404F07F0B022180BB
:104632007D327F021222331247C7124A71E53E20B1
:10464200E738E53020E4337F0C124BF39001C3E0EE
:1046520075F00AA4900121F030451290016DE0FF3F
:104662006005D39464400690016D740CF0D2401240
:104672004A711244C37F0C1221807D057F021222EF
:034682003380B4CE
:1048A3007D327F021222331247C7124A71E53E203E
:1048B300E72AE53020E5257F0D124BF330451290B2
:1048C300016DE0FF6005D39464400690016D740DA3
:1048D300F0124A711244C37F0D1221807D057F02BD
:0548E30012223380C227
:1045DC007D327F021222331247C7124A71E53E2008
:1045EC00E73BE53130E605E52F20E2317F10124B39
:1045FC00F330451C90016DE0FF6005D394644010CE
:10460C00E53190016D20E6057416F080037402F01C
:10461C00C257124A711244C37F0E1221807D057F4E
:06462C000212223380B1EE
:103D4600C25690024E12188C00004B00E4900252AC
:103D5600F07B027D09FF123F7190024AEFF0124C90
:103D66007190024AEFF01224B97D027F02122233CB
:103D76003056F3900171E0FCA3E0FDA3E0FEA3E062
:103D8600FF781812185AE4AD07FF7E02124D0D9007
:103D96000171E0FCA3E0FDA3E0FEA3E0FF781012B2
:103DA600185AE4AD077F017E02124D0D900171E0B5
:103DB600FCA3E0FDA3E0FEA3E0FF780812185AE496
:103DC600AD077402FFFE124D0D900171E0FCA3A336
:103DD600A3E0FFE4AD077F037E02124D0DE49002DF
:103DE60049F0900249E0FF7E002496F582E4340112
:103DF600F583E0FD124D0D900249E004F0E0C39416
:083E06004040DFC256023D6C92
:1046D8009001DAE07002A3E0600790016D7439F090
:1046E800229001D8E07002A3E0600790016D743752
:1046F800F022E52F30E029C2477F0112487C7F264F
:1047080012487C7F04124BF37D037F02122233D2BE
:1047180045E490016DF07F26124BF37F2712487C09
:01472800226E
:0644BD00740E90016DF089
:1044C3003045537F0412487C7F01124BF3124A712B
:1044D300C245E53320E53D20E63A900184E0FFC381
:1044E30094024006EFD39409402A7F1E124BF37FB8
:1044F3001F124BF37F20124BF37F23124BF3E5364E
:1045030020E2057F24124BF37F25124BF37F271202
:104513004BF38002D24790016DE0700374C5F02223
:10485C0090019EE075F00AA4FF90016BE5F0F0A3C7
:10486C00EFF0D2529001DC7402F0A37458F07F2F59
:10487C00EF75F00812161F2437F8C000E6FEEF752E
:10488C00F00812161FAFF07401A807088002C3339A
:07489C00D8FC4ED000F6220B
:044BEF00C2477F1E1C
:104BF300EF75F00812161F2437F8C000E6FEEF75B4
:104C0300F00812161FAFF07401A807088002C3331F
:084C1300D8FCF45ED000F6228B
:104AD500EF75F00812161F2437F8E6FD7C00EF7518
:104AE500F00812161FAFF074017E00A807088005B4
:104AF500C333CE33CED8F9FFEE5CFEEF5D4E24FF17
:014B0500228D
:10492600EF75F00812161FFEC374079E2437F8E6CB
:10493600FD7C00EF75F00812161FAFF0C374079FD9
:10494600FF74017E00A807088005C333CE33CED896
:0B495600F9FFEE5CFEEF5D4E24FF2237
:104C1B00EF75F00812161FFEC374079E242FF8C001
:104C2B0000E6FEEF75F00812161FAFF07401A8072F
:0C4C3B00088002C333D8FC4ED000F622E3
:104BC200EF75F00812161FFEC374079E242FF8C05B
:104BD20000E6FEEF75F00812161FAFF07401A80789
:0D4BE200088002C333D8FCF45ED000F62238
:1047C700C284C285D286D284A28692727F3F30721B
:1047D70005124C1B8003124BC2900248743EF090A6
:1047E7000248E0FFC3648094804020D285A286926D
:1047F70072C285307205124C1B8008900248E0FF98
:0C480700124BC2900248E014F080D42252
:104A7100C283C283E4900248F0900248E0FFC3641D
:104A81008094C05018C2821249265004D2808002FC
:104A9100C280D28200900248E004F080DCD283C25E
:024AA100812270
:102AB900900261EBF0A3EAF0A3E9F0E4900269F077
:102AC900C3ED9401EC94005003022C9D900267E041
:102AD9002DFF900266E03CFED3EF9455EE94004042
:102AE90003022C9D900194E0FEA3E0FFC3ED9FFF3C
:102AF900EC9EFE900268E0147003022BEE04600362
:102B0900022CA3D3900267E09400900266E094003F
:102B19005003022CA3EF9404EE648094805025EFB7
:102B290025E02437F8E6FD900261E0FBA3E475F0A7
:102B3900011216E3A9F0FAED121687EF25E0243801
:102B4900F8E68076C3EF9444EE6480948050219037
:102B59000261E0FBA3E475F0011216E3A9F0FAE4BF
:102B690012168774922FF58274013EF583E0804A2C
:102B7900C3EF9453EE648094805021900261E0FB8E
:102B8900A3E475F0011216E3A9F0FAE412168774AA
:102B9900392FF58274013EF583E0801EEF64534EB0
:102BA900702D900261E0FBA3E475F0011216E3A910
:102BB900F0FAE412168790016DE0FD900261E0FBE6
:102BC900A3E475F0011216E3A9F0FAED1216870FC6
:102BD900BF00010E900267E024FFF0900266E03426
:102BE900FFF0022B0C304503022C95D3900267E0CD
:102BF9009400900266E094005003022CA3EF940421
:102C0900EE64809480503A900261E0FBA3E475F091
:102C1900011216E3A9F0FA121641FDEF25E0243757
:102C2900F8A605900261E0FBA3E475F0011216E332
:102C3900A9F0FA121641FDEF25E02438F8A605801F
:102C490035C3EF9444EE64809480502A900262E484
:102C590075F0011216CD900261E0FBA3E475F00155
:102C69001216E3A9F0FA121641FD74922FF5827437
:102C7900013EF583EDF00FBF00010E900267E024DD
:102C8900FFF0900266E034FFF0022BF490026974C1
:102C990002F080069002697401F0900269E0FF2257
:1036120090025DEBF0A3EAF0A3E9F0E4900264F01B
:10362200C3ED9401EC9400500302375F900263E013
:103632002DFF900262E03CFED3EF9409EE9400402D
:103642000302375F90016EE0FEA3E0FFC3ED9FFF30
:10365200EC9E900265F0A3EFF0D3900263E0940039
:10366200900262E094005003023765900265E070B8
:1036720004A3E06405703C900171E0FCA3E0FDA3AB
:10368200E0FEA3E0FF781812185A90025DE0FBA357
:10369200E475F0011216E3A9F0FAEF121687900111
:1036A20071E0FCA3E0FDA3E0FEA3E0FF7810121896
:1036B2005A8077900265E07004A3E0640470319050
:1036C2000171E0FCA3E0FDA3E0FEA3E0FF78081295
:1036D200185A90025DE0FBA3E475F0011216E3A90B
:1036E200F0FAEF121687900171A3A3A3E0FF803ACC
:1036F200900265E0FEA3E0FFC39404EE6480948030
:10370200503CEF25E0242FF8E6FF90025DE0FBA39A
:10371200E475F0011216E3A9F0FAEF12168790028F
:1037220065A3E025E02430F8E6FF90025DE0FBA30C
:10373200E475F0011216E3A9F0FAEF12168790026F
:1037420066E004F07006900265E004F0900263E027
:1037520024FFF0900262E034FFF002365B900264D4
:093762007401F0900264E0FF2202
:03000B00021FDAF7
:101FD500C2AF80FE32121FD985D00B75D008FAC268
:101FE5008CE58A2407F58AE58C34B8F58CD28CEC1F
:101FF5002488F8E6BC0F0274FFC39581B414004031
:10200500CF7910786716E608700BC2AFE630E103AA
:102015004418F6D2AF08D9EDEA8BD0D27722E50C79
:10202500FF232468F80F0808EFB50C061077034363
:102035008701BF10047F007868E630E4E800E50C0E
:10204500C39F5020050C7487250CF8E6FDA6810872
:10205500E6AE0CBE0F0274FFCDF8E86D60E008E651
:10206500C0E080F6E50CD39F4027E50C2488F8E610
:10207500AE0CBE0F0274FFFD18E6CDF8E5816D606C
:1020850006D0E0F61880F5E50C2487C8F6150C8017
:10209500D3E50C232468F87F04C2AFE630E00310D3
:1020A500E20C7F0030E10730E3047F0854F4C2E717
:1020B500C6D2AF54804207227887A681740F600686
:1020C500FF0876FFDFFB7F10E47867F608F608DF88
:1020D500FA78687630904C93740193C0E0E493C02D
:1020E500E0438901758A00758CB8D28CD2AFD2A92C
:0220F500220FB8
:0832E9004102E8FF4102E5FF8C
:104A3E0020752FC2AC207409207606D2748F99800F
:104A4E001F9002E9E0FE04F0EE541F2447F8A6077B
:104A5E009002E6E0FF9002E9E06F541F7002D275FB
:034A6E00D2AC22A5
:10468500900244EFF0BF0A213075191222309002D2
:10469500E8EFF0E4FBFAFD7F011222339002E874A3
:1046A500FFF080E47F0D124A3E30751912223090DA
:1046B50002E8EFF0E4FBFAFD7F011222339002E8F5
:1046C50074FFF080E4900244E0FF124A3E900244F9
:0346D500E0FF22E1
:1049D5009002E4E0FF9002E7E0B50719122230905B
:1049E50002E5EFF0E4FBFAFD7F011222339002E5C8
:1049F50074FFF080DB9002E4E0FF04F0EF5407243D
:054A05003FF8E6FF226E
:030023000243672E
:10436700C0E0C0F0C083C082C0D075D010C2733027
:10437700982FAF99C2989002E4E02408FDE433FC3B
:104387009002E7E06D7001EC600CE0FE04F0EE5483
:1043970007243FF8A6179002E5E0FFF46003122216
:1043A7000920990330732FC2999002E9E0FF900228
:1043B700E6E06F601F20761EE0FF04F0EF541F2435
:1043C70047F8E6F599C2759002E8E0FFF460071236
:1043D70022098002C274D0D0D082D083D0F0D0E03E
:0143E70032A3
:104CB30053877F759850538EBF538EFE53890F438E
:0F4CC3008920758BD0758DD0C2ABD28EC299224D
:104B060000C2A40000000000000000D2A5000000C2
:104B160000D2A40000000000000000C2A5000000B2
:104B26000000000000C2A4000000000000000022F7
:104CD20000C2A400000000C2A500000000D2A4008F
:0E4CE200000000D2A50000000000000000222B
:104D5F000000000000C2A400000000C2A500000077
:0A4D6F0000D2A400000000C2A4223C
:104B9400124B0644A0FF124B36124BA5AF05124B25
:014BA40036DA
:104BA500D2A500C2A40000000000000000D2A400AD
:0D4BB500000000A2A5E433FF0000C2A4220E
:104C4700D2A500E4FEEF25E0FFD2A400000000009B
:104C5700000000A2A5E4334FFF00000000000000A1
:0A4C670000C2A40EEEB408DD002226
:104B360000E4FEEF30E704D2A58002C2A500000023
:104B460000D2A40000000000000000C2A400000083
:0F4B56000000000000EF25E0FF0EEEB408D522AE
:10481300AC07C2B6EC25E0FC124B94124B06EC44F9
:10482300A1FF124B36124BA5900204E064016019FC
:10483300124C47EF121687124D5F740129F9E43ABF
:10484300FA900204E014F080DF124C47EF1216874F
:09485300124BA5124CD2D2B62280
:1048E800C2B6EF25E0FF124B94900251E060191216
:1048F8001641FF124B36124BA5740129F9E43AFA16
:10490800900251E014F080E1124CD2E4FFFE000066
:0E4918000FBF00010EBE5DF6BFC0F3D2B62287
:104D4400AD07AC06ECFF7B017A0179FE9002047496
:0B4D540001F01248139001FEE0FF2266
:104D0D0090024BEDF0AB07AA06EAFFAD037B017AEB
:0C4D1D0002794B9002517401F00248E84A
:1032F1004102C6026040027F04FF333A03FF34A853
:1033010010FF39AB06FF41D017FF229200000000E9
:1033110000000000000000000000000000000000AC
:10332100000000000000000000000000000000009C
:08333100000000000000000094
:103F710090024BEFF0AE03E4900253F0ED600BC3FF
:103F810094014006EDD394F740089002537402F077
:103F9100807B90027BEDF090024BE0704A90027CB6
:103FA10074FFF0A3744DF0A37479F0900275E4F0FE
:103FB100A3F0A3F0AF06AD07C00590024EE0FCA34D
:103FC100E0FDA3E0FEA3E0FF9002561218809002EC
:103FD10052E090025AF090027BE0FFD00512452397
:103FE100900253EFF080069002537402F090025356
:103FF100E0701A120003EF70089002537403F0800E
:104001000C90024BE09002C5F0A37401F0900253B2
:03401100E0FF22AB
:10304E009002EAEBF0A3EAF0A3E9F0AD07E4C39D2A
:10305E0040030231B9ED947F40030231B9C2AF9003
:10306E0002EAE0FBA3E0FAA3E04A4B70030231420E
:10307E00E4A3F0A3F09002EDE0FEA3E0FFC39410F2
:10308E00EE648094804003023129EF7802C333CE80
:10309E0033CED8F9FF2480F58274023EF583E0FB2F
:1030AE00A3E0FAA3E04A4B603674802FF5827402D7
:1030BE003EF583E0FBA3E0FAA3E0F9C003C002C033
:1030CE00019002EAE0FBA3E0FAA3E0F9D082D083FC
:1030DE00D0E06B7008E965827003EA6583702B742B
:1030EE007F2FF58274023EF583EDF09002EAE0FB4D
:1030FE00A3E0FAA3E0F974802FF58274023EF58303
:10310E00EBF0A3EAF0A3E9F080119002EEE004F0F8
:10311E0070069002EDE004F00230839002EDE07054
:10312E0004A3E0641060047F0080027F049002EF2D
:10313E00EFF08073E49002EDF0A3F09002EDE0FE6C
:10314E00A3E0FFC39410EE648094805055EF780294
:10315E00C333CE33CED8F9247FF58274023EF58385
:10316E00E0B5052E9002EDE0FEA3E07802C333CE6B
:10317E0033CED8F9FF247FF58274023EF583E4F056
:10318E0074802FF58274023EF583E4F0A3F0A3F071
:10319E0080109002EEE004F070A19002EDE004F0D9
:1031AE008099E49002EFF0D2AF80069002EF7402A5
:0731BE00F09002EFE0FF2298
:104AA300E49002F4F09002C6E0B4011A900275E0BB
:104AB300FBA3E0FAA3E04A4B6012900275A3A3E0C4
:104AC300F912190C80069002F47406F09002F4E0D7
:024AD300FF22C0
:104C7100E490024BF09002C6E0B4010A120026E46F
:104C81009002C6F0800690024B7406F090024BE051
:024C9100FF2200
:104A0A009002C6E0701490027CA3E0FAA3E0F912C7
:104A1A00190C9002C67401F080079002C6E0B40136
:104A2A0007E49002F5F080069002F57406F0900211
:044A3A00F5E0FF2282
:1024B900E490024DF09002C6E060037F06227B01A2
:1024C9007A02794E12000EEF640160030226C19070
:1024D900024EE024FE604E0460030226C1900252BF
:1024E9007401F0A37402F0A3746DF0A37401F0A356
:1024F9007402F0A37472F07B017A027970123EC5FE
:1025090090024DEFF060030226C190027BE0FF903C
:102519000270E0FE6F6006EE60030226C17F0212C0
:102529004D940226C190026DE0FBA3E0FAA3E0F905
:10253900121641900271F09002747401F0E4900255
:102549004BF0A3F090024BE0FEA3E0FFC39410EE22
:1025590064809480400302264EEF7802C333CE3361
:10256900CED8F9247FF58274023EF583E0FF70032B
:1025790002264E900271E0FE6F600302263DEE24B2
:10258900FD603424FD606C24F6604A24F97003026E
:10259900261A2413600302264E9002527401F0A3F6
:1025A9007402F0A37472F090026DE0FBA3E0FAA349
:1025B900E0F912333A80769002527401F0A3740262
:1025C900F0A37472F090026DE0FBA3E0FAA3E0F9C6
:1025D9001234A880589002527401F0A37402F0A337
:1025E9007472F090026DE0FBA3E0FAA3E0F91239EE
:1025F900AB803A9002527401F0A37402F0A3747292
:10260900F090026DE0FBA3E0FAA3E0F91241D0805B
:102619001C9002527401F0A37402F0A37472F0903A
:10262900026DE0FBA3E0FAA3E0F912229290027492
:10263900EFF0801190024CE004F0700690024BE03C
:1026490004F002254D900270E0606D900274E0FF85
:10265900603FE4900272F0A3F0900271E04480FEC2
:1026690090026DE0FBA3E0FAA3E0F9900272E47531
:10267900F0011216E385F082F583EE1216999002A5
:1026890072E475F0011216E385F082F583EF1216F4
:102699009990027BE0FF90026DE0FBA3E0FAA3E0D2
:1026A900F9900272E0FDA3E0900253CDF0A3EDF0A2
:0B26B900123E0E90024DEFF07F002259
:1026C40000C1814001C0804101C0804100C18140FE
:1026D40001C0804100C1814000C1814001C08041EE
:1026E40001C0804100C1814000C1814001C08041DE
:1026F40000C1814001C0804101C0804100C18140CE
:1027040001C0804100C1814000C1814001C08041BD
:1027140000C1814001C0804101C0804100C18140AD
:1027240000C1814001C0804101C0804100C181409D
:1027340001C0804100C1814000C1814001C080418D
:1027440001C0804100C1814000C1814001C080417D
:1027540000C1814001C0804101C0804100C181406D
:1027640000C1814001C0804101C0804100C181405D
:1027740001C0804100C1814000C1814001C080414D
:1027840000C1814001C0804101C0804100C181403D
:1027940001C0804100C1814000C1814001C080412D
:1027A40001C0804100C1814000C1814001C080411D
:1027B40000C1814001C0804101C0804100C181400D
:1027C40000C0C101C30302C2C60607C705C5C404CD
:1027D400CC0C0DCD0FCFCE0E0ACACB0BC90908C83D
:1027E400D81819D91BDBDA1A1EDEDF1FDD1D1CDC2D
:1027F40014D4D515D71716D6D21213D311D1D0109D
:10280400F03031F133F3F23236F6F737F53534F48C
:102814003CFCFD3DFF3F3EFEFA3A3BFB39F9F838FC
:1028240028E8E929EB2B2AEAEE2E2FEF2DEDEC2CEC
:10283400E42425E527E7E62622E2E323E12120E05C
:10284400A06061A163A3A26266A6A767A56564A44C
:102854006CACAD6DAF6F6EAEAA6A6BAB69A9A868BC
:1028640078B8B979BB7B7ABABE7E7FBF7DBDBC7CAC
:10287400B47475B577B7B67672B2B373B17170B01C
:10288400509091519353529296565797559594540C
:102894009C5C5D9D5F9F9E5E5A9A9B5B995958987C
:1028A400884849894B8B8A4A4E8E8F4F8D4D4C8C6C
:1028B40044848545874746868242438341818040DC
:1045810090025AEBF0A3EAF0A3E9F0A3ECF0A3ED5B
:10459100F07FFF7DFF90025D74FFF5F01216E34599
:1045A100F0603390025AE0FBA3E475F0011216E3C8
:1045B100A9F0FA1216416DFB7A0024C4F582EA349F
:1045C10026F583E4936FFD74C42BF582EA3427F555
:0B45D10083E493FF80BFEFFEEDFF22AC
:10452300E490025BF0C2AFAF05C007900256E0FC17
:10453300A3E0FDA3E0FEA3E0FF90025D12188090CC
:1045430002617408F090025AE0900262F0D0071200
:104553004014EF640160028012900256A3A3E0FEB0
:10456300A3E0FF12477AEF6401600690025B7403D5
:0E457300F0D2AFE4900000F090025BE0FF2277
:10002600C2AFE4900001F0FD7F01124B65124D87CF
:03003600D2AF2224
:0E4D7900C2AFE4FDFF124B65124DA0D2AF2277
:103EC50090024FEBF0A3EAF0A3E9F0E4900258F07A
:103ED500A3F0C2AFC3900003E09404900002E09405
:103EE5000040667B017A007904E0FCA3E0FD124501
:103EF50081EF4E7054900004E0FF90024FE0FBA369
:103F0500E0FAA3E0F9EF121687900003E024FDFF25
:103F1500900002E034FFF9900255E0FBA3E0FAA31C
:103F2500E0C98FF012175C7B017A007905C003C0E8
:103F350002C001900252E0FBA3E0FAA3E0F91218D7
:103F4500BD9002587401F0801B7B017A00790490C2
:103F55000002E0FCA3E0FD124581EF4E60069002F1
:0C3F6500597405F0D2AF900259E0FF2221
:103E0E00E4900255F0C2AF900001E064016003023D
:103E1E003EB7E924FFF9EA34FFFA900106EBF0A36E
:103E2E00EAF0A3E9F0900104E4F0A304F090010697
:103E3E00E0FBA3E0FAA3E0F9EF121687900253E03D
:103E4E00FEA3E0FF900105E02FF0900104E03EF0AC
:103E5E00900106E0FBA3E0FAA3E0F9900104E0FC78
:103E6E00A3E0FD124581900104E475F0011216E302
:103E7E00FA740425F0F58274003AF583EFF0EEFF44
:103E8E00900104E475F0011216E3FC740425F0F5BC
:103E9E008274003CF583EFF09000007401F0FDE4B5
:103EAE00FF124B6512445380069002557405F0D2F2
:073EBE00AF900255E0FF2266
:1042E300E490026BF07B017A02796C124DA9900085
:1042F30001E014600C1460351460042403705F80C3
:104303005AE4900002F0A3F090026CE0FF900002E8
:10431300E475F0011216E3FC740425F0F5827400D1
:104323003CF583EFF09000017402F0802EC39000FF
:1043330002E09401501F90026CE0FF900002E475CC
:10434300F0011216E3FC740425F0F58274003CF5C9
:1043530083EFF080069000017403F0124D87900202
:044363006BE0FF22EA
:10445300E490026BF0900000E014600C047055E4EB
:10446300FD7F01124B65804C900104E07002A3E0D4
:10447300602C900106E0FBA3E0FAA3E0F9121641D9
:10448300FF12003E900107E475F0011216CD900172
:1044930005E024FFF0900104E034FFF080167F0371
:1044A300124D9490026BEFF0E4FD7F01124B65E433
:0A44B300900000F090026BE0FF2281
:10499C00E490026AF0900001E024FE601314601AA7
:1049AC0024037016E4FF124D9490026AEFF0800A13
:1049BC007F01124D9490026AEFF0124DA09000010D
:0949CC007401F090026AE0FF2280
:10477A00EF4E602BEF25E0FFEE33FE7C007D0C123E
:10478A001912A804A905AA06AB077F007E807D83BB
:10479A007C651217B79002F0EEF0A3EFF08007E401
:1047AA009002F0F0A3F0E4F5D8F5D975DA48900252
:0D47BA00F0E0FEA3E0F5EAEEF5FA7F012243
:0D4D8700E4F5D875DA49F5E9F5F9D2DE2238
:094DA000C2DE75DA48E4F5D82200
:03003B0002496116
:10496100C0E0C0F0C083C082C0D075D000C000C01C
:1049710001C002C003C004C005C006C00712499CA3
:10498100D007D006D005D004D003D002D001D0008A
:0B499100D0D0D082D083D0F0D0E03234
:0100390022A4
:08000300E49002F2F07F0122FB
:0C4D94009002F27401F0A3EFF07F012206
:10000E00E4FF9002F2E0600BA3E0121687E4900288
:04001E00F2F00F22CB
:104B6500EF6007ED6004D2908015EF700AED6007E5
:104B7500D290539AEF800BEF600CED7009C2904311
:0F4B85009A1043AF0122C290539AEF53AFFE2212
:1040140090025CEFF07F007EC27D017C00A3E0F89B
:10402400A3E0F9A3E0FAA3E0FBD31218495016E485
:104034007F807E25FDFC90025DE0F8A3A3A3E0C38E
:10404400121849500A90025D12188C00004B00901F
:10405400025DE0F8A3E0F9A3E0FAA3E0FB7F007EB1
:10406400807D517C011217B7E47B20FAF9F812170E
:10407400B7EFF404F59C90025CE0B4011553877F1C
:10408400759850438E04438E01438E10C29CC2AC7B
:104094008012538EF7759A50438E04438E10539AB0
:0940A400EF53AFFEC2907F012230
:05003E008F9B7F0122F1
:084DA900E59B1216877F012231
:034DB10002445366
:034DB4000242E3D5
:0300430002472948
:10472900C0E0C0F0C083C082C0D075D000C000C056
:1047390001C002C003C004C005C006C007E59A3025
:10474900E006539AFE124DB4E59A30E109539AFDF9
:10475900309003124DB1D007D006D005D004D00354
:10476900D002D001D000D0D0D082D083D0F0D0E018
:01477900320D
:01003A0022A3
:1041D00090024FEBF0A3EAF0A3E9F0E4900257F06D
:1041E000900252E0FBA3E0FAA3E0F91216F964058D
:1041F00045F0705C90024FE0FBA3E0FAA3E0F99079
:10420000000112165A900255F0A3E4F09000021239
:10421000165AFF900255E0F0A3E04FF0E004F07072
:1042200006900255E004F0E92403F9E43AFA90021A
:1042300055E0FCA3E0FD900266E4F0A304F0A3F0D7
:10424000122AB9EF6010124CF0900257EFF080067E
:0C4250009002577403F0900257E0FF2228
:1039AB0090024FEBF0A3EAF0A3E9F0E4900259F098
:1039BB00900252E0FBA3E0FAA3E0F91216F9C394CC
:1039CB0006E5F094005003023A9890024FE0FBA3F7
:1039DB00E0FAA3E0F990000112165A900255F0A3F9
:1039EB00E4F090000212165AFF900255E0F0A3E0AB
:1039FB004FF0E004F07006900255E004F0900003E5
:103A0B0012165A900257F0A3E4F090000412165AC3
:103A1B00FF900257E0F0A3E04FF090000512165A0A
:103A2B00FF900257E0FCA3E0FDC39401EC9400402F
:103A3B005CD3ED9478EC94005053ED25E06F704D12
:103A4B0090024FE0FBA3E0FAA3E02406F9E43AFA74
:103A5B00900255E0FCA3E0FDA3E0FFA3E09002661B
:103A6B00CFF0A3EFF0A37401F0122AB9EF600A12A2
:103A7B004CF0900259EFF0801A900252E0FBA3E059
:103A8B00FAA3E0F9E475F00512175C800690025971
:093A9B007403F0900259E0FF22CF
:1034A80090024FEBF0A3EAF0A3E9F0E490025CF09D
:1034B800900252E0FBA3E0FAA3E0F91216F96405C2
:1034C80045F0600302360690024FE0FBA3E0FAA342
:1034D800E0F990000112165A900255F0A3E4F0901A
:1034E800000212165AFF900255E0F0A3E04FF0E0F8
:1034F80004F07006900255E004F090000312165A8A
:10350800900257F0A3E4F090000412165AFF7E00D0
:10351800900257EEF0A3EFF0C39401EE940050032D
:10352800023606D3E0947D900257E09400400302EF
:10353800360690024FE0F9A3E0FAA3E0900259C9D9
:10354800F0A3EAF0A3E9F0900252E0FBA3E0FAA3AB
:10355800E0F9E4F5F012175C900259E0FBA3E4757A
:10356800F0011216E3A9F0FA7403121687900252BA
:10357800E0FBA3E0FAA3E0F9E475F0011217249048
:103588000257A3E025E0FFA3E0FBA3E475F00112D6
:1035980016E3A9F0FAEF121687900252E0FBA3E0B7
:1035A800FAA3E0F9E475F001121724900259E0FB40
:1035B800A3E0FAA3E0F9900255E0FCA3E0FDA3E044
:1035C800FFA3E0900266CFF0A3EFF0E4A3F0122A85
:1035D800B9EF600A124CF090025CEFF0802690027E
:1035E80058E025E0FF900257E033FE900252E0FBDE
:1035F800A3E0FAA3E0F9EE8FF012172480069002F8
:0A3608005C7403F090025CE0FF2206
:1022920090024FEBF0A3EAF0A3E9F0E4900260F0C1
:1022A200900252E0FBA3E0FAA3E0F91216F9C394FC
:1022B2000AE5F0940050030224B390024FE0FBA31E
:1022C200E0FAA3E0F990000112165A900255F0A329
:1022D200E4F090000212165AFF900255E0F0A3E0DB
:1022E2004FF0E004F07006900255E004F090000315
:1022F20012165A900257F0A3E4F090000412165AF4
:10230200FF900257E0F0A3E04FF090000512165A3A
:10231200900259F0A3E4F090000612165AFF9002C0
:1023220059E0F0A3E04FF0E004F07006900259E0AB
:1023320004F090000712165A90025BF0A3E4F090AA
:10234200000812165AFF90025BE0F0A3E04FF090F3
:10235200000912165AFD900257E0FEA3E0FFC39453
:1023620001EE940050030224ADD3EF947DEE94006D
:1023720040030224AD90025BE0FEA3E0FFC39401A0
:10238200EE940050030224ADD3EF9479EE94004012
:10239200030224ADEF25E0FFEE33FEED6F7001EE98
:1023A20060030224AD90024FE0FBA3E0FAA3E02415
:1023B2000AF9E43AFA900259E0FCA3E0FDA3E0FF37
:1023C200A3E0900266CFF0A3EFF0A37401F0122A0B
:1023D200B9AD07ED600302249F90024FE0F9A3E03C
:1023E200FAA3E090025DC9F0A3EAF0A3E9F090023B
:1023F20052E0FBA3E0FAA3E0F9E4F5F012175C90D7
:10240200025DE0FBA3E475F0011216E3A9F0FA7491
:1024120017121687900252E0FBA3E0FAA3E0F9E458
:1024220075F001121724900257A3E025E0FF9002F5
:102432005DE0FBA3E475F0011216E3A9F0FAEF12D6
:102442001687900252E0FBA3E0FAA3E0F9E475F0EC
:102452000112172490025DE0FBA3E0FAA3E0F990D9
:102462000255E0FCA3E0FDA3E0FFA3E0900266CFEB
:10247200F0A3EFF0E4A3F0122AB9AD07ED701E90BD
:102482000258E025E0FF900257E033FE900252E04E
:10249200FBA3E0FAA3E0F9EE8FF0121724ED60112E
:1024A200FF124CF0900260EFF0800690026074031D
:0724B200F0900260E0FF2240
:10376B009002C7EBF0A3EAF0A3E9F09002CDE0FFE3
:10377B009002D4E4F0A3EFF0EDAE047803CEC313C4
:10378B00CE13D8F9FF9002D2EEF0A3EFF09002D255
:10379B00E0FEA3E07803C333CE33CED8F9FFC3EDFD
:1037AB009FFFEC9E9002D4E0FEA3E0A807088005E3
:1037BB00C333CE33CED8F9F0EE9002D4F09002CCD6
:1037CB00E0FF74017E00A807088005C333CE33CE1B
:1037DB00D8F924FFFFEE34FF9002D0F0A3EFF0A353
:1037EB00A3E075F008A4FFC3ED9FFF9002D0E0FEAD
:1037FB00A3E0A807088005C333CE33CED8F9F0EE8B
:10380B009002D0F09002C7E0FBA3E0FAA3E0F9909E
:10381B0002D2E0FEA3E0F5828E8312165AFF9002CD
:10382B00CEE4F0A3EFF09002D3E02401FF9002D29C
:10383B00E034008F82F58312165AFE9002CEE04ED2
:10384B00F0A3E0F0A3E0FEA3E0F4FFEEF4FE9002A1
:10385B00CEE05EFEA3E05FFF9002D4E04EFEA3E05D
:10386B004FFF9002CEEEF0A3EFF09002D2E0FCA35C
:10387B00E0FDF5828C83EF1216999002CEE08D82DB
:06388B008C83A3021699D4
:103C73009002D6EBF0A3EAF0A3E9F0EDAE047803EB
:103C8300CEC313CE13D8F9FF9002E0EEF0A3EFF00A
:103C93009002E0E0FEA3E07803C333CE33CED8F93D
:103CA300FFC3ED9FFFEC9E9002E2F0A3EFF09002C2
:103CB300DBE0FF74017E00A807088005C333CE3321
:103CC300CED8F924FFFFEE34FF9002DEF0A3EFF02D
:103CD3009002D6E0FBA3E0FAA3E0F99002E0E0FE55
:103CE300A3E0F5828E8312165AFF9002DCE4F0A360
:103CF300EFF09002E1E02401FF9002E0E034008F56
:103D030082F58312165AFE9002DCE04EF0A3E0F037
:103D13009002E2A3E0FF9002DCE0FEA3E0A8070824
:103D23008005CEC313CE13D8F9FF9002DCEEF0A3C7
:103D3300EFF0A3E05EFEA3E05FFF9002DCEEF0A3F2
:033D4300EFF0227C
:104CF000EF14600C24FA600C2407700CE4FE800AA8
:0D4D00007E0280067E0680027E04AF062241
:10333A0090024FEBF0A3EAF0A3E9F0E490025CF00C
:10334A00900252E0FBA3E0FAA3E0F91216F9640531
:10335A0045F0600302349C90024FE0FBA3E0FAA31D
:10336A00E0F990000112165A900255F0A3E4F09089
:10337A00000212165AFF900255E0F0A3E04FF0E067
:10338A0004F07006900255E004F090000312165AF9
:10339A00900257F0A3E4F090000412165AFF90022C
:1033AA0057E0FEA3E04FFF900257EEF0FEA3EFF0C6
:1033BA00C39401EE9400500302349CE0947D900281
:1033CA0057E09400400302349C90024FE0F9A3E0D6
:1033DA00FAA3E0900259C9F0A3EAF0A3E9F0900237
:1033EA0052E0FBA3E0FAA3E0F9E4F5F012175C90CF
:1033FA000259E0FBA3E475F0011216E3A9F0FA748E
:10340A0004121687900252E0FBA3E0FAA3E0F9E463
:10341A0075F001121724900257A3E025E0FFA3E0FC
:10342A00FBA3E475F0011216E3A9F0FAEF1216876E
:10343A00900252E0FBA3E0FAA3E0F9E475F001126E
:10344A001724900259E0FBA3E0FAA3E0F990025591
:10345A00E0FCA3E0FDA3E0FFA3E0900262CFF0A3AB
:10346A00EFF0123612EF600A124CF090025CEFF0A5
:10347A008026900258E025E0FF900257E033FE9044
:10348A000252E0FBA3E0FAA3E0F9EE8FF012172450
:0E349A00800690025C7403F090025CE0FF225A
:1020F700EFD3940F40037FFF2274682F2FF8E62059
:10210700E5F4C2AFE64430F6D2AFAE0CEEC39F5053
:10211700210E74872EF8E6F908E618BE0F0274FF41
:10212700FDED69600909E71919F7090980F3161622
:1021370080DAEED39F400405810581EED39F4022CC
:1021470074872EF808E6F9EEB50C02A98118060681
:10215700E6FDED6960091919E70909F71980F31E0A
:1021670080D9EF2487F8E604F8EF2F04904C939377
:09217700F608EF2F93F67F002219
:10218000EFD3940F40037FFF22EF232468F8E6305B
:10219000E5F4C2AFE6548CF6D2AFE50CB5070A748D
:1021A000872FF8E6F581022023502E74882FF8E659
:1021B000BF0F0274FFFD18E6F974872FF8FBE6FCE9
:1021C000E96C6008A805E7F61D1980F4A803A605C8
:1021D0001FE50CB507E37F002274882FF8E6FD1891
:1021E00086010F74872FF8A601088604E50CB50751
:1021F00002AC81ED6C60080D09A805E6F780F4E5F6
:092200000CB507DE89817F002284
:10220900EFD3940F40037FFF22EF232468F8C2AF76
:10221900E630E50530E002D2E4D2E2C6D2AF7F0073
:0722290030E2010F0220204A
:03223000AF0C22CE
:102233008FF0E4FFFEE50C232467F8C2A930F70D05
:102243007F08E6600B2DF660325030800730F106D0
:10225300EDF660277E020830F010C2AFE610E725E6
:102263000E30E20CD2AF7F048014C2AFE610E71544
:1022730054EC4EF6D2AFD2A90220237F0808EF44D4
:0F22830083F4C2AF56C6D2AFD2A954804FFF2208
:104150000220BDE493A3F8E493A34003F68001F2A8
:1041600008DFF48029E493A3F85407240CC8C33370
:10417000C4540F4420C8834004F456800146F6DF3F
:10418000E4800B01020408102040809031C5E47ED9
:10419000019360BCA3FF543F30E509541FFEE49334
:1041A000A360010ECF54C025E060A840B8E493A3FB
:1041B000FAE493A3F8E493A3C8C582C8CAC583CA26
:1041C000F0A3C8C582C8CAC583CADFE9DEE780BEDE
:013339000093
:10161F00C2D530F707B2D563F0FF05F030E70CB253
:10162F00D5F4048463F0FF05F080018430D502F413
:02163F00042283
:10164100BB010689828A83E0225002E722BBFE02A7
:09165100E32289828A83E49322DA
:10165A00BB010CE58229F582E5833AF583E0225045
:10166A0006E92582F8E622BBFE06E92582F8E2228F
:0D167A00E58229F582E5833AF583E49322A9
:10168700BB010689828A83F0225002F722BBFE0142
:02169700F3223C
:10169900F8BB010DE58229F582E5833AF583E8F087
:1016A900225006E92582C8F622BBFE05E92582C833
:0216B900F2221B
:1016BB00EF8DF0A4A8F0CF8CF0A428CE8DF0A42E43
:0216CB00FE22FD
:1016CD00C5F0F8A3E028F0C5F0F8E58215827002A8
:0616DD001583E038F02245
:1016E300A3F8E0C5F025F0F0E582158270021583BA
:0616F300E0C838F0E82217
:1016F900BB010A89828A83E0F5F0A3E022500687BC
:10170900F009E71922BBFE07E3F5F009E31922897D
:0B171900828A83E493F5F074019322B0
:10172400BB010789828A830216CD500B09C5F027B5
:10173400F7C5F01937F722BBFE0D09F8E325F0F3DE
:10174400C5F019E338F322F889828A83740193255A
:08175400F0C5F0F8E49338221F
:10175C00BB010A89828A83F0E5F0A3F0225006F7D8
:0F176C0009A7F01922BBFE06F3E5F009F31922D5
:10177B0075F008758200EF2FFFEE33FECD33CDCC25
:10178B0033CCC58233C5829BED9AEC99E5829840A8
:10179B000CF582EE9BFEED9AFDEC99FC0FD5F0D685
:1017AB00E4CEFBE4CDFAE4CCF9A88222B800C1B9AF
:1017BB000059BA002DEC8BF084CFCECDFCE5F0CBED
:1017CB00F97818EF2FFFEE33FEED33FDEC33FCEB26
:1017DB0033FB10D703994004EB99FB0FD8E5E4F9E1
:1017EB00FA227818EF2FFFEE33FEED33FDEC33FCCE
:1017FB00C933C910D7059BE99A4007EC9BFCE99AC2
:10180B00F90FD8E0E4C9FAE4CCFB2275F010EF2F06
:10181B00FFEE33FEED33FDCC33CCC833C810D70706
:10182B009BEC9AE899400AED9BFDEC9AFCE899F841
:0E183B000FD5F0DAE4CDFBE4CCFAE4C8F922D4
:10184900EB9FF5F0EA9E42F0E99D42F0E89C45F0F5
:01185900226C
:10185A00E8600FECC313FCED13FDEE13FEEF13FF6C
:03186A00D8F12290
:10186D00E8600FEFC333FFEE33FEED33FDEC33FCD9
:03187D00D8F1227D
:0C188000ECF0A3EDF0A3EEF0A3EFF022DB
:10188C00A8828583F0D083D0821218A31218A312D9
:10189C0018A31218A3E473E493A3C583C5F0C583FE
:1018AC00C8C582C8F0A3C583C5F0C583C8C582C8A6
:0118BC002209
:1018BD00BB011A89828A83D0F0D0E0F8D0E0F9D04C
:1018CD00E0FAD0E0FBE8C0E0C0F002195F5016E985
:1018DD00F8D083D082D0E0F9D0E0FAD0E0FBC0821E
:1018ED00C08302193FBBFE16E9F8D083D082D0E049
:0F18FD00F9D0E0FAD0E0FBC082C0830219682264
:06190C008A838982E47366
:10191200EC8EF0A4CCC5F0CCCDF8EFA4CEC5F02D62
:10192200FDE43CFCE8A42EC8C5F03DFDE43CFCEF20
:0D193200A4FFE5F028FEE43DFDE43CFC22AE
:10199700E518241FF582E43402F583E00518229048
:1019A700021C306E0390021FE475F0011219480201
:1019B70016412067E97F2ED2678018EF540F2490D5
:1019C700D43440D4FF306B0BEF24BFB41A0050035C
:1019D7002461FFE51960021519051CE51C70020555
:1019E7001B306E0E90021CE475F001121948EF02CD
:1019F70016870246857403D26E8003E4C26EF5181B
:101A070090021C12195FE4F519F51BF51CE5196026
:101A1700077F201219DA80F5751AFFC268C267C2FC
:101A270069C26AC26CC26DC26F1219A6FF700D300F
:101A37006E057F001219EBAF1CAE1B22B4255FC2E7
:101A4700D5C26B1219A6FF24D0B40A00501A75F03C
:101A57000A781930D50508B6FF0106C6A426F62070
:101A6700D5047002D26A80D924CFB41A00EF50048B
:101A7700C2E5D26B021BECD26880C6D26780C0D2A7
:101A87006980BCD2D580BAD26C80B47F201219DAB3
:101A97002069077401B5190040F1121997FF12194F
:101AA700DA021A14D26FD26D8095121997FB1219A8
:101AB70097FA121997F94A4B700679BD7A1C7BFF82
:101AC70020692EE519602A7E008E82758300121622
:101AD7005A60060EEE651A70F0C2D5EBC0E0EAC098
:101AE700E0E9C0E0EE121C33D0E0F9D0E0FAD0E034
:101AF700FB121641FF60AAEBC0E0EAC0E0E9C0E0D4
:101B07001219DAD0E02401F9D0E03400FAD0E0FB72
:101B1700E51A0460DCD51AD980877BFF7A1C792FF8
:101B2700D269809C791080027908C26DC26F8008E3
:101B3700D2D5790A8004790AC2D5E51A047002F56C
:101B47001AE4FAFDFEFF121997FC7B0820681312AE
:101B57001997FD7B1030670A121997FE121997FF24
:101B67007B20EC3382D592D55013C3E43067069FB0
:101B7700FFE49EFEE42068039DFDE49CFCE4CBF8B3
:101B8700C268EC700CCFCECDCCE824F8F870F380A7
:101B970017C3EF33FFEE33FEED33FDEC33FCEB33CE
:101BA700FB994002FB0FD8E9EB306805F8D0E0C499
:101BB70048B268C0E00AEC4D4E4F78207B0070C2F7
:101BC700EAB51A0040BCC0E0121C35D0F0D0E020C6
:101BD7006804C4C0E0C4B268C0F01219C3D0F0D51D
:101BE700F0EB021A141219711AB1531B2B581A82EF
:101BF7004C1A7E421B2F4F1B37441B37491A9743FA
:081C07001B3D551B21461B216A
:101C0F00451B21471CDD501A862D1A8A2E1AAD2B23
:101C1F001A8E231AAB201CC62A1A464800001AA592
:101C2F003F3F3F00790AA2D5206A14306C09B910E2
:101C3F00020404B9080104A2D5206D02500104204A
:101C4F0069689269B519005034C0E07F20306A1975
:101C5F007F30A269726D726C500F121C8CC269C2F8
:101C6F006DC26CC26F7F30800F306C03E9C0E01221
:101C7F0019DA306C03D0E0F9D0E0B519CC306C171D
:101C8F007F30B9100C1219DA7F58306B077F7880CC
:101C9F0003B908031219DA3069057F2D0219DA7FAB
:101CAF0020206FF87F2B206DF322926980CF286E52
:101CBF00756C6C2900D2681219973068F8C2687871
:101CCF001930D50108F6021A462D504349581219FA
:101CDF00972403B405004001E4901CD8931219CB4C
:0D1CEF00743A1219CBD26A751904021B2B2E
:09193F00EBF608EAF608E9F622CD
:10194800F8E0FBA3A3E0F925F0F0E5821582700228
:071958001583E0FA38F022CC
:09195F00EBF0A3EAF0A3E9F02289
:09196800EBF208EAF208E9F222B0
:10197100D083D082F8E4937012740193700DA3A305
:1019810093F8740193F5828883E473740293686019
:06199100EFA3A3A380DF19
:00000001FF
