:024CEC00405A2C
:024CEE00418DF6
:024CF00000467C
:024CF2003AEA9C
:024CF4001D425F
:024CF60038D7AD
:024CF80010DAD0
:024CFA0009E2CD
:024CFC002ED5B3
:024CFE002CEF99
:024D00003BDF97
:024D020044412A
:024D0400468BDC
:024D060048FC67
:024D080046352E
:024D0A003D8CDE
:0300000002422495
:0C422400787FE4F6D8FD7581A102426BA2
:104D82002A2A2D0073746172746564210A002A2A2A
:0B4D92002E002A2A5028256C752900ED
:10320B00420194000142016E00014101D7F460407C
:10321B0001290A050303050A0328010023000304FF
:10322B00140F0F1A010501006401040407030A0AB5
:10323B000F0F030F14010000140A010003141405EF
:10324B000200001414000000000000000000000049
:10325B0000AAC14BC14AC14CC148C149C1D84201A6
:10326B0075000041012300420192000042019000D1
:10327B00004201DC00004201DA00004201D80000EC
:10328B004101D60042012500004201270000410107
:10329B002400C180C181C104C105C106C107C10899
:1032AB00C10AC10DC10FC110C112C113C115C11784
:1032BB00C118C11AC11DC11EC1A0C1A2C1A4C1A602
:1032CB00C128C12AC12CC12EC12FC131C132C1B4F9
:1032DB00C1B6C137C1394101090041010A004101A1
:1032EB000B0042010C000041010E0041010F004197
:1032FB0001100041011100420112000042011400B3
:10330B0000420116000041011800C13BC13C4101C4
:10331B001900C13DC13EC13F45011A00000000002C
:04332B0041011F003D
:10405A0012290A7F0912213D7D0A7F021222797FE5
:10406A000312213D7D0A7F021222797F0412213D2B
:10407A007D0A7F021222797F0512213D7D0A7F0285
:10408A001222797F0612213D7D0A7F021222797F50
:10409A000712213D7D0A7F021222797F0812213DF3
:1040AA007D0A7F021222797F0A12213D7D0A7F0250
:1040BA001222797F0F12213D7D0A7F021222799006
:1040CA000124E0700F7D647F0212227990016D74E1
:1040DA0061F080EBE490016DF07F0212213D7DFAE0
:0A40EA007F02122279E4FF0221C6D2
:10290A00124D0CE490016DF0900177F0A3F0A3F062
:10291A00A3F0A3F0A3F0900121F0A3F0900120F01E
:10292A00900170F0C255C253C24190016BF0A3F0FE
:10293A0090018EF0A3F0C24DC24FC24EC244C240B3
:10294A00C257D254C243C252C247124ACA7D647F96
:10295A00021222797D647F021222797D647F02123B
:10296A0022797D647F021222797D647F02122279A4
:10297A009001FA1218D200000000E47F02FEFDFC6A
:10298A009001FAE0F8A3E0F9A3E0FAA3E0FBC3128E
:10299A00188F5068E49001F9F09001F9E0FFC364E0
:1029AA00809488500B74382FF8E4F6E004F080E93C
:1029BA00E49001F9F09001F9E0FFC364809490502B
:1029CA0019EF3395E0FE747D2FF58274013EF5838D
:1029DA00E4F09001F9E004F080DB9001FAE0FCA356
:1029EA00E0FDA3E0FEA3E02401FFE43EFEE43DFD9A
:1029FA00E43CFC9001FA1218C60229847F041248AA
:102A0A00D57F01124C4C124ACAC245E49001F9F032
:102A1A009001F9E0FFC3648094C05025EF3395E03C
:102A2A00FE124D9D9001F9E0FD3395E0FC74962D60
:102A3A00F58274013CF583EFF09001F9E004F0802F
:102A4A00CF1248207F017E02124D9DE4FCFDFE78E4
:102A5A00101218B3C004C005C006C0077F007E026A
:102A6A00124D9DE4FCFDFE78181218B3D003D00273
:102A7A00D001D000EF2BFFEE3AFEED39FDEC38FC29
:102A8A00C004C005C006C0077402FFFE124D9DE4D3
:102A9A00FCFDFE78081218B3D003D002D001D00092
:102AAA00EB2FFFEA3EFEE93DFDE83CFCC004C00511
:102ABA00C006C0077F037E02124D9DE4FCFDFED0D6
:102ACA0003D002D001D000EB2FFFEE3AFEED39FD24
:102ADA00EC38FC9001711218C6E53330E21230E38B
:102AEA000FE53530E30A9001711218D20000000098
:052AFA007F2E0248D50B
:100046007D647F02122279124820124ACA7D017FFE
:1000560002122279E53F20E7EEE530139221E530E2
:10006600A2E19202A2E4920330033220052FE53783
:1000760030E0079001D4E04401F07F30124B2E505F
:10008600079001D4E054FEF0D25674C6124518E526
:100096003030E4097DC87F0212227980F230212EA9
:1000A60030202B30021130040E20000B20030820D4
:1000B6000505124731803230032F30052C200129E7
:1000C60020022620042390016D74C6F0801820219A
:1000D6001820201590016DE0FF6005D3946440065A
:1000E60090016D7463F012451C300205300402D293
:1000F60000200205200402C200300305300502D2AA
:1001060001200305200502C201A2219220A202922B
:1001160004A2039205E53130E6057F13124C4C909C
:10012600016DE06005C3946440077F06124C4C8065
:100136000E90016DE0C3946450057F061248D59079
:100146000178E07002A3E0600E900179E024FFF0F0
:10015600900178E034FFF090017AE0600214F090AC
:10016600017BE07002A3E0600E90017CE024FFF0CA
:1001760090017BE034FFF0900122E0600214F090E1
:100186000121E07F03600B1248D5900121E014F0B5
:100196008003124C4C900177E07F18600B1248D513
:1001A600900177E014F08003124C4CE53230E41AEB
:1001B60030E5179001C2E075F00AA4FF900178E5DA
:1001C600F0F0A3EFF07F23124C4CE53030E30B2028
:1001D60006082053057F0112213DE530A2E3920671
:1001E600E53230E3142007119001B4E075F00AA45B
:1001F60090017AF07F24124C4CE532A2E39207A2DA
:10020600E4921F301F15201E129001C1E075F00AFE
:10021600A4FF900175E5F0F0A3EFF0900175E07092
:1002260002A3E0600E900176E024FFF0900175E0F5
:1002360034FFF0A21F921EE534A2E39214A24A9262
:10024600333033342032319001D4E030E02A301498
:10025600149001C8E075F00AA4FF900114E5F0F0CF
:10026600A3EFF080137F301248D5D2489001257451
:1002760001F0A3742CF0C24CA2339232E53030E583
:1002860002D255E53530E42B200A28305525900159
:10029600B5E075F00AA4900177F09001A0E075F042
:1002A6000AA4FF90017BE5F0F0A3EFF07F25124C46
:1002B6004CC255E535A2E4920AE533A2E292383003
:1002C600380C20370990016DE0B47E02E4F0A238C4
:1002D6009237E533A2E3923A303A0C20390990017D
:1002E6006DE0B47F02E4F0A23A9239E534A2E192DD
:1002F6001B301B21201A1E900111E070189001B2CC
:10030600E075F00AA4FF900192E5F0F0A3EFF090FB
:10031600011174FAF0900111E0600214F09001925C
:10032600E07002A3E0600E900193E024FFF09001DC
:1003360092E034FFF0900192E07004A3E064017053
:10034600107F321248D57F27124C4C90010F743221
:10035600F090010FE0600214F090010FE0B4010B81
:100366007F331248D59001107464F0900110E0605C
:100376000214F0900110E0B4010B7F32124C4C9045
:10038600010E741EF090010EE0600214F090010E52
:10039600E0B4010A7F271248D57F33124C4CA21BCA
:1003A600921AE534A2E2921130111B301018201275
:1003B6001590016DE0FF6005C39464400690016DE1
:1003C6007422F012451C301105301002D212201191
:1003D60005201002C212A2119210A21D921CE53431
:1003E600A2E3921430142C2013299001C9E0700561
:1003F6001248B5801E9001D4E04401F0C24C304A48
:10040600129001C8E075F00AA4FF900114E5F0F01F
:10041600A3EFF0A2149213900123E06401702F7FE2
:1004260029124B2E500F7F29124C4C9001C5E0909B
:100436000123F080199001D6E060137F291248D578
:100446009001C5E0900123F09001D6E014F09001F0
:1004560023E0600214F0E535A2E6923520352D2022
:10046600342A3036279001CBE075F064A4FF900162
:1004760012E5F0F0A3EFF090016DE0FF6005C39484
:1004860064400690016D742EF012451C303505301F
:100496003402D236203505203402C236A2359234D3
:1004A600900112E07002A3E0600E900113E024FFB9
:1004B600F0900112E034FFF0900112E07004A3E026
:1004C600640170057F0B1248D5E536139216E536A2
:1004D600A2E19219A2E29223A2E39225A2E4922734
:1004E600A2E59229A2E6922B33922DE537A2E1925C
:1004F6003030163330153020172D7F30124B2E50EA
:1005060026C2489001D4E054FEF0C24C9001C7E0E8
:1005160075F00AA4FF900116E5F0F0A3EFF0900144
:10052600C9E060031248B5301605301502D217200F
:100536001605201502C217A21692153019052018A5
:1005460002C249A219921820231820221590016D83
:10055600E0FF6005C39464400690016D7432F012AA
:10056600451C20251820241590016DE0FF6005C369
:100576009464400690016D7433F012451C202718D0
:1005860020261590016DE0FF6005C3946440069037
:10059600016D7434F012451C30291830281590016D
:1005A6006DE0FF6005C39464400690016D7435F0FC
:1005B60012451C302B18302A1590016DE0FF60059E
:1005C600C39464400690016D7436F012451CA22354
:1005D6009222A2259224A2279226A2299228A22B11
:1005E600922A302D3E302C3B202E3820303590017B
:1005F60018E0B4392EE49001DAF0A3F07F35124CFE
:100606004C90016D7437F012451C9001ACE075F00A
:1006160064A4FF9001D8E5F0F0A3EFF0E490011890
:10062600F0800C202D09302C069001187437F0202C
:100636002D05202C02C22E302D05302C02D22EA2E2
:100646002D922C30303E302F3B203138202D3590E6
:100656000118E0B4372EE49001D8F0A3F07F3412ED
:100666004C4C90016D7439F012451C9001ACE0754C
:10067600F064A4FF9001DAE5F0F0A3EFF0E4900156
:1006860018F0800C203009302F069001187439F0CC
:10069600203005202F02C231303005302F02D231F2
:1006A600A230922F9001C9E060077F17304C0C8072
:1006B600057F17304A051248D58003124C4C90012D
:1006C600DAE07002A3E0601A7F34124C4C7F3512D8
:1006D60048D59001DBE024FFF09001DAE034FFF02A
:1006E60080057F35124C4C9001D8E07002A3E06083
:1006F6001A7F35124C4C7F341248D59001D9E0242C
:10070600FFF09001D8E034FFF080057F34124C4CA6
:100716009001D4E020E007E53630E102D24CE53620
:1007260030E10B90016DE0B49516E4F08012900173
:100736006DE0700C9001C9E0600690016D7495F053
:10074600900114E07004A3E0640170137F30124836
:10075600D5D2489001257401F0A3742CF0C24C90B8
:100766000114E07002A3E0600E900115E024FFF092
:10077600900114E034FFF0900116E07004A3E064E9
:100786000170117F30124C4CD2499001277401F050
:10079600A3742CF0900116E07002A3E0600E9001A5
:1007A60017E024FFF0900116E034FFF0900125E0F9
:1007B6007004A3E06401700C30480990016D743038
:1007C600F012451C900125E07002A3E0600E900136
:1007D60026E024FFF0900125E034FFF0900127E0A9
:1007E6007004A3E06401701230490F9001C9E06003
:1007F6000990016D7431F012451C900127E07002DA
:10080600A3E0600E900128E024FFF0900127E03479
:10081600FFF0E535A2E3920BE534A2E5920C7F1AD0
:10082600124B2E503A300B3720083490019DE07061
:10083600077F281248D5800890019DE0900109F0B5
:100846007F051248D59001A7E0700204F09001A739
:10085600E075F00AA4FF90010CE5F0F0A3EFF0902C
:10086600010CE07004A3E06401701E900109F07FA2
:1008760028124C4C9001AAE070077F05124C4C8060
:10088600089001AAE090010AF090016BE07002A3C3
:10089600E0600E90016CE024FFF090016BE034FF05
:1008A600F0900109E0B401057F281248D590010AAD
:1008B600E0B401057F05124C4C900109E06002147A
:1008C600F090010AE0600214F090010CE07002A3BF
:1008D600E0600E90010DE024FFF090010CE034FF83
:1008E600F090018DE0B401057F2A124C4C90018DE9
:1008F600E0600214F090018EE0B401167F2B124CDA
:100906004C7F2C1248D59001B0E075F00AA49001F6
:100916008FF090018EE0600214F090018FE0B40138
:10092600057F2C124C4C90018FE0600214F0900170
:10093600DCE07002A3E060109001DDE024FFF0909F
:1009460001DCE034FFF080057F2F124C4CA20B92A5
:1009560008A20C9209E535A2E5920E300E12300D72
:100966000F200F0C90019FE075F00AA490010BF088
:10097600200E05200D02C20F300E05300D02D20FDB
:1009860090010BE06401703B90016DE0FF6005D3C0
:100996009464400690016D742DF012451C124C486B
:1009A6007F1F124C4C7F20124C4C7F23124C4CE57F
:1009B6003720E2057F24124C4C7F25124C4C7F27B2
:1009C600124C4C90010BE0600214F0A20E920DE561
:0C09D6003520E20302004DD24202004D29
:10418D00E4900206F0D2539001B2E075F00AA4FD5E
:10419D007F021222799001B3E075F00AA42401FE8A
:1041AD00E435F0900178F0A3CEF07F23124C4C1241
:1041BD004820E53230E40E9001C1E075F00AA4FF0D
:1041CD009001758024E4900175F0A3F0900175E0E5
:1041DD007002A3E0601B7D0A7F021222799001B369
:1041ED00E075F00AA4FF900178E5F0F0A3EFF08000
:1041FD00DB7F021248D59001B3E075F00AA4FD7F74
:10420D00021222797F02124C4CE4900178F0A3F057
:07421D00C2537F010221C61C
:103AEA00124820124ACAE53F30E703023BD5204577
:103AFA0003023BD5E53120E103023BD590018074F6
:103B0A0001F0E53020E614D23B7D0A7F02122279C9
:103B1A0090016DE070EC746AF080E79001807402A5
:103B2A00F0303B187DFAFF1222797DFA7F021222C9
:103B3A0079C23B90016DE0B46A02E4F03045A1908D
:103B4A0001807403F0E53030E703023BD5E53130FC
:103B5A00E279E4900208F07D0A7F02122279E530C8
:103B6A0020E706900208E004F07D0A7F021222791B
:103B7A00E53020E706900208E004F07D0A7F021291
:103B8A002279E53020E706900208E004F090020866
:103B9A00E0C39402400AE53030E6057F071248D5B3
:103BAA00E4900208F07D0A7F02122279900208E06E
:103BBA0004F0E0C3942840ED7F07124C4CE5302016
:103BCA00E70990016DE07003746BF07D027F0212C9
:053BDA002279023AEA25
:101D4200124820124ACAE53F30E70302201120451B
:101D52000302200D203C03021FA79001817401F0B1
:101D6200E53120E1127D057F0212227990016DE0BA
:101D720070EE746DF080E990016DE0B46D02E4F0F4
:101D8200E53120E2127D057F0212227990016DE099
:101D920070EE746EF080E990016DE0B46E02E4F0D2
:101DA200E53020E7147D057F02122279D25D900191
:101DB2006DE070EC746BF080E790016DE0B46B0243
:101DC200E4F0305D097D647F02122279C25D204514
:101DD200097D057F0212227980F47D327F02122270
:101DE200797F0A1248D57F221248D5900197E07573
:101DF200F00AA4FD7F021222797F0C1248D57F0CD3
:101E020012213D7F0A124C4C7D147F0212227990DE
:101E120001817403F0E490020AF0E53120E34A7D87
:101E2200017F02122279900197E0FF9001A5E0C3A1
:101E32009FFFE49400FE7C007D0A12170190020AC3
:101E4200E004F0C39FEE6480F874809840CC900167
:101E52006DE06005D39464400690016D740BF07FD1
:101E620022124C4C12451C80B17F22124C4C7D0137
:101E72007F02122279E490020AF0E53120E1127D1C
:101E8200017F0212227990016DE070EE746DF08094
:101E9200E990016DE0B46D02E4F07F0C124C4C90BD
:101EA20001C3E075F00AA4900121F07F0C1221C653
:101EB2007F0D1248D57F0D12213D900198E075F0FB
:101EC2000AA4FD7F021222797F011222792045099C
:101ED2007D057F0212227980F47F211248D590017C
:101EE200817404F0E490020AF0E53120E23E7D01C3
:101EF2007F021222799001A6E075F00AA4FFAEF0EB
:101F020090020AE004F0C39FEE6480F87480984067
:101F1200D890016DE06005D39464400690016D7421
:101F22000AF07F21124C4C12451C80BD90016DE0DD
:101F3200B46E02E4F07F21124C4C9001817405F0E2
:101F4200E490020AF0E53130E0107D028005204580
:101F5200F47D057F0212227980F4E53130E003023C
:101F6200200D7F08124B2E500302200D7F0D124CC4
:101F72004C7F0D1221C67D027F021222797F0E1242
:101F820048D59001A9E075F00AA4FD7F02122279DA
:101F92007F0E124C4C2040047F0580027F041222E7
:101FA2004FC2408066E4900181F090020AF07F21E6
:101FB2001248D5E53120E23E7D017F02122279905E
:101FC20001A6E075F00AA4FFAEF090020AE004F068
:101FD200C39FEE6480F874809840D890016DE060F1
:101FE20005D39464400690016D740AF07F21124C6F
:101FF2004C12451C80BD90016DE0B46E02E4F07F8E
:1020020021124C4C7D017F02122279A245923C7D25
:09201200027F02122279021D4234
:1038D700E4900182F07F0F1248D5124ACA7DFA7F21
:1038E700021222797DFA7F021222797F0F124C4C45
:1038F700124ACA7F0412224F124820124ACA204590
:10390700030239E77F011222792045097D057F02ED
:1039170012227980F49001827401F0900199E07588
:10392700F00AA4FD7F021222799001A8E0D3940047
:103937004059E490020CF09001A8E014FF90020CAB
:10394700E0C39F502E7F091248D590019AE075F089
:103957000AA4FD7F021222797F09124C4C90019A2A
:10396700E075F00AA4FD7F0212227990020CE004B0
:10397700F080C47F091248D590019AE075F00AA437
:10398700FD7F021222797F09124C4C90018274024A
:10399700F0E490020DF0E53120E0057F081248D5EC
:1039A7007D2880052045097D057F0212227980F454
:1039B700E53120E0117F081248D57D017F021222F0
:1039C7007912482080EA7F08124C4C124ACA9001AB
:1039D700827403F07D027F021222797F0412224F44
:0A39E7007D027F021222790238FFF0
:102CEF00124820124ACA204503022ECB7D027F02D2
:102CFF00122279124820E53130E62B30E028E532F8
:102D0F0030E023205720900122E0701A90016DE0EF
:102D1F00FF6472600AEF646C6005EF64747033E4F3
:102D2F0090016DF0802C90016DE07008E53120E688
:102D3F00037472F090016DE07008E53120E00374C8
:102D4F006CF090016DE070A4E53220E09F7474F098
:102D5F00809A9001867402F07D05FF1222797D0220
:102D6F007F02122279124820E53130E62B30E0281D
:102D7F00E53230E023205720900122E0701A9001B5
:102D8F006DE0FF6472600AEF646C6005EF6474704D
:102D9F0033E490016DF0802C90016DE07008E53107
:102DAF0020E6037472F090016DE07008E53120E0C9
:102DBF0003746CF090016DE070A4E53220E09F7415
:102DCF0074F0809A2045097D027F0212227980F4E7
:102DDF007F121248D5E490020FF0E53220E1297DF1
:102DEF00017F0212227990020FE004F0C394FA409F
:102DFF00E990016DE0FF6005D39464400690016D8A
:102E0F007411F012451C80D29001867403F0E531E5
:102E1F0020E01D7F12124C4C90016DE0FF6005D336
:102E2F009464400690016D7408F012451C022CEF5B
:102E3F009001BFE075F00AA4FD7F021222797F1086
:102E4F001248D57F0E12213D90019CE075F00AA427
:102E5F00FD7F021222797F12124C4CD257900186BD
:102E6F007404F0E490020FF0F0E53220E02E7D02C2
:102E7F007F021222797F12124C4C90020FE004F065
:102E8F00D394FA40E490016DE0FF6005D394644061
:102E9F000690016D7410F012451C80CD90016DE00D
:102EAF00B47402E4F07F0612224F2045097D027FA1
:102EBF000212227980F49001867405F07D0A7F0258
:062ECF00122279022CEF33
:1010DA007F0712224F124820124ACA2045030216DD
:1010EA005BE4900183F07F011222792045097D0596
:1010FA007F0212227980F49001837401F0900183B7
:10110A007402F0E53120E0127D027F02122279900A
:10111A00016DE070EE746CF080E9E53120E6177D30
:10112A00017F02122279900211E004F0C394FA407E
:10113A00E912451680E42045097D057F02122279CD
:10114A0080F42045097D057F0212227980F4E53278
:10115A0020E0127D027F0212227990016DE070EE8A
:10116A007474F080E9E53330E1127D027F021222C5
:10117A007990016DE070EE747DF080E9E53430E03D
:10118A00127D027F0212227990016DE070EE748462
:10119A00F080E9E53230E7127D027F02122279906F
:1011AA00016DE070EE747BF080E9E53330E0127D8A
:1011BA00027F0212227990016DE070EE747CF08059
:1011CA00E92051127D017F0212227990016DE070AF
:1011DA00F0747EF080EB2057097D017F021222799C
:1011EA0080F490016DE0FF646C6022EF6472601D10
:1011FA00EF64746018EF647D6013EF6484600EEF2F
:10120A00647B6009EF647C6004EFB47E05E49001BE
:10121A006DF02045097D057F0212227980F412487B
:10122A0020E53120E00302110720E603021107E559
:10123A003220E003021107205103021107E533307F
:10124A00E103021107E53430E003021107E5323009
:10125A00E703021107E53330E003021107205703C1
:10126A0002110730E3030211077F1A124B2E4008BE
:10127A00E53320E2030211079001837403F07F1122
:10128A001248D5124ACAE53430E441900196E0FD8D
:10129A0075F00AA4FF900119E0C39FE5F06480F895
:1012AA007480984003ED70249001B7E090016AF0D1
:1012BA009001C4E0900169F0900119E004F0E0F0B7
:1012CA007F2C124C4C7F2D1248D58029E53420E41E
:1012DA0005E4900119F09001A3E090016AF09001F1
:1012EA00ABE0900169F07F2B124C4C7F2C1248D551
:1012FA007F2D124C4C9001837406F0E4900211F099
:10130A00E53120E7207D017F02122279900211E067
:10131A0004F0C394FA40E990016D740FF07F111242
:10132A004C4C12451CC257E53130E74730E6159060
:10133A00016DE0FF6005C39464400690016D740E70
:10134A00F012451C7F0E1221C69001BBE075F00A0F
:10135A00A4FD7F0212227990016DE06416600A7F73
:10136A00161248D57F2A1248D5E53130E0057F06A6
:10137A0012224F7D0F7F021222799001837407F0A7
:10138A007F10124C4C7F141248D59001B1E075F0D1
:10139A000AA4FD7F021222797F14124C4C7F11128B
:1013AA004C4C900122741EF07F131248D590018391
:1013BA007408F0E53330E1297F151248D57F1612FB
:1013CA004C4C7F2F124C4C7F2A124C4C90016DE0F2
:1013DA00FF6005D39464403490016D7419F00214CF
:1013EA0070E53430E0287F151248D57F16124C4C30
:1013FA007F2F124C4C7F2A124C4C90016DE0FF60FB
:10140A0005D39464400690016D7420F08058E5324B
:10141A0020E7287F151248D57F16124C4C7F2F12D1
:10142A004C4C7F2A124C4C90016DE0FF6005D3941E
:10143A0064400690016D7417F0802BE53320E03F7D
:10144A007F151248D57F16124C4C7F2F124C4C7FB9
:10145A002A124C4C90016DE0FF6005D3946440065B
:10146A0090016D7418F012451C9001BDE075F00AE8
:10147A00A4FD7F021222797F15124C4C02165BD210
:10148A004A9001B1E075F00AA4FD7F021222797F29
:10149A00141248D5D246D2507D027F021222799088
:1014AA0001837409F0E4900211F09001C9E0602709
:1014BA00E53620E0127D027F0212227990016DE06A
:1014CA0070EE7494F080E990016DE0B49402E4F057
:1014DA00E5361392618026E53420E3127D027F020D
:1014EA0012227990016DE070EE7487F080E9900124
:1014FA006DE0B48702E4F0E534A2E392612061036F
:10150A0002165B900183740AF0C24A90019BE0754F
:10151A00F00AA4FD7F021222799001D3E004F07050
:10152A00069001D2E004F0120022900171E0FCA3BF
:10153A00E0FDA3E0FEA3E02401FFE43EFEE43DFD5E
:10154A00E43CFC9001711218C6D258900124E06064
:10155A000414F0802F90016D7461F012451C7BFF1A
:10156A007A4D7982121A487F071221C67D647F025A
:10157A001222797F021221C67D647F021222797FAC
:10158A00061221C6E53330E304C2418002D24190FB
:10159A0001ACE075F00AA490018DF0E4900211F01C
:1015AA009001CCE09001D6F060137F291248D590C3
:1015BA0001C5E0900123F09001D6E014F0C2427F09
:1015CA001C1248D59001AEE075F00AA4FD7F021204
:1015DA0022797F1C124C4C9001AEE075F00AA4FDF2
:1015EA007F021222799001A4E0FF900211E004F038
:1015FA00C39F50032042C6E4900123F07F29124C76
:10160A004CD24390016BE07002A3E060097D017F38
:10161A000212227980ED900183740BF09001C9E0E7
:10162A00600EE53630E0177D0A7F0212227980F2D9
:10163A00E53430E3097D0A7F0212227980F22045DF
:10164A00097D057F0212227980F47F0712224FD288
:0B165A00447D027F021222790210DFA3
:0100220022BB
:1009E200E4900184F090023BF0A3F0E53130E60898
:1009F20020E7057F1B1248D5E53320E34090016DC7
:100A0200E07003747FF07D237F0212227990023B13
:100A1200E475F001121713FED3E5F09464EE94002E
:100A220040D690016DE06005D39464400690016D5C
:100A3200741BF07F1B124C4C12451C80BBE53330FB
:100A4200E3107F1B124C4CC25190016DE0B47F0247
:100A5200E4F0C250124820124ACA2045030210D0C4
:100A62009001847401F0FF1222792045097D057FEF
:100A72000212227980F4E490023BF0A3F0E53320E5
:100A8200E34090016DE07003747FF07D027F0212FB
:100A9200227990023BE475F001121713FED3E5F0C0
:100AA2009496EE940040D690016DE06005D3946474
:100AB200400690016D741BF07F1B124C4C12451CBA
:100AC20080BB90016DE0B47F02E4F0C251E53430A6
:100AD200E4059001BA80039001B6E090023FF090E5
:100AE2000169E0FF90023FE0FDC39F50557F021273
:100AF20022799001847402F07F16124C4C7F2F12DF
:100B02004C4C9001B7E0FF90016AE0B507117F2BD2
:100B12001248D59001AFE075F00AA490018EF01250
:100B22004ACA3044787F141248D590023FE0FF90C1
:100B32000169E0C39FFD7F021222797F191248D515
:100B420080583044177F141248D5900169E0FD7F28
:100B5200021222797F191248D5124ACA900169E01D
:100B6200FF90023FE0C39FFD7F0212227990018431
:100B72007402F07F16124C4C7F2F124C4C9001B72E
:100B8200E0FF90016AE0B507117F2B1248D5900172
:100B9200AFE075F00AA490018EF0124ACA90016A81
:100BA200E075F00AA4FD7F021222797F14124C4CE8
:100BB200C246124ACA9001847403F0E490023BF0E8
:100BC200A3F0304444E53330E40320E53C7D027F6A
:100BD2000212227990016DE070037480F090023B62
:100BE200E475F001121713FED3E5F094FAEE9400C7
:100BF20040D390016DE0FF6005D3946440069001FC
:100C02006D741CF012451C80BC9001ADE075F00AB9
:100C1200A4FD7F021222799001847404F0E535204C
:100C2200E11290016D745BF012451C7D0A7F021285
:100C3200227980E99001847405F0E53520E712906D
:100C4200016D742FF012451C7D0A7F0212227980F9
:100C5200E99001847406F02045097D057F02122285
:100C62007980F4E53530E51990016D742FF0124565
:100C72001C7D0A80052045EB7D057F0212227980CA
:100C8200F4E53120E6131245167D0A80052045F170
:100C92007D057F0212227980F4E53220E21990016B
:100CA2006D7412F012451C7D0A80052045EB7D050E
:100CB2007F0212227980F49001847407F07F1A1265
:100CC20048D5C252124ACAE490023BF0A3F0E5357D
:100CD20020E3347D017F0212227912482090023BE8
:100CE200E475F001121713FED3E5F094F4EE9401CB
:100CF20040DC90016DE0FF6005D3946440069001F2
:100D02006D742BF012451CE53530E3347D017F0212
:100D120012227912482090023BE475F00112171357
:100D2200FED3E5F094C4EE940940DC90016DE0FF3F
:100D32006005D39464400690016D742BF012451C3B
:100D42009001847408F02044187F151248D5900150
:100D5200BDE075F00AA4FD7F021222797F15124CC4
:100D62004CC2449001C0E0FD7F02122279D251E4CC
:100D720090023EF09001BCE0FF90023EE0C39F5023
:100D82000F7D0A7F0212227990023EE004F080E495
:100D92007F19124C4C7D037F02122279E490023BB0
:100DA200F0A3F0E53320E2787D027F0212227990EF
:100DB200023BE475F001121713FED3E5F09496EEB0
:100DC2009400404990016DE0FF6005D394644006B1
:100DD20090016D741AF0C24712451C7F1A124C4CD6
:100DE2007F19124C4C7F1E124C4C7F1F124C4C7FB1
:100DF20020124C4C7F23124C4CE53720E2057F2415
:100E0200124C4C7F25124C4C7F27124C4C90016D9A
:100E1200E06005D39464408B90016D747EF0808312
:100E220090016DE0B47E02E4F09001847409F0E573
:100E32003330E23B7F1A124C4C7F19124C4C304734
:100E42002EE53420E52920E626124C487F1F124C5D
:100E52004C7F20124C4C7F23124C4CE53720E2058C
:100E62007F24124C4C7F25124C4C7F27124C4C9005
:100E72000184740AF02045097D057F0212227980DF
:100E8200F4E53320E63D7D017F0212227990016D67
:100E9200E070037482F012482090023BE475F00186
:100EA200121713FED3E5F094F4EE940140D39001AF
:100EB2006DE0FF6005D39464400690016D741EF0EE
:100EC20012451C90016DE0B48202E4F0900184743A
:100ED2000BF090016DE0FF6482600EEF64836009A5
:100EE200EF648D6004EFB47205E490016DF020456B
:100EF200097D057F0212227980F4E490023DF09090
:100F020001BEE090023DF0D243900184740CF0E502
:100F12003220E21990016D7412F012451C7D0A8094
:100F2200052045EB7D057F0212227980F4E5313000
:100F3200E61EE53330E61930E71630E21330501082
:100F4200E53120E70B305208E53230E203021008A7
:100F5200E53120E61190016DE06005D3946440060E
:100F620090016D7472F0E53320E61190016DE0603E
:100F720005D39464400690016D7482F0E53320E756
:100F82001190016DE06005D39464400690016D7488
:100F920083F0E53320E21190016DE06005D39464A3
:100FA200400690016D747EF020501190016DE0605A
:100FB20005D39464400690016D748DF0E53220E211
:100FC2001190016DE06005D39464400690016D7448
:100FD20076F0E53130E71190016DE06005D394645D
:100FE200400690016D7473F020521190016DE06023
:100FF20005D39464400690016D7476F07D027F0201
:10100200122279020F2F90016DE0FF6472601DEFD2
:1010120064826018EF64836013EF647E600EEF6495
:101022008D6009EF64766004EFB47305E490016D9E
:10103200F0900184740DF090023DE075F00AA4FD79
:101042007F021222797F1B1248D5C251C243C25479
:10105200900184740EF0E490023BF0A3F07D0A7FCD
:1010620002122279E53320E34090016DE0700374AF
:101072007FF07D027F0212227990023BE475F0013B
:10108200121713FED3E5F09496EE940040D6900129
:101092006DE06005D39464400690016D741BF07F8F
:1010A2001B124C4C12451C80BB90016DE0B47F02B8
:1010B200E4F0E53330E31790016DE0B47F02E4F031
:1010C2007F1B124C4CC250C251304102C2417D02C0
:0810D2007F02122279020A5686
:102ED500124820124ACAE53F30E70302308AE5343A
:102EE500A2E5926CA2E6926D5420FF90011FE024AA
:102EF5001AF582E43401F583EFF090011FE0FF0439
:102F0500F0EFC394044002E4F02045062047030295
:102F150030829001857401F0900178E07002A3E0A1
:102F250070057F231248D590017AE070057F241241
:102F350048D590017BE07002A3E070057F2512481B
:102F4500D57F1E1248D57F1F1248D5206C03306DE2
:102F5500262054237F201248D5E53530E519900108
:102F6500857402F0D23F90016DE06005D394644012
:102F75000690016D742DF090011BE0FF90011AE0A1
:102F85002FFF90011CE02FFFA3E02FFFA3E02FD31D
:102F950094034004D26C8002C26C206C21303E1E2A
:102FA500206D1B9001857403F090016DE0FF6005B5
:102FB500D39464400690016D7426F012451C7D0182
:102FC5007F02122279206D03203D12306C030230FE
:102FD50082203E03023082306D03023082900185EB
:102FE5007404F0206D0D206C0A7F0B12213D7F20AB
:102FF500124C4C203F062047030230829001857415
:1030050005F0E4900241F09001B8E075F005A4FFE9
:10301500900241E0C39FE5F06480F8748098501DEC
:10302500206C03306D082054057F201248D57D02A1
:103035007F02122279900241E004F080CA303F17E6
:10304500C23F90016DE0FF6005D394644006900196
:103055006D742DF012451C124C487F1F124C4C7F8D
:1030650020124C4C7F23124C4CE53720E2057F247F
:10307500124C4C7F25124C4C7F27124C4CA26D9262
:0F3085003DA26C923E7D027F02122279022ED56F
:103BDF00E4900243F07BFF7A4D7986121A48124A1D
:103BEF002E900243E014601614602014602B1460B2
:103BFF004624046003023CB1EFB406E2801EEF706E
:103C0F00028019EFB40602801F8025EFB4010280F5
:103C1F000BEFB4060280118017EF7008900243E09B
:103C2F0004F080BAEFB406089002437401F080AE3E
:103C3F00E4900243F080A7EF75F014A4900124F0F4
:103C4F00E4900243F0EF703290016D7462F0124510
:103C5F001C7BFF7A4D7990121A487F071221C67D7F
:103C6F00647F021222797F021221C67D647F0212C5
:103C7F0022797F061221C6023BED205803023BED4D
:103C8F007BFF7A4D7994900171E0FCA3E0FDA3E0F6
:103C9F00FEA3E0FF9002471218C6121A48C258023C
:0A3CAF003BEDE4900243F0023BED10
:104441009001887401F09001A1E075F00AA4FD7F4C
:1044510002122279E490026DF09001B9E0FF90021E
:104461006DE0C39F503A7F1D1248D59001A2E075BF
:10447100F00AA4FD7F021222799001887402F07F74
:104481001D124C4C9001A2E075F00AA4FD7F0212AE
:1044910022799001887403F090026DE004F080B9F4
:0B44A1009001887404F07F0B0221C61C
:10468B007D327F02122279124820124ACAE53F205E
:10469B00E738E53120E4337F0C124C4C9001C3E03A
:1046AB0075F00AA4900121F030451290016DE0FFE6
:1046BB006005D39464400690016D740CF0D24012E7
:1046CB004ACA12451C7F0C1221C67D057F0212229D
:0346DB007980B42F
:1048FC007D327F02122279124820124ACAE53F20EB
:10490C00E72AE53120E5257F0D124C4C30451290FD
:10491C00016DE0FF6005D39464400690016D740D49
:10492C00F0124ACA12451C7F0D1221C67D057F026A
:05493C0012227980C287
:104635007D327F02122279124820124ACAE53F20B4
:10464500E73BE53230E605E53020E2317F10124CDC
:104655004C30451C90016DE0FF6005D3946440101B
:10466500E53290016D20E6057416F080037402F0C2
:10467500C257124ACA12451C7F0E1221C67D057FFC
:064685000212227980B14F
:103D8C00C2569002761218D200004B00E490027AD0
:103D9C00F07B027D09FF123FB7900272EFF0124CDC
:103DAC00CA900272EFF01224FF7D027F0212227978
:103DBC003056F3900171E0FCA3E0FDA3E0FEA3E01C
:103DCC00FF78181218A0E4AD07FF7E02124D669022
:103DDC000171E0FCA3E0FDA3E0FEA3E0FF7810126C
:103DEC0018A0E4AD077F017E02124D66900171E0D0
:103DFC00FCA3E0FDA3E0FEA3E0FF78081218A0E40A
:103E0C00AD077402FFFE124D66900171E0FCA3A396
:103E1C00A3E0FFE4AD077F037E02124D66E490023F
:103E2C0071F0900271E0FF7E002496F582E434017B
:103E3C00F583E0FD124D66900271E004F0E0C3944E
:083E4C004040DFC256023DB206
:104731009001DAE07002A3E0600790016D7439F036
:10474100229001D8E07002A3E0600790016D7437F8
:10475100F022E53030E029C2477F011248D57F269B
:104761001248D57F04124C4C7D037F02122279D26C
:1047710045E490016DF07F26124C4C7F271248D5FD
:014781002215
:06451600740E90016DF02F
:10451C003045537F041248D57F01124C4C124ACAC5
:10452C00C245E53420E53D20E63A900184E0FFC326
:10453C0094024006EFD39409402A7F1E124C4C7F04
:10454C001F124C4C7F20124C4C7F23124C4CE537E5
:10455C0020E2057F24124C4C7F25124C4C7F2712F5
:10456C004C4C8002D24790016DE0700374C5F02270
:1048B50090019EE075F00AA4FF90016BE5F0F0A36E
:1048C500EFF0D2529001DC7402F0A37458F07F2F00
:1048D500EF75F0081216652438F8C000E6FEEF758E
:1048E500F008121665AFF07401A807088002C333FB
:0748F500D8FC4ED000F622B2
:044C4800C2477F1EC2
:104C4C00EF75F0081216652438F8C000E6FEEF7513
:104C5C00F008121665AFF07401A807088002C33380
:084C6C00D8FCF45ED000F62232
:104B2E00EF75F0081216652438F8E6FD7C00EF7577
:104B3E00F008121665AFF074017E00A80708800514
:104B4E00C333CE33CED8F9FFEE5CFEEF5D4E24FFBD
:014B5E002234
:10497F00EF75F008121665FEC374079E2438F8E62B
:10498F00FD7C00EF75F008121665AFF0C374079F3A
:10499F00FF74017E00A807088005C333CE33CED83D
:0B49AF00F9FFEE5CFEEF5D4E24FF22DE
:104C7400EF75F008121665FEC374079E2430F8C061
:104C840000E6FEEF75F008121665AFF07401A80790
:0C4C9400088002C333D8FC4ED000F6228A
:104C1B00EF75F008121665FEC374079E2430F8C0BA
:104C2B0000E6FEEF75F008121665AFF07401A807E9
:0D4C3B00088002C333D8FCF45ED000F622DE
:10482000C284C285D286D284A286927A7F3F307AB1
:1048300005124C748003124C1B900270743EF09071
:104840000270E0FFC3648094804020D285A28692EB
:104850007AC285307A05124C748008900270E0FFAD
:0C486000124C1B900270E014F080D42277
:104ACA00C283C283E4900270F0900270E0FFC36474
:104ADA008094C05018C28212497F5004D28080024A
:104AEA00C280D28200900270E004F080DCD283C2DD
:024AFA00812217
:102AFF00900289EBF0A3EAF0A3E9F0E4900291F0E1
:102B0F00C3ED9401EC94005003022CE390028FE08C
:102B1F002DFF90028EE03CFED3EF9455EE940040D3
:102B2F0003022CE3900194E0FEA3E0FFC3ED9FFFAF
:102B3F00EC9EFE900290E0147003022C34046003AC
:102B4F00022CE9D390028FE0940090028EE0940063
:102B5F005003022CE9EF9404EE648094805025EF2B
:102B6F0025E02438F8E6FD900289E0FBA3E475F038
:102B7F0001121729A9F0FAED1216CDEF25E024392D
:102B8F00F8E68076C3EF9444EE64809480502190F1
:102B9F000289E0FBA3E475F001121729A9F0FAE40A
:102BAF001216CD74922FF58274013EF583E0804AA0
:102BBF00C3EF9453EE648094805021900289E0FB20
:102BCF00A3E475F001121729A9F0FAE41216CD74D7
:102BDF00392FF58274013EF583E0801EEF64534E6A
:102BEF00702D900289E0FBA3E475F001121729A95B
:102BFF00F0FAE41216CD90016DE0FD900289E0FB32
:102C0F00A3E475F001121729A9F0FAED1216CD0FF2
:102C1F00BF00010E90028FE024FFF090028EE0348F
:102C2F00FFF0022B52304503022CDBD390028FE0D2
:102C3F00940090028EE094005003022CE9EF94046C
:102C4F00EE64809480503A900289E0FBA3E475F023
:102C5F0001121729A9F0FA121687FDEF25E0243883
:102C6F00F8A605900289E0FBA3E475F0011217297D
:102C7F00A9F0FA121687FDEF25E02439F8A6058092
:102C8F0035C3EF9444EE64809480502A90028AE416
:102C9F0075F001121713900289E0FBA3E475F001A0
:102CAF00121729A9F0FA121687FD74922FF5827464
:102CBF00013EF583EDF00FBF00010E90028FE0246F
:102CCF00FFF090028EE034FFF0022C3A90029174E4
:102CDF0002F080069002917401F0900291E0FF22C1
:10365800900285EBF0A3EAF0A3E9F0E490028CF085
:10366800C3ED9401EC940050030237A590028BE05F
:103678002DFF90028AE03CFED3EF9409EE940040BF
:10368800030237A590016EE0FEA3E0FFC3ED9FFFA4
:10369800EC9E90028DF0A3EFF0D390028BE09400A3
:1036A80090028AE0940050030237AB90028DE070DC
:1036B80004A3E06405703C900171E0FCA3E0FDA365
:1036C800E0FEA3E0FF78181218A0900285E0FBA3A3
:1036D800E475F001121729A9F0FAEF1216CD90013E
:1036E80071E0FCA3E0FDA3E0FEA3E0FF7810121850
:1036F800A0807790028DE07004A3E064047031909C
:103708000171E0FCA3E0FDA3E0FEA3E0FF7808124E
:1037180018A0900285E0FBA3E475F001121729A90F
:10372800F0FAEF1216CD900171A3A3A3E0FF803A3F
:1037380090028DE0FEA3E0FFC39404EE64809480C1
:10374800503CEF25E02430F8E6FF900285E0FBA32B
:10375800E475F001121729A9F0FAEF1216CD9002BC
:103768008DA3E025E02431F8E6FF900285E0FBA375
:10377800E475F001121729A9F0FAEF1216CD90029C
:103788008EE004F0700690028DE004F090028BE069
:1037980024FFF090028AE034FFF00236A190028CF8
:0937A8007401F090028CE0FF2294
:03000B00022020B0
:10201B00C2AF80FE3212201F85D00B75D008FAC2DA
:10202B008CE58A2407F58AE58C34B8F58CD28CECD8
:10203B002493F8E6BC0F0274FFC39581B4140040DF
:10204B00CF7910787216E608700BC2AFE630E10359
:10205B004418F6D2AF08D9EDEA8BD0D27F22E50C2B
:10206B00FF232473F80F0808EFB50C06107F03430A
:10207B008701BF10047F007873E630E4E800E50CBD
:10208B00C39F5020050C7492250CF8E6FDA6810821
:10209B00E6AE0CBE0F0274FFCDF8E86D60E008E60B
:1020AB00C0E080F6E50CD39F4027E50C2493F8E6BF
:1020BB00AE0CBE0F0274FFFD18E6CDF8E5816D6026
:1020CB0006D0E0F61880F5E50C2492C8F6150C80C6
:1020DB00D3E50C232473F87F04C2AFE630E0031082
:1020EB00E20C7F0030E10730E3047F0854F4C2E7D1
:1020FB00C6D2AF54804207227892A681740F600635
:10210B00FF0876FFDFFB7F10E47872F608F608DF36
:10211B00FA78737630904CEC740193C0E0E493C082
:10212B00E0438901758A00758CB8D28CD2AFD2A9E5
:02213B00220F71
:08332F00410310FF41030DFFF3
:104A9700207D2FC2AC207C09207E06D27C8F998096
:104AA7001F900311E0FE04F0EE541F2452F8A607EE
:104AB70090030EE0FF900311E06F541F7002D27D48
:034AC700D2AC224C
:1046DE0090026CEFF0BF0A21307D19122276900302
:1046EE0010EFF0E4FBFAFD7F0112227990031074B3
:1046FE00FFF080E47F0D124A97307D1912227690DA
:10470E000310EFF0E4FBFAFD7F0112227990031003
:10471E0074FFF080E490026CE0FF124A9790026CF6
:03472E00E0FF2287
:104A2E0090030CE0FF90030FE0B507191222769069
:104A3E00030DEFF0E4FBFAFD7F0112227990030DD6
:104A4E0074FFF080DB90030CE0FF04F0EF540724BA
:054A5E004AF8E6FF220A
:030023000243C0D5
:1043C000C0E0C0F0C083C082C0D075D010C27B30C6
:1043D000982FAF99C29890030CE02408FDE433FCB9
:1043E00090030FE06D7001EC600CE0FE04F0EE5401
:1043F00007244AF8A61790030DE0FFF46003122289
:104400004F209903307B2FC299900311E0FF900356
:104410000EE06F601F207E1EE0FF04F0EF541F24AB
:1044200052F8E6F599C27D900310E0FFF4600712A0
:10443000224F8002C27CD0D0D082D083D0F0D0E096
:014440003249
:104D0C0053877F759850538EBF538EFE53890F4334
:0F4D1C008920758BD0758DD0C2ABD28EC29922F3
:104B5F0000C2A40000000000000000D2A500000069
:104B6F0000D2A40000000000000000C2A500000059
:104B7F000000000000C2A40000000000000000229E
:104D2B0000C2A400000000C2A500000000D2A40035
:0E4D3B00000000D2A5000000000000000022D1
:104DB8000000000000C2A400000000C2A50000001E
:0A4DC80000D2A400000000C2A422E3
:104BED00124B5F44A0FF124B8F124BFEAF05124BC1
:014BFD008F28
:104BFE00D2A500C2A40000000000000000D2A40054
:0D4C0E00000000A2A5E433FF0000C2A422B4
:104CA000D2A500E4FEEF25E0FFD2A4000000000042
:104CB000000000A2A5E4334FFF0000000000000048
:0A4CC00000C2A40EEEB408DD0022CD
:104B8F0000E4FEEF30E704D2A58002C2A5000000CA
:104B9F0000D2A40000000000000000C2A40000002A
:0F4BAF000000000000EF25E0FF0EEEB408D52255
:10486C00AC07C2B6EC25E0FC124BED124B5FEC44EE
:10487C00A1FF124B8F124BFE900204E064016019F1
:10488C00124CA0EF1216CD124DB8740129F9E43A6E
:10489C00FA900204E014F080DF124CA0EF1216CD57
:0948AC00124BFE124D2BD2B62274
:10494100C2B6EF25E0FF124BED900279E06019123B
:104951001687FF124B8F124BFE740129F9E43AFAC4
:10496100900279E014F080E1124D2BE4FFFE00008B
:0E4971000FBF00010EBE5DF6BFC0F3D2B6222E
:104D9D00AD07AC06ECFF7B017A0179FE900204743D
:0B4DAD0001F012486C9001FEE0FF22B4
:104D6600900273EDF0AB07AA06EAFFAD037B017A6A
:0C4D76000279739002797401F002494147
:103337004102EE02604002A704FF338003FF34EE30
:1033470010FF39F106FF42B017FF22D80000000036
:103357000000000000000000000000000000000066
:103367000000000000000000000000000000000056
:0833770000000000000000004E
:103FB700900273EFF0AE03E490027BF0ED600BC369
:103FC70094014006EDD394F7400890027B7402F009
:103FD700807B9002A3EDF0900273E0704A9002A4F8
:103FE70074FFF0A3744DF0A374D2F090029DE4F037
:103FF700A3F0A3F0AF06AD07C005900276E0FCA3DF
:10400700E0FDA3E0FEA3E0FF90027E1218C6900237
:104017007AE0900282F09002A3E0FFD00512457C7F
:1040270090027BEFF0800690027B7402F090027B97
:10403700E0701A120003EF700890027B7403F0809F
:104047000C900273E09002EDF0A37401F090027BF4
:03405700E0FF2265
:10309400900312EBF0A3EAF0A3E9F0AD07E4C39DBB
:1030A40040030231FFED947F40030231FFC2AF9031
:1030B4000312E0FBA3E0FAA3E04A4B700302318859
:1030C400E4A3F0A3F0900315E0FEA3E0FFC3941083
:1030D400EE64809480400302316FEF7802C333CEF4
:1030E40033CED8F9FF24A8F58274023EF583E0FBC1
:1030F400A3E0FAA3E04A4B603674A82FF582740269
:103104003EF583E0FBA3E0FAA3E0F9C003C002C0EC
:1031140001900312E0FBA3E0FAA3E0F9D082D0838C
:10312400D0E06B7008E965827003EA6583702B74E4
:10313400A72FF58274023EF583EDF0900312E0FBB5
:10314400A3E0FAA3E0F974A82FF58274023EF58394
:10315400EBF0A3EAF0A3E9F08011900316E004F089
:103164007006900315E004F00230C9900315E07076
:1031740004A3E0641060047F0080027F04900317BE
:10318400EFF08073E4900315F0A3F0900315E0FED4
:10319400A3E0FFC39410EE648094805055EF78024E
:1031A400C333CE33CED8F924A7F58274023EF58317
:1031B400E0B5052E900315E0FEA3E07802C333CEFC
:1031C40033CED8F9FF24A7F58274023EF583E4F0E8
:1031D40074A82FF58274023EF583E4F0A3F0A3F003
:1031E4008010900316E004F070A1900315E004F041
:1031F4008099E4900317F0D2AF800690031774020D
:07320400F0900317E0FF2228
:104AFC00E490031CF09002EEE0B4011A90029DE0E9
:104B0C00FBA3E0FAA3E04A4B601290029DA3A3E042
:104B1C00F9121952800690031C7406F090031CE0E5
:024B2C00FF2266
:104CCA00E4900273F09002EEE0B4010A120026E4C6
:104CDA009002EEF080069002737406F0900273E080
:024CEA00FF22A7
:104A63009002EEE070149002A4A3E0FAA3E0F9121E
:104A730019529002EE7401F080079002EEE0B40147
:104A830007E490031DF0800690031D7406F0900365
:044A93001DE0FF2201
:1024FF00E4900275F09002EEE060037F06227B010C
:10250F007A02797612000EEF6401600302270790BA
:10251F000276E024FE604E04600302270790027AE1
:10252F007401F0A37402F0A37495F0A37401F0A3E7
:10253F007402F0A3749AF07B017A027998123F0B20
:10254F00900275EFF060030227079002A3E0FF905F
:10255F000298E0FE6F6006EE60030227077F02120B
:10256F004DED022707900295E0FBA3E0FAA3E0F9F7
:10257F00121687900299F090029C7401F0E4900279
:10258F0073F0A3F0900273E0FEA3E0FFC39410EE8C
:10259F00648094804003022694EF7802C333CE33D5
:1025AF00CED8F924A7F58274023EF583E0FF7003BD
:1025BF00022694900299E0FE6F6003022683EE24B8
:1025CF00FD603424FD606C24F6604A24F970030228
:1025DF0026602413600302269490027A7401F0A3FC
:1025EF007402F0A3749AF0900295E0FBA3E0FAA3B3
:1025FF00E0F9123380807690027A7401F0A37402AE
:10260F00F0A3749AF0900295E0FBA3E0FAA3E0F92F
:10261F001234EE805890027A7401F0A37402F0A382
:10262F00749AF0900295E0FBA3E0FAA3E0F9123957
:10263F00F1803A90027A7401F0A37402F0A3749AB5
:10264F00F0900295E0FBA3E0FAA3E0F91242B0800C
:10265F001C90027A7401F0A37402F0A3749AF090A4
:10266F000295E0FBA3E0FAA3E0F91222D890029CB6
:10267F00EFF08011900274E004F07006900273E0A6
:10268F0004F0022593900298E0606D90029CE0FFA9
:10269F00603FE490029AF0A3F0900299E04480FE2C
:1026AF00900295E0FBA3E0FAA3E0F990029AE4759B
:1026BF00F00112172985F082F583EE1216DF9002D2
:1026CF009AE475F00112172985F082F583EF12163F
:1026DF00DF9002A3E0FF900295E0FBA3E0FAA3E0F6
:1026EF00F990029AE0FDA3E090027BCDF0A3EDF00C
:0B26FF00123E54900275EFF07F0022A5
:10270A0000C1814001C0804101C0804100C18140B7
:10271A0001C0804100C1814000C1814001C08041A7
:10272A0001C0804100C1814000C1814001C0804197
:10273A0000C1814001C0804101C0804100C1814087
:10274A0001C0804100C1814000C1814001C0804177
:10275A0000C1814001C0804101C0804100C1814067
:10276A0000C1814001C0804101C0804100C1814057
:10277A0001C0804100C1814000C1814001C0804147
:10278A0001C0804100C1814000C1814001C0804137
:10279A0000C1814001C0804101C0804100C1814027
:1027AA0000C1814001C0804101C0804100C1814017
:1027BA0001C0804100C1814000C1814001C0804107
:1027CA0000C1814001C0804101C0804100C18140F7
:1027DA0001C0804100C1814000C1814001C08041E7
:1027EA0001C0804100C1814000C1814001C08041D7
:1027FA0000C1814001C0804101C0804100C18140C7
:10280A0000C0C101C30302C2C60607C705C5C40486
:10281A00CC0C0DCD0FCFCE0E0ACACB0BC90908C8F6
:10282A00D81819D91BDBDA1A1EDEDF1FDD1D1CDCE6
:10283A0014D4D515D71716D6D21213D311D1D01056
:10284A00F03031F133F3F23236F6F737F53534F446
:10285A003CFCFD3DFF3F3EFEFA3A3BFB39F9F838B6
:10286A0028E8E929EB2B2AEAEE2E2FEF2DEDEC2CA6
:10287A00E42425E527E7E62622E2E323E12120E016
:10288A00A06061A163A3A26266A6A767A56564A406
:10289A006CACAD6DAF6F6EAEAA6A6BAB69A9A86876
:1028AA0078B8B979BB7B7ABABE7E7FBF7DBDBC7C66
:1028BA00B47475B577B7B67672B2B373B17170B0D6
:1028CA0050909151935352929656579755959454C6
:1028DA009C5C5D9D5F9F9E5E5A9A9B5B9959589836
:1028EA00884849894B8B8A4A4E8E8F4F8D4D4C8C26
:1028FA004484854587474686824243834181804096
:1045DA00900282EBF0A3EAF0A3E9F0A3ECF0A3EDDA
:1045EA00F07FFF7DFF90028574FFF5F012172945D1
:1045FA00F06033900282E0FBA3E475F00112172900
:10460A00A9F0FA1216876DFB7A00240AF582EA34B9
:10461A0027F583E4936FFD740A2BF582EA3428F5B3
:0B462A0083E493FF80BFEFFEEDFF2252
:10457C00E4900283F0C2AFAF05C00790027EE0FC6E
:10458C00A3E0FDA3E0FEA3E0FF9002851218C69005
:10459C0002897408F0900282E090028AF0D007122F
:1045AC0040F4EF64016002801290027EA3A3E0FE4F
:1045BC00A3E0FF1247D3EF640160069002837403FB
:0E45CC00F0D2AFE4900000F0900283E0FF22F6
:10002600C2AFE4900001F0FD7F01124BBE124DE01D
:03003600D2AF2224
:0E4DD200C2AFE4FDFF124BBE124DF9D2AF226C
:103F0B00900277EBF0A3EAF0A3E9F0E4900280F0E3
:103F1B00A3F0C2AFC3900003E09404900002E094BE
:103F2B000040667B017A007904E0FCA3E0FD1245BA
:103F3B00DAEF4E7054900004E0FF900277E0FBA3A1
:103F4B00E0FAA3E0F9EF1216CD900003E024FDFF99
:103F5B00900002E034FFF990027DE0FBA3E0FAA3AE
:103F6B00E0C98FF01217A27B017A007905C003C05C
:103F7B0002C00190027AE0FBA3E0FAA3E0F9121968
:103F8B00039002807401F0801B7B017A007904900E
:103F9B000002E0FCA3E0FD1245DAEF4E6006900252
:0C3FAB00817405F0D2AF900281E0FF228B
:103E5400E490027DF0C2AF900001E06401600302CF
:103E64003EFDE924FFF9EA34FFFA900106EBF0A3E2
:103E7400EAF0A3E9F0900104E4F0A304F090010651
:103E8400E0FBA3E0FAA3E0F9EF1216CD90027BE089
:103E9400FEA3E0FF900105E02FF0900104E03EF066
:103EA400900106E0FBA3E0FAA3E0F9900104E0FC32
:103EB400A3E0FD1245DA900104E475F0011217291C
:103EC400FA740425F0F58274003AF583EFF0EEFFFE
:103ED400900104E475F001121729FC740425F0F52F
:103EE4008274003CF583EFF09000007401F0FDE46F
:103EF400FF124BBE1244AC800690027D7405F0D2D2
:073F0400AF90027DE0FF22F7
:10433C00E4900293F07B017A027994124E02900081
:10434C0001E014600C1460351460042403705F8069
:10435C005AE4900002F0A3F0900294E0FF90000267
:10436C00E475F001121729FC740425F0F582740031
:10437C003CF583EFF09000017402F0802EC39000A6
:10438C0002E09401501F900294E0FF900002E4754B
:10439C00F001121729FC740425F0F58274003CF529
:1043AC0083EFF080069000017403F0124DE0900250
:0443BC0093E0FF2269
:1044AC00E4900293F0900000E014600C047055E46A
:1044BC00FD7F01124BBE804C900104E07002A3E022
:1044CC00602C900106E0FBA3E0FAA3E0F91216873A
:1044DC00FF12003E900107E475F0011217139001D2
:1044EC0005E024FFF0900104E034FFF080167F0318
:1044FC00124DED900293EFF0E4FD7F01124BBEE400
:0A450C00900000F0900293E0FF22FF
:1049F500E4900292F0900001E024FE601314601A26
:104A050024037016E4FF124DED900292EFF0800A38
:104A15007F01124DED900292EFF0124DF9900001D9
:094A25007401F0900292E0FF22FE
:1047D300EF4E602BEF25E0FFEE33FE7C007D0C12E5
:1047E3001958A804A905AA06AB077F007E807D831C
:1047F3007C651217FD900318EEF0A3EFF08007E439
:10480300900318F0A3F0E4F5D8F5D975DA489003CE
:0D48130018E0FEA3E0F5EAEEF5FA7F0122C1
:0D4DE000E4F5D875DA49F5E9F5F9D2DE22DF
:094DF900C2DE75DA48E4F5D822A7
:03003B000249BABD
:1049BA00C0E0C0F0C083C082C0D075D000C000C0C3
:1049CA0001C002C003C004C005C006C0071249F5F1
:1049DA00D007D006D005D004D003D002D001D00031
:0B49EA00D0D0D082D083D0F0D0E032DB
:0100390022A4
:08000300E490031AF07F0122D2
:0C4DED0090031A7401F0A3EFF07F012284
:10000E00E4FF90031AE0600BA3E01216CDE4900318
:04001E001AF00F22A3
:104BBE00EF6007ED6004D2908015EF700AED60078C
:104BCE00D290539AEF800BEF600CED7009C29043B8
:0F4BDE009A1043AF0122C290539AEF53AFFE22B9
:1040F400900284EFF07F007EC27D017C00A3E0F893
:10410400A3E0F9A3E0FAA3E0FBD312188F5016E45E
:104114007F807E25FDFC900285E0F8A3A3A3E0C385
:1041240012188F500A9002851218D200004B00908A
:104134000285E0F8A3E0F9A3E0FAA3E0FB7F007EA8
:10414400807D517C011217FDE47B20FAF9F81217E7
:10415400FDEFF404F59C900284E0B4011553877FCD
:10416400759850438E04438E01438E10C29CC2AC9A
:104174008012538EF7759A50438E04438E10539ACF
:09418400EF53AFFEC2907F01224F
:05003E008F9B7F0122F1
:084E0200E59B1216CD7F012291
:034E0A000244ACB3
:034E0D0002433C21
:03004300024782EF
:10478200C0E0C0F0C083C082C0D075D000C000C0FD
:1047920001C002C003C004C005C006C007E59A30CC
:1047A200E006539AFE124E0DE59A30E109539AFD46
:1047B200309003124E0AD007D006D005D004D003A1
:1047C200D002D001D000D0D0D082D083D0F0D0E0BF
:0147D20032B4
:01003A0022A3
:1042B000900277EBF0A3EAF0A3E9F0E490027FF03C
:1042C00090027AE0FBA3E0FAA3E0F912173F64053D
:1042D00045F0705C900277E0FBA3E0FAA3E0F99070
:1042E00000011216A090027DF0A3E4F090000212EB
:1042F00016A0FF90027DE0F0A3E04FF0E004F07024
:104300000690027DE004F0E92403F9E43AFA900211
:104310007DE0FCA3E0FD90028EE4F0A304F0A3F0A6
:10432000122AFFEF6010124D4990027FEFF08006D5
:0C43300090027F7403F090027FE0FF22F7
:1039F100900277EBF0A3EAF0A3E9F0E4900281F002
:103A010090027AE0FBA3E0FAA3E0F912173FC39416
:103A110006E5F094005003023ADE900277E0FBA342
:103A2100E0FAA3E0F99000011216A090027DF0A344
:103A3100E4F09000021216A0FF90027DE0F0A3E0F6
:103A41004FF0E004F0700690027DE004F090000376
:103A51001216A090027FF0A3E4F09000041216A0C9
:103A6100FF90027FE0F0A3E04FF09000051216A056
:103A7100FF90027FE0FCA3E0FDC39401EC940040C1
:103A81005CD3ED9478EC94005053ED25E06F704DCC
:103A9100900277E0FBA3E0FAA3E02406F9E43AFA06
:103AA10090027DE0FCA3E0FDA3E0FFA3E090028E85
:103AB100CFF0A3EFF0A37401F0122AFFEF600A1216
:103AC1004D49900281EFF0801A90027AE0FBA3E069
:103AD100FAA3E0F9E475F0051217A28006900281BD
:093AE1007403F0900281E0FF2261
:1034EE00900277EBF0A3EAF0A3E9F0E4900284F007
:1034FE0090027AE0FBA3E0FAA3E0F912173F64050D
:10350E0045F0600302364C900277E0FBA3E0FAA38D
:10351E00E0F99000011216A090027DF0A3E4F09065
:10352E0000021216A0FF90027DE0F0A3E04FF0E043
:10353E0004F0700690027DE004F09000031216A0D5
:10354E0090027FF0A3E4F09000041216A0FF7E001C
:10355E0090027FEEF0A3EFF0C39401EE94005003BF
:10356E0002364CD3E0947D90027FE094004003023B
:10357E00364C900277E0F9A3E0FAA3E0900281C9FD
:10358E00F0A3EAF0A3E9F090027AE0FBA3E0FAA33D
:10359E00E0F9E4F5F01217A2900281E0FBA3E475C6
:1035AE00F001121729A9F0FA74031216CD90027ABF
:1035BE00E0FBA3E0FAA3E0F9E475F00112176A90BC
:1035CE00027FA3E025E0FFA3E0FBA3E475F0011268
:1035DE001729A9F0FAEF1216CD90027AE0FBA3E0BC
:1035EE00FAA3E0F9E475F00112176A900281E0FB8C
:1035FE00A3E0FAA3E0F990027DE0FCA3E0FDA3E0D6
:10360E00FFA3E090028ECFF0A3EFF0E4A3F0122A16
:10361E00FFEF600A124D49900284EFF0802690026F
:10362E0080E025E0FF90027FE033FE90027AE0FB1F
:10363E00A3E0FAA3E0F9EE8FF012176A800690026B
:0A364E00847403F0900284E0FF2270
:1022D800900277EBF0A3EAF0A3E9F0E4900288F02B
:1022E80090027AE0FBA3E0FAA3E0F912173FC39447
:1022F8000AE5F0940050030224F9900277E0FBA36A
:10230800E0FAA3E0F99000011216A090027DF0A374
:10231800E4F09000021216A0FF90027DE0F0A3E026
:102328004FF0E004F0700690027DE004F0900003A6
:102338001216A090027FF0A3E4F09000041216A0F9
:10234800FF90027FE0F0A3E04FF09000051216A086
:10235800900281F0A3E4F09000061216A0FF90020C
:1023680081E0F0A3E04FF0E004F07006900281E015
:1023780004F09000071216A0900283F0A3E4F090F6
:1023880000081216A0FF900283E0F0A3E04FF0903F
:1023980000091216A0FD90027FE0FEA3E0FFC3949F
:1023A80001EE940050030224F3D3EF947DEE9400E1
:1023B80040030224F3900283E0FEA3E0FFC39401EC
:1023C800EE940050030224F3D3EF9479EE94004086
:1023D800030224F3EF25E0FFEE33FEED6F7001EE0C
:1023E80060030224F3900277E0FBA3E0FAA3E02461
:1023F8000AF9E43AFA900281E0FCA3E0FDA3E0FFC9
:10240800A3E090028ECFF0A3EFF0A37401F0122A9C
:10241800FFAD07ED60030224E5900277E0F9A3E041
:10242800FAA3E0900285C9F0A3EAF0A3E9F09002CC
:102438007AE0FBA3E0FAA3E0F9E4F5F01217A29022
:102448000285E0FBA3E475F001121729A9F0FA74DC
:10245800171216CD90027AE0FBA3E0FAA3E0F9E4A4
:1024680075F00112176A90027FA3E025E0FF900241
:1024780085E0FBA3E475F001121729A9F0FAEF1221
:1024880016CD90027AE0FBA3E0FAA3E0F9E475F038
:102498000112176A900285E0FBA3E0FAA3E0F99025
:1024A800027DE0FCA3E0FDA3E0FFA3E090028ECF55
:1024B800F0A3EFF0E4A3F0122AFFAD07ED701E9031
:1024C8000280E025E0FF90027FE033FE90027AE090
:1024D800FBA3E0FAA3E0F9EE8FF012176AED6011A2
:1024E800FF124D49900288EFF0800690028874032D
:0724F800F0900288E0FF22D2
:1037B1009002EFEBF0A3EAF0A3E9F09002F5E0FF4D
:1037C1009002FCE4F0A3EFF0EDAE047803CEC31356
:1037D100CE13D8F9FF9002FAEEF0A3EFF09002FABF
:1037E100E0FEA3E07803C333CE33CED8F9FFC3EDB7
:1037F1009FFFEC9E9002FCE0FEA3E0A80708800575
:10380100C333CE33CED8F9F0EE9002FCF09002F43F
:10381100E0FF74017E00A807088005C333CE33CED4
:10382100D8F924FFFFEE34FF9002F8F0A3EFF0A3E4
:10383100A3E075F008A4FFC3ED9FFF9002F8E0FE3E
:10384100A3E0A807088005C333CE33CED8F9F0EE44
:103851009002F8F09002EFE0FBA3E0FAA3E0F99008
:1038610002FAE0FEA3E0F5828E831216A0FF900219
:10387100F6E4F0A3EFF09002FBE02401FF9002FADE
:10388100E034008F82F5831216A0FE9002F6E04E1E
:10389100F0A3E0F0A3E0FEA3E0F4FFEEF4FE90025B
:1038A100F6E05EFEA3E05FFF9002FCE04EFEA3E0C7
:1038B1004FFF9002F6EEF0A3EFF09002FAE0FCA3C6
:1038C100E0FDF5828C83EF1216DF9002F6E08D8227
:0638D1008C83A30216DF48
:103CB9009002FEEBF0A3EAF0A3E9F0EDAE0478037D
:103CC900CEC313CE13D8F9FF900308EEF0A3EFF09B
:103CD900900308E0FEA3E07803C333CE33CED8F9CE
:103CE900FFC3ED9FFFEC9E90030AF0A3EFF0900352
:103CF90003E0FF74017E00A807088005C333CE33B3
:103D0900CED8F924FFFFEE34FF900306F0A3EFF0BD
:103D19009002FEE0FBA3E0FAA3E0F9900308E0FEBD
:103D2900A3E0F5828E831216A0FF900304E4F0A3AA
:103D3900EFF0900309E02401FF900308E034008FBD
:103D490082F5831216A0FE900304E04EF0A3E0F082
:103D590090030AA3E0FF900304E0FEA3E0A807088C
:103D69008005CEC313CE13D8F9FF900304EEF0A358
:103D7900EFF0A3E05EFEA3E05FFF900304EEF0A383
:033D8900EFF02236
:104D4900EF14600C24FA600C2407700CE4FE800A4E
:0D4D59007E0280067E0680027E04AF0622E8
:10338000900277EBF0A3EAF0A3E9F0E4900284F076
:1033900090027AE0FBA3E0FAA3E0F912173F64057C
:1033A00045F060030234E2900277E0FBA3E0FAA369
:1033B000E0F99000011216A090027DF0A3E4F090D5
:1033C00000021216A0FF90027DE0F0A3E04FF0E0B3
:1033D00004F0700690027DE004F09000031216A045
:1033E00090027FF0A3E4F09000041216A0FF900278
:1033F0007FE0FEA3E04FFF90027FEEF0FEA3EFF030
:10340000C39401EE940050030234E2E0947D9002F4
:103410007FE0940040030234E2900277E0F9A3E0F9
:10342000FAA3E0900281C9F0A3EAF0A3E9F09002C8
:103430007AE0FBA3E0FAA3E0F9E4F5F01217A2901A
:103440000281E0FBA3E475F001121729A9F0FA74D8
:10345000041216CD90027AE0FBA3E0FAA3E0F9E4AF
:1034600075F00112176A90027FA3E025E0FFA3E048
:10347000FBA3E475F001121729A9F0FAEF1216CD9B
:1034800090027AE0FBA3E0FAA3E0F9E475F0011200
:10349000176A900281E0FBA3E0FAA3E0F990027DB5
:1034A000E0FCA3E0FDA3E0FFA3E090028ACFF0A33D
:1034B000EFF0123658EF600A124D49900284EFF097
:1034C0008026900280E025E0FF90027FE033FE90AE
:1034D000027AE0FBA3E0FAA3E0F9EE8FF012176A9C
:0E34E00080069002847403F0900284E0FF22C4
:10213D00EFD3940F40037FFF2274732F2FF8E62007
:10214D00E5F4C2AFE64430F6D2AFAE0CEEC39F500D
:10215D00210E74922EF8E6F908E618BE0F0274FFF0
:10216D00FDED69600909E71919F7090980F31616DC
:10217D0080DAEED39F400405810581EED39F402286
:10218D0074922EF808E6F9EEB50C02A98118060630
:10219D00E6FDED6960091919E70909F71980F31EC4
:1021AD0080D9EF2492F8E604F8EF2F04904CEC93CD
:0921BD00F608EF2F93F67F0022D3
:1021C600EFD3940F40037FFF22EF232473F8E6300A
:1021D600E5F4C2AFE6548CF6D2AFE50CB5070A7447
:1021E600922FF8E6F581022069502E74932FF8E6B7
:1021F600BF0F0274FFFD18E6F974922FF8FBE6FC98
:10220600E96C6008A805E7F61D1980F4A803A60581
:102216001FE50CB507E37F002274932FF8E6FD183F
:1022260086010F74922FF8A601088604E50CB507FF
:1022360002AC81ED6C60080D09A805E6F780F4E5AF
:092246000CB507DE89817F00223E
:10224F00EFD3940F40037FFF22EF232473F8C2AF25
:10225F00E630E50530E002D2E4D2E2C6D2AF7F002D
:07226F0030E2010F022066BE
:03227600AF0C2288
:102279008FF0E4FFFEE50C232472F8C2A930F70DB4
:102289007F08E6600B2DF660325030800730F1068A
:10229900EDF660277E020830F010C2AFE610E725A0
:1022A9000E30E20CD2AF7F048014C2AFE610E715FE
:1022B90054EC4EF6D2AFD2A90220697F0808EF4448
:0F22C90083F4C2AF56C6D2AFD2A954804FFF22C2
:10423000022103E493A3F8E493A34003F68001F280
:1042400008DFF48029E493A3F85407240CC8C3338F
:10425000C4540F4420C8834004F456800146F6DF5E
:10426000E4800B010204081020408090320BE47EB1
:10427000019360BCA3FF543F30E509541FFEE49353
:10428000A360010ECF54C025E060A840B8E493A31A
:10429000FAE493A3F8E493A3C8C582C8CAC583CA45
:1042A000F0A3C8C582C8CAC583CADFE9DEE780BEFD
:01337F00004D
:10166500C2D530F707B2D563F0FF05F030E70CB20D
:10167500D5F4048463F0FF05F080018430D502F4CD
:0216850004223D
:10168700BB010689828A83E0225002E722BBFE0261
:09169700E32289828A83E4932294
:1016A000BB010CE58229F582E5833AF583E02250FF
:1016B00006E92582F8E622BBFE06E92582F8E22249
:0D16C000E58229F582E5833AF583E4932263
:1016CD00BB010689828A83F0225002F722BBFE01FC
:0216DD00F322F6
:1016DF00F8BB010DE58229F582E5833AF583E8F041
:1016EF00225006E92582C8F622BBFE05E92582C8ED
:0216FF00F222D5
:10170100EF8DF0A4A8F0CF8CF0A428CE8DF0A42EFC
:02171100FE22B6
:10171300C5F0F8A3E028F0C5F0F8E5821582700261
:061723001583E038F022FE
:10172900A3F8E0C5F025F0F0E58215827002158373
:06173900E0C838F0E822D0
:10173F00BB010A89828A83E0F5F0A3E02250068775
:10174F00F009E71922BBFE07E3F5F009E319228937
:0B175F00828A83E493F5F0740193226A
:10176A00BB010789828A83021713500B09C5F02728
:10177A00F7C5F01937F722BBFE0D09F8E325F0F398
:10178A00C5F019E338F322F889828A837401932514
:08179A00F0C5F0F8E4933822D9
:1017A200BB010A89828A83F0E5F0A3F0225006F792
:0F17B20009A7F01922BBFE06F3E5F009F319228F
:1017C10075F008758200EF2FFFEE33FECD33CDCCDF
:1017D10033CCC58233C5829BED9AEC99E582984062
:1017E1000CF582EE9BFEED9AFDEC99FC0FD5F0D63F
:1017F100E4CEFBE4CDFAE4CCF9A88222B800C1B969
:101801000059BA002DEC8BF084CFCECDFCE5F0CBA6
:10181100F97818EF2FFFEE33FEED33FDEC33FCEBDF
:1018210033FB10D703994004EB99FB0FD8E5E4F99A
:10183100FA227818EF2FFFEE33FEED33FDEC33FC87
:10184100C933C910D7059BE99A4007EC9BFCE99A7B
:10185100F90FD8E0E4C9FAE4CCFB2275F010EF2FC0
:10186100FFEE33FEED33FDCC33CCC833C810D707C0
:101871009BEC9AE899400AED9BFDEC9AFCE899F8FB
:0E1881000FD5F0DAE4CDFBE4CCFAE4C8F9228E
:10188F00EB9FF5F0EA9E42F0E99D42F0E89C45F0AF
:01189F002226
:1018A000E8600FECC313FCED13FDEE13FEEF13FF26
:0318B000D8F1224A
:1018B300E8600FEFC333FFEE33FEED33FDEC33FC93
:0318C300D8F12237
:0C18C600ECF0A3EDF0A3EEF0A3EFF02295
:1018D200A8828583F0D083D0821218E91218E91207
:1018E20018E91218E9E473E493A3C583C5F0C5832C
:1018F200C8C582C8F0A3C583C5F0C583C8C582C860
:0119020022C2
:10190300BB011A89828A83D0F0D0E0F8D0E0F9D005
:10191300E0FAD0E0FBE8C0E0C0F00219A55016E9F8
:10192300F8D083D082D0E0F9D0E0FAD0E0FBC082D7
:10193300C083021985BBFE16E9F8D083D082D0E0BC
:0F194300F9D0E0FAD0E0FBC082C0830219AE22D7
:061952008A838982E47320
:10195800EC8EF0A4CCC5F0CCCDF8EFA4CEC5F02D1C
:10196800FDE43CFCE8A42EC8C5F03DFDE43CFCEFDA
:0D197800A4FFE5F028FEE43DFDE43CFC2268
:1019DD00E5452447F582E43402F583E00545229080
:1019ED000244307603900247E475F00112198E021D
:1019FD001687206FE97F2ED26F8018EF540F249039
:101A0D00D43440D4FF30730BEF24BFB41A0050030D
:101A1D002461FFE546600215460549E5497002055A
:101A2D004830760E900244E475F00112198EEF02E3
:101A3D0016CD0246DE7403D2768003E4C276F545F8
:101A4D009002441219A5E4F546F548F549E54660BE
:101A5D00077F20121A2080F57547FFC270C26FC232
:101A6D0071C272C274C275C2771219ECFF700D305B
:101A7D0076057F00121A31AF49AE4822B4255FC2F8
:101A8D00D5C2731219ECFF24D0B40A00501A75F0A8
:101A9D000A784630D50508B6FF0106C6A426F620FD
:101AAD00D5047002D27280D924CFB41A00EF50043D
:101ABD00C2E5D273021C32D27080C6D26F80C0D202
:101ACD007180BCD2D580BAD27480B47F20121A2016
:101ADD002071077401B5460040F11219DDFF121A8D
:101AED0020021A5AD277D27580951219DDFB121980
:101AFD00DDFA1219DDF94A4B700679037A1D7BFF69
:101B0D0020712EE546602A7E008E827583001216A6
:101B1D00A060060EEE654770F0C2D5EBC0E0EAC0DE
:101B2D00E0E9C0E0EE121C79D0E0F9D0E0FAD0E0A7
:101B3D00FB121687FF60AAEBC0E0EAC0E0E9C0E047
:101B4D00121A20D0E02401F9D0E03400FAD0E0FBE5
:101B5D00E5470460DCD547D980877BFF7A1C797512
:101B6D00D271809C791080027908C275C277800885
:101B7D00D2D5790A8004790AC2D5E547047002F5F9
:101B8D0047E4FAFDFEFF1219DDFC7B0820701312ED
:101B9D0019DDFD7B10306F0A1219DDFE1219DDFF04
:101BAD007B20EC3382D592D55013C3E4306F069F62
:101BBD00FFE49EFEE42070039DFDE49CFCE4CBF865
:101BCD00C270EC700CCFCECDCCE824F8F870F38059
:101BDD0017C3EF33FFEE33FEED33FDEC33FCEB3388
:101BED00FB994002FB0FD8E9EB307005F8D0E0C44B
:101BFD0048B270C0E00AEC4D4E4F78207B0070C2A9
:101C0D00EAB5470040BCC0E0121C7BD0F0D0E0200C
:101C1D007004C4C0E0C4B270C0F0121A09D0F0D57F
:101C2D00F0EB021A5A1219B71AF7531B71581AC84A
:101C3D004C1AC4421B754F1B7D441B7D491ADD4355
:081C4D001B83551B67461B6752
:101C5500451B67471D23501ACC2D1AD02E1AF32B7E
:101C65001AD4231AF1201D0C2A1A8C4800001AEBED
:101C75003F3F3F00790AA2D5207214307409B9108C
:101C8500020404B9080104A2D520750250010420FC
:101C950071689271B546005034C0E07F20307219EA
:101CA5007F30A27172757274500F121CD2C271C24C
:101CB50075C274C2777F30800F307403E9C0E012BB
:101CC5001A20307403D0E0F9D0E0B546CC30741753
:101CD5007F30B9100C121A207F583073077F788037
:101CE50003B90803121A203071057F2D021A207FCF
:101CF500202077F87F2B2075F322927180CF286EF4
:101D0500756C6C2900D2701219DD3070F8C27078CC
:101D15004630D50108F6021A8C2D50434958121940
:101D2500DD2403B405004001E4901D1E93121A1131
:0D1D3500743A121A11D272754604021B7125
:09198500EBF608EAF608E9F62287
:10198E00F8E0FBA3A3E0F925F0F0E58215827002E2
:07199E001583E0FA38F02286
:0919A500EBF0A3EAF0A3E9F02243
:0919AE00EBF208EAF208E9F2226A
:1019B700D083D082F8E4937012740193700DA3A3BF
:1019C70093F8740193F5828883E4737402936860D3
:0619D700EFA3A3A380DFD3
:00000001FF
