:024CD00043A5FA
:024CD20040F1AF
:024CD400004698
:024CD6003AE8BA
:024CD8001D427B
:024CDA0038D5CB
:024CDC0010DAEC
:024CDE0009D9F2
:024CE0002ED5CF
:024CE2002CEFB5
:024CE4003BDDB6
:024CE600442563
:024CE800466F15
:024CEA0048E0A0
:024CEC00461967
:024CEE003D8AFD
:0300000002418832
:0C418800787FE4F6D8FD7581A10241CFDC
:104D66002A2A2D0073746172746564210A002A2A46
:0B4D76002E002A2A5028256C75290009
:10320B00420194000142016E00014101D7F0604080
:10321B0001290A050303050A0328010023000304FF
:10322B00140F0F1A010501006401040407030A0AB5
:10323B000F0F030F14010000140A010003141405EF
:10324B000200001414000000000000000000000049
:10325B0000AAC14AC149C14BC147C148C1D74201AC
:10326B0075000041012300420192000042019000D1
:10327B00004201DC00004201DA00004201D80000EC
:10328B004101D60042012500004201270000410107
:10329B002403C180C181C104C105C106C107C10896
:1032AB00C10AC10DC10FC110C112C114C116C11782
:1032BB00C119C11CC11DC19FC1A1C1A3C1A5C127FA
:1032CB00C129C12BC12DC12EC130C131C1B3C1B573
:1032DB00C136C1384101090041010A0041010B000F
:1032EB0042010C000041010E0041010F0041011091
:1032FB000041011100420112000042011400004282
:10330B000116000041011800C13AC13B41011900EF
:10331B00C13CC13DC13E45011A0000000000410106
:02332B001F0081
:1043A50012290A7F0212213D7DFA7F021222797FAE
:1043B5000912213D7D0A7F021222797F0312213DD8
:1043C5007D0A7F021222797F0412213D7D0A7F0238
:1043D5001222797F0512213D7D0A7F021222797F03
:1043E5000612213D7D0A7F021222797F0712213DA7
:1043F5007D0A7F021222797F0812213D7D0A7F0204
:104405001222797F0A12213D7D0A7F021222797FCD
:104415000F12213D7D0A7F02122279E4FF0221C697
:10290A00124CF0E490016DF0900177F0A3F0A3F07F
:10291A00A3F0A3F0A3F0900121F0A3F0900120F01E
:10292A00900170F0C254C252C24090016BF0A3F001
:10293A0090018EF0A3F0C24CC24EC24DC243C23FB8
:10294A00C256D253C242C251C246124AAE7D647FB7
:10295A00021222797D647F021222797D647F02123B
:10296A0022797D647F021222797D647F02122279A4
:10297A009001FA1218D200000000E47F02FEFDFC6A
:10298A009001FAE0F8A3E0F9A3E0FAA3E0FBC3128E
:10299A00188F5068E49001F9F09001F9E0FFC364E0
:1029AA00809488500B74382FF8E4F6E004F080E93C
:1029BA00E49001F9F09001F9E0FFC364809490502B
:1029CA0019EF3395E0FE747D2FF58274013EF5838D
:1029DA00E4F09001F9E004F080DB9001FAE0FCA356
:1029EA00E0FDA3E0FEA3E02401FFE43EFEE43DFD9A
:1029FA00E43CFC9001FA1218C60229847F041248AA
:102A0A00B97F01124C30124AAEC244E49001F9F087
:102A1A009001F9E0FFC3648094C05025EF3395E03C
:102A2A00FE124D819001F9E0FD3395E0FC74962D7C
:102A3A00F58274013CF583EFF09001F9E004F0802F
:102A4A00CF1248047F017E02124D81E4FCFDFE781C
:102A5A00101218B3C004C005C006C0077F007E026A
:102A6A00124D81E4FCFDFE78181218B3D003D0028F
:102A7A00D001D000EF2BFFEE3AFEED39FDEC38FC29
:102A8A00C004C005C006C0077402FFFE124D81E4EF
:102A9A00FCFDFE78081218B3D003D002D001D00092
:102AAA00EB2FFFEA3EFEE93DFDE83CFCC004C00511
:102ABA00C006C0077F037E02124D81E4FCFDFED0F2
:102ACA0003D002D001D000EB2FFFEE3AFEED39FD24
:102ADA00EC38FC9001711218C6E53330E21230E38B
:102AEA000FE53530E30A9001711218D20000000098
:052AFA007F2E0248B927
:100046007D647F02122279124804124AAE7D017F36
:1000560002122279E53F20E7EEE530139220E530E3
:10006600A2E19202A2E4920330033220052FE53783
:1000760030E0079001D4E04401F07F30124B12507B
:10008600079001D4E054FEF0D25574C61244FCE544
:100096003030E4097DC87F0212227980F230202EAA
:1000A600301F2B30021130040E20000B20030820D5
:1000B6000505124715803230032F30052C20012903
:1000C60020022620042390016D74C6F0801820209B
:1000D60018201F1590016DE0FF6005D3946440065B
:1000E60090016D7463F0124500300205300402D2AF
:1000F60000200205200402C200300305300502D2AA
:1001060001200305200502C201A220921FA202922D
:1001160004A2039205E53130E6057F13124C3090B8
:10012600016DE06005C3946440077F06124C308081
:100136000E90016DE0C3946450057F061248B99095
:100146000178E07002A3E0600E900179E024FFF0F0
:10015600900178E034FFF090017AE0600214F090AC
:10016600017BE07002A3E0600E90017CE024FFF0CA
:1001760090017BE034FFF0900122E0600214F090E1
:100186000121E07F03600B1248B9900121E014F0D1
:100196008003124C30900177E07F18600B1248B94B
:1001A600900177E014F08003124C30E53230E41A07
:1001B60030E5179001C2E075F00AA4FF900178E5DA
:1001C600F0F0A3EFF07F23124C30E53030E30B2044
:1001D60006082052057F0112213DE530A2E3920672
:1001E600E53230E3142007119001B4E075F00AA45B
:1001F60090017AF07F24124C30E532A2E39207A2F6
:10020600E4921E301E15201D129001C1E075F00A01
:10021600A4FF900175E5F0F0A3EFF0900175E07092
:1002260002A3E0600E900176E024FFF0900175E0F5
:1002360034FFF0A21E921DE534A2E39213A2499266
:10024600323032342031319001D4E030E02A30139C
:10025600149001C8E075F00AA4FF900114E5F0F0CF
:10026600A3EFF080137F301248B9D247900125746E
:1002760001F0A3742CF0C24BA2329231E53030E586
:1002860002D254E53530E42B200A2830542590015B
:10029600B5E075F00AA4900177F09001A0E075F042
:1002A6000AA4FF90017BE5F0F0A3EFF07F25124C46
:1002B60030C254E535A2E4920AE533A2E292373021
:1002C600370C20360990016DE0B47E02E4F0A237C7
:1002D6009236E533A2E3923930390C203809900181
:1002E6006DE0B47F02E4F0A2399238E534A2E192DF
:1002F6001A301A2120191E900111E070189001B2CF
:10030600E075F00AA4FF900192E5F0F0A3EFF090FB
:10031600011174FAF0900111E0600214F09001925C
:10032600E07002A3E0600E900193E024FFF09001DC
:1003360092E034FFF0900192E07004A3E064017053
:10034600107F321248B97F27124C3090010F743259
:10035600F090010FE0600214F090010FE0B4010B81
:100366007F331248B99001107464F0900110E06078
:100376000214F0900110E0B4010B7F32124C309061
:10038600010E741EF090010EE0600214F090010E52
:10039600E0B4010A7F271248B97F33124C30A21A03
:1003A6009219E534A2E2921130111820101590012D
:1003B6006DE0FF6005C39464400690016D7422F001
:1003C600124500A2119210A21C921BE534A2E392E0
:1003D6001330132C2012299001C9E0700512489998
:1003E600801E9001D4E04401F0C24B3049129001C6
:1003F600C8E075F00AA4FF900114E5F0F0A3EFF051
:10040600A2139212900123E06401702F7F29124BF0
:1004160012500F7F29124C309001C5E0900123F055
:1004260080199001D6E060137F291248B99001C562
:10043600E0900123F09001D6E014F0900123E060F3
:100446000214F0E535A2E6923420342D20332A300A
:1004560035279001CBE075F064A4FF900112E5F01A
:10046600F0A3EFF090016DE0FF6005C394644006D1
:1004760090016D742EF0124500303405303302D2EF
:1004860035203405203302C235A23492339001124E
:10049600E07002A3E0600E900113E024FFF09001EB
:1004A60012E034FFF0900112E07004A3E0640170E2
:1004B600057F0B1248B9E536139215301533301403
:1004C6003020162D7F30124B125026C2479001D491
:1004D600E054FEF0C24B9001C7E075F00AA4FF900D
:1004E6000116E5F0F0A3EFF09001C9E060031248B1
:1004F60099301505301402D216201505201402C2B3
:1005060016A2159214E536A2E192183018052017A6
:1005160002C248A2189217E536A2E29222A2E392FC
:1005260024A2E49226A2E59228A2E6922A20221884
:1005360020211590016DE0FF6005C394644006908C
:10054600016D7432F0124500202418202315900105
:100556006DE0FF6005C39464400690016D7433F04E
:1005660012450020261820251590016DE0FF600534
:10057600C39464400690016D7434F012450030282F
:100586001830271590016DE0FF6005C3946440069E
:1005960090016D7435F0124500302A1830291590F7
:1005A600016DE0FF6005C39464400690016D7436EA
:1005B600F0124500A2229221A2249223A22692257D
:1005C600A2289227A22A9229E53633922CE537A251
:1005D600E1922F302C3E302B3B202D38202F3590AA
:1005E6000118E0B4392EE49001DAF0A3F07F351259
:1005F6004C3090016D7437F01245009001ACE075F7
:10060600F064A4FF9001D8E5F0F0A3EFF0E49001C8
:1006160018F0800C202C09302B069001187437F046
:10062600202C05202B02C22D302C05302B02D22D7A
:10063600A22C922BE537A2E1922F302F3E302E3B93
:10064600203038202C35900118E0B4372EE4900184
:10065600D8F0A3F07F34124C3090016D7439F0124B
:1006660045009001ACE075F064A4FF9001DAE5F076
:10067600F0A3EFF0E4900118F0800C202F09302E43
:10068600069001187439F0202F05202E02C2303052
:100696002F05302E02D230A22F922E9001C9E06093
:1006A600077F17304B0C80057F173049051248B974
:1006B6008003124C309001DAE07002A3E0601A7FEA
:1006C60034124C307F351248B99001DBE024FFF03C
:1006D6009001DAE034FFF080057F35124C3090014E
:1006E600D8E07002A3E0601A7F35124C307F3412D6
:1006F60048B99001D9E024FFF09001D8E034FFF02A
:1007060080057F34124C309001D4E020E007E536B6
:1007160030E102D24BE53630E10B90016DE0B49545
:1007260016E4F0801290016DE0700C9001C9E06053
:100736000690016D7495F0900114E07004A3E064D6
:100746000170137F301248B9D2479001257401F029
:10075600A3742CF0C24B900114E07002A3E0600E6B
:10076600900115E024FFF0900114E034FFF09001B1
:1007760016E07004A3E0640170117F30124C30D291
:10078600489001277401F0A3742CF0900116E070D4
:1007960002A3E0600E900117E024FFF0900116E03E
:1007A60034FFF0900125E07004A3E06401700C3082
:1007B600470990016D7430F0124500900125E070F4
:1007C60002A3E0600E900126E024FFF0900125E0F0
:1007D60034FFF0900127E07004A3E064017012304A
:1007E600480F9001C9E0600990016D7431F012451F
:1007F60000900127E07002A3E0600E900128E0243B
:10080600FFF0900127E034FFF0E535A2E3920BE517
:1008160034A2E5920C7F1A124B12503A300B372055
:10082600083490019DE070077F281248B98008902F
:10083600019DE0900109F07F051248B99001A7E0FB
:10084600700204F09001A7E075F00AA4FF90010C75
:10085600E5F0F0A3EFF090010CE07004A3E0640172
:10086600701E900109F07F28124C309001AAE070AA
:10087600077F05124C3080089001AAE090010AF02B
:1008860090016BE07002A3E0600E90016CE024FF23
:10089600F090016BE034FFF0900109E0B401057FB0
:1008A600281248B990010AE0B401057F05124C30C0
:1008B600900109E0600214F090010AE0600214F071
:1008C60090010CE07002A3E0600E90010DE024FFA1
:1008D600F090010CE034FFF090018DE0B401057F4B
:1008E6002A124C3090018DE0600214F090018EE0E7
:1008F600B401167F2B124C307F2C1248B99001B0F0
:10090600E075F00AA490018FF090018EE060021469
:10091600F090018FE0B401057F2C124C3090018FCE
:10092600E0600214F09001DCE07002A3E060109039
:1009360001DDE024FFF09001DCE034FFF080057F6C
:100946002F124C30A20B9208A20C9209E535A2E5B3
:10095600920E300E12300D0F200F0C90019FE07595
:10096600F00AA490010BF0200E05200D02C20F30F4
:100976000E05300D02D20F90010BE06401703B9022
:10098600016DE0FF6005D39464400690016D742DFF
:10099600F0124500124C2C7F1F124C307F20124C57
:1009A600307F23124C30E53720E2057F24124C308D
:1009B6007F25124C307F27124C3090010BE06002ED
:1009C60014F0A20E920DE53520E20302004DD2414D
:0309D60002004DCF
:1040F100E4900206F0D2529001B2E075F00AA4FDFC
:104101007F021222799001B3E075F00AA42401FE26
:10411100E435F0900178F0A3CEF07F23124C3012F9
:104121004804E53230E40E9001C1E075F00AA4FFC5
:104131009001758024E4900175F0A3F0900175E081
:104141007002A3E0601B7D0A7F021222799001B305
:10415100E075F00AA4FF900178E5F0F0A3EFF0809C
:10416100DB7F021248B99001B3E075F00AA4FD7F2C
:10417100021222797F02124C30E4900178F0A3F010
:07418100C2527F010221C6BA
:103AE800124804124AAEE53F30E703023BD32044B4
:103AF80003023BD3E53120E103023BD390018074FC
:103B080001F0E53020E614D23A7D0A7F02122279CC
:103B180090016DE070EC746AF080E79001807402A7
:103B2800F0303A187DFAFF1222797DFA7F021222CC
:103B380079C23A90016DE0B46A02E4F03044A19091
:103B480001807403F0E53030E703023BD3E5313000
:103B5800E279E4900208F07D0A7F02122279E530CA
:103B680020E706900208E004F07D0A7F021222791D
:103B7800E53020E706900208E004F07D0A7F021293
:103B88002279E53020E706900208E004F090020868
:103B9800E0C39402400AE53030E6057F071248B9D1
:103BA800E4900208F07D0A7F02122279900208E070
:103BB80004F0E0C3942840ED7F07124C30E5302034
:103BC800E70990016DE07003746BF07D027F0212CB
:053BD8002279023AE829
:101D4200124804124AAEE53F30E703022011204454
:101D52000302200D203B03021FA79001817401F0B2
:101D6200E53120E1127D057F0212227990016DE0BA
:101D720070EE746DF080E990016DE0B46D02E4F0F4
:101D8200E53120E2127D057F0212227990016DE099
:101D920070EE746EF080E990016DE0B46E02E4F0D2
:101DA200E53020E7147D057F02122279D25C900192
:101DB2006DE070EC746BF080E790016DE0B46B0243
:101DC200E4F0305C097D647F02122279C25C204417
:101DD200097D057F0212227980F47D327F02122270
:101DE200797F0A1248B97F221248B9900197E075AB
:101DF200F00AA4FD7F021222797F0C1248B97F0CEF
:101E020012213D7F0A124C307D147F0212227990FA
:101E120001817403F0E490020AF0E53120E34A7D87
:101E2200017F02122279900197E0FF9001A5E0C3A1
:101E32009FFFE49400FE7C007D0A12170190020AC3
:101E4200E004F0C39FEE6480F874809840CC900167
:101E52006DE06005D39464400690016D740BF07FD1
:101E620022124C3012450080B17F22124C307D018B
:101E72007F02122279E490020AF0E53120E1127D1C
:101E8200017F0212227990016DE070EE746DF08094
:101E9200E990016DE0B46D02E4F07F0C124C3090D9
:101EA20001C3E075F00AA4900121F07F0C1221C653
:101EB2007F0D1248B97F0D12213D900198E075F017
:101EC2000AA4FD7F021222797F011222792044099D
:101ED2007D057F0212227980F47F211248B9900198
:101EE200817404F0E490020AF0E53120E23E7D01C3
:101EF2007F021222799001A6E075F00AA4FFAEF0EB
:101F020090020AE004F0C39FEE6480F87480984067
:101F1200D890016DE06005D39464400690016D7421
:101F22000AF07F21124C3012450080BD90016DE015
:101F3200B46E02E4F07F21124C309001817405F0FE
:101F4200E490020AF0E53130E0107D028005204481
:101F5200F47D057F0212227980F4E53130E003023C
:101F6200200D7F08124B12500302200D7F0D124CE0
:101F7200307F0D1221C67D027F021222797F0E125E
:101F820048B99001A9E075F00AA4FD7F02122279F6
:101F92007F0E124C30203F047F0580027F04122204
:101FA2004FC23F8066E4900181F090020AF07F21E7
:101FB2001248B9E53120E23E7D017F02122279907A
:101FC20001A6E075F00AA4FFAEF090020AE004F068
:101FD200C39FEE6480F874809840D890016DE060F1
:101FE20005D39464400690016D740AF07F21124C6F
:101FF2003012450080BD90016DE0B46E02E4F07FC6
:1020020021124C307D017F02122279A244923B7D43
:09201200027F02122279021D4234
:1038D500E4900182F07F0F1248B9124AAE7DFA7F5B
:1038E500021222797DFA7F021222797F0F124C3063
:1038F500124AAE7F0412224F124804124AAE2044E7
:10390500030239E57F011222792044097D057F02F2
:1039150012227980F49001827401F0900199E0758A
:10392500F00AA4FD7F021222799001A8E0D3940049
:103935004059E490020CF09001A8E014FF90020CAD
:10394500E0C39F502E7F091248B990019AE075F0A7
:103955000AA4FD7F021222797F09124C3090019A48
:10396500E075F00AA4FD7F0212227990020CE004B2
:10397500F080C47F091248B990019AE075F00AA455
:10398500FD7F021222797F09124C30900182740268
:10399500F0E490020DF0E53120E0057F081248B90A
:1039A5007D2880052044097D057F0212227980F457
:1039B500E53120E0117F081248B97D017F0212220E
:1039C5007912480480EA7F08124C30124AAE900101
:1039D500827403F07D027F021222797F0412224F46
:0A39E5007D027F021222790238FDF4
:102CEF00124804124AAE204403022ECB7D027F020B
:102CFF00122279124804E53130E62B30E028E53214
:102D0F0030E023205620900122E0701A90016DE0F0
:102D1F00FF6472600AEF646C6005EF64747033E4F3
:102D2F0090016DF0802C90016DE07008E53120E688
:102D3F00037472F090016DE07008E53120E00374C8
:102D4F006CF090016DE070A4E53220E09F7474F098
:102D5F00809A9001867402F07D05FF1222797D0220
:102D6F007F02122279124804E53130E62B30E02839
:102D7F00E53230E023205620900122E0701A9001B6
:102D8F006DE0FF6472600AEF646C6005EF6474704D
:102D9F0033E490016DF0802C90016DE07008E53107
:102DAF0020E6037472F090016DE07008E53120E0C9
:102DBF0003746CF090016DE070A4E53220E09F7415
:102DCF0074F0809A2044097D027F0212227980F4E8
:102DDF007F121248B9E490020FF0E53220E1297D0D
:102DEF00017F0212227990020FE004F0C394FA409F
:102DFF00E990016DE0FF6005D39464400690016D8A
:102E0F007411F012450080D29001867403F0E53101
:102E1F0020E01D7F12124C3090016DE0FF6005D352
:102E2F009464400690016D7408F0124500022CEF77
:102E3F009001BFE075F00AA4FD7F021222797F1086
:102E4F001248B97F0E12213D90019CE075F00AA443
:102E5F00FD7F021222797F12124C30D256900186DA
:102E6F007404F0E490020FF0F0E53220E02E7D02C2
:102E7F007F021222797F12124C3090020FE004F081
:102E8F00D394FA40E490016DE0FF6005D394644061
:102E9F000690016D7410F012450080CD90016DE029
:102EAF00B47402E4F07F0612224F2044097D027FA2
:102EBF000212227980F49001867405F07D0A7F0258
:062ECF00122279022CEF33
:1010DA007F0712224F124804124AAE204403021616
:1010EA005BE4900183F07F011222792044097D0597
:1010FA007F0212227980F49001837401F0900183B7
:10110A007402F0E53120E0127D027F02122279900A
:10111A00016DE070EE746CF080E9E53120E6177D30
:10112A00017F02122279900211E004F0C394FA407E
:10113A00E91244FA80E42044097D057F02122279EB
:10114A0080F42044097D057F0212227980F4E53279
:10115A0020E0127D027F0212227990016DE070EE8A
:10116A007474F080E9E53330E1127D027F021222C5
:10117A007990016DE070EE747DF080E9E53430E03D
:10118A00127D027F0212227990016DE070EE748462
:10119A00F080E9E53230E7127D027F02122279906F
:1011AA00016DE070EE747BF080E9E53330E0127D8A
:1011BA00027F0212227990016DE070EE747CF08059
:1011CA00E92050127D017F0212227990016DE070B0
:1011DA00F0747EF080EB2056097D017F021222799D
:1011EA0080F490016DE0FF646C6022EF6472601D10
:1011FA00EF64746018EF647D6013EF6484600EEF2F
:10120A00647B6009EF647C6004EFB47E05E49001BE
:10121A006DF02044097D057F0212227980F412487C
:10122A0004E53120E00302110720E603021107E575
:10123A003220E003021107205003021107E5333080
:10124A00E103021107E53430E003021107E5323009
:10125A00E703021107E53330E003021107205603C2
:10126A0002110730E3030211077F1A124B124008DA
:10127A00E53320E2030211079001837403F07F1122
:10128A001248B9124AAEE53430E441900196E0FDC5
:10129A0075F00AA4FF900119E0C39FE5F06480F895
:1012AA007480984003ED70249001B7E090016AF0D1
:1012BA009001C4E0900169F0900119E004F0E0F0B7
:1012CA007F2C124C307F2D1248B98029E53420E456
:1012DA0005E4900119F09001A3E090016AF09001F1
:1012EA00ABE0900169F07F2B124C307F2C1248B989
:1012FA007F2D124C309001837406F0E4900211F0B5
:10130A00E53120E7207D017F02122279900211E067
:10131A0004F0C394FA40E990016D740FF07F111242
:10132A004C30124500C256E53130E74730E6159099
:10133A00016DE0FF6005C39464400690016D740E70
:10134A00F01245007F0E1221C69001BBE075F00A2B
:10135A00A4FD7F0212227990016DE06416600A7F73
:10136A00161248B97F2A1248B9E53130E0057F06DE
:10137A0012224F7D0F7F021222799001837407F0A7
:10138A007F10124C307F141248B99001B1E075F009
:10139A000AA4FD7F021222797F14124C307F1112A7
:1013AA004C30900122741EF07F131248B9900183C9
:1013BA007408F0E53330E1297F151248B97F161217
:1013CA004C307F2F124C307F2A124C3090016DE046
:1013DA00FF6005D39464403490016D7419F00214CF
:1013EA0070E53430E0287F151248B97F16124C3068
:1013FA007F2F124C307F2A124C3090016DE0FF6033
:10140A0005D39464400690016D7420F08058E5324B
:10141A0020E7287F151248B97F16124C307F2F1209
:10142A004C307F2A124C3090016DE0FF6005D39456
:10143A0064400690016D7417F0802BE53320E03F7D
:10144A007F151248B97F16124C307F2F124C307F0D
:10145A002A124C3090016DE0FF6005D39464400677
:10146A0090016D7418F01245009001BDE075F00A04
:10147A00A4FD7F021222797F15124C3002165BD22C
:10148A00499001B1E075F00AA4FD7F021222797F2A
:10149A00141248B9D245D24F7D027F0212227990A6
:1014AA0001837409F0E4900211F09001C9E0602709
:1014BA00E53620E0127D027F0212227990016DE06A
:1014CA0070EE7494F080E990016DE0B49402E4F057
:1014DA00E5361392608026E53420E3127D027F020E
:1014EA0012227990016DE070EE7487F080E9900124
:1014FA006DE0B48702E4F0E534A2E3926020600371
:10150A0002165B900183740AF0C24990019BE07550
:10151A00F00AA4FD7F021222799001D3E004F07050
:10152A00069001D2E004F0120022900171E0FCA3BF
:10153A00E0FDA3E0FEA3E02401FFE43EFEE43DFD5E
:10154A00E43CFC9001711218C6D257900124E06065
:10155A000414F0802F90016D7461F01245007BFF36
:10156A007A4D7966121A487F071221C67D647F0276
:10157A001222797F021221C67D647F021222797FAC
:10158A00061221C6E53330E304C2408002D24090FD
:10159A0001ACE075F00AA490018DF0E4900211F01C
:1015AA009001CCE09001D6F060137F291248B990DF
:1015BA0001C5E0900123F09001D6E014F0C2417F0A
:1015CA001C1248B99001AEE075F00AA4FD7F021220
:1015DA0022797F1C124C309001AEE075F00AA4FD0E
:1015EA007F021222799001A4E0FF900211E004F038
:1015FA00C39F50032041C6E4900123F07F29124C77
:10160A0030D24290016BE07002A3E060097D017F55
:10161A000212227980ED900183740BF09001C9E0E7
:10162A00600EE53630E0177D0A7F0212227980F2D9
:10163A00E53430E3097D0A7F0212227980F22044E0
:10164A00097D057F0212227980F47F0712224FD288
:0B165A00437D027F021222790210DFA4
:0100220022BB
:1009D900E4900184F090023BF0A3F0E53130E608A1
:1009E90020E7057F1B1248B9E53320E34090016DEC
:1009F900E07003747FF07D237F0212227990023B1D
:100A0900E475F001121713FED3E5F09464EE940037
:100A190040D690016DE06005D39464400690016D65
:100A2900741BF07F1B124C3012450080BBE533303C
:100A3900E3107F1B124C30C25090016DE0B47F026D
:100A4900E4F0C24F124804124AAE2044030210D007
:100A59009001847401F0FF1222792044097D057FF9
:100A69000212227980F4E490023BF0A3F0E53320EE
:100A7900E34090016DE07003747FF07D027F021204
:100A8900227990023BE475F001121713FED3E5F0C9
:100A99009496EE940040D690016DE06005D394647D
:100AA900400690016D741BF07F1B124C30124500FB
:100AB90080BB90016DE0B47F02E4F0C250E53430B0
:100AC900E4059001BA80039001B6E090023FF090EE
:100AD9000169E0FF90023FE0FDC39F50557F02127C
:100AE90022799001847402F07F16124C307F2F1204
:100AF9004C309001B7E0FF90016AE0B507117F2BF8
:100B09001248B99001AFE075F00AA490018EF01275
:100B19004AAE3043787F141248B990023FE0FF9003
:100B29000169E0C39FFD7F021222797F191248B93A
:100B390080583043177F141248B9900169E0FD7F4E
:100B4900021222797F191248B9124AAE900169E05E
:100B5900FF90023FE0C39FFD7F021222799001843A
:100B69007402F07F16124C307F2F124C309001B76F
:100B7900E0FF90016AE0B507117F2B1248B9900197
:100B8900AFE075F00AA490018EF0124AAE90016AA6
:100B9900E075F00AA4FD7F021222797F14124C300D
:100BA900C245124AAE9001847403F0E490023BF00E
:100BB900A3F0304344E53330E40320E53C7D027F74
:100BC9000212227990016DE070037480F090023B6B
:100BD900E475F001121713FED3E5F094FAEE9400D0
:100BE90040D390016DE0FF6005D394644006900105
:100BF9006D741CF012450080BC9001ADE075F00ADF
:100C0900A4FD7F021222799001847404F0E5352055
:100C1900E11290016D745BF01245007D0A7F0212AA
:100C2900227980E99001847405F0E53520E7129076
:100C3900016D742FF01245007D0A7F02122279801E
:100C4900E99001847406F02044097D057F0212228F
:100C59007980F4E53530E51990016D742FF012456E
:100C6900007D0A80052044EB7D057F0212227980F0
:100C7900F4E53120E6131244FA7D0A80052044F197
:100C89007D057F0212227980F4E53220E219900174
:100C99006D7412F01245007D0A80052044EB7D0534
:100CA9007F0212227980F49001847407F07F1A126E
:100CB90048B9C251124AAEE490023BF0A3F0E535BF
:100CC90020E3347D017F0212227912480490023B0D
:100CD900E475F001121713FED3E5F094F4EE9401D4
:100CE90040DC90016DE0FF6005D3946440069001FB
:100CF9006D742BF0124500E53530E3347D017F0238
:100D090012227912480490023BE475F0011217137C
:100D1900FED3E5F094C4EE940940DC90016DE0FF48
:100D29006005D39464400690016D742BF012450060
:100D39009001847408F02043187F151248B9900176
:100D4900BDE075F00AA4FD7F021222797F15124CCD
:100D590030C2439001C0E0FD7F02122279D250E4F3
:100D690090023EF09001BCE0FF90023EE0C39F502C
:100D79000F7D0A7F0212227990023EE004F080E49E
:100D89007F19124C307D037F02122279E490023BD5
:100D9900F0A3F0E53320E2787D027F0212227990F8
:100DA900023BE475F001121713FED3E5F09496EEB9
:100DB9009400404990016DE0FF6005D394644006BA
:100DC90090016D741AF0C2461245007F1A124C3018
:100DD9007F19124C307F1E124C307F1F124C307F0E
:100DE90020124C307F23124C30E53720E2057F2456
:100DF900124C307F25124C307F27124C3090016DF8
:100E0900E06005D39464408B90016D747EF080831B
:100E190090016DE0B47E02E4F09001847409F0E57C
:100E29003330E23B7F1A124C307F19124C30304676
:100E39002EE53420E52920E626124C2C7F1F124C82
:100E4900307F20124C307F23124C30E53720E205E9
:100E59007F24124C307F25124C307F27124C309062
:100E69000184740AF02044097D057F0212227980E9
:100E7900F4E53320E63D7D017F0212227990016D70
:100E8900E070037482F012480490023BE475F001AB
:100E9900121713FED3E5F094F4EE940140D39001B8
:100EA9006DE0FF6005D39464400690016D741EF0F7
:100EB90012450090016DE0B48202E4F0900184745F
:100EC9000BF0204F097D027F0212227980F4E5316F
:100ED90020E6127D027F0212227990016DE070EE08
:100EE9007472F080E92051127D027F0212227990FA
:100EF900016DE070F07476F080EB90016DE0FF64B5
:100F090082600EEF64836009EF648D6004EFB47250
:100F190005E490016DF02044097D057F02122279D4
:100F290080F4E490023DF09001BEE090023DF0D2E1
:100F390042900184740CF0E53220E21990016D743D
:100F490012F01245007D0A80052044EB7D057F02E1
:100F590012227980F4E53130E61EE53330E61930A6
:100F6900E71630E213304F10E53120E70B30510816
:100F7900E53230E20302100DE53120E61190016DF2
:100F8900E06005D39464400690016D7472F0E53316
:100F990020E61190016DE06005D39464400690014C
:100FA9006D7482F0E53320E71190016DE06005D39F
:100FB9009464400690016D7483F0E53320E211904A
:100FC900016DE06005D39464400690016D747EF074
:100FD900204F1190016DE06005D3946440069001A3
:100FE9006D748DF0E53220E21190016DE06005D35A
:100FF9009464400690016D7476F07D027F0212229E
:1010090079020F5E90016DE0FF64726018EF6482EF
:101019006013EF6483600EEF647E6009EF648D6096
:1010290004EFB47605E490016DF0900184740DF03D
:1010390090023DE075F00AA4FD7F021222797F1B20
:101049001248B9C250C242C253900184740EF0E4EE
:1010590090023BF0A3F07D0A7F02122279E533204A
:10106900E34090016DE07003747FF07D027F02120E
:10107900227990023BE475F001121713FED3E5F0D3
:101089009496EE940040D690016DE06005D3946487
:10109900400690016D741BF07F1B124C3012450005
:1010A90080BB90016DE0B47F02E4F0E53330E317D3
:1010B90090016DE0B47F02E4F07F1B124C30C24F07
:1010C900C250304002C2407D027F02122279020AD8
:0110D9004DC9
:102ED500124804124AAEE53F30E70302308AE53472
:102EE500A2E5926BA2E6926C5420FF90011FE024AC
:102EF5001AF582E43401F583EFF090011FE0FF0439
:102F0500F0EFC394044002E4F02044062046030297
:102F150030829001857401F0900178E07002A3E0A1
:102F250070057F231248B990017AE070057F24125D
:102F350048B990017BE07002A3E070057F25124837
:102F4500B97F1E1248B97F1F1248B9206B03306C38
:102F5500262053237F201248B9E53530E519900125
:102F6500857402F0D23E90016DE06005D394644013
:102F75000690016D742DF090011BE0FF90011AE0A1
:102F85002FFF90011CE02FFFA3E02FFFA3E02FD31D
:102F950094034004D26B8002C26B206B21303D1E2E
:102FA500206C1B9001857403F090016DE0FF6005B6
:102FB500D39464400690016D7426F01245007D019E
:102FC5007F02122279206C03203C12306B03023001
:102FD50082203D03023082306C03023082900185ED
:102FE5007404F0206C0D206B0A7F0B12213D7F20AD
:102FF500124C30203E062046030230829001857433
:1030050005F0E4900241F09001B8E075F005A4FFE9
:10301500900241E0C39FE5F06480F8748098501DEC
:10302500206B03306C082053057F201248B97D02C0
:103035007F02122279900241E004F080CA303E17E7
:10304500C23E90016DE0FF6005D394644006900197
:103055006D742DF0124500124C2C7F1F124C307FE1
:1030650020124C307F23124C30E53720E2057F24B7
:10307500124C307F25124C307F27124C30A26C92B7
:0F3085003CA26B923D7D027F02122279022ED572
:103BDD00E4900243F07BFF7A4D796A121A48124A3B
:103BED0012900243E014601614602014602B1460D0
:103BFD004624046003023CAFEFB406E2801EEF7072
:103C0D00028019EFB40602801F8025EFB4010280F7
:103C1D000BEFB4060280118017EF7008900243E09D
:103C2D0004F080BAEFB406089002437401F080AE40
:103C3D00E4900243F080A7EF75F014A4900124F0F6
:103C4D00E4900243F0EF703290016D7462F0124512
:103C5D00007BFF7A4D7974121A487F071221C67DB9
:103C6D00647F021222797F021221C67D647F0212C7
:103C7D0022797F061221C6023BEB205703023BEB54
:103C8D007BFF7A4D7978900171E0FCA3E0FDA3E014
:103C9D00FEA3E0FF9002471218C6121A48C257023F
:0A3CAD003BEBE4900243F0023BEB16
:104425009001887401F09001A1E075F00AA4FD7F68
:1044350002122279E490026DF09001B9E0FF90023A
:104445006DE0C39F503A7F1D1248B99001A2E075F7
:10445500F00AA4FD7F021222799001887402F07F90
:104465001D124C309001A2E075F00AA4FD7F0212E6
:1044750022799001887403F090026DE004F080B910
:0B4485009001887404F07F0B0221C638
:10466F007D327F02122279124804124AAEE53F20B2
:10467F00E738E53120E4337F0C124C309001C3E072
:10468F0075F00AA4900121F030441290016DE0FF03
:10469F006005D39464400690016D740CF0D23F1204
:1046AF004AAE1245007F0C1221C67D057F021222F1
:0346BF007980B44B
:1048E0007D327F02122279124804124AAEE53F203F
:1048F000E72AE53120E5257F0D124C303044129037
:10490000016DE0FF6005D39464400690016D740D65
:10491000F0124AAE1245007F0D1221C67D057F02BE
:0549200012227980C2A3
:104619007D327F02122279124804124AAEE53F2008
:10462900E73BE53230E605E53020E2317F10124CF8
:104639003030441C90016DE0FF6005D39464401054
:10464900E53290016D20E6057416F080037402F0DE
:10465900C256124AAE1245007F0E1221C67D057F51
:064669000212227980B16B
:103D8A00C2559002761218D200004B00E490027AD3
:103D9A00F07B027D09FF123FB5900272EFF0124CE0
:103DAA00AE900272EFF01224FF7D027F0212227996
:103DBA003055F3900171E0FCA3E0FDA3E0FEA3E01F
:103DCA00FF78181218A0E4AD07FF7E02124D4A9040
:103DDA000171E0FCA3E0FDA3E0FEA3E0FF7810126E
:103DEA0018A0E4AD077F017E02124D4A900171E0EE
:103DFA00FCA3E0FDA3E0FEA3E0FF78081218A0E40C
:103E0A00AD077402FFFE124D4A900171E0FCA3A3B4
:103E1A00A3E0FFE4AD077F037E02124D4AE490025D
:103E2A0071F0900271E0FF7E002496F582E434017D
:103E3A00F583E0FD124D4A900271E004F0E0C3946C
:083E4A004040DFC255023DB00B
:104715009001DAE07002A3E0600790016D7439F052
:10472500229001D8E07002A3E0600790016D743714
:10473500F022E53030E029C2467F011248B97F26D4
:104745001248B97F04124C307D037F02122279D2C0
:1047550044E490016DF07F26124C307F271248B952
:014765002231
:0644FA00740E90016DF04C
:104500003044537F041248B97F01124C30124AAE36
:10451000C244E53420E53D20E63A900184E0FFC343
:1045200094024006EFD39409402A7F1E124C307F3C
:104530001F124C307F20124C307F23124C30E53755
:1045400020E2057F24124C307F25124C307F271249
:104550004C308002D24690016DE0700374C5F022A9
:1048990090019EE075F00AA4FF90016BE5F0F0A38A
:1048A900EFF0D2519001DC7402F0A37458F07F2F1D
:1048B900EF75F0081216652438F8C000E6FEEF75AA
:1048C900F008121665AFF07401A807088002C33317
:0748D900D8FC4ED000F622CE
:044C2C00C2467F1EDF
:104C3000EF75F0081216652438F8C000E6FEEF752F
:104C4000F008121665AFF07401A807088002C3339C
:084C5000D8FCF45ED000F6224E
:104B1200EF75F0081216652438F8E6FD7C00EF7593
:104B2200F008121665AFF074017E00A80708800530
:104B3200C333CE33CED8F9FFEE5CFEEF5D4E24FFD9
:014B42002250
:10496300EF75F008121665FEC374079E2438F8E647
:10497300FD7C00EF75F008121665AFF0C374079F56
:10498300FF74017E00A807088005C333CE33CED859
:0B499300F9FFEE5CFEEF5D4E24FF22FA
:104C5800EF75F008121665FEC374079E2430F8C07D
:104C680000E6FEEF75F008121665AFF07401A807AC
:0C4C7800088002C333D8FC4ED000F622A6
:104BFF00EF75F008121665FEC374079E2430F8C0D7
:104C0F0000E6FEEF75F008121665AFF07401A80705
:0D4C1F00088002C333D8FCF45ED000F622FA
:10480400C284C285D286D284A28692797F3F3079CF
:1048140005124C588003124BFF900270743EF090C6
:104824000270E0FFC3648094804020D285A2869207
:1048340079C285307905124C588008900270E0FFE7
:0C484400124BFF900270E014F080D422B0
:104AAE00C283C283E4900270F0900270E0FFC36490
:104ABE008094C05018C2821249635004D280800282
:104ACE00C280D28200900270E004F080DCD283C2F9
:024ADE00812233
:102AFF00900289EBF0A3EAF0A3E9F0E4900291F0E1
:102B0F00C3ED9401EC94005003022CE390028FE08C
:102B1F002DFF90028EE03CFED3EF9455EE940040D3
:102B2F0003022CE3900194E0FEA3E0FFC3ED9FFFAF
:102B3F00EC9EFE900290E0147003022C34046003AC
:102B4F00022CE9D390028FE0940090028EE0940063
:102B5F005003022CE9EF9404EE648094805025EF2B
:102B6F0025E02438F8E6FD900289E0FBA3E475F038
:102B7F0001121729A9F0FAED1216CDEF25E024392D
:102B8F00F8E68076C3EF9444EE64809480502190F1
:102B9F000289E0FBA3E475F001121729A9F0FAE40A
:102BAF001216CD74922FF58274013EF583E0804AA0
:102BBF00C3EF9453EE648094805021900289E0FB20
:102BCF00A3E475F001121729A9F0FAE41216CD74D7
:102BDF00392FF58274013EF583E0801EEF64534E6A
:102BEF00702D900289E0FBA3E475F001121729A95B
:102BFF00F0FAE41216CD90016DE0FD900289E0FB32
:102C0F00A3E475F001121729A9F0FAED1216CD0FF2
:102C1F00BF00010E90028FE024FFF090028EE0348F
:102C2F00FFF0022B52304403022CDBD390028FE0D3
:102C3F00940090028EE094005003022CE9EF94046C
:102C4F00EE64809480503A900289E0FBA3E475F023
:102C5F0001121729A9F0FA121687FDEF25E0243883
:102C6F00F8A605900289E0FBA3E475F0011217297D
:102C7F00A9F0FA121687FDEF25E02439F8A6058092
:102C8F0035C3EF9444EE64809480502A90028AE416
:102C9F0075F001121713900289E0FBA3E475F001A0
:102CAF00121729A9F0FA121687FD74922FF5827464
:102CBF00013EF583EDF00FBF00010E90028FE0246F
:102CCF00FFF090028EE034FFF0022C3A90029174E4
:102CDF0002F080069002917401F0900291E0FF22C1
:10365600900285EBF0A3EAF0A3E9F0E490028CF087
:10366600C3ED9401EC940050030237A390028BE063
:103676002DFF90028AE03CFED3EF9409EE940040C1
:10368600030237A390016EE0FEA3E0FFC3ED9FFFA8
:10369600EC9E90028DF0A3EFF0D390028BE09400A5
:1036A60090028AE0940050030237A990028DE070E0
:1036B60004A3E06405703C900171E0FCA3E0FDA367
:1036C600E0FEA3E0FF78181218A0900285E0FBA3A5
:1036D600E475F001121729A9F0FAEF1216CD900140
:1036E60071E0FCA3E0FDA3E0FEA3E0FF7810121852
:1036F600A0807790028DE07004A3E064047031909E
:103706000171E0FCA3E0FDA3E0FEA3E0FF78081250
:1037160018A0900285E0FBA3E475F001121729A911
:10372600F0FAEF1216CD900171A3A3A3E0FF803A41
:1037360090028DE0FEA3E0FFC39404EE64809480C3
:10374600503CEF25E02430F8E6FF900285E0FBA32D
:10375600E475F001121729A9F0FAEF1216CD9002BE
:103766008DA3E025E02431F8E6FF900285E0FBA377
:10377600E475F001121729A9F0FAEF1216CD90029E
:103786008EE004F0700690028DE004F090028BE06B
:1037960024FFF090028AE034FFF002369F90028CFC
:0937A6007401F090028CE0FF2296
:03000B00022020B0
:10201B00C2AF80FE3212201F85D00B75D008FAC2DA
:10202B008CE58A2407F58AE58C34B8F58CD28CECD8
:10203B002493F8E6BC0F0274FFC39581B4140040DF
:10204B00CF7910787216E608700BC2AFE630E10359
:10205B004418F6D2AF08D9EDEA8BD0D27E22E50C2C
:10206B00FF232473F80F0808EFB50C06107E03430B
:10207B008701BF10047F007873E630E4E800E50CBD
:10208B00C39F5020050C7492250CF8E6FDA6810821
:10209B00E6AE0CBE0F0274FFCDF8E86D60E008E60B
:1020AB00C0E080F6E50CD39F4027E50C2493F8E6BF
:1020BB00AE0CBE0F0274FFFD18E6CDF8E5816D6026
:1020CB0006D0E0F61880F5E50C2492C8F6150C80C6
:1020DB00D3E50C232473F87F04C2AFE630E0031082
:1020EB00E20C7F0030E10730E3047F0854F4C2E7D1
:1020FB00C6D2AF54804207227892A681740F600635
:10210B00FF0876FFDFFB7F10E47872F608F608DF36
:10211B00FA78737630904CD0740193C0E0E493C09E
:10212B00E0438901758A00758CB8D28CD2AFD2A9E5
:02213B00220F71
:08332D00410310FF41030DFFF5
:104A7B00207C2FC2AC207B09207D06D27B8F9980B6
:104A8B001F900311E0FE04F0EE541F2452F8A6070A
:104A9B0090030EE0FF900311E06F541F7002D27C65
:034AAB00D2AC2268
:1046C20090026CEFF0BF0A21307C1912227690031F
:1046D20010EFF0E4FBFAFD7F0112227990031074CF
:1046E200FFF080E47F0D124A7B307C191222769013
:1046F2000310EFF0E4FBFAFD7F0112227990031020
:1047020074FFF080E490026CE0FF124A7B90026C2E
:03471200E0FF22A3
:104A120090030CE0FF90030FE0B507191222769085
:104A2200030DEFF0E4FBFAFD7F0112227990030DF2
:104A320074FFF080DB90030CE0FF04F0EF540724D6
:054A42004AF8E6FF2226
:0300230002432471
:10432400C0E0C0F0C083C082C0D075D010C27A3063
:10433400982FAF99C29890030CE02408FDE433FC55
:1043440090030FE06D7001EC600CE0FE04F0EE549D
:1043540007244AF8A61790030DE0FFF46003122225
:104364004F209903307A2FC299900311E0FF9003F4
:104374000EE06F601F207D1EE0FF04F0EF541F2449
:1043840052F8E6F599C27C900310E0FFF46007123E
:10439400224F8002C27BD0D0D082D083D0F0D0E034
:0143A40032E6
:104CF00053877F759850538EBF538EFE53890F4351
:0F4D00008920758BD0758DD0C2ABD28EC299220F
:104B430000C2A40000000000000000D2A500000085
:104B530000D2A40000000000000000C2A500000075
:104B63000000000000C2A4000000000000000022BA
:104D0F0000C2A400000000C2A500000000D2A40051
:0E4D1F00000000D2A5000000000000000022ED
:104D9C000000000000C2A400000000C2A50000003A
:0A4DAC0000D2A400000000C2A422FF
:104BD100124B4344A0FF124B73124BE2AF05124B31
:014BE1007360
:104BE200D2A500C2A40000000000000000D2A40070
:0D4BF200000000A2A5E433FF0000C2A422D1
:104C8400D2A500E4FEEF25E0FFD2A400000000005E
:104C9400000000A2A5E4334FFF0000000000000064
:0A4CA40000C2A40EEEB408DD0022E9
:104B730000E4FEEF30E704D2A58002C2A5000000E6
:104B830000D2A40000000000000000C2A400000046
:0F4B93000000000000EF25E0FF0EEEB408D52271
:10485000AC07C2B6EC25E0FC124BD1124B43EC4442
:10486000A1FF124B73124BE2900204E06401601945
:10487000124C84EF1216CD124D9C740129F9E43AC2
:10488000FA900204E014F080DF124C84EF1216CD8F
:09489000124BE2124D0FD2B622C8
:10492500C2B6EF25E0FF124BD1900279E060191273
:104935001687FF124B73124BE2740129F9E43AFA18
:10494500900279E014F080E1124D0FE4FFFE0000C3
:0E4955000FBF00010EBE5DF6BFC0F3D2B6224A
:104D8100AD07AC06ECFF7B017A0179FE9002047459
:0B4D910001F01248509001FEE0FF22EC
:104D4A00900273EDF0AB07AA06EAFFAD037B017A86
:0C4D5A000279739002797401F00249257F
:103335004102EE02604002A704FF337E03FF34EC36
:1033450010FF39EF06FF421417FF22D800000000D6
:103355000000000000000000000000000000000068
:103365000000000000000000000000000000000058
:08337500000000000000000050
:103FB500900273EFF0AE03E490027BF0ED600BC36B
:103FC50094014006EDD394F7400890027B7402F00B
:103FD500807B9002A3EDF0900273E0704A9002A4FA
:103FE50074FFF0A3744DF0A374B6F090029DE4F055
:103FF500A3F0A3F0AF06AD07C005900276E0FCA3E1
:10400500E0FDA3E0FEA3E0FF90027E1218C6900239
:104015007AE0900282F09002A3E0FFD0051245609D
:1040250090027BEFF0800690027B7402F090027B99
:10403500E0701A120003EF700890027B7403F080A1
:104045000C900273E09002EDF0A37401F090027BF6
:03405500E0FF2267
:10309400900312EBF0A3EAF0A3E9F0AD07E4C39DBB
:1030A40040030231FFED947F40030231FFC2AF9031
:1030B4000312E0FBA3E0FAA3E04A4B700302318859
:1030C400E4A3F0A3F0900315E0FEA3E0FFC3941083
:1030D400EE64809480400302316FEF7802C333CEF4
:1030E40033CED8F9FF24A8F58274023EF583E0FBC1
:1030F400A3E0FAA3E04A4B603674A82FF582740269
:103104003EF583E0FBA3E0FAA3E0F9C003C002C0EC
:1031140001900312E0FBA3E0FAA3E0F9D082D0838C
:10312400D0E06B7008E965827003EA6583702B74E4
:10313400A72FF58274023EF583EDF0900312E0FBB5
:10314400A3E0FAA3E0F974A82FF58274023EF58394
:10315400EBF0A3EAF0A3E9F08011900316E004F089
:103164007006900315E004F00230C9900315E07076
:1031740004A3E0641060047F0080027F04900317BE
:10318400EFF08073E4900315F0A3F0900315E0FED4
:10319400A3E0FFC39410EE648094805055EF78024E
:1031A400C333CE33CED8F924A7F58274023EF58317
:1031B400E0B5052E900315E0FEA3E07802C333CEFC
:1031C40033CED8F9FF24A7F58274023EF583E4F0E8
:1031D40074A82FF58274023EF583E4F0A3F0A3F003
:1031E4008010900316E004F070A1900315E004F041
:1031F4008099E4900317F0D2AF800690031774020D
:07320400F0900317E0FF2228
:104AE000E490031CF09002EEE0B4011A90029DE005
:104AF000FBA3E0FAA3E04A4B601290029DA3A3E05F
:104B0000F9121952800690031C7406F090031CE001
:024B1000FF2282
:104CAE00E4900273F09002EEE0B4010A120026E4E2
:104CBE009002EEF080069002737406F0900273E09C
:024CCE00FF22C3
:104A47009002EEE070149002A4A3E0FAA3E0F9123A
:104A570019529002EE7401F080079002EEE0B40163
:104A670007E490031DF0800690031D7406F0900381
:044A77001DE0FF221D
:1024FF00E4900275F09002EEE060037F06227B010C
:10250F007A02797612000EEF6401600302270790BA
:10251F000276E024FE604E04600302270790027AE1
:10252F007401F0A37402F0A37495F0A37401F0A3E7
:10253F007402F0A3749AF07B017A027998123F0922
:10254F00900275EFF060030227079002A3E0FF905F
:10255F000298E0FE6F6006EE60030227077F02120B
:10256F004DD1022707900295E0FBA3E0FAA3E0F913
:10257F00121687900299F090029C7401F0E4900279
:10258F0073F0A3F0900273E0FEA3E0FFC39410EE8C
:10259F00648094804003022694EF7802C333CE33D5
:1025AF00CED8F924A7F58274023EF583E0FF7003BD
:1025BF00022694900299E0FE6F6003022683EE24B8
:1025CF00FD603424FD606C24F6604A24F970030228
:1025DF0026602413600302269490027A7401F0A3FC
:1025EF007402F0A3749AF0900295E0FBA3E0FAA3B3
:1025FF00E0F912337E807690027A7401F0A37402B0
:10260F00F0A3749AF0900295E0FBA3E0FAA3E0F92F
:10261F001234EC805890027A7401F0A37402F0A384
:10262F00749AF0900295E0FBA3E0FAA3E0F9123957
:10263F00EF803A90027A7401F0A37402F0A3749AB7
:10264F00F0900295E0FBA3E0FAA3E0F912421480A8
:10265F001C90027A7401F0A37402F0A3749AF090A4
:10266F000295E0FBA3E0FAA3E0F91222D890029CB6
:10267F00EFF08011900274E004F07006900273E0A6
:10268F0004F0022593900298E0606D90029CE0FFA9
:10269F00603FE490029AF0A3F0900299E04480FE2C
:1026AF00900295E0FBA3E0FAA3E0F990029AE4759B
:1026BF00F00112172985F082F583EE1216DF9002D2
:1026CF009AE475F00112172985F082F583EF12163F
:1026DF00DF9002A3E0FF900295E0FBA3E0FAA3E0F6
:1026EF00F990029AE0FDA3E090027BCDF0A3EDF00C
:0B26FF00123E52900275EFF07F0022A7
:10270A0000C1814001C0804101C0804100C18140B7
:10271A0001C0804100C1814000C1814001C08041A7
:10272A0001C0804100C1814000C1814001C0804197
:10273A0000C1814001C0804101C0804100C1814087
:10274A0001C0804100C1814000C1814001C0804177
:10275A0000C1814001C0804101C0804100C1814067
:10276A0000C1814001C0804101C0804100C1814057
:10277A0001C0804100C1814000C1814001C0804147
:10278A0001C0804100C1814000C1814001C0804137
:10279A0000C1814001C0804101C0804100C1814027
:1027AA0000C1814001C0804101C0804100C1814017
:1027BA0001C0804100C1814000C1814001C0804107
:1027CA0000C1814001C0804101C0804100C18140F7
:1027DA0001C0804100C1814000C1814001C08041E7
:1027EA0001C0804100C1814000C1814001C08041D7
:1027FA0000C1814001C0804101C0804100C18140C7
:10280A0000C0C101C30302C2C60607C705C5C40486
:10281A00CC0C0DCD0FCFCE0E0ACACB0BC90908C8F6
:10282A00D81819D91BDBDA1A1EDEDF1FDD1D1CDCE6
:10283A0014D4D515D71716D6D21213D311D1D01056
:10284A00F03031F133F3F23236F6F737F53534F446
:10285A003CFCFD3DFF3F3EFEFA3A3BFB39F9F838B6
:10286A0028E8E929EB2B2AEAEE2E2FEF2DEDEC2CA6
:10287A00E42425E527E7E62622E2E323E12120E016
:10288A00A06061A163A3A26266A6A767A56564A406
:10289A006CACAD6DAF6F6EAEAA6A6BAB69A9A86876
:1028AA0078B8B979BB7B7ABABE7E7FBF7DBDBC7C66
:1028BA00B47475B577B7B67672B2B373B17170B0D6
:1028CA0050909151935352929656579755959454C6
:1028DA009C5C5D9D5F9F9E5E5A9A9B5B9959589836
:1028EA00884849894B8B8A4A4E8E8F4F8D4D4C8C26
:1028FA004484854587474686824243834181804096
:1045BE00900282EBF0A3EAF0A3E9F0A3ECF0A3EDF6
:1045CE00F07FFF7DFF90028574FFF5F012172945ED
:1045DE00F06033900282E0FBA3E475F0011217291C
:1045EE00A9F0FA1216876DFB7A00240AF582EA34D6
:1045FE0027F583E4936FFD740A2BF582EA3428F5D0
:0B460E0083E493FF80BFEFFEEDFF226E
:10456000E4900283F0C2AFAF05C00790027EE0FC8A
:10457000A3E0FDA3E0FEA3E0FF9002851218C69021
:1045800002897408F0900282E090028AF0D007124B
:104590004058EF64016002801290027EA3A3E0FE07
:1045A000A3E0FF1247B7EF64016006900283740333
:0E45B000F0D2AFE4900000F0900283E0FF2212
:10002600C2AFE4900001F0FD7F01124BA2124DC455
:03003600D2AF2224
:0E4DB600C2AFE4FDFF124BA2124DDDD2AF22C0
:103F0900900277EBF0A3EAF0A3E9F0E4900280F0E5
:103F1900A3F0C2AFC3900003E09404900002E094C0
:103F29000040667B017A007904E0FCA3E0FD1245BC
:103F3900BEEF4E7054900004E0FF900277E0FBA3BF
:103F4900E0FAA3E0F9EF1216CD900003E024FDFF9B
:103F5900900002E034FFF990027DE0FBA3E0FAA3B0
:103F6900E0C98FF01217A27B017A007905C003C05E
:103F790002C00190027AE0FBA3E0FAA3E0F912196A
:103F8900039002807401F0801B7B017A0079049010
:103F99000002E0FCA3E0FD1245BEEF4E6006900270
:0C3FA900817405F0D2AF900281E0FF228D
:103E5200E490027DF0C2AF900001E06401600302D1
:103E62003EFBE924FFF9EA34FFFA900106EBF0A3E6
:103E7200EAF0A3E9F0900104E4F0A304F090010653
:103E8200E0FBA3E0FAA3E0F9EF1216CD90027BE08B
:103E9200FEA3E0FF900105E02FF0900104E03EF068
:103EA200900106E0FBA3E0FAA3E0F9900104E0FC34
:103EB200A3E0FD1245BE900104E475F0011217293A
:103EC200FA740425F0F58274003AF583EFF0EEFF00
:103ED200900104E475F001121729FC740425F0F531
:103EE2008274003CF583EFF09000007401F0FDE471
:103EF200FF124BA2124490800690027D7405F0D20C
:073F0200AF90027DE0FF22F9
:1042A000E4900293F07B017A027994124DE690003B
:1042B00001E014600C1460351460042403705F8006
:1042C0005AE4900002F0A3F0900294E0FF90000204
:1042D000E475F001121729FC740425F0F5827400CE
:1042E0003CF583EFF09000017402F0802EC3900043
:1042F00002E09401501F900294E0FF900002E475E8
:10430000F001121729FC740425F0F58274003CF5C5
:1043100083EFF080069000017403F0124DC4900208
:0443200093E0FF2205
:10449000E4900293F0900000E014600C047055E486
:1044A000FD7F01124BA2804C900104E07002A3E05A
:1044B000602C900106E0FBA3E0FAA3E0F912168756
:1044C000FF12003E900107E475F0011217139001EE
:1044D00005E024FFF0900104E034FFF080167F0334
:1044E000124DD1900293EFF0E4FD7F01124BA2E454
:0A44F000900000F0900293E0FF221C
:1049D900E4900292F0900001E024FE601314601A42
:1049E90024037016E4FF124DD1900292EFF0800A71
:1049F9007F01124DD1900292EFF0124DDD9000012E
:094A09007401F0900292E0FF221A
:1047B700EF4E602BEF25E0FFEE33FE7C007D0C1201
:1047C7001958A804A905AA06AB077F007E807D8338
:1047D7007C651217FD900318EEF0A3EFF08007E455
:1047E700900318F0A3F0E4F5D8F5D975DA489003EB
:0D47F70018E0FEA3E0F5EAEEF5FA7F0122DE
:0D4DC400E4F5D875DA49F5E9F5F9D2DE22FB
:094DDD00C2DE75DA48E4F5D822C3
:03003B0002499ED9
:10499E00C0E0C0F0C083C082C0D075D000C000C0DF
:1049AE0001C002C003C004C005C006C0071249D929
:1049BE00D007D006D005D004D003D002D001D0004D
:0B49CE00D0D0D082D083D0F0D0E032F7
:0100390022A4
:08000300E490031AF07F0122D2
:0C4DD10090031A7401F0A3EFF07F0122A0
:10000E00E4FF90031AE0600BA3E01216CDE4900318
:04001E001AF00F22A3
:104BA200EF6007ED6004D2908015EF700AED6007A8
:104BB200D290539AEF800BEF600CED7009C29043D4
:0F4BC2009A1043AF0122C290539AEF53AFFE22D5
:10405800900284EFF07F007EC27D017C00A3E0F82F
:10406800A3E0F9A3E0FAA3E0FBD312188F5016E4FB
:104078007F807E25FDFC900285E0F8A3A3A3E0C322
:1040880012188F500A9002851218D200004B009027
:104098000285E0F8A3E0F9A3E0FAA3E0FB7F007E45
:1040A800807D517C011217FDE47B20FAF9F8121784
:1040B800FDEFF404F59C900284E0B4011553877F6A
:1040C800759850438E04438E01438E10C29CC2AC37
:1040D8008012538EF7759A50438E04438E10539A6C
:0940E800EF53AFFEC2907F0122EC
:05003E008F9B7F0122F1
:084DE600E59B1216CD7F0122AE
:034DEE00024490EC
:034DF1000242A0DB
:030043000247660B
:10476600C0E0C0F0C083C082C0D075D000C000C019
:1047760001C002C003C004C005C006C007E59A30E8
:10478600E006539AFE124DF1E59A30E109539AFD7F
:10479600309003124DEED007D006D005D004D003DA
:1047A600D002D001D000D0D0D082D083D0F0D0E0DB
:0147B60032D0
:01003A0022A3
:10421400900277EBF0A3EAF0A3E9F0E490027FF0D8
:1042240090027AE0FBA3E0FAA3E0F912173F6405D9
:1042340045F0705C900277E0FBA3E0FAA3E0F9900C
:1042440000011216A090027DF0A3E4F09000021287
:1042540016A0FF90027DE0F0A3E04FF0E004F070C0
:104264000690027DE004F0E92403F9E43AFA9002AE
:104274007DE0FCA3E0FD90028EE4F0A304F0A3F043
:10428400122AFFEF6010124D2D90027FEFF080068E
:0C42940090027F7403F090027FE0FF2294
:1039EF00900277EBF0A3EAF0A3E9F0E4900281F004
:1039FF0090027AE0FBA3E0FAA3E0F912173FC39419
:103A0F0006E5F094005003023ADC900277E0FBA346
:103A1F00E0FAA3E0F99000011216A090027DF0A346
:103A2F00E4F09000021216A0FF90027DE0F0A3E0F8
:103A3F004FF0E004F0700690027DE004F090000378
:103A4F001216A090027FF0A3E4F09000041216A0CB
:103A5F00FF90027FE0F0A3E04FF09000051216A058
:103A6F00FF90027FE0FCA3E0FDC39401EC940040C3
:103A7F005CD3ED9478EC94005053ED25E06F704DCE
:103A8F00900277E0FBA3E0FAA3E02406F9E43AFA08
:103A9F0090027DE0FCA3E0FDA3E0FFA3E090028E87
:103AAF00CFF0A3EFF0A37401F0122AFFEF600A1218
:103ABF004D2D900281EFF0801A90027AE0FBA3E087
:103ACF00FAA3E0F9E475F0051217A28006900281BF
:093ADF007403F0900281E0FF2263
:1034EC00900277EBF0A3EAF0A3E9F0E4900284F009
:1034FC0090027AE0FBA3E0FAA3E0F912173F64050F
:10350C0045F0600302364A900277E0FBA3E0FAA391
:10351C00E0F99000011216A090027DF0A3E4F09067
:10352C0000021216A0FF90027DE0F0A3E04FF0E045
:10353C0004F0700690027DE004F09000031216A0D7
:10354C0090027FF0A3E4F09000041216A0FF7E001E
:10355C0090027FEEF0A3EFF0C39401EE94005003C1
:10356C0002364AD3E0947D90027FE094004003023F
:10357C00364A900277E0F9A3E0FAA3E0900281C901
:10358C00F0A3EAF0A3E9F090027AE0FBA3E0FAA33F
:10359C00E0F9E4F5F01217A2900281E0FBA3E475C8
:1035AC00F001121729A9F0FA74031216CD90027AC1
:1035BC00E0FBA3E0FAA3E0F9E475F00112176A90BE
:1035CC00027FA3E025E0FFA3E0FBA3E475F001126A
:1035DC001729A9F0FAEF1216CD90027AE0FBA3E0BE
:1035EC00FAA3E0F9E475F00112176A900281E0FB8E
:1035FC00A3E0FAA3E0F990027DE0FCA3E0FDA3E0D8
:10360C00FFA3E090028ECFF0A3EFF0E4A3F0122A18
:10361C00FFEF600A124D2D900284EFF0802690028D
:10362C0080E025E0FF90027FE033FE90027AE0FB21
:10363C00A3E0FAA3E0F9EE8FF012176A800690026D
:0A364C00847403F0900284E0FF2272
:1022D800900277EBF0A3EAF0A3E9F0E4900288F02B
:1022E80090027AE0FBA3E0FAA3E0F912173FC39447
:1022F8000AE5F0940050030224F9900277E0FBA36A
:10230800E0FAA3E0F99000011216A090027DF0A374
:10231800E4F09000021216A0FF90027DE0F0A3E026
:102328004FF0E004F0700690027DE004F0900003A6
:102338001216A090027FF0A3E4F09000041216A0F9
:10234800FF90027FE0F0A3E04FF09000051216A086
:10235800900281F0A3E4F09000061216A0FF90020C
:1023680081E0F0A3E04FF0E004F07006900281E015
:1023780004F09000071216A0900283F0A3E4F090F6
:1023880000081216A0FF900283E0F0A3E04FF0903F
:1023980000091216A0FD90027FE0FEA3E0FFC3949F
:1023A80001EE940050030224F3D3EF947DEE9400E1
:1023B80040030224F3900283E0FEA3E0FFC39401EC
:1023C800EE940050030224F3D3EF9479EE94004086
:1023D800030224F3EF25E0FFEE33FEED6F7001EE0C
:1023E80060030224F3900277E0FBA3E0FAA3E02461
:1023F8000AF9E43AFA900281E0FCA3E0FDA3E0FFC9
:10240800A3E090028ECFF0A3EFF0A37401F0122A9C
:10241800FFAD07ED60030224E5900277E0F9A3E041
:10242800FAA3E0900285C9F0A3EAF0A3E9F09002CC
:102438007AE0FBA3E0FAA3E0F9E4F5F01217A29022
:102448000285E0FBA3E475F001121729A9F0FA74DC
:10245800171216CD90027AE0FBA3E0FAA3E0F9E4A4
:1024680075F00112176A90027FA3E025E0FF900241
:1024780085E0FBA3E475F001121729A9F0FAEF1221
:1024880016CD90027AE0FBA3E0FAA3E0F9E475F038
:102498000112176A900285E0FBA3E0FAA3E0F99025
:1024A800027DE0FCA3E0FDA3E0FFA3E090028ECF55
:1024B800F0A3EFF0E4A3F0122AFFAD07ED701E9031
:1024C8000280E025E0FF90027FE033FE90027AE090
:1024D800FBA3E0FAA3E0F9EE8FF012176AED6011A2
:1024E800FF124D2D900288EFF08006900288740349
:0724F800F0900288E0FF22D2
:1037AF009002EFEBF0A3EAF0A3E9F09002F5E0FF4F
:1037BF009002FCE4F0A3EFF0EDAE047803CEC31358
:1037CF00CE13D8F9FF9002FAEEF0A3EFF09002FAC1
:1037DF00E0FEA3E07803C333CE33CED8F9FFC3EDB9
:1037EF009FFFEC9E9002FCE0FEA3E0A80708800577
:1037FF00C333CE33CED8F9F0EE9002FCF09002F442
:10380F00E0FF74017E00A807088005C333CE33CED6
:10381F00D8F924FFFFEE34FF9002F8F0A3EFF0A3E6
:10382F00A3E075F008A4FFC3ED9FFF9002F8E0FE40
:10383F00A3E0A807088005C333CE33CED8F9F0EE46
:10384F009002F8F09002EFE0FBA3E0FAA3E0F9900A
:10385F0002FAE0FEA3E0F5828E831216A0FF90021B
:10386F00F6E4F0A3EFF09002FBE02401FF9002FAE0
:10387F00E034008F82F5831216A0FE9002F6E04E20
:10388F00F0A3E0F0A3E0FEA3E0F4FFEEF4FE90025D
:10389F00F6E05EFEA3E05FFF9002FCE04EFEA3E0C9
:1038AF004FFF9002F6EEF0A3EFF09002FAE0FCA3C8
:1038BF00E0FDF5828C83EF1216DF9002F6E08D8229
:0638CF008C83A30216DF4A
:103CB7009002FEEBF0A3EAF0A3E9F0EDAE0478037F
:103CC700CEC313CE13D8F9FF900308EEF0A3EFF09D
:103CD700900308E0FEA3E07803C333CE33CED8F9D0
:103CE700FFC3ED9FFFEC9E90030AF0A3EFF0900354
:103CF70003E0FF74017E00A807088005C333CE33B5
:103D0700CED8F924FFFFEE34FF900306F0A3EFF0BF
:103D17009002FEE0FBA3E0FAA3E0F9900308E0FEBF
:103D2700A3E0F5828E831216A0FF900304E4F0A3AC
:103D3700EFF0900309E02401FF900308E034008FBF
:103D470082F5831216A0FE900304E04EF0A3E0F084
:103D570090030AA3E0FF900304E0FEA3E0A807088E
:103D67008005CEC313CE13D8F9FF900304EEF0A35A
:103D7700EFF0A3E05EFEA3E05FFF900304EEF0A385
:033D8700EFF02238
:104D2D00EF14600C24FA600C2407700CE4FE800A6A
:0D4D3D007E0280067E0680027E04AF062204
:10337E00900277EBF0A3EAF0A3E9F0E4900284F078
:10338E0090027AE0FBA3E0FAA3E0F912173F64057E
:10339E0045F060030234E0900277E0FBA3E0FAA36D
:1033AE00E0F99000011216A090027DF0A3E4F090D7
:1033BE0000021216A0FF90027DE0F0A3E04FF0E0B5
:1033CE0004F0700690027DE004F09000031216A047
:1033DE0090027FF0A3E4F09000041216A0FF90027A
:1033EE007FE0FEA3E04FFF90027FEEF0FEA3EFF032
:1033FE00C39401EE940050030234E0E0947D9002F9
:10340E007FE0940040030234E0900277E0F9A3E0FD
:10341E00FAA3E0900281C9F0A3EAF0A3E9F09002CA
:10342E007AE0FBA3E0FAA3E0F9E4F5F01217A2901C
:10343E000281E0FBA3E475F001121729A9F0FA74DA
:10344E00041216CD90027AE0FBA3E0FAA3E0F9E4B1
:10345E0075F00112176A90027FA3E025E0FFA3E04A
:10346E00FBA3E475F001121729A9F0FAEF1216CD9D
:10347E0090027AE0FBA3E0FAA3E0F9E475F0011202
:10348E00176A900281E0FBA3E0FAA3E0F990027DB7
:10349E00E0FCA3E0FDA3E0FFA3E090028ACFF0A33F
:1034AE00EFF0123656EF600A124D2D900284EFF0B7
:1034BE008026900280E025E0FF90027FE033FE90B0
:1034CE00027AE0FBA3E0FAA3E0F9EE8FF012176A9E
:0E34DE0080069002847403F0900284E0FF22C6
:10213D00EFD3940F40037FFF2274732F2FF8E62007
:10214D00E5F4C2AFE64430F6D2AFAE0CEEC39F500D
:10215D00210E74922EF8E6F908E618BE0F0274FFF0
:10216D00FDED69600909E71919F7090980F31616DC
:10217D0080DAEED39F400405810581EED39F402286
:10218D0074922EF808E6F9EEB50C02A98118060630
:10219D00E6FDED6960091919E70909F71980F31EC4
:1021AD0080D9EF2492F8E604F8EF2F04904CD093E9
:0921BD00F608EF2F93F67F0022D3
:1021C600EFD3940F40037FFF22EF232473F8E6300A
:1021D600E5F4C2AFE6548CF6D2AFE50CB5070A7447
:1021E600922FF8E6F581022069502E74932FF8E6B7
:1021F600BF0F0274FFFD18E6F974922FF8FBE6FC98
:10220600E96C6008A805E7F61D1980F4A803A60581
:102216001FE50CB507E37F002274932FF8E6FD183F
:1022260086010F74922FF8A601088604E50CB507FF
:1022360002AC81ED6C60080D09A805E6F780F4E5AF
:092246000CB507DE89817F00223E
:10224F00EFD3940F40037FFF22EF232473F8C2AF25
:10225F00E630E50530E002D2E4D2E2C6D2AF7F002D
:07226F0030E2010F022066BE
:03227600AF0C2288
:102279008FF0E4FFFEE50C232472F8C2A930F70DB4
:102289007F08E6600B2DF660325030800730F1068A
:10229900EDF660277E020830F010C2AFE610E725A0
:1022A9000E30E20CD2AF7F048014C2AFE610E715FE
:1022B90054EC4EF6D2AFD2A90220697F0808EF4448
:0F22C90083F4C2AF56C6D2AFD2A954804FFF22C2
:10419400022103E493A3F8E493A34003F68001F21D
:1041A40008DFF48029E493A3F85407240CC8C3332C
:1041B400C4540F4420C8834004F456800146F6DFFB
:1041C400E4800B010204081020408090320BE47E4E
:1041D400019360BCA3FF543F30E509541FFEE493F0
:1041E400A360010ECF54C025E060A840B8E493A3B7
:1041F400FAE493A3F8E493A3C8C582C8CAC583CAE2
:10420400F0A3C8C582C8CAC583CADFE9DEE780BE99
:01337D00004F
:10166500C2D530F707B2D563F0FF05F030E70CB20D
:10167500D5F4048463F0FF05F080018430D502F4CD
:0216850004223D
:10168700BB010689828A83E0225002E722BBFE0261
:09169700E32289828A83E4932294
:1016A000BB010CE58229F582E5833AF583E02250FF
:1016B00006E92582F8E622BBFE06E92582F8E22249
:0D16C000E58229F582E5833AF583E4932263
:1016CD00BB010689828A83F0225002F722BBFE01FC
:0216DD00F322F6
:1016DF00F8BB010DE58229F582E5833AF583E8F041
:1016EF00225006E92582C8F622BBFE05E92582C8ED
:0216FF00F222D5
:10170100EF8DF0A4A8F0CF8CF0A428CE8DF0A42EFC
:02171100FE22B6
:10171300C5F0F8A3E028F0C5F0F8E5821582700261
:061723001583E038F022FE
:10172900A3F8E0C5F025F0F0E58215827002158373
:06173900E0C838F0E822D0
:10173F00BB010A89828A83E0F5F0A3E02250068775
:10174F00F009E71922BBFE07E3F5F009E319228937
:0B175F00828A83E493F5F0740193226A
:10176A00BB010789828A83021713500B09C5F02728
:10177A00F7C5F01937F722BBFE0D09F8E325F0F398
:10178A00C5F019E338F322F889828A837401932514
:08179A00F0C5F0F8E4933822D9
:1017A200BB010A89828A83F0E5F0A3F0225006F792
:0F17B20009A7F01922BBFE06F3E5F009F319228F
:1017C10075F008758200EF2FFFEE33FECD33CDCCDF
:1017D10033CCC58233C5829BED9AEC99E582984062
:1017E1000CF582EE9BFEED9AFDEC99FC0FD5F0D63F
:1017F100E4CEFBE4CDFAE4CCF9A88222B800C1B969
:101801000059BA002DEC8BF084CFCECDFCE5F0CBA6
:10181100F97818EF2FFFEE33FEED33FDEC33FCEBDF
:1018210033FB10D703994004EB99FB0FD8E5E4F99A
:10183100FA227818EF2FFFEE33FEED33FDEC33FC87
:10184100C933C910D7059BE99A4007EC9BFCE99A7B
:10185100F90FD8E0E4C9FAE4CCFB2275F010EF2FC0
:10186100FFEE33FEED33FDCC33CCC833C810D707C0
:101871009BEC9AE899400AED9BFDEC9AFCE899F8FB
:0E1881000FD5F0DAE4CDFBE4CCFAE4C8F9228E
:10188F00EB9FF5F0EA9E42F0E99D42F0E89C45F0AF
:01189F002226
:1018A000E8600FECC313FCED13FDEE13FEEF13FF26
:0318B000D8F1224A
:1018B300E8600FEFC333FFEE33FEED33FDEC33FC93
:0318C300D8F12237
:0C18C600ECF0A3EDF0A3EEF0A3EFF02295
:1018D200A8828583F0D083D0821218E91218E91207
:1018E20018E91218E9E473E493A3C583C5F0C5832C
:1018F200C8C582C8F0A3C583C5F0C583C8C582C860
:0119020022C2
:10190300BB011A89828A83D0F0D0E0F8D0E0F9D005
:10191300E0FAD0E0FBE8C0E0C0F00219A55016E9F8
:10192300F8D083D082D0E0F9D0E0FAD0E0FBC082D7
:10193300C083021985BBFE16E9F8D083D082D0E0BC
:0F194300F9D0E0FAD0E0FBC082C0830219AE22D7
:061952008A838982E47320
:10195800EC8EF0A4CCC5F0CCCDF8EFA4CEC5F02D1C
:10196800FDE43CFCE8A42EC8C5F03DFDE43CFCEFDA
:0D197800A4FFE5F028FEE43DFDE43CFC2268
:1019DD00E5452447F582E43402F583E00545229080
:1019ED000244307503900247E475F00112198E021E
:1019FD001687206EE97F2ED26E8018EF540F24903B
:101A0D00D43440D4FF30720BEF24BFB41A0050030E
:101A1D002461FFE546600215460549E5497002055A
:101A2D004830750E900244E475F00112198EEF02E4
:101A3D0016CD0246C27403D2758003E4C275F54516
:101A4D009002441219A5E4F546F548F549E54660BE
:101A5D00077F20121A2080F57547FFC26FC26EC234
:101A6D0070C271C273C274C2761219ECFF700D3060
:101A7D0075057F00121A31AF49AE4822B4255FC2F9
:101A8D00D5C2721219ECFF24D0B40A00501A75F0A9
:101A9D000A784630D50508B6FF0106C6A426F620FD
:101AAD00D5047002D27180D924CFB41A00EF50043E
:101ABD00C2E5D272021C32D26F80C6D26E80C0D205
:101ACD007080BCD2D580BAD27380B47F20121A2018
:101ADD002070077401B5460040F11219DDFF121A8E
:101AED0020021A5AD276D27480951219DDFB121982
:101AFD00DDFA1219DDF94A4B700679037A1D7BFF69
:101B0D0020702EE546602A7E008E827583001216A7
:101B1D00A060060EEE654770F0C2D5EBC0E0EAC0DE
:101B2D00E0E9C0E0EE121C79D0E0F9D0E0FAD0E0A7
:101B3D00FB121687FF60AAEBC0E0EAC0E0E9C0E047
:101B4D00121A20D0E02401F9D0E03400FAD0E0FBE5
:101B5D00E5470460DCD547D980877BFF7A1C797512
:101B6D00D270809C791080027908C274C276800888
:101B7D00D2D5790A8004790AC2D5E547047002F5F9
:101B8D0047E4FAFDFEFF1219DDFC7B08206F1312EE
:101B9D0019DDFD7B10306E0A1219DDFE1219DDFF05
:101BAD007B20EC3382D592D55013C3E4306E069F63
:101BBD00FFE49EFEE4206F039DFDE49CFCE4CBF866
:101BCD00C26FEC700CCFCECDCCE824F8F870F3805A
:101BDD0017C3EF33FFEE33FEED33FDEC33FCEB3388
:101BED00FB994002FB0FD8E9EB306F05F8D0E0C44C
:101BFD0048B26FC0E00AEC4D4E4F78207B0070C2AA
:101C0D00EAB5470040BCC0E0121C7BD0F0D0E0200C
:101C1D006F04C4C0E0C4B26FC0F0121A09D0F0D581
:101C2D00F0EB021A5A1219B71AF7531B71581AC84A
:101C3D004C1AC4421B754F1B7D441B7D491ADD4355
:081C4D001B83551B67461B6752
:101C5500451B67471D23501ACC2D1AD02E1AF32B7E
:101C65001AD4231AF1201D0C2A1A8C4800001AEBED
:101C75003F3F3F00790AA2D5207114307309B9108E
:101C8500020404B9080104A2D520740250010420FD
:101C950070689270B546005034C0E07F20307119ED
:101CA5007F30A27072747273500F121CD2C270C250
:101CB50074C273C2767F30800F307303E9C0E012BF
:101CC5001A20307303D0E0F9D0E0B546CC30731755
:101CD5007F30B9100C121A207F583072077F788038
:101CE50003B90803121A203070057F2D021A207FD0
:101CF500202076F87F2B2074F322927080CF286EF7
:101D0500756C6C2900D26F1219DD306FF8C26F78CF
:101D15004630D50108F6021A8C2D50434958121940
:101D2500DD2403B405004001E4901D1E93121A1131
:0D1D3500743A121A11D271754604021B7126
:09198500EBF608EAF608E9F62287
:10198E00F8E0FBA3A3E0F925F0F0E58215827002E2
:07199E001583E0FA38F02286
:0919A500EBF0A3EAF0A3E9F02243
:0919AE00EBF208EAF208E9F2226A
:1019B700D083D082F8E4937012740193700DA3A3BF
:1019C70093F8740193F5828883E4737402936860D3
:0619D700EFA3A3A380DFD3
:00000001FF
