:024CAE004300C1
:024CB00040CDF5
:024CB2000046BA
:024CB4003AC400
:024CB6001D1CC3
:024CB80038B111
:024CBA0010EDFB
:024CBC0009EC01
:024CBE002EAF17
:024CC0002CC9FD
:024CC2003BB9FC
:024CC4004403A7
:024CC600464D59
:024CC80048BEE4
:024CCA0045F7AC
:024CCC003D6643
:0300000002416456
:0C416400787FE4F6D8FD7581960241AB2F
:104D44002A2A2D0073746172746564210A002A2A68
:0B4D54002E002A2A5028256C7529002B
:1031E500420194000142016E00014101D7F26040A5
:1031F50001290A050303050A032801002300030426
:10320500140F0F1A010501006401040407030A0ADB
:103215000F0F030F14010000140A01000314140515
:10322500020000141400000000000000000000006F
:1032350000AAC14BC14AC14CC148C149C1D84201CC
:1032450075000041012300420192000042019000F7
:10325500004201DC00004201DA00004201D8000012
:103265004101D6004201250000420127000041012D
:103275002400C180C181C104C105C106C107C108BF
:10328500C10AC10DC10FC110C112C113C115C117AA
:10329500C118C11AC11DC11EC1A0C1A2C1A4C1A628
:1032A500C128C12AC12CC12EC12FC131C132C1B41F
:1032B500C1B6C137C1394101090041010A004101C7
:1032C5000B0042010C000041010E0041010F0041BD
:1032D50001100041011100420112000042011400D9
:1032E50000420116000041011800C13BC13C4101EB
:1032F5001900C13DC13EC13F45011A000000000053
:0433050041011F0063
:104300001228E47F091221177D0A7F021222537FAF
:10431000031221177D0A7F021222537F04122117F4
:104320007D0A7F021222537F051221177D0A7F0228
:104330001222537F061221177D0A7F021222537F19
:10434000071221177D0A7F021222537F08122117BC
:104350007D0A7F021222537F0A1221177D0A7F02F3
:104360001222537F0F1221177D0A7F0212225380DF
:10437000007F021221177DFA7F02122253E4FF020E
:0243800021A07A
:1028E400124CCEE490016DF0900177F0A3F0A3F0C8
:1028F400A3F0A3F0A3F0900121F0A3F0900120F045
:10290400900170F0C255C253C24190016BF0A3F024
:1029140090018EF0A3F0C24DC24FC24EC244C240D9
:10292400C257D254C243C252C247124A8C7D647FFA
:10293400021222537D647F021222537D647F0212AD
:1029440022537D647F021222537D647F021222533C
:102954009001FA1218AC00000000E47F02FEFDFCB6
:102964009001FAE0F8A3E0F9A3E0FAA3E0FBC312B4
:1029740018695068E49001F9F09001F9E0FFC3642C
:10298400809488500B74372FF8E4F6E004F080E963
:10299400E49001F9F09001F9E0FFC3648094905051
:1029A40019EF3395E0FE747D2FF58274013EF583B3
:1029B400E4F09001F9E004F080DB9001FAE0FCA37C
:1029C400E0FDA3E0FEA3E02401FFE43EFEE43DFDC0
:1029D400E43CFC9001FA1218A002295E7F0412481C
:1029E400977F01124C0E124A8CC245E49001F9F013
:1029F4009001F9E0FFC3648094C05025EF3395E063
:102A0400FE124D5F9001F9E0FD3395E0FC74962DC4
:102A1400F58274013CF583EFF09001F9E004F08055
:102A2400CF1247E27F017E02124D5FE4FCFDFE7887
:102A34001012188DC004C005C006C0077F007E02B6
:102A4400124D5FE4FCFDFE781812188DD003D002FD
:102A5400D001D000EF2BFFEE3AFEED39FDEC38FC4F
:102A6400C004C005C006C0077402FFFE124D5FE437
:102A7400FCFDFE780812188DD003D002D001D000DE
:102A8400EB2FFFEA3EFEE93DFDE83CFCC004C00537
:102A9400C006C0077F037E02124D5FE4FCFDFED03A
:102AA40003D002D001D000EB2FFFEE3AFEED39FD4A
:102AB400EC38FC9001711218A0E53230E21230E3D8
:102AC4000FE53430E30A9001711218AC00000000E5
:052AD4007F2E0248976F
:100046007D647F021222531247E2124A8C7D017FA1
:1000560002122253E53E20E7EEE52F139221E52F0B
:10006600A2E19202A2E4920330033220052FE53684
:1000760030E0079001D4E04401F07F30124AF0509E
:10008600079001D4E054FEF0D25674C61244DAE565
:100096002F30E4097DC87F0212225380F230212ED0
:1000A60030202B30021130040E20000B20030820D4
:1000B60005051246F3803230032F30052C20012926
:1000C60020022620042390016D74C6F0801820219A
:1000D6001820201590016DE0FF6005D3946440065A
:1000E60090016D7463F01244DE300205300402D2D2
:1000F60000200205200402C200300305300502D2AA
:1001060001200305200502C201A2219220A202922B
:1001160004A2039205E53030E6057F13124C0E90DB
:10012600016DE06005C3946440077F06124C0E80A3
:100136000E90016DE0C3946450057F0612489790B7
:100146000178E07002A3E0600E900179E024FFF0F0
:10015600900178E034FFF090017AE0600214F090AC
:10016600017BE07002A3E0600E90017CE024FFF0CA
:1001760090017BE034FFF0900122E0600214F090E1
:100186000121E07F03600B124897900121E014F0F3
:100196008003124C0E900177E07F18600B1248978F
:1001A600900177E014F08003124C0EE53130E41A2A
:1001B60030E5179001C2E075F00AA4FF900178E5DA
:1001C600F0F0A3EFF07F23124C0EE52F30E30B2067
:1001D60006082053057F01122117E52FA2E3920698
:1001E600E53130E3142007119001B4E075F00AA45C
:1001F60090017AF07F24124C0EE531A2E39207A219
:10020600E4921F301F15201E129001C1E075F00AFE
:10021600A4FF900175E5F0F0A3EFF0900175E07092
:1002260002A3E0600E900176E024FFF0900175E0F5
:1002360034FFF0A21F921EE533A2E39214A24A9263
:10024600333033342032319001D4E030E02A301498
:10025600149001C8E075F00AA4FF900114E5F0F0CF
:10026600A3EFF080137F30124897D248900125748F
:1002760001F0A3742CF0C24CA2339232E52F30E584
:1002860002D255E53430E42B200A2830552590015A
:10029600B5E075F00AA4900177F09001A0E075F042
:1002A6000AA4FF90017BE5F0F0A3EFF07F25124C46
:1002B6000EC255E534A2E4920AE532A2E292383043
:1002C600380C20370990016DE0B47E02E4F0A238C4
:1002D6009237E532A2E3923A303A0C20390990017E
:1002E6006DE0B47F02E4F0A23A9239E533A2E192DE
:1002F6001B301B21201A1E900111E070189001B2CC
:10030600E075F00AA4FF900192E5F0F0A3EFF090FB
:10031600011174FAF0900111E0600214F09001925C
:10032600E07002A3E0600E900193E024FFF09001DC
:1003360092E034FFF0900192E07004A3E064017053
:10034600107F321248977F27124C0E90010F74329D
:10035600F090010FE0600214F090010FE0B4010B81
:100366007F331248979001107464F0900110E0609A
:100376000214F0900110E0B4010B7F32124C0E9083
:10038600010E741EF090010EE0600214F090010E52
:10039600E0B4010A7F271248977F33124C0EA21B46
:1003A600921AE533A2E2921130111B301018201276
:1003B6001590016DE0FF6005C39464400690016DE1
:1003C6007422F01244DE301105301002D2122011D0
:1003D60005201002C212A2119210A21D921CE53332
:1003E600A2E3921430142C2013299001C9E0700561
:1003F600124877801E9001D4E04401F0C24C304A86
:10040600129001C8E075F00AA4FF900114E5F0F01F
:10041600A3EFF0A2149213900123E06401702F7FE2
:1004260029124AF0500F7F29124C0E9001C5E09018
:100436000123F080199001D6E060137F29124897B6
:100446009001C5E0900123F09001D6E014F09001F0
:1004560023E0600214F0E534A2E6923520352D2023
:10046600342A3036279001CBE075F064A4FF900162
:1004760012E5F0F0A3EFF090016DE0FF6005C39484
:1004860064400690016D742EF01244DE303505305E
:100496003402D236203505203402C236A2359234D3
:1004A600900112E07002A3E0600E900113E024FFB9
:1004B600F0900112E034FFF0900112E07004A3E026
:1004C600640170057F0B124897E5351392163016B6
:1004D6003330153020172D7F30124AF05026C2488F
:1004E6009001D4E054FEF0C24C9001C7E075F00ACA
:1004F600A4FF900116E5F0F0A3EFF09001C9E060CB
:1005060003124877301605301502D217201605203B
:100516001502C217A2169215E535A2E192193019F5
:1005260005201802C249A2199218E535A2E29223C3
:10053600A2E39225A2E49227A2E59229A2E6922BB3
:1005460020231820221590016DE0FF6005C39464F6
:10055600400690016D7432F01244DE2025182024E6
:100566001590016DE0FF6005C39464400690016D2F
:100576007433F01244DE20271820261590016DE012
:10058600FF6005C39464400690016D7434F0124414
:10059600DE30291830281590016DE0FF6005C39400
:1005A60064400690016D7435F01244DE302B18302D
:1005B6002A1590016DE0FF6005C394644006900122
:1005C6006D7436F01244DEA2239222A2259224A252
:1005D600279226A2299228A22B922AE53533922D1C
:1005E600E536A2E19230302D3E302C3B202E3820CD
:1005F6003035900118E0B4392EE49001DAF0A3F01A
:100606007F35124C0E90016D7437F01244DE900166
:10061600ACE075F064A4FF9001D8E5F0F0A3EFF02C
:10062600E4900118F0800C202D09302C069001185A
:100636007437F0202D05202C02C22E302D05302CCB
:1006460002D22EA22D922CE536A2E1923030303E17
:10065600302F3B203138202D35900118E0B4372E4D
:10066600E49001D8F0A3F07F34124C0E90016D7423
:1006760039F01244DE9001ACE075F064A4FF9001FD
:10068600DAE5F0F0A3EFF0E4900118F0800C2030EA
:1006960009302F069001187439F0203005202F02FA
:1006A600C231303005302F02D231A230922F900164
:1006B600C9E060077F17304C0C80057F17304A056C
:1006C6001248978003124C0E9001DAE07002A3E004
:1006D600601A7F34124C0E7F351248979001DBE08A
:1006E60024FFF09001DAE034FFF080057F35124CEC
:1006F6000E9001D8E07002A3E0601A7F35124C0E0E
:100706007F341248979001D9E024FFF09001D8E099
:1007160034FFF080057F34124C0E9001D4E020E0C7
:1007260007E53530E102D24CE53530E10B90016D3D
:10073600E0B49516E4F0801290016DE0700C900123
:10074600C9E0600690016D7495F0900114E07004A4
:10075600A3E0640170137F30124897D248900125B8
:100766007401F0A3742CF0C24C900114E07002A343
:10077600E0600E900115E024FFF0900114E034FFD4
:10078600F0900116E07004A3E0640170117F30124E
:100796004C0ED2499001277401F0A3742CF09001FD
:1007A60016E07002A3E0600E900117E024FFF090BF
:1007B6000116E034FFF0900125E07004A3E0640127
:1007C600700C30480990016D7430F01244DE9001CF
:1007D60025E07002A3E0600E900126E024FFF09071
:1007E6000125E034FFF0900127E07004A3E06401E6
:1007F600701230490F9001C9E0600990016D7431A3
:10080600F01244DE900127E07002A3E0600E900132
:1008160028E024FFF0900127E034FFF0E534A2E35E
:10082600920BE533A2E5920C7F1A124AF0503A3049
:100836000B3720083490019DE070077F28124897F7
:10084600800890019DE0900109F07F05124897907D
:1008560001A7E0700204F09001A7E075F00AA4FF7A
:1008660090010CE5F0F0A3EFF090010CE07004A30A
:10087600E06401701E900109F07F28124C0E900171
:10088600AAE070077F05124C0E80089001AAE0903E
:10089600010AF090016BE07002A3E0600E90016C1B
:1008A600E024FFF090016BE034FFF0900109E0B422
:1008B60001057F2812489790010AE0B401057F05DB
:1008C600124C0E900109E0600214F090010AE060FB
:1008D6000214F090010CE07002A3E0600E90010D8E
:1008E600E024FFF090010CE034FFF090018DE0B4BD
:1008F60001057F2A124C0E90018DE0600214F090E3
:10090600018EE0B401167F2B124C0E7F2C124897F5
:100916009001B0E075F00AA490018FF090018EE08E
:10092600600214F090018FE0B401057F2C124C0E8A
:1009360090018FE0600214F09001DCE07002A3E009
:1009460060109001DDE024FFF09001DCE034FFF060
:1009560080057F2F124C0EA20B9208A20C9209E57D
:1009660034A2E5920E300E12300D0F200F0C9001BE
:100976009FE075F00AA490010BF0200E05200D02F1
:10098600C20F300E05300D02D20F90010BE064014C
:10099600703B90016DE0FF6005D3946440069001C2
:1009A6006D742DF01244DE124C0A7F1F124C0E7F1E
:1009B60020124C0E7F23124C0EE53620E2057F24D2
:1009C600124C0E7F25124C0E7F27124C0E90010BF7
:1009D600E0600214F0A20E920DE53420E20302005C
:0609E6004DD24202004D5B
:1040CD00E4900206F0D2539001B2E075F00AA4FD1F
:1040DD007F021222539001B3E075F00AA42401FE71
:1040ED00E435F0900178F0A3CEF07F23124C0E1240
:1040FD0047E2E53130E40E9001C1E075F00AA4FF0E
:10410D009001758024E4900175F0A3F0900175E0A5
:10411D007002A3E0601B7D0A7F021222539001B34F
:10412D00E075F00AA4FF900178E5F0F0A3EFF080C0
:10413D00DB7F021248979001B3E075F00AA4FD7F72
:10414D00021222537F02124C0EE4900178F0A3F07C
:07415D00C2537F010221A003
:103AC4001247E2124A8CE53E30E703023BAF204541
:103AD40003023BAFE53020E103023BAF9001807469
:103AE40001F0E52F20E614D23B7D0A7F0212225317
:103AF40090016DE070EC746AF080E79001807402CC
:103B0400F0303B187DFAFF1222537DFA7F02122215
:103B140053C23B90016DE0B46A02E4F03045A190D9
:103B240001807403F0E52F30E703023BAFE530304A
:103B3400E279E4900208F07D0A7F02122253E52F15
:103B440020E706900208E004F07D0A7F0212225367
:103B5400E52F20E706900208E004F07D0A7F0212B8
:103B64002253E52F20E706900208E004F0900208B3
:103B7400E0C39402400AE52F30E6057F0712489718
:103B8400E4900208F07D0A7F02122253900208E0BA
:103B940004F0E0C3942840ED7F07124C0EE52F207B
:103BA400E70990016DE07003746BF07D027F0212EF
:053BB4002253023AC497
:101D1C001247E2124A8CE53E30E703021FEB2045E6
:101D2C0003021FE7203C03021F819001817401F024
:101D3C00E53020E1127D057F0212225390016DE007
:101D4C0070EE746DF080E990016DE0B46D02E4F01A
:101D5C00E53020E2127D057F0212225390016DE0E6
:101D6C0070EE746EF080E990016DE0B46E02E4F0F8
:101D7C00E52F20E7147D057F02122253D25D9001DE
:101D8C006DE070EC746BF080E790016DE0B46B0269
:101D9C00E4F0305D097D647F02122253C25D204560
:101DAC00097D057F0212225380F47D327F021222BC
:101DBC00537F0A1248977F22124897900197E0753B
:101DCC00F00AA4FD7F021222537F0C1248977F0C5D
:101DDC001221177F0A124C0E7D147F02122253908F
:101DEC0001817403F0E490020AF0E53020E34A7DAF
:101DFC00017F02122253900197E0FF9001A5E0C3EE
:101E0C009FFFE49400FE7C007D0A1216DB90020A10
:101E1C00E004F0C39FEE6480F874809840CC90018D
:101E2C006DE06005D39464400690016D740BF07FF7
:101E3C0022124C0E1244DE80B17F22124C0E7D0118
:101E4C007F02122253E490020AF0E53020E1127D69
:101E5C00017F0212225390016DE070EE746DF080E0
:101E6C00E990016DE0B46D02E4F07F0C124C0E9021
:101E7C0001C3E075F00AA4900121F07F0C1221A09F
:101E8C007F0D1248977F0D122117900198E075F085
:101E9C000AA4FD7F021222537F011222532045090E
:101EAC007D057F0212225380F47F21124897900106
:101EBC00817404F0E490020AF0E53020E23E7D01EA
:101ECC007F021222539001A6E075F00AA4FFAEF037
:101EDC0090020AE004F0C39FEE6480F8748098408E
:101EEC00D890016DE06005D39464400690016D7448
:101EFC000AF07F21124C0E1244DE80BD90016DE081
:101F0C00B46E02E4F07F21124C0E9001817405F046
:101F1C00E490020AF0E53030E0107D0280052045A7
:101F2C00F47D057F0212225380F4E53030E0030289
:101F3C001FE77F08124AF05003021FE77F0D124C77
:101F4C000E7F0D1221A07D027F021222537F0E12F2
:101F5C0048979001A9E075F00AA4FD7F0212225364
:101F6C007F0E124C0E2040047F0580027F0412224B
:101F7C0029C2408066E4900181F090020AF07F2132
:101F8C00124897E53020E23E7D017F0212225390E9
:101F9C0001A6E075F00AA4FFAEF090020AE004F08E
:101FAC00C39FEE6480F874809840D890016DE06017
:101FBC0005D39464400690016D740AF07F21124C95
:101FCC000E1244DE80BD90016DE0B46E02E4F07F31
:101FDC0021124C0E7D017F02122253A245923C7DB0
:091FEC00027F02122253021D1CA7
:1038B100E4900182F07F0F124897124A8C7DFA7FC3
:1038C100021222537DFA7F021222537F0F124C0EF5
:1038D100124A8C7F041222291247E2124A8C204597
:1038E100030239C17F011222532045097D057F0260
:1038F10012225380F49001827401F0900199E075D5
:10390100F00AA4FD7F021222539001A8E0D3940093
:103911004059E490020CF09001A8E014FF90020CD1
:10392100E0C39F502E7F0912489790019AE075F0ED
:103931000AA4FD7F021222537F09124C0E90019AB4
:10394100E075F00AA4FD7F0212225390020CE004FC
:10395100F080C47F0912489790019AE075F00AA49B
:10396100FD7F021222537F09124C0E9001827402D4
:10397100F0E490020DF0E53020E0057F0812489751
:103981007D2880052045097D057F0212225380F4A0
:10399100E53020E0117F081248977D017F02122255
:1039A100531247E280EA7F08124C0E124A8C9001B2
:1039B100827403F07D027F021222537F04122229B6
:0A39C1007D027F021222530238D962
:102CC9001247E2124A8C204503022EA57D027F029B
:102CD9001222531247E2E53030E62B30E028E53185
:102CE90030E023205720900122E0701A90016DE016
:102CF900FF6472600AEF646C6005EF64747033E41A
:102D090090016DF0802C90016DE07008E53020E6AF
:102D1900037472F090016DE07008E53020E00374EF
:102D29006CF090016DE070A4E53120E09F7474F0BF
:102D3900809A9001867402F07D05FF1222537D026C
:102D49007F021222531247E2E53030E62B30E028A9
:102D5900E53130E023205720900122E0701A9001DC
:102D69006DE0FF6472600AEF646C6005EF64747073
:102D790033E490016DF0802C90016DE07008E5302E
:102D890020E6037472F090016DE07008E53020E0F0
:102D990003746CF090016DE070A4E53120E09F743C
:102DA90074F0809A2045097D027F0212225380F433
:102DB9007F12124897E490020FF0E53120E1297D56
:102DC900017F0212225390020FE004F0C394FA40EB
:102DD900E990016DE0FF6005D39464400690016DB0
:102DE9007411F01244DE80D29001867403F0E5304C
:102DF90020E01D7F12124C0E90016DE0FF6005D39B
:102E09009464400690016D7408F01244DE022CC9E6
:102E19009001BFE075F00AA4FD7F021222537F10D2
:102E29001248977F0E12211790019CE075F00AA4B1
:102E3900FD7F021222537F12124C0ED25790018647
:102E49007404F0E490020FF0F0E53120E02E7D02E9
:102E59007F021222537F12124C0E90020FE004F0EF
:102E6900D394FA40E490016DE0FF6005D394644087
:102E79000690016D7410F01244DE80CD90016DE072
:102E8900B47402E4F07F061222292045097D027FED
:102E99000212225380F49001867405F07D0A7F02A4
:062EA900122253022CC9A5
:1010ED007F071222291247E2124A8C20450302166D
:1010FD0035E4900183F07F011222532045097D05CF
:10110D007F0212225380F49001837401F0900183C9
:10111D007402F0E53020E0127D027F02122253901E
:10112D00016DE070EE746CF080E9E53020E6177D1E
:10113D00017F02122253900211E004F0C394FA4091
:10114D00E91244D880E42045097D057F021222531F
:10115D0080F42045097D057F0212225380F4E5318C
:10116D0020E0127D027F0212225390016DE070EE9D
:10117D007474F080E9E53230E1127D027F021222B3
:10118D005390016DE070EE747DF080E9E53330E051
:10119D00127D027F0212225390016DE070EE748475
:1011AD00F080E9E53130E7127D027F021222539083
:1011BD00016DE070EE747BF080E9E53230E0127D78
:1011CD00027F0212225390016DE070EE747CF0806C
:1011DD00E92051127D017F0212225390016DE070C2
:1011ED00F0747EF080EB2057097D017F02122253AF
:1011FD0080F490016DE0FF646C6022EF6472601DFD
:10120D00EF64746018EF647D6013EF6484600EEF1B
:10121D00647B6009EF647C6004EFB47E05E49001AB
:10122D006DF02045097D057F0212225380F412478F
:10123D00E2E53020E00302111A20E60302111AE55F
:10124D003120E00302111A20510302111AE5323048
:10125D00E10302111AE53330E00302111AE53130D2
:10126D00E70302111AE53230E00302111A20570389
:10127D0002111A30E30302111A7F1A124AF04008C4
:10128D00E53220E20302111A9001837403F07F11FD
:10129D00124897124A8CE53330E441900196E0FDF7
:1012AD0075F00AA4FF900119E0C39FE5F06480F882
:1012BD007480984003ED70249001B7E090016AF0BE
:1012CD009001C4E0900169F0900119E004F0E0F0A4
:1012DD007F2C124C0E7F2D1248978029E53320E488
:1012ED0005E4900119F09001A3E090016AF09001DE
:1012FD00ABE0900169F07F2B124C0E7F2C124897BA
:10130D007F2D124C0E9001837406F0E4900211F0C3
:10131D00E53020E7207D017F02122253900211E07B
:10132D0004F0C394FA40E990016D740FF07F11122F
:10133D004C0E1244DEC257E53030E74730E61590CB
:10134D00016DE0FF6005C39464400690016D740E5D
:10135D00F01244DE7F0E1221A09001BBE075F00A61
:10136D00A4FD7F0212225390016DE06416600A7F86
:10137D00161248977F2A124897E53030E0057F0610
:10138D001222297D0F7F021222539001837407F0E0
:10139D007F10124C0E7F141248979001B1E075F03A
:1013AD000AA4FD7F021222537F14124C0E7F1112DC
:1013BD004C0E900122741EF07F13124897900183FA
:1013CD007408F0E53230E1297F151248977F161227
:1013DD004C0E7F2F124C0E7F2A124C0E90016DE099
:1013ED00FF6005D39464403490016D7419F00214BC
:1013FD0083E53330E0287F151248977F16124C0E87
:10140D007F2F124C0E7F2A124C0E90016DE0FF6063
:10141D0005D39464400690016D7420F08058E53139
:10142D0020E7287F151248977F16124C0E7F2F123A
:10143D004C0E7F2A124C0E90016DE0FF6005D39487
:10144D0064400690016D7417F0802BE53220E03F6B
:10145D007F151248977F16124C0E7F2F124C0E7F60
:10146D002A124C0E90016DE0FF6005D39464400686
:10147D0090016D7418F01244DE9001BDE075F00A14
:10148D00A4FD7F021222537F15124C0E021635D287
:10149D004A9001B1E075F00AA4FD7F021222537F3C
:1014AD0014124897D246D2507D027F0212225390D9
:1014BD0001837409F0E4900211F09001C9E06027F6
:1014CD00E53520E0127D027F0212225390016DE07E
:1014DD0070EE7494F080E990016DE0B49402E4F044
:1014ED00E5351392618026E53320E3127D027F02FC
:1014FD0012225390016DE070EE7487F080E9900137
:10150D006DE0B48702E4F0E533A2E392612061035C
:10151D00021635900183740AF0C24A90019BE07562
:10152D00F00AA4FD7F021222539001D3E004F07063
:10153D00069001D2E004F0120022900171E0FCA3AC
:10154D00E0FDA3E0FEA3E02401FFE43EFEE43DFD4B
:10155D00E43CFC9001711218A0D258E53230E3043E
:10156D00C2418002D2419001ACE075F00AA4900115
:10157D008DF0E4900211F09001CCE09001D6F06076
:10158D00137F291248979001C5E0900123F0900137
:10159D00D6E014F0C2427F1C1248979001AEE07560
:1015AD00F00AA4FD7F021222537F1C124C0E9001F3
:1015BD00AEE075F00AA4FD7F021222539001A4E063
:1015CD00FF900211E004F0C39F50032042C6E49047
:1015DD000123F07F29124C0ED24390016BE0700273
:1015ED00A3E060097D017F0212225380ED900183FB
:1015FD00740BF09001C9E0600EE53530E0177D0AFF
:10160D007F0212225380F2E53330E3097D0A7F0217
:10161D0012225380F22045097D057F02122253804C
:10162D00F47F07122229D2447D027F021222530237
:02163D0010F2A9
:0100220022BB
:1009EC00E4900184F0900213F0A3F0E53030E608B7
:1009FC0020E7057F1B124897E53220E34090016DFC
:100A0C00E07003747FF07D237F0212225390021357
:100A1C00E475F0011216EDFED3E5F09464EE94004B
:100A2C0040D690016DE06005D39464400690016D52
:100A3C00741BF07F1B124C0E1244DE80BBE532306F
:100A4C00E3107F1B124C0EC25190016DE0B47F027B
:100A5C00E4F0C2501247E2124A8C2045030210E324
:100A6C009001847401F0FF1222532045097D057F0B
:100A7C000212225380F4E4900213F0A3F0E532202A
:100A8C00E34090016DE07003747FF07D027F0212F1
:100A9C002253900213E475F0011216EDFED3E5F02B
:100AAC009496EE940040D690016DE06005D394646A
:100ABC00400690016D741BF07F1B124C0E1244DE2D
:100ACC0080BB90016DE0B47F02E4F0C251E533309D
:100ADC00E4059001BA80039001B6E0900217F09003
:100AEC000169E0FF900217E0FDC39F50557F021291
:100AFC0022539001847402F07F16124C0E7F2F1239
:100B0C004C0E9001B7E0FF90016AE0B507117F2B06
:100B1C001248979001AFE075F00AA490018EF01284
:100B2C004A8C3044787F14124897900217E0FF905B
:100B3C000169E0C39FFD7F021222537F191248976F
:100B4C0080583044177F14124897900169E0FD7F5C
:100B5C00021222537F19124897124A8C900169E0B5
:100B6C00FF900217E0C39FFD7F0212225390018475
:100B7C007402F07F16124C0E7F2F124C0E9001B7A0
:100B8C00E0FF90016AE0B507117F2B1248979001A6
:100B9C00AFE075F00AA490018EF0124A8C90016AB5
:100BAC00E075F00AA4FD7F021222537F14124C0E42
:100BBC00C246124A8C9001847403F0E4900213F044
:100BCC00A3F0304444E53230E40320E53C7D027F61
:100BDC000212225390016DE070037480F0900213A6
:100BEC00E475F0011216EDFED3E5F094FAEE9400E4
:100BFC0040D390016DE0FF6005D3946440069001F2
:100C0C006D741CF01244DE80BC9001ADE075F00AEE
:100C1C00A4FD7F021222539001847404F0E5342069
:100C2C00E11290016D745BF01244DE7D0A7F0212BA
:100C3C00225380E99001847405F0E53420E712908A
:100C4C00016D742FF01244DE7D0A7F021222538054
:100C5C00E99001847406F02045097D057F0212227B
:100C6C005380F4E53430E51990016D742FF0124483
:100C7C00DE7D0A80052045EB7D057F021222538024
:100C8C00F4E53020E6131244D87D0A80052045F1A6
:100C9C007D057F0212225380F4E53120E219900188
:100CAC006D7412F01244DE7D0A80052045EB7D0543
:100CBC007F0212225380F49001847407F07F1A1281
:100CCC004897C252124A8CE4900213F0A3F0E53418
:100CDC0020E3347D017F021222531247E29002136B
:100CEC00E475F0011216EDFED3E5F094F4EE9401E8
:100CFC0040DC90016DE0FF6005D3946440069001E8
:100D0C006D742BF01244DEE53430E3347D017F0248
:100D1C001222531247E2900213E475F0011216ED01
:100D2C00FED3E5F094C4EE940940DC90016DE0FF35
:100D3C006005D39464400690016D742BF01244DE70
:100D4C009001847408F02044187F15124897900184
:100D5C00BDE075F00AA4FD7F021222537F15124CE0
:100D6C000EC2449001C0E0FD7F02122253D251E426
:100D7C00900216F09001BCE0FF900216E0C39F5069
:100D8C000F7D0A7F02122253900216E004F080E4D9
:100D9C007F19124C0E7D037F02122253E490021332
:100DAC00F0A3F0E53220E2787D027F02122253900C
:100DBC000213E475F0011216EDFED3E5F09496EEF5
:100DCC009400404990016DE0FF6005D394644006A7
:100DDC0090016D741AF0C2471244DE7F1A124C0E49
:100DEC007F19124C0E7F1E124C0E7F1F124C0E7F61
:100DFC0020124C0E7F23124C0EE53620E2057F2488
:100E0C00124C0E7F25124C0E7F27124C0E90016D4A
:100E1C00E06005D39464408B90016D747EF0808308
:100E2C0090016DE0B47E02E4F09001847409F0E569
:100E3C003230E23B7F1A124C0E7F19124C0E3047A7
:100E4C002EE53320E52920E626124C0A7F1F124C92
:100E5C000E7F20124C0E7F23124C0EE53620E2053D
:100E6C007F24124C0E7F25124C0E7F27124C0E90B5
:100E7C000184740AF02045097D057F0212225380FB
:100E8C00F4E53220E63D7D017F0212225390016D84
:100E9C00E070037482F01247E2900213E475F001E3
:100EAC001216EDFED3E5F094F4EE940140D39001CC
:100EBC006DE0FF6005D39464400690016D741EF0E4
:100ECC001244DE90016DE0B48202E4F0900184746F
:100EDC000BF02050097D027F0212225380F4E53082
:100EEC0020E6127D027F0212225390016DE070EE1B
:100EFC007472F080E92052127D027F02122253900C
:100F0C00016DE070F07476F080EB90016DE0FF64A1
:100F1C0082600EEF64836009EF648D6004EFB4723D
:100F2C0005E490016DF02045097D057F02122253E6
:100F3C0080F4E4900215F09001BEE0900215F0D21E
:100F4C0043900184740CF0E53120E21990016D742A
:100F5C0012F01244DE7D0A80052045EB7D057F02F0
:100F6C0012225380F4E53030E61EE53230E61930BB
:100F7C00E71630E213305010E53020E70B30520802
:100F8C00E53130E203021020E53020E61190016DCE
:100F9C00E06005D39464400690016D7472F0E53204
:100FAC0020E61190016DE06005D394644006900139
:100FBC006D7482F0E53220E71190016DE06005D38D
:100FCC009464400690016D7483F0E53220E2119038
:100FDC00016DE06005D39464400690016D747EF061
:100FEC0020501190016DE06005D39464400690018F
:100FFC006D748DF0E53120E21190016DE06005D348
:10100C009464400690016D7476F07D027F0212228A
:10101C0053020F7190016DE0FF64726018EF6482EF
:10102C006013EF6483600EEF647E6009EF648D6083
:10103C0004EFB47605E490016DF0900184740DF02A
:10104C00900215E075F00AA4FD7F021222537F1B5B
:10105C00124897C251C243C254900184740EF0E4FA
:10106C00900213F0A3F07D0A7F02122253E5322086
:10107C00E34090016DE07003747FF07D027F0212FB
:10108C002253900213E475F0011216EDFED3E5F035
:10109C009496EE940040D690016DE06005D3946474
:1010AC00400690016D741BF07F1B124C0E1244DE37
:1010BC0080BB90016DE0B47F02E4F0E53230E317C1
:1010CC0090016DE0B47F02E4F07F1B124C0EC25015
:1010DC00C251304102C2417D027F02122253020AE8
:0110EC0060A3
:102EAF001247E2124A8CE53E30E703023064E53305
:102EBF00A2E59264A2E692655420FF90011FE024E0
:102ECF001AF582E43401F583EFF090011FE0FF045F
:102EDF00F0EFC394044002E4F020450620470302BC
:102EEF00305C9001857401F0900178E07002A3E0EE
:102EFF0070057F2312489790017AE070057F2412A6
:102F0F00489790017BE07002A3E070057F2512487F
:102F1F00977F1E1248977F1F1248972064033065D2
:102F2F00262054237F20124897E53430E51990016D
:102F3F00857402F0D23F90016DE06005D394644038
:102F4F000690016D742DF090011BE0FF90011AE0C7
:102F5F002FFF90011CE02FFFA3E02FFFA3E02FD343
:102F6F0094034004D2648002C264206421303E1E68
:102F7F0020651B9001857403F090016DE0FF6005E3
:102F8F00D39464400690016D7426F01244DE7D01E7
:102F9F007F02122253206503203D1230640302305A
:102FAF005C203E0302305C30650302305C9001858B
:102FBF007404F020650D20640A7F0B1221177F2007
:102FCF00124C0E203F0620470302305C900185749F
:102FDF0005F0E4900219F09001B8E075F005A4FF38
:102FEF00900219E0C39FE5F06480F8748098501D3B
:102FFF002064033065082054057F201248977D0216
:10300F007F02122253900219E004F080CA303F175A
:10301F00C23F90016DE0FF6005D3946440069001BC
:10302F006D742DF01244DE124C0A7F1F124C0E7F6E
:10303F0020124C0E7F23124C0EE53620E2057F2422
:10304F00124C0E7F25124C0E7F27124C0EA265924A
:0F305F003DA264923E7D027F02122253022EAFE9
:103BB900E490021BF07BFF7A4D7948121A221249D0
:103BC900F090021BE014601614602014602B14603E
:103BD9004624046003023C8BEFB406E2801EEF70BA
:103BE900028019EFB40602801F8025EFB40102801C
:103BF9000BEFB4060280118017EF700890021BE0EA
:103C090004F080BAEFB4060890021B7401F080AE8C
:103C1900E490021BF080A7EF75F014A4900124F042
:103C2900E490021BF0EF703290016D7462F012445F
:103C3900DE7BFF7A4D7952121A227F071221A07D6D
:103C4900647F021222537F021221A07D647F021237
:103C590022537F061221A0023BC7205803023BC70B
:103C69007BFF7A4D7956900171E0FCA3E0FDA3E05A
:103C7900FEA3E0FF90021F1218A0121A22C25802D6
:0A3C89003BC7E490021BF0023BC7AA
:104403009001887401F09001A1E075F00AA4FD7F8A
:1044130002122253E4900245F09001B9E0FF9002AA
:1044230045E0C39F503A7F1D1248979001A2E07563
:10443300F00AA4FD7F021222539001887402F07FD8
:104443001D124C0E9001A2E075F00AA4FD7F02122A
:1044530022539001887403F0900245E004F080B980
:0B4463009001887404F07F0B0221A080
:10464D007D327F021222531247E2124A8CE53E2040
:10465D00E738E53020E4337F0C124C0E9001C3E0B7
:10466D0075F00AA4900121F030451290016DE0FF24
:10467D006005D39464400690016D740CF0D2401225
:10468D004A8C1244DE7F0C1221A07D057F0212227E
:03469D005380B493
:1048BE007D327F021222531247E2124A8CE53E20CD
:1048CE00E72AE53020E5257F0D124C0E304512907B
:1048DE00016DE0FF6005D39464400690016D740D88
:1048EE00F0124A8C1244DE7F0D1221A07D057F024C
:0548FE0012225380C2EC
:1045F7007D327F021222531247E2124A8CE53E2097
:10460700E73BE53130E605E52F20E2317F10124C1C
:104617000E30451C90016DE0FF6005D39464401097
:10462700E53190016D20E6057416F080037402F001
:10463700C257124A8C1244DE7F0E1221A07D057FDD
:064647000212225380B1B3
:103D6600C25690024E1218AC00004B00E49002526C
:103D7600F07B027D09FF123F9190024AEFF0124C50
:103D86008C90024AEFF01224D97D027F0212225350
:103D96003056F3900171E0FCA3E0FDA3E0FEA3E042
:103DA600FF781812187AE4AD07FF7E02124D2890AC
:103DB6000171E0FCA3E0FDA3E0FEA3E0FF78101292
:103DC600187AE4AD077F017E02124D28900171E05A
:103DD600FCA3E0FDA3E0FEA3E0FF780812187AE456
:103DE600AD077402FFFE124D28900171E0FCA3A3FB
:103DF600A3E0FFE4AD077F037E02124D28E49002A4
:103E060049F0900249E0FF7E002496F582E43401F1
:103E1600F583E0FD124D28900249E004F0E0C394DA
:083E26004040DFC256023D8C52
:1046F3009001DAE07002A3E0600790016D7439F075
:10470300229001D8E07002A3E0600790016D743736
:10471300F022E52F30E029C2477F011248977F2618
:104723001248977F04124C0E7D037F02122253D24C
:1047330045E490016DF07F26124C0E7F27124897B7
:014743002253
:0644D800740E90016DF06E
:1044DE003045537F041248977F01124C0E124A8CBE
:1044EE00C245E53320E53D20E63A900184E0FFC366
:1044FE0094024006EFD39409402A7F1E124C0E7F81
:10450E001F124C0E7F20124C0E7F23124C0EE536DE
:10451E0020E2057F24124C0E7F25124C0E7F2712AF
:10452E004C0E8002D24790016DE0700374C5F022EC
:1048770090019EE075F00AA4FF90016BE5F0F0A3AC
:10488700EFF0D2529001DC7402F0A37458F07F2F3E
:10489700EF75F00812163F2437F8C000E6FEEF75F3
:1048A700F00812163FAFF07401A807088002C3335F
:0748B700D8FC4ED000F622F0
:044C0A00C2477F1E00
:104C0E00EF75F00812163F2437F8C000E6FEEF7578
:104C1E00F00812163FAFF07401A807088002C333E4
:084C2E00D8FCF45ED000F62270
:104AF000EF75F00812163F2437F8E6FD7C00EF75DD
:104B0000F00812163FAFF074017E00A80708800578
:104B1000C333CE33CED8F9FFEE5CFEEF5D4E24FFFB
:014B20002272
:10494100EF75F00812163FFEC374079E2437F8E690
:10495100FD7C00EF75F00812163FAFF0C374079F9E
:10496100FF74017E00A807088005C333CE33CED87B
:0B497100F9FFEE5CFEEF5D4E24FF221C
:104C3600EF75F00812163FFEC374079E242FF8C0C6
:104C460000E6FEEF75F00812163FAFF07401A807F4
:0C4C5600088002C333D8FC4ED000F622C8
:104BDD00EF75F00812163FFEC374079E242FF8C020
:104BED0000E6FEEF75F00812163FAFF07401A8074E
:0D4BFD00088002C333D8FCF45ED000F6221D
:1047E200C284C285D286D284A28692727F3F307200
:1047F20005124C368003124BDD900248743EF09055
:104802000248E0FFC3648094804020D285A2869251
:1048120072C285307205124C368008900248E0FF61
:0C482200124BDD900248E014F080D4221C
:104A8C00C283C283E4900248F0900248E0FFC36402
:104A9C008094C05018C2821249415004D2808002C6
:104AAC00C280D28200900248E004F080DCD283C243
:024ABC00812255
:102AD900900261EBF0A3EAF0A3E9F0E4900269F057
:102AE900C3ED9401EC94005003022CBD900267E001
:102AF9002DFF900266E03CFED3EF9455EE94004022
:102B090003022CBD900194E0FEA3E0FFC3ED9FFFFB
:102B1900EC9EFE900268E0147003022C0E04600320
:102B2900022CC3D3900267E09400900266E09400FF
:102B39005003022CC3EF9404EE648094805025EF77
:102B490025E02437F8E6FD900261E0FBA3E475F087
:102B590001121703A9F0FAED1216A7EF25E02438A0
:102B6900F8E68076C3EF9444EE6480948050219017
:102B79000261E0FBA3E475F001121703A9F0FAE47E
:102B89001216A774922FF58274013EF583E0804AEC
:102B9900C3EF9453EE648094805021900261E0FB6E
:102BA900A3E475F001121703A9F0FAE41216A77449
:102BB900392FF58274013EF583E0801EEF64534E90
:102BC900702D900261E0FBA3E475F001121703A9CF
:102BD900F0FAE41216A790016DE0FD900261E0FBA6
:102BE900A3E475F001121703A9F0FAED1216A70F65
:102BF900BF00010E900267E024FFF0900266E03406
:102C0900FFF0022B2C304503022CB5D3900267E06C
:102C19009400900266E094005003022CC3EF9404E0
:102C2900EE64809480503A900261E0FBA3E475F071
:102C390001121703A9F0FA121661FDEF25E02437F6
:102C4900F8A605900261E0FBA3E475F001121703F1
:102C5900A9F0FA121661FDEF25E02438F8A60580DF
:102C690035C3EF9444EE64809480502A900262E464
:102C790075F0011216ED900261E0FBA3E475F00115
:102C8900121703A9F0FA121661FD74922FF58274D6
:102C9900013EF583EDF00FBF00010E900267E024BD
:102CA900FFF0900266E034FFF0022C149002697480
:102CB90002F080069002697401F0900269E0FF2237
:1036320090025DEBF0A3EAF0A3E9F0E4900264F0FB
:10364200C3ED9401EC9400500302377F900263E0D3
:103652002DFF900262E03CFED3EF9409EE9400400D
:103662000302377F90016EE0FEA3E0FFC3ED9FFFF0
:10367200EC9E900265F0A3EFF0D3900263E0940019
:10368200900262E094005003023785900265E07078
:1036920004A3E06405703C900171E0FCA3E0FDA38B
:1036A200E0FEA3E0FF781812187A90025DE0FBA317
:1036B200E475F001121703A9F0FAEF1216A79001B0
:1036C20071E0FCA3E0FDA3E0FEA3E0FF7810121876
:1036D2007A8077900265E07004A3E0640470319010
:1036E2000171E0FCA3E0FDA3E0FEA3E0FF78081275
:1036F200187A90025DE0FBA3E475F001121703A9AA
:10370200F0FAEF1216A7900171A3A3A3E0FF803A8B
:10371200900265E0FEA3E0FFC39404EE648094800F
:10372200503CEF25E0242FF8E6FF90025DE0FBA37A
:10373200E475F001121703A9F0FAEF1216A790022E
:1037420065A3E025E02430F8E6FF90025DE0FBA3EC
:10375200E475F001121703A9F0FAEF1216A790020E
:1037620066E004F07006900265E004F0900263E007
:1037720024FFF0900262E034FFF002367B90026494
:093782007401F0900264E0FF22E2
:03000B00021FFAD7
:101FF500C2AF80FE32121FF985D00B75D008FAC228
:102005008CE58A2407F58AE58C34B8F58CD28CECFE
:102015002488F8E6BC0F0274FFC39581B414004010
:10202500CF7910786716E608700BC2AFE630E1038A
:102035004418F6D2AF08D9EDEA8BD0D27722E50C59
:10204500FF232468F80F0808EFB50C061077034343
:102055008701BF10047F007868E630E4E800E50CEE
:10206500C39F5020050C7487250CF8E6FDA6810852
:10207500E6AE0CBE0F0274FFCDF8E86D60E008E631
:10208500C0E080F6E50CD39F4027E50C2488F8E6F0
:10209500AE0CBE0F0274FFFD18E6CDF8E5816D604C
:1020A50006D0E0F61880F5E50C2487C8F6150C80F7
:1020B500D3E50C232468F87F04C2AFE630E00310B3
:1020C500E20C7F0030E10730E3047F0854F4C2E7F7
:1020D500C6D2AF54804207227887A681740F600666
:1020E500FF0876FFDFFB7F10E47867F608F608DF68
:1020F500FA78687630904CAE740193C0E0E493C0F2
:10210500E0438901758A00758CB8D28CD2AFD2A90B
:02211500220F97
:083309004102E8FF4102E5FF6B
:104A590020752FC2AC207409207606D2748F9980F4
:104A69001F9002E9E0FE04F0EE541F2447F8A60760
:104A79009002E6E0FF9002E9E06F541F7002D275E0
:034A8900D2AC228A
:1046A000900244EFF0BF0A21307519122250900297
:1046B000E8EFF0E4FBFAFD7F011222539002E87468
:1046C000FFF080E47F0D124A593075191222509084
:1046D00002E8EFF0E4FBFAFD7F011222539002E8BA
:1046E00074FFF080E4900244E0FF124A59900244C3
:0346F000E0FF22C6
:1049F0009002E4E0FF9002E7E0B507191222509020
:104A000002E5EFF0E4FBFAFD7F011222539002E58C
:104A100074FFF080DB9002E4E0FF04F0EF54072421
:054A20003FF8E6FF2253
:0300230002438213
:10438200C0E0C0F0C083C082C0D075D010C273300C
:10439200982FAF99C2989002E4E02408FDE433FC20
:1043A2009002E7E06D7001EC600CE0FE04F0EE5468
:1043B20007243FF8A6179002E5E0FFF460031222FB
:1043C2002920990330732FC2999002E9E0FF9002ED
:1043D200E6E06F601F20761EE0FF04F0EF541F241A
:1043E20047F8E6F599C2759002E8E0FFF46007121B
:1043F20022298002C274D0D0D082D083D0F0D0E003
:014402003287
:104CCE0053877F759850538EBF538EFE53890F4373
:0F4CDE008920758BD0758DD0C2ABD28EC2992232
:104B210000C2A40000000000000000D2A5000000A7
:104B310000D2A40000000000000000C2A500000097
:104B41000000000000C2A4000000000000000022DC
:104CED0000C2A400000000C2A500000000D2A40074
:0E4CFD00000000D2A500000000000000002210
:104D7A000000000000C2A400000000C2A50000005C
:0A4D8A0000D2A400000000C2A42221
:104BAF00124B2144A0FF124B51124BC0AF05124BB9
:014BBF0051A4
:104BC000D2A500C2A40000000000000000D2A40092
:0D4BD000000000A2A5E433FF0000C2A422F3
:104C6200D2A500E4FEEF25E0FFD2A4000000000080
:104C7200000000A2A5E4334FFF0000000000000086
:0A4C820000C2A40EEEB408DD00220B
:104B510000E4FEEF30E704D2A58002C2A500000008
:104B610000D2A40000000000000000C2A400000068
:0F4B71000000000000EF25E0FF0EEEB408D52293
:10482E00AC07C2B6EC25E0FC124BAF124B21EC44A8
:10483E00A1FF124B51124BC0900204E064016019AB
:10484E00124C62EF1216A7124D7A740129F9E43A4E
:10485E00FA900204E014F080DF124C62EF1216A7F9
:09486E00124BC0124CEDD2B6222F
:10490300C2B6EF25E0FF124BAF900251E0601912DF
:104913001661FF124B51124BC0740129F9E43AFAA4
:10492300900251E014F080E1124CEDE4FFFE000030
:0E4933000FBF00010EBE5DF6BFC0F3D2B6226C
:104D5F00AD07AC06ECFF7B017A0179FE900204747B
:0B4D6F0001F012482E9001FEE0FF2230
:104D280090024BEDF0AB07AA06EAFFAD037B017AD0
:0C4D380002794B9002517401F002490313
:103311004102C6026040027F04FF335A03FF34C8F2
:1033210010FF39CB06FF41F017FF22B20000000069
:10333100000000000000000000000000000000008C
:10334100000000000000000000000000000000007C
:08335100000000000000000074
:103F910090024BEFF0AE03E4900253F0ED600BC3DF
:103FA10094014006EDD394F740089002537402F057
:103FB100807B90027BEDF090024BE0704A90027C96
:103FC10074FFF0A3744DF0A37494F0900275E4F0C3
:103FD100A3F0A3F0AF06AD07C00590024EE0FCA32D
:103FE100E0FDA3E0FEA3E0FF9002561218A09002AC
:103FF10052E090025AF090027BE0FFD00512453E5C
:10400100900253EFF080069002537402F090025335
:10401100E0701A120003EF70089002537403F080ED
:104021000C90024BE09002C5F0A37401F090025392
:03403100E0FF228B
:10306E009002EAEBF0A3EAF0A3E9F0AD07E4C39D0A
:10307E0040030231D9ED947F40030231D9C2AF90A3
:10308E0002EAE0FBA3E0FAA3E04A4B7003023162CE
:10309E00E4A3F0A3F09002EDE0FEA3E0FFC39410D2
:1030AE00EE648094804003023149EF7802C333CE40
:1030BE0033CED8F9FF2480F58274023EF583E0FB0F
:1030CE00A3E0FAA3E04A4B603674802FF5827402B7
:1030DE003EF583E0FBA3E0FAA3E0F9C003C002C013
:1030EE00019002EAE0FBA3E0FAA3E0F9D082D083DC
:1030FE00D0E06B7008E965827003EA6583702B740B
:10310E007F2FF58274023EF583EDF09002EAE0FB2C
:10311E00A3E0FAA3E0F974802FF58274023EF583E2
:10312E00EBF0A3EAF0A3E9F080119002EEE004F0D8
:10313E0070069002EDE004F00230A39002EDE07014
:10314E0004A3E0641060047F0080027F049002EF0D
:10315E00EFF08073E49002EDF0A3F09002EDE0FE4C
:10316E00A3E0FFC39410EE648094805055EF780274
:10317E00C333CE33CED8F9247FF58274023EF58365
:10318E00E0B5052E9002EDE0FEA3E07802C333CE4B
:10319E0033CED8F9FF247FF58274023EF583E4F036
:1031AE0074802FF58274023EF583E4F0A3F0A3F051
:1031BE0080109002EEE004F070A19002EDE004F0B9
:1031CE008099E49002EFF0D2AF80069002EF740285
:0731DE00F09002EFE0FF2278
:104ABE00E49002F4F09002C6E0B4011A900275E0A0
:104ACE00FBA3E0FAA3E04A4B6012900275A3A3E0A9
:104ADE00F912192C80069002F47406F09002F4E09C
:024AEE00FF22A5
:104C8C00E490024BF09002C6E0B4010A120026E454
:104C9C009002C6F0800690024B7406F090024BE036
:024CAC00FF22E5
:104A25009002C6E0701490027CA3E0FAA3E0F912AC
:104A3500192C9002C67401F080079002C6E0B401FB
:104A450007E49002F5F080069002F57406F09002F6
:044A5500F5E0FF2267
:1024D900E490024DF09002C6E060037F06227B0182
:1024E9007A02794E12000EEF640160030226E19030
:1024F900024EE024FE604E0460030226E19002527F
:102509007401F0A37402F0A3746DF0A37401F0A335
:102519007402F0A37472F07B017A027970123EE5BD
:1025290090024DEFF060030226E190027BE0FF90FC
:102539000270E0FE6F6006EE60030226E17F021280
:102549004DAF0226E190026DE0FBA3E0FAA3E0F9AA
:10255900121661900271F09002747401F0E4900215
:102569004BF0A3F090024BE0FEA3E0FFC39410EE02
:1025790064809480400302266EEF7802C333CE3321
:10258900CED8F9247FF58274023EF583E0FF70030B
:1025990002266E900271E0FE6F600302265DEE2452
:1025A900FD603424FD606C24F6604A24F97003024E
:1025B900263A2413600302266E9002527401F0A396
:1025C9007402F0A37472F090026DE0FBA3E0FAA329
:1025D900E0F912335A80769002527401F0A3740222
:1025E900F0A37472F090026DE0FBA3E0FAA3E0F9A6
:1025F9001234C880589002527401F0A37402F0A3F7
:102609007472F090026DE0FBA3E0FAA3E0F91239CD
:10261900CB803A9002527401F0A37402F0A3747251
:10262900F090026DE0FBA3E0FAA3E0F91241F0801B
:102639001C9002527401F0A37402F0A37472F0901A
:10264900026DE0FBA3E0FAA3E0F91222B290027452
:10265900EFF0801190024CE004F0700690024BE01C
:1026690004F002256D900270E0606D900274E0FF45
:10267900603FE4900272F0A3F0900271E04480FEA2
:1026890090026DE0FBA3E0FAA3E0F9900272E47511
:10269900F00112170385F082F583EE1216B9900244
:1026A90072E475F00112170385F082F583EF1216B3
:1026B900B990027BE0FF90026DE0FBA3E0FAA3E092
:1026C900F9900272E0FDA3E0900253CDF0A3EDF082
:0B26D900123E2E90024DEFF07F002219
:1026E40000C1814001C0804101C0804100C18140DE
:1026F40001C0804100C1814000C1814001C08041CE
:1027040001C0804100C1814000C1814001C08041BD
:1027140000C1814001C0804101C0804100C18140AD
:1027240001C0804100C1814000C1814001C080419D
:1027340000C1814001C0804101C0804100C181408D
:1027440000C1814001C0804101C0804100C181407D
:1027540001C0804100C1814000C1814001C080416D
:1027640001C0804100C1814000C1814001C080415D
:1027740000C1814001C0804101C0804100C181404D
:1027840000C1814001C0804101C0804100C181403D
:1027940001C0804100C1814000C1814001C080412D
:1027A40000C1814001C0804101C0804100C181401D
:1027B40001C0804100C1814000C1814001C080410D
:1027C40001C0804100C1814000C1814001C08041FD
:1027D40000C1814001C0804101C0804100C18140ED
:1027E40000C0C101C30302C2C60607C705C5C404AD
:1027F400CC0C0DCD0FCFCE0E0ACACB0BC90908C81D
:10280400D81819D91BDBDA1A1EDEDF1FDD1D1CDC0C
:1028140014D4D515D71716D6D21213D311D1D0107C
:10282400F03031F133F3F23236F6F737F53534F46C
:102834003CFCFD3DFF3F3EFEFA3A3BFB39F9F838DC
:1028440028E8E929EB2B2AEAEE2E2FEF2DEDEC2CCC
:10285400E42425E527E7E62622E2E323E12120E03C
:10286400A06061A163A3A26266A6A767A56564A42C
:102874006CACAD6DAF6F6EAEAA6A6BAB69A9A8689C
:1028840078B8B979BB7B7ABABE7E7FBF7DBDBC7C8C
:10289400B47475B577B7B67672B2B373B17170B0FC
:1028A40050909151935352929656579755959454EC
:1028B4009C5C5D9D5F9F9E5E5A9A9B5B995958985C
:1028C400884849894B8B8A4A4E8E8F4F8D4D4C8C4C
:1028D40044848545874746868242438341818040BC
:10459C0090025AEBF0A3EAF0A3E9F0A3ECF0A3ED40
:1045AC00F07FFF7DFF90025D74FFF5F0121703455D
:1045BC00F0603390025AE0FBA3E475F0011217038C
:1045CC00A9F0FA1216616DFB7A0024E4F582EA3444
:1045DC0026F583E4936FFD74E42BF582EA3427F51A
:0B45EC0083E493FF80BFEFFEEDFF2291
:10453E00E490025BF0C2AFAF05C007900256E0FCFC
:10454E00A3E0FDA3E0FEA3E0FF90025D1218A09091
:10455E0002617408F090025AE0900262F0D00712E5
:10456E004034EF640160028012900256A3A3E0FE75
:10457E00A3E0FF124795EF6401600690025B74039F
:0E458E00F0D2AFE4900000F090025BE0FF225C
:10002600C2AFE4900001F0FD7F01124B80124DA299
:03003600D2AF2224
:0E4D9400C2AFE4FDFF124B80124DBBD2AF2226
:103EE50090024FEBF0A3EAF0A3E9F0E4900258F05A
:103EF500A3F0C2AFC3900003E09404900002E094E5
:103F05000040667B017A007904E0FCA3E0FD1245E0
:103F15009CEF4E7054900004E0FF90024FE0FBA32D
:103F2500E0FAA3E0F9EF1216A7900003E024FDFFE5
:103F3500900002E034FFF9900255E0FBA3E0FAA3FC
:103F4500E0C98FF012177C7B017A007905C003C0A8
:103F550002C001900252E0FBA3E0FAA3E0F91218B7
:103F6500DD9002587401F0801B7B017A0079049082
:103F75000002E0FCA3E0FD12459CEF4E60069002B6
:0C3F8500597405F0D2AF900259E0FF2201
:103E2E00E4900255F0C2AF900001E064016003021D
:103E3E003ED7E924FFF9EA34FFFA900106EBF0A32E
:103E4E00EAF0A3E9F0900104E4F0A304F090010677
:103E5E00E0FBA3E0FAA3E0F9EF1216A7900253E0FD
:103E6E00FEA3E0FF900105E02FF0900104E03EF08C
:103E7E00900106E0FBA3E0FAA3E0F9900104E0FC58
:103E8E00A3E0FD12459C900104E475F001121703A6
:103E9E00FA740425F0F58274003AF583EFF0EEFF24
:103EAE00900104E475F001121703FC740425F0F57B
:103EBE008274003CF583EFF09000007401F0FDE495
:103ECE00FF124B8012446E80069002557405F0D29C
:073EDE00AF900255E0FF2246
:10427C00E490026BF07B017A02796C124DC49000D1
:10428C0001E014600C1460351460042403705F802A
:10429C005AE4900002F0A3F090026CE0FF90000250
:1042AC00E475F001121703FC740425F0F582740018
:1042BC003CF583EFF09000017402F0802EC3900067
:1042CC0002E09401501F90026CE0FF900002E47534
:1042DC00F001121703FC740425F0F58274003CF510
:1042EC0083EFF080069000017403F0124DA290024F
:0442FC006BE0FF2252
:10446E00E490026BF0900000E014600C047055E4D0
:10447E00FD7F01124B80804C900104E07002A3E09E
:10448E00602C900106E0FBA3E0FAA3E0F91216619E
:10449E00FF12003E900107E475F0011216ED900137
:1044AE0005E024FFF0900104E034FFF080167F0356
:1044BE00124DAF90026BEFF0E4FD7F01124B80E4E2
:0A44CE00900000F090026BE0FF2266
:1049B700E490026AF0900001E024FE601314601A8C
:1049C70024037016E4FF124DAF90026AEFF0800ADD
:1049D7007F01124DAF90026AEFF0124DBB900001BC
:0949E7007401F090026AE0FF2265
:10479500EF4E602BEF25E0FFEE33FE7C007D0C1223
:1047A5001932A804A905AA06AB077F007E807D8380
:1047B5007C651217D79002F0EEF0A3EFF08007E4C6
:1047C5009002F0F0A3F0E4F5D8F5D975DA48900237
:0D47D500F0E0FEA3E0F5EAEEF5FA7F012228
:0D4DA200E4F5D875DA49F5E9F5F9D2DE221D
:094DBB00C2DE75DA48E4F5D822E5
:03003B0002497CFB
:10497C00C0E0C0F0C083C082C0D075D000C000C001
:10498C0001C002C003C004C005C006C0071249B76D
:10499C00D007D006D005D004D003D002D001D0006F
:0B49AC00D0D0D082D083D0F0D0E03219
:0100390022A4
:08000300E49002F2F07F0122FB
:0C4DAF009002F27401F0A3EFF07F0122EB
:10000E00E4FF9002F2E0600BA3E01216A7E4900268
:04001E00F2F00F22CB
:104B8000EF6007ED6004D2908015EF700AED6007CA
:104B9000D290539AEF800BEF600CED7009C29043F6
:0F4BA0009A1043AF0122C290539AEF53AFFE22F7
:1040340090025CEFF07F007EC27D017C00A3E0F87B
:10404400A3E0F9A3E0FAA3E0FBD31218695016E445
:104054007F807E25FDFC90025DE0F8A3A3A3E0C36E
:10406400121869500A90025D1218AC00004B0090BF
:10407400025DE0F8A3E0F9A3E0FAA3E0FB7F007E91
:10408400807D517C011217D7E47B20FAF9F81217CE
:10409400D7EFF404F59C90025CE0B4011553877FDC
:1040A400759850438E04438E01438E10C29CC2AC5B
:1040B4008012538EF7759A50438E04438E10539A90
:0940C400EF53AFFEC2907F012210
:05003E008F9B7F0122F1
:084DC400E59B1216A77F0122F6
:034DCC0002446E30
:034DCF0002427C21
:030043000247442D
:10474400C0E0C0F0C083C082C0D075D000C000C03B
:1047540001C002C003C004C005C006C007E59A300A
:10476400E006539AFE124DCFE59A30E109539AFDC3
:10477400309003124DCCD007D006D005D004D0031E
:10478400D002D001D000D0D0D082D083D0F0D0E0FD
:0147940032F2
:01003A0022A3
:1041F00090024FEBF0A3EAF0A3E9F0E4900257F04D
:10420000900252E0FBA3E0FAA3E0F912171964054B
:1042100045F0705C90024FE0FBA3E0FAA3E0F99058
:10422000000112167A900255F0A3E4F090000212F9
:10423000167AFF900255E0F0A3E04FF0E004F07032
:1042400006900255E004F0E92403F9E43AFA9002FA
:1042500055E0FCA3E0FD900266E4F0A304F0A3F0B7
:10426000122AD9EF6010124D0B900257EFF0800622
:0C4270009002577403F0900257E0FF2208
:1039CB0090024FEBF0A3EAF0A3E9F0E4900259F078
:1039DB00900252E0FBA3E0FAA3E0F9121719C3948B
:1039EB0006E5F094005003023AB890024FE0FBA3B7
:1039FB00E0FAA3E0F990000112167A900255F0A3B9
:103A0B00E4F090000212167AFF900255E0F0A3E06A
:103A1B004FF0E004F07006900255E004F0900003C4
:103A2B0012167A900257F0A3E4F090000412167A63
:103A3B00FF900257E0F0A3E04FF090000512167ACA
:103A4B00FF900257E0FCA3E0FDC39401EC9400400F
:103A5B005CD3ED9478EC94005053ED25E06F704DF2
:103A6B0090024FE0FBA3E0FAA3E02406F9E43AFA54
:103A7B00900255E0FCA3E0FDA3E0FFA3E0900266FB
:103A8B00CFF0A3EFF0A37401F0122AD9EF600A1262
:103A9B004D0B900259EFF0801A900252E0FBA3E01D
:103AAB00FAA3E0F9E475F00512177C800690025931
:093ABB007403F0900259E0FF22AF
:1034C80090024FEBF0A3EAF0A3E9F0E490025CF07D
:1034D800900252E0FBA3E0FAA3E0F9121719640581
:1034E80045F0600302362690024FE0FBA3E0FAA302
:1034F800E0F990000112167A900255F0A3E4F090DA
:10350800000212167AFF900255E0F0A3E04FF0E0B7
:1035180004F07006900255E004F090000312167A49
:10352800900257F0A3E4F090000412167AFF7E0090
:10353800900257EEF0A3EFF0C39401EE940050030D
:10354800023626D3E0947D900257E09400400302AF
:10355800362690024FE0F9A3E0FAA3E0900259C999
:10356800F0A3EAF0A3E9F0900252E0FBA3E0FAA38B
:10357800E0F9E4F5F012177C900259E0FBA3E4753A
:10358800F001121703A9F0FA74031216A790025259
:10359800E0FBA3E0FAA3E0F9E475F0011217449008
:1035A8000257A3E025E0FFA3E0FBA3E475F00112B6
:1035B8001703A9F0FAEF1216A7900252E0FBA3E056
:1035C800FAA3E0F9E475F001121744900259E0FB00
:1035D800A3E0FAA3E0F9900255E0FCA3E0FDA3E024
:1035E800FFA3E0900266CFF0A3EFF0E4A3F0122A65
:1035F800D9EF600A124D0B90025CEFF08026900222
:1036080058E025E0FF900257E033FE900252E0FBBD
:10361800A3E0FAA3E0F9EE8FF012174480069002B7
:0A3628005C7403F090025CE0FF22E6
:1022B20090024FEBF0A3EAF0A3E9F0E4900260F0A1
:1022C200900252E0FBA3E0FAA3E0F9121719C394BB
:1022D2000AE5F0940050030224D390024FE0FBA3DE
:1022E200E0FAA3E0F990000112167A900255F0A3E9
:1022F200E4F090000212167AFF900255E0F0A3E09B
:102302004FF0E004F07006900255E004F0900003F4
:1023120012167A900257F0A3E4F090000412167A93
:10232200FF900257E0F0A3E04FF090000512167AFA
:10233200900259F0A3E4F090000612167AFF900280
:1023420059E0F0A3E04FF0E004F07006900259E08B
:1023520004F090000712167A90025BF0A3E4F0906A
:10236200000812167AFF90025BE0F0A3E04FF090B3
:10237200000912167AFD900257E0FEA3E0FFC39413
:1023820001EE940050030224CDD3EF947DEE94002D
:1023920040030224CD90025BE0FEA3E0FFC3940160
:1023A200EE940050030224CDD3EF9479EE940040D2
:1023B200030224CDEF25E0FFEE33FEED6F7001EE58
:1023C20060030224CD90024FE0FBA3E0FAA3E024D5
:1023D2000AF9E43AFA900259E0FCA3E0FDA3E0FF17
:1023E200A3E0900266CFF0A3EFF0A37401F0122AEB
:1023F200D9AD07ED60030224BF90024FE0F9A3E0DC
:10240200FAA3E090025DC9F0A3EAF0A3E9F090021A
:1024120052E0FBA3E0FAA3E0F9E4F5F012177C9096
:10242200025DE0FBA3E475F001121703A9F0FA7450
:10243200171216A7900252E0FBA3E0FAA3E0F9E418
:1024420075F001121744900257A3E025E0FF9002B5
:102452005DE0FBA3E475F001121703A9F0FAEF1295
:1024620016A7900252E0FBA3E0FAA3E0F9E475F0AC
:102472000112174490025DE0FBA3E0FAA3E0F99099
:102482000255E0FCA3E0FDA3E0FFA3E0900266CFCB
:10249200F0A3EFF0E4A3F0122AD9AD07ED701E907D
:1024A2000258E025E0FF900257E033FE900252E02E
:1024B200FBA3E0FAA3E0F9EE8FF0121744ED6011EE
:1024C200FF124D0B900260EFF080069002607403E1
:0724D200F0900260E0FF2220
:10378B009002C7EBF0A3EAF0A3E9F09002CDE0FFC3
:10379B009002D4E4F0A3EFF0EDAE047803CEC313A4
:1037AB00CE13D8F9FF9002D2EEF0A3EFF09002D235
:1037BB00E0FEA3E07803C333CE33CED8F9FFC3EDDD
:1037CB009FFFEC9E9002D4E0FEA3E0A807088005C3
:1037DB00C333CE33CED8F9F0EE9002D4F09002CCB6
:1037EB00E0FF74017E00A807088005C333CE33CEFB
:1037FB00D8F924FFFFEE34FF9002D0F0A3EFF0A333
:10380B00A3E075F008A4FFC3ED9FFF9002D0E0FE8C
:10381B00A3E0A807088005C333CE33CED8F9F0EE6A
:10382B009002D0F09002C7E0FBA3E0FAA3E0F9907E
:10383B0002D2E0FEA3E0F5828E8312167AFF90028D
:10384B00CEE4F0A3EFF09002D3E02401FF9002D27C
:10385B00E034008F82F58312167AFE9002CEE04E92
:10386B00F0A3E0F0A3E0FEA3E0F4FFEEF4FE900281
:10387B00CEE05EFEA3E05FFF9002D4E04EFEA3E03D
:10388B004FFF9002CEEEF0A3EFF09002D2E0FCA33C
:10389B00E0FDF5828C83EF1216B99002CEE08D829B
:0638AB008C83A30216B994
:103C93009002D6EBF0A3EAF0A3E9F0EDAE047803CB
:103CA300CEC313CE13D8F9FF9002E0EEF0A3EFF0EA
:103CB3009002E0E0FEA3E07803C333CE33CED8F91D
:103CC300FFC3ED9FFFEC9E9002E2F0A3EFF09002A2
:103CD300DBE0FF74017E00A807088005C333CE3301
:103CE300CED8F924FFFFEE34FF9002DEF0A3EFF00D
:103CF3009002D6E0FBA3E0FAA3E0F99002E0E0FE35
:103D0300A3E0F5828E8312167AFF9002DCE4F0A31F
:103D1300EFF09002E1E02401FF9002E0E034008F35
:103D230082F58312167AFE9002DCE04EF0A3E0F0F7
:103D33009002E2A3E0FF9002DCE0FEA3E0A8070804
:103D43008005CEC313CE13D8F9FF9002DCEEF0A3A7
:103D5300EFF0A3E05EFEA3E05FFF9002DCEEF0A3D2
:033D6300EFF0225C
:104D0B00EF14600C24FA600C2407700CE4FE800A8C
:0D4D1B007E0280067E0680027E04AF062226
:10335A0090024FEBF0A3EAF0A3E9F0E490025CF0EC
:10336A00900252E0FBA3E0FAA3E0F91217196405F0
:10337A0045F060030234BC90024FE0FBA3E0FAA3DD
:10338A00E0F990000112167A900255F0A3E4F09049
:10339A00000212167AFF900255E0F0A3E04FF0E027
:1033AA0004F07006900255E004F090000312167AB9
:1033BA00900257F0A3E4F090000412167AFF9002EC
:1033CA0057E0FEA3E04FFF900257EEF0FEA3EFF0A6
:1033DA00C39401EE940050030234BCE0947D900241
:1033EA0057E0940040030234BC90024FE0F9A3E096
:1033FA00FAA3E0900259C9F0A3EAF0A3E9F0900217
:10340A0052E0FBA3E0FAA3E0F9E4F5F012177C908E
:10341A000259E0FBA3E475F001121703A9F0FA744C
:10342A00041216A7900252E0FBA3E0FAA3E0F9E423
:10343A0075F001121744900257A3E025E0FFA3E0BC
:10344A00FBA3E475F001121703A9F0FAEF1216A70D
:10345A00900252E0FBA3E0FAA3E0F9E475F001124E
:10346A001744900259E0FBA3E0FAA3E0F990025551
:10347A00E0FCA3E0FDA3E0FFA3E0900262CFF0A38B
:10348A00EFF0123632EF600A124D0B90025CEFF049
:10349A008026900258E025E0FF900257E033FE9024
:1034AA000252E0FBA3E0FAA3E0F9EE8FF012174410
:0E34BA00800690025C7403F090025CE0FF223A
:10211700EFD3940F40037FFF2274682F2FF8E62038
:10212700E5F4C2AFE64430F6D2AFAE0CEEC39F5033
:10213700210E74872EF8E6F908E618BE0F0274FF21
:10214700FDED69600909E71919F7090980F3161602
:1021570080DAEED39F400405810581EED39F4022AC
:1021670074872EF808E6F9EEB50C02A98118060661
:10217700E6FDED6960091919E70909F71980F31EEA
:1021870080D9EF2487F8E604F8EF2F04904CAE933C
:09219700F608EF2F93F67F0022F9
:1021A000EFD3940F40037FFF22EF232468F8E6303B
:1021B000E5F4C2AFE6548CF6D2AFE50CB5070A746D
:1021C000872FF8E6F581022043502E74882FF8E619
:1021D000BF0F0274FFFD18E6F974872FF8FBE6FCC9
:1021E000E96C6008A805E7F61D1980F4A803A605A8
:1021F0001FE50CB507E37F002274882FF8E6FD1871
:1022000086010F74872FF8A601088604E50CB50730
:1022100002AC81ED6C60080D09A805E6F780F4E5D5
:092220000CB507DE89817F002264
:10222900EFD3940F40037FFF22EF232468F8C2AF56
:10223900E630E50530E002D2E4D2E2C6D2AF7F0053
:0722490030E2010F0220400A
:03225000AF0C22AE
:102253008FF0E4FFFEE50C232467F8C2A930F70DE5
:102263007F08E6600B2DF660325030800730F106B0
:10227300EDF660277E020830F010C2AFE610E725C6
:102283000E30E20CD2AF7F048014C2AFE610E71524
:1022930054EC4EF6D2AFD2A90220437F0808EF4494
:0F22A30083F4C2AF56C6D2AFD2A954804FFF22E8
:104170000220DDE493A3F8E493A34003F68001F268
:1041800008DFF48029E493A3F85407240CC8C33350
:10419000C4540F4420C8834004F456800146F6DF1F
:1041A000E4800B01020408102040809031E5E47E99
:1041B000019360BCA3FF543F30E509541FFEE49314
:1041C000A360010ECF54C025E060A840B8E493A3DB
:1041D000FAE493A3F8E493A3C8C582C8CAC583CA06
:1041E000F0A3C8C582C8CAC583CADFE9DEE780BEBE
:013359000073
:10163F00C2D530F707B2D563F0FF05F030E70CB233
:10164F00D5F4048463F0FF05F080018430D502F4F3
:02165F00042263
:10166100BB010689828A83E0225002E722BBFE0287
:09167100E32289828A83E49322BA
:10167A00BB010CE58229F582E5833AF583E0225025
:10168A0006E92582F8E622BBFE06E92582F8E2226F
:0D169A00E58229F582E5833AF583E4932289
:1016A700BB010689828A83F0225002F722BBFE0122
:0216B700F3221C
:1016B900F8BB010DE58229F582E5833AF583E8F067
:1016C900225006E92582C8F622BBFE05E92582C813
:0216D900F222FB
:1016DB00EF8DF0A4A8F0CF8CF0A428CE8DF0A42E23
:0216EB00FE22DD
:1016ED00C5F0F8A3E028F0C5F0F8E5821582700288
:0616FD001583E038F02225
:10170300A3F8E0C5F025F0F0E58215827002158399
:06171300E0C838F0E822F6
:10171900BB010A89828A83E0F5F0A3E0225006879B
:10172900F009E71922BBFE07E3F5F009E31922895D
:0B173900828A83E493F5F07401932290
:10174400BB010789828A830216ED500B09C5F02775
:10175400F7C5F01937F722BBFE0D09F8E325F0F3BE
:10176400C5F019E338F322F889828A83740193253A
:08177400F0C5F0F8E4933822FF
:10177C00BB010A89828A83F0E5F0A3F0225006F7B8
:0F178C0009A7F01922BBFE06F3E5F009F31922B5
:10179B0075F008758200EF2FFFEE33FECD33CDCC05
:1017AB0033CCC58233C5829BED9AEC99E582984088
:1017BB000CF582EE9BFEED9AFDEC99FC0FD5F0D665
:1017CB00E4CEFBE4CDFAE4CCF9A88222B800C1B98F
:1017DB000059BA002DEC8BF084CFCECDFCE5F0CBCD
:1017EB00F97818EF2FFFEE33FEED33FDEC33FCEB06
:1017FB0033FB10D703994004EB99FB0FD8E5E4F9C1
:10180B00FA227818EF2FFFEE33FEED33FDEC33FCAD
:10181B00C933C910D7059BE99A4007EC9BFCE99AA1
:10182B00F90FD8E0E4C9FAE4CCFB2275F010EF2FE6
:10183B00FFEE33FEED33FDCC33CCC833C810D707E6
:10184B009BEC9AE899400AED9BFDEC9AFCE899F821
:0E185B000FD5F0DAE4CDFBE4CCFAE4C8F922B4
:10186900EB9FF5F0EA9E42F0E99D42F0E89C45F0D5
:01187900224C
:10187A00E8600FECC313FCED13FDEE13FEEF13FF4C
:03188A00D8F12270
:10188D00E8600FEFC333FFEE33FEED33FDEC33FCB9
:03189D00D8F1225D
:0C18A000ECF0A3EDF0A3EEF0A3EFF022BB
:1018AC00A8828583F0D083D0821218C31218C31279
:1018BC0018C31218C3E473E493A3C583C5F0C5839E
:1018CC00C8C582C8F0A3C583C5F0C583C8C582C886
:0118DC0022E9
:1018DD00BB011A89828A83D0F0D0E0F8D0E0F9D02C
:1018ED00E0FAD0E0FBE8C0E0C0F002197F5016E945
:1018FD00F8D083D082D0E0F9D0E0FAD0E0FBC082FE
:10190D00C08302195FBBFE16E9F8D083D082D0E008
:0F191D00F9D0E0FAD0E0FBC082C0830219882223
:06192C008A838982E47346
:10193200EC8EF0A4CCC5F0CCCDF8EFA4CEC5F02D42
:10194200FDE43CFCE8A42EC8C5F03DFDE43CFCEF00
:0D195200A4FFE5F028FEE43DFDE43CFC228E
:1019B700E518241FF582E43402F583E00518229028
:1019C700021C306E0390021FE475F00112196802C1
:1019D70016612067E97F2ED2678018EF540F249095
:1019E700D43440D4FF306B0BEF24BFB41A0050033C
:1019F7002461FFE51960021519051CE51C70020535
:101A07001B306E0E90021CE475F001121968EF028C
:101A170016A70246A07403D26E8003E4C26EF518BF
:101A270090021C12197FE4F519F51BF51CE51960E6
:101A3700077F201219FA80F5751AFFC268C267C2BC
:101A470069C26AC26CC26DC26F1219C6FF700D30CF
:101A57006E057F00121A0BAF1CAE1B22B4255FC2A6
:101A6700D5C26B1219C6FF24D0B40A00501A75F0FC
:101A77000A781930D50508B6FF0106C6A426F62050
:101A8700D5047002D26A80D924CFB41A00EF50046B
:101A9700C2E5D26B021C0CD26880C6D26780C0D266
:101AA7006980BCD2D580BAD26C80B47F201219FA73
:101AB7002069077401B5190040F11219B7FF12190F
:101AC700FA021A34D26FD26D80951219B7FB121928
:101AD700B7FA1219B7F94A4B700679DD7A1C7BFF02
:101AE70020692EE519602A7E008E82758300121602
:101AF7007A60060EEE651A70F0C2D5EBC0E0EAC058
:101B0700E0E9C0E0EE121C53D0E0F9D0E0FAD0E0F3
:101B1700FB121661FF60AAEBC0E0EAC0E0E9C0E093
:101B27001219FAD0E02401F9D0E03400FAD0E0FB32
:101B3700E51A0460DCD51AD980877BFF7A1C794FB8
:101B4700D269809C791080027908C26DC26F8008C3
:101B5700D2D5790A8004790AC2D5E51A047002F54C
:101B67001AE4FAFDFEFF1219B7FC7B08206813126E
:101B770019B7FD7B1030670A1219B7FE1219B7FFA4
:101B87007B20EC3382D592D55013C3E43067069F90
:101B9700FFE49EFEE42068039DFDE49CFCE4CBF893
:101BA700C268EC700CCFCECDCCE824F8F870F38087
:101BB70017C3EF33FFEE33FEED33FDEC33FCEB33AE
:101BC700FB994002FB0FD8E9EB306805F8D0E0C479
:101BD70048B268C0E00AEC4D4E4F78207B0070C2D7
:101BE700EAB51A0040BCC0E0121C55D0F0D0E02086
:101BF7006804C4C0E0C4B268C0F01219E3D0F0D5DD
:101C0700F0EB021A341219911AD1531B4B581AA22E
:101C17004C1A9E421B4F4F1B57441B57491AB74339
:081C27001B5D551B41461B41EA
:101C2F00451B41471CFD501AA62D1AAA2E1ACD2B63
:101C3F001AAE231ACB201CE62A1A664800001AC5D2
:101C4F003F3F3F00790AA2D5206A14306C09B910C2
:101C5F00020404B9080104A2D5206D02500104202A
:101C6F0069689269B519005034C0E07F20306A1955
:101C7F007F30A269726D726C500F121CACC269C2B8
:101C8F006DC26CC26F7F30800F306C03E9C0E01201
:101C9F0019FA306C03D0E0F9D0E0B519CC306C17DD
:101CAF007F30B9100C1219FA7F58306B077F78808C
:101CBF0003B908031219FA3069057F2D0219FA7F4B
:101CCF0020206FF87F2B206DF322926980CF286E32
:101CDF00756C6C2900D2681219B73068F8C2687831
:101CEF001930D50108F6021A662D504349581219BA
:101CFF00B72403B405004001E4901CF8931219EBCC
:0D1D0F00743A1219EBD26A751904021B4BCD
:09195F00EBF608EAF608E9F622AD
:10196800F8E0FBA3A3E0F925F0F0E5821582700208
:071978001583E0FA38F022AC
:09197F00EBF0A3EAF0A3E9F02269
:09198800EBF208EAF208E9F22290
:10199100D083D082F8E4937012740193700DA3A3E5
:1019A10093F8740193F5828883E4737402936860F9
:0619B100EFA3A3A380DFF9
:00000001FF
