:024CB500436555
:024CB700409C1F
:024CB9000046B3
:024CBB003AC3FA
:024CBD001D4296
:024CBF0038B00B
:024CC10010DA07
:024CC30009D90D
:024CC5002EB40B
:024CC7002AFAC7
:024CC9003EB6F5
:024CCB0043DEC6
:024CCD00462877
:024CCF00489902
:024CD10045D2CA
:024CD3003C8B18
:030000000241C9F1
:0C41C900787FE4F6D8FD7581A102421059
:104C3D002A2A2D007461736B20434F4D4D207374E0
:104C4D006172746564210A000A7665722D2D2D2519
:0C4C5D00640A002A2A5028256C642900F3
:1031EA00420194000142016E0001604001290A0572
:1031FA000303050A0328010023000304140F0F1A0E
:10320A00010501006401040407030A0A0F0F030FF2
:10321A0014010000140A010003141405020000142A
:10322A0014000000000000000000000000AAC14ACB
:10323A00C149C14BC147C148C1D7420175000041CC
:10324A00012300420192000042019000004201DB8A
:10325A0000004201D900004201D700004101D60016
:10326A004201250000420127000041012400C180DB
:10327A00C181C104C105C106C107C108C10AC10D86
:10328A00C10FC110C112C114C116C117C119C11C85
:10329A00C11DC19FC1A1C1A3C1A5C127C129C12BFC
:1032AA00C12DC12EC130C131C1B3C1B5C136C1387A
:1032BA004101090041010A0041010B0042010C00D1
:1032CA000041010E0041010F0041011000410111AE
:1032DA0000420112000042011400004201160000DF
:1032EA0041011800C13AC13B41011900C13CC13D2D
:0E32FA00C13E45011A000000000041011F0006
:10436500122CE07F0212213D7DFA7F021222797F15
:104375000912213D7F0312213D7D0A7F0212227918
:104385007F0412213D7D0A7F021222797F051221C9
:104395003D7D0A7F021222797F0612213D7D0A7F2B
:1043A500021222797F0712213D7D0A7F02122279AE
:1043B5007F0812213D7D0A7F021222797F0A122190
:1043C5003D7D0A7F021222797F0F12213D7D0A7FF2
:0943D50002122279E4FF0221C664
:102CE000124CF3E490016DF0900177F0A3F0A3F0A3
:102CF000A3F0A3F0A3F0900121F0A3F0900120F045
:102D0000900170F0C254C252C24090016BF0A3F027
:102D100090018EF0A3F0C24CC24EC24DC243C23FDE
:102D2000C256D253C242C251C246124A679001F9FA
:102D30001218D2000000007F407E0D7D037C0090C1
:102D400001F9E0F8A3E0F9A3E0FAA3E0FBC312184D
:102D50008F5068E49001F8F09001F8E0FFC36480C0
:102D60009488500B74382FF8E4F6E004F080E9E41E
:102D70009001F8F09001F8E0FFC36480949050193E
:102D8000EF3395E0FE747D2FF58274013EF583E408
:102D9000F09001F8E004F080DB9001F9E0FCA3E0A2
:102DA000FDA3E0FEA3E02401FFE43EFEE43DFDE4DC
:102DB0003CFC9001F91218C6022D377F04124872AC
:102DC0007F01124BE9124A67C244E49001F8F09087
:102DD00001F8E0FFC3648094C05025EF3395E0FE16
:102DE000124D499001F8E0FD3395E0FC74962DF505
:102DF0008274013CF583EFF09001F8E004F080CF9D
:102E00001247BD7F017E02124D49E4FCFDFE7810A1
:102E10001218B3C004C005C006C0077F007E0212AE
:102E20004D49E4FCFDFE78181218B3D003D002D04F
:102E300001D000EF2BFFEE3AFEED39FDEC38FCC07F
:102E400004C005C006C0077402FFFE124D49E4FC31
:102E5000FDFE78081218B3D003D002D001D000EBE9
:102E60002FFFEA3EFEE93DFDE83CFCC004C005C082
:102E700006C0077F037E02124D49E4FCFDFED0032D
:102E8000D002D001D000EB2FFFEE3AFEED39FDEC81
:102E900038FC9001711218C6E53330E21230E30FAE
:102EA000E53530E30A9001711218D2000000007F6E
:042EB0002E02487234
:100046007D647F021222791247BD124A677D017FC5
:1000560002122279E53F20E7EEE530139220E530E3
:10006600A2E19202A2E4920330033220052FE53783
:1000760030E0079001D4E04401F07F30124ACB50C3
:10008600079001D4E054FEF0D25574C61244B5E58B
:100096003030E4097DC87F0212227980F230202EAA
:1000A600301F2B30021130040E20000B20030820D5
:1000B60005051246CE803230032F30052C2001294B
:1000C60020022620042390016D74C6F0801820209B
:1000D60018201F1590016DE0FF6005D3946440065B
:1000E60090016D7463F01244B9300205300402D2F7
:1000F60000200205200402C200300305300502D2AA
:1001060001200305200502C201A220921FA202922D
:1001160004A2039205E53130E6057F13124BE99000
:10012600016DE06005C3946440077F06124BE980C9
:100136000E90016DE0C3946450057F0612487290DC
:100146000178E07002A3E0600E900179E024FFF0F0
:10015600900178E034FFF090017AE0600214F090AC
:10016600017BE07002A3E0600E90017CE024FFF0CA
:1001760090017BE034FFF0900122E0600214F090E1
:100186000121E07F03600B124872900121E014F018
:100196008003124BE9900177E07F18600B124872DA
:1001A600900177E014F08003124BE9E53230E41A4F
:1001B60030E5179001C2E075F00AA4FF900178E5DA
:1001C600F0F0A3EFF07F23124BE9E53030E30B208C
:1001D60006082052057F0112213DE530A2E3920672
:1001E600E53230E3142007119001B4E075F00AA45B
:1001F60090017AF07F24124BE9E532A2E39207A23E
:10020600E4921E301E15201D129001C1E075F00A01
:10021600A4FF900175E5F0F0A3EFF0900175E07092
:1002260002A3E0600E900176E024FFF0900175E0F5
:1002360034FFF0A21E921DE534A2E39213A2499266
:10024600323032342031319001D4E030E02A30139C
:10025600149001C8E075F00AA4FF900114E5F0F0CF
:10026600A3EFF080137F30124872D24790012574B5
:1002760001F0A3742CF0C24BA2329231E53030E586
:1002860002D254E53530E42B200A2830542590015B
:10029600B5E075F00AA4900177F09001A0E075F042
:1002A6000AA4FF90017BE5F0F0A3EFF07F25124B47
:1002B600E9C254E535A2E4920AE533A2E292373068
:1002C600370C20360990016DE0B47E02E4F0A237C7
:1002D6009236E533A2E3923930390C203809900181
:1002E6006DE0B47F02E4F0A2399238E534A2E192DF
:1002F6001A301A2120191E900111E070189001B2CF
:10030600E075F00AA4FF900192E5F0F0A3EFF090FB
:10031600011174FAF0900111E0600214F09001925C
:10032600E07002A3E0600E900193E024FFF09001DC
:1003360092E034FFF0900192E07004A3E064017053
:10034600107F321248727F27124BE990010F7432E8
:10035600F090010FE0600214F090010FE0B4010B81
:100366007F331248729001107464F0900110E060BF
:100376000214F0900110E0B4010B7F32124BE990A9
:10038600010E741EF090010EE0600214F090010E52
:10039600E0B4010A7F271248727F33124BE9A21A92
:1003A6009219E534A2E2921130111820101590012D
:1003B6006DE0FF6005C39464400690016D7422F001
:1003C6001244B9A2119210A21C921BE534A2E39228
:1003D6001330132C2012299001C9E07005124852DF
:1003E600801E9001D4E04401F0C24B3049129001C6
:1003F600C8E075F00AA4FF900114E5F0F0A3EFF051
:10040600A2139212900123E06401702F7F29124AF1
:10041600CB500F7F29124BE99001C5E0900123F0E4
:1004260080199001D6E060137F291248729001C5A9
:10043600E0900123F09001D6E014F0900123E060F3
:100446000214F0E535A2E6923420342D20332A300A
:1004560035279001CBE075F064A4FF900112E5F01A
:10046600F0A3EFF090016DE0FF6005C394644006D1
:1004760090016D742EF01244B9303405303302D237
:1004860035203405203302C235A23492339001124E
:10049600E07002A3E0600E900113E024FFF09001EB
:1004A60012E034FFF0900112E07004A3E0640170E2
:1004B600057F0B124872E53613921530153330144A
:1004C6003020162D7F30124ACB5026C2479001D4D9
:1004D600E054FEF0C24B9001C7E075F00AA4FF900D
:1004E6000116E5F0F0A3EFF09001C9E060031248B1
:1004F60052301505301402D216201505201402C2FA
:1005060016A2159214E536A2E192183018052017A6
:1005160002C248A2189217E536A2E29222A2E392FC
:1005260024A2E49226A2E59228A2E6922A20221884
:1005360020211590016DE0FF6005C394644006908C
:10054600016D7432F01244B920241820231590014D
:100556006DE0FF6005C39464400690016D7433F04E
:100566001244B920261820251590016DE0FF60057C
:10057600C39464400690016D7434F01244B9302877
:100586001830271590016DE0FF6005C3946440069E
:1005960090016D7435F01244B9302A18302915903F
:1005A600016DE0FF6005C39464400690016D7436EA
:1005B600F01244B9A2229221A2249223A2269225C5
:1005C600A2289227A22A9229E53633922CE537A251
:1005D600E1922F302C3E302B3B202D38202F3590AA
:1005E6000118E0B4392EE49001D9F0A3F07F35125A
:1005F6004BE990016D7437F01244B99001ACE07587
:10060600F064A4FF9001D7E5F0F0A3EFF0E49001C9
:1006160018F0800C202C09302B069001187437F046
:10062600202C05202B02C22D302C05302B02D22D7A
:10063600A22C922BE537A2E1922F302F3E302E3B93
:10064600203038202C35900118E0B4372EE4900184
:10065600D7F0A3F07F34124BE990016D7439F01294
:1006660044B99001ACE075F064A4FF9001D9E5F0BF
:10067600F0A3EFF0E4900118F0800C202F09302E43
:10068600069001187439F0202F05202E02C2303052
:100696002F05302E02D230A22F922E9001C9E06093
:1006A600077F17304B0C80057F17304905124872BB
:1006B6008003124BE99001D9E07002A3E0601A7F33
:1006C60034124BE97F351248729001DAE024FFF0CC
:1006D6009001D9E034FFF080057F35124BE9900197
:1006E600D7E07002A3E0601A7F35124BE97F34121F
:1006F60048729001D8E024FFF09001D7E034FFF073
:1007060080057F34124BE99001D4E020E007E536FE
:1007160030E102D24BE53630E10B90016DE0B49545
:1007260016E4F0801290016DE0700C9001C9E06053
:100736000690016D7495F0900114E07004A3E064D6
:100746000170137F30124872D2479001257401F070
:10075600A3742CF0C24B900114E07002A3E0600E6B
:10076600900115E024FFF0900114E034FFF09001B1
:1007760016E07004A3E0640170117F30124BE9D2D9
:10078600489001277401F0A3742CF0900116E070D4
:1007960002A3E0600E900117E024FFF0900116E03E
:1007A60034FFF0900125E07004A3E06401700C3082
:1007B600470990016D7430F01244B9900125E0703C
:1007C60002A3E0600E900126E024FFF0900125E0F0
:1007D60034FFF0900127E07004A3E064017012304A
:1007E600480F9001C9E0600990016D7431F0124420
:1007F600B9900127E07002A3E0600E900128E02482
:10080600FFF0900127E034FFF0E535A2E3920BE517
:1008160034A2E5920C7F1A124ACB503A300B37209D
:10082600083490019DE070077F2812487280089076
:10083600019DE0900109F07F051248729001A7E042
:10084600700204F09001A7E075F00AA4FF90010C75
:10085600E5F0F0A3EFF090010CE07004A3E0640172
:10086600701E900109F07F28124BE99001AAE070F2
:10087600077F05124BE980089001AAE090010AF073
:1008860090016BE07002A3E0600E90016CE024FF23
:10089600F090016BE034FFF0900109E0B401057FB0
:1008A6002812487290010AE0B401057F05124BE94F
:1008B600900109E0600214F090010AE0600214F071
:1008C60090010CE07002A3E0600E90010DE024FFA1
:1008D600F090010CE034FFF090018DE0B401057F4B
:1008E6002A124BE990018DE0600214F090018EE02F
:1008F600B401167F2B124BE97F2C1248729001B07F
:10090600E075F00AA490018FF090018EE060021469
:10091600F090018FE0B401057F2C124BE990018F16
:10092600E0600214F09001DBE07002A3E06010903A
:1009360001DCE024FFF09001DBE034FFF080057F6E
:100946002F124BE9A20B9208A20C9209E535A2E5FB
:10095600920E300E12300D0F200F0C90019FE07595
:10096600F00AA490010BF0200E05200D02C20F30F4
:100976000E05300D02D20F90010BE06401703B9022
:10098600016DE0FF6005D39464400690016D742DFF
:10099600F01244B9124BE57F1F124BE97F20124B30
:1009A600E97F23124BE9E53720E2057F24124BE964
:1009B6007F25124BE97F27124BE990010BE060027D
:1009C60014F0A20E920DE53520E20302004DD2414D
:0309D60002004DCF
:10409C00E4900205F0D2529001B2E075F00AA4FD52
:1040AC007F021222799001B3E075F00AA42401FE7C
:1040BC00E435F0900178F0A3CEF07F23124BE91297
:1040CC0047BDE53230E40E9001C1E075F00AA4FF63
:1040DC009001758024E4900175F0A3F0900175E0D7
:1040EC007002A3E0601B7D0A7F021222799001B35B
:1040FC00E075F00AA4FF900178E5F0F0A3EFF080F2
:10410C00DB7F021248729001B3E075F00AA4FD7FC8
:10411C00021222797F02124BE9E4900178F0A3F0AD
:07412C00C2527F010221C60F
:103AC3001247BD124A67E53F30E703023BAE20448D
:103AD30003023BAEE53120E103023BAE900180746B
:103AE30001F0E53020E614D23A7D0A7F02122279F2
:103AF30090016DE070EC746AF080E79001807402CD
:103B0300F0303A187DFAFF1222797DFA7F021222F1
:103B130079C23A90016DE0B46A02E4F03044A190B6
:103B230001807403F0E53030E703023BAEE531304A
:103B3300E279E4900207F07D0A7F02122279E530F0
:103B430020E706900207E004F07D0A7F0212227943
:103B5300E53020E706900207E004F07D0A7F0212B9
:103B63002279E53020E706900207E004F09002078F
:103B7300E0C39402400AE53030E6057F071248723D
:103B8300E4900207F07D0A7F02122279900207E097
:103B930004F0E0C3942840ED7F07124BE9E53020A1
:103BA300E70990016DE07003746BF07D027F0212F0
:053BB3002279023AC373
:101D42001247BD124A67E53F30E7030220112044E3
:101D52000302200D203B03021FA79001817401F0B2
:101D6200E53120E1127D057F0212227990016DE0BA
:101D720070EE746DF080E990016DE0B46D02E4F0F4
:101D8200E53120E2127D057F0212227990016DE099
:101D920070EE746EF080E990016DE0B46E02E4F0D2
:101DA200E53020E7147D057F02122279D25C900192
:101DB2006DE070EC746BF080E790016DE0B46B0243
:101DC200E4F0305C097D647F02122279C25C204417
:101DD200097D057F0212227980F47D327F02122270
:101DE200797F0A1248727F22124872900197E07539
:101DF200F00AA4FD7F021222797F0C1248727F0C36
:101E020012213D7F0A124BE97D147F021222799042
:101E120001817403F0E4900209F0E53120E34A7D88
:101E2200017F02122279900197E0FF9001A5E0C3A1
:101E32009FFFE49400FE7C007D0A121701900209C4
:101E4200E004F0C39FEE6480F874809840CC900167
:101E52006DE06005D39464400690016D740BF07FD1
:101E620022124BE91244B980B17F22124BE97D0163
:101E72007F02122279E4900209F0E53120E1127D1D
:101E8200017F0212227990016DE070EE746DF08094
:101E9200E990016DE0B46D02E4F07F0C124BE99021
:101EA20001C3E075F00AA4900121F07F0C1221C653
:101EB2007F0D1248727F0D12213D900198E075F05E
:101EC2000AA4FD7F021222797F011222792044099D
:101ED2007D057F0212227980F47F211248729001DF
:101EE200817404F0E4900209F0E53120E23E7D01C4
:101EF2007F021222799001A6E075F00AA4FFAEF0EB
:101F0200900209E004F0C39FEE6480F87480984068
:101F1200D890016DE06005D39464400690016D7421
:101F22000AF07F21124BE91244B980BD90016DE0A5
:101F3200B46E02E4F07F21124BE99001817405F046
:101F4200E4900209F0E53130E0107D028005204482
:101F5200F47D057F0212227980F4E53130E003023C
:101F6200200D7F08124ACB500302200D7F0D124B29
:101F7200E97F0D1221C67D027F021222797F0E12A5
:101F820048729001A9E075F00AA4FD7F021222793D
:101F92007F0E124BE9203F047F0580027F0412224C
:101FA2004FC23F8066E4900181F0900209F07F21E8
:101FB200124872E53120E23E7D017F0212227990C1
:101FC20001A6E075F00AA4FFAEF0900209E004F069
:101FD200C39FEE6480F874809840D890016DE060F1
:101FE20005D39464400690016D740AF07F21124B70
:101FF200E91244B980BD90016DE0B46E02E4F07F55
:1020020021124BE97D017F02122279A244923B7D8B
:09201200027F02122279021D4234
:1038B000E4900182F07F0F124872124A677DFA7F0E
:1038C000021222797DFA7F021222797F0F124BE9D0
:1038D000124A677F0412224F1247BD124A672044E2
:1038E000030239C07F011222792044097D057F023D
:1038F00012227980F49001827401F0900199E075B0
:10390000F00AA4FD7F021222799001A8E0D394006E
:103910004059E490020BF09001A8E014FF90020BD4
:10392000E0C39F502E7F0912487290019AE075F013
:103930000AA4FD7F021222797F09124BE990019AB5
:10394000E075F00AA4FD7F0212227990020BE004D8
:10395000F080C47F0912487290019AE075F00AA4C1
:10396000FD7F021222797F09124BE99001827402D5
:10397000F0E490020CF0E53120E0057F0812487277
:103980007D2880052044097D057F0212227980F47C
:10399000E53120E0117F081248727D017F0212227A
:1039A000791247BD80EA7F08124BE9124A679001FD
:1039B000827403F07D027F021222797F0412224F6B
:0A39C0007D027F021222790238D83E
:102AFA001247BD124A67204403022CD67D027F0288
:102B0A001222791247BDE53130E62B30E028E53252
:102B1A0030E023205620900122E0701A90016DE0E7
:102B2A00FF6472600AEF646C6005EF64747033E4EA
:102B3A0090016DF0802C90016DE07008E53120E67F
:102B4A00037472F090016DE07008E53120E00374BF
:102B5A006CF090016DE070A4E53220E09F7474F08F
:102B6A00809A9001867402F07D05FF1222797D0217
:102B7A007F021222791247BDE53130E62B30E02878
:102B8A00E53230E023205620900122E0701A9001AD
:102B9A006DE0FF6472600AEF646C6005EF64747044
:102BAA0033E490016DF0802C90016DE07008E531FE
:102BBA0020E6037472F090016DE07008E53120E0C0
:102BCA0003746CF090016DE070A4E53220E09F740C
:102BDA0074F0809A2044097D027F0212227980F4DF
:102BEA007F12124872E490020EF0E53220E1297D4C
:102BFA00017F0212227990020EE004F0C394FA4097
:102C0A00E990016DE0FF6005D39464400690016D80
:102C1A007411F01244B980D29001867403F0E53140
:102C2A0020E01D7F12124BE990016DE0FF6005D391
:102C3A009464400690016D7408F01244B9022AFAAD
:102C4A009001BFE075F00AA4FD7F021222797F107D
:102C5A001248727F0E12213D90019CE075F00AA481
:102C6A00FD7F021222797F12124BE9D25690018619
:102C7A007404F0E490020EF0F0E53220E02E7D02BA
:102C8A007F021222797F12124BE990020EE004F0C1
:102C9A00D394FA40E490016DE0FF6005D394644058
:102CAA000690016D7410F01244B980CD90016DE068
:102CBA00B47402E4F07F0612224F2044097D027F99
:102CCA000212227980F49001867405F07D0A7F024F
:062CDA00122279022AFA21
:1010DA007F0712224F1247BD124A672044030216A5
:1010EA005BE4900183F07F011222792044097D0597
:1010FA007F0212227980F49001837401F0900183B7
:10110A007402F0E53120E0127D027F02122279900A
:10111A00016DE070EE746CF080E9E53120E6177D30
:10112A00017F02122279900210E004F0C394FA407F
:10113A00E91244B380E42044097D057F0212227932
:10114A0080F42044097D057F0212227980F4E53279
:10115A0020E0127D027F0212227990016DE070EE8A
:10116A007474F080E9E53330E1127D027F021222C5
:10117A007990016DE070EE747DF080E9E53430E03D
:10118A00127D027F0212227990016DE070EE748462
:10119A00F080E9E53230E7127D027F02122279906F
:1011AA00016DE070EE747BF080E9E53330E0127D8A
:1011BA00027F0212227990016DE070EE747CF08059
:1011CA00E92050127D017F0212227990016DE070B0
:1011DA00F0747EF080EB2056097D017F021222799D
:1011EA0080F490016DE0FF646C6022EF6472601D10
:1011FA00EF64746018EF647D6013EF6484600EEF2F
:10120A00647B6009EF647C6004EFB47E05E49001BE
:10121A006DF02044097D057F0212227980F412477D
:10122A00BDE53120E00302110720E603021107E5BC
:10123A003220E003021107205003021107E5333080
:10124A00E103021107E53430E003021107E5323009
:10125A00E703021107E53330E003021107205603C2
:10126A0002110730E3030211077F1A124ACB400822
:10127A00E53320E2030211079001837403F07F1122
:10128A00124872124A67E53430E441900196E0FD53
:10129A0075F00AA4FF900119E0C39FE5F06480F895
:1012AA007480984003ED70249001B7E090016AF0D1
:1012BA009001C4E0900169F0900119E004F0E0F0B7
:1012CA007F2C124BE97F2D1248728029E53420E4E5
:1012DA0005E4900119F09001A3E090016AF09001F1
:1012EA00ABE0900169F07F2B124BE97F2C12487218
:1012FA007F2D124BE99001837406F0E4900210F0FE
:10130A00E53120E7207D017F02122279900210E068
:10131A0004F0C394FA40E990016D740FF07F111242
:10132A004BE91244B9C256E53130E74730E6159029
:10133A00016DE0FF6005C39464400690016D740E70
:10134A00F01244B97F0E1221C69001BBE075F00A73
:10135A00A4FD7F0212227990016DE06416600A7F73
:10136A00161248727F2A124872E53130E0057F066C
:10137A0012224F7D0F7F021222799001837407F0A7
:10138A007F10124BE97F141248729001B1E075F098
:10139A000AA4FD7F021222797F14124BE97F1112EF
:1013AA004BE9900122741EF07F1312487290018358
:1013BA007408F0E53330E1297F151248727F16125E
:1013CA004BE97F2F124BE97F2A124BE990016DE01E
:1013DA00FF6005D39464403490016D7419F00214CF
:1013EA0070E53430E0287F151248727F16124BE9F7
:1013FA007F2F124BE97F2A124BE990016DE0FF60C3
:10140A0005D39464400690016D7420F08058E5324B
:10141A0020E7287F151248727F16124BE97F2F1298
:10142A004BE97F2A124BE990016DE0FF6005D394E6
:10143A0064400690016D7417F0802BE53320E03F7D
:10144A007F151248727F16124BE97F2F124BE97FE4
:10145A002A124BE990016DE0FF6005D394644006BF
:10146A0090016D7418F01244B99001BDE075F00A4C
:10147A00A4FD7F021222797F15124BE902165BD274
:10148A00499001B1E075F00AA4FD7F021222797F2A
:10149A0014124872D245D24F7D027F0212227990ED
:1014AA0001837409F0E4900210F09001C9E060270A
:1014BA00E53620E0127D027F0212227990016DE06A
:1014CA0070EE7494F080E990016DE0B49402E4F057
:1014DA00E5361392608026E53420E3127D027F020E
:1014EA0012227990016DE070EE7487F080E9900124
:1014FA006DE0B48702E4F0E534A2E3926020600371
:10150A0002165B900183740AF0C24990019BE07550
:10151A00F00AA4FD7F02122279900171E0FCA3E097
:10152A00FDA3E0FEA3E02401FFE43EFEE43DFDE46A
:10153A003CFC9001711218C6D257900124E0600455
:10154A0014F0802F90016D7462F01244B97BFF7A17
:10155A004C793D121A487F071221C67D647F021218
:10156A0022797F021221C67D647F021222797F06C8
:10157A001221C69001D3E004F070069001D2E00473
:10158A00F0120022E53330E304C2408002D24090D8
:10159A0001ACE075F00AA490018DF0E4900210F01D
:1015AA009001CCE09001D6F060137F291248729026
:1015BA0001C5E0900123F09001D6E014F0C2417F0A
:1015CA001C1248729001AEE075F00AA4FD7F021267
:1015DA0022797F1C124BE99001AEE075F00AA4FD56
:1015EA007F021222799001A4E0FF900210E004F039
:1015FA00C39F50032041C6E4900123F07F29124B78
:10160A00E9D24290016BE07002A3E060097D017F9C
:10161A000212227980ED900183740BF09001C9E0E7
:10162A00600EE53630E0177D0A7F0212227980F2D9
:10163A00E53430E3097D0A7F0212227980F22044E0
:10164A00097D057F0212227980F47F0712224FD288
:0B165A00437D027F021222790210DFA4
:0100220022BB
:1009D900E4900184F090023AF0A3F0E53130E608A2
:1009E90020E7057F1B124872E53320E34090016D33
:1009F900E07003747FF07D237F0212227990023A1E
:100A0900E475F001121713FED3E5F09464EE940037
:100A190040D690016DE06005D39464400690016D65
:100A2900741BF07F1B124BE91244B980BBE53330CC
:100A3900E3107F1B124BE9C25090016DE0B47F02B5
:100A4900E4F0C24F1247BD124A672044030210D096
:100A59009001847401F0FF1222792044097D057FF9
:100A69000212227980F4E490023AF0A3F0E53320EF
:100A7900E34090016DE07003747FF07D027F021204
:100A8900227990023AE475F001121713FED3E5F0CA
:100A99009496EE940040D690016DE06005D394647D
:100AA900400690016D741BF07F1B124BE91244B98B
:100AB90080BB90016DE0B47F02E4F0C250E53430B0
:100AC900E4059001BA80039001B6E090023EF090EF
:100AD9000169E0FF90023EE0FDC39F50557F02127D
:100AE90022799001847402F07F16124BE97F2F124C
:100AF9004BE99001B7E0FF90016AE0B507117F2B40
:100B09001248729001AFE075F00AA490018EF012BC
:100B19004A673043787F1412487290023EE0FF9092
:100B29000169E0C39FFD7F021222797F1912487281
:100B390080583043177F14124872900169E0FD7F95
:100B4900021222797F19124872124A67900169E0EC
:100B5900FF90023EE0C39FFD7F021222799001843B
:100B69007402F07F16124BE97F2F124BE99001B7FF
:100B7900E0FF90016AE0B507117F2B1248729001DE
:100B8900AFE075F00AA490018EF0124A6790016AED
:100B9900E075F00AA4FD7F021222797F14124BE955
:100BA900C245124A679001847403F0E490023AF056
:100BB900A3F0304344E53330E40320E53C7D027F74
:100BC9000212227990016DE070037480F090023A6C
:100BD900E475F001121713FED3E5F094FAEE9400D0
:100BE90040D390016DE0FF6005D394644006900105
:100BF9006D741CF01244B980BC9001ADE075F00A27
:100C0900A4FD7F021222799001847404F0E5352055
:100C1900E11290016D745BF01244B97D0A7F0212F2
:100C2900227980E99001847405F0E53520E7129076
:100C3900016D742FF01244B97D0A7F021222798066
:100C4900E99001847406F02044097D057F0212228F
:100C59007980F4E53530E51990016D742FF012446F
:100C6900B97D0A80052044EB7D057F021222798037
:100C7900F4E53120E6131244B37D0A80052044F1DE
:100C89007D057F0212227980F4E53220E219900174
:100C99006D7412F01244B97D0A80052044EB7D057C
:100CA9007F0212227980F49001847407F07F1A126E
:100CB9004872C251124A67E490023AF0A3F0E5354E
:100CC90020E3347D017F021222791247BD90023A56
:100CD900E475F001121713FED3E5F094F4EE9401D4
:100CE90040DC90016DE0FF6005D3946440069001FB
:100CF9006D742BF01244B9E53530E3347D017F0280
:100D09001222791247BD90023AE475F001121713C5
:100D1900FED3E5F094C4EE940940DC90016DE0FF48
:100D29006005D39464400690016D742BF01244B9A8
:100D39009001847408F02043187F151248729001BD
:100D4900BDE075F00AA4FD7F021222797F15124BCE
:100D5900E9C2439001C0E0FD7F02122279D250E43A
:100D690090023DF09001BCE0FF90023DE0C39F502E
:100D79000F7D0A7F0212227990023DE004F080E49F
:100D89007F19124BE97D037F02122279E490023A1E
:100D9900F0A3F0E53320E2787D027F0212227990F8
:100DA900023AE475F001121713FED3E5F09496EEBA
:100DB9009400404990016DE0FF6005D394644006BA
:100DC90090016D741AF0C2461244B97F1A124BE9A8
:100DD9007F19124BE97F1E124BE97F1F124BE97FE6
:100DE90020124BE97F23124BE9E53720E2057F24E6
:100DF900124BE97F25124BE97F27124BE990016DD0
:100E0900E06005D39464408B90016D747EF080831B
:100E190090016DE0B47E02E4F09001847409F0E57C
:100E29003330E23B7F1A124BE97F19124BE9304606
:100E39002EE53420E52920E626124BE57F1F124BCB
:100E4900E97F20124BE97F23124BE9E53720E205C0
:100E59007F24124BE97F25124BE97F27124BE9903A
:100E69000184740AF02044097D057F0212227980E9
:100E7900F4E53320E63D7D017F0212227990016D70
:100E8900E070037482F01247BD90023AE475F001F4
:100E9900121713FED3E5F094F4EE940140D39001B8
:100EA9006DE0FF6005D39464400690016D741EF0F7
:100EB9001244B990016DE0B48202E4F090018474A7
:100EC9000BF0204F097D027F0212227980F4E5316F
:100ED90020E6127D027F0212227990016DE070EE08
:100EE9007472F080E92051127D027F0212227990FA
:100EF900016DE070F07476F080EB90016DE0FF64B5
:100F090082600EEF64836009EF648D6004EFB47250
:100F190005E490016DF02044097D057F02122279D4
:100F290080F4E490023CF09001BEE090023CF0D2E3
:100F390042900184740CF0E53220E21990016D743D
:100F490012F01244B97D0A80052044EB7D057F0229
:100F590012227980F4E53130E61EE53330E61930A6
:100F6900E71630E213304F10E53120E70B30510816
:100F7900E53230E20302100DE53120E61190016DF2
:100F8900E06005D39464400690016D7472F0E53316
:100F990020E61190016DE06005D39464400690014C
:100FA9006D7482F0E53320E71190016DE06005D39F
:100FB9009464400690016D7483F0E53320E211904A
:100FC900016DE06005D39464400690016D747EF074
:100FD900204F1190016DE06005D3946440069001A3
:100FE9006D748DF0E53220E21190016DE06005D35A
:100FF9009464400690016D7476F07D027F0212229E
:1010090079020F5E90016DE0FF64726018EF6482EF
:101019006013EF6483600EEF647E6009EF648D6096
:1010290004EFB47605E490016DF0900184740DF03D
:1010390090023CE075F00AA4FD7F021222797F1B21
:10104900124872C250C242C253900184740EF0E435
:1010590090023AF0A3F07D0A7F02122279E533204B
:10106900E34090016DE07003747FF07D027F02120E
:10107900227990023AE475F001121713FED3E5F0D4
:101089009496EE940040D690016DE06005D3946487
:10109900400690016D741BF07F1B124BE91244B995
:1010A90080BB90016DE0B47F02E4F0E53330E317D3
:1010B90090016DE0B47F02E4F07F1B124BE9C24F4F
:1010C900C250304002C2407D027F02122279020AD8
:0110D9004DC9
:102EB4001247BD124A67E53F30E703023069E53443
:102EC400A2E5926BA2E6926C5420FF90011FE024CD
:102ED4001AF582E43401F583EFF090011FE0FF045A
:102EE400F0EFC394044002E4F020440620460302B9
:102EF40030619001857401F0900178E07002A3E0E4
:102F040070057F2312487290017AE070057F2412C5
:102F1400487290017BE07002A3E070057F2512489F
:102F2400727F1E1248727F1F124872206B03306C2E
:102F3400262053237F20124872E53530E51990018D
:102F4400857402F0D23E90016DE06005D394644034
:102F54000690016D742DF090011BE0FF90011AE0C2
:102F64002FFF90011CE02FFFA3E02FFFA3E02FD33E
:102F740094034004D26B8002C26B206B21303D1E4F
:102F8400206C1B9001857403F090016DE0FF6005D7
:102F9400D39464400690016D7426F01244B97D0107
:102FA4007F02122279206C03203C12306B03023022
:102FB40061203D03023061306C0302306190018571
:102FC4007404F0206C0D206B0A7F0B12213D7F20CE
:102FD400124BE9203E0620460302306190018574BD
:102FE40005F0E4900240F09001B8E075F005A4FF0C
:102FF400900240E0C39FE5F06480F8748098501D0F
:10300400206B03306C082053057F201248727D0228
:103014007F02122279900240E004F080CA303E1709
:10302400C23E90016DE0FF6005D3946440069001B8
:103034006D742DF01244B9124BE57F1F124BE97FDA
:1030440020124BE97F23124BE9E53720E2057F2468
:10305400124BE97F25124BE97F27124BE9A26C92B0
:0F3064003CA26B923D7D027F02122279022EB4B4
:103EB600E4900242F0A3F0A3F07BFF7A4C79411222
:103EC6001A487BFF7A4C79559002487401F0121A11
:103ED600481249CB900244E014601314601D14602C
:103EE60028146043240470E9EFB406E5801EEF70E1
:103EF600028019EFB40602801F8025EFB40102800C
:103F06000BEFB4060280118017EF7008900244E0B0
:103F160004F080BDEFB406089002447401F080B14D
:103F2600E4900244F080AAEF75F014A4900124F006
:103F3600E4900244F03057997BFF7A4C7960900107
:103F460071E0FCA3E0FDA3E0FEA3E0FF90024812AF
:0A3F560018C6121A48C257023ED7DF
:1043DE009001887401F09001A1E075F00AA4FD7FB0
:1043EE0002122279E490026EF09001B9E0FF900281
:1043FE006EE0C39F503A7F1D1248729001A2E07585
:10440E00F00AA4FD7F021222799001887402F07FD7
:10441E001D124BE99001A2E075F00AA4FD7F021275
:10442E0022799001887403F090026EE004F080B956
:0B443E009001887404F07F0B0221C67F
:104628007D327F021222791247BD124A67E53F2088
:10463800E738E53120E4337F0C124BE99001C3E001
:1046480075F00AA4900121F030441290016DE0FF4A
:104658006005D39464400690016D740CF0D23F124B
:104668004A671244B97F0C1221C67D057F021222C7
:034678007980B492
:104899007D327F021222791247BD124A67E53F2015
:1048A900E72AE53120E5257F0D124BE930441290C6
:1048B900016DE0FF6005D39464400690016D740DAD
:1048C900F0124A671244B97F0D1221C67D057F0295
:0548D90012227980C2EB
:1045D2007D327F021222791247BD124A67E53F20DF
:1045E200E73BE53230E605E53020E2317F10124B41
:1045F200E930441C90016DE0FF6005D394644010E3
:10460200E53290016D20E6057416F080037402F025
:10461200C256124A671244B97F0E1221C67D057F27
:064622000212227980B1B2
:103C8B00C2559002771218D200004B00E490027BD1
:103C9B00F07B027D09FF123F60900273EFF0124C34
:103CAB0093900273EFF01224FF7D027F02122279B0
:103CBB003055F3900171E0FCA3E0FDA3E0FEA3E01F
:103CCB00FF78181218A0E4AD07FF7E02124D2D905D
:103CDB000171E0FCA3E0FDA3E0FEA3E0FF7810126E
:103CEB0018A0E4AD077F017E02124D2D900171E00B
:103CFB00FCA3E0FDA3E0FEA3E0FF78081218A0E40C
:103D0B00AD077402FFFE124D2D900171E0FCA3A3D1
:103D1B00A3E0FFE4AD077F037E02124D2DE490027A
:103D2B0072F0900272E0FF7E002496F582E434017B
:103D3B00F583E0FD124D2D900272E004F0E0C39488
:083D4B004040DFC255023CB10B
:1046CE009001D9E07002A3E0600790016D7439F09B
:1046DE00229001D7E07002A3E0600790016D74375D
:1046EE00F022E53030E029C2467F011248727F2663
:1046FE001248727F04124BE97D037F02122279D297
:10470E0044E490016DF07F26124BE97F2712487228
:01471E002278
:0644B300740E90016DF093
:1044B9003044537F041248727F01124BE9124A6754
:1044C900C244E53420E53D20E63A900184E0FFC38B
:1044D90094024006EFD39409402A7F1E124BE97FCC
:1044E9001F124BE97F20124BE97F23124BE9E53775
:1044F90020E2057F24124BE97F25124BE97F271221
:104509004BE98002D24690016DE0700374C5F02238
:1048520090019EE075F00AA4FF90016BE5F0F0A3D1
:10486200EFF0D2519001DB7402F0A37458F07F2F65
:10487200EF75F0081216652438F8C000E6FEEF75F1
:10488200F008121665AFF07401A807088002C3335E
:07489200D8FC4ED000F62215
:044BE500C2467F1E27
:104BE900EF75F0081216652438F8C000E6FEEF7577
:104BF900F008121665AFF07401A807088002C333E4
:084C0900D8FCF45ED000F62295
:104ACB00EF75F0081216652438F8E6FD7C00EF75DB
:104ADB00F008121665AFF074017E00A80708800578
:104AEB00C333CE33CED8F9FFEE5CFEEF5D4E24FF21
:014AFB002298
:10491C00EF75F008121665FEC374079E2438F8E68E
:10492C00FD7C00EF75F008121665AFF0C374079F9D
:10493C00FF74017E00A807088005C333CE33CED8A0
:0B494C00F9FFEE5CFEEF5D4E24FF2241
:104C1100EF75F008121665FEC374079E2430F8C0C4
:104C210000E6FEEF75F008121665AFF07401A807F3
:0C4C3100088002C333D8FC4ED000F622ED
:104BB800EF75F008121665FEC374079E2430F8C01E
:104BC80000E6FEEF75F008121665AFF07401A8074D
:0D4BD800088002C333D8FCF45ED000F62242
:1047BD00C284C285D286D284A28692797F3F307917
:1047CD0005124C118003124BB8900271743EF0909B
:1047DD000271E0FFC3648094804020D285A286924E
:1047ED0079C285307905124C118008900271E0FF75
:0C47FD00124BB8900271E014F080D4223E
:104A6700C283C283E4900271F0900271E0FFC364D5
:104A77008094C05018C28212491C5004D280800210
:104A8700C280D28200900271E004F080DCD283C23F
:024A970081227A
:10290A0090028AEBF0A3EAF0A3E9F0E4900292F0D5
:10291A00C3ED9401EC94005003022AEE900290E079
:10292A002DFF90028FE03CFED3EF9455EE940040C9
:10293A0003022AEE900194E0FEA3E0FFC3ED9FFF9D
:10294A00EC9EFE900291E0147003022A3F04600399
:10295A00022AF4D3900290E0940090028FE094004F
:10296A005003022AF4EF9404EE648094805025EF19
:10297A0025E02438F8E6FD90028AE0FBA3E475F02E
:10298A0001121729A9F0FAED1216CDEF25E0243924
:10299A00F8E68076C3EF9444EE64809480502190E8
:1029AA00028AE0FBA3E475F001121729A9F0FAE400
:1029BA001216CD74922FF58274013EF583E0804A97
:1029CA00C3EF9453EE64809480502190028AE0FB16
:1029DA00A3E475F001121729A9F0FAE41216CD74CE
:1029EA00392FF58274013EF583E0801EEF64534E61
:1029FA00702D90028AE0FBA3E475F001121729A951
:102A0A00F0FAE41216CD90016DE0FD90028AE0FB27
:102A1A00A3E475F001121729A9F0FAED1216CD0FE9
:102A2A00BF00010E900290E024FFF090028FE03484
:102A3A00FFF002295D304403022AE6D3900290E0B7
:102A4A00940090028FE094005003022AF4EF940459
:102A5A00EE64809480503A90028AE0FBA3E475F019
:102A6A0001121729A9F0FA121687FDEF25E024387A
:102A7A00F8A60590028AE0FBA3E475F00112172973
:102A8A00A9F0FA121687FDEF25E02439F8A6058089
:102A9A0035C3EF9444EE64809480502A90028BE40C
:102AAA0075F00112171390028AE0FBA3E475F00196
:102ABA00121729A9F0FA121687FD74922FF582745B
:102ACA00013EF583EDF00FBF00010E900290E02465
:102ADA00FFF090028FE034FFF0022A4590029274D0
:102AEA0002F080069002927401F0900292E0FF22B6
:10363100900286EBF0A3EAF0A3E9F0E490028DF0AA
:10364100C3ED9401EC9400500302377E90028CE0AC
:103651002DFF90028BE03CFED3EF9409EE940040E5
:103661000302377E90016EE0FEA3E0FFC3ED9FFFF2
:10367100EC9E90028EF0A3EFF0D390028CE09400C8
:1036810090028BE09400500302378490028EE07028
:1036910004A3E06405703C900171E0FCA3E0FDA38C
:1036A100E0FEA3E0FF78181218A0900286E0FBA3C9
:1036B100E475F001121729A9F0FAEF1216CD900165
:1036C10071E0FCA3E0FDA3E0FEA3E0FF7810121877
:1036D100A0807790028EE07004A3E06404703190C2
:1036E1000171E0FCA3E0FDA3E0FEA3E0FF78081276
:1036F10018A0900286E0FBA3E475F001121729A936
:10370100F0FAEF1216CD900171A3A3A3E0FF803A66
:1037110090028EE0FEA3E0FFC39404EE64809480E7
:10372100503CEF25E02430F8E6FF900286E0FBA351
:10373100E475F001121729A9F0FAEF1216CD9002E3
:103741008EA3E025E02431F8E6FF900286E0FBA39A
:10375100E475F001121729A9F0FAEF1216CD9002C3
:103761008FE004F0700690028EE004F090028CE08D
:1037710024FFF090028BE034FFF002367A90028D44
:093781007401F090028DE0FF22BA
:03000B00022020B0
:10201B00C2AF80FE3212201F85D00B75D008FAC2DA
:10202B008CE58A2407F58AE58C34B8F58CD28CECD8
:10203B002493F8E6BC0F0274FFC39581B4140040DF
:10204B00CF7910787216E608700BC2AFE630E10359
:10205B004418F6D2AF08D9EDEA8BD0D27E22E50C2C
:10206B00FF232473F80F0808EFB50C06107E03430B
:10207B008701BF10047F007873E630E4E800E50CBD
:10208B00C39F5020050C7492250CF8E6FDA6810821
:10209B00E6AE0CBE0F0274FFCDF8E86D60E008E60B
:1020AB00C0E080F6E50CD39F4027E50C2493F8E6BF
:1020BB00AE0CBE0F0274FFFD18E6CDF8E5816D6026
:1020CB0006D0E0F61880F5E50C2492C8F6150C80C6
:1020DB00D3E50C232473F87F04C2AFE630E0031082
:1020EB00E20C7F0030E10730E3047F0854F4C2E7D1
:1020FB00C6D2AF54804207227892A681740F600635
:10210B00FF0876FFDFFB7F10E47872F608F608DF36
:10211B00FA78737630904CB5740193C0E0E493C0B9
:10212B00E0438901758A00758CB8D28CD2AFD2A9E5
:02213B00220F71
:08330800410311FF41030EFF18
:104A3400207C2FC2AC207B09207D06D27B8F9980FD
:104A44001F900312E0FE04F0EE541F2452F8A60750
:104A540090030FE0FF900312E06F541F7002D27CAA
:034A6400D2AC22AF
:10467B0090026DEFF0BF0A21307C19122276900365
:10468B0011EFF0E4FBFAFD7F011222799003117414
:10469B00FFF080E47F0D124A34307C1912227690A1
:1046AB000311EFF0E4FBFAFD7F0112227990031165
:1046BB0074FFF080E490026DE0FF124A3490026DBB
:0346CB00E0FF22EB
:1049CB0090030DE0FF900310E0B5071912227690CB
:1049DB00030EEFF0E4FBFAFD7F0112227990030E38
:1049EB0074FFF080DB90030DE0FF04F0EF5407241D
:0549FB004AF8E6FF226E
:0300230002413364
:10413300C0E0C0F0C083C082C0D075D010C27A3056
:104143009844AF99C298EF24EF600824FE700CD214
:104153007D8033A27D927AC27D802B90030DE02473
:1041630008FDE433FC900310E06D7001EC600CE09B
:10417300FE04F0EE5407244AF8A61790030EE0FF5E
:10418300F4600312224F209903307A2FC2999003CF
:1041930012E0FF90030FE06F601F207D1EE0FF041D
:1041A300F0EF541F2452F8E6F599C27C900311E016
:1041B300FFF4600712224F8002C27BD0D0D082D09E
:0641C30083D0F0D0E032D1
:104CF30053877F759850538EBF538EFE53890F434E
:0D4D03008920758BD0758DD0C2ABD28E2269
:104AFC0000C2A40000000000000000D2A5000000CD
:104B0C0000D2A40000000000000000C2A5000000BC
:104B1C000000000000C2A400000000000000002201
:104CD50000C2A400000000C2A500000000D2A4008C
:0E4CE500000000D2A500000000000000002228
:104D64000000000000C2A400000000C2A500000072
:0A4D740000D2A400000000C2A42237
:104B8A00124AFC44A0FF124B2C124B9BAF05124B4E
:014B9A002CEE
:104B9B00D2A500C2A40000000000000000D2A400B7
:0D4BAB00000000A2A5E433FF0000C2A42218
:104C6900D2A500E4FEEF25E0FFD2A4000000000079
:104C7900000000A2A5E4334FFF000000000000007F
:0A4C890000C2A40EEEB408DD002204
:104B2C0000E4FEEF30E704D2A58002C2A50000002D
:104B3C0000D2A40000000000000000C2A40000008D
:0F4B4C000000000000EF25E0FF0EEEB408D522B8
:10480900AC07C2B6EC25E0FC124B8A124AFCEC4418
:10481900A1FF124B2C124B9B900203E0640160191B
:10482900124C69EF1216CD124D64740129F9E43A5C
:10483900FA900203E014F080DF124C69EF1216CDF2
:09484900124B9B124CD5D2B62291
:1048DE00C2B6EF25E0FF124B8A90027AE060191201
:1048EE001687FF124B2C124B9B740129F9E43AFAEE
:1048FE0090027AE014F080E1124CD5E4FFFE000045
:0E490E000FBF00010EBE5DF6BFC0F3D2B62291
:104D4900AD07AC06ECFF7B017A0179FD9002037493
:0B4D590001F01248099001FDE0FF226C
:104D2D00900274EDF0AB07AA06EAFFAD037B017AA2
:0C4D3D0002797490027A7401F00248DEE2
:103310004102EF02604002A804FF335903FF34C7A3
:1033200010FF39CA06FF425517FF22D800000000DF
:10333000000000000000000000000000000000008D
:10334000000000000000000000000000000000007D
:08335000000000000000000075
:103F6000900274EFF0AE03E490027CF0ED600BC3BE
:103F700094014006EDD394F7400890027C7402F05F
:103F8000807B9002A4EDF0900274E0704A9002A54C
:103F900074FFF0A3744DF0A3747EF090029EE4F0E1
:103FA000A3F0A3F0AF06AD07C005900277E0FCA335
:103FB000E0FDA3E0FEA3E0FF90027F1218C690028E
:103FC0007BE0900283F09002A4E0FFD00512451937
:103FD00090027CEFF0800690027C7402F090027CEC
:103FE000E0701A120003EF700890027C7403F080F6
:103FF0000C900274E09002EEF0A37401F090027C49
:03400000E0FF22BC
:10307300900313EBF0A3EAF0A3E9F0AD07E4C39DDB
:1030830040030231DEED947F40030231DEC2AF9094
:103093000313E0FBA3E0FAA3E04A4B70030231679A
:1030A300E4A3F0A3F0900316E0FEA3E0FFC39410A3
:1030B300EE64809480400302314EEF7802C333CE36
:1030C30033CED8F9FF24A9F58274023EF583E0FBE1
:1030D300A3E0FAA3E04A4B603674A92FF582740289
:1030E3003EF583E0FBA3E0FAA3E0F9C003C002C00E
:1030F30001900313E0FBA3E0FAA3E0F9D082D083AD
:10310300D0E06B7008E965827003EA6583702B7405
:10311300A82FF58274023EF583EDF0900313E0FBD4
:10312300A3E0FAA3E0F974A92FF58274023EF583B4
:10313300EBF0A3EAF0A3E9F08011900317E004F0A9
:103143007006900316E004F00230A8900316E070B6
:1031530004A3E0641060047F0080027F04900318DE
:10316300EFF08073E4900316F0A3F0900316E0FEF3
:10317300A3E0FFC39410EE648094805055EF78026F
:10318300C333CE33CED8F924A8F58274023EF58337
:10319300E0B5052E900316E0FEA3E07802C333CE1C
:1031A30033CED8F9FF24A8F58274023EF583E4F008
:1031B30074A92FF58274023EF583E4F0A3F0A3F023
:1031C3008010900317E004F070A1900316E004F060
:1031D3008099E4900318F0D2AF800690031874022C
:0731E300F0900318E0FF2249
:104A9900E490031DF09002EFE0B4011A90029EE049
:104AA900FBA3E0FAA3E04A4B601290029EA3A3E0A5
:104AB900F9121952800690031D7406F090031DE047
:024AC900FF22CA
:104C9300E4900274F09002EFE0B4010A120026E4FB
:104CA3009002EFF080069002747406F0900274E0B4
:024CB300FF22DE
:104A00009002EFE070149002A5A3E0FAA3E0F9127F
:104A100019529002EF7401F080079002EFE0B401A8
:104A200007E490031EF0800690031E7406F09003C6
:044A30001EE0FF2263
:1024FF00E4900276F09002EFE060037F06227B010A
:10250F007A02797712000EEF6401600302270790B9
:10251F000277E024FE604E04600302270790027BDF
:10252F007401F0A37402F0A37496F0A37401F0A3E6
:10253F007402F0A3749BF07B017A027999123E0A20
:10254F00900276EFF060030227079002A4E0FF905D
:10255F000299E0FE6F6006EE60030227077F02120A
:10256F004D99022707900296E0FBA3E0FAA3E0F94A
:10257F0012168790029AF090029D7401F0E4900277
:10258F0074F0A3F0900274E0FEA3E0FFC39410EE8A
:10259F00648094804003022694EF7802C333CE33D5
:1025AF00CED8F924A8F58274023EF583E0FF7003BC
:1025BF0002269490029AE0FE6F6003022683EE24B7
:1025CF00FD603424FD606C24F6604A24F970030228
:1025DF0026602413600302269490027B7401F0A3FB
:1025EF007402F0A3749BF0900296E0FBA3E0FAA3B1
:1025FF00E0F9123359807690027B7401F0A37402D4
:10260F00F0A3749BF0900296E0FBA3E0FAA3E0F92D
:10261F001234C7805890027B7401F0A37402F0A3A8
:10262F00749BF0900296E0FBA3E0FAA3E0F9123955
:10263F00CA803A90027B7401F0A37402F0A3749BDA
:10264F00F0900296E0FBA3E0FAA3E0F91242558066
:10265F001C90027B7401F0A37402F0A3749BF090A2
:10266F000296E0FBA3E0FAA3E0F91222D890029DB4
:10267F00EFF08011900275E004F07006900274E0A4
:10268F0004F0022593900299E0606D90029DE0FFA7
:10269F00603FE490029BF0A3F090029AE04480FE2A
:1026AF00900296E0FBA3E0FAA3E0F990029BE47599
:1026BF00F00112172985F082F583EE1216DF9002D2
:1026CF009BE475F00112172985F082F583EF12163E
:1026DF00DF9002A4E0FF900296E0FBA3E0FAA3E0F4
:1026EF00F990029BE0FDA3E090027CCDF0A3EDF00A
:0B26FF00123D53900276EFF07F0022A6
:10270A0000C1814001C0804101C0804100C18140B7
:10271A0001C0804100C1814000C1814001C08041A7
:10272A0001C0804100C1814000C1814001C0804197
:10273A0000C1814001C0804101C0804100C1814087
:10274A0001C0804100C1814000C1814001C0804177
:10275A0000C1814001C0804101C0804100C1814067
:10276A0000C1814001C0804101C0804100C1814057
:10277A0001C0804100C1814000C1814001C0804147
:10278A0001C0804100C1814000C1814001C0804137
:10279A0000C1814001C0804101C0804100C1814027
:1027AA0000C1814001C0804101C0804100C1814017
:1027BA0001C0804100C1814000C1814001C0804107
:1027CA0000C1814001C0804101C0804100C18140F7
:1027DA0001C0804100C1814000C1814001C08041E7
:1027EA0001C0804100C1814000C1814001C08041D7
:1027FA0000C1814001C0804101C0804100C18140C7
:10280A0000C0C101C30302C2C60607C705C5C40486
:10281A00CC0C0DCD0FCFCE0E0ACACB0BC90908C8F6
:10282A00D81819D91BDBDA1A1EDEDF1FDD1D1CDCE6
:10283A0014D4D515D71716D6D21213D311D1D01056
:10284A00F03031F133F3F23236F6F737F53534F446
:10285A003CFCFD3DFF3F3EFEFA3A3BFB39F9F838B6
:10286A0028E8E929EB2B2AEAEE2E2FEF2DEDEC2CA6
:10287A00E42425E527E7E62622E2E323E12120E016
:10288A00A06061A163A3A26266A6A767A56564A406
:10289A006CACAD6DAF6F6EAEAA6A6BAB69A9A86876
:1028AA0078B8B979BB7B7ABABE7E7FBF7DBDBC7C66
:1028BA00B47475B577B7B67672B2B373B17170B0D6
:1028CA0050909151935352929656579755959454C6
:1028DA009C5C5D9D5F9F9E5E5A9A9B5B9959589836
:1028EA00884849894B8B8A4A4E8E8F4F8D4D4C8C26
:1028FA004484854587474686824243834181804096
:10457700900283EBF0A3EAF0A3E9F0A3ECF0A3ED3C
:10458700F07FFF7DFF90028674FFF5F01217294533
:10459700F06033900283E0FBA3E475F00112172962
:1045A700A9F0FA1216876DFB7A00240AF582EA341D
:1045B70027F583E4936FFD740A2BF582EA3428F517
:0B45C70083E493FF80BFEFFEEDFF22B6
:10451900E4900284F0C2AFAF05C00790027FE0FCCF
:10452900A3E0FDA3E0FEA3E0FF9002861218C69067
:10453900028A7408F0900283E090028BF0D007128F
:104549004003EF64016002801290027FA3A3E0FEA2
:10455900A3E0FF124770EF640160069002847403C0
:0E456900F0D2AFE4900000F0900284E0FF2258
:10002600C2AFE4900001F0FD7F01124B5B124D8CD4
:03003600D2AF2224
:0E4D7E00C2AFE4FDFF124B5B124DA5D2AF2277
:103E0A00900278EBF0A3EAF0A3E9F0E4900281F0E3
:103E1A00A3F0C2AFC3900003E09404900002E094C0
:103E2A000040667B017A007904E0FCA3E0FD1245BC
:103E3A0077EF4E7054900004E0FF900278E0FBA305
:103E4A00E0FAA3E0F9EF1216CD900003E024FDFF9B
:103E5A00900002E034FFF990027EE0FBA3E0FAA3AF
:103E6A00E0C98FF01217A27B017A007905C003C05E
:103E7A0002C00190027BE0FBA3E0FAA3E0F9121969
:103E8A00039002817401F0801B7B017A007904900F
:103E9A000002E0FCA3E0FD124577EF4E60069002B7
:0C3EAA00827405F0D2AF900282E0FF228B
:103D5300E490027EF0C2AF900001E06401600302D0
:103D63003DFCE924FFF9EA34FFFA900106EBF0A3E6
:103D7300EAF0A3E9F0900104E4F0A304F090010653
:103D8300E0FBA3E0FAA3E0F9EF1216CD90027CE08A
:103D9300FEA3E0FF900105E02FF0900104E03EF068
:103DA300900106E0FBA3E0FAA3E0F9900104E0FC34
:103DB300A3E0FD124577900104E475F00112172981
:103DC300FA740425F0F58274003AF583EFF0EEFF00
:103DD300900104E475F001121729FC740425F0F531
:103DE3008274003CF583EFF09000007401F0FDE471
:103DF300FF124B5B124449800690027E7405F0D299
:073E0300AF90027EE0FF22F8
:1042E100E4900294F07B017A027995124DAE900030
:1042F10001E014600C1460351460042403705F80C5
:104301005AE4900002F0A3F0900295E0FF900002C1
:10431100E475F001121729FC740425F0F58274008C
:104321003CF583EFF09000017402F0802EC3900001
:1043310002E09401501F900295E0FF900002E475A5
:10434100F001121729FC740425F0F58274003CF584
:1043510083EFF080069000017403F0124D8C9002FF
:0443610094E0FF22C3
:10444900E4900294F0900000E014600C047055E4CC
:10445900FD7F01124B5B804C900104E07002A3E0E8
:10446900602C900106E0FBA3E0FAA3E0F91216879D
:10447900FF12003E900107E475F001121713900135
:1044890005E024FFF0900104E034FFF080167F037B
:10449900124D99900294EFF0E4FD7F01124B5BE419
:0A44A900900000F0900294E0FF2262
:10499200E4900293F0900001E024FE601314601A88
:1049A20024037016E4FF124D99900293EFF0800AEF
:1049B2007F01124D99900293EFF0124DA5900001E4
:0949C2007401F0900293E0FF2261
:10477000EF4E602BEF25E0FFEE33FE7C007D0C1248
:104780001958A804A905AA06AB077F007E807D837F
:104790007C651217FD900319EEF0A3EFF08007E49B
:1047A000900319F0A3F0E4F5D8F5D975DA48900331
:0D47B00019E0FEA3E0F5EAEEF5FA7F012224
:0D4D8C00E4F5D875DA49F5E9F5F9D2DE2233
:094DA500C2DE75DA48E4F5D822FB
:03003B0002495720
:10495700C0E0C0F0C083C082C0D075D000C000C026
:1049670001C002C003C004C005C006C007124992B7
:10497700D007D006D005D004D003D002D001D00094
:0B498700D0D0D082D083D0F0D0E0323E
:0100390022A4
:08000300E490031BF07F0122D1
:0C4D990090031B7401F0A3EFF07F0122D7
:10000E00E4FF90031BE0600BA3E01216CDE4900317
:04001E001BF00F22A2
:104B5B00EF6007ED6004D2908015EF700AED6007EF
:104B6B00D290539AEF800BEF600CED7009C290431B
:0F4B7B009A1043AF0122C290539AEF53AFFE221C
:10400300900285EFF07F007EC27D017C00A3E0F883
:10401300A3E0F9A3E0FAA3E0FBD312188F5016E450
:104023007F807E25FDFC900286E0F8A3A3A3E0C376
:1040330012188F500A9002861218D200004B00907B
:104043000286E0F8A3E0F9A3E0FAA3E0FB7F007E99
:10405300807D517C011217FDE47B20FAF9F81217D9
:10406300FDEFF404F59C900285E0B4011553877FBE
:10407300759850438E04438E01438E10C29CC2AC8C
:104083008012538EF7759A50438E04438E10539AC1
:09409300EF53AFFEC2907F012241
:05003E008F9B7F0122F1
:084DAE00E59B1216CD7F0122E6
:034DB6000244496B
:034DB9000242E1D2
:0300430002471F52
:10471F00C0E0C0F0C083C082C0D075D000C000C060
:10472F0001C002C003C004C005C006C007E59A302F
:10473F00E006539AFE124DB9E59A30E109539AFDFE
:10474F00309003124DB6D007D006D005D004D00359
:10475F00D002D001D000D0D0D082D083D0F0D0E022
:01476F003217
:01003A0022A3
:10425500900278EBF0A3EAF0A3E9F0E4900280F095
:1042650090027BE0FBA3E0FAA3E0F912173F640597
:1042750045F0705C900278E0FBA3E0FAA3E0F990CA
:1042850000011216A090027EF0A3E4F09000021245
:1042950016A0FF90027EE0F0A3E04FF0E004F0707E
:1042A5000690027EE004F0E92403F9E43AFA90026C
:1042B5007EE0FCA3E0FD90028FE4F0A304F0A3F000
:1042C50012290AEF6010124D10900280EFF080065F
:0C42D5009002807403F0900280E0FF2251
:1039CA00900278EBF0A3EAF0A3E9F0E4900282F027
:1039DA0090027BE0FBA3E0FAA3E0F912173FC3943D
:1039EA0006E5F094005003023AB7900278E0FBA390
:1039FA00E0FAA3E0F99000011216A090027EF0A36B
:103A0A00E4F09000021216A0FF90027EE0F0A3E01C
:103A1A004FF0E004F0700690027EE004F09000039C
:103A2A001216A0900280F0A3E4F09000041216A0EF
:103A3A00FF900280E0F0A3E04FF09000051216A07C
:103A4A00FF900280E0FCA3E0FDC39401EC940040E7
:103A5A005CD3ED9478EC94005053ED25E06F704DF3
:103A6A00900278E0FBA3E0FAA3E02406F9E43AFA2C
:103A7A0090027EE0FCA3E0FDA3E0FFA3E090028FAA
:103A8A00CFF0A3EFF0A37401F012290AEF600A1233
:103A9A004D10900282EFF0801A90027BE0FBA3E0C7
:103AAA00FAA3E0F9E475F0051217A28006900282E3
:093ABA007403F0900282E0FF2287
:1034C700900278EBF0A3EAF0A3E9F0E4900285F02C
:1034D70090027BE0FBA3E0FAA3E0F912173F640533
:1034E70045F06003023625900278E0FBA3E0FAA3DB
:1034F700E0F99000011216A090027EF0A3E4F0908C
:1035070000021216A0FF90027EE0F0A3E04FF0E069
:1035170004F0700690027EE004F09000031216A0FB
:10352700900280F0A3E4F09000041216A0FF7E0042
:10353700900280EEF0A3EFF0C39401EE94005003E5
:10354700023625D3E0947D900280E0940040030288
:103557003625900278E0F9A3E0FAA3E0900282C949
:10356700F0A3EAF0A3E9F090027BE0FBA3E0FAA363
:10357700E0F9E4F5F01217A2900282E0FBA3E475EC
:10358700F001121729A9F0FA74031216CD90027BE5
:10359700E0FBA3E0FAA3E0F9E475F00112176A90E3
:1035A7000280A3E025E0FFA3E0FBA3E475F001128E
:1035B7001729A9F0FAEF1216CD90027BE0FBA3E0E2
:1035C700FAA3E0F9E475F00112176A900282E0FBB2
:1035D700A3E0FAA3E0F990027EE0FCA3E0FDA3E0FC
:1035E700FFA3E090028FCFF0A3EFF0E4A3F012293E
:1035F7000AEF600A124D10900285EFF080269002C4
:1036070081E025E0FF900280E033FE90027BE0FB43
:10361700A3E0FAA3E0F9EE8FF012176A8006900292
:0A362700857403F0900285E0FF2295
:1022D800900278EBF0A3EAF0A3E9F0E4900289F029
:1022E80090027BE0FBA3E0FAA3E0F912173FC39446
:1022F8000AE5F0940050030224F9900278E0FBA369
:10230800E0FAA3E0F99000011216A090027EF0A373
:10231800E4F09000021216A0FF90027EE0F0A3E025
:102328004FF0E004F0700690027EE004F0900003A5
:102338001216A0900280F0A3E4F09000041216A0F8
:10234800FF900280E0F0A3E04FF09000051216A085
:10235800900282F0A3E4F09000061216A0FF90020B
:1023680082E0F0A3E04FF0E004F07006900282E013
:1023780004F09000071216A0900284F0A3E4F090F5
:1023880000081216A0FF900284E0F0A3E04FF0903E
:1023980000091216A0FD900280E0FEA3E0FFC3949E
:1023A80001EE940050030224F3D3EF947DEE9400E1
:1023B80040030224F3900284E0FEA3E0FFC39401EB
:1023C800EE940050030224F3D3EF9479EE94004086
:1023D800030224F3EF25E0FFEE33FEED6F7001EE0C
:1023E80060030224F3900278E0FBA3E0FAA3E02460
:1023F8000AF9E43AFA900282E0FCA3E0FDA3E0FFC8
:10240800A3E090028FCFF0A3EFF0A37401F012299C
:102418000AAD07ED60030224E5900278E0F9A3E035
:10242800FAA3E0900286C9F0A3EAF0A3E9F09002CB
:102438007BE0FBA3E0FAA3E0F9E4F5F01217A29021
:102448000286E0FBA3E475F001121729A9F0FA74DB
:10245800171216CD90027BE0FBA3E0FAA3E0F9E4A3
:1024680075F00112176A900280A3E025E0FF900240
:1024780086E0FBA3E475F001121729A9F0FAEF1220
:1024880016CD90027BE0FBA3E0FAA3E0F9E475F037
:102498000112176A900286E0FBA3E0FAA3E0F99024
:1024A800027EE0FCA3E0FDA3E0FFA3E090028FCF53
:1024B800F0A3EFF0E4A3F012290AAD07ED701E9027
:1024C8000281E025E0FF900280E033FE90027BE08D
:1024D800FBA3E0FAA3E0F9EE8FF012176AED6011A2
:1024E800FF124D10900289EFF08006900289740364
:0724F800F0900289E0FF22D1
:10378A009002F0EBF0A3EAF0A3E9F09002F6E0FF72
:10379A009002FDE4F0A3EFF0EDAE047803CEC3137C
:1037AA00CE13D8F9FF9002FBEEF0A3EFF09002FBE4
:1037BA00E0FEA3E07803C333CE33CED8F9FFC3EDDE
:1037CA009FFFEC9E9002FDE0FEA3E0A8070880059B
:1037DA00C333CE33CED8F9F0EE9002FDF09002F565
:1037EA00E0FF74017E00A807088005C333CE33CEFC
:1037FA00D8F924FFFFEE34FF9002F9F0A3EFF0A30B
:10380A00A3E075F008A4FFC3ED9FFF9002F9E0FE64
:10381A00A3E0A807088005C333CE33CED8F9F0EE6B
:10382A009002F9F09002F0E0FBA3E0FAA3E0F9902D
:10383A0002FBE0FEA3E0F5828E831216A0FF90023F
:10384A00F7E4F0A3EFF09002FCE02401FF9002FB02
:10385A00E034008F82F5831216A0FE9002F7E04E44
:10386A00F0A3E0F0A3E0FEA3E0F4FFEEF4FE900282
:10387A00F7E05EFEA3E05FFF9002FDE04EFEA3E0EC
:10388A004FFF9002F7EEF0A3EFF09002FBE0FCA3EB
:10389A00E0FDF5828C83EF1216DF9002F7E08D824D
:0638AA008C83A30216DF6F
:103BB8009002FFEBF0A3EAF0A3E9F0EDAE0478037E
:103BC800CEC313CE13D8F9FF900309EEF0A3EFF09C
:103BD800900309E0FEA3E07803C333CE33CED8F9CF
:103BE800FFC3ED9FFFEC9E90030BF0A3EFF0900353
:103BF80004E0FF74017E00A807088005C333CE33B4
:103C0800CED8F924FFFFEE34FF900307F0A3EFF0BE
:103C18009002FFE0FBA3E0FAA3E0F9900309E0FEBD
:103C2800A3E0F5828E831216A0FF900305E4F0A3AB
:103C3800EFF090030AE02401FF900309E034008FBD
:103C480082F5831216A0FE900305E04EF0A3E0F083
:103C580090030BA3E0FF900305E0FEA3E0A807088C
:103C68008005CEC313CE13D8F9FF900305EEF0A359
:103C7800EFF0A3E05EFEA3E05FFF900305EEF0A384
:033C8800EFF02238
:104D1000EF14600C24FA600C2407700CE4FE800A87
:0D4D20007E0280067E0680027E04AF062221
:10335900900278EBF0A3EAF0A3E9F0E4900285F09B
:1033690090027BE0FBA3E0FAA3E0F912173F6405A2
:1033790045F060030234BB900278E0FBA3E0FAA3B6
:10338900E0F99000011216A090027EF0A3E4F090FB
:1033990000021216A0FF90027EE0F0A3E04FF0E0D9
:1033A90004F0700690027EE004F09000031216A06B
:1033B900900280F0A3E4F09000041216A0FF90029E
:1033C90080E0FEA3E04FFF900280EEF0FEA3EFF055
:1033D900C39401EE940050030234BBE0947D900243
:1033E90080E0940040030234BB900278E0F9A3E046
:1033F900FAA3E0900282C9F0A3EAF0A3E9F09002EF
:103409007BE0FBA3E0FAA3E0F9E4F5F01217A29040
:103419000282E0FBA3E475F001121729A9F0FA74FE
:10342900041216CD90027BE0FBA3E0FAA3E0F9E4D5
:1034390075F00112176A900280A3E025E0FFA3E06E
:10344900FBA3E475F001121729A9F0FAEF1216CDC2
:1034590090027BE0FBA3E0FAA3E0F9E475F0011226
:10346900176A900282E0FBA3E0FAA3E0F990027EDA
:10347900E0FCA3E0FDA3E0FFA3E090028BCFF0A363
:10348900EFF0123631EF600A124D10900285EFF01D
:103499008026900281E025E0FF900280E033FE90D3
:1034A900027BE0FBA3E0FAA3E0F9EE8FF012176AC2
:0E34B90080069002857403F0900285E0FF22E9
:10213D00EFD3940F40037FFF2274732F2FF8E62007
:10214D00E5F4C2AFE64430F6D2AFAE0CEEC39F500D
:10215D00210E74922EF8E6F908E618BE0F0274FFF0
:10216D00FDED69600909E71919F7090980F31616DC
:10217D0080DAEED39F400405810581EED39F402286
:10218D0074922EF808E6F9EEB50C02A98118060630
:10219D00E6FDED6960091919E70909F71980F31EC4
:1021AD0080D9EF2492F8E604F8EF2F04904CB59304
:0921BD00F608EF2F93F67F0022D3
:1021C600EFD3940F40037FFF22EF232473F8E6300A
:1021D600E5F4C2AFE6548CF6D2AFE50CB5070A7447
:1021E600922FF8E6F581022069502E74932FF8E6B7
:1021F600BF0F0274FFFD18E6F974922FF8FBE6FC98
:10220600E96C6008A805E7F61D1980F4A803A60581
:102216001FE50CB507E37F002274932FF8E6FD183F
:1022260086010F74922FF8A601088604E50CB507FF
:1022360002AC81ED6C60080D09A805E6F780F4E5AF
:092246000CB507DE89817F00223E
:10224F00EFD3940F40037FFF22EF232473F8C2AF25
:10225F00E630E50530E002D2E4D2E2C6D2AF7F002D
:07226F0030E2010F022066BE
:03227600AF0C2288
:102279008FF0E4FFFEE50C232472F8C2A930F70DB4
:102289007F08E6600B2DF660325030800730F1068A
:10229900EDF660277E020830F010C2AFE610E725A0
:1022A9000E30E20CD2AF7F048014C2AFE610E715FE
:1022B90054EC4EF6D2AFD2A90220697F0808EF4448
:0F22C90083F4C2AF56C6D2AFD2A954804FFF22C2
:1041D500022103E493A3F8E493A34003F68001F2DC
:1041E50008DFF48029E493A3F85407240CC8C333EB
:1041F500C4540F4420C8834004F456800146F6DFBA
:10420500E4800B01020408102040809031EAE47E2E
:10421500019360BCA3FF543F30E509541FFEE493AE
:10422500A360010ECF54C025E060A840B8E493A375
:10423500FAE493A3F8E493A3C8C582C8CAC583CAA0
:10424500F0A3C8C582C8CAC583CADFE9DEE780BE58
:013358000074
:10166500C2D530F707B2D563F0FF05F030E70CB20D
:10167500D5F4048463F0FF05F080018430D502F4CD
:0216850004223D
:10168700BB010689828A83E0225002E722BBFE0261
:09169700E32289828A83E4932294
:1016A000BB010CE58229F582E5833AF583E02250FF
:1016B00006E92582F8E622BBFE06E92582F8E22249
:0D16C000E58229F582E5833AF583E4932263
:1016CD00BB010689828A83F0225002F722BBFE01FC
:0216DD00F322F6
:1016DF00F8BB010DE58229F582E5833AF583E8F041
:1016EF00225006E92582C8F622BBFE05E92582C8ED
:0216FF00F222D5
:10170100EF8DF0A4A8F0CF8CF0A428CE8DF0A42EFC
:02171100FE22B6
:10171300C5F0F8A3E028F0C5F0F8E5821582700261
:061723001583E038F022FE
:10172900A3F8E0C5F025F0F0E58215827002158373
:06173900E0C838F0E822D0
:10173F00BB010A89828A83E0F5F0A3E02250068775
:10174F00F009E71922BBFE07E3F5F009E319228937
:0B175F00828A83E493F5F0740193226A
:10176A00BB010789828A83021713500B09C5F02728
:10177A00F7C5F01937F722BBFE0D09F8E325F0F398
:10178A00C5F019E338F322F889828A837401932514
:08179A00F0C5F0F8E4933822D9
:1017A200BB010A89828A83F0E5F0A3F0225006F792
:0F17B20009A7F01922BBFE06F3E5F009F319228F
:1017C10075F008758200EF2FFFEE33FECD33CDCCDF
:1017D10033CCC58233C5829BED9AEC99E582984062
:1017E1000CF582EE9BFEED9AFDEC99FC0FD5F0D63F
:1017F100E4CEFBE4CDFAE4CCF9A88222B800C1B969
:101801000059BA002DEC8BF084CFCECDFCE5F0CBA6
:10181100F97818EF2FFFEE33FEED33FDEC33FCEBDF
:1018210033FB10D703994004EB99FB0FD8E5E4F99A
:10183100FA227818EF2FFFEE33FEED33FDEC33FC87
:10184100C933C910D7059BE99A4007EC9BFCE99A7B
:10185100F90FD8E0E4C9FAE4CCFB2275F010EF2FC0
:10186100FFEE33FEED33FDCC33CCC833C810D707C0
:101871009BEC9AE899400AED9BFDEC9AFCE899F8FB
:0E1881000FD5F0DAE4CDFBE4CCFAE4C8F9228E
:10188F00EB9FF5F0EA9E42F0E99D42F0E89C45F0AF
:01189F002226
:1018A000E8600FECC313FCED13FDEE13FEEF13FF26
:0318B000D8F1224A
:1018B300E8600FEFC333FFEE33FEED33FDEC33FC93
:0318C300D8F12237
:0C18C600ECF0A3EDF0A3EEF0A3EFF02295
:1018D200A8828583F0D083D0821218E91218E91207
:1018E20018E91218E9E473E493A3C583C5F0C5832C
:1018F200C8C582C8F0A3C583C5F0C583C8C582C860
:0119020022C2
:10190300BB011A89828A83D0F0D0E0F8D0E0F9D005
:10191300E0FAD0E0FBE8C0E0C0F00219A55016E9F8
:10192300F8D083D082D0E0F9D0E0FAD0E0FBC082D7
:10193300C083021985BBFE16E9F8D083D082D0E0BC
:0F194300F9D0E0FAD0E0FBC082C0830219AE22D7
:061952008A838982E47320
:10195800EC8EF0A4CCC5F0CCCDF8EFA4CEC5F02D1C
:10196800FDE43CFCE8A42EC8C5F03DFDE43CFCEFDA
:0D197800A4FFE5F028FEE43DFDE43CFC2268
:1019DD00E5452448F582E43402F583E0054522907F
:1019ED000245307503900248E475F00112198E021C
:1019FD001687206EE97F2ED26E8018EF540F24903B
:101A0D00D43440D4FF30720BEF24BFB41A0050030E
:101A1D002461FFE546600215460549E5497002055A
:101A2D004830750E900245E475F00112198EEF02E3
:101A3D0016CD02467B7403D2758003E4C275F5455D
:101A4D009002451219A5E4F546F548F549E54660BD
:101A5D00077F20121A2080F57547FFC26FC26EC234
:101A6D0070C271C273C274C2761219ECFF700D3060
:101A7D0075057F00121A31AF49AE4822B4255FC2F9
:101A8D00D5C2721219ECFF24D0B40A00501A75F0A9
:101A9D000A784630D50508B6FF0106C6A426F620FD
:101AAD00D5047002D27180D924CFB41A00EF50043E
:101ABD00C2E5D272021C32D26F80C6D26E80C0D205
:101ACD007080BCD2D580BAD27380B47F20121A2018
:101ADD002070077401B5460040F11219DDFF121A8E
:101AED0020021A5AD276D27480951219DDFB121982
:101AFD00DDFA1219DDF94A4B700679037A1D7BFF69
:101B0D0020702EE546602A7E008E827583001216A7
:101B1D00A060060EEE654770F0C2D5EBC0E0EAC0DE
:101B2D00E0E9C0E0EE121C79D0E0F9D0E0FAD0E0A7
:101B3D00FB121687FF60AAEBC0E0EAC0E0E9C0E047
:101B4D00121A20D0E02401F9D0E03400FAD0E0FBE5
:101B5D00E5470460DCD547D980877BFF7A1C797512
:101B6D00D270809C791080027908C274C276800888
:101B7D00D2D5790A8004790AC2D5E547047002F5F9
:101B8D0047E4FAFDFEFF1219DDFC7B08206F1312EE
:101B9D0019DDFD7B10306E0A1219DDFE1219DDFF05
:101BAD007B20EC3382D592D55013C3E4306E069F63
:101BBD00FFE49EFEE4206F039DFDE49CFCE4CBF866
:101BCD00C26FEC700CCFCECDCCE824F8F870F3805A
:101BDD0017C3EF33FFEE33FEED33FDEC33FCEB3388
:101BED00FB994002FB0FD8E9EB306F05F8D0E0C44C
:101BFD0048B26FC0E00AEC4D4E4F78207B0070C2AA
:101C0D00EAB5470040BCC0E0121C7BD0F0D0E0200C
:101C1D006F04C4C0E0C4B26FC0F0121A09D0F0D581
:101C2D00F0EB021A5A1219B71AF7531B71581AC84A
:101C3D004C1AC4421B754F1B7D441B7D491ADD4355
:081C4D001B83551B67461B6752
:101C5500451B67471D23501ACC2D1AD02E1AF32B7E
:101C65001AD4231AF1201D0C2A1A8C4800001AEBED
:101C75003F3F3F00790AA2D5207114307309B9108E
:101C8500020404B9080104A2D520740250010420FD
:101C950070689270B546005034C0E07F20307119ED
:101CA5007F30A27072747273500F121CD2C270C250
:101CB50074C273C2767F30800F307303E9C0E012BF
:101CC5001A20307303D0E0F9D0E0B546CC30731755
:101CD5007F30B9100C121A207F583072077F788038
:101CE50003B90803121A203070057F2D021A207FD0
:101CF500202076F87F2B2074F322927080CF286EF7
:101D0500756C6C2900D26F1219DD306FF8C26F78CF
:101D15004630D50108F6021A8C2D50434958121940
:101D2500DD2403B405004001E4901D1E93121A1131
:0D1D3500743A121A11D271754604021B7126
:09198500EBF608EAF608E9F62287
:10198E00F8E0FBA3A3E0F925F0F0E58215827002E2
:07199E001583E0FA38F02286
:0919A500EBF0A3EAF0A3E9F02243
:0919AE00EBF208EAF208E9F2226A
:1019B700D083D082F8E4937012740193700DA3A3BF
:1019C70093F8740193F5828883E4737402936860D3
:0619D700EFA3A3A380DFD3
:00000001FF
