:024CFF00406D06
:024D010041A0CF
:024D0300004668
:024D05003AFD75
:024D07001D5538
:024D090038EA86
:024D0B0010EDA9
:024D0D0009ECAF
:024D0F002EE88C
:024D11002D0271
:024D13003BF271
:024D1500445404
:024D1700469EB6
:024D1900490F40
:024D1B00464808
:024D1D003D9FB8
:0300000002423782
:0C423700787FE4F6D8FD7581A102427E7C
:104D95002A2A2D0073746172746564210A002A2A17
:0B4DA5002E002A2A5028256C752900DA
:10321E00420194000142016E00014101D7F360406A
:10322E0001290A050303050A0328010023000304EC
:10323E00140F0F1A010501006401040407030A0AA2
:10324E000F0F030F14010000140A010003141405DC
:10325E000200001414000000000000000000000036
:10326E0000AAC14BC14AC14CC148C149C1D8420193
:10327E0075000041012300420192000042019000BE
:10328E00004201DC00004201DA00004201D80000D9
:10329E004101D600420125000042012700004101F4
:1032AE002400C180C181C104C105C106C107C10886
:1032BE00C10AC10DC10FC110C112C113C115C11771
:1032CE00C118C11AC11DC11EC1A0C1A2C1A4C1A6EF
:1032DE00C128C12AC12CC12EC12FC131C132C1B4E6
:1032EE00C1B6C137C1394101090041010A0041018E
:1032FE000B0042010C000041010E0041010F004184
:10330E00011000410111004201120000420114009F
:10331E0000420116000041011800C13BC13C4101B1
:10332E001900C13DC13EC13F45011A000000000019
:04333E0041011F002A
:10406D0012291D7F091221507D0A7F0212228C7F99
:10407D00031221507D0A7F0212228C7F04122150DF
:10408D007D0A7F0212228C7F051221507D0A7F024C
:10409D0012228C7F061221507D0A7F0212228C7F04
:1040AD00071221507D0A7F0212228C7F08122150A7
:1040BD007D0A7F0212228C7F0A1221507D0A7F0217
:1040CD0012228C7F0F1221507D0A7F0212228C90BA
:1040DD000124E0700F7D647F0212228C90016D74BB
:1040ED0061F080EBE490016DF07F021221507DFABA
:0A40FD007F0212228CE4FF0221D999
:10291D00124D1FE490016DF0900177F0A3F0A3F03C
:10292D00A3F0A3F0A3F0900121F0A3F0900120F00B
:10293D00900170F0C255C253C24190016BF0A3F0EB
:10294D0090018EF0A3F0C24DC24FC24EC244C240A0
:10295D00C257D254C243C252C247124ADD7D647F70
:10296D000212228C7D647F0212228C7D647F021202
:10297D00228C7D647F0212228C7D647F0212228C58
:10298D009001FA1218E500000000E47F02FEFDFC44
:10299D009001FAE0F8A3E0F9A3E0FAA3E0FBC3127B
:1029AD0018A25068E49001F9F09001F9E0FFC364BA
:1029BD00809488500B74382FF8E4F6E004F080E929
:1029CD00E49001F9F09001F9E0FFC3648094905018
:1029DD0019EF3395E0FE747D2FF58274013EF5837A
:1029ED00E4F09001F9E004F080DB9001FAE0FCA343
:1029FD00E0FDA3E0FEA3E02401FFE43EFEE43DFD87
:102A0D00E43CFC9001FA1218D90229977F04124870
:102A1D00E87F01124C5F124ADDC245E49001F9F0E6
:102A2D009001F9E0FFC3648094C05025EF3395E029
:102A3D00FE124DB09001F9E0FD3395E0FC74962D3A
:102A4D00F58274013CF583EFF09001F9E004F0801C
:102A5D00CF1248337F017E02124DB0E4FCFDFE78AB
:102A6D00101218C6C004C005C006C0077F007E0244
:102A7D00124DB0E4FCFDFE78181218C6D003D0023A
:102A8D00D001D000EF2BFFEE3AFEED39FDEC38FC16
:102A9D00C004C005C006C0077402FFFE124DB0E4AD
:102AAD00FCFDFE78081218C6D003D002D001D0006C
:102ABD00EB2FFFEA3EFEE93DFDE83CFCC004C005FE
:102ACD00C006C0077F037E02124DB0E4FCFDFED0B0
:102ADD0003D002D001D000EB2FFFEE3AFEED39FD11
:102AED00EC38FC9001711218D9E53330E21230E365
:102AFD000FE53530E30A9001711218E50000000072
:052B0D007F2E0248E8E4
:100046007D647F0212228C124833124ADD7D017FC5
:100056000212228CE53F20E7EEE530139221E530CF
:10006600A2E19202A2E4920330033220052FE53783
:1000760030E0079001D4E04401F07F30124B41504C
:10008600079001D4E054FEF0D25674C612452BE513
:100096003030E4097DC87F0212228C80F230212E96
:1000A60030202B30021130040E20000B20030820D4
:1000B6000505124744803230032F30052C200129D4
:1000C60020022620042390016D74C6F0801820219A
:1000D6001820201590016DE0FF6005D3946440065A
:1000E60090016D7463F012452F300205300402D280
:1000F60000200205200402C200300305300502D2AA
:1001060001200305200502C201A2219220A202922B
:1001160004A2039205E53130E6057F13124C5F9089
:10012600016DE06005C3946440077F06124C5F8052
:100136000E90016DE0C3946450057F061248E89066
:100146000178E07002A3E0600E900179E024FFF0F0
:10015600900178E034FFF090017AE0600214F090AC
:10016600017BE07002A3E0600E90017CE024FFF0CA
:1001760090017BE034FFF0900122E0600214F090E1
:100186000121E07F03600B1248E8900121E014F0A2
:100196008003124C5F900177E07F18600B1248E8ED
:1001A600900177E014F08003124C5FE53230E41AD8
:1001B60030E5179001C2E075F00AA4FF900178E5DA
:1001C600F0F0A3EFF07F23124C5FE53030E30B2015
:1001D60006082053057F01122150E530A2E392065E
:1001E600E53230E3142007119001B4E075F00AA45B
:1001F60090017AF07F24124C5FE532A2E39207A2C7
:10020600E4921F301F15201E129001C1E075F00AFE
:10021600A4FF900175E5F0F0A3EFF0900175E07092
:1002260002A3E0600E900176E024FFF0900175E0F5
:1002360034FFF0A21F921EE534A2E39214A24A9262
:10024600333033342032319001D4E030E02A301498
:10025600149001C8E075F00AA4FF900114E5F0F0CF
:10026600A3EFF080137F301248E8D248900125743E
:1002760001F0A3742CF0C24CA2339232E53030E583
:1002860002D255E53530E42B200A28305525900159
:10029600B5E075F00AA4900177F09001A0E075F042
:1002A6000AA4FF90017BE5F0F0A3EFF07F25124C46
:1002B6005FC255E535A2E4920AE533A2E2923830F0
:1002C600380C20370990016DE0B47E02E4F0A238C4
:1002D6009237E533A2E3923A303A0C20390990017D
:1002E6006DE0B47F02E4F0A23A9239E534A2E192DD
:1002F6001B301B21201A1E900111E070189001B2CC
:10030600E075F00AA4FF900192E5F0F0A3EFF090FB
:10031600011174FAF0900111E0600214F09001925C
:10032600E07002A3E0600E900193E024FFF09001DC
:1003360092E034FFF0900192E07004A3E064017053
:10034600107F321248E87F27124C5F90010F7432FB
:10035600F090010FE0600214F090010FE0B4010B81
:100366007F331248E89001107464F0900110E06049
:100376000214F0900110E0B4010B7F32124C5F9032
:10038600010E741EF090010EE0600214F090010E52
:10039600E0B4010A7F271248E87F33124C5FA21BA4
:1003A600921AE534A2E2921130111B301018201275
:1003B6001590016DE0FF6005C39464400690016DE1
:1003C6007422F012452F301105301002D21220117E
:1003D60005201002C212A2119210A21D921CE53431
:1003E600A2E3921430142C2013299001C9E0700561
:1003F6001248C8801E9001D4E04401F0C24C304A35
:10040600129001C8E075F00AA4FF900114E5F0F01F
:10041600A3EFF0A2149213900123E06401702F7FE2
:1004260029124B41500F7F29124C5F9001C5E09075
:100436000123F080199001D6E060137F291248E865
:100446009001C5E0900123F09001D6E014F09001F0
:1004560023E0600214F0E535A2E6923520352D2022
:10046600342A3036279001CBE075F064A4FF900162
:1004760012E5F0F0A3EFF090016DE0FF6005C39484
:1004860064400690016D742EF012452F303505300C
:100496003402D236203505203402C236A2359234D3
:1004A600900112E07002A3E0600E900113E024FFB9
:1004B600F0900112E034FFF0900112E07004A3E026
:1004C600640170057F0B1248E8E536139216301664
:1004D6003330153020172D7F30124B415026C2483D
:1004E6009001D4E054FEF0C24C9001C7E075F00ACA
:1004F600A4FF900116E5F0F0A3EFF09001C9E060CB
:10050600031248C8301605301502D21720160520EA
:100516001502C217A2169215E536A2E192193019F4
:1005260005201802C249A2199218E536A2E29223C2
:10053600A2E39225A2E49227A2E59229A2E6922BB3
:1005460020231820221590016DE0FF6005C39464F6
:10055600400690016D7432F012452F202518202494
:100566001590016DE0FF6005C39464400690016D2F
:100576007433F012452F20271820261590016DE0C0
:10058600FF6005C39464400690016D7434F0124513
:100596002F30291830281590016DE0FF6005C394AF
:1005A60064400690016D7435F012452F302B1830DB
:1005B6002A1590016DE0FF6005C394644006900122
:1005C6006D7436F012452FA2239222A2259224A200
:1005D600279226A2299228A22B922AE53633922D1B
:1005E600E537A2E19230302D3E302C3B202E3820CC
:1005F6003035900118E0B4392EE49001DAF0A3F01A
:100606007F35124C5F90016D7437F012452F9001C3
:10061600ACE075F064A4FF9001D8E5F0F0A3EFF02C
:10062600E4900118F0800C202D09302C069001185A
:100636007437F0202D05202C02C22E302D05302CCB
:1006460002D22EA22D922CE537A2E1923030303E16
:10065600302F3B203138202D35900118E0B4372E4D
:10066600E49001D8F0A3F07F34124C5F90016D74D2
:1006760039F012452F9001ACE075F064A4FF9001AB
:10068600DAE5F0F0A3EFF0E4900118F0800C2030EA
:1006960009302F069001187439F0203005202F02FA
:1006A600C231303005302F02D231A230922F900164
:1006B600C9E060077F17304C0C80057F17304A056C
:1006C6001248E88003124C5F9001DAE07002A3E062
:1006D600601A7F34124C5F7F351248E89001DBE0E8
:1006E60024FFF09001DAE034FFF080057F35124CEC
:1006F6005F9001D8E07002A3E0601A7F35124C5F6C
:100706007F341248E89001D9E024FFF09001D8E048
:1007160034FFF080057F34124C5F9001D4E020E076
:1007260007E53630E102D24CE53630E10B90016D3B
:10073600E0B49516E4F0801290016DE0700C900123
:10074600C9E0600690016D7495F0900114E07004A4
:10075600A3E0640170137F301248E8D24890012567
:100766007401F0A3742CF0C24C900114E07002A343
:10077600E0600E900115E024FFF0900114E034FFD4
:10078600F0900116E07004A3E0640170117F30124E
:100796004C5FD2499001277401F0A3742CF09001AC
:1007A60016E07002A3E0600E900117E024FFF090BF
:1007B6000116E034FFF0900125E07004A3E0640127
:1007C600700C30480990016D7430F012452F90017D
:1007D60025E07002A3E0600E900126E024FFF09071
:1007E6000125E034FFF0900127E07004A3E06401E6
:1007F600701230490F9001C9E0600990016D7431A3
:10080600F012452F900127E07002A3E0600E9001E0
:1008160028E024FFF0900127E034FFF0E535A2E35D
:10082600920BE534A2E5920C7F1A124B41503A30F6
:100836000B3720083490019DE070077F281248E8A6
:10084600800890019DE0900109F07F051248E8902C
:1008560001A7E0700204F09001A7E075F00AA4FF7A
:1008660090010CE5F0F0A3EFF090010CE07004A30A
:10087600E06401701E900109F07F28124C5F900120
:10088600AAE070077F05124C5F80089001AAE090ED
:10089600010AF090016BE07002A3E0600E90016C1B
:1008A600E024FFF090016BE034FFF0900109E0B422
:1008B60001057F281248E890010AE0B401057F058A
:1008C600124C5F900109E0600214F090010AE060AA
:1008D6000214F090010CE07002A3E0600E90010D8E
:1008E600E024FFF090010CE034FFF090018DE0B4BD
:1008F60001057F2A124C5F90018DE0600214F09092
:10090600018EE0B401167F2B124C5F7F2C1248E853
:100916009001B0E075F00AA490018FF090018EE08E
:10092600600214F090018FE0B401057F2C124C5F39
:1009360090018FE0600214F09001DCE07002A3E009
:1009460060109001DDE024FFF09001DCE034FFF060
:1009560080057F2F124C5FA20B9208A20C9209E52C
:1009660035A2E5920E300E12300D0F200F0C9001BD
:100976009FE075F00AA490010BF0200E05200D02F1
:10098600C20F300E05300D02D20F90010BE064014C
:10099600703B90016DE0FF6005D3946440069001C2
:1009A6006D742DF012452F124C5B7F1F124C5F7F2A
:1009B60020124C5F7F23124C5FE53720E2057F242F
:1009C600124C5F7F25124C5F7F27124C5F90010B04
:1009D600E0600214F0A20E920DE53520E20302005B
:0609E6004DD24202004D5B
:1041A000E4900206F0D2539001B2E075F00AA4FD4B
:1041B0007F0212228C9001B3E075F00AA42401FE64
:1041C000E435F0900178F0A3CEF07F23124C5F121B
:1041D0004833E53230E40E9001C1E075F00AA4FFE7
:1041E0009001758024E4900175F0A3F0900175E0D2
:1041F0007002A3E0601B7D0A7F0212228C9001B343
:10420000E075F00AA4FF900178E5F0F0A3EFF080EC
:10421000DB7F021248E89001B3E075F00AA4FD7F4D
:104220000212228C7F02124C5FE4900178F0A3F01E
:07423000C2537F010221D9F6
:103AFD00124833124ADDE53F30E703023BE820452B
:103B0D0003023BE8E53120E103023BE890018074BC
:103B1D0001F0E53020E614D23B7D0A7F0212228CA3
:103B2D0090016DE070EC746AF080E7900180740292
:103B3D00F0303B187DFAFF12228C7DFA7F021222A3
:103B4D008CC23B90016DE0B46A02E4F03045A19067
:103B5D0001807403F0E53030E703023BE8E53130D6
:103B6D00E279E4900208F07D0A7F0212228CE530A2
:103B7D0020E706900208E004F07D0A7F0212228CF5
:103B8D00E53020E706900208E004F07D0A7F02127E
:103B9D00228CE53020E706900208E004F090020840
:103BAD00E0C39402400AE53030E6057F071248E88D
:103BBD00E4900208F07D0A7F0212228C900208E048
:103BCD0004F0E0C3942840ED7F07124C5FE53020F0
:103BDD00E70990016DE07003746BF07D027F0212B6
:053BED00228C023AFDEC
:101D5500124833124ADDE53F30E7030220242045CF
:101D650003022020203C03021FBA9001817401F078
:101D7500E53120E1127D057F0212228C90016DE094
:101D850070EE746DF080E990016DE0B46D02E4F0E1
:101D9500E53120E2127D057F0212228C90016DE073
:101DA50070EE746EF080E990016DE0B46E02E4F0BF
:101DB500E53020E7147D057F0212228CD25D90016B
:101DC5006DE070EC746BF080E790016DE0B46B0230
:101DD500E4F0305D097D647F0212228CC25D2045EE
:101DE500097D057F0212228C80F47D327F0212224A
:101DF5008C7F0A1248E87F221248E8900197E07527
:101E0500F00AA4FD7F0212228C7F0C1248E87F0C99
:101E15001221507F0A124C5F7D147F0212228C9092
:101E250001817403F0E490020AF0E53120E34A7D74
:101E3500017F0212228C900197E0FF9001A5E0C37B
:101E45009FFFE49400FE7C007D0A12171490020A9D
:101E5500E004F0C39FEE6480F874809840CC900154
:101E65006DE06005D39464400690016D740BF07FBE
:101E750022124C5F12452F80B17F22124C5F7D01EB
:101E85007F0212228CE490020AF0E53120E1127DF6
:101E9500017F0212228C90016DE070EE746DF0806E
:101EA500E990016DE0B46D02E4F07F0C124C5F9097
:101EB50001C3E075F00AA4900121F07F0C1221D92D
:101EC5007F0D1248E87F0D122150900198E075F0C2
:101ED5000AA4FD7F0212228C7F0112228C20450963
:101EE5007D057F0212228C80F47F211248E8900143
:101EF500817404F0E490020AF0E53120E23E7D01B0
:101F05007F0212228C9001A6E075F00AA4FFAEF0C4
:101F150090020AE004F0C39FEE6480F87480984054
:101F2500D890016DE06005D39464400690016D740E
:101F35000AF07F21124C5F12452F80BD90016DE0A4
:101F4500B46E02E4F07F21124C5F9001817405F0BC
:101F5500E490020AF0E53130E0107D02800520456D
:101F6500F47D057F0212228C80F4E53130E0030216
:101F750020207F08124B4150030220207F0D124C78
:101F85005F7F0D1221D97D027F0212228C7F0E12F6
:101F950048E89001A9E075F00AA4FD7F0212228CA1
:101FA5007F0E124C5F2040047F0580027F041222C1
:101FB50062C2408066E4900181F090020AF07F21C0
:101FC5001248E8E53120E23E7D017F0212228C9025
:101FD50001A6E075F00AA4FFAEF090020AE004F055
:101FE500C39FEE6480F874809840D890016DE060DE
:101FF50005D39464400690016D740AF07F21124C5C
:102005005F12452F80BD90016DE0B46E02E4F07F54
:1020150021124C5F7D017F0212228CA245923C7DEC
:09202500027F0212228C021D55FB
:1038EA00E4900182F07F0F1248E8124ADD7DFA7FE8
:1038FA000212228C7DFA7F0212228C7F0F124C5FF9
:10390A00124ADD7F04122262124833124ADD204530
:10391A00030239FA7F0112228C2045097D057F02B4
:10392A0012228C80F49001827401F0900199E07562
:10393A00F00AA4FD7F0212228C9001A8E0D3940021
:10394A004059E490020CF09001A8E014FF90020C98
:10395A00E0C39F502E7F091248E890019AE075F063
:10396A000AA4FD7F0212228C7F09124C5F90019AF1
:10397A00E075F00AA4FD7F0212228C90020CE0048A
:10398A00F080C47F091248E890019AE075F00AA411
:10399A00FD7F0212228C7F09124C5F900182740211
:1039AA00F0E490020DF0E53120E0057F081248E8C6
:1039BA007D2880052045097D057F0212228C80F42E
:1039CA00E53120E0117F081248E87D017F021222CA
:1039DA008C12483380EA7F08124C5F124ADD90014C
:1039EA00827403F07D027F0212228C7F041222620B
:0A39FA007D027F0212228C023912B6
:102D0200124833124ADD204503022EDE7D027F0285
:102D120012228C124833E53130E62B30E028E532BE
:102D220030E023205720900122E0701A90016DE0DC
:102D3200FF6472600AEF646C6005EF64747033E4E0
:102D420090016DF0802C90016DE07008E53120E675
:102D5200037472F090016DE07008E53120E00374B5
:102D62006CF090016DE070A4E53220E09F7474F085
:102D7200809A9001867402F07D05FF12228C7D02FA
:102D82007F0212228C124833E53130E62B30E028E4
:102D9200E53230E023205720900122E0701A9001A2
:102DA2006DE0FF6472600AEF646C6005EF6474703A
:102DB20033E490016DF0802C90016DE07008E531F4
:102DC20020E6037472F090016DE07008E53120E0B6
:102DD20003746CF090016DE070A4E53220E09F7402
:102DE20074F0809A2045097D027F0212228C80F4C1
:102DF2007F121248E8E490020FF0E53220E1297DCB
:102E0200017F0212228C90020FE004F0C394FA4078
:102E1200E990016DE0FF6005D39464400690016D76
:102E22007411F012452F80D29001867403F0E531BF
:102E320020E01D7F12124C5F90016DE0FF6005D310
:102E42009464400690016D7408F012452F022D0221
:102E52009001BFE075F00AA4FD7F0212228C7F1060
:102E62001248E87F0E12215090019CE075F00AA4EE
:102E7200FD7F0212228C7F12124C5FD25790018684
:102E82007404F0E490020FF0F0E53220E02E7D02AF
:102E92007F0212228C7F12124C5F90020FE004F02C
:102EA200D394FA40E490016DE0FF6005D39464404E
:102EB2000690016D7410F012452F80CD90016DE0E7
:102EC200B47402E4F07F061222622045097D027F7B
:102ED2000212228C80F49001867405F07D0A7F0232
:062EE20012228C022D02F9
:1010ED007F07122262124833124ADD204503021691
:1010FD006EE4900183F07F0112228C2045097D055D
:10110D007F0212228C80F49001837401F090018390
:10111D007402F0E53120E0127D027F0212228C90E4
:10112D00016DE070EE746CF080E9E53120E6177D1D
:10113D00017F0212228C900211E004F0C394FA4058
:10114D00E912452980E42045097D057F0212228C94
:10115D0080F42045097D057F0212228C80F4E53252
:10116D0020E0127D027F0212228C90016DE070EE64
:10117D007474F080E9E53330E1127D027F021222B2
:10118D008C90016DE070EE747DF080E9E53430E017
:10119D00127D027F0212228C90016DE070EE74843C
:1011AD00F080E9E53230E7127D027F0212228C9049
:1011BD00016DE070EE747BF080E9E53330E0127D77
:1011CD00027F0212228C90016DE070EE747CF08033
:1011DD00E92051127D017F0212228C90016DE07089
:1011ED00F0747EF080EB2057097D017F0212228C76
:1011FD0080F490016DE0FF646C6022EF6472601DFD
:10120D00EF64746018EF647D6013EF6484600EEF1B
:10121D00647B6009EF647C6004EFB47E05E49001AB
:10122D006DF02045097D057F0212228C80F4124855
:10123D0033E53120E00302111A20E60302111AE50D
:10124D003220E00302111A20510302111AE5333046
:10125D00E10302111AE53430E00302111AE53230D0
:10126D00E70302111AE53330E00302111A20570388
:10127D0002111A30E30302111A7F1A124B41400872
:10128D00E53320E20302111A9001837403F07F11FC
:10129D001248E8124ADDE53430E441900196E0FD54
:1012AD0075F00AA4FF900119E0C39FE5F06480F882
:1012BD007480984003ED70249001B7E090016AF0BE
:1012CD009001C4E0900169F0900119E004F0E0F0A4
:1012DD007F2C124C5F7F2D1248E88029E53420E4E5
:1012ED0005E4900119F09001A3E090016AF09001DE
:1012FD00ABE0900169F07F2B124C5F7F2C1248E818
:10130D007F2D124C5F9001837406F0E4900211F072
:10131D00E53120E7207D017F0212228C900211E041
:10132D0004F0C394FA40E990016D740FF07F11122F
:10133D004C5F12452FC257E53130E74730E6159027
:10134D00016DE0FF6005C39464400690016D740E5D
:10135D00F012452F7F0E1221D99001BBE075F00AD6
:10136D00A4FD7F0212228C90016DE06416600A7F4D
:10137D00161248E87F2A1248E8E53130E0057F066D
:10138D001222627D0F7F0212228C9001837407F06E
:10139D007F10124C5F7F141248E89001B1E075F098
:1013AD000AA4FD7F0212228C7F14124C5F7F111252
:1013BD004C5F900122741EF07F131248E890018358
:1013CD007408F0E53330E1297F151248E87F1612D5
:1013DD004C5F7F2F124C5F7F2A124C5F90016DE0A6
:1013ED00FF6005D39464403490016D7419F00214BC
:1013FD0083E53430E0287F151248E87F16124C5FE4
:10140D007F2F124C5F7F2A124C5F90016DE0FF60C1
:10141D0005D39464400690016D7420F08058E53238
:10142D0020E7287F151248E87F16124C5F7F2F1298
:10143D004C5F7F2A124C5F90016DE0FF6005D394E5
:10144D0064400690016D7417F0802BE53320E03F6A
:10145D007F151248E87F16124C5F7F2F124C5F7F6D
:10146D002A124C5F90016DE0FF6005D39464400635
:10147D0090016D7418F012452F9001BDE075F00AC2
:10148D00A4FD7F0212228C7F15124C5F02166ED2C4
:10149D004A9001B1E075F00AA4FD7F0212228C7F03
:1014AD00141248E8D246D2507D027F0212228C904F
:1014BD0001837409F0E4900211F09001C9E06027F6
:1014CD00E53620E0127D027F0212228C90016DE044
:1014DD0070EE7494F080E990016DE0B49402E4F044
:1014ED00E5361392618026E53420E3127D027F02FA
:1014FD0012228C90016DE070EE7487F080E99001FE
:10150D006DE0B48702E4F0E534A2E392612061035B
:10151D0002166E900183740AF0C24A90019BE07529
:10152D00F00AA4FD7F0212228C9001D3E004F0702A
:10153D00069001D2E004F0120022900171E0FCA3AC
:10154D00E0FDA3E0FEA3E02401FFE43EFEE43DFD4B
:10155D00E43CFC9001711218D9D258900124E0603E
:10156D000414F0802F90016D7461F012452F7BFFF4
:10157D007A4D7995121A5B7F071221D97D647F020E
:10158D0012228C7F021221D97D647F0212228C7F60
:10159D00061221D9E53330E304C2418002D24190D5
:1015AD0001ACE075F00AA490018DF0E4900211F009
:1015BD009001CCE09001D6F060137F291248E8909D
:1015CD0001C5E0900123F09001D6E014F0C2427FF6
:1015DD001C1248E89001AEE075F00AA4FD7F0212DE
:1015ED00228C7F1C124C5F9001AEE075F00AA4FDB9
:1015FD007F0212228C9001A4E0FF900211E004F012
:10160D00C39F50032042C6E4900123F07F29124C62
:10161D005FD24390016BE07002A3E060097D017F12
:10162D000212228C80ED900183740BF09001C9E0C1
:10163D00600EE53630E0177D0A7F0212228C80F2B3
:10164D00E53430E3097D0A7F0212228C80F22045B9
:10165D00097D057F0212228C80F47F07122262D24F
:0B166D00447D027F0212228C0210F26A
:0100220022BB
:1009EC00E4900184F090023BF0A3F0E53130E6088E
:1009FC0020E7057F1B1248E8E53320E34090016DAA
:100A0C00E07003747FF07D237F0212228C90023BF6
:100A1C00E475F001121726FED3E5F09464EE940011
:100A2C0040D690016DE06005D39464400690016D52
:100A3C00741BF07F1B124C5F12452F80BBE53330CB
:100A4C00E3107F1B124C5FC25190016DE0B47F022A
:100A5C00E4F0C250124833124ADD2045030210E381
:100A6C009001847401F0FF12228C2045097D057FD2
:100A7C000212228C80F4E490023BF0A3F0E53320C8
:100A8C00E34090016DE07003747FF07D027F0212F1
:100A9C00228C90023BE475F001121726FED3E5F090
:100AAC009496EE940040D690016DE06005D394646A
:100ABC00400690016D741BF07F1B124C5F12452F8A
:100ACC0080BB90016DE0B47F02E4F0C251E534309C
:100ADC00E4059001BA80039001B6E090023FF090DB
:100AEC000169E0FF90023FE0FDC39F50557F021269
:100AFC00228C9001847402F07F16124C5F7F2F12AF
:100B0C004C5F9001B7E0FF90016AE0B507117F2BB5
:100B1C001248E89001AFE075F00AA490018EF01233
:100B2C004ADD3044787F141248E890023FE0FF9091
:100B3C000169E0C39FFD7F0212228C7F191248E8E5
:100B4C0080583044177F141248E8900169E0FD7F0B
:100B5C000212228C7F191248E8124ADD900169E0DA
:100B6C00FF90023FE0C39FFD7F0212228C90018414
:100B7C007402F07F16124C5F7F2F124C5F9001B7FE
:100B8C00E0FF90016AE0B507117F2B1248E8900155
:100B9C00AFE075F00AA490018EF0124ADD90016A64
:100BAC00E075F00AA4FD7F0212228C7F14124C5FB8
:100BBC00C246124ADD9001847403F0E490023BF0CB
:100BCC00A3F0304444E53330E40320E53C7D027F60
:100BDC000212228C90016DE070037480F090023B45
:100BEC00E475F001121726FED3E5F094FAEE9400AA
:100BFC0040D390016DE0FF6005D3946440069001F2
:100C0C006D741CF012452F80BC9001ADE075F00A9C
:100C1C00A4FD7F0212228C9001847404F0E535202F
:100C2C00E11290016D745BF012452F7D0A7F021268
:100C3C00228C80E99001847405F0E53520E7129050
:100C4C00016D742FF012452F7D0A7F0212228C80C9
:100C5C00E99001847406F02045097D057F0212227B
:100C6C008C80F4E53530E51990016D742FF0124548
:100C7C002F7D0A80052045EB7D057F0212228C809A
:100C8C00F4E53120E6131245297D0A80052045F153
:100C9C007D057F0212228C80F4E53220E21990014E
:100CAC006D7412F012452F7D0A80052045EB7D05F1
:100CBC007F0212228C80F49001847407F07F1A1248
:100CCC0048E8C252124ADDE490023BF0A3F0E5354D
:100CDC0020E3347D017F0212228C12483390023BB8
:100CEC00E475F001121726FED3E5F094F4EE9401AE
:100CFC0040DC90016DE0FF6005D3946440069001E8
:100D0C006D742BF012452FE53530E3347D017F02F5
:100D1C0012228C12483390023BE475F00112172614
:100D2C00FED3E5F094C4EE940940DC90016DE0FF35
:100D3C006005D39464400690016D742BF012452F1E
:100D4C009001847408F02044187F151248E8900133
:100D5C00BDE075F00AA4FD7F0212228C7F15124CA7
:100D6C005FC2449001C0E0FD7F0212228CD251E49C
:100D7C0090023EF09001BCE0FF90023EE0C39F5019
:100D8C000F7D0A7F0212228C90023EE004F080E478
:100D9C007F19124C5F7D037F0212228CE490023B80
:100DAC00F0A3F0E53320E2787D027F0212228C90D2
:100DBC00023BE475F001121726FED3E5F09496EE93
:100DCC009400404990016DE0FF6005D394644006A7
:100DDC0090016D741AF0C24712452F7F1A124C5FA6
:100DEC007F19124C5F7F1E124C5F7F1F124C5F7F6E
:100DFC0020124C5F7F23124C5FE53720E2057F24E5
:100E0C00124C5F7F25124C5F7F27124C5F90016D57
:100E1C00E06005D39464408B90016D747EF0808308
:100E2C0090016DE0B47E02E4F09001847409F0E569
:100E3C003330E23B7F1A124C5F7F19124C5F304704
:100E4C002EE53420E52920E626124C5B7F1F124C40
:100E5C005F7F20124C5F7F23124C5FE53720E20549
:100E6C007F24124C5F7F25124C5F7F27124C5F90C2
:100E7C000184740AF02045097D057F0212228C80C2
:100E8C00F4E53320E63D7D017F0212228C90016D4A
:100E9C00E070037482F012483390023BE475F00169
:100EAC00121726FED3E5F094F4EE940140D3900192
:100EBC006DE0FF6005D39464400690016D741EF0E4
:100ECC0012452F90016DE0B48202E4F0900184741D
:100EDC000BF02050097D027F0212228C80F4E53148
:100EEC0020E6127D027F0212228C90016DE070EEE2
:100EFC007472F080E92052127D027F0212228C90D3
:100F0C00016DE070F07476F080EB90016DE0FF64A1
:100F1C0082600EEF64836009EF648D6004EFB4723D
:100F2C0005E490016DF02045097D057F0212228CAD
:100F3C0080F4E490023DF09001BEE090023DF0D2CE
:100F4C0043900184740CF0E53220E21990016D7429
:100F5C0012F012452F7D0A80052045EB7D057F029E
:100F6C0012228C80F4E53130E61EE53330E6193080
:100F7C00E71630E213305010E53120E70B30520801
:100F8C00E53230E203021020E53120E61190016DCC
:100F9C00E06005D39464400690016D7472F0E53303
:100FAC0020E61190016DE06005D394644006900139
:100FBC006D7482F0E53320E71190016DE06005D38C
:100FCC009464400690016D7483F0E53320E2119037
:100FDC00016DE06005D39464400690016D747EF061
:100FEC0020501190016DE06005D39464400690018F
:100FFC006D748DF0E53220E21190016DE06005D347
:10100C009464400690016D7476F07D027F0212228A
:10101C008C020F7190016DE0FF64726018EF6482B6
:10102C006013EF6483600EEF647E6009EF648D6083
:10103C0004EFB47605E490016DF0900184740DF02A
:10104C0090023DE075F00AA4FD7F0212228C7F1BFA
:10105C001248E8C251C243C254900184740EF0E4A9
:10106C0090023BF0A3F07D0A7F0212228CE5332024
:10107C00E34090016DE07003747FF07D027F0212FB
:10108C00228C90023BE475F001121726FED3E5F09A
:10109C009496EE940040D690016DE06005D3946474
:1010AC00400690016D741BF07F1B124C5F12452F94
:1010BC0080BB90016DE0B47F02E4F0E53330E317C0
:1010CC0090016DE0B47F02E4F07F1B124C5FC250C4
:1010DC00C251304102C2417D027F0212228C020AAF
:0110EC0060A3
:102EE800124833124ADDE53F30E70302309DE534EE
:102EF800A2E5926CA2E6926D5420FF90011FE02497
:102F08001AF582E43401F583EFF090011FE0FF0425
:102F1800F0EFC394044002E4F02045062047030282
:102F280030959001857401F0900178E07002A3E07B
:102F380070057F231248E890017AE070057F24121B
:102F480048E890017BE07002A3E070057F251248F5
:102F5800E87F1E1248E87F1F1248E8206C03306D96
:102F6800262054237F201248E8E53530E5199001E2
:102F7800857402F0D23F90016DE06005D3946440FF
:102F88000690016D742DF090011BE0FF90011AE08E
:102F98002FFF90011CE02FFFA3E02FFFA3E02FD30A
:102FA80094034004D26C8002C26C206C21303E1E17
:102FB800206D1B9001857403F090016DE0FF6005A2
:102FC800D39464400690016D7426F012452F7D015C
:102FD8007F0212228C206D03203D12306C030230D8
:102FE80095203E03023095306D030230959001859F
:102FF8007404F0206D0D206C0A7F0B1221507F2085
:10300800124C5F203F0620470302309590018574DB
:1030180005F0E4900241F09001B8E075F005A4FFD6
:10302800900241E0C39FE5F06480F8748098501DD9
:10303800206C03306D082054057F201248E87D027B
:103048007F0212228C900241E004F080CA303F17C0
:10305800C23F90016DE0FF6005D394644006900183
:103068006D742DF012452F124C5B7F1F124C5F7F41
:1030780020124C5F7F23124C5FE53720E2057F2446
:10308800124C5F7F25124C5F7F27124C5FA26D9216
:0F3098003DA26C923E7D027F0212228C022EE836
:103BF200E4900243F07BFF7A4D7999121A5B124AE4
:103C020041900243E014601614602014602B14608B
:103C12004624046003023CC4EFB406E2801EEF7047
:103C2200028019EFB40602801F8025EFB4010280E2
:103C32000BEFB4060280118017EF7008900243E088
:103C420004F080BAEFB406089002437401F080AE2B
:103C5200E4900243F080A7EF75F014A4900124F0E1
:103C6200E4900243F0EF703290016D7462F01245FD
:103C72002F7BFF7A4D79A3121A5B7F071221D97D20
:103C8200647F0212228C7F021221D97D647F02128C
:103C9200228C7F061221D9023C00205803023C00EC
:103CA2007BFF7A4D79A7900171E0FCA3E0FDA3E0D0
:103CB200FEA3E0FF9002471218D9121A5BC2580203
:0A3CC2003C00E4900243F0023C00D5
:104454009001887401F09001A1E075F00AA4FD7F39
:104464000212228CE490026DF09001B9E0FF9002F8
:104474006DE0C39F503A7F1D1248E89001A2E07599
:10448400F00AA4FD7F0212228C9001887402F07F4E
:104494001D124C5F9001A2E075F00AA4FD7F021288
:1044A400228C9001887403F090026DE004F080B9CE
:0B44B4009001887404F07F0B0221D9F6
:10469E007D327F0212228C124833124ADDE53F2012
:1046AE00E738E53120E4337F0C124C5F9001C3E014
:1046BE0075F00AA4900121F030451290016DE0FFD3
:1046CE006005D39464400690016D740CF0D24012D4
:1046DE004ADD12452F7F0C1221D97D057F02122251
:0346EE008C80B409
:10490F007D327F0212228C124833124ADDE53F209E
:10491F00E72AE53120E5257F0D124C5F30451290D7
:10492F00016DE0FF6005D39464400690016D740D36
:10493F00F0124ADD12452F7F0D1221D97D057F021E
:05494F0012228C80C261
:104648007D327F0212228C124833124ADDE53F2068
:10465800E73BE53230E605E53020E2317F10124CC9
:104668005F30451C90016DE0FF6005D394644010F5
:10467800E53290016D20E6057416F080037402F0AF
:10468800C257124ADD12452F7F0E1221D97D057FB0
:064698000212228C80B129
:103D9F00C2569002761218E500004B00E490027AAA
:103DAF00F07B027D09FF123FCA900272EFF0124CB6
:103DBF00DD900272EFF01225127D027F0212228C2B
:103DCF003056F3900171E0FCA3E0FDA3E0FEA3E009
:103DDF00FF78181218B3E4AD07FF7E02124D7990E9
:103DEF000171E0FCA3E0FDA3E0FEA3E0FF78101259
:103DFF0018B3E4AD077F017E02124D79900171E097
:103E0F00FCA3E0FDA3E0FEA3E0FF78081218B3E4E3
:103E1F00AD077402FFFE124D79900171E0FCA3A370
:103E2F00A3E0FFE4AD077F037E02124D79E4900219
:103E3F0071F0900271E0FF7E002496F582E4340168
:103E4F00F583E0FD124D79900271E004F0E0C39428
:083E5F004040DFC256023DC5E0
:104744009001DAE07002A3E0600790016D7439F023
:10475400229001D8E07002A3E0600790016D7437E5
:10476400F022E53030E029C2477F011248E87F2675
:104774001248E87F04124C5F7D037F0212228CD220
:1047840045E490016DF07F26124C5F7F271248E8C4
:014794002202
:06452900740E90016DF01C
:10452F003045537F041248E87F01124C5F124ADD79
:10453F00C245E53420E53D20E63A900184E0FFC313
:10454F0094024006EFD39409402A7F1E124C5F7FDE
:10455F001F124C5F7F20124C5F7F23124C5FE53799
:10456F0020E2057F24124C5F7F25124C5F7F2712BC
:10457F004C5F8002D24790016DE0700374C5F0224A
:1048C80090019EE075F00AA4FF90016BE5F0F0A35B
:1048D800EFF0D2529001DC7402F0A37458F07F2FED
:1048E800EF75F0081216782438F8C000E6FEEF7568
:1048F800F008121678AFF07401A807088002C333D5
:07490800D8FC4ED000F6229E
:044C5B00C2477F1EAF
:104C5F00EF75F0081216782438F8C000E6FEEF75ED
:104C6F00F008121678AFF07401A807088002C3335A
:084C7F00D8FCF45ED000F6221F
:104B4100EF75F0081216782438F8E6FD7C00EF7551
:104B5100F008121678AFF074017E00A807088005EE
:104B6100C333CE33CED8F9FFEE5CFEEF5D4E24FFAA
:014B71002221
:10499200EF75F008121678FEC374079E2438F8E605
:1049A200FD7C00EF75F008121678AFF0C374079F14
:1049B200FF74017E00A807088005C333CE33CED82A
:0B49C200F9FFEE5CFEEF5D4E24FF22CB
:104C8700EF75F008121678FEC374079E2430F8C03B
:104C970000E6FEEF75F008121678AFF07401A8076A
:0C4CA700088002C333D8FC4ED000F62277
:104C2E00EF75F008121678FEC374079E2430F8C094
:104C3E0000E6FEEF75F008121678AFF07401A807C3
:0D4C4E00088002C333D8FCF45ED000F622CB
:10483300C284C285D286D284A286927A7F3F307A9E
:1048430005124C878003124C2E900270743EF09038
:104853000270E0FFC3648094804020D285A28692D8
:104863007AC285307A05124C878008900270E0FF87
:0C487300124C2E900270E014F080D42251
:104ADD00C283C283E4900270F0900270E0FFC36461
:104AED008094C05018C2821249925004D280800224
:104AFD00C280D28200900270E004F080DCD283C2CA
:024B0D00812203
:102B1200900289EBF0A3EAF0A3E9F0E4900291F0CD
:102B2200C3ED9401EC94005003022CF690028FE066
:102B32002DFF90028EE03CFED3EF9455EE940040C0
:102B420003022CF6900194E0FEA3E0FFC3ED9FFF89
:102B5200EC9EFE900290E0147003022C4704600386
:102B6200022CFCD390028FE0940090028EE094003D
:102B72005003022CFCEF9404EE648094805025EF05
:102B820025E02438F8E6FD900289E0FBA3E475F025
:102B92000112173CA9F0FAED1216E0EF25E02439F4
:102BA200F8E68076C3EF9444EE64809480502190DE
:102BB2000289E0FBA3E475F00112173CA9F0FAE4E4
:102BC2001216E074922FF58274013EF583E0804A7A
:102BD200C3EF9453EE648094805021900289E0FB0D
:102BE200A3E475F00112173CA9F0FAE41216E0749E
:102BF200392FF58274013EF583E0801EEF64534E57
:102C0200702D900289E0FBA3E475F00112173CA934
:102C1200F0FAE41216E090016DE0FD900289E0FB0B
:102C2200A3E475F00112173CA9F0FAED1216E00FB9
:102C3200BF00010E90028FE024FFF090028EE0347C
:102C4200FFF0022B65304503022CEED390028FE099
:102C5200940090028EE094005003022CFCEF940446
:102C6200EE64809480503A900289E0FBA3E475F010
:102C72000112173CA9F0FA12169AFDEF25E024384A
:102C8200F8A605900289E0FBA3E475F00112173C57
:102C9200A9F0FA12169AFDEF25E02439F8A605806C
:102CA20035C3EF9444EE64809480502A90028AE403
:102CB20075F001121726900289E0FBA3E475F0017A
:102CC20012173CA9F0FA12169AFD74922FF582742B
:102CD200013EF583EDF00FBF00010E90028FE0245C
:102CE200FFF090028EE034FFF0022C4D90029174BE
:102CF20002F080069002917401F0900291E0FF22AE
:10366B00900285EBF0A3EAF0A3E9F0E490028CF072
:10367B00C3ED9401EC940050030237B890028BE039
:10368B002DFF90028AE03CFED3EF9409EE940040AC
:10369B00030237B890016EE0FEA3E0FFC3ED9FFF7E
:1036AB00EC9E90028DF0A3EFF0D390028BE0940090
:1036BB0090028AE0940050030237BE90028DE070B6
:1036CB0004A3E06405703C900171E0FCA3E0FDA352
:1036DB00E0FEA3E0FF78181218B3900285E0FBA37D
:1036EB00E475F00112173CA9F0FAEF1216E0900105
:1036FB0071E0FCA3E0FDA3E0FEA3E0FF781012183D
:10370B00B3807790028DE07004A3E0640470319075
:10371B000171E0FCA3E0FDA3E0FEA3E0FF7808123B
:10372B0018B3900285E0FBA3E475F00112173CA9D6
:10373B00F0FAEF1216E0900171A3A3A3E0FF803A19
:10374B0090028DE0FEA3E0FFC39404EE64809480AE
:10375B00503CEF25E02430F8E6FF900285E0FBA318
:10376B00E475F00112173CA9F0FAEF1216E0900283
:10377B008DA3E025E02431F8E6FF900285E0FBA362
:10378B00E475F00112173CA9F0FAEF1216E0900263
:10379B008EE004F0700690028DE004F090028BE056
:1037AB0024FFF090028AE034FFF00236B490028CD2
:0937BB007401F090028CE0FF2281
:03000B000220339D
:10202E00C2AF80FE3212203285D00B75D008FAC2B4
:10203E008CE58A2407F58AE58C34B8F58CD28CECC5
:10204E002493F8E6BC0F0274FFC39581B4140040CC
:10205E00CF7910787216E608700BC2AFE630E10346
:10206E004418F6D2AF08D9EDEA8BD0D27F22E50C18
:10207E00FF232473F80F0808EFB50C06107F0343F7
:10208E008701BF10047F007873E630E4E800E50CAA
:10209E00C39F5020050C7492250CF8E6FDA681080E
:1020AE00E6AE0CBE0F0274FFCDF8E86D60E008E6F8
:1020BE00C0E080F6E50CD39F4027E50C2493F8E6AC
:1020CE00AE0CBE0F0274FFFD18E6CDF8E5816D6013
:1020DE0006D0E0F61880F5E50C2492C8F6150C80B3
:1020EE00D3E50C232473F87F04C2AFE630E003106F
:1020FE00E20C7F0030E10730E3047F0854F4C2E7BE
:10210E00C6D2AF54804207227892A681740F600621
:10211E00FF0876FFDFFB7F10E47872F608F608DF23
:10212E00FA78737630904CFF740193C0E0E493C05C
:10213E00E0438901758A00758CB8D28CD2AFD2A9D2
:02214E00220F5E
:08334200410310FF41030DFFE0
:104AAA00207D2FC2AC207C09207E06D27C8F998083
:104ABA001F900311E0FE04F0EE541F2452F8A607DB
:104ACA0090030EE0FF900311E06F541F7002D27D35
:034ADA00D2AC2239
:1046F10090026CEFF0BF0A21307D191222899003DC
:1047010010EFF0E4FBFAFD7F0112228C900310748C
:10471100FFF080E47F0D124AAA307D1912228990A0
:104721000310EFF0E4FBFAFD7F0112228C900310DD
:1047310074FFF080E490026CE0FF124AAA90026CD0
:03474100E0FF2274
:104A410090030CE0FF90030FE0B507191222899043
:104A5100030DEFF0E4FBFAFD7F0112228C90030DB0
:104A610074FFF080DB90030CE0FF04F0EF540724A7
:054A71004AF8E6FF22F7
:030023000243D3C2
:1043D300C0E0C0F0C083C082C0D075D010C27B30B3
:1043E300982FAF99C29890030CE02408FDE433FCA6
:1043F30090030FE06D7001EC600CE0FE04F0EE54EE
:1044030007244AF8A61790030DE0FFF46003122275
:1044130062209903307B2FC299900311E0FF900330
:104423000EE06F601F207E1EE0FF04F0EF541F2498
:1044330052F8E6F599C27D900310E0FFF46007128D
:1044430022628002C27CD0D0D082D083D0F0D0E070
:014453003236
:104D1F0053877F759850538EBF538EFE53890F4321
:0F4D2F008920758BD0758DD0C2ABD28EC29922E0
:104B720000C2A40000000000000000D2A500000056
:104B820000D2A40000000000000000C2A500000046
:104B92000000000000C2A40000000000000000228B
:104D3E0000C2A400000000C2A500000000D2A40022
:0E4D4E00000000D2A5000000000000000022BE
:104DCB000000000000C2A400000000C2A50000000B
:0A4DDB0000D2A400000000C2A422D0
:104C0000124B7244A0FF124BA2124C11AF05124B73
:014C1000A201
:104C1100D2A500C2A40000000000000000D2A40040
:0D4C2100000000A2A5E433FF0000C2A422A1
:104CB300D2A500E4FEEF25E0FFD2A400000000002F
:104CC300000000A2A5E4334FFF0000000000000035
:0A4CD30000C2A40EEEB408DD0022BA
:104BA20000E4FEEF30E704D2A58002C2A5000000B7
:104BB20000D2A40000000000000000C2A400000017
:0F4BC2000000000000EF25E0FF0EEEB408D52242
:10487F00AC07C2B6EC25E0FC124C00124B72EC44B4
:10488F00A1FF124BA2124C11900204E064016019B7
:10489F00124CB3EF1216E0124DCB740129F9E43A22
:1048AF00FA900204E014F080DF124CB3EF1216E01E
:0948BF00124C11124D3ED2B6223A
:10495400C2B6EF25E0FF124C00900279E060191214
:10496400169AFF124BA2124C11740129F9E43AFA77
:10497400900279E014F080E1124D3EE4FFFE000065
:0E4984000FBF00010EBE5DF6BFC0F3D2B6221B
:104DB000AD07AC06ECFF7B017A0179FE900204742A
:0B4DC00001F012487F9001FEE0FF228E
:104D7900900273EDF0AB07AA06EAFFAD037B017A57
:0C4D89000279739002797401F002495421
:10334A004102EE02604002A704FF339303FF3501F6
:10335A0010FF3A0406FF42C317FF22EB00000000E9
:10336A000000000000000000000000000000000053
:10337A000000000000000000000000000000000043
:08338A0000000000000000003B
:103FCA00900273EFF0AE03E490027BF0ED600BC356
:103FDA0094014006EDD394F7400890027B7402F0F6
:103FEA00807B9002A3EDF0900273E0704A9002A4E5
:103FFA0074FFF0A3744DF0A374E5F090029DE4F011
:10400A00A3F0A3F0AF06AD07C005900276E0FCA3CB
:10401A00E0FDA3E0FEA3E0FF90027E1218D9900211
:10402A007AE0900282F09002A3E0FFD00512458F59
:10403A0090027BEFF0800690027B7402F090027B84
:10404A00E0701A120003EF700890027B7403F0808C
:10405A000C900273E09002EDF0A37401F090027BE1
:03406A00E0FF2252
:1030A700900312EBF0A3EAF0A3E9F0AD07E4C39DA8
:1030B7004003023212ED947F4003023212C2AF90F6
:1030C7000312E0FBA3E0FAA3E04A4B700302319B33
:1030D700E4A3F0A3F0900315E0FEA3E0FFC3941070
:1030E700EE648094804003023182EF7802C333CECE
:1030F70033CED8F9FF24A8F58274023EF583E0FBAE
:10310700A3E0FAA3E04A4B603674A82FF582740255
:103117003EF583E0FBA3E0FAA3E0F9C003C002C0D9
:1031270001900312E0FBA3E0FAA3E0F9D082D08379
:10313700D0E06B7008E965827003EA6583702B74D1
:10314700A72FF58274023EF583EDF0900312E0FBA2
:10315700A3E0FAA3E0F974A82FF58274023EF58381
:10316700EBF0A3EAF0A3E9F08011900316E004F076
:103177007006900315E004F00230DC900315E07050
:1031870004A3E0641060047F0080027F04900317AB
:10319700EFF08073E4900315F0A3F0900315E0FEC1
:1031A700A3E0FFC39410EE648094805055EF78023B
:1031B700C333CE33CED8F924A7F58274023EF58304
:1031C700E0B5052E900315E0FEA3E07802C333CEE9
:1031D70033CED8F9FF24A7F58274023EF583E4F0D5
:1031E70074A82FF58274023EF583E4F0A3F0A3F0F0
:1031F7008010900316E004F070A1900315E004F02E
:103207008099E4900317F0D2AF80069003177402F9
:07321700F0900317E0FF2215
:104B0F00E490031CF09002EEE0B4011A90029DE0D5
:104B1F00FBA3E0FAA3E04A4B601290029DA3A3E02F
:104B2F00F9121965800690031C7406F090031CE0BF
:024B3F00FF2253
:104CDD00E4900273F09002EEE0B4010A120026E4B3
:104CED009002EEF080069002737406F0900273E06D
:024CFD00FF2294
:104A76009002EEE070149002A4A3E0FAA3E0F9120B
:104A860019659002EE7401F080079002EEE0B40121
:104A960007E490031DF0800690031D7406F0900352
:044AA6001DE0FF22EE
:10251200E4900275F09002EEE060037F06227B01F8
:102522007A02797612000EEF6401600302271A9094
:102532000276E024FE604E04600302271A90027ABB
:102542007401F0A37402F0A37495F0A37401F0A3D4
:102552007402F0A3749AF07B017A027998123F1EFA
:10256200900275EFF0600302271A9002A3E0FF9039
:102572000298E0FE6F6006EE600302271A7F0212E5
:102582004E0002271A900295E0FBA3E0FAA3E0F9BD
:1025920012169A900299F090029C7401F0E4900253
:1025A20073F0A3F0900273E0FEA3E0FFC39410EE79
:1025B2006480948040030226A7EF7802C333CE33AF
:1025C200CED8F924A7F58274023EF583E0FF7003AA
:1025D2000226A7900299E0FE6F6003022696EE247F
:1025E200FD603424FD606C24F6604A24F970030215
:1025F2002673241360030226A790027A7401F0A3C3
:102602007402F0A3749AF0900295E0FBA3E0FAA39F
:10261200E0F9123393807690027A7401F0A3740287
:10262200F0A3749AF0900295E0FBA3E0FAA3E0F91C
:10263200123501805890027A7401F0A37402F0A35B
:10264200749AF0900295E0FBA3E0FAA3E0F9123A43
:1026520004803A90027A7401F0A37402F0A3749A8F
:10266200F0900295E0FBA3E0FAA3E0F91242C380E6
:102672001C90027A7401F0A37402F0A3749AF09091
:102682000295E0FBA3E0FAA3E0F91222EB90029C90
:10269200EFF08011900274E004F07006900273E093
:1026A20004F00225A6900298E0606D90029CE0FF83
:1026B200603FE490029AF0A3F0900299E04480FE19
:1026C200900295E0FBA3E0FAA3E0F990029AE47588
:1026D200F00112173C85F082F583EE1216F2900299
:1026E2009AE475F00112173C85F082F583EF121619
:1026F200F29002A3E0FF900295E0FBA3E0FAA3E0D0
:10270200F990029AE0FDA3E090027BCDF0A3EDF0F8
:0B271200123E67900275EFF07F00227E
:10271D0000C1814001C0804101C0804100C18140A4
:10272D0001C0804100C1814000C1814001C0804194
:10273D0001C0804100C1814000C1814001C0804184
:10274D0000C1814001C0804101C0804100C1814074
:10275D0001C0804100C1814000C1814001C0804164
:10276D0000C1814001C0804101C0804100C1814054
:10277D0000C1814001C0804101C0804100C1814044
:10278D0001C0804100C1814000C1814001C0804134
:10279D0001C0804100C1814000C1814001C0804124
:1027AD0000C1814001C0804101C0804100C1814014
:1027BD0000C1814001C0804101C0804100C1814004
:1027CD0001C0804100C1814000C1814001C08041F4
:1027DD0000C1814001C0804101C0804100C18140E4
:1027ED0001C0804100C1814000C1814001C08041D4
:1027FD0001C0804100C1814000C1814001C08041C4
:10280D0000C1814001C0804101C0804100C18140B3
:10281D0000C0C101C30302C2C60607C705C5C40473
:10282D00CC0C0DCD0FCFCE0E0ACACB0BC90908C8E3
:10283D00D81819D91BDBDA1A1EDEDF1FDD1D1CDCD3
:10284D0014D4D515D71716D6D21213D311D1D01043
:10285D00F03031F133F3F23236F6F737F53534F433
:10286D003CFCFD3DFF3F3EFEFA3A3BFB39F9F838A3
:10287D0028E8E929EB2B2AEAEE2E2FEF2DEDEC2C93
:10288D00E42425E527E7E62622E2E323E12120E003
:10289D00A06061A163A3A26266A6A767A56564A4F3
:1028AD006CACAD6DAF6F6EAEAA6A6BAB69A9A86863
:1028BD0078B8B979BB7B7ABABE7E7FBF7DBDBC7C53
:1028CD00B47475B577B7B67672B2B373B17170B0C3
:1028DD0050909151935352929656579755959454B3
:1028ED009C5C5D9D5F9F9E5E5A9A9B5B9959589823
:1028FD00884849894B8B8A4A4E8E8F4F8D4D4C8C13
:10290D004484854587474686824243834181804082
:1045ED00900282EBF0A3EAF0A3E9F0A3ECF0A3EDC7
:1045FD00F07FFF7DFF90028574FFF5F012173C45AB
:10460D00F06033900282E0FBA3E475F00112173CD9
:10461D00A9F0FA12169A6DFB7A00241DF582EA3480
:10462D0027F583E4936FFD741D2BF582EA3428F58D
:0B463D0083E493FF80BFEFFEEDFF223F
:10458F00E4900283F0C2AFAF05C00790027EE0FC5B
:10459F00A3E0FDA3E0FEA3E0FF9002851218D990DF
:1045AF0002897408F0900282E090028AF0D007121C
:1045BF004107EF64016002801290027EA3A3E0FE28
:1045CF00A3E0FF1247E6EF640160069002837403D5
:0E45DF00F0D2AFE4900000F0900283E0FF22E3
:10002600C2AFE4900001F0FD7F01124BD1124DF3F7
:03003600D2AF2224
:0E4DE500C2AFE4FDFF124BD1124E0CD2AF2232
:103F1E00900277EBF0A3EAF0A3E9F0E4900280F0D0
:103F2E00A3F0C2AFC3900003E09404900002E094AB
:103F3E000040667B017A007904E0FCA3E0FD1245A7
:103F4E00EDEF4E7054900004E0FF900277E0FBA37B
:103F5E00E0FAA3E0F9EF1216E0900003E024FDFF73
:103F6E00900002E034FFF990027DE0FBA3E0FAA39B
:103F7E00E0C98FF01217B57B017A007905C003C036
:103F8E0002C00190027AE0FBA3E0FAA3E0F9121955
:103F9E00169002807401F0801B7B017A00790490E8
:103FAE000002E0FCA3E0FD1245EDEF4E600690022C
:0C3FBE00817405F0D2AF900281E0FF2278
:103E6700E490027DF0C2AF900001E06401600302BC
:103E77003F10E924FFF9EA34FFFA900106EBF0A3BB
:103E8700EAF0A3E9F0900104E4F0A304F09001063E
:103E9700E0FBA3E0FAA3E0F9EF1216E090027BE063
:103EA700FEA3E0FF900105E02FF0900104E03EF053
:103EB700900106E0FBA3E0FAA3E0F9900104E0FC1F
:103EC700A3E0FD1245ED900104E475F00112173CE3
:103ED700FA740425F0F58274003AF583EFF0EEFFEB
:103EE700900104E475F00112173CFC740425F0F509
:103EF7008274003CF583EFF09000007401F0FDE45C
:103F0700FF124BD11244BF800690027D7405F0D298
:073F1700AF90027DE0FF22E4
:10434F00E4900293F07B017A027994124E1590005B
:10435F0001E014600C1460351460042403705F8056
:10436F005AE4900002F0A3F0900294E0FF90000254
:10437F00E475F00112173CFC740425F0F58274000B
:10438F003CF583EFF09000017402F0802EC3900093
:10439F0002E09401501F900294E0FF900002E47538
:1043AF00F00112173CFC740425F0F58274003CF503
:1043BF0083EFF080069000017403F0124DF390022A
:0443CF0093E0FF2256
:1044BF00E4900293F0900000E014600C047055E457
:1044CF00FD7F01124BD1804C900104E07002A3E0FC
:1044DF00602C900106E0FBA3E0FAA3E0F912169A14
:1044EF00FF12003E900107E475F0011217269001AC
:1044FF0005E024FFF0900104E034FFF080167F0305
:10450F00124E00900293EFF0E4FD7F01124BD1E4C5
:0A451F00900000F0900293E0FF22EC
:104A0800E4900292F0900001E024FE601314601A12
:104A180024037016E4FF124E00900292EFF0800A11
:104A28007F01124E00900292EFF0124E0C9000019E
:094A38007401F0900292E0FF22EB
:1047E600EF4E602BEF25E0FFEE33FE7C007D0C12D2
:1047F600196BA804A905AA06AB077F007E807D83F6
:104806007C65121810900318EEF0A3EFF08007E411
:10481600900318F0A3F0E4F5D8F5D975DA489003BB
:0D48260018E0FEA3E0F5EAEEF5FA7F0122AE
:0D4DF300E4F5D875DA49F5E9F5F9D2DE22CC
:094E0C00C2DE75DA48E4F5D82293
:03003B000249CDAA
:1049CD00C0E0C0F0C083C082C0D075D000C000C0B0
:1049DD0001C002C003C004C005C006C007124A08CA
:1049ED00D007D006D005D004D003D002D001D0001E
:0B49FD00D0D0D082D083D0F0D0E032C8
:0100390022A4
:08000300E490031AF07F0122D2
:0C4E000090031A7401F0A3EFF07F012270
:10000E00E4FF90031AE0600BA3E01216E0E4900305
:04001E001AF00F22A3
:104BD100EF6007ED6004D2908015EF700AED600779
:104BE100D290539AEF800BEF600CED7009C29043A5
:0F4BF1009A1043AF0122C290539AEF53AFFE22A6
:10410700900284EFF07F007EC27D017C00A3E0F87F
:10411700A3E0F9A3E0FAA3E0FBD31218A25016E438
:104127007F807E25FDFC900285E0F8A3A3A3E0C372
:104137001218A2500A9002851218E500004B009051
:104147000285E0F8A3E0F9A3E0FAA3E0FB7F007E95
:10415700807D517C01121810E47B20FAF9F81218BF
:1041670010EFF404F59C900284E0B4011553877FA7
:10417700759850438E04438E01438E10C29CC2AC87
:104187008012538EF7759A50438E04438E10539ABC
:09419700EF53AFFEC2907F01223C
:05003E008F9B7F0122F1
:084E1500E59B1216E07F01226B
:034E1D000244BF8D
:034E200002434FFB
:03004300024795DC
:10479500C0E0C0F0C083C082C0D075D000C000C0EA
:1047A50001C002C003C004C005C006C007E59A30B9
:1047B500E006539AFE124E20E59A30E109539AFD20
:1047C500309003124E1DD007D006D005D004D0037B
:1047D500D002D001D000D0D0D082D083D0F0D0E0AC
:0147E50032A1
:01003A0022A3
:1042C300900277EBF0A3EAF0A3E9F0E490027FF029
:1042D30090027AE0FBA3E0FAA3E0F9121752640517
:1042E30045F0705C900277E0FBA3E0FAA3E0F9905D
:1042F30000011216B390027DF0A3E4F090000212C5
:1043030016B3FF90027DE0F0A3E04FF0E004F070FD
:104313000690027DE004F0E92403F9E43AFA9002FE
:104323007DE0FCA3E0FD90028EE4F0A304F0A3F093
:10433300122B12EF6010124D5C90027FEFF080069B
:0C43430090027F7403F090027FE0FF22E4
:103A0400900277EBF0A3EAF0A3E9F0E4900281F0EE
:103A140090027AE0FBA3E0FAA3E0F9121752C394F0
:103A240006E5F094005003023AF1900277E0FBA31C
:103A3400E0FAA3E0F99000011216B390027DF0A31E
:103A4400E4F09000021216B3FF90027DE0F0A3E0D0
:103A54004FF0E004F0700690027DE004F090000363
:103A64001216B390027FF0A3E4F09000041216B390
:103A7400FF90027FE0F0A3E04FF09000051216B330
:103A8400FF90027FE0FCA3E0FDC39401EC940040AE
:103A94005CD3ED9478EC94005053ED25E06F704DB9
:103AA400900277E0FBA3E0FAA3E02406F9E43AFAF3
:103AB40090027DE0FCA3E0FDA3E0FFA3E090028E72
:103AC400CFF0A3EFF0A37401F0122B12EF600A12EF
:103AD4004D5C900281EFF0801A90027AE0FBA3E043
:103AE400FAA3E0F9E475F0051217B5800690028197
:093AF4007403F0900281E0FF224E
:10350100900277EBF0A3EAF0A3E9F0E4900284F0F3
:1035110090027AE0FBA3E0FAA3E0F91217526405E6
:1035210045F0600302365F900277E0FBA3E0FAA367
:10353100E0F99000011216B390027DF0A3E4F0903F
:1035410000021216B3FF90027DE0F0A3E04FF0E01D
:1035510004F0700690027DE004F09000031216B3AF
:1035610090027FF0A3E4F09000041216B3FF7E00F6
:1035710090027FEEF0A3EFF0C39401EE94005003AC
:1035810002365FD3E0947D90027FE0940040030215
:10359100365F900277E0F9A3E0FAA3E0900281C9D7
:1035A100F0A3EAF0A3E9F090027AE0FBA3E0FAA32A
:1035B100E0F9E4F5F01217B5900281E0FBA3E475A0
:1035C100F00112173CA9F0FA74031216E090027A86
:1035D100E0FBA3E0FAA3E0F9E475F00112177D9096
:1035E100027FA3E025E0FFA3E0FBA3E475F0011255
:1035F100173CA9F0FAEF1216E090027AE0FBA3E083
:10360100FAA3E0F9E475F00112177D900281E0FB65
:10361100A3E0FAA3E0F990027DE0FCA3E0FDA3E0C2
:10362100FFA3E090028ECFF0A3EFF0E4A3F0122B02
:1036310012EF600A124D5C900284EFF08026900236
:1036410080E025E0FF90027FE033FE90027AE0FB0C
:10365100A3E0FAA3E0F9EE8FF012177D8006900245
:0A366100847403F0900284E0FF225D
:1022EB00900277EBF0A3EAF0A3E9F0E4900288F018
:1022FB0090027AE0FBA3E0FAA3E0F9121752C39421
:10230B000AE5F09400500302250C900277E0FBA342
:10231B00E0FAA3E0F99000011216B390027DF0A34E
:10232B00E4F09000021216B3FF90027DE0F0A3E000
:10233B004FF0E004F0700690027DE004F090000393
:10234B001216B390027FF0A3E4F09000041216B3C0
:10235B00FF90027FE0F0A3E04FF09000051216B360
:10236B00900281F0A3E4F09000061216B3FF9002E6
:10237B0081E0F0A3E04FF0E004F07006900281E002
:10238B0004F09000071216B3900283F0A3E4F090D0
:10239B0000081216B3FF900283E0F0A3E04FF09019
:1023AB0000091216B3FD90027FE0FEA3E0FFC39479
:1023BB0001EE94005003022506D3EF947DEE9400BA
:1023CB004003022506900283E0FEA3E0FFC39401C5
:1023DB00EE94005003022506D3EF9479EE9400405F
:1023EB0003022506EF25E0FFEE33FEED6F7001EEE5
:1023FB006003022506900277E0FBA3E0FAA3E0243A
:10240B000AF9E43AFA900281E0FCA3E0FDA3E0FFB5
:10241B00A3E090028ECFF0A3EFF0A37401F0122B88
:10242B0012AD07ED60030224F8900277E0F9A3E008
:10243B00FAA3E0900285C9F0A3EAF0A3E9F09002B9
:10244B007AE0FBA3E0FAA3E0F9E4F5F01217B590FC
:10245B000285E0FBA3E475F00112173CA9F0FA74B6
:10246B00171216E090027AE0FBA3E0FAA3E0F9E47E
:10247B0075F00112177D90027FA3E025E0FF90021B
:10248B0085E0FBA3E475F00112173CA9F0FAEF12FB
:10249B0016E090027AE0FBA3E0FAA3E0F9E475F012
:1024AB000112177D900285E0FBA3E0FAA3E0F990FF
:1024BB00027DE0FCA3E0FDA3E0FFA3E090028ECF42
:1024CB00F0A3EFF0E4A3F0122B12AD07ED701E900A
:1024DB000280E025E0FF90027FE033FE90027AE07D
:1024EB00FBA3E0FAA3E0F9EE8FF012177DED60117C
:1024FB00FF124D5C900288EFF08006900288740307
:07250B00F0900288E0FF22BE
:1037C4009002EFEBF0A3EAF0A3E9F09002F5E0FF3A
:1037D4009002FCE4F0A3EFF0EDAE047803CEC31343
:1037E400CE13D8F9FF9002FAEEF0A3EFF09002FAAC
:1037F400E0FEA3E07803C333CE33CED8F9FFC3EDA4
:103804009FFFEC9E9002FCE0FEA3E0A80708800561
:10381400C333CE33CED8F9F0EE9002FCF09002F42C
:10382400E0FF74017E00A807088005C333CE33CEC1
:10383400D8F924FFFFEE34FF9002F8F0A3EFF0A3D1
:10384400A3E075F008A4FFC3ED9FFF9002F8E0FE2B
:10385400A3E0A807088005C333CE33CED8F9F0EE31
:103864009002F8F09002EFE0FBA3E0FAA3E0F990F5
:1038740002FAE0FEA3E0F5828E831216B3FF9002F3
:10388400F6E4F0A3EFF09002FBE02401FF9002FACB
:10389400E034008F82F5831216B3FE9002F6E04EF8
:1038A400F0A3E0F0A3E0FEA3E0F4FFEEF4FE900248
:1038B400F6E05EFEA3E05FFF9002FCE04EFEA3E0B4
:1038C4004FFF9002F6EEF0A3EFF09002FAE0FCA3B3
:1038D400E0FDF5828C83EF1216F29002F6E08D8201
:0638E4008C83A30216F222
:103CCC009002FEEBF0A3EAF0A3E9F0EDAE0478036A
:103CDC00CEC313CE13D8F9FF900308EEF0A3EFF088
:103CEC00900308E0FEA3E07803C333CE33CED8F9BB
:103CFC00FFC3ED9FFFEC9E90030AF0A3EFF090033F
:103D0C0003E0FF74017E00A807088005C333CE339F
:103D1C00CED8F924FFFFEE34FF900306F0A3EFF0AA
:103D2C009002FEE0FBA3E0FAA3E0F9900308E0FEAA
:103D3C00A3E0F5828E831216B3FF900304E4F0A384
:103D4C00EFF0900309E02401FF900308E034008FAA
:103D5C0082F5831216B3FE900304E04EF0A3E0F05C
:103D6C0090030AA3E0FF900304E0FEA3E0A8070879
:103D7C008005CEC313CE13D8F9FF900304EEF0A345
:103D8C00EFF0A3E05EFEA3E05FFF900304EEF0A370
:033D9C00EFF02223
:104D5C00EF14600C24FA600C2407700CE4FE800A3B
:0D4D6C007E0280067E0680027E04AF0622D5
:10339300900277EBF0A3EAF0A3E9F0E4900284F063
:1033A30090027AE0FBA3E0FAA3E0F9121752640556
:1033B30045F060030234F5900277E0FBA3E0FAA343
:1033C300E0F99000011216B390027DF0A3E4F090AF
:1033D30000021216B3FF90027DE0F0A3E04FF0E08D
:1033E30004F0700690027DE004F09000031216B31F
:1033F30090027FF0A3E4F09000041216B3FF900252
:103403007FE0FEA3E04FFF90027FEEF0FEA3EFF01C
:10341300C39401EE940050030234F5E0947D9002CE
:103423007FE0940040030234F5900277E0F9A3E0D3
:10343300FAA3E0900281C9F0A3EAF0A3E9F09002B5
:103443007AE0FBA3E0FAA3E0F9E4F5F01217B590F4
:103453000281E0FBA3E475F00112173CA9F0FA74B2
:10346300041216E090027AE0FBA3E0FAA3E0F9E489
:1034730075F00112177D90027FA3E025E0FFA3E022
:10348300FBA3E475F00112173CA9F0FAEF1216E062
:1034930090027AE0FBA3E0FAA3E0F9E475F00112ED
:1034A300177D900281E0FBA3E0FAA3E0F990027D8F
:1034B300E0FCA3E0FDA3E0FFA3E090028ACFF0A32A
:1034C300EFF012366BEF600A124D5C900284EFF05E
:1034D3008026900280E025E0FF90027FE033FE909B
:1034E300027AE0FBA3E0FAA3E0F9EE8FF012177D76
:0E34F30080069002847403F0900284E0FF22B1
:10215000EFD3940F40037FFF2274732F2FF8E620F4
:10216000E5F4C2AFE64430F6D2AFAE0CEEC39F50FA
:10217000210E74922EF8E6F908E618BE0F0274FFDD
:10218000FDED69600909E71919F7090980F31616C9
:1021900080DAEED39F400405810581EED39F402273
:1021A00074922EF808E6F9EEB50C02A9811806061D
:1021B000E6FDED6960091919E70909F71980F31EB1
:1021C00080D9EF2492F8E604F8EF2F04904CFF93A7
:0921D000F608EF2F93F67F0022C0
:1021D900EFD3940F40037FFF22EF232473F8E630F7
:1021E900E5F4C2AFE6548CF6D2AFE50CB5070A7434
:1021F900922FF8E6F58102207C502E74932FF8E691
:10220900BF0F0274FFFD18E6F974922FF8FBE6FC84
:10221900E96C6008A805E7F61D1980F4A803A6056E
:102229001FE50CB507E37F002274932FF8E6FD182C
:1022390086010F74922FF8A601088604E50CB507EC
:1022490002AC81ED6C60080D09A805E6F780F4E59C
:092259000CB507DE89817F00222B
:10226200EFD3940F40037FFF22EF232473F8C2AF12
:10227200E630E50530E002D2E4D2E2C6D2AF7F001A
:0722820030E2010F02207998
:03228900AF0C2275
:10228C008FF0E4FFFEE50C232472F8C2A930F70DA1
:10229C007F08E6600B2DF660325030800730F10677
:1022AC00EDF660277E020830F010C2AFE610E7258D
:1022BC000E30E20CD2AF7F048014C2AFE610E715EB
:1022CC0054EC4EF6D2AFD2A902207C7F0808EF4422
:0F22DC0083F4C2AF56C6D2AFD2A954804FFF22AF
:10424300022116E493A3F8E493A34003F68001F25A
:1042530008DFF48029E493A3F85407240CC8C3337C
:10426300C4540F4420C8834004F456800146F6DF4B
:10427300E4800B010204081020408090321EE47E8B
:10428300019360BCA3FF543F30E509541FFEE49340
:10429300A360010ECF54C025E060A840B8E493A307
:1042A300FAE493A3F8E493A3C8C582C8CAC583CA32
:1042B300F0A3C8C582C8CAC583CADFE9DEE780BEEA
:01339200003A
:10167800C2D530F707B2D563F0FF05F030E70CB2FA
:10168800D5F4048463F0FF05F080018430D502F4BA
:0216980004222A
:10169A00BB010689828A83E0225002E722BBFE024E
:0916AA00E32289828A83E4932281
:1016B300BB010CE58229F582E5833AF583E02250EC
:1016C30006E92582F8E622BBFE06E92582F8E22236
:0D16D300E58229F582E5833AF583E4932250
:1016E000BB010689828A83F0225002F722BBFE01E9
:0216F000F322E3
:1016F200F8BB010DE58229F582E5833AF583E8F02E
:10170200225006E92582C8F622BBFE05E92582C8D9
:02171200F222C1
:10171400EF8DF0A4A8F0CF8CF0A428CE8DF0A42EE9
:02172400FE22A3
:10172600C5F0F8A3E028F0C5F0F8E582158270024E
:061736001583E038F022EB
:10173C00A3F8E0C5F025F0F0E58215827002158360
:06174C00E0C838F0E822BD
:10175200BB010A89828A83E0F5F0A3E02250068762
:10176200F009E71922BBFE07E3F5F009E319228924
:0B177200828A83E493F5F07401932257
:10177D00BB010789828A83021726500B09C5F02702
:10178D00F7C5F01937F722BBFE0D09F8E325F0F385
:10179D00C5F019E338F322F889828A837401932501
:0817AD00F0C5F0F8E4933822C6
:1017B500BB010A89828A83F0E5F0A3F0225006F77F
:0F17C50009A7F01922BBFE06F3E5F009F319227C
:1017D40075F008758200EF2FFFEE33FECD33CDCCCC
:1017E40033CCC58233C5829BED9AEC99E58298404F
:1017F4000CF582EE9BFEED9AFDEC99FC0FD5F0D62C
:10180400E4CEFBE4CDFAE4CCF9A88222B800C1B955
:101814000059BA002DEC8BF084CFCECDFCE5F0CB93
:10182400F97818EF2FFFEE33FEED33FDEC33FCEBCC
:1018340033FB10D703994004EB99FB0FD8E5E4F987
:10184400FA227818EF2FFFEE33FEED33FDEC33FC74
:10185400C933C910D7059BE99A4007EC9BFCE99A68
:10186400F90FD8E0E4C9FAE4CCFB2275F010EF2FAD
:10187400FFEE33FEED33FDCC33CCC833C810D707AD
:101884009BEC9AE899400AED9BFDEC9AFCE899F8E8
:0E1894000FD5F0DAE4CDFBE4CCFAE4C8F9227B
:1018A200EB9FF5F0EA9E42F0E99D42F0E89C45F09C
:0118B2002213
:1018B300E8600FECC313FCED13FDEE13FEEF13FF13
:0318C300D8F12237
:1018C600E8600FEFC333FFEE33FEED33FDEC33FC80
:0318D600D8F12224
:0C18D900ECF0A3EDF0A3EEF0A3EFF02282
:1018E500A8828583F0D083D0821218FC1218FC12CE
:1018F50018FC1218FCE473E493A3C583C5F0C583F3
:10190500C8C582C8F0A3C583C5F0C583C8C582C84C
:0119150022AF
:10191600BB011A89828A83D0F0D0E0F8D0E0F9D0F2
:10192600E0FAD0E0FBE8C0E0C0F00219B85016E9D2
:10193600F8D083D082D0E0F9D0E0FAD0E0FBC082C4
:10194600C083021998BBFE16E9F8D083D082D0E096
:0F195600F9D0E0FAD0E0FBC082C0830219C122B1
:061965008A838982E4730D
:10196B00EC8EF0A4CCC5F0CCCDF8EFA4CEC5F02D09
:10197B00FDE43CFCE8A42EC8C5F03DFDE43CFCEFC7
:0D198B00A4FFE5F028FEE43DFDE43CFC2255
:1019F000E5452447F582E43402F583E0054522906D
:101A00000244307603900247E475F0011219A102F6
:101A1000169A206FE97F2ED26F8018EF540F249012
:101A2000D43440D4FF30730BEF24BFB41A005003FA
:101A30002461FFE546600215460549E54970020547
:101A40004830760E900244E475F0011219A1EF02BD
:101A500016E00246F17403D2768003E4C276F545BF
:101A60009002441219B8E4F546F548F549E5466098
:101A7000077F20121A3380F57547FFC270C26FC20C
:101A800071C272C274C275C2771219FFFF700D3035
:101A900076057F00121A44AF49AE4822B4255FC2D2
:101AA000D5C2731219FFFF24D0B40A00501A75F082
:101AB0000A784630D50508B6FF0106C6A426F620EA
:101AC000D5047002D27280D924CFB41A00EF50042A
:101AD000C2E5D273021C45D27080C6D26F80C0D2DC
:101AE0007180BCD2D580BAD27480B47F20121A33F0
:101AF0002071077401B5460040F11219F0FF121A67
:101B000033021A6DD277D27580951219F0FB121933
:101B1000F0FA1219F0F94A4B700679167A1D7BFF1C
:101B200020712EE546602A7E008E82758300121693
:101B3000B360060EEE654770F0C2D5EBC0E0EAC0B8
:101B4000E0E9C0E0EE121C8CD0E0F9D0E0FAD0E081
:101B5000FB12169AFF60AAEBC0E0EAC0E0E9C0E021
:101B6000121A33D0E02401F9D0E03400FAD0E0FBBF
:101B7000E5470460DCD547D980877BFF7A1C7988EC
:101B8000D271809C791080027908C275C277800872
:101B9000D2D5790A8004790AC2D5E547047002F5E6
:101BA00047E4FAFDFEFF1219F0FC7B0820701312C7
:101BB00019F0FD7B10306F0A1219F0FE1219F0FFB8
:101BC0007B20EC3382D592D55013C3E4306F069F4F
:101BD000FFE49EFEE42070039DFDE49CFCE4CBF852
:101BE000C270EC700CCFCECDCCE824F8F870F38046
:101BF00017C3EF33FFEE33FEED33FDEC33FCEB3375
:101C0000FB994002FB0FD8E9EB307005F8D0E0C437
:101C100048B270C0E00AEC4D4E4F78207B0070C295
:101C2000EAB5470040BCC0E0121C8ED0F0D0E020E6
:101C30007004C4C0E0C4B270C0F0121A1CD0F0D559
:101C4000F0EB021A6D1219CA1B0A531B84581ADBD7
:101C50004C1AD7421B884F1B90441B90491AF043E3
:081C60001B96551B7A461B7A06
:101C6800451B7A471D36501ADF2D1AE32E1B062B0B
:101C78001AE7231B04201D1F2A1A9F4800001AFE7A
:101C88003F3F3F00790AA2D5207214307409B91079
:101C9800020404B9080104A2D520750250010420E9
:101CA80071689271B546005034C0E07F20307219D7
:101CB8007F30A27172757274500F121CE5C271C226
:101CC80075C274C2777F30800F307403E9C0E012A8
:101CD8001A33307403D0E0F9D0E0B546CC3074172D
:101CE8007F30B9100C121A337F583073077F788011
:101CF80003B90803121A333071057F2D021A337F96
:101D0800202077F87F2B2075F322927180CF286EE0
:101D1800756C6C2900D2701219F03070F8C27078A6
:101D28004630D50108F6021A9F2D5043495812191A
:101D3800F02403B405004001E4901D3193121A24E5
:0D1D4800743A121A24D272754604021B84EC
:09199800EBF608EAF608E9F62274
:1019A100F8E0FBA3A3E0F925F0F0E58215827002CF
:0719B1001583E0FA38F02273
:0919B800EBF0A3EAF0A3E9F02230
:0919C100EBF208EAF208E9F22257
:1019CA00D083D082F8E4937012740193700DA3A3AC
:1019DA0093F8740193F5828883E4737402936860C0
:0619EA00EFA3A3A380DFC0
:00000001FF
