:024D0000406E03
:024D020041A1CD
:024D0400004667
:024D06003AFE73
:024D08001D5636
:024D0A0038EB84
:024D0C0010EEA7
:024D0E0009EDAD
:024D10002EE98A
:024D12002D036F
:024D14003BF36F
:024D1600445502
:024D1800469FB4
:024D1A0049103E
:024D1C00464906
:024D1E003DA0B6
:0300000002423881
:0C423800787FE4F6D8FD7581A102427F7A
:104D96002A2A2D0073746172746564210A002A2A16
:0B4DA6002E002A2A5028256C752900D9
:10321F00420194000142016E00014101D7F3604069
:10322F0001290A050303050A0328010023000304EB
:10323F00140F0F1A010501006401040407030A0AA1
:10324F000F0F030F14010000140A010003141405DB
:10325F000200001414000000000000000000000035
:10326F0000AAC14BC14AC14CC148C149C1D8420192
:10327F0075000041012300420192000042019000BD
:10328F00004201DC00004201DA00004201D80000D8
:10329F004101D600420125000042012700004101F3
:1032AF002400C180C181C104C105C106C107C10885
:1032BF00C10AC10DC10FC110C112C113C115C11770
:1032CF00C118C11AC11DC11EC1A0C1A2C1A4C1A6EE
:1032DF00C128C12AC12CC12EC12FC131C132C1B4E5
:1032EF00C1B6C137C1394101090041010A0041018D
:1032FF000B0042010C000041010E0041010F004183
:10330F00011000410111004201120000420114009E
:10331F0000420116000041011800C13BC13C4101B0
:10332F001900C13DC13EC13F45011A000000000018
:04333F0041011F0029
:10406E0012291E7F091221517D0A7F0212228D7F95
:10407E00031221517D0A7F0212228D7F04122151DB
:10408E007D0A7F0212228D7F051221517D0A7F0249
:10409E0012228D7F061221517D0A7F0212228D7F00
:1040AE00071221517D0A7F0212228D7F08122151A3
:1040BE007D0A7F0212228D7F0A1221517D0A7F0214
:1040CE0012228D7F0F1221517D0A7F0212228D90B6
:1040DE000124E0700F7D647F0212228D90016D74B9
:1040EE0061F080EBE490016DF07F021221517DFAB8
:0A40FE007F0212228DE4FF0221DA96
:10291E00124D20E490016DF0900177F0A3F0A3F03A
:10292E00A3F0A3F0A3F0900121F0A3F0900120F00A
:10293E00900170F0C255C253C24190016BF0A3F0EA
:10294E0090018EF0A3F0C24DC24FC24EC244C2409F
:10295E00C257D254C243C252C247124ADE7D647F6E
:10296E000212228D7D647F0212228D7D647F0212FF
:10297E00228D7D647F0212228D7D647F0212228D54
:10298E009001FA1218E600000000E47F02FEFDFC42
:10299E009001FAE0F8A3E0F9A3E0FAA3E0FBC3127A
:1029AE0018A35068E49001F9F09001F9E0FFC364B8
:1029BE00809488500B74382FF8E4F6E004F080E928
:1029CE00E49001F9F09001F9E0FFC3648094905017
:1029DE0019EF3395E0FE747D2FF58274013EF58379
:1029EE00E4F09001F9E004F080DB9001FAE0FCA342
:1029FE00E0FDA3E0FEA3E02401FFE43EFEE43DFD86
:102A0E00E43CFC9001FA1218DA0229987F0412486D
:102A1E00E97F01124C60124ADEC245E49001F9F0E2
:102A2E009001F9E0FFC3648094C05025EF3395E028
:102A3E00FE124DB19001F9E0FD3395E0FC74962D38
:102A4E00F58274013CF583EFF09001F9E004F0801B
:102A5E00CF1248347F017E02124DB1E4FCFDFE78A8
:102A6E00101218C7C004C005C006C0077F007E0242
:102A7E00124DB1E4FCFDFE78181218C7D003D00237
:102A8E00D001D000EF2BFFEE3AFEED39FDEC38FC15
:102A9E00C004C005C006C0077402FFFE124DB1E4AB
:102AAE00FCFDFE78081218C7D003D002D001D0006A
:102ABE00EB2FFFEA3EFEE93DFDE83CFCC004C005FD
:102ACE00C006C0077F037E02124DB1E4FCFDFED0AE
:102ADE0003D002D001D000EB2FFFEE3AFEED39FD10
:102AEE00EC38FC9001711218DAE53330E21230E363
:102AFE000FE53530E30A9001711218E60000000070
:052B0E007F2E0248E9E2
:100046007D647F0212228D124834124ADE7D017FC2
:100056000212228DE53F20E7EEE530139221E530CE
:10006600A2E19202A2E4920330033220052FE53783
:1000760030E0079001D4E04401F07F30124B42504B
:10008600079001D4E054FEF0D25674C612452CE512
:100096003030E4097DC87F0212228D80F230212E95
:1000A60030202B30021130040E20000B20030820D4
:1000B6000505124745803230032F30052C200129D3
:1000C60020022620042390016D74C6F0801820219A
:1000D6001820201590016DE0FF6005D3946440065A
:1000E60090016D7463F0124530300205300402D27F
:1000F60000200205200402C200300305300502D2AA
:1001060001200305200502C201A2219220A202922B
:1001160004A2039205E53130E6057F13124C609088
:10012600016DE06005C3946440077F06124C608051
:100136000E90016DE0C3946450057F061248E99065
:100146000178E07002A3E0600E900179E024FFF0F0
:10015600900178E034FFF090017AE0600214F090AC
:10016600017BE07002A3E0600E90017CE024FFF0CA
:1001760090017BE034FFF0900122E0600214F090E1
:100186000121E07F03600B1248E9900121E014F0A1
:100196008003124C60900177E07F18600B1248E9EB
:1001A600900177E014F08003124C60E53230E41AD7
:1001B60030E5179001C2E075F00AA4FF900178E5DA
:1001C600F0F0A3EFF07F23124C60E53030E30B2014
:1001D60006082053057F01122151E530A2E392065D
:1001E600E53230E3142007119001B4E075F00AA45B
:1001F60090017AF07F24124C60E532A2E39207A2C6
:10020600E4921F301F15201E129001C1E075F00AFE
:10021600A4FF900175E5F0F0A3EFF0900175E07092
:1002260002A3E0600E900176E024FFF0900175E0F5
:1002360034FFF0A21F921EE534A2E39214A24A9262
:10024600333033342032319001D4E030E02A301498
:10025600149001C8E075F00AA4FF900114E5F0F0CF
:10026600A3EFF080137F301248E9D248900125743D
:1002760001F0A3742CF0C24CA2339232E53030E583
:1002860002D255E53530E42B200A28305525900159
:10029600B5E075F00AA4900177F09001A0E075F042
:1002A6000AA4FF90017BE5F0F0A3EFF07F25124C46
:1002B60060C255E535A2E4920AE533A2E2923830EF
:1002C600380C20370990016DE0B47E02E4F0A238C4
:1002D6009237E533A2E3923A303A0C20390990017D
:1002E6006DE0B47F02E4F0A23A9239E534A2E192DD
:1002F6001B301B21201A1E900111E070189001B2CC
:10030600E075F00AA4FF900192E5F0F0A3EFF090FB
:10031600011174FAF0900111E0600214F09001925C
:10032600E07002A3E0600E900193E024FFF09001DC
:1003360092E034FFF0900192E07004A3E064017053
:10034600107F321248E97F27124C6090010F7432F9
:10035600F090010FE0600214F090010FE0B4010B81
:100366007F331248E99001107464F0900110E06048
:100376000214F0900110E0B4010B7F32124C609031
:10038600010E741EF090010EE0600214F090010E52
:10039600E0B4010A7F271248E97F33124C60A21BA2
:1003A600921AE534A2E2921130111B301018201275
:1003B6001590016DE0FF6005C39464400690016DE1
:1003C6007422F0124530301105301002D21220117D
:1003D60005201002C212A2119210A21D921CE53431
:1003E600A2E3921430142C2013299001C9E0700561
:1003F6001248C9801E9001D4E04401F0C24C304A34
:10040600129001C8E075F00AA4FF900114E5F0F01F
:10041600A3EFF0A2149213900123E06401702F7FE2
:1004260029124B42500F7F29124C609001C5E09073
:100436000123F080199001D6E060137F291248E964
:100446009001C5E0900123F09001D6E014F09001F0
:1004560023E0600214F0E535A2E6923520352D2022
:10046600342A3036279001CBE075F064A4FF900162
:1004760012E5F0F0A3EFF090016DE0FF6005C39484
:1004860064400690016D742EF0124530303505300B
:100496003402D236203505203402C236A2359234D3
:1004A600900112E07002A3E0600E900113E024FFB9
:1004B600F0900112E034FFF0900112E07004A3E026
:1004C600640170057F0B1248E9E536139216E5368E
:1004D600A2E19219A2E29223A2E39225A2E4922734
:1004E600A2E59229A2E6922B33922DE537A2E1925C
:1004F6003030163330153020172D7F30124B4250D6
:1005060026C2489001D4E054FEF0C24C9001C7E0E8
:1005160075F00AA4FF900116E5F0F0A3EFF0900144
:10052600C9E060031248C9301605301502D21720FB
:100536001605201502C217A21692153019052018A5
:1005460002C249A219921820231820221590016D83
:10055600E0FF6005C39464400690016D7432F012AA
:10056600453020251820241590016DE0FF6005C355
:100576009464400690016D7433F0124530202718BC
:1005860020261590016DE0FF6005C3946440069037
:10059600016D7434F0124530302918302815900159
:1005A6006DE0FF6005C39464400690016D7435F0FC
:1005B600124530302B18302A1590016DE0FF60058A
:1005C600C39464400690016D7436F0124530A22340
:1005D6009222A2259224A2279226A2299228A22B11
:1005E600922AE53633922DE537A2E19230302D3E40
:1005F600302C3B202E38203035900118E0B4392EAF
:10060600E49001DAF0A3F07F35124C6090016D742E
:1006160037F01245309001ACE075F064A4FF90010C
:10062600D8E5F0F0A3EFF0E4900118F0800C202D4F
:1006360009302C069001187437F0202D05202C0265
:10064600C22E302D05302C02D22EA22D922C303007
:100656003E302F3B203138202D35900118E0B4373D
:100666002EE49001D8F0A3F07F34124C6090016D17
:100676007439F01245309001ACE075F064A4FF9037
:1006860001DAE5F0F0A3EFF0E4900118F0800C2019
:100696003009302F069001187439F0203005202FCC
:1006A60002C231303005302F02D231A230922F9063
:1006B60001C9E060077F17304C0C80057F17304A70
:1006C600051248E98003124C609001DAE07002A33B
:1006D600E0601A7F34124C607F351248E99001DBE6
:1006E600E024FFF09001DAE034FFF080057F351258
:1006F6004C609001D8E07002A3E0601A7F35124C7E
:10070600607F341248E99001D9E024FFF09001D8C7
:10071600E034FFF080057F34124C609001D4E02075
:10072600E007E53630E102D24CE53630E10B9001C8
:100736006DE0B49516E4F0801290016DE0700C90B7
:1007460001C9E0600690016D7495F0900114E070A7
:1007560004A3E0640170137F301248E9D248900187
:10076600257401F0A3742CF0C24C900114E07002C1
:10077600A3E0600E900115E024FFF0900114E03430
:10078600FFF0900116E07004A3E0640170117F3061
:10079600124C60D2499001277401F0A3742CF0909A
:1007A6000116E07002A3E0600E900117E024FFF04E
:1007B600900116E034FFF0900125E07004A3E06498
:1007C60001700C30480990016D7430F0124530907C
:1007D6000125E07002A3E0600E900126E024FFF000
:1007E600900125E034FFF0900127E07004A3E06457
:1007F60001701230490F9001C9E0600990016D74D3
:1008060031F0124530900127E07002A3E0600E90AF
:100816000128E024FFF0900127E034FFF0E535A23F
:10082600E3920BE534A2E5920C7F1A124B42503A42
:10083600300B3720083490019DE070077F2812485E
:10084600E9800890019DE0900109F07F051248E9D2
:100856009001A7E0700204F09001A7E075F00AA4E9
:10086600FF90010CE5F0F0A3EFF090010CE07004AE
:10087600A3E06401701E900109F07F28124C60907D
:1008860001AAE070077F05124C6080089001AAE07B
:1008960090010AF090016BE07002A3E0600E9001F7
:1008A6006CE024FFF090016BE034FFF0900109E06A
:1008B600B401057F281248E990010AE0B401057FDA
:1008C60005124C60900109E0600214F090010AE004
:1008D600600214F090010CE07002A3E0600E90013B
:1008E6000DE024FFF090010CE034FFF090018DE064
:1008F600B401057F2A124C6090018DE0600214F06D
:1009060090018EE0B401167F2B124C607F2C1248AA
:10091600E99001B0E075F00AA490018FF090018E85
:10092600E0600214F090018FE0B401057F2C124CB8
:100936006090018FE0600214F09001DCE07002A389
:10094600E060109001DDE024FFF09001DCE034FF70
:10095600F080057F2F124C60A20B9208A20C920920
:10096600E535A2E5920E300E12300D0F200F0C90D9
:10097600019FE075F00AA490010BF0200E05200DF2
:1009860002C20F300E05300D02D20F90010BE0644B
:1009960001703B90016DE0FF6005D39464400690C2
:1009A600016D742DF0124530124C5C7F1F124C60A5
:1009B6007F20124C607F23124C60E53720E2057FD2
:1009C60024124C607F25124C607F27124C609001E8
:1009D6000BE0600214F0A20E920DE53520E2030250
:0709E600004DD24202004D5A
:1041A100E4900206F0D2539001B2E075F00AA4FD4A
:1041B1007F0212228D9001B3E075F00AA42401FE62
:1041C100E435F0900178F0A3CEF07F23124C601219
:1041D1004834E53230E40E9001C1E075F00AA4FFE5
:1041E1009001758024E4900175F0A3F0900175E0D1
:1041F1007002A3E0601B7D0A7F0212228D9001B341
:10420100E075F00AA4FF900178E5F0F0A3EFF080EB
:10421100DB7F021248E99001B3E075F00AA4FD7F4B
:104221000212228D7F02124C60E4900178F0A3F01B
:07423100C2537F010221DAF4
:103AFE00124834124ADEE53F30E703023BE9204527
:103B0E0003023BE9E53120E103023BE990018074B9
:103B1E0001F0E53020E614D23B7D0A7F0212228DA1
:103B2E0090016DE070EC746AF080E7900180740291
:103B3E00F0303B187DFAFF12228D7DFA7F021222A1
:103B4E008DC23B90016DE0B46A02E4F03045A19065
:103B5E0001807403F0E53030E703023BE9E53130D4
:103B6E00E279E4900208F07D0A7F0212228DE530A0
:103B7E0020E706900208E004F07D0A7F0212228DF3
:103B8E00E53020E706900208E004F07D0A7F02127D
:103B9E00228DE53020E706900208E004F09002083E
:103BAE00E0C39402400AE53030E6057F071248E98B
:103BBE00E4900208F07D0A7F0212228D900208E046
:103BCE0004F0E0C3942840ED7F07124C60E53020EE
:103BDE00E70990016DE07003746BF07D027F0212B5
:053BEE00228D023AFEE9
:101D5600124834124ADEE53F30E7030220252045CB
:101D660003022021203C03021FBB9001817401F075
:101D7600E53120E1127D057F0212228D90016DE092
:101D860070EE746DF080E990016DE0B46D02E4F0E0
:101D9600E53120E2127D057F0212228D90016DE071
:101DA60070EE746EF080E990016DE0B46E02E4F0BE
:101DB600E53020E7147D057F0212228DD25D900169
:101DC6006DE070EC746BF080E790016DE0B46B022F
:101DD600E4F0305D097D647F0212228DC25D2045EC
:101DE600097D057F0212228D80F47D327F02122248
:101DF6008D7F0A1248E97F221248E9900197E07523
:101E0600F00AA4FD7F0212228D7F0C1248E97F0C96
:101E16001221517F0A124C607D147F0212228D908E
:101E260001817403F0E490020AF0E53120E34A7D73
:101E3600017F0212228D900197E0FF9001A5E0C379
:101E46009FFFE49400FE7C007D0A12171590020A9B
:101E5600E004F0C39FEE6480F874809840CC900153
:101E66006DE06005D39464400690016D740BF07FBD
:101E760022124C6012453080B17F22124C607D01E7
:101E86007F0212228DE490020AF0E53120E1127DF4
:101E9600017F0212228D90016DE070EE746DF0806C
:101EA600E990016DE0B46D02E4F07F0C124C609095
:101EB60001C3E075F00AA4900121F07F0C1221DA2B
:101EC6007F0D1248E97F0D122151900198E075F0BF
:101ED6000AA4FD7F0212228D7F0112228D20450960
:101EE6007D057F0212228D80F47F211248E9900140
:101EF600817404F0E490020AF0E53120E23E7D01AF
:101F06007F0212228D9001A6E075F00AA4FFAEF0C2
:101F160090020AE004F0C39FEE6480F87480984053
:101F2600D890016DE06005D39464400690016D740D
:101F36000AF07F21124C6012453080BD90016DE0A1
:101F4600B46E02E4F07F21124C609001817405F0BA
:101F5600E490020AF0E53130E0107D02800520456C
:101F6600F47D057F0212228D80F4E53130E0030214
:101F760020217F08124B4250030220217F0D124C74
:101F8600607F0D1221DA7D027F0212228D7F0E12F2
:101F960048E99001A9E075F00AA4FD7F0212228D9E
:101FA6007F0E124C602040047F0580027F041222BF
:101FB60063C2408066E4900181F090020AF07F21BE
:101FC6001248E9E53120E23E7D017F0212228D9022
:101FD60001A6E075F00AA4FFAEF090020AE004F054
:101FE600C39FEE6480F874809840D890016DE060DD
:101FF60005D39464400690016D740AF07F21124C5B
:102006006012453080BD90016DE0B46E02E4F07F51
:1020160021124C607D017F0212228DA245923C7DE9
:09202600027F0212228D021D56F8
:1038EB00E4900182F07F0F1248E9124ADE7DFA7FE5
:1038FB000212228D7DFA7F0212228D7F0F124C60F5
:10390B00124ADE7F04122263124834124ADE20452B
:10391B00030239FB7F0112228D2045097D057F02B1
:10392B0012228D80F49001827401F0900199E07560
:10393B00F00AA4FD7F0212228D9001A8E0D394001F
:10394B004059E490020CF09001A8E014FF90020C97
:10395B00E0C39F502E7F091248E990019AE075F061
:10396B000AA4FD7F0212228D7F09124C6090019AEE
:10397B00E075F00AA4FD7F0212228D90020CE00488
:10398B00F080C47F091248E990019AE075F00AA40F
:10399B00FD7F0212228D7F09124C6090018274020E
:1039AB00F0E490020DF0E53120E0057F081248E9C4
:1039BB007D2880052045097D057F0212228D80F42C
:1039CB00E53120E0117F081248E97D017F021222C8
:1039DB008D12483480EA7F08124C60124ADE900147
:1039EB00827403F07D027F0212228D7F0412226308
:0A39FB007D027F0212228D023913B3
:102D0300124834124ADE204503022EDF7D027F0281
:102D130012228D124834E53130E62B30E028E532BB
:102D230030E023205720900122E0701A90016DE0DB
:102D3300FF6472600AEF646C6005EF64747033E4DF
:102D430090016DF0802C90016DE07008E53120E674
:102D5300037472F090016DE07008E53120E00374B4
:102D63006CF090016DE070A4E53220E09F7474F084
:102D7300809A9001867402F07D05FF12228D7D02F8
:102D83007F0212228D124834E53130E62B30E028E1
:102D9300E53230E023205720900122E0701A9001A1
:102DA3006DE0FF6472600AEF646C6005EF64747039
:102DB30033E490016DF0802C90016DE07008E531F3
:102DC30020E6037472F090016DE07008E53120E0B5
:102DD30003746CF090016DE070A4E53220E09F7401
:102DE30074F0809A2045097D027F0212228D80F4BF
:102DF3007F121248E9E490020FF0E53220E1297DC9
:102E0300017F0212228D90020FE004F0C394FA4076
:102E1300E990016DE0FF6005D39464400690016D75
:102E23007411F012453080D29001867403F0E531BD
:102E330020E01D7F12124C6090016DE0FF6005D30E
:102E43009464400690016D7408F0124530022D031E
:102E53009001BFE075F00AA4FD7F0212228D7F105E
:102E63001248E97F0E12215190019CE075F00AA4EB
:102E7300FD7F0212228D7F12124C60D25790018681
:102E83007404F0E490020FF0F0E53220E02E7D02AE
:102E93007F0212228D7F12124C6090020FE004F029
:102EA300D394FA40E490016DE0FF6005D39464404D
:102EB3000690016D7410F012453080CD90016DE0E5
:102EC300B47402E4F07F061222632045097D027F79
:102ED3000212228D80F49001867405F07D0A7F0230
:062EE30012228D022D03F6
:1010EE007F07122263124834124ADE20450302168D
:1010FE006FE4900183F07F0112228D2045097D055A
:10110E007F0212228D80F49001837401F09001838E
:10111E007402F0E53120E0127D027F0212228D90E2
:10112E00016DE070EE746CF080E9E53120E6177D1C
:10113E00017F0212228D900211E004F0C394FA4056
:10114E00E912452A80E42045097D057F0212228D91
:10115E0080F42045097D057F0212228D80F4E53250
:10116E0020E0127D027F0212228D90016DE070EE62
:10117E007474F080E9E53330E1127D027F021222B1
:10118E008D90016DE070EE747DF080E9E53430E015
:10119E00127D027F0212228D90016DE070EE74843A
:1011AE00F080E9E53230E7127D027F0212228D9047
:1011BE00016DE070EE747BF080E9E53330E0127D76
:1011CE00027F0212228D90016DE070EE747CF08031
:1011DE00E92051127D017F0212228D90016DE07087
:1011EE00F0747EF080EB2057097D017F0212228D74
:1011FE0080F490016DE0FF646C6022EF6472601DFC
:10120E00EF64746018EF647D6013EF6484600EEF1A
:10121E00647B6009EF647C6004EFB47E05E49001AA
:10122E006DF02045097D057F0212228D80F4124853
:10123E0034E53120E00302111B20E60302111BE509
:10124E003220E00302111B20510302111BE5333043
:10125E00E10302111BE53430E00302111BE53230CD
:10126E00E70302111BE53330E00302111B20570385
:10127E0002111B30E30302111B7F1A124B4240086E
:10128E00E53320E20302111B9001837403F07F11FA
:10129E001248E9124ADEE53430E441900196E0FD51
:1012AE0075F00AA4FF900119E0C39FE5F06480F881
:1012BE007480984003ED70249001B7E090016AF0BD
:1012CE009001C4E0900169F0900119E004F0E0F0A3
:1012DE007F2C124C607F2D1248E98029E53420E4E2
:1012EE0005E4900119F09001A3E090016AF09001DD
:1012FE00ABE0900169F07F2B124C607F2C1248E915
:10130E007F2D124C609001837406F0E4900211F070
:10131E00E53120E7207D017F0212228D900211E03F
:10132E0004F0C394FA40E990016D740FF07F11122E
:10133E004C60124530C257E53130E74730E6159024
:10134E00016DE0FF6005C39464400690016D740E5C
:10135E00F01245307F0E1221DA9001BBE075F00AD3
:10136E00A4FD7F0212228D90016DE06416600A7F4B
:10137E00161248E97F2A1248E9E53130E0057F066A
:10138E001222637D0F7F0212228D9001837407F06B
:10139E007F10124C607F141248E99001B1E075F095
:1013AE000AA4FD7F0212228D7F14124C607F11124F
:1013BE004C60900122741EF07F131248E990018355
:1013CE007408F0E53330E1297F151248E97F1612D3
:1013DE004C607F2F124C607F2A124C6090016DE0A2
:1013EE00FF6005D39464403490016D7419F00214BB
:1013FE0084E53430E0287F151248E97F16124C60E0
:10140E007F2F124C607F2A124C6090016DE0FF60BE
:10141E0005D39464400690016D7420F08058E53237
:10142E0020E7287F151248E97F16124C607F2F1295
:10143E004C607F2A124C6090016DE0FF6005D394E2
:10144E0064400690016D7417F0802BE53320E03F69
:10145E007F151248E97F16124C607F2F124C607F69
:10146E002A124C6090016DE0FF6005D39464400633
:10147E0090016D7418F01245309001BDE075F00AC0
:10148E00A4FD7F0212228D7F15124C6002166FD2C0
:10149E004A9001B1E075F00AA4FD7F0212228D7F01
:1014AE00141248E9D246D2507D027F0212228D904C
:1014BE0001837409F0E4900211F09001C9E06027F5
:1014CE00E53620E0127D027F0212228D90016DE042
:1014DE0070EE7494F080E990016DE0B49402E4F043
:1014EE00E5361392618026E53420E3127D027F02F9
:1014FE0012228D90016DE070EE7487F080E99001FC
:10150E006DE0B48702E4F0E534A2E392612061035A
:10151E0002166F900183740AF0C24A90019BE07527
:10152E00F00AA4FD7F0212228D9001D3E004F07028
:10153E00069001D2E004F0120022900171E0FCA3AB
:10154E00E0FDA3E0FEA3E02401FFE43EFEE43DFD4A
:10155E00E43CFC9001711218DAD258900124E0603C
:10156E000414F0802F90016D7461F01245307BFFF2
:10157E007A4D7996121A5C7F071221DA7D647F020A
:10158E0012228D7F021221DA7D647F0212228D7F5C
:10159E00061221DAE53330E304C2418002D24190D3
:1015AE0001ACE075F00AA490018DF0E4900211F008
:1015BE009001CCE09001D6F060137F291248E9909B
:1015CE0001C5E0900123F09001D6E014F0C2427FF5
:1015DE001C1248E99001AEE075F00AA4FD7F0212DC
:1015EE00228D7F1C124C609001AEE075F00AA4FDB6
:1015FE007F0212228D9001A4E0FF900211E004F010
:10160E00C39F50032042C6E4900123F07F29124C61
:10161E0060D24390016BE07002A3E060097D017F10
:10162E000212228D80ED900183740BF09001C9E0BF
:10163E00600EE53630E0177D0A7F0212228D80F2B1
:10164E00E53430E3097D0A7F0212228D80F22045B7
:10165E00097D057F0212228D80F47F07122263D24C
:0B166E00447D027F0212228D0210F367
:0100220022BB
:1009ED00E4900184F090023BF0A3F0E53130E6088D
:1009FD0020E7057F1B1248E9E53320E34090016DA8
:100A0D00E07003747FF07D237F0212228D90023BF4
:100A1D00E475F001121727FED3E5F09464EE94000F
:100A2D0040D690016DE06005D39464400690016D51
:100A3D00741BF07F1B124C6012453080BBE53330C8
:100A4D00E3107F1B124C60C25190016DE0B47F0228
:100A5D00E4F0C250124834124ADE2045030210E47D
:100A6D009001847401F0FF12228D2045097D057FD0
:100A7D000212228D80F4E490023BF0A3F0E53320C6
:100A8D00E34090016DE07003747FF07D027F0212F0
:100A9D00228D90023BE475F001121727FED3E5F08D
:100AAD009496EE940040D690016DE06005D3946469
:100ABD00400690016D741BF07F1B124C6012453087
:100ACD0080BB90016DE0B47F02E4F0C251E534309B
:100ADD00E4059001BA80039001B6E090023FF090DA
:100AED000169E0FF90023FE0FDC39F50557F021268
:100AFD00228D9001847402F07F16124C607F2F12AC
:100B0D004C609001B7E0FF90016AE0B507117F2BB3
:100B1D001248E99001AFE075F00AA490018EF01231
:100B2D004ADE3044787F141248E990023FE0FF908E
:100B3D000169E0C39FFD7F0212228D7F191248E9E2
:100B4D0080583044177F141248E9900169E0FD7F09
:100B5D000212228D7F191248E9124ADE900169E0D6
:100B6D00FF90023FE0C39FFD7F0212228D90018412
:100B7D007402F07F16124C607F2F124C609001B7FB
:100B8D00E0FF90016AE0B507117F2B1248E9900153
:100B9D00AFE075F00AA490018EF0124ADE90016A62
:100BAD00E075F00AA4FD7F0212228D7F14124C60B5
:100BBD00C246124ADE9001847403F0E490023BF0C9
:100BCD00A3F0304444E53330E40320E53C7D027F5F
:100BDD000212228D90016DE070037480F090023B43
:100BED00E475F001121727FED3E5F094FAEE9400A8
:100BFD0040D390016DE0FF6005D3946440069001F1
:100C0D006D741CF012453080BC9001ADE075F00A9A
:100C1D00A4FD7F0212228D9001847404F0E535202D
:100C2D00E11290016D745BF01245307D0A7F021266
:100C3D00228D80E99001847405F0E53520E712904E
:100C4D00016D742FF01245307D0A7F0212228D80C6
:100C5D00E99001847406F02045097D057F0212227A
:100C6D008D80F4E53530E51990016D742FF0124546
:100C7D00307D0A80052045EB7D057F0212228D8097
:100C8D00F4E53120E61312452A7D0A80052045F151
:100C9D007D057F0212228D80F4E53220E21990014C
:100CAD006D7412F01245307D0A80052045EB7D05EF
:100CBD007F0212228D80F49001847407F07F1A1246
:100CCD0048E9C252124ADEE490023BF0A3F0E5354A
:100CDD0020E3347D017F0212228D12483490023BB5
:100CED00E475F001121727FED3E5F094F4EE9401AC
:100CFD0040DC90016DE0FF6005D3946440069001E7
:100D0D006D742BF0124530E53530E3347D017F02F3
:100D1D0012228D12483490023BE475F00112172710
:100D2D00FED3E5F094C4EE940940DC90016DE0FF34
:100D3D006005D39464400690016D742BF01245301C
:100D4D009001847408F02044187F151248E9900131
:100D5D00BDE075F00AA4FD7F0212228D7F15124CA5
:100D6D0060C2449001C0E0FD7F0212228DD251E499
:100D7D0090023EF09001BCE0FF90023EE0C39F5018
:100D8D000F7D0A7F0212228D90023EE004F080E476
:100D9D007F19124C607D037F0212228DE490023B7D
:100DAD00F0A3F0E53320E2787D027F0212228D90D0
:100DBD00023BE475F001121727FED3E5F09496EE91
:100DCD009400404990016DE0FF6005D394644006A6
:100DDD0090016D741AF0C2471245307F1A124C60A3
:100DED007F19124C607F1E124C607F1F124C607F6A
:100DFD0020124C607F23124C60E53720E2057F24E2
:100E0D00124C607F25124C607F27124C6090016D53
:100E1D00E06005D39464408B90016D747EF0808307
:100E2D0090016DE0B47E02E4F09001847409F0E568
:100E3D003330E23B7F1A124C607F19124C60304701
:100E4D002EE53420E52920E626124C5C7F1F124C3E
:100E5D00607F20124C607F23124C60E53720E20545
:100E6D007F24124C607F25124C607F27124C6090BE
:100E7D000184740AF02045097D057F0212228D80C0
:100E8D00F4E53320E63D7D017F0212228D90016D48
:100E9D00E070037482F012483490023BE475F00167
:100EAD00121727FED3E5F094F4EE940140D3900190
:100EBD006DE0FF6005D39464400690016D741EF0E3
:100ECD0012453090016DE0B48202E4F0900184741B
:100EDD000BF02050097D027F0212228D80F4E53146
:100EED0020E6127D027F0212228D90016DE070EEE0
:100EFD007472F080E92052127D027F0212228D90D1
:100F0D00016DE070F07476F080EB90016DE0FF64A0
:100F1D0082600EEF64836009EF648D6004EFB4723C
:100F2D0005E490016DF02045097D057F0212228DAB
:100F3D0080F4E490023DF09001BEE090023DF0D2CD
:100F4D0043900184740CF0E53220E21990016D7428
:100F5D0012F01245307D0A80052045EB7D057F029C
:100F6D0012228D80F4E53130E61EE53330E619307E
:100F7D00E71630E213305010E53120E70B30520800
:100F8D00E53230E203021021E53120E61190016DCA
:100F9D00E06005D39464400690016D7472F0E53302
:100FAD0020E61190016DE06005D394644006900138
:100FBD006D7482F0E53320E71190016DE06005D38B
:100FCD009464400690016D7483F0E53320E2119036
:100FDD00016DE06005D39464400690016D747EF060
:100FED0020501190016DE06005D39464400690018E
:100FFD006D748DF0E53220E21190016DE06005D346
:10100D009464400690016D7476F07D027F02122289
:10101D008D020F7290016DE0FF64726018EF6482B3
:10102D006013EF6483600EEF647E6009EF648D6082
:10103D0004EFB47605E490016DF0900184740DF029
:10104D0090023DE075F00AA4FD7F0212228D7F1BF8
:10105D001248E9C251C243C254900184740EF0E4A7
:10106D0090023BF0A3F07D0A7F0212228DE5332022
:10107D00E34090016DE07003747FF07D027F0212FA
:10108D00228D90023BE475F001121727FED3E5F097
:10109D009496EE940040D690016DE06005D3946473
:1010AD00400690016D741BF07F1B124C6012453091
:1010BD0080BB90016DE0B47F02E4F0E53330E317BF
:1010CD0090016DE0B47F02E4F07F1B124C60C250C2
:1010DD00C251304102C2417D027F0212228D020AAD
:0110ED0061A1
:102EE900124834124ADEE53F30E70302309EE534EA
:102EF900A2E5926CA2E6926D5420FF90011FE02496
:102F09001AF582E43401F583EFF090011FE0FF0424
:102F1900F0EFC394044002E4F02045062047030281
:102F290030969001857401F0900178E07002A3E079
:102F390070057F231248E990017AE070057F241219
:102F490048E990017BE07002A3E070057F251248F3
:102F5900E97F1E1248E97F1F1248E9206C03306D92
:102F6900262054237F201248E9E53530E5199001E0
:102F7900857402F0D23F90016DE06005D3946440FE
:102F89000690016D742DF090011BE0FF90011AE08D
:102F99002FFF90011CE02FFFA3E02FFFA3E02FD309
:102FA90094034004D26C8002C26C206C21303E1E16
:102FB900206D1B9001857403F090016DE0FF6005A1
:102FC900D39464400690016D7426F01245307D015A
:102FD9007F0212228D206D03203D12306C030230D6
:102FE90096203E03023096306D030230969001859B
:102FF9007404F0206D0D206C0A7F0B1221517F2083
:10300900124C60203F0620470302309690018574D8
:1030190005F0E4900241F09001B8E075F005A4FFD5
:10302900900241E0C39FE5F06480F8748098501DD8
:10303900206C03306D082054057F201248E97D0279
:103049007F0212228D900241E004F080CA303F17BE
:10305900C23F90016DE0FF6005D394644006900182
:103069006D742DF0124530124C5C7F1F124C607F3D
:1030790020124C607F23124C60E53720E2057F2443
:10308900124C607F25124C607F27124C60A26D9212
:0F3099003DA26C923E7D027F0212228D022EE933
:103BF300E4900243F07BFF7A4D799A121A5C124AE1
:103C030042900243E014601614602014602B146089
:103C13004624046003023CC5EFB406E2801EEF7045
:103C2300028019EFB40602801F8025EFB4010280E1
:103C33000BEFB4060280118017EF7008900243E087
:103C430004F080BAEFB406089002437401F080AE2A
:103C5300E4900243F080A7EF75F014A4900124F0E0
:103C6300E4900243F0EF703290016D7462F01245FC
:103C7300307BFF7A4D79A4121A5C7F071221DA7D1B
:103C8300647F0212228D7F021221DA7D647F021289
:103C9300228D7F061221DA023C01205803023C01E7
:103CA3007BFF7A4D79A8900171E0FCA3E0FDA3E0CE
:103CB300FEA3E0FF9002471218DA121A5CC2580200
:0A3CC3003C01E4900243F0023C01D2
:104455009001887401F09001A1E075F00AA4FD7F38
:104465000212228DE490026DF09001B9E0FF9002F6
:104475006DE0C39F503A7F1D1248E99001A2E07597
:10448500F00AA4FD7F0212228D9001887402F07F4C
:104495001D124C609001A2E075F00AA4FD7F021286
:1044A500228D9001887403F090026DE004F080B9CC
:0B44B5009001887404F07F0B0221DAF4
:10469F007D327F0212228D124834124ADEE53F200E
:1046AF00E738E53120E4337F0C124C609001C3E012
:1046BF0075F00AA4900121F030451290016DE0FFD2
:1046CF006005D39464400690016D740CF0D24012D3
:1046DF004ADE1245307F0C1221DA7D057F0212224D
:0346EF008D80B407
:104910007D327F0212228D124834124ADEE53F209A
:10492000E72AE53120E5257F0D124C6030451290D5
:10493000016DE0FF6005D39464400690016D740D35
:10494000F0124ADE1245307F0D1221DA7D057F021A
:0549500012228D80C25F
:104649007D327F0212228D124834124ADEE53F2064
:10465900E73BE53230E605E53020E2317F10124CC8
:104669006030451C90016DE0FF6005D394644010F3
:10467900E53290016D20E6057416F080037402F0AE
:10468900C257124ADE1245307F0E1221DA7D057FAC
:064699000212228D80B127
:103DA000C2569002761218E600004B00E490027AA8
:103DB000F07B027D09FF123FCB900272EFF0124CB4
:103DC000DE900272EFF01225137D027F0212228D27
:103DD0003056F3900171E0FCA3E0FDA3E0FEA3E008
:103DE000FF78181218B4E4AD07FF7E02124D7A90E6
:103DF0000171E0FCA3E0FDA3E0FEA3E0FF78101258
:103E000018B4E4AD077F017E02124D7A900171E093
:103E1000FCA3E0FDA3E0FEA3E0FF78081218B4E4E1
:103E2000AD077402FFFE124D7A900171E0FCA3A36E
:103E3000A3E0FFE4AD077F037E02124D7AE4900217
:103E400071F0900271E0FF7E002496F582E4340167
:103E5000F583E0FD124D7A900271E004F0E0C39426
:083E60004040DFC256023DC6DE
:104745009001DAE07002A3E0600790016D7439F022
:10475500229001D8E07002A3E0600790016D7437E4
:10476500F022E53030E029C2477F011248E97F2673
:104775001248E97F04124C607D037F0212228DD21C
:1047850045E490016DF07F26124C607F271248E9C1
:014795002201
:06452A00740E90016DF01B
:104530003045537F041248E97F01124C60124ADE75
:10454000C245E53420E53D20E63A900184E0FFC312
:1045500094024006EFD39409402A7F1E124C607FDC
:104560001F124C607F20124C607F23124C60E53795
:1045700020E2057F24124C607F25124C607F2712B9
:104580004C608002D24790016DE0700374C5F02248
:1048C90090019EE075F00AA4FF90016BE5F0F0A35A
:1048D900EFF0D2529001DC7402F0A37458F07F2FEC
:1048E900EF75F0081216792438F8C000E6FEEF7566
:1048F900F008121679AFF07401A807088002C333D3
:07490900D8FC4ED000F6229D
:044C5C00C2477F1EAE
:104C6000EF75F0081216792438F8C000E6FEEF75EB
:104C7000F008121679AFF07401A807088002C33358
:084C8000D8FCF45ED000F6221E
:104B4200EF75F0081216792438F8E6FD7C00EF754F
:104B5200F008121679AFF074017E00A807088005EC
:104B6200C333CE33CED8F9FFEE5CFEEF5D4E24FFA9
:014B72002220
:10499300EF75F008121679FEC374079E2438F8E603
:1049A300FD7C00EF75F008121679AFF0C374079F12
:1049B300FF74017E00A807088005C333CE33CED829
:0B49C300F9FFEE5CFEEF5D4E24FF22CA
:104C8800EF75F008121679FEC374079E2430F8C039
:104C980000E6FEEF75F008121679AFF07401A80768
:0C4CA800088002C333D8FC4ED000F62276
:104C2F00EF75F008121679FEC374079E2430F8C092
:104C3F0000E6FEEF75F008121679AFF07401A807C1
:0D4C4F00088002C333D8FCF45ED000F622CA
:10483400C284C285D286D284A286927A7F3F307A9D
:1048440005124C888003124C2F900270743EF09035
:104854000270E0FFC3648094804020D285A28692D7
:104864007AC285307A05124C888008900270E0FF85
:0C487400124C2F900270E014F080D4224F
:104ADE00C283C283E4900270F0900270E0FFC36460
:104AEE008094C05018C2821249935004D280800222
:104AFE00C280D28200900270E004F080DCD283C2C9
:024B0E00812202
:102B1300900289EBF0A3EAF0A3E9F0E4900291F0CC
:102B2300C3ED9401EC94005003022CF790028FE064
:102B33002DFF90028EE03CFED3EF9455EE940040BF
:102B430003022CF7900194E0FEA3E0FFC3ED9FFF87
:102B5300EC9EFE900290E0147003022C4804600384
:102B6300022CFDD390028FE0940090028EE094003B
:102B73005003022CFDEF9404EE648094805025EF03
:102B830025E02438F8E6FD900289E0FBA3E475F024
:102B93000112173DA9F0FAED1216E1EF25E02439F1
:102BA300F8E68076C3EF9444EE64809480502190DD
:102BB3000289E0FBA3E475F00112173DA9F0FAE4E2
:102BC3001216E174922FF58274013EF583E0804A78
:102BD300C3EF9453EE648094805021900289E0FB0C
:102BE300A3E475F00112173DA9F0FAE41216E1749B
:102BF300392FF58274013EF583E0801EEF64534E56
:102C0300702D900289E0FBA3E475F00112173DA932
:102C1300F0FAE41216E190016DE0FD900289E0FB09
:102C2300A3E475F00112173DA9F0FAED1216E10FB6
:102C3300BF00010E90028FE024FFF090028EE0347B
:102C4300FFF0022B66304503022CEFD390028FE096
:102C5300940090028EE094005003022CFDEF940444
:102C6300EE64809480503A900289E0FBA3E475F00F
:102C73000112173DA9F0FA12169BFDEF25E0243847
:102C8300F8A605900289E0FBA3E475F00112173D55
:102C9300A9F0FA12169BFDEF25E02439F8A605806A
:102CA30035C3EF9444EE64809480502A90028AE402
:102CB30075F001121727900289E0FBA3E475F00178
:102CC30012173DA9F0FA12169BFD74922FF5827428
:102CD300013EF583EDF00FBF00010E90028FE0245B
:102CE300FFF090028EE034FFF0022C4E90029174BC
:102CF30002F080069002917401F0900291E0FF22AD
:10366C00900285EBF0A3EAF0A3E9F0E490028CF071
:10367C00C3ED9401EC940050030237B990028BE037
:10368C002DFF90028AE03CFED3EF9409EE940040AB
:10369C00030237B990016EE0FEA3E0FFC3ED9FFF7C
:1036AC00EC9E90028DF0A3EFF0D390028BE094008F
:1036BC0090028AE0940050030237BF90028DE070B4
:1036CC0004A3E06405703C900171E0FCA3E0FDA351
:1036DC00E0FEA3E0FF78181218B4900285E0FBA37B
:1036EC00E475F00112173DA9F0FAEF1216E1900102
:1036FC0071E0FCA3E0FDA3E0FEA3E0FF781012183C
:10370C00B4807790028DE07004A3E0640470319073
:10371C000171E0FCA3E0FDA3E0FEA3E0FF7808123A
:10372C0018B4900285E0FBA3E475F00112173DA9D3
:10373C00F0FAEF1216E1900171A3A3A3E0FF803A17
:10374C0090028DE0FEA3E0FFC39404EE64809480AD
:10375C00503CEF25E02430F8E6FF900285E0FBA317
:10376C00E475F00112173DA9F0FAEF1216E1900280
:10377C008DA3E025E02431F8E6FF900285E0FBA361
:10378C00E475F00112173DA9F0FAEF1216E1900260
:10379C008EE004F0700690028DE004F090028BE055
:1037AC0024FFF090028AE034FFF00236B590028CD0
:0937BC007401F090028CE0FF2280
:03000B000220349C
:10202F00C2AF80FE3212203385D00B75D008FAC2B2
:10203F008CE58A2407F58AE58C34B8F58CD28CECC4
:10204F002493F8E6BC0F0274FFC39581B4140040CB
:10205F00CF7910787216E608700BC2AFE630E10345
:10206F004418F6D2AF08D9EDEA8BD0D27F22E50C17
:10207F00FF232473F80F0808EFB50C06107F0343F6
:10208F008701BF10047F007873E630E4E800E50CA9
:10209F00C39F5020050C7492250CF8E6FDA681080D
:1020AF00E6AE0CBE0F0274FFCDF8E86D60E008E6F7
:1020BF00C0E080F6E50CD39F4027E50C2493F8E6AB
:1020CF00AE0CBE0F0274FFFD18E6CDF8E5816D6012
:1020DF0006D0E0F61880F5E50C2492C8F6150C80B2
:1020EF00D3E50C232473F87F04C2AFE630E003106E
:1020FF00E20C7F0030E10730E3047F0854F4C2E7BD
:10210F00C6D2AF54804207227892A681740F600620
:10211F00FF0876FFDFFB7F10E47872F608F608DF22
:10212F00FA78737630904D00740193C0E0E493C059
:10213F00E0438901758A00758CB8D28CD2AFD2A9D1
:02214F00220F5D
:08334300410310FF41030DFFDF
:104AAB00207D2FC2AC207C09207E06D27C8F998082
:104ABB001F900311E0FE04F0EE541F2452F8A607DA
:104ACB0090030EE0FF900311E06F541F7002D27D34
:034ADB00D2AC2238
:1046F20090026CEFF0BF0A21307D1912228A9003DA
:1047020010EFF0E4FBFAFD7F0112228D900310748A
:10471200FFF080E47F0D124AAB307D1912228A909D
:104722000310EFF0E4FBFAFD7F0112228D900310DB
:1047320074FFF080E490026CE0FF124AAB90026CCE
:03474200E0FF2273
:104A420090030CE0FF90030FE0B5071912228A9041
:104A5200030DEFF0E4FBFAFD7F0112228D90030DAE
:104A620074FFF080DB90030CE0FF04F0EF540724A6
:054A72004AF8E6FF22F6
:030023000243D4C1
:1043D400C0E0C0F0C083C082C0D075D010C27B30B2
:1043E400982FAF99C29890030CE02408FDE433FCA5
:1043F40090030FE06D7001EC600CE0FE04F0EE54ED
:1044040007244AF8A61790030DE0FFF46003122274
:1044140063209903307B2FC299900311E0FF90032E
:104424000EE06F601F207E1EE0FF04F0EF541F2497
:1044340052F8E6F599C27D900310E0FFF46007128C
:1044440022638002C27CD0D0D082D083D0F0D0E06E
:014454003235
:104D200053877F759850538EBF538EFE53890F4320
:0F4D30008920758BD0758DD0C2ABD28EC29922DF
:104B730000C2A40000000000000000D2A500000055
:104B830000D2A40000000000000000C2A500000045
:104B93000000000000C2A40000000000000000228A
:104D3F0000C2A400000000C2A500000000D2A40021
:0E4D4F00000000D2A5000000000000000022BD
:104DCC000000000000C2A400000000C2A50000000A
:0A4DDC0000D2A400000000C2A422CF
:104C0100124B7344A0FF124BA3124C12AF05124B6F
:014C1100A3FF
:104C1200D2A500C2A40000000000000000D2A4003F
:0D4C2200000000A2A5E433FF0000C2A422A0
:104CB400D2A500E4FEEF25E0FFD2A400000000002E
:104CC400000000A2A5E4334FFF0000000000000034
:0A4CD40000C2A40EEEB408DD0022B9
:104BA30000E4FEEF30E704D2A58002C2A5000000B6
:104BB30000D2A40000000000000000C2A400000016
:0F4BC3000000000000EF25E0FF0EEEB408D52241
:10488000AC07C2B6EC25E0FC124C01124B73EC44B1
:10489000A1FF124BA3124C12900204E064016019B4
:1048A000124CB4EF1216E1124DCC740129F9E43A1E
:1048B000FA900204E014F080DF124CB4EF1216E11B
:0948C000124C12124D3FD2B62237
:10495500C2B6EF25E0FF124C01900279E060191212
:10496500169BFF124BA3124C12740129F9E43AFA73
:10497500900279E014F080E1124D3FE4FFFE000063
:0E4985000FBF00010EBE5DF6BFC0F3D2B6221A
:104DB100AD07AC06ECFF7B017A0179FE9002047429
:0B4DC10001F01248809001FEE0FF228C
:104D7A00900273EDF0AB07AA06EAFFAD037B017A56
:0C4D8A000279739002797401F00249551F
:10334B004102EE02604002A704FF339403FF3502F3
:10335B0010FF3A0506FF42C417FF22EC00000000E5
:10336B000000000000000000000000000000000052
:10337B000000000000000000000000000000000042
:08338B0000000000000000003A
:103FCB00900273EFF0AE03E490027BF0ED600BC355
:103FDB0094014006EDD394F7400890027B7402F0F5
:103FEB00807B9002A3EDF0900273E0704A9002A4E4
:103FFB0074FFF0A3744DF0A374E6F090029DE4F00F
:10400B00A3F0A3F0AF06AD07C005900276E0FCA3CA
:10401B00E0FDA3E0FEA3E0FF90027E1218DA90020F
:10402B007AE0900282F09002A3E0FFD00512459057
:10403B0090027BEFF0800690027B7402F090027B83
:10404B00E0701A120003EF700890027B7403F0808B
:10405B000C900273E09002EDF0A37401F090027BE0
:03406B00E0FF2251
:1030A800900312EBF0A3EAF0A3E9F0AD07E4C39DA7
:1030B8004003023213ED947F4003023213C2AF90F3
:1030C8000312E0FBA3E0FAA3E04A4B700302319C31
:1030D800E4A3F0A3F0900315E0FEA3E0FFC394106F
:1030E800EE648094804003023183EF7802C333CECC
:1030F80033CED8F9FF24A8F58274023EF583E0FBAD
:10310800A3E0FAA3E04A4B603674A82FF582740254
:103118003EF583E0FBA3E0FAA3E0F9C003C002C0D8
:1031280001900312E0FBA3E0FAA3E0F9D082D08378
:10313800D0E06B7008E965827003EA6583702B74D0
:10314800A72FF58274023EF583EDF0900312E0FBA1
:10315800A3E0FAA3E0F974A82FF58274023EF58380
:10316800EBF0A3EAF0A3E9F08011900316E004F075
:103178007006900315E004F00230DD900315E0704E
:1031880004A3E0641060047F0080027F04900317AA
:10319800EFF08073E4900315F0A3F0900315E0FEC0
:1031A800A3E0FFC39410EE648094805055EF78023A
:1031B800C333CE33CED8F924A7F58274023EF58303
:1031C800E0B5052E900315E0FEA3E07802C333CEE8
:1031D80033CED8F9FF24A7F58274023EF583E4F0D4
:1031E80074A82FF58274023EF583E4F0A3F0A3F0EF
:1031F8008010900316E004F070A1900315E004F02D
:103208008099E4900317F0D2AF80069003177402F8
:07321800F0900317E0FF2214
:104B1000E490031CF09002EEE0B4011A90029DE0D4
:104B2000FBA3E0FAA3E04A4B601290029DA3A3E02E
:104B3000F9121966800690031C7406F090031CE0BD
:024B4000FF2252
:104CDE00E4900273F09002EEE0B4010A120026E4B2
:104CEE009002EEF080069002737406F0900273E06C
:024CFE00FF2293
:104A77009002EEE070149002A4A3E0FAA3E0F9120A
:104A870019669002EE7401F080079002EEE0B4011F
:104A970007E490031DF0800690031D7406F0900351
:044AA7001DE0FF22ED
:10251300E4900275F09002EEE060037F06227B01F7
:102523007A02797612000EEF6401600302271B9092
:102533000276E024FE604E04600302271B90027AB9
:102543007401F0A37402F0A37495F0A37401F0A3D3
:102553007402F0A3749AF07B017A027998123F1FF8
:10256300900275EFF0600302271B9002A3E0FF9037
:102573000298E0FE6F6006EE600302271B7F0212E3
:102583004E0102271B900295E0FBA3E0FAA3E0F9BA
:1025930012169B900299F090029C7401F0E4900251
:1025A30073F0A3F0900273E0FEA3E0FFC39410EE78
:1025B3006480948040030226A8EF7802C333CE33AD
:1025C300CED8F924A7F58274023EF583E0FF7003A9
:1025D3000226A8900299E0FE6F6003022697EE247C
:1025E300FD603424FD606C24F6604A24F970030214
:1025F3002674241360030226A890027A7401F0A3C0
:102603007402F0A3749AF0900295E0FBA3E0FAA39E
:10261300E0F9123394807690027A7401F0A3740285
:10262300F0A3749AF0900295E0FBA3E0FAA3E0F91B
:10263300123502805890027A7401F0A37402F0A359
:10264300749AF0900295E0FBA3E0FAA3E0F9123A42
:1026530005803A90027A7401F0A37402F0A3749A8D
:10266300F0900295E0FBA3E0FAA3E0F91242C480E4
:102673001C90027A7401F0A37402F0A3749AF09090
:102683000295E0FBA3E0FAA3E0F91222EC90029C8E
:10269300EFF08011900274E004F07006900273E092
:1026A30004F00225A7900298E0606D90029CE0FF81
:1026B300603FE490029AF0A3F0900299E04480FE18
:1026C300900295E0FBA3E0FAA3E0F990029AE47587
:1026D300F00112173D85F082F583EE1216F3900296
:1026E3009AE475F00112173D85F082F583EF121617
:1026F300F39002A3E0FF900295E0FBA3E0FAA3E0CE
:10270300F990029AE0FDA3E090027BCDF0A3EDF0F7
:0B271300123E68900275EFF07F00227C
:10271E0000C1814001C0804101C0804100C18140A3
:10272E0001C0804100C1814000C1814001C0804193
:10273E0001C0804100C1814000C1814001C0804183
:10274E0000C1814001C0804101C0804100C1814073
:10275E0001C0804100C1814000C1814001C0804163
:10276E0000C1814001C0804101C0804100C1814053
:10277E0000C1814001C0804101C0804100C1814043
:10278E0001C0804100C1814000C1814001C0804133
:10279E0001C0804100C1814000C1814001C0804123
:1027AE0000C1814001C0804101C0804100C1814013
:1027BE0000C1814001C0804101C0804100C1814003
:1027CE0001C0804100C1814000C1814001C08041F3
:1027DE0000C1814001C0804101C0804100C18140E3
:1027EE0001C0804100C1814000C1814001C08041D3
:1027FE0001C0804100C1814000C1814001C08041C3
:10280E0000C1814001C0804101C0804100C18140B2
:10281E0000C0C101C30302C2C60607C705C5C40472
:10282E00CC0C0DCD0FCFCE0E0ACACB0BC90908C8E2
:10283E00D81819D91BDBDA1A1EDEDF1FDD1D1CDCD2
:10284E0014D4D515D71716D6D21213D311D1D01042
:10285E00F03031F133F3F23236F6F737F53534F432
:10286E003CFCFD3DFF3F3EFEFA3A3BFB39F9F838A2
:10287E0028E8E929EB2B2AEAEE2E2FEF2DEDEC2C92
:10288E00E42425E527E7E62622E2E323E12120E002
:10289E00A06061A163A3A26266A6A767A56564A4F2
:1028AE006CACAD6DAF6F6EAEAA6A6BAB69A9A86862
:1028BE0078B8B979BB7B7ABABE7E7FBF7DBDBC7C52
:1028CE00B47475B577B7B67672B2B373B17170B0C2
:1028DE0050909151935352929656579755959454B2
:1028EE009C5C5D9D5F9F9E5E5A9A9B5B9959589822
:1028FE00884849894B8B8A4A4E8E8F4F8D4D4C8C12
:10290E004484854587474686824243834181804081
:1045EE00900282EBF0A3EAF0A3E9F0A3ECF0A3EDC6
:1045FE00F07FFF7DFF90028574FFF5F012173D45A9
:10460E00F06033900282E0FBA3E475F00112173DD7
:10461E00A9F0FA12169B6DFB7A00241EF582EA347D
:10462E0027F583E4936FFD741E2BF582EA3428F58B
:0B463E0083E493FF80BFEFFEEDFF223E
:10459000E4900283F0C2AFAF05C00790027EE0FC5A
:1045A000A3E0FDA3E0FEA3E0FF9002851218DA90DD
:1045B00002897408F0900282E090028AF0D007121B
:1045C0004108EF64016002801290027EA3A3E0FE26
:1045D000A3E0FF1247E7EF640160069002837403D3
:0E45E000F0D2AFE4900000F0900283E0FF22E2
:10002600C2AFE4900001F0FD7F01124BD2124DF4F5
:03003600D2AF2224
:0E4DE600C2AFE4FDFF124BD2124E0DD2AF222F
:103F1F00900277EBF0A3EAF0A3E9F0E4900280F0CF
:103F2F00A3F0C2AFC3900003E09404900002E094AA
:103F3F000040667B017A007904E0FCA3E0FD1245A6
:103F4F00EEEF4E7054900004E0FF900277E0FBA379
:103F5F00E0FAA3E0F9EF1216E1900003E024FDFF71
:103F6F00900002E034FFF990027DE0FBA3E0FAA39A
:103F7F00E0C98FF01217B67B017A007905C003C034
:103F8F0002C00190027AE0FBA3E0FAA3E0F9121954
:103F9F00179002807401F0801B7B017A00790490E6
:103FAF000002E0FCA3E0FD1245EEEF4E600690022A
:0C3FBF00817405F0D2AF900281E0FF2277
:103E6800E490027DF0C2AF900001E06401600302BB
:103E78003F11E924FFF9EA34FFFA900106EBF0A3B9
:103E8800EAF0A3E9F0900104E4F0A304F09001063D
:103E9800E0FBA3E0FAA3E0F9EF1216E190027BE061
:103EA800FEA3E0FF900105E02FF0900104E03EF052
:103EB800900106E0FBA3E0FAA3E0F9900104E0FC1E
:103EC800A3E0FD1245EE900104E475F00112173DE0
:103ED800FA740425F0F58274003AF583EFF0EEFFEA
:103EE800900104E475F00112173DFC740425F0F507
:103EF8008274003CF583EFF09000007401F0FDE45B
:103F0800FF124BD21244C0800690027D7405F0D295
:073F1800AF90027DE0FF22E3
:10435000E4900293F07B017A027994124E16900059
:1043600001E014600C1460351460042403705F8055
:104370005AE4900002F0A3F0900294E0FF90000253
:10438000E475F00112173DFC740425F0F582740009
:104390003CF583EFF09000017402F0802EC3900092
:1043A00002E09401501F900294E0FF900002E47537
:1043B000F00112173DFC740425F0F58274003CF501
:1043C00083EFF080069000017403F0124DF4900228
:0443D00093E0FF2255
:1044C000E4900293F0900000E014600C047055E456
:1044D000FD7F01124BD2804C900104E07002A3E0FA
:1044E000602C900106E0FBA3E0FAA3E0F912169B12
:1044F000FF12003E900107E475F0011217279001AA
:1045000005E024FFF0900104E034FFF080167F0303
:10451000124E01900293EFF0E4FD7F01124BD2E4C2
:0A452000900000F0900293E0FF22EB
:104A0900E4900292F0900001E024FE601314601A11
:104A190024037016E4FF124E01900292EFF0800A0F
:104A29007F01124E01900292EFF0124E0D9000019B
:094A39007401F0900292E0FF22EA
:1047E700EF4E602BEF25E0FFEE33FE7C007D0C12D1
:1047F700196CA804A905AA06AB077F007E807D83F4
:104807007C65121811900318EEF0A3EFF08007E40F
:10481700900318F0A3F0E4F5D8F5D975DA489003BA
:0D48270018E0FEA3E0F5EAEEF5FA7F0122AD
:0D4DF400E4F5D875DA49F5E9F5F9D2DE22CB
:094E0D00C2DE75DA48E4F5D82292
:03003B000249CEA9
:1049CE00C0E0C0F0C083C082C0D075D000C000C0AF
:1049DE0001C002C003C004C005C006C007124A09C8
:1049EE00D007D006D005D004D003D002D001D0001D
:0B49FE00D0D0D082D083D0F0D0E032C7
:0100390022A4
:08000300E490031AF07F0122D2
:0C4E010090031A7401F0A3EFF07F01226F
:10000E00E4FF90031AE0600BA3E01216E1E4900304
:04001E001AF00F22A3
:104BD200EF6007ED6004D2908015EF700AED600778
:104BE200D290539AEF800BEF600CED7009C29043A4
:0F4BF2009A1043AF0122C290539AEF53AFFE22A5
:10410800900284EFF07F007EC27D017C00A3E0F87E
:10411800A3E0F9A3E0FAA3E0FBD31218A35016E436
:104128007F807E25FDFC900285E0F8A3A3A3E0C371
:104138001218A3500A9002851218E600004B00904E
:104148000285E0F8A3E0F9A3E0FAA3E0FB7F007E94
:10415800807D517C01121811E47B20FAF9F81218BD
:1041680011EFF404F59C900284E0B4011553877FA5
:10417800759850438E04438E01438E10C29CC2AC86
:104188008012538EF7759A50438E04438E10539ABB
:09419800EF53AFFEC2907F01223B
:05003E008F9B7F0122F1
:084E1600E59B1216E17F012269
:034E1E000244C08B
:034E2100024350F9
:03004300024796DB
:10479600C0E0C0F0C083C082C0D075D000C000C0E9
:1047A60001C002C003C004C005C006C007E59A30B8
:1047B600E006539AFE124E21E59A30E109539AFD1E
:1047C600309003124E1ED007D006D005D004D00379
:1047D600D002D001D000D0D0D082D083D0F0D0E0AB
:0147E60032A0
:01003A0022A3
:1042C400900277EBF0A3EAF0A3E9F0E490027FF028
:1042D40090027AE0FBA3E0FAA3E0F9121753640515
:1042E40045F0705C900277E0FBA3E0FAA3E0F9905C
:1042F40000011216B490027DF0A3E4F090000212C3
:1043040016B4FF90027DE0F0A3E04FF0E004F070FB
:104314000690027DE004F0E92403F9E43AFA9002FD
:104324007DE0FCA3E0FD90028EE4F0A304F0A3F092
:10433400122B13EF6010124D5D90027FEFF0800698
:0C43440090027F7403F090027FE0FF22E3
:103A0500900277EBF0A3EAF0A3E9F0E4900281F0ED
:103A150090027AE0FBA3E0FAA3E0F9121753C394EE
:103A250006E5F094005003023AF2900277E0FBA31A
:103A3500E0FAA3E0F99000011216B490027DF0A31C
:103A4500E4F09000021216B4FF90027DE0F0A3E0CE
:103A55004FF0E004F0700690027DE004F090000362
:103A65001216B490027FF0A3E4F09000041216B48D
:103A7500FF90027FE0F0A3E04FF09000051216B42E
:103A8500FF90027FE0FCA3E0FDC39401EC940040AD
:103A95005CD3ED9478EC94005053ED25E06F704DB8
:103AA500900277E0FBA3E0FAA3E02406F9E43AFAF2
:103AB50090027DE0FCA3E0FDA3E0FFA3E090028E71
:103AC500CFF0A3EFF0A37401F0122B13EF600A12ED
:103AD5004D5D900281EFF0801A90027AE0FBA3E041
:103AE500FAA3E0F9E475F0051217B6800690028195
:093AF5007403F0900281E0FF224D
:10350200900277EBF0A3EAF0A3E9F0E4900284F0F2
:1035120090027AE0FBA3E0FAA3E0F91217536405E4
:1035220045F06003023660900277E0FBA3E0FAA365
:10353200E0F99000011216B490027DF0A3E4F0903D
:1035420000021216B4FF90027DE0F0A3E04FF0E01B
:1035520004F0700690027DE004F09000031216B4AD
:1035620090027FF0A3E4F09000041216B4FF7E00F4
:1035720090027FEEF0A3EFF0C39401EE94005003AB
:10358200023660D3E0947D90027FE0940040030213
:103592003660900277E0F9A3E0FAA3E0900281C9D5
:1035A200F0A3EAF0A3E9F090027AE0FBA3E0FAA329
:1035B200E0F9E4F5F01217B6900281E0FBA3E4759E
:1035C200F00112173DA9F0FA74031216E190027A83
:1035D200E0FBA3E0FAA3E0F9E475F00112177E9094
:1035E200027FA3E025E0FFA3E0FBA3E475F0011254
:1035F200173DA9F0FAEF1216E190027AE0FBA3E080
:10360200FAA3E0F9E475F00112177E900281E0FB63
:10361200A3E0FAA3E0F990027DE0FCA3E0FDA3E0C1
:10362200FFA3E090028ECFF0A3EFF0E4A3F0122B01
:1036320013EF600A124D5D900284EFF08026900233
:1036420080E025E0FF90027FE033FE90027AE0FB0B
:10365200A3E0FAA3E0F9EE8FF012177E8006900243
:0A366200847403F0900284E0FF225C
:1022EC00900277EBF0A3EAF0A3E9F0E4900288F017
:1022FC0090027AE0FBA3E0FAA3E0F9121753C3941F
:10230C000AE5F09400500302250D900277E0FBA340
:10231C00E0FAA3E0F99000011216B490027DF0A34C
:10232C00E4F09000021216B4FF90027DE0F0A3E0FE
:10233C004FF0E004F0700690027DE004F090000392
:10234C001216B490027FF0A3E4F09000041216B4BD
:10235C00FF90027FE0F0A3E04FF09000051216B45E
:10236C00900281F0A3E4F09000061216B4FF9002E4
:10237C0081E0F0A3E04FF0E004F07006900281E001
:10238C0004F09000071216B4900283F0A3E4F090CE
:10239C0000081216B4FF900283E0F0A3E04FF09017
:1023AC0000091216B4FD90027FE0FEA3E0FFC39477
:1023BC0001EE94005003022507D3EF947DEE9400B8
:1023CC004003022507900283E0FEA3E0FFC39401C3
:1023DC00EE94005003022507D3EF9479EE9400405D
:1023EC0003022507EF25E0FFEE33FEED6F7001EEE3
:1023FC006003022507900277E0FBA3E0FAA3E02438
:10240C000AF9E43AFA900281E0FCA3E0FDA3E0FFB4
:10241C00A3E090028ECFF0A3EFF0A37401F0122B87
:10242C0013AD07ED60030224F9900277E0F9A3E005
:10243C00FAA3E0900285C9F0A3EAF0A3E9F09002B8
:10244C007AE0FBA3E0FAA3E0F9E4F5F01217B690FA
:10245C000285E0FBA3E475F00112173DA9F0FA74B4
:10246C00171216E190027AE0FBA3E0FAA3E0F9E47C
:10247C0075F00112177E90027FA3E025E0FF900219
:10248C0085E0FBA3E475F00112173DA9F0FAEF12F9
:10249C0016E190027AE0FBA3E0FAA3E0F9E475F010
:1024AC000112177E900285E0FBA3E0FAA3E0F990FD
:1024BC00027DE0FCA3E0FDA3E0FFA3E090028ECF41
:1024CC00F0A3EFF0E4A3F0122B13AD07ED701E9008
:1024DC000280E025E0FF90027FE033FE90027AE07C
:1024EC00FBA3E0FAA3E0F9EE8FF012177EED60117A
:1024FC00FF124D5D900288EFF08006900288740305
:07250C00F0900288E0FF22BD
:1037C5009002EFEBF0A3EAF0A3E9F09002F5E0FF39
:1037D5009002FCE4F0A3EFF0EDAE047803CEC31342
:1037E500CE13D8F9FF9002FAEEF0A3EFF09002FAAB
:1037F500E0FEA3E07803C333CE33CED8F9FFC3EDA3
:103805009FFFEC9E9002FCE0FEA3E0A80708800560
:10381500C333CE33CED8F9F0EE9002FCF09002F42B
:10382500E0FF74017E00A807088005C333CE33CEC0
:10383500D8F924FFFFEE34FF9002F8F0A3EFF0A3D0
:10384500A3E075F008A4FFC3ED9FFF9002F8E0FE2A
:10385500A3E0A807088005C333CE33CED8F9F0EE30
:103865009002F8F09002EFE0FBA3E0FAA3E0F990F4
:1038750002FAE0FEA3E0F5828E831216B4FF9002F1
:10388500F6E4F0A3EFF09002FBE02401FF9002FACA
:10389500E034008F82F5831216B4FE9002F6E04EF6
:1038A500F0A3E0F0A3E0FEA3E0F4FFEEF4FE900247
:1038B500F6E05EFEA3E05FFF9002FCE04EFEA3E0B3
:1038C5004FFF9002F6EEF0A3EFF09002FAE0FCA3B2
:1038D500E0FDF5828C83EF1216F39002F6E08D82FF
:0638E5008C83A30216F320
:103CCD009002FEEBF0A3EAF0A3E9F0EDAE04780369
:103CDD00CEC313CE13D8F9FF900308EEF0A3EFF087
:103CED00900308E0FEA3E07803C333CE33CED8F9BA
:103CFD00FFC3ED9FFFEC9E90030AF0A3EFF090033E
:103D0D0003E0FF74017E00A807088005C333CE339E
:103D1D00CED8F924FFFFEE34FF900306F0A3EFF0A9
:103D2D009002FEE0FBA3E0FAA3E0F9900308E0FEA9
:103D3D00A3E0F5828E831216B4FF900304E4F0A382
:103D4D00EFF0900309E02401FF900308E034008FA9
:103D5D0082F5831216B4FE900304E04EF0A3E0F05A
:103D6D0090030AA3E0FF900304E0FEA3E0A8070878
:103D7D008005CEC313CE13D8F9FF900304EEF0A344
:103D8D00EFF0A3E05EFEA3E05FFF900304EEF0A36F
:033D9D00EFF02222
:104D5D00EF14600C24FA600C2407700CE4FE800A3A
:0D4D6D007E0280067E0680027E04AF0622D4
:10339400900277EBF0A3EAF0A3E9F0E4900284F062
:1033A40090027AE0FBA3E0FAA3E0F9121753640554
:1033B40045F060030234F6900277E0FBA3E0FAA341
:1033C400E0F99000011216B490027DF0A3E4F090AD
:1033D40000021216B4FF90027DE0F0A3E04FF0E08B
:1033E40004F0700690027DE004F09000031216B41D
:1033F40090027FF0A3E4F09000041216B4FF900250
:103404007FE0FEA3E04FFF90027FEEF0FEA3EFF01B
:10341400C39401EE940050030234F6E0947D9002CC
:103424007FE0940040030234F6900277E0F9A3E0D1
:10343400FAA3E0900281C9F0A3EAF0A3E9F09002B4
:103444007AE0FBA3E0FAA3E0F9E4F5F01217B690F2
:103454000281E0FBA3E475F00112173DA9F0FA74B0
:10346400041216E190027AE0FBA3E0FAA3E0F9E487
:1034740075F00112177E90027FA3E025E0FFA3E020
:10348400FBA3E475F00112173DA9F0FAEF1216E15F
:1034940090027AE0FBA3E0FAA3E0F9E475F00112EC
:1034A400177E900281E0FBA3E0FAA3E0F990027D8D
:1034B400E0FCA3E0FDA3E0FFA3E090028ACFF0A329
:1034C400EFF012366CEF600A124D5D900284EFF05B
:1034D4008026900280E025E0FF90027FE033FE909A
:1034E400027AE0FBA3E0FAA3E0F9EE8FF012177E74
:0E34F40080069002847403F0900284E0FF22B0
:10215100EFD3940F40037FFF2274732F2FF8E620F3
:10216100E5F4C2AFE64430F6D2AFAE0CEEC39F50F9
:10217100210E74922EF8E6F908E618BE0F0274FFDC
:10218100FDED69600909E71919F7090980F31616C8
:1021910080DAEED39F400405810581EED39F402272
:1021A10074922EF808E6F9EEB50C02A9811806061C
:1021B100E6FDED6960091919E70909F71980F31EB0
:1021C10080D9EF2492F8E604F8EF2F04904D0093A4
:0921D100F608EF2F93F67F0022BF
:1021DA00EFD3940F40037FFF22EF232473F8E630F6
:1021EA00E5F4C2AFE6548CF6D2AFE50CB5070A7433
:1021FA00922FF8E6F58102207D502E74932FF8E68F
:10220A00BF0F0274FFFD18E6F974922FF8FBE6FC83
:10221A00E96C6008A805E7F61D1980F4A803A6056D
:10222A001FE50CB507E37F002274932FF8E6FD182B
:10223A0086010F74922FF8A601088604E50CB507EB
:10224A0002AC81ED6C60080D09A805E6F780F4E59B
:09225A000CB507DE89817F00222A
:10226300EFD3940F40037FFF22EF232473F8C2AF11
:10227300E630E50530E002D2E4D2E2C6D2AF7F0019
:0722830030E2010F02207A96
:03228A00AF0C2274
:10228D008FF0E4FFFEE50C232472F8C2A930F70DA0
:10229D007F08E6600B2DF660325030800730F10676
:1022AD00EDF660277E020830F010C2AFE610E7258C
:1022BD000E30E20CD2AF7F048014C2AFE610E715EA
:1022CD0054EC4EF6D2AFD2A902207D7F0808EF4420
:0F22DD0083F4C2AF56C6D2AFD2A954804FFF22AE
:10424400022117E493A3F8E493A34003F68001F258
:1042540008DFF48029E493A3F85407240CC8C3337B
:10426400C4540F4420C8834004F456800146F6DF4A
:10427400E4800B010204081020408090321FE47E89
:10428400019360BCA3FF543F30E509541FFEE4933F
:10429400A360010ECF54C025E060A840B8E493A306
:1042A400FAE493A3F8E493A3C8C582C8CAC583CA31
:1042B400F0A3C8C582C8CAC583CADFE9DEE780BEE9
:013393000039
:10167900C2D530F707B2D563F0FF05F030E70CB2F9
:10168900D5F4048463F0FF05F080018430D502F4B9
:02169900042229
:10169B00BB010689828A83E0225002E722BBFE024D
:0916AB00E32289828A83E4932280
:1016B400BB010CE58229F582E5833AF583E02250EB
:1016C40006E92582F8E622BBFE06E92582F8E22235
:0D16D400E58229F582E5833AF583E493224F
:1016E100BB010689828A83F0225002F722BBFE01E8
:0216F100F322E2
:1016F300F8BB010DE58229F582E5833AF583E8F02D
:10170300225006E92582C8F622BBFE05E92582C8D8
:02171300F222C0
:10171500EF8DF0A4A8F0CF8CF0A428CE8DF0A42EE8
:02172500FE22A2
:10172700C5F0F8A3E028F0C5F0F8E582158270024D
:061737001583E038F022EA
:10173D00A3F8E0C5F025F0F0E5821582700215835F
:06174D00E0C838F0E822BC
:10175300BB010A89828A83E0F5F0A3E02250068761
:10176300F009E71922BBFE07E3F5F009E319228923
:0B177300828A83E493F5F07401932256
:10177E00BB010789828A83021727500B09C5F02700
:10178E00F7C5F01937F722BBFE0D09F8E325F0F384
:10179E00C5F019E338F322F889828A837401932500
:0817AE00F0C5F0F8E4933822C5
:1017B600BB010A89828A83F0E5F0A3F0225006F77E
:0F17C60009A7F01922BBFE06F3E5F009F319227B
:1017D50075F008758200EF2FFFEE33FECD33CDCCCB
:1017E50033CCC58233C5829BED9AEC99E58298404E
:1017F5000CF582EE9BFEED9AFDEC99FC0FD5F0D62B
:10180500E4CEFBE4CDFAE4CCF9A88222B800C1B954
:101815000059BA002DEC8BF084CFCECDFCE5F0CB92
:10182500F97818EF2FFFEE33FEED33FDEC33FCEBCB
:1018350033FB10D703994004EB99FB0FD8E5E4F986
:10184500FA227818EF2FFFEE33FEED33FDEC33FC73
:10185500C933C910D7059BE99A4007EC9BFCE99A67
:10186500F90FD8E0E4C9FAE4CCFB2275F010EF2FAC
:10187500FFEE33FEED33FDCC33CCC833C810D707AC
:101885009BEC9AE899400AED9BFDEC9AFCE899F8E7
:0E1895000FD5F0DAE4CDFBE4CCFAE4C8F9227A
:1018A300EB9FF5F0EA9E42F0E99D42F0E89C45F09B
:0118B3002212
:1018B400E8600FECC313FCED13FDEE13FEEF13FF12
:0318C400D8F12236
:1018C700E8600FEFC333FFEE33FEED33FDEC33FC7F
:0318D700D8F12223
:0C18DA00ECF0A3EDF0A3EEF0A3EFF02281
:1018E600A8828583F0D083D0821218FD1218FD12CB
:1018F60018FD1218FDE473E493A3C583C5F0C583F0
:10190600C8C582C8F0A3C583C5F0C583C8C582C84B
:0119160022AE
:10191700BB011A89828A83D0F0D0E0F8D0E0F9D0F1
:10192700E0FAD0E0FBE8C0E0C0F00219B95016E9D0
:10193700F8D083D082D0E0F9D0E0FAD0E0FBC082C3
:10194700C083021999BBFE16E9F8D083D082D0E094
:0F195700F9D0E0FAD0E0FBC082C0830219C222AF
:061966008A838982E4730C
:10196C00EC8EF0A4CCC5F0CCCDF8EFA4CEC5F02D08
:10197C00FDE43CFCE8A42EC8C5F03DFDE43CFCEFC6
:0D198C00A4FFE5F028FEE43DFDE43CFC2254
:1019F100E5452447F582E43402F583E0054522906C
:101A01000244307603900247E475F0011219A202F4
:101A1100169B206FE97F2ED26F8018EF540F249010
:101A2100D43440D4FF30730BEF24BFB41A005003F9
:101A31002461FFE546600215460549E54970020546
:101A41004830760E900244E475F0011219A2EF02BB
:101A510016E10246F27403D2768003E4C276F545BC
:101A61009002441219B9E4F546F548F549E5466096
:101A7100077F20121A3480F57547FFC270C26FC20A
:101A810071C272C274C275C277121A00FF700D3032
:101A910076057F00121A45AF49AE4822B4255FC2D0
:101AA100D5C273121A00FF24D0B40A00501A75F07F
:101AB1000A784630D50508B6FF0106C6A426F620E9
:101AC100D5047002D27280D924CFB41A00EF500429
:101AD100C2E5D273021C46D27080C6D26F80C0D2DA
:101AE1007180BCD2D580BAD27480B47F20121A34EE
:101AF1002071077401B5460040F11219F1FF121A65
:101B010034021A6ED277D27580951219F1FB12192F
:101B1100F1FA1219F1F94A4B700679177A1D7BFF18
:101B210020712EE546602A7E008E82758300121692
:101B3100B460060EEE654770F0C2D5EBC0E0EAC0B6
:101B4100E0E9C0E0EE121C8DD0E0F9D0E0FAD0E07F
:101B5100FB12169BFF60AAEBC0E0EAC0E0E9C0E01F
:101B6100121A34D0E02401F9D0E03400FAD0E0FBBD
:101B7100E5470460DCD547D980877BFF7A1C7989EA
:101B8100D271809C791080027908C275C277800871
:101B9100D2D5790A8004790AC2D5E547047002F5E5
:101BA10047E4FAFDFEFF1219F1FC7B0820701312C5
:101BB10019F1FD7B10306F0A1219F1FE1219F1FFB4
:101BC1007B20EC3382D592D55013C3E4306F069F4E
:101BD100FFE49EFEE42070039DFDE49CFCE4CBF851
:101BE100C270EC700CCFCECDCCE824F8F870F38045
:101BF10017C3EF33FFEE33FEED33FDEC33FCEB3374
:101C0100FB994002FB0FD8E9EB307005F8D0E0C436
:101C110048B270C0E00AEC4D4E4F78207B0070C294
:101C2100EAB5470040BCC0E0121C8FD0F0D0E020E4
:101C31007004C4C0E0C4B270C0F0121A1DD0F0D557
:101C4100F0EB021A6E1219CB1B0B531B85581ADCD1
:101C51004C1AD8421B894F1B91441B91491AF143DD
:081C61001B97551B7B461B7B02
:101C6900451B7B471D37501AE02D1AE42E1B072B05
:101C79001AE8231B05201D202A1AA04800001AFF74
:101C89003F3F3F00790AA2D5207214307409B91078
:101C9900020404B9080104A2D520750250010420E8
:101CA90071689271B546005034C0E07F20307219D6
:101CB9007F30A27172757274500F121CE6C271C224
:101CC90075C274C2777F30800F307403E9C0E012A7
:101CD9001A34307403D0E0F9D0E0B546CC3074172B
:101CE9007F30B9100C121A347F583073077F78800F
:101CF90003B90803121A343071057F2D021A347F93
:101D0900202077F87F2B2075F322927180CF286EDF
:101D1900756C6C2900D2701219F13070F8C27078A4
:101D29004630D50108F6021AA02D50434958121918
:101D3900F12403B405004001E4901D3293121A25E1
:0D1D4900743A121A25D272754604021B85E9
:09199900EBF608EAF608E9F62273
:1019A200F8E0FBA3A3E0F925F0F0E58215827002CE
:0719B2001583E0FA38F02272
:0919B900EBF0A3EAF0A3E9F0222F
:0919C200EBF208EAF208E9F22256
:1019CB00D083D082F8E4937012740193700DA3A3AB
:1019DB0093F8740193F5828883E4737402936860BF
:0619EB00EFA3A3A380DFBF
:00000001FF
