:024CA200437756
:024CA40040C30B
:024CA6000046C6
:024CA8003AC50B
:024CAA001D42A9
:024CAC0038B21C
:024CAE0010DA1A
:024CB00009D920
:024CB2002EB220
:024CB4002AFADA
:024CB6003C8D33
:024CB80043F7C0
:024CBA00464171
:024CBC0048B2FC
:024CBE0045EBC4
:024CC0003D5C59
:0300000002415A60
:0C415A00787FE4F6D8FD7581A10241A138
:104D38002A2A2D0073746172746564210A002A2A74
:0B4D48002E002A2A5028256C64290048
:1031E800420194000142016E00014101D7EF6040A5
:1031F80001290A050303050A032801002300030423
:10320800140F0F1A010501006401040407030A0AD8
:103218000F0F030F14010000140A01000314140512
:10322800020000141400000000000000000000006C
:1032380000AAC14AC149C14BC147C148C1D74201CF
:1032480075000041012300420192000042019000F4
:10325800004201DC00004201DA00004201D800000F
:103268004101D6004201250000420127000041012A
:103278002403C180C181C104C105C106C107C108B9
:10328800C10AC10DC10FC110C112C114C116C117A5
:10329800C119C11CC11DC19FC1A1C1A3C1A5C1271D
:1032A800C129C12BC12DC12EC130C131C1B3C1B596
:1032B800C136C1384101090041010A0041010B0032
:1032C80042010C000041010E0041010F00410110B4
:1032D80000410111004201120000420114000042A5
:1032E8000116000041011800C13AC13B4101190013
:1032F800C13CC13DC13E45011A000000000041012A
:023308001F00A4
:10437700122CE07F0212213D7DFA7F021222797F03
:104387000912213D7D0A7F021222797F0312213D06
:104397007D0A7F021222797F0412213D7D0A7F0266
:1043A7001222797F0512213D7D0A7F021222797F31
:1043B7000612213D7D0A7F021222797F0712213DD5
:1043C7007D0A7F021222797F0812213D7D0A7F0232
:1043D7001222797F0A12213D7D0A7F021222797FFC
:1043E7000F12213D7D0A7F02122279E4FF0221C6C6
:102CE000124CC2E490016DF0900177F0A3F0A3F0D4
:102CF000A3F0A3F0A3F0900121F0A3F0900120F045
:102D0000900170F0C254C252C24090016BF0A3F027
:102D100090018EF0A3F0C24CC24EC24DC243C23FDE
:102D2000C256D253C242C251C246124A809001FAE0
:102D30001218D200000000E47F02FEFDFC9001FAB0
:102D4000E0F8A3E0F9A3E0FAA3E0FBC312188F5068
:102D500068E49001F9F09001F9E0FFC36480948881
:102D6000500B74382FF8E4F6E004F080E9E49001A9
:102D7000F9F09001F9E0FFC3648094905019EF33AB
:102D800095E0FE747D2FF58274013EF583E4F090AA
:102D900001F9E004F080DB9001FAE0FCA3E0FDA380
:102DA000E0FEA3E02401FFE43EFEE43DFDE43CFC44
:102DB0009001FA1218C6022D377F0412488B7F014A
:102DC000124C02124A80C244E49001F9F09001F9D9
:102DD000E0FFC3648094C05025EF3395E0FE124DB0
:102DE000539001F9E0FD3395E0FC74962DF5827463
:102DF000013CF583EFF09001F9E004F080CF124739
:102E0000D67F017E02124D53E4FCFDFE78101218AD
:102E1000B3C004C005C006C0077F007E02124D5338
:102E2000E4FCFDFE78181218B3D003D002D001D014
:102E300000EF2BFFEE3AFEED39FDEC38FCC004C08C
:102E400005C006C0077402FFFE124D53E4FCFDFEF0
:102E500078081218B3D003D002D001D000EB2FFFB6
:102E6000EA3EFEE93DFDE83CFCC004C005C006C0EA
:102E7000077F037E02124D53E4FCFDFED003D00217
:102E8000D001D000EB2FFFEE3AFEED39FDEC38FC1F
:102E90009001711218C6E53330E21230E30FE535C8
:102EA00030E30A9001711218D2000000007F2E0258
:022EB000488B4D
:100046007D647F021222791247D6124A807D017F93
:1000560002122279E53F20E7EEE530139220E530E3
:10006600A2E19202A2E4920330033220052FE53783
:1000760030E0079001D4E04401F07F30124AE450AA
:10008600079001D4E054FEF0D25574C61244CEE572
:100096003030E4097DC87F0212227980F230202EAA
:1000A600301F2B30021130040E20000B20030820D5
:1000B60005051246E7803230032F30052C20012932
:1000C60020022620042390016D74C6F0801820209B
:1000D60018201F1590016DE0FF6005D3946440065B
:1000E60090016D7463F01244D2300205300402D2DE
:1000F60000200205200402C200300305300502D2AA
:1001060001200305200502C201A220921FA202922D
:1001160004A2039205E53130E6057F13124C0290E6
:10012600016DE06005C3946440077F06124C0280AF
:100136000E90016DE0C3946450057F0612488B90C3
:100146000178E07002A3E0600E900179E024FFF0F0
:10015600900178E034FFF090017AE0600214F090AC
:10016600017BE07002A3E0600E90017CE024FFF0CA
:1001760090017BE034FFF0900122E0600214F090E1
:100186000121E07F03600B12488B900121E014F0FF
:100196008003124C02900177E07F18600B12488BA7
:1001A600900177E014F08003124C02E53230E41A35
:1001B60030E5179001C2E075F00AA4FF900178E5DA
:1001C600F0F0A3EFF07F23124C02E53030E30B2072
:1001D60006082052057F0112213DE530A2E3920672
:1001E600E53230E3142007119001B4E075F00AA45B
:1001F60090017AF07F24124C02E532A2E39207A224
:10020600E4921E301E15201D129001C1E075F00A01
:10021600A4FF900175E5F0F0A3EFF0900175E07092
:1002260002A3E0600E900176E024FFF0900175E0F5
:1002360034FFF0A21E921DE534A2E39213A2499266
:10024600323032342031319001D4E030E02A30139C
:10025600149001C8E075F00AA4FF900114E5F0F0CF
:10026600A3EFF080137F3012488BD247900125749C
:1002760001F0A3742CF0C24BA2329231E53030E586
:1002860002D254E53530E42B200A2830542590015B
:10029600B5E075F00AA4900177F09001A0E075F042
:1002A6000AA4FF90017BE5F0F0A3EFF07F25124C46
:1002B60002C254E535A2E4920AE533A2E29237304F
:1002C600370C20360990016DE0B47E02E4F0A237C7
:1002D6009236E533A2E3923930390C203809900181
:1002E6006DE0B47F02E4F0A2399238E534A2E192DF
:1002F6001A301A2120191E900111E070189001B2CF
:10030600E075F00AA4FF900192E5F0F0A3EFF090FB
:10031600011174FAF0900111E0600214F09001925C
:10032600E07002A3E0600E900193E024FFF09001DC
:1003360092E034FFF0900192E07004A3E064017053
:10034600107F3212488B7F27124C0290010F7432B5
:10035600F090010FE0600214F090010FE0B4010B81
:100366007F3312488B9001107464F0900110E060A6
:100376000214F0900110E0B4010B7F32124C02908F
:10038600010E741EF090010EE0600214F090010E52
:10039600E0B4010A7F2712488B7F33124C02A21A5F
:1003A6009219E534A2E2921130111820101590012D
:1003B6006DE0FF6005C39464400690016D7422F001
:1003C6001244D2A2119210A21C921BE534A2E3920F
:1003D6001330132C2012299001C9E0700512486BC6
:1003E600801E9001D4E04401F0C24B3049129001C6
:1003F600C8E075F00AA4FF900114E5F0F0A3EFF051
:10040600A2139212900123E06401702F7F29124AF1
:10041600E4500F7F29124C029001C5E0900123F0B1
:1004260080199001D6E060137F2912488B9001C590
:10043600E0900123F09001D6E014F0900123E060F3
:100446000214F0E535A2E6923420342D20332A300A
:1004560035279001CBE075F064A4FF900112E5F01A
:10046600F0A3EFF090016DE0FF6005C394644006D1
:1004760090016D742EF01244D2303405303302D21E
:1004860035203405203302C235A23492339001124E
:10049600E07002A3E0600E900113E024FFF09001EB
:1004A60012E034FFF0900112E07004A3E0640170E2
:1004B600057F0B12488BE536139215301533301431
:1004C6003020162D7F30124AE45026C2479001D4C0
:1004D600E054FEF0C24B9001C7E075F00AA4FF900D
:1004E6000116E5F0F0A3EFF09001C9E060031248B1
:1004F6006B301505301402D216201505201402C2E1
:1005060016A2159214E536A2E192183018052017A6
:1005160002C248A2189217E536A2E29222A2E392FC
:1005260024A2E49226A2E59228A2E6922A20221884
:1005360020211590016DE0FF6005C394644006908C
:10054600016D7432F01244D2202418202315900134
:100556006DE0FF6005C39464400690016D7433F04E
:100566001244D220261820251590016DE0FF600563
:10057600C39464400690016D7434F01244D230285E
:100586001830271590016DE0FF6005C3946440069E
:1005960090016D7435F01244D2302A183029159026
:1005A600016DE0FF6005C39464400690016D7436EA
:1005B600F01244D2A2229221A2249223A2269225AC
:1005C600A2289227A22A9229E53633922CE537A251
:1005D600E1922F302C3E302B3B202D38202F3590AA
:1005E6000118E0B4392EE49001DAF0A3F07F351259
:1005F6004C0290016D7437F01244D29001ACE07554
:10060600F064A4FF9001D8E5F0F0A3EFF0E49001C8
:1006160018F0800C202C09302B069001187437F046
:10062600202C05202B02C22D302C05302B02D22D7A
:10063600A22C922BE537A2E1922F302F3E302E3B93
:10064600203038202C35900118E0B4372EE4900184
:10065600D8F0A3F07F34124C0290016D7439F01279
:1006660044D29001ACE075F064A4FF9001DAE5F0A5
:10067600F0A3EFF0E4900118F0800C202F09302E43
:10068600069001187439F0202F05202E02C2303052
:100696002F05302E02D230A22F922E9001C9E06093
:1006A600077F17304B0C80057F1730490512488BA2
:1006B6008003124C029001DAE07002A3E0601A7F18
:1006C60034124C027F3512488B9001DBE024FFF098
:1006D6009001DAE034FFF080057F35124C0290017C
:1006E600D8E07002A3E0601A7F35124C027F341204
:1006F600488B9001D9E024FFF09001D8E034FFF058
:1007060080057F34124C029001D4E020E007E536E4
:1007160030E102D24BE53630E10B90016DE0B49545
:1007260016E4F0801290016DE0700C9001C9E06053
:100736000690016D7495F0900114E07004A3E064D6
:100746000170137F3012488BD2479001257401F057
:10075600A3742CF0C24B900114E07002A3E0600E6B
:10076600900115E024FFF0900114E034FFF09001B1
:1007760016E07004A3E0640170117F30124C02D2BF
:10078600489001277401F0A3742CF0900116E070D4
:1007960002A3E0600E900117E024FFF0900116E03E
:1007A60034FFF0900125E07004A3E06401700C3082
:1007B600470990016D7430F01244D2900125E07023
:1007C60002A3E0600E900126E024FFF0900125E0F0
:1007D60034FFF0900127E07004A3E064017012304A
:1007E600480F9001C9E0600990016D7431F0124420
:1007F600D2900127E07002A3E0600E900128E02469
:10080600FFF0900127E034FFF0E535A2E3920BE517
:1008160034A2E5920C7F1A124AE4503A300B372084
:10082600083490019DE070077F2812488B8008905D
:10083600019DE0900109F07F0512488B9001A7E029
:10084600700204F09001A7E075F00AA4FF90010C75
:10085600E5F0F0A3EFF090010CE07004A3E0640172
:10086600701E900109F07F28124C029001AAE070D8
:10087600077F05124C0280089001AAE090010AF059
:1008860090016BE07002A3E0600E90016CE024FF23
:10089600F090016BE034FFF0900109E0B401057FB0
:1008A6002812488B90010AE0B401057F05124C021C
:1008B600900109E0600214F090010AE0600214F071
:1008C60090010CE07002A3E0600E90010DE024FFA1
:1008D600F090010CE034FFF090018DE0B401057F4B
:1008E6002A124C0290018DE0600214F090018EE015
:1008F600B401167F2B124C027F2C12488B9001B04C
:10090600E075F00AA490018FF090018EE060021469
:10091600F090018FE0B401057F2C124C0290018FFC
:10092600E0600214F09001DCE07002A3E060109039
:1009360001DDE024FFF09001DCE034FFF080057F6C
:100946002F124C02A20B9208A20C9209E535A2E5E1
:10095600920E300E12300D0F200F0C90019FE07595
:10096600F00AA490010BF0200E05200D02C20F30F4
:100976000E05300D02D20F90010BE06401703B9022
:10098600016DE0FF6005D39464400690016D742DFF
:10099600F01244D2124BFE7F1F124C027F20124CE3
:1009A600027F23124C02E53720E2057F24124C0217
:1009B6007F25124C027F27124C0290010BE0600249
:1009C60014F0A20E920DE53520E20302004DD2414D
:0309D60002004DCF
:1040C300E4900206F0D2529001B2E075F00AA4FD2A
:1040D3007F021222799001B3E075F00AA42401FE55
:1040E300E435F0900178F0A3CEF07F23124C021256
:1040F30047D6E53230E40E9001C1E075F00AA4FF23
:104103009001758024E4900175F0A3F0900175E0AF
:104113007002A3E0601B7D0A7F021222799001B333
:10412300E075F00AA4FF900178E5F0F0A3EFF080CA
:10413300DB7F0212488B9001B3E075F00AA4FD7F88
:10414300021222797F02124C02E4900178F0A3F06C
:07415300C2527F010221C6E8
:103AC5001247D6124A80E53F30E703023BB0204457
:103AD50003023BB0E53120E103023BB09001807465
:103AE50001F0E53020E614D23A7D0A7F02122279F0
:103AF50090016DE070EC746AF080E79001807402CB
:103B0500F0303A187DFAFF1222797DFA7F021222EF
:103B150079C23A90016DE0B46A02E4F03044A190B4
:103B250001807403F0E53030E703023BB0E5313046
:103B3500E279E4900208F07D0A7F02122279E530ED
:103B450020E706900208E004F07D0A7F0212227940
:103B5500E53020E706900208E004F07D0A7F0212B6
:103B65002279E53020E706900208E004F09002088B
:103B7500E0C39402400AE53030E6057F0712488B22
:103B8500E4900208F07D0A7F02122279900208E093
:103B950004F0E0C3942840ED7F07124C02E5302085
:103BA500E70990016DE07003746BF07D027F0212EE
:053BB5002279023AC56F
:101D42001247D6124A80E53F30E7030220112044B1
:101D52000302200D203B03021FA79001817401F0B2
:101D6200E53120E1127D057F0212227990016DE0BA
:101D720070EE746DF080E990016DE0B46D02E4F0F4
:101D8200E53120E2127D057F0212227990016DE099
:101D920070EE746EF080E990016DE0B46E02E4F0D2
:101DA200E53020E7147D057F02122279D25C900192
:101DB2006DE070EC746BF080E790016DE0B46B0243
:101DC200E4F0305C097D647F02122279C25C204417
:101DD200097D057F0212227980F47D327F02122270
:101DE200797F0A12488B7F2212488B900197E07507
:101DF200F00AA4FD7F021222797F0C12488B7F0C1D
:101E020012213D7F0A124C027D147F021222799028
:101E120001817403F0E490020AF0E53120E34A7D87
:101E2200017F02122279900197E0FF9001A5E0C3A1
:101E32009FFFE49400FE7C007D0A12170190020AC3
:101E4200E004F0C39FEE6480F874809840CC900167
:101E52006DE06005D39464400690016D740BF07FD1
:101E620022124C021244D280B17F22124C027D0116
:101E72007F02122279E490020AF0E53120E1127D1C
:101E8200017F0212227990016DE070EE746DF08094
:101E9200E990016DE0B46D02E4F07F0C124C029007
:101EA20001C3E075F00AA4900121F07F0C1221C653
:101EB2007F0D12488B7F0D12213D900198E075F045
:101EC2000AA4FD7F021222797F011222792044099D
:101ED2007D057F0212227980F47F2112488B9001C6
:101EE200817404F0E490020AF0E53120E23E7D01C3
:101EF2007F021222799001A6E075F00AA4FFAEF0EB
:101F020090020AE004F0C39FEE6480F87480984067
:101F1200D890016DE06005D39464400690016D7421
:101F22000AF07F21124C021244D280BD90016DE072
:101F3200B46E02E4F07F21124C029001817405F02C
:101F4200E490020AF0E53130E0107D028005204481
:101F5200F47D057F0212227980F4E53130E003023C
:101F6200200D7F08124AE4500302200D7F0D124C0F
:101F7200027F0D1221C67D027F021222797F0E128C
:101F8200488B9001A9E075F00AA4FD7F0212227924
:101F92007F0E124C02203F047F0580027F04122232
:101FA2004FC23F8066E4900181F090020AF07F21E7
:101FB20012488BE53120E23E7D017F0212227990A8
:101FC20001A6E075F00AA4FFAEF090020AE004F068
:101FD200C39FEE6480F874809840D890016DE060F1
:101FE20005D39464400690016D740AF07F21124C6F
:101FF200021244D280BD90016DE0B46E02E4F07F23
:1020020021124C027D017F02122279A244923B7D71
:09201200027F02122279021D4234
:1038B200E4900182F07F0F12488B124A807DFA7FDA
:1038C200021222797DFA7F021222797F0F124C02B4
:1038D200124A807F0412224F1247D6124A80204495
:1038E200030239C27F011222792044097D057F0239
:1038F20012227980F49001827401F0900199E075AE
:10390200F00AA4FD7F021222799001A8E0D394006C
:103912004059E490020CF09001A8E014FF90020CD0
:10392200E0C39F502E7F0912488B90019AE075F0F8
:103932000AA4FD7F021222797F09124C0290019A99
:10394200E075F00AA4FD7F0212227990020CE004D5
:10395200F080C47F0912488B90019AE075F00AA4A6
:10396200FD7F021222797F09124C029001827402B9
:10397200F0E490020DF0E53120E0057F0812488B5B
:103982007D2880052044097D057F0212227980F47A
:10399200E53120E0117F0812488B7D017F0212225F
:1039A200791247D680EA7F08124C02124A809001AF
:1039B200827403F07D027F021222797F0412224F69
:0A39C2007D027F021222790238DA3A
:102AFA001247D6124A80204403022CD67D027F0256
:102B0A001222791247D6E53130E62B30E028E53239
:102B1A0030E023205620900122E0701A90016DE0E7
:102B2A00FF6472600AEF646C6005EF64747033E4EA
:102B3A0090016DF0802C90016DE07008E53120E67F
:102B4A00037472F090016DE07008E53120E00374BF
:102B5A006CF090016DE070A4E53220E09F7474F08F
:102B6A00809A9001867402F07D05FF1222797D0217
:102B7A007F021222791247D6E53130E62B30E0285F
:102B8A00E53230E023205620900122E0701A9001AD
:102B9A006DE0FF6472600AEF646C6005EF64747044
:102BAA0033E490016DF0802C90016DE07008E531FE
:102BBA0020E6037472F090016DE07008E53120E0C0
:102BCA0003746CF090016DE070A4E53220E09F740C
:102BDA0074F0809A2044097D027F0212227980F4DF
:102BEA007F1212488BE490020FF0E53220E1297D32
:102BFA00017F0212227990020FE004F0C394FA4096
:102C0A00E990016DE0FF6005D39464400690016D80
:102C1A007411F01244D280D29001867403F0E53127
:102C2A0020E01D7F12124C0290016DE0FF6005D377
:102C3A009464400690016D7408F01244D2022AFA94
:102C4A009001BFE075F00AA4FD7F021222797F107D
:102C5A0012488B7F0E12213D90019CE075F00AA468
:102C6A00FD7F021222797F12124C02D256900186FF
:102C7A007404F0E490020FF0F0E53220E02E7D02B9
:102C8A007F021222797F12124C0290020FE004F0A6
:102C9A00D394FA40E490016DE0FF6005D394644058
:102CAA000690016D7410F01244D280CD90016DE04F
:102CBA00B47402E4F07F0612224F2044097D027F99
:102CCA000212227980F49001867405F07D0A7F024F
:062CDA00122279022AFA21
:1010DA007F0712224F1247D6124A80204403021673
:1010EA005BE4900183F07F011222792044097D0597
:1010FA007F0212227980F49001837401F0900183B7
:10110A007402F0E53120E0127D027F02122279900A
:10111A00016DE070EE746CF080E9E53120E6177D30
:10112A00017F02122279900211E004F0C394FA407E
:10113A00E91244CC80E42044097D057F0212227919
:10114A0080F42044097D057F0212227980F4E53279
:10115A0020E0127D027F0212227990016DE070EE8A
:10116A007474F080E9E53330E1127D027F021222C5
:10117A007990016DE070EE747DF080E9E53430E03D
:10118A00127D027F0212227990016DE070EE748462
:10119A00F080E9E53230E7127D027F02122279906F
:1011AA00016DE070EE747BF080E9E53330E0127D8A
:1011BA00027F0212227990016DE070EE747CF08059
:1011CA00E92050127D017F0212227990016DE070B0
:1011DA00F0747EF080EB2056097D017F021222799D
:1011EA0080F490016DE0FF646C6022EF6472601D10
:1011FA00EF64746018EF647D6013EF6484600EEF2F
:10120A00647B6009EF647C6004EFB47E05E49001BE
:10121A006DF02044097D057F0212227980F412477D
:10122A00D6E53120E00302110720E603021107E5A3
:10123A003220E003021107205003021107E5333080
:10124A00E103021107E53430E003021107E5323009
:10125A00E703021107E53330E003021107205603C2
:10126A0002110730E3030211077F1A124AE4400809
:10127A00E53320E2030211079001837403F07F1122
:10128A0012488B124A80E53430E441900196E0FD21
:10129A0075F00AA4FF900119E0C39FE5F06480F895
:1012AA007480984003ED70249001B7E090016AF0D1
:1012BA009001C4E0900169F0900119E004F0E0F0B7
:1012CA007F2C124C027F2D12488B8029E53420E4B2
:1012DA0005E4900119F09001A3E090016AF09001F1
:1012EA00ABE0900169F07F2B124C027F2C12488BE5
:1012FA007F2D124C029001837406F0E4900211F0E3
:10130A00E53120E7207D017F02122279900211E067
:10131A0004F0C394FA40E990016D740FF07F111242
:10132A004C021244D2C256E53130E74730E61590F6
:10133A00016DE0FF6005C39464400690016D740E70
:10134A00F01244D27F0E1221C69001BBE075F00A5A
:10135A00A4FD7F0212227990016DE06416600A7F73
:10136A001612488B7F2A12488BE53130E0057F063A
:10137A0012224F7D0F7F021222799001837407F0A7
:10138A007F10124C027F1412488B9001B1E075F065
:10139A000AA4FD7F021222797F14124C027F1112D5
:1013AA004C02900122741EF07F1312488B90018325
:1013BA007408F0E53330E1297F1512488B7F161245
:1013CA004C027F2F124C027F2A124C0290016DE0D0
:1013DA00FF6005D39464403490016D7419F00214CF
:1013EA0070E53430E0287F1512488B7F16124C02C4
:1013FA007F2F124C027F2A124C0290016DE0FF608F
:10140A0005D39464400690016D7420F08058E5324B
:10141A0020E7287F1512488B7F16124C027F2F1265
:10142A004C027F2A124C0290016DE0FF6005D394B2
:10143A0064400690016D7417F0802BE53320E03F7D
:10144A007F1512488B7F16124C027F2F124C027F97
:10145A002A124C0290016DE0FF6005D394644006A5
:10146A0090016D7418F01244D29001BDE075F00A33
:10147A00A4FD7F021222797F15124C0202165BD25A
:10148A00499001B1E075F00AA4FD7F021222797F2A
:10149A001412488BD245D24F7D027F0212227990D4
:1014AA0001837409F0E4900211F09001C9E0602709
:1014BA00E53620E0127D027F0212227990016DE06A
:1014CA0070EE7494F080E990016DE0B49402E4F057
:1014DA00E5361392608026E53420E3127D027F020E
:1014EA0012227990016DE070EE7487F080E9900124
:1014FA006DE0B48702E4F0E534A2E3926020600371
:10150A0002165B900183740AF0C24990019BE07550
:10151A00F00AA4FD7F021222799001D3E004F07050
:10152A00069001D2E004F0120022900171E0FCA3BF
:10153A00E0FDA3E0FEA3E02401FFE43EFEE43DFD5E
:10154A00E43CFC9001711218C6D257900124E06065
:10155A000414F0802F90016D7461F01244D27BFF65
:10156A007A4D7938121A487F071221C67D647F02A4
:10157A001222797F021221C67D647F021222797FAC
:10158A00061221C6E53330E304C2408002D24090FD
:10159A0001ACE075F00AA490018DF0E4900211F01C
:1015AA009001CCE09001D6F060137F2912488B900D
:1015BA0001C5E0900123F09001D6E014F0C2417F0A
:1015CA001C12488B9001AEE075F00AA4FD7F02124E
:1015DA0022797F1C124C029001AEE075F00AA4FD3C
:1015EA007F021222799001A4E0FF900211E004F038
:1015FA00C39F50032041C6E4900123F07F29124C77
:10160A0002D24290016BE07002A3E060097D017F83
:10161A000212227980ED900183740BF09001C9E0E7
:10162A00600EE53630E0177D0A7F0212227980F2D9
:10163A00E53430E3097D0A7F0212227980F22044E0
:10164A00097D057F0212227980F47F0712224FD288
:0B165A00437D027F021222790210DFA4
:0100220022BB
:1009D900E4900184F090023BF0A3F0E53130E608A1
:1009E90020E7057F1B12488BE53320E34090016D1A
:1009F900E07003747FF07D237F0212227990023B1D
:100A0900E475F001121713FED3E5F09464EE940037
:100A190040D690016DE06005D39464400690016D65
:100A2900741BF07F1B124C021244D280BBE5333099
:100A3900E3107F1B124C02C25090016DE0B47F029B
:100A4900E4F0C24F1247D6124A802044030210D064
:100A59009001847401F0FF1222792044097D057FF9
:100A69000212227980F4E490023BF0A3F0E53320EE
:100A7900E34090016DE07003747FF07D027F021204
:100A8900227990023BE475F001121713FED3E5F0C9
:100A99009496EE940040D690016DE06005D394647D
:100AA900400690016D741BF07F1B124C021244D258
:100AB90080BB90016DE0B47F02E4F0C250E53430B0
:100AC900E4059001BA80039001B6E090023FF090EE
:100AD9000169E0FF90023FE0FDC39F50557F02127C
:100AE90022799001847402F07F16124C027F2F1232
:100AF9004C029001B7E0FF90016AE0B507117F2B26
:100B090012488B9001AFE075F00AA490018EF012A3
:100B19004A803043787F1412488B90023FE0FF905F
:100B29000169E0C39FFD7F021222797F1912488B68
:100B390080583043177F1412488B900169E0FD7F7C
:100B4900021222797F1912488B124A80900169E0BA
:100B5900FF90023FE0C39FFD7F021222799001843A
:100B69007402F07F16124C027F2F124C029001B7CB
:100B7900E0FF90016AE0B507117F2B12488B9001C5
:100B8900AFE075F00AA490018EF0124A8090016AD4
:100B9900E075F00AA4FD7F021222797F14124C023B
:100BA900C245124A809001847403F0E490023BF03C
:100BB900A3F0304344E53330E40320E53C7D027F74
:100BC9000212227990016DE070037480F090023B6B
:100BD900E475F001121713FED3E5F094FAEE9400D0
:100BE90040D390016DE0FF6005D394644006900105
:100BF9006D741CF01244D280BC9001ADE075F00A0E
:100C0900A4FD7F021222799001847404F0E5352055
:100C1900E11290016D745BF01244D27D0A7F0212D9
:100C2900227980E99001847405F0E53520E7129076
:100C3900016D742FF01244D27D0A7F02122279804D
:100C4900E99001847406F02044097D057F0212228F
:100C59007980F4E53530E51990016D742FF012446F
:100C6900D27D0A80052044EB7D057F02122279801E
:100C7900F4E53120E6131244CC7D0A80052044F1C5
:100C89007D057F0212227980F4E53220E219900174
:100C99006D7412F01244D27D0A80052044EB7D0563
:100CA9007F0212227980F49001847407F07F1A126E
:100CB900488BC251124A80E490023BF0A3F0E5351B
:100CC90020E3347D017F021222791247D690023B3C
:100CD900E475F001121713FED3E5F094F4EE9401D4
:100CE90040DC90016DE0FF6005D3946440069001FB
:100CF9006D742BF01244D2E53530E3347D017F0267
:100D09001222791247D690023BE475F001121713AB
:100D1900FED3E5F094C4EE940940DC90016DE0FF48
:100D29006005D39464400690016D742BF01244D28F
:100D39009001847408F02043187F1512488B9001A4
:100D4900BDE075F00AA4FD7F021222797F15124CCD
:100D590002C2439001C0E0FD7F02122279D250E421
:100D690090023EF09001BCE0FF90023EE0C39F502C
:100D79000F7D0A7F0212227990023EE004F080E49E
:100D89007F19124C027D037F02122279E490023B03
:100D9900F0A3F0E53320E2787D027F0212227990F8
:100DA900023BE475F001121713FED3E5F09496EEB9
:100DB9009400404990016DE0FF6005D394644006BA
:100DC90090016D741AF0C2461244D27F1A124C0275
:100DD9007F19124C027F1E124C027F1F124C027F98
:100DE90020124C027F23124C02E53720E2057F24B2
:100DF900124C027F25124C027F27124C0290016D82
:100E0900E06005D39464408B90016D747EF080831B
:100E190090016DE0B47E02E4F09001847409F0E57C
:100E29003330E23B7F1A124C027F19124C023046D2
:100E39002EE53420E52920E626124BFE7F1F124CB1
:100E4900027F20124C027F23124C02E53720E20573
:100E59007F24124C027F25124C027F27124C0290EC
:100E69000184740AF02044097D057F0212227980E9
:100E7900F4E53320E63D7D017F0212227990016D70
:100E8900E070037482F01247D690023BE475F001DA
:100E9900121713FED3E5F094F4EE940140D39001B8
:100EA9006DE0FF6005D39464400690016D741EF0F7
:100EB9001244D290016DE0B48202E4F0900184748E
:100EC9000BF0204F097D027F0212227980F4E5316F
:100ED90020E6127D027F0212227990016DE070EE08
:100EE9007472F080E92051127D027F0212227990FA
:100EF900016DE070F07476F080EB90016DE0FF64B5
:100F090082600EEF64836009EF648D6004EFB47250
:100F190005E490016DF02044097D057F02122279D4
:100F290080F4E490023DF09001BEE090023DF0D2E1
:100F390042900184740CF0E53220E21990016D743D
:100F490012F01244D27D0A80052044EB7D057F0210
:100F590012227980F4E53130E61EE53330E61930A6
:100F6900E71630E213304F10E53120E70B30510816
:100F7900E53230E20302100DE53120E61190016DF2
:100F8900E06005D39464400690016D7472F0E53316
:100F990020E61190016DE06005D39464400690014C
:100FA9006D7482F0E53320E71190016DE06005D39F
:100FB9009464400690016D7483F0E53320E211904A
:100FC900016DE06005D39464400690016D747EF074
:100FD900204F1190016DE06005D3946440069001A3
:100FE9006D748DF0E53220E21190016DE06005D35A
:100FF9009464400690016D7476F07D027F0212229E
:1010090079020F5E90016DE0FF64726018EF6482EF
:101019006013EF6483600EEF647E6009EF648D6096
:1010290004EFB47605E490016DF0900184740DF03D
:1010390090023DE075F00AA4FD7F021222797F1B20
:1010490012488BC250C242C253900184740EF0E41C
:1010590090023BF0A3F07D0A7F02122279E533204A
:10106900E34090016DE07003747FF07D027F02120E
:10107900227990023BE475F001121713FED3E5F0D3
:101089009496EE940040D690016DE06005D3946487
:10109900400690016D741BF07F1B124C021244D262
:1010A90080BB90016DE0B47F02E4F0E53330E317D3
:1010B90090016DE0B47F02E4F07F1B124C02C24F35
:1010C900C250304002C2407D027F02122279020AD8
:0110D9004DC9
:102EB2001247D6124A80E53F30E703023067E53415
:102EC200A2E5926BA2E6926C5420FF90011FE024CF
:102ED2001AF582E43401F583EFF090011FE0FF045C
:102EE200F0EFC394044002E4F020440620460302BB
:102EF200305F9001857401F0900178E07002A3E0E8
:102F020070057F2312488B90017AE070057F2412AE
:102F1200488B90017BE07002A3E070057F25124888
:102F22008B7F1E12488B7F1F12488B206B03306CE5
:102F3200262053237F2012488BE53530E519900176
:102F4200857402F0D23E90016DE06005D394644036
:102F52000690016D742DF090011BE0FF90011AE0C4
:102F62002FFF90011CE02FFFA3E02FFFA3E02FD340
:102F720094034004D26B8002C26B206B21303D1E51
:102F8200206C1B9001857403F090016DE0FF6005D9
:102F9200D39464400690016D7426F01244D27D01F0
:102FA2007F02122279206C03203C12306B03023024
:102FB2005F203D0302305F306C0302305F90018579
:102FC2007404F0206C0D206B0A7F0B12213D7F20D0
:102FD200124C02203E0620460302305F90018574A7
:102FE20005F0E4900241F09001B8E075F005A4FF0D
:102FF200900241E0C39FE5F06480F8748098501D10
:10300200206B03306C082053057F2012488B7D0211
:103012007F02122279900241E004F080CA303E170A
:10302200C23E90016DE0FF6005D3946440069001BA
:103032006D742DF01244D2124BFE7F1F124C027F90
:1030420020124C027F23124C02E53720E2057F2436
:10305200124C027F25124C027F27124C02A26C9264
:0F3062003CA26B923D7D027F02122279022EB2B8
:103C8D00E4900243F07BFF7A4D793C121A481249B9
:103C9D00E4900243E014601314601D146028146056
:103CAD0043240470E9EFB406E5801EEF700280191D
:103CBD00EFB40602801F8025EFB40102800BEFB434
:103CCD00060280118017EF7008900243E004F08027
:103CDD00BDEFB406089002437401F080B1E4900288
:103CED0043F080AAEF75F014A4900124F0E4900243
:103CFD0043F0EF703290016D7462F01244D27BFF8D
:103D0D007A4D7946121A487F071221C67D647F02CB
:103D1D001222797F021221C67D647F021222797FE1
:103D2D00061221C6023C9B205703023C9B7BFF7A67
:103D3D004D794A900171E0FCA3E0FDA3E0FEA3E004
:0F3D4D00FF9002471218C6121A48C257023C9B39
:1043F7009001887401F09001A1E075F00AA4FD7F97
:1044070002122279E490026DF09001B9E0FF900268
:104417006DE0C39F503A7F1D12488B9001A2E07553
:10442700F00AA4FD7F021222799001887402F07FBE
:104437001D124C029001A2E075F00AA4FD7F021242
:1044470022799001887403F090026DE004F080B93E
:0B4457009001887404F07F0B0221C666
:104641007D327F021222791247D6124A80E53F203D
:10465100E738E53120E4337F0C124C029001C3E0CE
:1046610075F00AA4900121F030441290016DE0FF31
:104671006005D39464400690016D740CF0D23F1232
:104681004A801244D27F0C1221C67D057F0212227C
:034691007980B479
:1048B2007D327F021222791247D6124A80E53F20CA
:1048C200E72AE53120E5257F0D124C023044129093
:1048D200016DE0FF6005D39464400690016D740D94
:1048E200F0124A801244D27F0D1221C67D057F024A
:0548F20012227980C2D2
:1045EB007D327F021222791247D6124A80E53F2094
:1045FB00E73BE53230E605E53020E2317F10124C27
:10460B000230441C90016DE0FF6005D394644010B0
:10461B00E53290016D20E6057416F080037402F00C
:10462B00C256124A801244D27F0E1221C67D057FDC
:06463B000212227980B199
:103D5C00C2559002761218D200004B00E490027A01
:103D6C00F07B027D09FF123F87900272EFF0124C3C
:103D7C0080900272EFF01224FF7D027F02122279F2
:103D8C003055F3900171E0FCA3E0FDA3E0FEA3E04D
:103D9C00FF78181218A0E4AD07FF7E02124D1C909C
:103DAC000171E0FCA3E0FDA3E0FEA3E0FF7810129C
:103DBC0018A0E4AD077F017E02124D1C900171E04A
:103DCC00FCA3E0FDA3E0FEA3E0FF78081218A0E43A
:103DDC00AD077402FFFE124D1C900171E0FCA3A311
:103DEC00A3E0FFE4AD077F037E02124D1CE49002BA
:103DFC0071F0900271E0FF7E002496F582E43401AC
:103E0C00F583E0FD124D1C900271E004F0E0C394C8
:083E1C004040DFC255023D8267
:1046E7009001DAE07002A3E0600790016D7439F081
:1046F700229001D8E07002A3E0600790016D743743
:10470700F022E53030E029C2467F0112488B7F2630
:1047170012488B7F04124C027D037F02122279D24A
:1047270044E490016DF07F26124C027F2712488BDC
:01473700225F
:0644CC00740E90016DF07A
:1044D2003044537F0412488B7F01124C02124A80EF
:1044E200C244E53420E53D20E63A900184E0FFC372
:1044F20094024006EFD39409402A7F1E124C027F99
:104502001F124C027F20124C027F23124C02E5370D
:1045120020E2057F24124C027F25124C027F2712D3
:104522004C028002D24690016DE0700374C5F02205
:10486B0090019EE075F00AA4FF90016BE5F0F0A3B8
:10487B00EFF0D2519001DC7402F0A37458F07F2F4B
:10488B00EF75F0081216652438F8C000E6FEEF75D8
:10489B00F008121665AFF07401A807088002C33345
:0748AB00D8FC4ED000F622FC
:044BFE00C2467F1E0E
:104C0200EF75F0081216652438F8C000E6FEEF755D
:104C1200F008121665AFF07401A807088002C333CA
:084C2200D8FCF45ED000F6227C
:104AE400EF75F0081216652438F8E6FD7C00EF75C2
:104AF400F008121665AFF074017E00A8070880055F
:104B0400C333CE33CED8F9FFEE5CFEEF5D4E24FF07
:014B1400227E
:10493500EF75F008121665FEC374079E2438F8E675
:10494500FD7C00EF75F008121665AFF0C374079F84
:10495500FF74017E00A807088005C333CE33CED887
:0B496500F9FFEE5CFEEF5D4E24FF2228
:104C2A00EF75F008121665FEC374079E2430F8C0AB
:104C3A0000E6FEEF75F008121665AFF07401A807DA
:0C4C4A00088002C333D8FC4ED000F622D4
:104BD100EF75F008121665FEC374079E2430F8C005
:104BE10000E6FEEF75F008121665AFF07401A80734
:0D4BF100088002C333D8FCF45ED000F62229
:1047D600C284C285D286D284A28692797F3F3079FE
:1047E60005124C2A8003124BD1900270743EF09051
:1047F6000270E0FFC3648094804020D285A2869236
:1048060079C285307905124C2A8008900270E0FF43
:0C481600124BD1900270E014F080D4220C
:104A8000C283C283E4900270F0900270E0FFC364BE
:104A90008094C05018C2821249355004D2808002DE
:104AA000C280D28200900270E004F080DCD283C227
:024AB000812261
:10290A00900289EBF0A3EAF0A3E9F0E4900291F0D7
:10291A00C3ED9401EC94005003022AEE90028FE07A
:10292A002DFF90028EE03CFED3EF9455EE940040CA
:10293A0003022AEE900194E0FEA3E0FFC3ED9FFF9D
:10294A00EC9EFE900290E0147003022A3F0460039A
:10295A00022AF4D390028FE0940090028EE0940051
:10296A005003022AF4EF9404EE648094805025EF19
:10297A0025E02438F8E6FD900289E0FBA3E475F02F
:10298A0001121729A9F0FAED1216CDEF25E0243924
:10299A00F8E68076C3EF9444EE64809480502190E8
:1029AA000289E0FBA3E475F001121729A9F0FAE401
:1029BA001216CD74922FF58274013EF583E0804A97
:1029CA00C3EF9453EE648094805021900289E0FB17
:1029DA00A3E475F001121729A9F0FAE41216CD74CE
:1029EA00392FF58274013EF583E0801EEF64534E61
:1029FA00702D900289E0FBA3E475F001121729A952
:102A0A00F0FAE41216CD90016DE0FD900289E0FB28
:102A1A00A3E475F001121729A9F0FAED1216CD0FE9
:102A2A00BF00010E90028FE024FFF090028EE03486
:102A3A00FFF002295D304403022AE6D390028FE0B8
:102A4A00940090028EE094005003022AF4EF94045A
:102A5A00EE64809480503A900289E0FBA3E475F01A
:102A6A0001121729A9F0FA121687FDEF25E024387A
:102A7A00F8A605900289E0FBA3E475F00112172974
:102A8A00A9F0FA121687FDEF25E02439F8A6058089
:102A9A0035C3EF9444EE64809480502A90028AE40D
:102AAA0075F001121713900289E0FBA3E475F00197
:102ABA00121729A9F0FA121687FD74922FF582745B
:102ACA00013EF583EDF00FBF00010E90028FE02466
:102ADA00FFF090028EE034FFF0022A4590029174D2
:102AEA0002F080069002917401F0900291E0FF22B8
:10363300900285EBF0A3EAF0A3E9F0E490028CF0AA
:10364300C3ED9401EC9400500302378090028BE0A9
:103653002DFF90028AE03CFED3EF9409EE940040E4
:103663000302378090016EE0FEA3E0FFC3ED9FFFEE
:10367300EC9E90028DF0A3EFF0D390028BE09400C8
:1036830090028AE09400500302378690028DE07026
:1036930004A3E06405703C900171E0FCA3E0FDA38A
:1036A300E0FEA3E0FF78181218A0900285E0FBA3C8
:1036B300E475F001121729A9F0FAEF1216CD900163
:1036C30071E0FCA3E0FDA3E0FEA3E0FF7810121875
:1036D300A0807790028DE07004A3E06404703190C1
:1036E3000171E0FCA3E0FDA3E0FEA3E0FF78081274
:1036F30018A0900285E0FBA3E475F001121729A935
:10370300F0FAEF1216CD900171A3A3A3E0FF803A64
:1037130090028DE0FEA3E0FFC39404EE64809480E6
:10372300503CEF25E02430F8E6FF900285E0FBA350
:10373300E475F001121729A9F0FAEF1216CD9002E1
:103743008DA3E025E02431F8E6FF900285E0FBA39A
:10375300E475F001121729A9F0FAEF1216CD9002C1
:103763008EE004F0700690028DE004F090028BE08E
:1037730024FFF090028AE034FFF002367C90028C42
:093783007401F090028CE0FF22B9
:03000B00022020B0
:10201B00C2AF80FE3212201F85D00B75D008FAC2DA
:10202B008CE58A2407F58AE58C34B8F58CD28CECD8
:10203B002493F8E6BC0F0274FFC39581B4140040DF
:10204B00CF7910787216E608700BC2AFE630E10359
:10205B004418F6D2AF08D9EDEA8BD0D27E22E50C2C
:10206B00FF232473F80F0808EFB50C06107E03430B
:10207B008701BF10047F007873E630E4E800E50CBD
:10208B00C39F5020050C7492250CF8E6FDA6810821
:10209B00E6AE0CBE0F0274FFCDF8E86D60E008E60B
:1020AB00C0E080F6E50CD39F4027E50C2493F8E6BF
:1020BB00AE0CBE0F0274FFFD18E6CDF8E5816D6026
:1020CB0006D0E0F61880F5E50C2492C8F6150C80C6
:1020DB00D3E50C232473F87F04C2AFE630E0031082
:1020EB00E20C7F0030E10730E3047F0854F4C2E7D1
:1020FB00C6D2AF54804207227892A681740F600635
:10210B00FF0876FFDFFB7F10E47872F608F608DF36
:10211B00FA78737630904CA2740193C0E0E493C0CC
:10212B00E0438901758A00758CB8D28CD2AFD2A9E5
:02213B00220F71
:08330A00410310FF41030DFF18
:104A4D00207C2FC2AC207B09207D06D27B8F9980E4
:104A5D001F900311E0FE04F0EE541F2452F8A60738
:104A6D0090030EE0FF900311E06F541F7002D27C93
:034A7D00D2AC2296
:1046940090026CEFF0BF0A21307C1912227690034D
:1046A40010EFF0E4FBFAFD7F0112227990031074FD
:1046B400FFF080E47F0D124A4D307C19122276906F
:1046C4000310EFF0E4FBFAFD7F011222799003104E
:1046D40074FFF080E490026CE0FF124A4D90026C8B
:0346E400E0FF22D2
:1049E40090030CE0FF90030FE0B5071912227690B4
:1049F400030DEFF0E4FBFAFD7F0112227990030D21
:104A040074FFF080DB90030CE0FF04F0EF54072404
:054A14004AF8E6FF2254
:030023000242F6A0
:1042F600C0E0C0F0C083C082C0D075D010C27A3092
:10430600982FAF99C29890030CE02408FDE433FC83
:1043160090030FE06D7001EC600CE0FE04F0EE54CB
:1043260007244AF8A61790030DE0FFF46003122253
:104336004F209903307A2FC299900311E0FF900322
:104346000EE06F601F207D1EE0FF04F0EF541F2477
:1043560052F8E6F599C27C900310E0FFF46007126C
:10436600224F8002C27BD0D0D082D083D0F0D0E062
:014376003214
:104CC20053877F759850538EBF538EFE53890F437F
:0F4CD2008920758BD0758DD0C2ABD28EC299223E
:104B150000C2A40000000000000000D2A5000000B3
:104B250000D2A40000000000000000C2A5000000A3
:104B35000000000000C2A4000000000000000022E8
:104CE10000C2A400000000C2A500000000D2A40080
:0E4CF100000000D2A50000000000000000221C
:104D6E000000000000C2A400000000C2A500000068
:0A4D7E0000D2A400000000C2A4222D
:104BA300124B1544A0FF124B45124BB4AF05124BE9
:014BB30045BC
:104BB400D2A500C2A40000000000000000D2A4009E
:0D4BC400000000A2A5E433FF0000C2A422FF
:104C5600D2A500E4FEEF25E0FFD2A400000000008C
:104C6600000000A2A5E4334FFF0000000000000092
:0A4C760000C2A40EEEB408DD002217
:104B450000E4FEEF30E704D2A58002C2A500000014
:104B550000D2A40000000000000000C2A400000074
:0F4B65000000000000EF25E0FF0EEEB408D5229F
:10482200AC07C2B6EC25E0FC124BA3124B15EC44CC
:10483200A1FF124B45124BB4900204E064016019CF
:10484200124C56EF1216CD124D6E740129F9E43A4C
:10485200FA900204E014F080DF124C56EF1216CDEB
:09486200124BB4124CE1D2B62253
:1048F700C2B6EF25E0FF124BA3900279E0601912D0
:104907001687FF124B45124BB4740129F9E43AFAA2
:10491700900279E014F080E1124CE1E4FFFE000020
:0E4927000FBF00010EBE5DF6BFC0F3D2B62278
:104D5300AD07AC06ECFF7B017A0179FE9002047487
:0B4D630001F01248229001FEE0FF2248
:104D1C00900273EDF0AB07AA06EAFFAD037B017AB4
:0C4D2C000279739002797401F00248F7DC
:103312004102EE02604002A704FF335B03FF34C99F
:1033220010FF39CC06FF41E617FF22D8000000004B
:10333200000000000000000000000000000000008B
:10334200000000000000000000000000000000007B
:08335200000000000000000073
:103F8700900273EFF0AE03E490027BF0ED600BC399
:103F970094014006EDD394F7400890027B7402F039
:103FA700807B9002A3EDF0900273E0704A9002A428
:103FB70074FFF0A3744DF0A37488F090029DE4F0B1
:103FC700A3F0A3F0AF06AD07C005900276E0FCA30F
:103FD700E0FDA3E0FEA3E0FF90027E1218C6900268
:103FE7007AE0900282F09002A3E0FFD005124532FA
:103FF70090027BEFF0800690027B7402F090027BC8
:10400700E0701A120003EF700890027B7403F080CF
:104017000C900273E09002EDF0A37401F090027B24
:03402700E0FF2295
:10307100900312EBF0A3EAF0A3E9F0AD07E4C39DDE
:1030810040030231DCED947F40030231DCC2AF909A
:103091000312E0FBA3E0FAA3E04A4B70030231659F
:1030A100E4A3F0A3F0900315E0FEA3E0FFC39410A6
:1030B100EE64809480400302314CEF7802C333CE3A
:1030C10033CED8F9FF24A8F58274023EF583E0FBE4
:1030D100A3E0FAA3E04A4B603674A82FF58274028C
:1030E1003EF583E0FBA3E0FAA3E0F9C003C002C010
:1030F10001900312E0FBA3E0FAA3E0F9D082D083B0
:10310100D0E06B7008E965827003EA6583702B7407
:10311100A72FF58274023EF583EDF0900312E0FBD8
:10312100A3E0FAA3E0F974A82FF58274023EF583B7
:10313100EBF0A3EAF0A3E9F08011900316E004F0AC
:103141007006900315E004F00230A6900315E070BC
:1031510004A3E0641060047F0080027F04900317E1
:10316100EFF08073E4900315F0A3F0900315E0FEF7
:10317100A3E0FFC39410EE648094805055EF780271
:10318100C333CE33CED8F924A7F58274023EF5833A
:10319100E0B5052E900315E0FEA3E07802C333CE1F
:1031A10033CED8F9FF24A7F58274023EF583E4F00B
:1031B10074A82FF58274023EF583E4F0A3F0A3F026
:1031C1008010900316E004F070A1900315E004F064
:1031D1008099E4900317F0D2AF8006900317740230
:0731E100F0900317E0FF224C
:104AB200E490031CF09002EEE0B4011A90029DE033
:104AC200FBA3E0FAA3E04A4B601290029DA3A3E08D
:104AD200F9121952800690031C7406F090031CE030
:024AE200FF22B1
:104C8000E4900273F09002EEE0B4010A120026E410
:104C90009002EEF080069002737406F0900273E0CA
:024CA000FF22F1
:104A19009002EEE070149002A4A3E0FAA3E0F91268
:104A290019529002EE7401F080079002EEE0B40191
:104A390007E490031DF0800690031D7406F09003AF
:044A49001DE0FF224B
:1024FF00E4900275F09002EEE060037F06227B010C
:10250F007A02797612000EEF6401600302270790BA
:10251F000276E024FE604E04600302270790027AE1
:10252F007401F0A37402F0A37495F0A37401F0A3E7
:10253F007402F0A3749AF07B017A027998123EDB51
:10254F00900275EFF060030227079002A3E0FF905F
:10255F000298E0FE6F6006EE60030227077F02120B
:10256F004DA3022707900295E0FBA3E0FAA3E0F941
:10257F00121687900299F090029C7401F0E4900279
:10258F0073F0A3F0900273E0FEA3E0FFC39410EE8C
:10259F00648094804003022694EF7802C333CE33D5
:1025AF00CED8F924A7F58274023EF583E0FF7003BD
:1025BF00022694900299E0FE6F6003022683EE24B8
:1025CF00FD603424FD606C24F6604A24F970030228
:1025DF0026602413600302269490027A7401F0A3FC
:1025EF007402F0A3749AF0900295E0FBA3E0FAA3B3
:1025FF00E0F912335B807690027A7401F0A37402D3
:10260F00F0A3749AF0900295E0FBA3E0FAA3E0F92F
:10261F001234C9805890027A7401F0A37402F0A3A7
:10262F00749AF0900295E0FBA3E0FAA3E0F9123957
:10263F00CC803A90027A7401F0A37402F0A3749ADA
:10264F00F0900295E0FBA3E0FAA3E0F91241E680D7
:10265F001C90027A7401F0A37402F0A3749AF090A4
:10266F000295E0FBA3E0FAA3E0F91222D890029CB6
:10267F00EFF08011900274E004F07006900273E0A6
:10268F0004F0022593900298E0606D90029CE0FFA9
:10269F00603FE490029AF0A3F0900299E04480FE2C
:1026AF00900295E0FBA3E0FAA3E0F990029AE4759B
:1026BF00F00112172985F082F583EE1216DF9002D2
:1026CF009AE475F00112172985F082F583EF12163F
:1026DF00DF9002A3E0FF900295E0FBA3E0FAA3E0F6
:1026EF00F990029AE0FDA3E090027BCDF0A3EDF00C
:0B26FF00123E24900275EFF07F0022D5
:10270A0000C1814001C0804101C0804100C18140B7
:10271A0001C0804100C1814000C1814001C08041A7
:10272A0001C0804100C1814000C1814001C0804197
:10273A0000C1814001C0804101C0804100C1814087
:10274A0001C0804100C1814000C1814001C0804177
:10275A0000C1814001C0804101C0804100C1814067
:10276A0000C1814001C0804101C0804100C1814057
:10277A0001C0804100C1814000C1814001C0804147
:10278A0001C0804100C1814000C1814001C0804137
:10279A0000C1814001C0804101C0804100C1814027
:1027AA0000C1814001C0804101C0804100C1814017
:1027BA0001C0804100C1814000C1814001C0804107
:1027CA0000C1814001C0804101C0804100C18140F7
:1027DA0001C0804100C1814000C1814001C08041E7
:1027EA0001C0804100C1814000C1814001C08041D7
:1027FA0000C1814001C0804101C0804100C18140C7
:10280A0000C0C101C30302C2C60607C705C5C40486
:10281A00CC0C0DCD0FCFCE0E0ACACB0BC90908C8F6
:10282A00D81819D91BDBDA1A1EDEDF1FDD1D1CDCE6
:10283A0014D4D515D71716D6D21213D311D1D01056
:10284A00F03031F133F3F23236F6F737F53534F446
:10285A003CFCFD3DFF3F3EFEFA3A3BFB39F9F838B6
:10286A0028E8E929EB2B2AEAEE2E2FEF2DEDEC2CA6
:10287A00E42425E527E7E62622E2E323E12120E016
:10288A00A06061A163A3A26266A6A767A56564A406
:10289A006CACAD6DAF6F6EAEAA6A6BAB69A9A86876
:1028AA0078B8B979BB7B7ABABE7E7FBF7DBDBC7C66
:1028BA00B47475B577B7B67672B2B373B17170B0D6
:1028CA0050909151935352929656579755959454C6
:1028DA009C5C5D9D5F9F9E5E5A9A9B5B9959589836
:1028EA00884849894B8B8A4A4E8E8F4F8D4D4C8C26
:1028FA004484854587474686824243834181804096
:10459000900282EBF0A3EAF0A3E9F0A3ECF0A3ED24
:1045A000F07FFF7DFF90028574FFF5F0121729451B
:1045B000F06033900282E0FBA3E475F0011217294A
:1045C000A9F0FA1216876DFB7A00240AF582EA3404
:1045D00027F583E4936FFD740A2BF582EA3428F5FE
:0B45E00083E493FF80BFEFFEEDFF229D
:10453200E4900283F0C2AFAF05C00790027EE0FCB8
:10454200A3E0FDA3E0FEA3E0FF9002851218C6904F
:1045520002897408F0900282E090028AF0D0071279
:10456200402AEF64016002801290027EA3A3E0FE63
:10457200A3E0FF124789EF6401600690028374038F
:0E458200F0D2AFE4900000F0900283E0FF2240
:10002600C2AFE4900001F0FD7F01124B74124D96B1
:03003600D2AF2224
:0E4D8800C2AFE4FDFF124B74124DAFD2AF224A
:103EDB00900277EBF0A3EAF0A3E9F0E4900280F014
:103EEB00A3F0C2AFC3900003E09404900002E094EF
:103EFB000040667B017A007904E0FCA3E0FD1245EB
:103F0B0090EF4E7054900004E0FF900277E0FBA31B
:103F1B00E0FAA3E0F9EF1216CD900003E024FDFFC9
:103F2B00900002E034FFF990027DE0FBA3E0FAA3DE
:103F3B00E0C98FF01217A27B017A007905C003C08C
:103F4B0002C00190027AE0FBA3E0FAA3E0F9121998
:103F5B00039002807401F0801B7B017A007904903E
:103F6B000002E0FCA3E0FD124590EF4E60069002CC
:0C3F7B00817405F0D2AF900281E0FF22BB
:103E2400E490027DF0C2AF900001E06401600302FF
:103E34003ECDE924FFF9EA34FFFA900106EBF0A342
:103E4400EAF0A3E9F0900104E4F0A304F090010681
:103E5400E0FBA3E0FAA3E0F9EF1216CD90027BE0B9
:103E6400FEA3E0FF900105E02FF0900104E03EF096
:103E7400900106E0FBA3E0FAA3E0F9900104E0FC62
:103E8400A3E0FD124590900104E475F00112172996
:103E9400FA740425F0F58274003AF583EFF0EEFF2E
:103EA400900104E475F001121729FC740425F0F55F
:103EB4008274003CF583EFF09000007401F0FDE49F
:103EC400FF124B74124462800690027D7405F0D296
:073ED400AF90027DE0FF2228
:10427200E4900293F07B017A027994124DB8900097
:1042820001E014600C1460351460042403705F8034
:104292005AE4900002F0A3F0900294E0FF90000232
:1042A200E475F001121729FC740425F0F5827400FC
:1042B2003CF583EFF09000017402F0802EC3900071
:1042C20002E09401501F900294E0FF900002E47516
:1042D200F001121729FC740425F0F58274003CF5F4
:1042E20083EFF080069000017403F0124D96900265
:0442F20093E0FF2234
:10446200E4900293F0900000E014600C047055E4B4
:10447200FD7F01124B74804C900104E07002A3E0B6
:10448200602C900106E0FBA3E0FAA3E0F912168784
:10449200FF12003E900107E475F00112171390011C
:1044A20005E024FFF0900104E034FFF080167F0362
:1044B200124DA3900293EFF0E4FD7F01124B74E4DE
:0A44C200900000F0900293E0FF224A
:1049AB00E4900292F0900001E024FE601314601A70
:1049BB0024037016E4FF124DA3900292EFF0800ACD
:1049CB007F01124DA3900292EFF0124DAF900001B8
:0949DB007401F0900292E0FF2249
:10478900EF4E602BEF25E0FFEE33FE7C007D0C122F
:104799001958A804A905AA06AB077F007E807D8366
:1047A9007C651217FD900318EEF0A3EFF08007E483
:1047B900900318F0A3F0E4F5D8F5D975DA48900319
:0D47C90018E0FEA3E0F5EAEEF5FA7F01220C
:0D4D9600E4F5D875DA49F5E9F5F9D2DE2229
:094DAF00C2DE75DA48E4F5D822F1
:03003B0002497007
:10497000C0E0C0F0C083C082C0D075D000C000C00D
:1049800001C002C003C004C005C006C0071249AB85
:10499000D007D006D005D004D003D002D001D0007B
:0B49A000D0D0D082D083D0F0D0E03225
:0100390022A4
:08000300E490031AF07F0122D2
:0C4DA30090031A7401F0A3EFF07F0122CE
:10000E00E4FF90031AE0600BA3E01216CDE4900318
:04001E001AF00F22A3
:104B7400EF6007ED6004D2908015EF700AED6007D6
:104B8400D290539AEF800BEF600CED7009C2904302
:0F4B94009A1043AF0122C290539AEF53AFFE2203
:10402A00900284EFF07F007EC27D017C00A3E0F85D
:10403A00A3E0F9A3E0FAA3E0FBD312188F5016E429
:10404A007F807E25FDFC900285E0F8A3A3A3E0C350
:10405A0012188F500A9002851218D200004B009055
:10406A000285E0F8A3E0F9A3E0FAA3E0FB7F007E73
:10407A00807D517C011217FDE47B20FAF9F81217B2
:10408A00FDEFF404F59C900284E0B4011553877F98
:10409A00759850438E04438E01438E10C29CC2AC65
:1040AA008012538EF7759A50438E04438E10539A9A
:0940BA00EF53AFFEC2907F01221A
:05003E008F9B7F0122F1
:084DB800E59B1216CD7F0122DC
:034DC00002446248
:034DC30002427237
:0300430002473839
:10473800C0E0C0F0C083C082C0D075D000C000C047
:1047480001C002C003C004C005C006C007E59A3016
:10475800E006539AFE124DC3E59A30E109539AFDDB
:10476800309003124DC0D007D006D005D004D00336
:10477800D002D001D000D0D0D082D083D0F0D0E009
:0147880032FE
:01003A0022A3
:1041E600900277EBF0A3EAF0A3E9F0E490027FF007
:1041F60090027AE0FBA3E0FAA3E0F912173F640508
:1042060045F0705C900277E0FBA3E0FAA3E0F9903A
:1042160000011216A090027DF0A3E4F090000212B5
:1042260016A0FF90027DE0F0A3E04FF0E004F070EE
:104236000690027DE004F0E92403F9E43AFA9002DC
:104246007DE0FCA3E0FD90028EE4F0A304F0A3F071
:1042560012290AEF6010124CFF90027FEFF08006E1
:0C42660090027F7403F090027FE0FF22C2
:1039CC00900277EBF0A3EAF0A3E9F0E4900281F027
:1039DC0090027AE0FBA3E0FAA3E0F912173FC3943C
:1039EC0006E5F094005003023AB9900277E0FBA38D
:1039FC00E0FAA3E0F99000011216A090027DF0A36A
:103A0C00E4F09000021216A0FF90027DE0F0A3E01B
:103A1C004FF0E004F0700690027DE004F09000039B
:103A2C001216A090027FF0A3E4F09000041216A0EE
:103A3C00FF90027FE0F0A3E04FF09000051216A07B
:103A4C00FF90027FE0FCA3E0FDC39401EC940040E6
:103A5C005CD3ED9478EC94005053ED25E06F704DF1
:103A6C00900277E0FBA3E0FAA3E02406F9E43AFA2B
:103A7C0090027DE0FCA3E0FDA3E0FFA3E090028EAA
:103A8C00CFF0A3EFF0A37401F012290AEF600A1231
:103A9C004CFF900281EFF0801A90027AE0FBA3E0D9
:103AAC00FAA3E0F9E475F0051217A28006900281E2
:093ABC007403F0900281E0FF2286
:1034C900900277EBF0A3EAF0A3E9F0E4900284F02C
:1034D90090027AE0FBA3E0FAA3E0F912173F640532
:1034E90045F06003023627900277E0FBA3E0FAA3D8
:1034F900E0F99000011216A090027DF0A3E4F0908B
:1035090000021216A0FF90027DE0F0A3E04FF0E068
:1035190004F0700690027DE004F09000031216A0FA
:1035290090027FF0A3E4F09000041216A0FF7E0041
:1035390090027FEEF0A3EFF0C39401EE94005003E4
:10354900023627D3E0947D90027FE0940040030285
:103559003627900277E0F9A3E0FAA3E0900281C947
:10356900F0A3EAF0A3E9F090027AE0FBA3E0FAA362
:10357900E0F9E4F5F01217A2900281E0FBA3E475EB
:10358900F001121729A9F0FA74031216CD90027AE4
:10359900E0FBA3E0FAA3E0F9E475F00112176A90E1
:1035A900027FA3E025E0FFA3E0FBA3E475F001128D
:1035B9001729A9F0FAEF1216CD90027AE0FBA3E0E1
:1035C900FAA3E0F9E475F00112176A900281E0FBB1
:1035D900A3E0FAA3E0F990027DE0FCA3E0FDA3E0FB
:1035E900FFA3E090028ECFF0A3EFF0E4A3F012293D
:1035F9000AEF600A124CFF900284EFF080269002D5
:1036090080E025E0FF90027FE033FE90027AE0FB44
:10361900A3E0FAA3E0F9EE8FF012176A8006900290
:0A362900847403F0900284E0FF2295
:1022D800900277EBF0A3EAF0A3E9F0E4900288F02B
:1022E80090027AE0FBA3E0FAA3E0F912173FC39447
:1022F8000AE5F0940050030224F9900277E0FBA36A
:10230800E0FAA3E0F99000011216A090027DF0A374
:10231800E4F09000021216A0FF90027DE0F0A3E026
:102328004FF0E004F0700690027DE004F0900003A6
:102338001216A090027FF0A3E4F09000041216A0F9
:10234800FF90027FE0F0A3E04FF09000051216A086
:10235800900281F0A3E4F09000061216A0FF90020C
:1023680081E0F0A3E04FF0E004F07006900281E015
:1023780004F09000071216A0900283F0A3E4F090F6
:1023880000081216A0FF900283E0F0A3E04FF0903F
:1023980000091216A0FD90027FE0FEA3E0FFC3949F
:1023A80001EE940050030224F3D3EF947DEE9400E1
:1023B80040030224F3900283E0FEA3E0FFC39401EC
:1023C800EE940050030224F3D3EF9479EE94004086
:1023D800030224F3EF25E0FFEE33FEED6F7001EE0C
:1023E80060030224F3900277E0FBA3E0FAA3E02461
:1023F8000AF9E43AFA900281E0FCA3E0FDA3E0FFC9
:10240800A3E090028ECFF0A3EFF0A37401F012299D
:102418000AAD07ED60030224E5900277E0F9A3E036
:10242800FAA3E0900285C9F0A3EAF0A3E9F09002CC
:102438007AE0FBA3E0FAA3E0F9E4F5F01217A29022
:102448000285E0FBA3E475F001121729A9F0FA74DC
:10245800171216CD90027AE0FBA3E0FAA3E0F9E4A4
:1024680075F00112176A90027FA3E025E0FF900241
:1024780085E0FBA3E475F001121729A9F0FAEF1221
:1024880016CD90027AE0FBA3E0FAA3E0F9E475F038
:102498000112176A900285E0FBA3E0FAA3E0F99025
:1024A800027DE0FCA3E0FDA3E0FFA3E090028ECF55
:1024B800F0A3EFF0E4A3F012290AAD07ED701E9027
:1024C8000280E025E0FF90027FE033FE90027AE090
:1024D800FBA3E0FAA3E0F9EE8FF012176AED6011A2
:1024E800FF124CFF900288EFF08006900288740378
:0724F800F0900288E0FF22D2
:10378C009002EFEBF0A3EAF0A3E9F09002F5E0FF72
:10379C009002FCE4F0A3EFF0EDAE047803CEC3137B
:1037AC00CE13D8F9FF9002FAEEF0A3EFF09002FAE4
:1037BC00E0FEA3E07803C333CE33CED8F9FFC3EDDC
:1037CC009FFFEC9E9002FCE0FEA3E0A8070880059A
:1037DC00C333CE33CED8F9F0EE9002FCF09002F465
:1037EC00E0FF74017E00A807088005C333CE33CEFA
:1037FC00D8F924FFFFEE34FF9002F8F0A3EFF0A30A
:10380C00A3E075F008A4FFC3ED9FFF9002F8E0FE63
:10381C00A3E0A807088005C333CE33CED8F9F0EE69
:10382C009002F8F09002EFE0FBA3E0FAA3E0F9902D
:10383C0002FAE0FEA3E0F5828E831216A0FF90023E
:10384C00F6E4F0A3EFF09002FBE02401FF9002FA03
:10385C00E034008F82F5831216A0FE9002F6E04E43
:10386C00F0A3E0F0A3E0FEA3E0F4FFEEF4FE900280
:10387C00F6E05EFEA3E05FFF9002FCE04EFEA3E0EC
:10388C004FFF9002F6EEF0A3EFF09002FAE0FCA3EB
:10389C00E0FDF5828C83EF1216DF9002F6E08D824C
:0638AC008C83A30216DF6D
:103BBA009002FEEBF0A3EAF0A3E9F0EDAE0478037D
:103BCA00CEC313CE13D8F9FF900308EEF0A3EFF09B
:103BDA00900308E0FEA3E07803C333CE33CED8F9CE
:103BEA00FFC3ED9FFFEC9E90030AF0A3EFF0900352
:103BFA0003E0FF74017E00A807088005C333CE33B3
:103C0A00CED8F924FFFFEE34FF900306F0A3EFF0BD
:103C1A009002FEE0FBA3E0FAA3E0F9900308E0FEBD
:103C2A00A3E0F5828E831216A0FF900304E4F0A3AA
:103C3A00EFF0900309E02401FF900308E034008FBD
:103C4A0082F5831216A0FE900304E04EF0A3E0F082
:103C5A0090030AA3E0FF900304E0FEA3E0A807088C
:103C6A008005CEC313CE13D8F9FF900304EEF0A358
:103C7A00EFF0A3E05EFEA3E05FFF900304EEF0A383
:033C8A00EFF02236
:104CFF00EF14600C24FA600C2407700CE4FE800A99
:0D4D0F007E0280067E0680027E04AF062232
:10335B00900277EBF0A3EAF0A3E9F0E4900284F09B
:10336B0090027AE0FBA3E0FAA3E0F912173F6405A1
:10337B0045F060030234BD900277E0FBA3E0FAA3B3
:10338B00E0F99000011216A090027DF0A3E4F090FA
:10339B0000021216A0FF90027DE0F0A3E04FF0E0D8
:1033AB0004F0700690027DE004F09000031216A06A
:1033BB0090027FF0A3E4F09000041216A0FF90029D
:1033CB007FE0FEA3E04FFF90027FEEF0FEA3EFF055
:1033DB00C39401EE940050030234BDE0947D90023F
:1033EB007FE0940040030234BD900277E0F9A3E044
:1033FB00FAA3E0900281C9F0A3EAF0A3E9F09002EE
:10340B007AE0FBA3E0FAA3E0F9E4F5F01217A2903F
:10341B000281E0FBA3E475F001121729A9F0FA74FD
:10342B00041216CD90027AE0FBA3E0FAA3E0F9E4D4
:10343B0075F00112176A90027FA3E025E0FFA3E06D
:10344B00FBA3E475F001121729A9F0FAEF1216CDC0
:10345B0090027AE0FBA3E0FAA3E0F9E475F0011225
:10346B00176A900281E0FBA3E0FAA3E0F990027DDA
:10347B00E0FCA3E0FDA3E0FFA3E090028ACFF0A362
:10348B00EFF0123633EF600A124CFF900284EFF02C
:10349B008026900280E025E0FF90027FE033FE90D3
:1034AB00027AE0FBA3E0FAA3E0F9EE8FF012176AC1
:0E34BB0080069002847403F0900284E0FF22E9
:10213D00EFD3940F40037FFF2274732F2FF8E62007
:10214D00E5F4C2AFE64430F6D2AFAE0CEEC39F500D
:10215D00210E74922EF8E6F908E618BE0F0274FFF0
:10216D00FDED69600909E71919F7090980F31616DC
:10217D0080DAEED39F400405810581EED39F402286
:10218D0074922EF808E6F9EEB50C02A98118060630
:10219D00E6FDED6960091919E70909F71980F31EC4
:1021AD0080D9EF2492F8E604F8EF2F04904CA29317
:0921BD00F608EF2F93F67F0022D3
:1021C600EFD3940F40037FFF22EF232473F8E6300A
:1021D600E5F4C2AFE6548CF6D2AFE50CB5070A7447
:1021E600922FF8E6F581022069502E74932FF8E6B7
:1021F600BF0F0274FFFD18E6F974922FF8FBE6FC98
:10220600E96C6008A805E7F61D1980F4A803A60581
:102216001FE50CB507E37F002274932FF8E6FD183F
:1022260086010F74922FF8A601088604E50CB507FF
:1022360002AC81ED6C60080D09A805E6F780F4E5AF
:092246000CB507DE89817F00223E
:10224F00EFD3940F40037FFF22EF232473F8C2AF25
:10225F00E630E50530E002D2E4D2E2C6D2AF7F002D
:07226F0030E2010F022066BE
:03227600AF0C2288
:102279008FF0E4FFFEE50C232472F8C2A930F70DB4
:102289007F08E6600B2DF660325030800730F1068A
:10229900EDF660277E020830F010C2AFE610E725A0
:1022A9000E30E20CD2AF7F048014C2AFE610E715FE
:1022B90054EC4EF6D2AFD2A90220697F0808EF4448
:0F22C90083F4C2AF56C6D2AFD2A954804FFF22C2
:10416600022103E493A3F8E493A34003F68001F24B
:1041760008DFF48029E493A3F85407240CC8C3335A
:10418600C4540F4420C8834004F456800146F6DF29
:10419600E4800B01020408102040809031E8E47EA0
:1041A600019360BCA3FF543F30E509541FFEE4931E
:1041B600A360010ECF54C025E060A840B8E493A3E5
:1041C600FAE493A3F8E493A3C8C582C8CAC583CA10
:1041D600F0A3C8C582C8CAC583CADFE9DEE780BEC8
:01335A000072
:10166500C2D530F707B2D563F0FF05F030E70CB20D
:10167500D5F4048463F0FF05F080018430D502F4CD
:0216850004223D
:10168700BB010689828A83E0225002E722BBFE0261
:09169700E32289828A83E4932294
:1016A000BB010CE58229F582E5833AF583E02250FF
:1016B00006E92582F8E622BBFE06E92582F8E22249
:0D16C000E58229F582E5833AF583E4932263
:1016CD00BB010689828A83F0225002F722BBFE01FC
:0216DD00F322F6
:1016DF00F8BB010DE58229F582E5833AF583E8F041
:1016EF00225006E92582C8F622BBFE05E92582C8ED
:0216FF00F222D5
:10170100EF8DF0A4A8F0CF8CF0A428CE8DF0A42EFC
:02171100FE22B6
:10171300C5F0F8A3E028F0C5F0F8E5821582700261
:061723001583E038F022FE
:10172900A3F8E0C5F025F0F0E58215827002158373
:06173900E0C838F0E822D0
:10173F00BB010A89828A83E0F5F0A3E02250068775
:10174F00F009E71922BBFE07E3F5F009E319228937
:0B175F00828A83E493F5F0740193226A
:10176A00BB010789828A83021713500B09C5F02728
:10177A00F7C5F01937F722BBFE0D09F8E325F0F398
:10178A00C5F019E338F322F889828A837401932514
:08179A00F0C5F0F8E4933822D9
:1017A200BB010A89828A83F0E5F0A3F0225006F792
:0F17B20009A7F01922BBFE06F3E5F009F319228F
:1017C10075F008758200EF2FFFEE33FECD33CDCCDF
:1017D10033CCC58233C5829BED9AEC99E582984062
:1017E1000CF582EE9BFEED9AFDEC99FC0FD5F0D63F
:1017F100E4CEFBE4CDFAE4CCF9A88222B800C1B969
:101801000059BA002DEC8BF084CFCECDFCE5F0CBA6
:10181100F97818EF2FFFEE33FEED33FDEC33FCEBDF
:1018210033FB10D703994004EB99FB0FD8E5E4F99A
:10183100FA227818EF2FFFEE33FEED33FDEC33FC87
:10184100C933C910D7059BE99A4007EC9BFCE99A7B
:10185100F90FD8E0E4C9FAE4CCFB2275F010EF2FC0
:10186100FFEE33FEED33FDCC33CCC833C810D707C0
:101871009BEC9AE899400AED9BFDEC9AFCE899F8FB
:0E1881000FD5F0DAE4CDFBE4CCFAE4C8F9228E
:10188F00EB9FF5F0EA9E42F0E99D42F0E89C45F0AF
:01189F002226
:1018A000E8600FECC313FCED13FDEE13FEEF13FF26
:0318B000D8F1224A
:1018B300E8600FEFC333FFEE33FEED33FDEC33FC93
:0318C300D8F12237
:0C18C600ECF0A3EDF0A3EEF0A3EFF02295
:1018D200A8828583F0D083D0821218E91218E91207
:1018E20018E91218E9E473E493A3C583C5F0C5832C
:1018F200C8C582C8F0A3C583C5F0C583C8C582C860
:0119020022C2
:10190300BB011A89828A83D0F0D0E0F8D0E0F9D005
:10191300E0FAD0E0FBE8C0E0C0F00219A55016E9F8
:10192300F8D083D082D0E0F9D0E0FAD0E0FBC082D7
:10193300C083021985BBFE16E9F8D083D082D0E0BC
:0F194300F9D0E0FAD0E0FBC082C0830219AE22D7
:061952008A838982E47320
:10195800EC8EF0A4CCC5F0CCCDF8EFA4CEC5F02D1C
:10196800FDE43CFCE8A42EC8C5F03DFDE43CFCEFDA
:0D197800A4FFE5F028FEE43DFDE43CFC2268
:1019DD00E5452447F582E43402F583E00545229080
:1019ED000244307503900247E475F00112198E021E
:1019FD001687206EE97F2ED26E8018EF540F24903B
:101A0D00D43440D4FF30720BEF24BFB41A0050030E
:101A1D002461FFE546600215460549E5497002055A
:101A2D004830750E900244E475F00112198EEF02E4
:101A3D0016CD0246947403D2758003E4C275F54544
:101A4D009002441219A5E4F546F548F549E54660BE
:101A5D00077F20121A2080F57547FFC26FC26EC234
:101A6D0070C271C273C274C2761219ECFF700D3060
:101A7D0075057F00121A31AF49AE4822B4255FC2F9
:101A8D00D5C2721219ECFF24D0B40A00501A75F0A9
:101A9D000A784630D50508B6FF0106C6A426F620FD
:101AAD00D5047002D27180D924CFB41A00EF50043E
:101ABD00C2E5D272021C32D26F80C6D26E80C0D205
:101ACD007080BCD2D580BAD27380B47F20121A2018
:101ADD002070077401B5460040F11219DDFF121A8E
:101AED0020021A5AD276D27480951219DDFB121982
:101AFD00DDFA1219DDF94A4B700679037A1D7BFF69
:101B0D0020702EE546602A7E008E827583001216A7
:101B1D00A060060EEE654770F0C2D5EBC0E0EAC0DE
:101B2D00E0E9C0E0EE121C79D0E0F9D0E0FAD0E0A7
:101B3D00FB121687FF60AAEBC0E0EAC0E0E9C0E047
:101B4D00121A20D0E02401F9D0E03400FAD0E0FBE5
:101B5D00E5470460DCD547D980877BFF7A1C797512
:101B6D00D270809C791080027908C274C276800888
:101B7D00D2D5790A8004790AC2D5E547047002F5F9
:101B8D0047E4FAFDFEFF1219DDFC7B08206F1312EE
:101B9D0019DDFD7B10306E0A1219DDFE1219DDFF05
:101BAD007B20EC3382D592D55013C3E4306E069F63
:101BBD00FFE49EFEE4206F039DFDE49CFCE4CBF866
:101BCD00C26FEC700CCFCECDCCE824F8F870F3805A
:101BDD0017C3EF33FFEE33FEED33FDEC33FCEB3388
:101BED00FB994002FB0FD8E9EB306F05F8D0E0C44C
:101BFD0048B26FC0E00AEC4D4E4F78207B0070C2AA
:101C0D00EAB5470040BCC0E0121C7BD0F0D0E0200C
:101C1D006F04C4C0E0C4B26FC0F0121A09D0F0D581
:101C2D00F0EB021A5A1219B71AF7531B71581AC84A
:101C3D004C1AC4421B754F1B7D441B7D491ADD4355
:081C4D001B83551B67461B6752
:101C5500451B67471D23501ACC2D1AD02E1AF32B7E
:101C65001AD4231AF1201D0C2A1A8C4800001AEBED
:101C75003F3F3F00790AA2D5207114307309B9108E
:101C8500020404B9080104A2D520740250010420FD
:101C950070689270B546005034C0E07F20307119ED
:101CA5007F30A27072747273500F121CD2C270C250
:101CB50074C273C2767F30800F307303E9C0E012BF
:101CC5001A20307303D0E0F9D0E0B546CC30731755
:101CD5007F30B9100C121A207F583072077F788038
:101CE50003B90803121A203070057F2D021A207FD0
:101CF500202076F87F2B2074F322927080CF286EF7
:101D0500756C6C2900D26F1219DD306FF8C26F78CF
:101D15004630D50108F6021A8C2D50434958121940
:101D2500DD2403B405004001E4901D1E93121A1131
:0D1D3500743A121A11D271754604021B7126
:09198500EBF608EAF608E9F62287
:10198E00F8E0FBA3A3E0F925F0F0E58215827002E2
:07199E001583E0FA38F02286
:0919A500EBF0A3EAF0A3E9F02243
:0919AE00EBF208EAF208E9F2226A
:1019B700D083D082F8E4937012740193700DA3A3BF
:1019C70093F8740193F5828883E4737402936860D3
:0619D700EFA3A3A380DFD3
:00000001FF
