:023A2900309ECD
:023A2B0027264C
:023A2D002187EF
:023A2F003193D1
:023A310000464D
:023A3300332A34
:023A350035A4B6
:023A39002A70F1
:023A3B0029B5AB
:023A3D0022C99C
:023A3F00065926
:023A41003384CC
:023A43002C8ACB
:023A4500394DF9
:023A47003AF251
:03000000022F02CA
:0C2F0200787FE4F6D8FD75819C022F4911
:103867002A2A2D007461736B20434F4D4D207374CA
:103877006172746564210A000A7665722D2D2D2503
:10388700640A002A2A256328256429002A2A2E008B
:1025280042020B00014201F2000142020800006071
:102538003001C105031E03060303280828140405F7
:10254800050501020C010000030138640B0B1A0A8F
:102558000000000000000000000000000000000073
:102568005100AAC12BC1B74101F4004101BF00C10C
:1025780080C181C102C183C104C105C106C107C1AF
:1025880008C109C10AC10BC10CC10DC10EC10FC1DF
:1025980010C111C112C113C114C115C116C117C18F
:1025A80018C1194101B5004101B6004101B7004108
:1025B80001B8004101B9004101BA004101BB004125
:1025C80001BC004201BD0000C11AC11BC11CC11DD4
:0425D800C11FC1203E
:10309E00121EB07F081211F67D0A7F021213327FC4
:1030AE000A1211F67D0A7F021213327F091211F6EF
:1030BE007F011211F67D0A7F021213327F0D12115B
:1030CE00F67D0A7F021213327F0B1211F67D0A7FF4
:1030DE000212133212311C9001BFE0700F7D647F1B
:1030EE00021213329001F17462F080EBE49001F160
:1030FE00F07F021211F67DFA7F021213327F041254
:0E310E0011F67D0A7F02121332E4FF02127FD7
:101EB000123A67E49001F1F0C22EC221C222C2237D
:101EC000C224C225C22690023DF0A3F0A3F0A3F0E5
:101ED000C227D233C229900207F0C2349001C0F069
:101EE000D2357D647F021213327D647F0212133279
:101EF0007D647F021213327D647F021213329001DF
:101F000025120FC900000000E47F02FEFDFC9001D5
:101F100025E0F8A3E0F9A3E0FAA3E0FBC3120FACBD
:101F20005068E4900124F0900124E0FFC3648094A1
:101F300088500B74332FF8E4F6E004F080E9E49065
:101F40000124F0900124E0FFC3648094905019EFC5
:101F50003395E0FE74F72FF58274013EF583E4F0CB
:101F6000900124E004F080DB900125E0FCA3E0FD7B
:101F7000A3E0FEA3E02401FFE43EFEE43DFDE43CDB
:101F8000FC900125120FBD021F087F0212380F7F3F
:101F9000011237121237A1C22CE4900124F09001F3
:101FA00024E0FFC3648094B05025EF3395E0FE1227
:101FB0003ABD900124E0FD3395E0FC740D2DF582CF
:101FC00074023CF583EFF0900124E004F080CF7FB1
:101FD000007E02123ABDEF7F00FEC006C0070F7EF2
:101FE00002123ABDEFFDD0E02DFED0E034009001AA
:101FF000F5F0A3CEF07402FFFE123ABDEF7F00FEB3
:10200000C006C0077F037E02123ABDEFFDD0E02D6F
:0D201000FED0E03400900208F0A3CEF022D4
:10311C007F031211F67D0A7F021213327F051238DB
:10312C000F7F0612380F7F0712380F7F0F123712DE
:10313C007F0E1211F67F1212380F90021AE075F002
:10314C000AA4FD7F021213327F12123712302409A7
:10315C007D027F0212133280F47F1012380F90021E
:10316C001EE075F00AA490020AF09001FB745DF069
:10317C00E52B20E703745BF0E52CA2E2922A922D5A
:07318C00C2337F0202380F7D
:102187007D647F02121332E53A30E7030222C81258
:1021970034C81237A1E52C30E005200102D236E51C
:1021A7002C20E102D203E53A30E7030222B6E52DFF
:1021B70030E12D30E21020000DE52C20E00820331F
:1021C7000512355D8013E52C30E00E20010BE52D5F
:1021D70020E20630270312399DE4FF1237128025CB
:1021E7007D0A7F02121332E52D20E1119001F1E003
:1021F7006005C3946440069001F17411F0E4FF1286
:10220700380F12399D202C1DE52B30E6137D147FE6
:1022170002121332E52B30E60C7F0412380F8005CB
:102227007F04123712E52B30E72120E56220E15FBA
:1022370030275C300359E52C30E1547F03123836E0
:10224700404D7F0312380FC203804430271B3003F1
:1022570018E52C30E1137F03123836400CE52D20AA
:10226700E4077F0312380FC203E52D30E4217F0313
:10227700123836501A7F141238364002800C9002FA
:102287002BE0B4010A7F141237127F03123712E5CD
:102297002B30E50A7F0612127F7F08123712E52DD1
:1022A700A2E29200E52C139201E52BA2E692027DB1
:1022B700027F021213329001FBE090023BF00221F1
:0222C7008E2265
:103193001234C81237A1E53A20E7603021057F0BCE
:1031A30012380F3022057F0C12380F3023057F0DA4
:1031B30012380F3024057F0E12380F7F023033058B
:1031C30012380F800A1237127D147F021213327DD8
:1031D300327F021213327F0B1237127F0C12371217
:1031E3007F0D1237127F0E1237123033057F021212
:1031F30037127D327F0212133280957D027F0212D5
:043203001332808C76
:10004600C23A1234C81237A1E53A30E70302064F26
:10005600202C03020625D22830350A90020DE090A6
:1000660001F4F0C2359001FB7403F0E52B30E74450
:100076007F0312383640127D027F0212133290013E
:10008600F1E070EC74CBF080E79001F1E0B4CB02C4
:10009600E4F0E52D20E7127D027F02121332900173
:1000A600F1E070EE747BF080E99001F1E0647B7022
:1000B6007CF080799001FB7404F07D027F021213BC
:1000C60032E52D30E70F30E00CE52B20E0077F13FB
:1000D600123836503CE52D20E7099001F1E0700317
:1000E600747BF0E52D20E0099001F1E07003747453
:1000F600F0E52B30E0099001F1E0700374BEF07F6B
:100106001312383650B49001F1E070AE74DBF08013
:10011600A99001F1E0FF647B600EEF64746009EF63
:1001260064BE6004EFB4DB05E49001F1F0302A030D
:100136000202EA7F0A12380F7F051237127F061273
:1001460037127F071237127F051211F69001FB74E2
:1001560005F07F061211F67F0F1211F69001FB745F
:1001660007F0E4900132F090020FE0FF900132E0D8
:10017600C39F502B7D0A7F02121332E52B20E31F0B
:100186009001F1E070037467F0900221E06008903E
:100196000132E0600214F0900132E004F080C89071
:1001A60001F1E0B46702E4F0E52C30E5057F1012BA
:1001B600380F90020FE0FFFD90023DE4F0A3EDF052
:1001C600900132E0FD90023FE4F0A3EDF0C39F40C2
:1001D600030202BA9001FB7406F0E52B30E355C228
:1001E60030E4900132F090020EE075F005A4FF9025
:1001F6000132E0C39FE5F06480F874809850167D64
:10020600027F02121332E52C30E402D23090013222
:10021600E004F080D17F0512380F203017D22290EB
:1002260001F1E0FF6005C3946440069001F1740C8F
:10023600F012399D9001FB7408F0E52B20E4127D45
:10024600027F021213329001F1E070EE7468F080C2
:10025600E99001F1E0B46802E4F0C231E4900132C1
:10026600F0900212E075F005A4FF900132E0C39F02
:10027600E5F06480F874809850167D027F021213B0
:1002860032E52C30E502D231900132E004F080D123
:100296007F0612380F303103020330D2239001F16A
:1002A600E0FF6005C3946440069001F1740DF012FE
:1002B600399D80767F0F12380F7F0512380F7F0623
:1002C60012380F900210E075F00AA4FD7F02121397
:1002D600327F0F123712900211E075F00AA49002D5
:1002E60007F08046C22A9001F1E07003746EF0E5D3
:1002F6002B20E1347F0812380F7F1C12380FE49050
:100306000132F0900222E0FF900132E0C39F500FCD
:100316007D0A7F02121332900132E004F080E47FFE
:100326001C123712C23A8002D23A303A030204183B
:100336009001FB7409F0E52B20E5127D027F021285
:1003460013329001F1E070EE7469F080E99001F1EA
:10035600E0FF64696004EFB46E05E49001F1F07F9C
:100366000612127F7F08123712C232E4900132F071
:10037600900213E0FF900132E0C39F50227D0A7F76
:1003860002121332E52C30E60ED23290021CE075D2
:10039600F00AA490020AF0900132E004F080D17FC6
:1003A6000712380F1237A11234C8203217D2249000
:1003B60001F1E0FF6005C3946440069001F1740EFC
:1003C600F012399D9001FB740AF01234C8E52B3007
:1003D600E507E52D20E402802FE52D30E436E52BF8
:1003E60020E7317F03123712E52D30E4127D027FBC
:1003F600021213329001F1E070EE7478F080E99009
:1004060001F1E0B47802E4F07F1412380F1237A13C
:100416008002C23A9001FB740DF0E52B20E703023F
:1004260004C8E52B20E1097D027F0212133280F217
:10043600E52D30E437E52D30E4127D027F021213FC
:10044600329001F1E070EE7478F080E9900217E0E6
:10045600900132F0900132E0D3940040487D647FF1
:1004660002121332900132E014F080E8E490013277
:10047600F090021BE075F00A84FF900132E0C39F02
:10048600500F7D647F02121332900132E004F08037
:10049600E090021BE075F00A84E5F075F00AA4FD11
:1004A6007F021213329001F1E0B47802E4F07F0388
:1004B6001237127F14123712D2347F1312371202F8
:1004C600064F9001FB740BF0E52B30E510E52D206F
:1004D600E40B9001F1E0B47816E4F080127D027F1F
:1004E600021213329001F1E070DE7478F080D97F49
:1004F6001412380F1237A17D027F021213327F03C6
:100506001238365012E52B30E10DE52D20E408E5D2
:100516002E20E4030205A37F03123836500FE52B85
:1005260030E10AE52D20E405E52E20E7707F031271
:100536003836400B9001F1E0700E74CBF0800990D4
:1005460001F1E0B4CB02E4F0E52B20E10B9001F1E0
:10055600E0700E7465F080099001F1E0B46502E484
:10056600F0E52D30E40B9001F1E0700E7478F08028
:10057600099001F1E0B47802E4F0E52E20E70F904F
:1005860001F1E060030204FD7483F00204FD9001B2
:10059600F1E0648360030204FDF00204FD7F1312A0
:1005A600380F9001F1E0FF64CB600EEF64656009DF
:1005B600EF64786004EFB48305E49001F1F09001F4
:1005C600FB740CF0E52B20E105E52C20E7307D02DD
:1005D6007F02121332E52B30E10B9001F1E0700E31
:1005E60074BFF080099001F1E0B4BF02E4F0E52C9D
:1005F60020E7D19001F1E070CB7473F080C67F13D1
:100606001237129001F1E0FF64BF6004EFB4730586
:10061600E49001F1F07F0C1211F61237A1802AC284
:1006260028C227C2337F0212380F7F0612127F7F3D
:10063600081237127F0512380F7F0612380F7F0710
:1006460012380F9001FB7401F07D027F0212133203
:0306560002004857
:10065900E53A30E703020A1C900214E0700204F044
:10066900900216E0700204F0E52E139204E52EA222
:10067900E19205A2E29206A2E39207A2E59208A2FC
:10068900E69209E52C339217E52BA2E19219A2E330
:1006990092127F031238369214300417200D14E495
:1006A9009001C0F07F151237127F18123712E490AB
:1006B90001B5F0300519200E16E49001B6F07F154A
:1006C90012383640057F181237127F191237123047
:1006D9000705201002D234300D1A200417303414C3
:1006E900900220E0600E302C0B1238057F1512386D
:1006F9000F123706300657200F547F15123836402F
:100709004D7F1812383640467F19123836403F302F
:10071900042B200528900225E09001B6F07F1812DD
:10072900380F7F1912380F303413900228E09001E6
:10073900C0F0900225E09001B5F012370620040EB2
:1007490030340B1238057F1512380F123706E52B96
:1007590030E72F30172C2016297F15123836400E16
:100769007F1812383640077F191238365014E49032
:1007790001C0F07F151237127F181237127F191234
:10078900371230121520111230280F7F1A12380F24
:10079900900214E09001B7F0C22B9001B7E060021B
:1007A90014F090022CE070269001B7E0B401057FA7
:1007B9001A123712301906201803202803302B3B50
:1007C9007F1A12380F7F1B12380FC22B802D900110
:1007D900B7E0B4010D7F1A123712900214E09001AC
:1007E900B8F09001B8E0600214F09001B8E0B401EB
:1007F9000A7F1A12380F7F1B12380F9001B9E06077
:100809000214F09001B9E0B401057F1B12371220E0
:10081900140B301308900220E09001BAF09001BA4D
:10082900E06401704A30043020052D9001B5E07074
:1008390027900225E09001B6F07F1812380F7F1932
:1008490012380F303429900228E09001C0F090024C
:1008590025E09001B5F08014200414303411900182
:10086900B6E0700B1238057F1512380F1237069053
:1008790001BAE0600214F0A2149213A2129211A21A
:10088900199218A234920CA204920DA205920EA2FA
:1008990006920FA2079210A2179216900207E06023
:1008A9000914F07F0912380F80057F091237129059
:1008B900020AE0600214F090020AE0B401057F1018
:1008C9001237129001B5E0600214F09001B5E0B45E
:1008D900010F7F181237127F15123712E49001C0E9
:1008E900F09001B6E0600214F09001B6E0B4010A9C
:1008F9007F191237127F181237129001F4E060093C
:1009090014F07F1F12380F80057F1F1237129001D4
:10091900C0E0B401057F1512380F9001C0E06002F4
:1009290014F0302C51900229E0FF604A7E007C8C43
:100939007DA0120E1E9001BDE475F001120E30FC6F
:10094900C3E5F09FEC9E402EE49001BDF0A3F0902A
:1009590001BBE07021A3E0701DD2157F1D12380F75
:100969007F1E123712E49001BCF0900226E075F068
:100979000AA49001BBF020154230081E200A1B7FF3
:100989001D12380F7F1E123712E49001BCF090023D
:1009990026E075F00AA49001BBF030091E200B1B5C
:1009A9007F1E12380F7F1D123712E49001BBF090A1
:1009B9000227E075F00AA49001BCF09001BBE06049
:1009C9000214F09001BBE070257F1D12371230151B
:1009D9001D7F1E12380F7F1D123712E49001BBF0E4
:1009E900900227E075F00AA49001BCF0C2159001AD
:1009F900BCE0600214F09001BCE070057F1E123764
:100A090012A208920AA209920B7D0A7F02121332DE
:040A19000206592256
:1022C900E52DA2E3921C201C0302235E301D0302AC
:1022D900235E7F0A123836407C302C79E52B30E5B5
:1022E900097D0A7F0212133280F27F0412127FD213
:1022F900297F1212380F7F0512380F7F0612380F07
:102309007F0712380F7F091237127F0612127F7F5B
:10231900081237127F0F1237127F031237129002F9
:102329001AE075F00AA4FD7F021213327F121237E8
:10233900129001F1E0FF6005C3946440069001F139
:10234900745AF012399DD22BE52CA2E2922A922DD1
:102359007F041211F6A21C921DE52D13921A301A50
:10236900030223F4201B030223F47F13123836409F
:102379007A302C77E52B30E5097D0A7F021213327A
:1023890080F27F0412127FD2297F1212380F7F0543
:1023990012380F7F0612380F7F0712380F7F091284
:1023A90037127F0612127F7F081237127F0F1237FA
:1023B900127F0312371290021AE075F00AA4FD7F0A
:1023C900021213327F121237129001F1E0FF6005F9
:1023D900C3946440069001F17410F012399DE52C04
:1023E900A2E2922A922D7F041211F6A21A921B7D63
:0923F900057F021213320222C911
:10338400E4900135F0900215E075F00A84FF900195
:1033940035E0C39F500F7D647F02121332900135D4
:1033A400E004F080E0900215E075F00A84E5F07521
:1033B400F00AA4FD7F021213327F031237127F1426
:1033C400123712C2277D647F02121332D2277F0C78
:0333D40002127F63
:1029B500E52C33923C203C03022A62301E03022A96
:1029C500629001F6E004F070069001F5E004F0D2A3
:1029D500379001BFE0600414F080239001F1746228
:1029E500F012399D7BFF7A387967120A887F0412C5
:1029F500127F7D647F021213327F0212127F9002D2
:102A050009E004F07006900208E004F0D22E90026E
:102A150023E075F064A4FFA3E07C002FFFEC35F004
:102A2500FEC3900209E09F900208E09E402FE4F06B
:102A3500A3F07F1112380FE4900136F090021DE0EB
:102A4500FF900136E0C39F500F7D647F0212133261
:102A5500900136E004F080E47F11123712A23C9217
:0B2A65001E7D147F021213320229B5FF
:10332A00C22FE4900160F090020DE075F005A4FF51
:10333A00900160E0C39FE5F06480F87480985016AD
:10334A007D027F02121332E52C30E302D22F900164
:10335A0060E004F080D17F0A123712202F17D221A1
:10336A009001F1E0FF6005C3946440069001F17496
:0A337A000BF012399D7F0502127F4F
:1035A400E4900162F0900218E0FF900162E0C39F92
:1035B40050147D647F02121332E52B20E108900140
:1035C40062E004F080DF900218E0FF900162E0C343
:1035D4009F40082029057F0812380F7F0602127FBA
:103AF200E52C20E5097D027F0212133280F27F104D
:083B020012380F7F0F02127F41
:10394D00E52C20E614D2247D027F02121332900161
:10395D00F1E070EC7472F080E7C2249001F1E0B4F4
:09396D007202E4F07F0E02127FE9
:102A70001234C81237A1E53A30E703022B1DE52DC9
:102A8000A2E59246A2E69247202C03022B0B90016E
:102A9000FF7401F020460330470C7F1612380F7D7B
:102AA000017F0212133220461130200E20470B9076
:102AB00001FF7403F07F16123712204758301F555C
:102AC00020475220464F7F16123712E4900163F0E0
:102AD00090021FE0FF900163E0C39F50387F171200
:102AE000380F900219E075F00AA4FD7F021213322C
:102AF0007F17123712900219E075F00AA4FD7F02C9
:102B0000121332900163E004F080C57F1612371271
:102B10007F17123712A247921FA24692207D027F92
:072B200002121332022A70B9
:10272600E4900165F0A3F0A3F07BFF7A38796B1291
:102736000A887BFF7A38797F90016B7451F0120A10
:10274600881236D1900167E0146016146020146078
:102756002B14604624046003022806EFB406E280C8
:102766001EEF70028019EFB40602801F8025EFB4B9
:102776000102800BEFB4060280118017EF700890FB
:102786000167E004F080BAEFB406089001677401AF
:10279600F080AEE4900167F080A7E4900167F0EF67
:1027A60075F00AA49001BFF060303037947BFF7A51
:1027B60038798AE52B30E2047F4280027F4190011E
:1027C6006BEFF09001F5E0FFA3E090016CCFF0A372
:1027D600EFF0120A88C2370227479001F17461F0C0
:1027E60012399D7BFF7A387993120A887F04121278
:1027F6007F7D647F021213327F0212127F02274707
:08280600E4900167F00227478E
:102C8A00C2361234C8E52B90019130E205740BF07C
:102C9A008003740AF0900196120FC900004B00E4F9
:102CAA0090019AF0900191E0FD7B02E4FF122D3031
:102CBA00900192EFF0123A07900192EFF01215B8D4
:102CCA007D027F021213323036F39001F5E0FD7F68
:102CDA00007E02123AA19001F5A3E0FD7F017E0277
:102CEA00123AA1900208E0FD7402FFFE123AA19086
:102CFA000208A3E0FD7F037E02123AA1E49001914B
:102D0A00F0900191E0FF7E00240DF582E43402F593
:102D1A0083E0FD123AA1900191E004F0E0C39430FF
:062D2A0040DFC236809775
:10355D00E52D30E1417F0112380F7F021237127DC8
:10356D00037F02121332D22C7F04123712202D0C3E
:10357D00C22A7F051237127F061237127F071237C4
:10358D0012E49001F1F0C221C222C223C224C2254D
:07359D00C226D227C2292239
:10399D00302C20D2337F01123712E49001C0F07F1A
:1039AD00151237127F181237127F1912371212376C
:0439BD00A1C22C2255
:0A380500900225E09001B5F07F1855
:10380F00EF75F008120D822433F8C000E6FEEF7555
:10381F00F008120D82AFF07401A807088002C333BD
:07382F00D8FC4ED000F62288
:0C370600C234900216E09001B9F07F1A66
:10371200EF75F008120D822433F8C000E6FEEF7553
:10372200F008120D82AFF07401A807088002C333BB
:08373200D8FCF45ED000F62281
:10383600EF75F008120D822433F8E6FD7C00EF7573
:10384600F008120D82AFF074017E00A8070880050B
:10385600C333CE33CED8F9FFEE5CFEEF5D4E24FFC8
:01386600223F
:10362200EF75F008120D82FEC374079E2433F8E68C
:10363200FD7C00EF75F008120D82AFF0C374079F96
:10364200FF74017E00A807088005C333CE33CED8AD
:0B365200F9FFEE5CFEEF5D4E24FF224E
:10392100EF75F008120D82FEC374079E242BF8C0B8
:1039310000E6FEEF75F008120D82AFF07401A807E2
:0C394100088002C333D8FC4ED000F622F0
:1038F400EF75F008120D82FEC374079E242BF8C0E6
:1039040000E6FEEF75F008120D82AFF07401A8070F
:0D391400088002C333D8FCF45ED000F62218
:1034C800C284C285D286D284A28692527F3F30526D
:1034D8000512392180031238F4900193743EF0905C
:1034E8000193E0FFC3648094804020D285A2869235
:1034F80052C2853052051239218008900193E0FFAD
:0C3508001238F4900193E014F080D422FB
:1037A100C283C283E4900168F0900168E0FFC364C2
:1037B1008094C05018C2821236225004D2808002F6
:1037C100C280D28200900168E004F080DCD283C222
:0237D100812253
:1017C3009001A9EBF0A3EAF0A3E9F0E49001B1F0F2
:1017D300C3ED9401EC940050030219BF9001AFE0F4
:1017E3002DFF9001AEE03CFED3EF9445EE94004014
:1017F300030219BF90020BE0FEA3E0FFC3ED9FFFBE
:10180300EC9EFE9001B0E01470030218F80460032C
:101813000219C5D39001AFE094009001AEE09400AB
:1018230050030219C5EF9404EE648094805025EFB1
:1018330025E02433F8E6FD9001A9E0FBA3E475F06D
:1018430001120E46A9F0FAED120DEAEF25E0243459
:10185300F8E68076C3EF9434EE6480948050219050
:1018630001A9E0FBA3E475F001120E46A9F0FAE426
:10187300120DEA74092FF58274023EF583E0804A63
:10188300C3EF9443EE6480948050219001A9E0FB60
:10189300A3E475F001120E46A9F0FAE4120DEA74FE
:1018A300C32FF58274013EF583E0801EEF64434E3F
:1018B300702D9001A9E0FBA3E475F001120E46A977
:1018C300F0FAE4120DEA9001F1E0FD9001A9E0FBCA
:1018D300A3E475F001120E46A9F0FAED120DEA0F1A
:1018E300BF00010E9001AFE024FFF09001AEE034A1
:1018F300FFF0021816302C030219B7D39001AFE0A2
:1019030094009001AEE0940050030219C5EF9404D3
:10191300EE64809480503A9001A9E0FBA3E475F053
:1019230001120E46A9F0FA120DA4FDEF25E02433AF
:10193300F8A6059001A9E0FBA3E475F001120E4699
:10194300A9F0FA120DA4FDEF25E02434F8A60580D2
:101953004DC3EF9434EE6480948050429001AAE426
:1019630075F001120E309001A9E0FBA3E475F001BC
:10197300120E46A9F0FA120DA4FD74092FF5827414
:10198300023EF583EDF0EF64304E70069001F5F002
:10199300A3F0EF64314E700690023A7451F00FBF1A
:1019A30000010E9001AFE024FFF09001AEE034FFA0
:1019B300F00218FE9001B17402F080069001B17438
:0819C30001F09001B1E0FF22E8
:10280E009001A5EBF0A3EAF0A3E9F0E49001ACF09F
:10281E00C3ED9401EC940050030228D69001ABE076
:10282E002DFF9001AAE03CFED3EF9406EE940040FB
:10283E00030228D69001F2E0FEA3E0FFC3ED9FFF56
:10284E00EC9EAD07FCD39001ABE094009001AAE0A2
:10285E009400407AED64044C70209001F5E0FF90F6
:10286E0001A5E0FBA3E475F001120E46A9F0FAEF04
:10287E00120DEA9001F5A3E08023ED25E0242BF85C
:10288E00E6FF9001A5E0FBA3E475F001120E46A948
:10289E00F0FAEF120DEAED25E0242CF8E6FF900198
:1028AE00A5E0FBA3E475F001120E46A9F0FAEF12B3
:1028BE000DEA0DBD00010C9001ABE024FFF090017C
:1028CE00AAE034FFF00228539001AC7401F090019D
:0428DE00ACE0FF2249
:03000B000210D907
:1010D400C2AF80FE321210D885D00B75D008FAC288
:1010E4008CE58A2407F58AE58C34B8F58CD28CEC2F
:1010F400248EF8E6BC0F0274FFC39581B41400403B
:10110400CF7910786D16E608700BC2AFE630E103B4
:101114004418F6D2AF08D9EDEA8BD0D25722E50CA9
:10112400FF23246EF80F0808EFB50C06105703438D
:101134008701BF10047F00786EE630E4E800E50C18
:10114400C39F5020050C748D250CF8E6FDA681087C
:10115400E6AE0CBE0F0274FFCDF8E86D60E008E661
:10116400C0E080F6E50CD39F4027E50C248EF8E61A
:10117400AE0CBE0F0274FFFD18E6CDF8E5816D607C
:1011840006D0E0F61880F5E50C248DC8F6150C8021
:10119400D3E50C23246EF87F04C2AFE630E00310DD
:1011A400E20C7F0030E10730E3047F0854F4C2E727
:1011B400C6D2AF5480420722788DA681740F600690
:1011C400FF0876FFDFFB7F10E4786DF608F608DF92
:1011D400FA786E7630903A29740193C0E0E493C0B3
:1011E400E0438901758A00758CB8D28CD2AFD2A93C
:0211F400220FC8
:0825DC004102BCFF4102B9FFFE
:10376E0020552FC2AC205409205606D2548F998072
:10377E001F9002BDE0FE04F0EE541F244DF8A60784
:10378E009002BAE0FF9002BDE06F541F7002D25556
:03379E00D2AC2288
:1033D700900190EFF0BF0A2130551912132F900278
:1033E700BCEFF0E4FBFAFD7F011213329002BC74CC
:1033F700FFF080E47F0D12376E30551912132F90AE
:1034070002BCEFF0E4FBFAFD7F011213329002BC1D
:1034170074FFF080E4900190E0FF12376E90019006
:03342700E0FF22A1
:1036D1009002B8E0FF9002BBE0B5071912132F90DA
:1036E10002B9EFF0E4FBFAFD7F011213329002B947
:1036F10074FFF080DB9002B8E0FF04F0EF54072480
:0537010045F8E6FF227F
:03002300022E6C3E
:102E6C00C0E0C0F0C083C082C0D075D010C2533057
:102E7C009844AF99C298EF24EF600824FE700CD2EE
:102E8C00568033A2569253C256802B9002B8E0243F
:102E9C0008FDE433FC9002BBE06D7001EC600CE0CB
:102EAC00FE04F0EE54072445F8A6179002B9E0FF93
:102EBC00F4600312130820990330532FC299900227
:102ECC00BDE0FF9002BAE06F601F20561EE0FF04C9
:102EDC00F0EF541F244DF8E6F599C2559002BCE072
:102EEC00FFF460071213088002C254D0D0D082D0F5
:062EFC0083D0F0D0E032AB
:103A670053877F759850538EBF538EFE53890F43EC
:0D3A77008920758BD0758DD0C2ABD28E2208
:1039C10000C2A40000000000000000D2A500000019
:1039D10000D2A400000000C2A500000000C2A400A3
:0439E10000000022C0
:103A490000C2A400000000C2A500000000D2A4002A
:0E3A5900000000D2A5000000000000000022C6
:103AD8000000000000C2A400000000C2A500000011
:0A3AE80000D2A400000000C2A422D6
:1038C6001239C144A0FF1239761238D7AF05123922
:0138D600767B
:1038D700D2A500C2A40000000000000000D2A4008E
:0D38E700000000A2A5E433FF0000C2A422EF
:1039E500D2A500E4FEEF25E0FFD2A400000000A26E
:1039F500A5E4334FFF00000000C2A40EEEB408E5B5
:023A050000229D
:1039760000E4FEEF30E704D2A58002C2A5000000F5
:1039860000D2A400000000C2A400000000EF25E061
:07399600FF0EEEB408DD2274
:10351400AC07C2B6EC25E0FC1238C61239C1EC4443
:10352400A1FF1239761238D790012FE06401601997
:103534001239E5EF120DEA123AD8740129F9E43A86
:10354400FA90012FE014F080DF1239E5EF120DEA52
:093554001238D7123A49D2B6220E
:1035E400C2B6EF25E0FF1238C6900199E0601912C7
:1035F4000DA4FF1239761238D7740129F9E43AFA86
:10360400900199E014F080E1123A49E4FFFE0000D1
:0E3614000FBF00010EBE5DF6BFC0F3D2B6229E
:103ABD00AD07AC06ECFF7B017A01792990012F74DB
:0B3ACD0001F0123514900129E0FF22E7
:103AA100900193EDF0AB07AA06EAFFAD037B017A23
:0C3AB1000179939001997401F00235E452
:1025E40041029A026040025304FF1D4203FF201D72
:1025F40010FF262D06FF2F8E17FF139100000000F9
:1026040000000000000000000000000000000000C6
:1026140000000000000000000000000000000000B6
:082624000000000000000000AE
:102D3000900193EFF0AE03E490019BF0ED600BC3C4
:102D400094014006EDD394F7400890019B7402F083
:102D5000807B90024FEDF0900193E0704A9002501A
:102D600074FFF0A3743BF0A3740AF0900249E4F0FE
:102D7000A3F0A3F0AF06AD07C005900196E0FCA359
:102D8000E0FDA3E0FEA3E0FF90019E120FBD9001C5
:102D90009AE09001A2F090024FE0FFD0051232714C
:102DA00090019BEFF0800690019B7402F090019BD4
:102DB000E0701A120003EF700890019B7403F0801A
:102DC0000C900193E0900299F0A37401F090019BA4
:032DD000E0FF22FF
:101BCB009002BEEBF0A3EAF0A3E9F0AD07E4C39DEE
:101BDB004003021D36ED947F4003021D36C2AF90C9
:101BEB0002BEE0FBA3E0FAA3E04A4B7003021CBF6A
:101BFB00E4A3F0A3F09002C1E0FEA3E0FFC39410B6
:101C0B00EE648094804003021CA6EF7802C333CEAF
:101C1B0033CED8F9FF2454F58274023EF583E0FBF2
:101C2B00A3E0FAA3E04A4B603674542FF58274029A
:101C3B003EF583E0FBA3E0FAA3E0F9C003C002C0CA
:101C4B00019002BEE0FBA3E0FAA3E0F9D082D083BF
:101C5B00D0E06B7008E965827003EA6583702B74C2
:101C6B00532FF58274023EF583EDF09002BEE0FB3C
:101C7B00A3E0FAA3E0F974542FF58274023EF583C6
:101C8B00EBF0A3EAF0A3E9F080119002C2E004F0BC
:101C9B0070069002C1E004F0021C009002C1E070DB
:101CAB0004A3E0641060047F0080027F049002C3F1
:101CBB00EFF08073E49002C1F0A3F09002C1E0FE5C
:101CCB00A3E0FFC39410EE648094805055EF78022C
:101CDB00C333CE33CED8F92453F58274023EF58349
:101CEB00E0B5052E9002C1E0FEA3E07802C333CE2F
:101CFB0033CED8F9FF2453F58274023EF583E4F01A
:101D0B0074542FF58274023EF583E4F0A3F0A3F034
:101D1B0080109002C2E004F070A19002C1E004F0C8
:101D2B008099E49002C3F0D2AF80069002C3740294
:071D3B00F09002C3E0FF225B
:1037D300E49002C8F090029AE0B4011A900249E022
:1037E300FBA3E0FAA3E04A4B6012900249A3A3E0D3
:1037F300F912104980069002C87406F09002C8E0DE
:02380300FF22A2
:103A0700E4900193F090029AE0B4010A120026E4D0
:103A170090029AF080069001937406F0900193E06B
:023A2700FF227C
:10373A0090029AE07014900250A3E0FAA3E0F91202
:10374A00104990029A7401F0800790029AE0B4013D
:10375A0007E49002C9F080069002C97406F090024C
:04376A00C9E0FF2291
:1015B800E4900195F090029AE060037F06227B0197
:1015C8007A01799612000EEF640160030217C09049
:1015D8000196E024FE604E0460030217C090019A51
:1015E8007401F0A37402F0A37441F0A37401F0A392
:1015F8007402F0A37446F07B017A027944122BDE60
:10160800900195EFF060030217C090024FE0FF9041
:101618000244E0FE6F6006EE60030217C07F02120C
:101628003B250217C0900241E0FBA3E0FAA3E0F9D2
:10163800120DA4900245F09002487401F0E4900164
:1016480093F0A3F0900193E0FEA3E0FFC39410EEA3
:1016580064809480400302174DEF7802C333CE3381
:10166800CED8F92453F58274023EF583E0FF700367
:1016780002174D900245E0FE6F600302173CEE240E
:10168800FD603424FD606C24F6604A24F97003027E
:1016980017192413600302174D90019A7401F0A3DF
:1016A8007402F0A37446F0900241E0FBA3E0FAA3B1
:1016B800E0F9121D42807690019A7401F0A3740239
:1016C800F0A37446F0900241E0FBA3E0FAA3E0F92E
:1016D80012201D805890019A7401F0A37402F0A39F
:1016E8007446F0900241E0FBA3E0FAA3E0F9122669
:1016F8002D803A90019A7401F0A37402F0A3744605
:10170800F0900241E0FBA3E0FAA3E0F9122F8E80EB
:101718001C90019A7401F0A37402F0A37446F0902F
:101728000241E0FBA3E0FAA3E0F91213919002480A
:10173800EFF08011900194E004F07006900193E0BE
:1017480004F002164C900244E0606D900248E0FFFD
:10175800603FE4900246F0A3F0900245E04480FE2A
:10176800900241E0FBA3E0FAA3E0F9900246E47599
:10177800F001120E4685F082F583EE120DFC900200
:1017880046E475F001120E4685F082F583EF120DDE
:10179800FC90024FE0FF900241E0FBA3E0FAA3E0D7
:1017A800F9900246E0FDA3E090019BCDF0A3EDF097
:0B17B800122B27900195EFF07F00221C
:1019CB0000C1814001C0804101C0804100C1814004
:1019DB0001C0804100C1814000C1814001C08041F4
:1019EB0001C0804100C1814000C1814001C08041E4
:1019FB0000C1814001C0804101C0804100C18140D4
:101A0B0001C0804100C1814000C1814001C08041C3
:101A1B0000C1814001C0804101C0804100C18140B3
:101A2B0000C1814001C0804101C0804100C18140A3
:101A3B0001C0804100C1814000C1814001C0804193
:101A4B0001C0804100C1814000C1814001C0804183
:101A5B0000C1814001C0804101C0804100C1814073
:101A6B0000C1814001C0804101C0804100C1814063
:101A7B0001C0804100C1814000C1814001C0804153
:101A8B0000C1814001C0804101C0804100C1814043
:101A9B0001C0804100C1814000C1814001C0804133
:101AAB0001C0804100C1814000C1814001C0804123
:101ABB0000C1814001C0804101C0804100C1814013
:101ACB0000C0C101C30302C2C60607C705C5C404D3
:101ADB00CC0C0DCD0FCFCE0E0ACACB0BC90908C843
:101AEB00D81819D91BDBDA1A1EDEDF1FDD1D1CDC33
:101AFB0014D4D515D71716D6D21213D311D1D010A3
:101B0B00F03031F133F3F23236F6F737F53534F492
:101B1B003CFCFD3DFF3F3EFEFA3A3BFB39F9F83802
:101B2B0028E8E929EB2B2AEAEE2E2FEF2DEDEC2CF2
:101B3B00E42425E527E7E62622E2E323E12120E062
:101B4B00A06061A163A3A26266A6A767A56564A452
:101B5B006CACAD6DAF6F6EAEAA6A6BAB69A9A868C2
:101B6B0078B8B979BB7B7ABABE7E7FBF7DBDBC7CB2
:101B7B00B47475B577B7B67672B2B373B17170B022
:101B8B005090915193535292965657975595945412
:101B9B009C5C5D9D5F9F9E5E5A9A9B5B9959589882
:101BAB00884849894B8B8A4A4E8E8F4F8D4D4C8C72
:101BBB0044848545874746868242438341818040E2
:1032CF009001A2EBF0A3EAF0A3E9F0A3ECF0A3EDD9
:1032DF00F07FFF7DFF9001A574FFF5F0120E4645BC
:1032EF00F060339001A2E0FBA3E475F001120E46EB
:1032FF00A9F0FA120DA46DFB7A0024CBF582EA3403
:10330F0019F583E4936FFD74CB2BF582EA341AF52C
:0B331F0083E493FF80BFEFFEEDFF2270
:10327100E49001A3F0C2AFAF05C00790019EE0FC4E
:10328100A3E0FDA3E0FEA3E0FF9001A5120FBD9016
:1032910001A97408F09001A2E09001AAF0D00712F0
:1032A1002DD3EF64016002801290019EA3A3E0FE82
:1032B100A3E0FF12347BEF640160069001A3740365
:0E32C100F0D2AFE4900000F09001A3E0FF22F5
:10002600C2AFE4900001F0FD7F01123897123B1831
:03003600D2AF2224
:0E3B0A00C2AFE4FDFF123897123B31D2AF225A
:102BDE00900197EBF0A3EAF0A3E9F0E49001A0F0E6
:102BEE00A3F0C2AFC3900003E09404900002E094FF
:102BFE000040667B017A007904E0FCA3E0FD12320E
:102C0E00CFEF4E7054900004E0FF900197E0FBA3CD
:102C1E00E0FAA3E0F9EF120DEA900003E024FDFFC5
:102C2E00900002E034FFF990019DE0FBA3E0FAA3CF
:102C3E00E0C98FF0120EBF7B017A007905C003C088
:102C4E0002C00190019AE0FBA3E0FAA3E0F9120F93
:102C5E00FA9001A07401F0801B7B017A0079049038
:102C6E000002E0FCA3E0FD1232CFEF4E60069001B1
:0C2C7E00A17405F0D2AF9001A1E0FF228C
:102B2700E490019DF0C2AF900001E06401600302F0
:102B37002BD0E924FFF9EA34FFFA900106EBF0A362
:102B4700EAF0A3E9F0900104E4F0A304F090010691
:102B5700E0FBA3E0FAA3E0F9EF120DEA90019BE096
:102B6700FEA3E0FF900105E02FF0900104E03EF0A6
:102B7700900106E0FBA3E0FAA3E0F9900104E0FC72
:102B8700A3E0FD1232CF900104E475F001120E4666
:102B9700FA740425F0F58274003AF583EFF0EEFF3E
:102BA700900104E475F001120E46FC740425F0F55B
:102BB7008274003CF583EFF09000007401F0FDE4AF
:102BC700FF123897123207800690019D7405F0D2E4
:072BD700AF90019DE0FF2219
:10301A00E49001B3F07B017A0179B4123B3A900053
:10302A0001E014600C1460351460042403705F809E
:10303A005AE4900002F0A3F09001B4E0FF9000027D
:10304A00E475F001120E46FC740425F0F582740052
:10305A003CF583EFF09000017402F0802EC39000DB
:10306A0002E09401501F9001B4E0FF900002E47561
:10307A00F001120E46FC740425F0F58274003CF54A
:10308A0083EFF080069000017403F0123B18900160
:04309A00B3E0FF227E
:10320700E49001B3F0900000E014600C047055E402
:10321700FD7F01123897804C900104E07002A3E013
:10322700602C900106E0FBA3E0FAA3E0F9120DA4DD
:10323700FF12003E900107E475F001120E30900175
:1032470005E024FFF0900104E034FFF080167F03CF
:10325700123B259001B3EFF0E4FD7F01123897E4AC
:0A326700900000F09001B3E0FF2298
:10369800E49001B2F0900001E024FE601314601A77
:1036A80024037016E4FF123B259001B2EFF0800A64
:1036B8007F01123B259001B2EFF0123B31900001DF
:0936C8007401F09001B2E0FF2250
:10347B00EF4E602BEF25E0FFEE33FE7C007D0C1250
:10348B00104FA804A905AA06AB077F007E807D8399
:10349B007C65120F1A9002C4EEF0A3EFF08007E4E4
:1034AB009002C4F0A3F0E4F5D8F5D975DA48900290
:0D34BB00C4E0FEA3E0F5EAEEF5FA7F012281
:0D3B1800E4F5D875DA49F5E9F5F9D2DE22B9
:093B3100C2DE75DA48E4F5D82281
:03003B0002365D2D
:10365D00C0E0C0F0C083C082C0D075D000C000C033
:10366D0001C002C003C004C005C006C007123698D1
:10367D00D007D006D005D004D003D002D001D000A1
:0B368D00D0D0D082D083D0F0D0E0324B
:0100220022BB
:08000300E49002C6F07F012227
:0C3B25009002C67401F0A3EFF07F0122B3
:10000E00E4FF9002C6E0600BA3E0120DEAE490025A
:04001E00C6F00F22F7
:10389700EF6007ED6004D2908015EF700AED6007C6
:1038A700D290539AEF800BEF600CED7009C29043F2
:0F38B7009A1043AF0122C290539AEF53AFFE22F3
:102DD3009001A4EFF07F007EC27D017C00A3E0F8A8
:102DE300A3E0F9A3E0FAA3E0FBD3120FAC5016E47F
:102DF3007F807E25FDFC9001A5E0F8A3A3A3E0C39B
:102E0300120FAC500A9001A5120FC900004B00909D
:102E130001A5E0F8A3E0F9A3E0FAA3E0FB7F007EBD
:102E2300807D517C01120F1AE47B20FAF9F8120F0E
:102E33001AEFF404F59C9001A4E0B4011553877FC5
:102E4300759850438E04438E01438E10C29CC2ACCE
:102E53008012538EF7759A50438E04438E10539A03
:092E6300EF53AFFEC2907F012283
:05003E008F9B7F0122F1
:083B3A00E59B120DEA7F012258
:033B420002320745
:033B450002301A31
:0300430002342A5A
:10342A00C0E0C0F0C083C082C0D075D000C000C068
:10343A0001C002C003C004C005C006C007E59A3037
:10344A00E006539AFE123B45E59A30E109539AFD8C
:10345A00309003123B42D007D006D005D004D003E7
:10346A00D002D001D000D0D0D082D083D0F0D0E02A
:01347A00321F
:0100390022A4
:102F8E00900197EBF0A3EAF0A3E9F0E490019FF033
:102F9E0090019AE0FBA3E0FAA3E0F9120E5C64053F
:102FAE0045F0705C900197E0FBA3E0FAA3E0F99086
:102FBE000001120DBD90019DF0A3E4F090000212ED
:102FCE000DBDFF90019DE0F0A3E04FF0E004F07026
:102FDE000690019DE004F0E92403F9E43AFA900129
:102FEE009DE0FCA3E0FD9001AEE4F0A304F0A3F09D
:102FFE001217C3EF6010123A8490019FEFF0800613
:0C300E0090019F7403F090019FE0FF22EE
:10262D00900197EBF0A3EAF0A3E9F0E49001A1F09B
:10263D0090019AE0FBA3E0FAA3E0F9120E5CC394BB
:10264D0006E5F09400500302271A900197E0FBA3D2
:10265D00E0FAA3E0F9900001120DBD90019DF0A3E9
:10266D00E4F0900002120DBDFF90019DE0F0A3E09B
:10267D004FF0E004F0700690019DE004F09000032F
:10268D00120DBD90019FF0A3E4F0900004120DBD5A
:10269D00FF90019FE0F0A3E04FF0900005120DBDFB
:1026AD00FF90019FE0FCA3E0FDC39401EC9400407A
:1026BD005CD3ED9478EC94005053ED25E06F704DA4
:1026CD00900197E0FBA3E0FAA3E02406F9E43AFABF
:1026DD0090019DE0FCA3E0FDA3E0FFA3E09001AE1F
:1026ED00CFF0A3EFF0A37401F01217C3EF600A123D
:1026FD003A849001A1EFF0801A90019AE0FBA3E0DB
:10270D00FAA3E0F9E475F005120EBF80069001A161
:09271D007403F09001A1E0FF2219
:10201D00900197EBF0A3EAF0A3E9F0E49001A4F0AE
:10202D0090019AE0FBA3E0FAA3E0F9120E5C6405BF
:10203D0045F0600302217B900197E0FBA3E0FAA33A
:10204D00E0F9900001120DBD90019DF0A3E4F09018
:10205D000002120DBDFF90019DE0F0A3E04FF0E0F6
:10206D0004F0700690019DE004F0900003120DBD88
:10207D0090019FF0A3E4F0900004120DBDFF7E00CF
:10208D0090019FEEF0A3EFF0C39401EE9400500386
:10209D0002217BD3E0947D90019FE09400400302E8
:1020AD00217B900197E0F9A3E0FAA3E09001A1C98B
:1020BD00F0A3EAF0A3E9F090019AE0FBA3E0FAA304
:1020CD00E0F9E4F5F0120EBF9001A1E0FBA3E47579
:1020DD00F001120E46A9F0FA7403120DEA90019A5E
:1020ED00E0FBA3E0FAA3E0F9E475F001120E87908E
:1020FD00019FA3E025E0FFA3E0FBA3E475F001122F
:10210D000E46A9F0FAEF120DEA90019AE0FBA3E05A
:10211D00FAA3E0F9E475F001120E879001A1E0FB3E
:10212D00A3E0FAA3E0F990019DE0FCA3E0FDA3E09C
:10213D00FFA3E09001AECFF0A3EFF0E4A3F01217F0
:10214D00C3EF600A123A849001A4EFF0802690014B
:10215D00A0E025E0FF90019FE033FE90019AE0FBA7
:10216D00A3E0FAA3E0F9EE8FF0120E87800690013E
:0A217D00A47403F09001A4E0FF2217
:10139100900197EBF0A3EAF0A3E9F0E49001A8F043
:1013A10090019AE0FBA3E0FAA3E0F9120E5CC3946A
:1013B1000AE5F0940050030215B2900197E0FBA3F7
:1013C100E0FAA3E0F9900001120DBD90019DF0A398
:1013D100E4F0900002120DBDFF90019DE0F0A3E04A
:1013E1004FF0E004F0700690019DE004F0900003DE
:1013F100120DBD90019FF0A3E4F0900004120DBD09
:10140100FF90019FE0F0A3E04FF0900005120DBDA9
:101411009001A1F0A3E4F0900006120DBDFF900130
:10142100A1E0F0A3E04FF0E004F070069001A1E02C
:1014310004F0900007120DBD9001A3F0A3E4F09019
:101441000008120DBDFF9001A3E0F0A3E04FF09062
:101451000009120DBDFD90019FE0FEA3E0FFC394C2
:1014610001EE940050030215ACD3EF947DEE94008D
:1014710040030215AC9001A3E0FEA3E0FFC3940179
:10148100EE940050030215ACD3EF9479EE94004032
:10149100030215ACEF25E0FFEE33FEED6F7001EEB8
:1014A10060030215AC900197E0FBA3E0FAA3E024EE
:1014B1000AF9E43AFA9001A1E0FCA3E0FDA3E0FF00
:1014C100A3E09001AECFF0A3EFF0A37401F01217E7
:1014D100C3AD07ED600302159E900197E0F9A3E00B
:1014E100FAA3E09001A5C9F0A3EAF0A3E9F0900105
:1014F1009AE0FBA3E0FAA3E0F9E4F5F0120EBF9045
:1015010001A5E0FBA3E475F001120E46A9F0FA74FF
:1015110017120DEA90019AE0FBA3E0FAA3E0F9E4C7
:1015210075F001120E8790019FA3E025E0FF900165
:10153100A5E0FBA3E475F001120E46A9F0FAEF1243
:101541000DEA90019AE0FBA3E0FAA3E0F9E475F05B
:1015510001120E879001A5E0FBA3E0FAA3E0F99048
:10156100019DE0FCA3E0FDA3E0FFA3E09001AECF6D
:10157100F0A3EFF0E4A3F01217C3AD07ED701E90D6
:1015810001A0E025E0FF90019FE033FE90019AE089
:10159100FBA3E0FAA3E0F9EE8FF0120E87ED6011E4
:1015A100FF123A849001A8EFF080069001A874031D
:0715B100F09001A8E0FF2209
:1024020090029BEBF0A3EAF0A3E9F09002A1E0FFB7
:102412009002A8E4F0A3EFF0EDAE047803CEC3136C
:10242200CE13D8F9FF9002A6EEF0A3EFF09002A629
:10243200E0FEA3E07803C333CE33CED8F9FFC3ED79
:102442009FFFEC9E9002A8E0FEA3E0A8070880058B
:10245200C333CE33CED8F9F0EE9002A8F09002A0AA
:10246200E0FF74017E00A807088005C333CE33CE97
:10247200D8F924FFFFEE34FF9002A4F0A3EFF0A3FB
:10248200A3E075F008A4FFC3ED9FFF9002A4E0FE55
:10249200A3E0A807088005C333CE33CED8F9F0EE07
:1024A2009002A4F090029BE0FBA3E0FAA3E0F99073
:1024B20002A6E0FEA3E0F5828E83120DBDFF90021C
:1024C200A2E4F0A3EFF09002A7E02401FF9002A69D
:1024D200E034008F82F583120DBDFE9002A2E04E21
:1024E200F0A3E0F0A3E0FEA3E0F4FFEEF4FE90021E
:1024F200A2E05EFEA3E05FFF9002A8E04EFEA3E032
:102502004FFF9002A2EEF0A3EFF09002A6E0FCA330
:10251200E0FDF5828C83EF120DFC9002A2E08D8229
:062522008C83A3020DFCF6
:1028E2009002AAEBF0A3EAF0A3E9F0EDAE047803BC
:1028F200CEC313CE13D8F9FF9002B4EEF0A3EFF0DB
:102902009002B4E0FEA3E07803C333CE33CED8F90D
:10291200FFC3ED9FFFEC9E9002B6F0A3EFF0900292
:10292200AFE0FF74017E00A807088005C333CE33F1
:10293200CED8F924FFFFEE34FF9002B2F0A3EFF0FD
:102942009002AAE0FBA3E0FAA3E0F99002B4E0FE51
:10295200A3E0F5828E83120DBDFF9002B0E4F0A3D6
:10296200EFF09002B5E02401FF9002B4E034008F52
:1029720082F583120DBDFE9002B0E04EF0A3E0F0AE
:102982009002B6A3E0FF9002B0E0FEA3E0A8070821
:102992008005CEC313CE13D8F9FF9002B0EEF0A398
:1029A200EFF0A3E05EFEA3E05FFF9002B0EEF0A3C3
:0329B200EFF02221
:103A8400EF14600C24FA600C2407700CE4FE800A26
:0D3A94007E0280067E0680027E04AF0622C0
:101D4200900197EBF0A3EAF0A3E9F0E49001A4F08C
:101D520090019AE0FBA3E0FAA3E0F9120E5C64059D
:101D620045F06003021EA4900197E0FBA3E0FAA3F2
:101D7200E0F9900001120DBD90019DF0A3E4F090F6
:101D82000002120DBDFF90019DE0F0A3E04FF0E0D4
:101D920004F0700690019DE004F0900003120DBD66
:101DA20090019FF0A3E4F0900004120DBDFF90019A
:101DB2009FE0FEA3E04FFF90019FEEF0FEA3EFF045
:101DC200C39401EE94005003021EA4E0947D90019E
:101DD2009FE094004003021EA4900197E0F9A3E063
:101DE200FAA3E09001A1C9F0A3EAF0A3E9F09001FF
:101DF2009AE0FBA3E0FAA3E0F9E4F5F0120EBF903B
:101E020001A1E0FBA3E475F001120E46A9F0FA74F9
:101E120004120DEA90019AE0FBA3E0FAA3E0F9E4D0
:101E220075F001120E8790019FA3E025E0FFA3E069
:101E3200FBA3E475F001120E46A9F0FAEF120DEAC7
:101E420090019AE0FBA3E0FAA3E0F9E475F0011235
:101E52000E879001A1E0FBA3E0FAA3E0F990019DB7
:101E6200E0FCA3E0FDA3E0FFA3E09001AACFF0A372
:101E7200EFF012280EEF600A123A849001A4EFF0FC
:101E820080269001A0E025E0FF90019FE033FE90C4
:101E9200019AE0FBA3E0FAA3E0F9EE8FF0120E87BD
:0E1EA20080069001A47403F09001A4E0FF22DA
:1011F600EFD3940F40037FFF22746E2F2FF8E62063
:10120600E5F4C2AFE64430F6D2AFAE0CEEC39F5063
:10121600210E748D2EF8E6F908E618BE0F0274FF4B
:10122600FDED69600909E71919F7090980F3161632
:1012360080DAEED39F400405810581EED39F4022DC
:10124600748D2EF808E6F9EEB50C02A9811806068B
:10125600E6FDED6960091919E70909F71980F31E1A
:1012660080D9EF248DF8E604F8EF2F04903A2993FD
:09127600F608EF2F93F67F002229
:10127F00EFD3940F40037FFF22EF23246EF8E63065
:10128F00E5F4C2AFE6548CF6D2AFE50CB5070A749D
:10129F008D2FF8E6F581021122502E748E2FF8E66D
:1012AF00BF0F0274FFFD18E6F9748D2FF8FBE6FCF3
:1012BF00E96C6008A805E7F61D1980F4A803A605D8
:1012CF001FE50CB507E37F0022748E2FF8E6FD189B
:1012DF0086010F748D2FF8A601088604E50CB5075B
:1012EF0002AC81ED6C60080D09A805E6F780F4E506
:0912FF000CB507DE89817F002295
:10130800EFD3940F40037FFF22EF23246EF8C2AF80
:10131800E630E50530E002D2E4D2E2C6D2AF7F0083
:0713280030E2010F02111F6A
:03132F00AF0C22DE
:101332008FF0E4FFFEE50C23246DF8C2A930F70D0F
:101342007F08E6600B2DF660325030800730F106E0
:10135200EDF660277E020830F010C2AFE610E725F6
:101362000E30E20CD2AF7F048014C2AFE610E71554
:1013720054EC4EF6D2AFD2A90211227F0808EF44F4
:0F13820083F4C2AF56C6D2AFD2A954804FFF2218
:102F0E000211BCE493A3F8E493A34003F68001F20C
:102F1E0008DFF48029E493A3F85407240CC8C333C4
:102F2E00C4540F4420C8834004F456800146F6DF93
:102F3E00E4800B0102040810204080902528E47ED6
:102F4E00019360BCA3FF543F30E509541FFEE49388
:102F5E00A360010ECF54C025E060A840B8E493A34F
:102F6E00FAE493A3F8E493A3C8C582C8CAC583CA7A
:102F7E00F0A3C8C582C8CAC583CADFE9DEE780BE32
:01262C0000AD
:100D8200C2D530F707B2D563F0FF05F030E70CB2F9
:100D9200D5F4048463F0FF05F080018430D502F4B9
:020DA200042229
:100DA400BB010689828A83E0225002E722BBFE024D
:090DB400E32289828A83E4932280
:100DBD00BB010CE58229F582E5833AF583E02250EB
:100DCD0006E92582F8E622BBFE06E92582F8E22235
:0D0DDD00E58229F582E5833AF583E493224F
:100DEA00BB010689828A83F0225002F722BBFE01E8
:020DFA00F322E2
:100DFC00F8BB010DE58229F582E5833AF583E8F02D
:100E0C00225006E92582C8F622BBFE05E92582C8D8
:020E1C00F222C0
:100E1E00EF8DF0A4A8F0CF8CF0A428CE8DF0A42EE8
:020E2E00FE22A2
:100E3000C5F0F8A3E028F0C5F0F8E582158270024D
:060E40001583E038F022EA
:100E4600A3F8E0C5F025F0F0E5821582700215835F
:060E5600E0C838F0E822BC
:100E5C00BB010A89828A83E0F5F0A3E02250068761
:100E6C00F009E71922BBFE07E3F5F009E319228923
:0B0E7C00828A83E493F5F07401932256
:100E8700BB010789828A83020E30500B09C5F02700
:100E9700F7C5F01937F722BBFE0D09F8E325F0F384
:100EA700C5F019E338F322F889828A837401932500
:080EB700F0C5F0F8E4933822C5
:100EBF00BB010A89828A83F0E5F0A3F0225006F77E
:0F0ECF0009A7F01922BBFE06F3E5F009F319227B
:100EDE0075F008758200EF2FFFEE33FECD33CDCCCB
:100EEE0033CCC58233C5829BED9AEC99E58298404E
:100EFE000CF582EE9BFEED9AFDEC99FC0FD5F0D62B
:100F0E00E4CEFBE4CDFAE4CCF9A88222B800C1B954
:100F1E000059BA002DEC8BF084CFCECDFCE5F0CB92
:100F2E00F97818EF2FFFEE33FEED33FDEC33FCEBCB
:100F3E0033FB10D703994004EB99FB0FD8E5E4F986
:100F4E00FA227818EF2FFFEE33FEED33FDEC33FC73
:100F5E00C933C910D7059BE99A4007EC9BFCE99A67
:100F6E00F90FD8E0E4C9FAE4CCFB2275F010EF2FAC
:100F7E00FFEE33FEED33FDCC33CCC833C810D707AC
:100F8E009BEC9AE899400AED9BFDEC9AFCE899F8E7
:0E0F9E000FD5F0DAE4CDFBE4CCFAE4C8F9227A
:100FAC00EB9FF5F0EA9E42F0E99D42F0E89C45F09B
:010FBC002212
:0C0FBD00ECF0A3EDF0A3EEF0A3EFF022A7
:100FC900A8828583F0D083D082120FE0120FE0123D
:100FD9000FE0120FE0E473E493A3C583C5F0C58362
:100FE900C8C582C8F0A3C583C5F0C583C8C582C872
:010FF90022D5
:100FFA00BB011A89828A83D0F0D0E0F8D0E0F9D018
:10100A00E0FAD0E0FBE8C0E0C0F002109C5016E91C
:10101A00F8D083D082D0E0F9D0E0FAD0E0FBC082E9
:10102A00C08302107CBBFE16E9F8D083D082D0E0E0
:0F103A00F9D0E0FAD0E0FBC082C0830210A522FB
:061049008A838982E47332
:10104F00EC8EF0A4CCC5F0CCCDF8EFA4CEC5F02D2E
:10105F00FDE43CFCE8A42EC8C5F03DFDE43CFCEFEC
:0D106F00A4FFE5F028FEE43DFDE43CFC227A
:100A1D00E540246BF582E43401F583E00540229036
:100A2D00016830500390016BE475F00112108502DE
:100A3D000DA42049E97F2ED2498018EF540F249040
:100A4D00D43440D4FF304D0BEF24BFB41A00500303
:100A5D002461FFE541600215410544E5447002053E
:100A6D004330500E900168E475F001121085EF02CD
:100A7D000DEA0233D77403D2508003E4C250F5401F
:100A8D0090016812109CE4F541F543F544E5416091
:100A9D00077F20120A6080F57542FFC24AC249C223
:100AAD004BC24CC24EC24FC251120A2CFF700D30B8
:100ABD0050057F00120A71AF44AE4322B4255FC2C8
:100ACD00D5C24D120A2CFF24D0B40A00501A75F06D
:100ADD000A784130D50508B6FF0106C6A426F620D2
:100AED00D5047002D24C80D924CFB41A00EF500433
:100AFD00C2E5D24D020C72D24A80C6D24980C0D214
:100B0D004B80BCD2D580BAD24E80B47F20120A6001
:100B1D00204B077401B5410040F1120A1DFF120A66
:100B2D0060020A9AD251D24F8095120A1DFB120A09
:100B3D001DFA120A1DF94A4B700679437A0D7BFF97
:100B4D00204B2EE541602A7E008E82758300120DAA
:100B5D00BD60060EEE654270F0C2D5EBC0E0EAC096
:100B6D00E0E9C0E0EE120CB9D0E0F9D0E0FAD0E047
:100B7D00FB120DA4FF60AAEBC0E0EAC0E0E9C0E003
:100B8D00120A60D0E02401F9D0E03400FAD0E0FB85
:100B9D00E5420460DCD542D980877BFF7A0C79B5BC
:100BAD00D24B809C791080027908C24FC2518008C7
:100BBD00D2D5790A8004790AC2D5E542047002F5CE
:100BCD0042E4FAFDFEFF120A1DFC7B08204A1312B7
:100BDD000A1DFD7B1030490A120A1DFE120A1DFF67
:100BED007B20EC3382D592D55013C3E43049069F58
:100BFD00FFE49EFEE4204A039DFDE49CFCE4CBF85B
:100C0D00C24AEC700CCFCECDCCE824F8F870F3804E
:100C1D0017C3EF33FFEE33FEED33FDEC33FCEB3357
:100C2D00FB994002FB0FD8E9EB304A05F8D0E0C440
:100C3D0048B24AC0E00AEC4D4E4F78207B0070C29E
:100C4D00EAB5420040BCC0E0120CBBD0F0D0E020B1
:100C5D004A04C4C0E0C4B24AC0F0120A49D0F0D56B
:100C6D00F0EB020A9A1210AE0B37530BB1580B086A
:100C7D004C0B04420BB54F0BBD440BBD490B1D4333
:080C8D000BC3550BA7460BA792
:100C9500450BA7470D63500B0C2D0B102E0B332B5B
:100CA5000B14230B31200D4C2A0ACC4800000B2BCA
:100CB5003F3F3F00790AA2D5204C14304E09B910A8
:100CC500020404B9080104A2D5204F0250010420F2
:100CD5004B68924BB541005034C0E07F20304C1931
:100CE5007F30A24B724F724E500F120D12C24BC283
:100CF5004FC24EC2517F30800F304E03E9C0E01223
:100D05000A60304E03D0E0F9D0E0B541CC304E1743
:100D15007F30B9100C120A607F58304D077F7880FC
:100D250003B90803120A60304B057F2D020A607F64
:100D3500202051F87F2B204FF322924B80CF286E35
:100D4500756C6C2900D24A120A1D304AF8C24A78DD
:100D55004130D50108F6020ACC2D50434958120AF4
:100D65001D2403B405004001E4900D5E93120A5161
:0D0D7500743A120A51D24C754104020BB1C0
:09107C00EBF608EAF608E9F62299
:10108500F8E0FBA3A3E0F925F0F0E58215827002F4
:071095001583E0FA38F02298
:09109C00EBF0A3EAF0A3E9F02255
:0910A500EBF208EAF208E9F2227C
:1010AE00D083D082F8E4937012740193700DA3A3D1
:1010BE0093F8740193F5828883E4737402936860E5
:0610CE00EFA3A3A380DFE5
:00000001FF
