:0239F400300E93
:0239F600272286
:0239F800218725
:0239FA00318E0C
:0239FC00004683
:0239FE0033256F
:023A0000359FF0
:023A04002A6432
:023A0600299EF7
:023A080022C9D1
:023A0A0006595B
:023A0C00337F06
:023A0E002C7E0C
:023A1000391863
:023A12003AD8A0
:03000000022EF6D7
:0C2EF600787FE4F6D8FD75819C022F3D2A
:103A88002A2A2D0073746172746564210A002A2A37
:0B3A9800256328256429002A2A2E003F
:1025220042020900014201F000014202060000607D
:102532003001BF05031E03060303280828140405FF
:10254200050501020C010000030138640B0B1A0A95
:102552000000000000000000000000000000000079
:102562005500AAC12BC1B74101F2004101BD00C112
:1025720080C181C102C183C104C105C106C107C1B5
:1025820008C109C10AC10BC10CC10DC10EC10FC1E5
:1025920010C111C112C113C114C115C116C117C195
:1025A20018C1194101B3004101B4004101B5004114
:1025B20001B6004101B7004101B8004101B9004133
:1025C20001BA004201BB0000C11AC11BC11CC11DDE
:0625D200C19EC11FC120E3
:10300E00121EB07F081211F67D0A7F021213327F54
:10301E000A1211F67D0A7F021213327F091211F67F
:10302E007F011211F67D0A7F021213327F0D1211EB
:10303E00F67D0A7F021213327F0B1211F67D0A7F84
:10304E00021213321231179001BDE070127D647FAF
:10305E00021213329001EFE070ED7462F080E8908E
:10306E0001EFE0B46202E4F07F021211F67DFA7F06
:10307E00021213327F041211F67D0A7F02121332EE
:05308E00E4FF02127FC7
:101EB000123A32E49001EFF0C22EC221C222C223B4
:101EC000C224C225C22690023BF0A3F0A3F0A3F0E7
:101ED000C227D233C229900205F0C2349001BEF06D
:101EE000D2357D647F021213327D647F0212133279
:101EF0007D647F021213327D647F021213329001DF
:101F000025120FC900000000E47F02FEFDFC9001D5
:101F100025E0F8A3E0F9A3E0FAA3E0FBC3120FACBD
:101F20005068E4900124F0900124E0FFC3648094A1
:101F300088500B74332FF8E4F6E004F080E9E49065
:101F40000124F0900124E0FFC3648094905019EFC5
:101F50003395E0FE74F52FF58274013EF583E4F0CD
:101F6000900124E004F080DB900125E0FCA3E0FD7B
:101F7000A3E0FEA3E02401FFE43EFEE43DFDE43CDB
:101F8000FC900125120FBD021F087F0212380A7F44
:101F90000112370D12379CC22CE4900124F09001FD
:101FA00024E0FFC3648094B05025EF3395E0FE1227
:101FB0003AA3900124E0FD3395E0FC740B2DF582EB
:101FC00074023CF583EFF0900124E004F080CF7FB1
:101FD000007E02123AA3EF7F00FEC006C0070F7E0C
:101FE00002123AA3EFFDD0E02DFED0E034009001C4
:101FF000F3F0A3CEF07402FFFE123AA3EF7F00FECF
:10200000C006C0077F037E02123AA3EFFDD0E02D89
:0D201000FED0E03400900206F0A3CEF022D6
:103117007F031211F67D0A7F021213327F051238E0
:103127000A7F0612380A7F0712380A7F0F12370DF7
:103137007F0E1211F67F1212380A900218E075F00E
:103147000AA4FD7F021213327F1212370D302409B1
:103157007D027F0212133280F47F1012380A900228
:103167001CE075F00AA4900208F09001F9745DF074
:10317700E52B20E703745BF0E52CA2E2922A922D5F
:07318700C2337F0202380A87
:102187007D647F02121332E53A30E7030222C81258
:1021970034C312379CE52C30E005200102D236E526
:1021A7002C20E102D203E53A30E7030222B6E52DFF
:1021B70030E12D30E21020000DE52C20E00820331F
:1021C700051235588013E52C30E00E20010BE52D64
:1021D70020E206302703123968E4FF12370D802505
:1021E7007D0A7F02121332E52D20E1119001EFE005
:1021F7006005C3946440069001EF7411F0E4FF1288
:10220700380A123968202C1DE52B30E6137D147F20
:1022170002121332E52B30E60C7F0412380A8005D0
:102227007F0412370DE52B30E72120E56220E15FBF
:1022370030275C300359E52C30E1547F03123831E5
:10224700404D7F0312380AC203804430271B3003F6
:1022570018E52C30E1137F03123831400CE52D20AF
:10226700E4077F0312380AC203E52D30E4217F0318
:10227700123831501A7F141238314002800C900204
:1022870029E0B4010A7F1412370D7F0312370DE5D9
:102297002B30E50A7F0612127F7F0812370DE52DD6
:1022A700A2E29200E52C139201E52BA2E692027DB1
:1022B700027F021213329001F9E0900239F00221F5
:0222C7008E2265
:10318E001234C312379CE53A20E7603021057F0BDD
:10319E0012380A3022057F0C12380A3023057F0DB3
:1031AE0012380A3024057F0E12380A7F023033059A
:1031BE0012380A800A12370D7D147F021213327DE7
:1031CE00327F021213327F0B12370D7F0C12370D26
:1031DE007F0D12370D7F0E12370D3033057F021221
:1031EE00370D7D327F0212133280957D027F0212DF
:0431FE001332808C7C
:10004600C23A1234C312379CE53A30E70302064F30
:10005600202C03020625D22830350A90020BE090A8
:1000660001F2F0C2359001F97403F0E52B30E74454
:100076007F0312383140127D027F02121332900143
:10008600EFE070EC74CBF080E79001EFE0B4CB02C8
:10009600E4F0E52D20E7127D027F02121332900173
:1000A600EFE070EE747BF080E99001EFE0647B7026
:1000B6007CF080799001F97404F07D027F021213BE
:1000C60032E52D30E70F30E00CE52B20E0077F13FB
:1000D600123831503CE52D20E7099001EFE070031E
:1000E600747BF0E52D20E0099001EFE07003747455
:1000F600F0E52B30E0099001EFE0700374BEF07F6D
:100106001312383150B49001EFE070AE74DBF0801A
:10011600A99001EFE0FF647B600EEF64746009EF65
:1001260064BE6004EFB4DB05E49001EFF0302A030F
:100136000202EA7F0A12380A7F0512370D7F06127D
:10014600370D7F0712370D7F051211F69001F974EE
:1001560005F07F061211F67F0F1211F69001F97461
:1001660007F0E4900132F090020DE0FF900132E0DA
:10017600C39F502B7D0A7F02121332E52B20E31F0B
:100186009001EFE070037467F090021FE060089042
:100196000132E0600214F0900132E004F080C89071
:1001A60001EFE0B46702E4F0E52C30E5057F1012BC
:1001B600380A90020DE0FFFD90023BE4F0A3EDF05B
:1001C600900132E0FD90023DE4F0A3EDF0C39F40C4
:1001D600030202BA9001F97406F0E52B30E355C22A
:1001E60030E4900132F090020CE075F005A4FF9027
:1001F6000132E0C39FE5F06480F874809850167D64
:10020600027F02121332E52C30E402D23090013222
:10021600E004F080D17F0512380A203017D22290F0
:1002260001EFE0FF6005C3946440069001EF740C93
:10023600F01239689001F97408F0E52B20E4127D7C
:10024600027F021213329001EFE070EE7468F080C4
:10025600E99001EFE0B46802E4F0C231E4900132C3
:10026600F0900210E075F005A4FF900132E0C39F04
:10027600E5F06480F874809850167D027F021213B0
:1002860032E52C30E502D231900132E004F080D123
:100296007F0612380A303103020330D2239001EF71
:1002A600E0FF6005C3946440069001EF740DF01200
:1002B600396880767F0F12380A7F0512380A7F0662
:1002C60012380A90020EE075F00AA4FD7F0212139E
:1002D600327F0F12370D90020FE075F00AA49002DC
:1002E60005F08046C22A9001EFE07003746EF0E5D7
:1002F6002B20E1347F0812380A7F1C12380AE4905A
:100306000132F0900220E0FF900132E0C39F500FCF
:100316007D0A7F02121332900132E004F080E47FFE
:100326001C12370DC23A8002D23A303A0302041840
:100336009001F97409F0E52B20E5127D027F021287
:1003460013329001EFE070EE7469F080E99001EFEE
:10035600E0FF64696004EFB46E05E49001EFF07F9E
:100366000612127F7F0812370DC232E4900132F076
:10037600900211E0FF900132E0C39F50227D0A7F78
:1003860002121332E52C30E60ED23290021AE075D4
:10039600F00AA4900208F0900132E004F080D17FC8
:1003A6000712380A12379C1234C3203217D224900F
:1003B60001EFE0FF6005C3946440069001EF740E00
:1003C600F01239689001F9740AF01234C3E52B3043
:1003D600E507E52D20E402802FE52D30E436E52BF8
:1003E60020E7317F0312370DE52D30E4127D027FC1
:1003F600021213329001EFE070EE7478F080E9900B
:1004060001EFE0B47802E4F07F1412380A12379C48
:100416008002C23A9001F9740DF0E52B20E7030241
:1004260004C8E52B20E1097D027F0212133280F217
:10043600E52D30E437E52D30E4127D027F021213FC
:10044600329001EFE070EE7478F080E9900215E0EA
:10045600900132F0900132E0D3940040487D647FF1
:1004660002121332900132E014F080E8E490013277
:10047600F0900219E075F00A84FF900132E0C39F04
:10048600500F7D647F02121332900132E004F08037
:10049600E0900219E075F00A84E5F075F00AA4FD13
:1004A6007F021213329001EFE0B47802E4F07F038A
:1004B60012370D7F1412370DD2347F1312370D0207
:1004C600064F9001F9740BF0E52B30E510E52D2071
:1004D600E40B9001EFE0B47816E4F080127D027F21
:1004E600021213329001EFE070DE7478F080D97F4B
:1004F6001412380A12379C7D027F021213327F03D0
:100506001238315012E52B30E10DE52D20E408E5D7
:100516002E20E4030205A37F03123831500FE52B8A
:1005260030E10AE52D20E405E52E20E7707F031271
:100536003831400B9001EFE0700E74CBF0800990DB
:1005460001EFE0B4CB02E4F0E52B20E10B9001EFE4
:10055600E0700E7465F080099001EFE0B46502E486
:10056600F0E52D30E40B9001EFE0700E7478F0802A
:10057600099001EFE0B47802E4F0E52E20E70F9051
:1005860001EFE060030204FD7483F00204FD9001B4
:10059600EFE0648360030204FDF00204FD7F1312A2
:1005A600380A9001EFE0FF64CB600EEF64656009E6
:1005B600EF64786004EFB48305E49001EFF09001F6
:1005C600F9740CF0E52B20E105E52C20E7307D02DF
:1005D6007F02121332E52B30E10B9001EFE0700E33
:1005E60074BFF080099001EFE0B4BF02E4F0E52C9F
:1005F60020E7D19001EFE070CB7473F080C67F13D3
:1006060012370D9001EFE0FF64BF6004EFB473058D
:10061600E49001EFF07F0C1211F612379C802AC28B
:1006260028C227C2337F0212380A7F0612127F7F42
:100636000812370D7F0512380A7F0612380A7F071F
:1006460012380A9001F97401F07D027F021213320A
:0306560002004857
:10065900E53A30E703020A1C900212E0700204F046
:10066900900214E0700204F0E52E139204E52EA224
:10067900E19205A2E29206A2E39207A2E59208A2FC
:10068900E69209E52C339217E52BA2E19219A2E330
:1006990092127F031238319214300417200D14E49A
:1006A9009001BEF07F1512370D7F1812370DE490B7
:1006B90001B3F0300519200E16E49001B4F07F154E
:1006C90012383140057F1812370D7F1912370D3056
:1006D9000705201002D234300D1A200417303414C3
:1006E90090021EE0600E302C0B1238007F15123874
:1006F9000A123701300657200F547F15123831403E
:100709004D7F1812383140467F19123831403F3039
:10071900042B200528900223E09001B4F07F1812E1
:10072900380A7F1912380A303413900226E09001F2
:10073900BEF0900223E09001B3F012370120040EBD
:1007490030340B1238007F1512380A123701E52BA5
:1007590030E72F30172C2016297F15123831400E1B
:100769007F1812383140077F191238315014E4903C
:1007790001BEF07F1512370D7F1812370D7F191240
:10078900370D30121520111230280F7F1A12380A2E
:10079900900212E09001B5F0C22B9001B5E0600221
:1007A90014F090022AE070269001B5E0B401057FAB
:1007B9001A12370D301906201803202803302B3B55
:1007C9007F1A12380A7F1B12380AC22B802D90011A
:1007D900B5E0B4010D7F1A12370D900212E09001B5
:1007E900B6F09001B6E0600214F09001B6E0B401F1
:1007F9000A7F1A12380A7F1B12380A9001B7E06083
:100809000214F09001B7E0B401057F1B12370D20E7
:10081900140B30130890021EE09001B8F09001B853
:10082900E06401704A30043020052D9001B3E07076
:1008390027900223E09001B4F07F1812380A7F193B
:1008490012380A303429900226E09001BEF0900255
:1008590023E09001B3F08014200414303411900186
:10086900B4E0700B1238007F1512380A1237019064
:1008790001B8E0600214F0A2149213A2129211A21C
:10088900199218A234920CA204920DA205920EA2FA
:1008990006920FA2079210A2179216900205E06025
:1008A9000914F07F0912380A80057F0912370D9063
:1008B9000208E0600214F0900208E0B401057F101C
:1008C90012370D9001B3E0600214F09001B3E0B467
:1008D900010F7F1812370D7F1512370DE49001BEF5
:1008E900F09001B4E0600214F09001B4E0B4010AA0
:1008F9007F1912370D7F1812370D9001F2E0600948
:1009090014F07F1F12380A80057F1F12370D9001DE
:10091900BEE0B401057F1512380A9001BEE06002FD
:1009290014F0302C51900227E0FF604A7E007C8C45
:100939007DA0120E1E9001BBE475F001120E30FC71
:10094900C3E5F09FEC9E402EE49001BBF0A3F0902C
:1009590001B9E07021A3E0701DD2157F1D12380A7C
:100969007F1E12370DE49001BAF0900224E075F071
:100979000AA49001B9F020154230081E200A1B7FF5
:100989001D12380A7F1E12370DE49001BAF0900249
:1009990024E075F00AA49001B9F030091E200B1B60
:1009A9007F1E12380A7F1D12370DE49001B9F090AD
:1009B9000225E075F00AA49001BAF09001B9E0604F
:1009C9000214F09001B9E070257F1D12370D301522
:1009D9001D7F1E12380A7F1D12370DE49001B9F0F0
:1009E900900225E075F00AA49001BAF0C2159001B1
:1009F900BAE0600214F09001BAE070057F1E123768
:100A09000DA208920AA209920B7D0A7F02121332E3
:040A19000206592256
:1022C900E52DA2E3921C201C0302235B301D0302AF
:1022D900235B7F0A1238314079E52B30E5097D0A05
:1022E9007F0212133280F27F0412127FD2297F12E9
:1022F90012380A7F0512380A7F0612380A7F071238
:10230900380A7F0912370D7F0612127F7F081237AC
:102319000D7F0F12370D7F0312370D900218E075EC
:10232900F00AA4FD7F021213327F1212370D9001B9
:10233900EFE0FF6005C3946440069001EF745AF022
:10234900123968D22BE52CA2E2922A922D7F04122F
:1023590011F6A21C921DE52D13921A301A030223BD
:10236900EE201B030223EE7F131238314077E52B51
:1023790030E5097D0A7F0212133280F27F041212BE
:102389007FD2297F1212380A7F0512380A7F061276
:10239900380A7F0712380A7F0912370D7F06121291
:1023A9007F7F0812370D7F0F12370D7F0312370D0C
:1023B900900218E075F00AA4FD7F021213327F1211
:1023C90012370D9001EFE0FF6005C3946440069059
:1023D90001EF7410F0123968E52CA2E2922A922DCD
:1023E9007F041211F6A21A921B7D057F0212133285
:0323F9000222C9F4
:10337F00E4900135F0900213E075F00A84FF90019C
:10338F0035E0C39F500F7D647F02121332900135D9
:10339F00E004F080E0900213E075F00A84E5F07528
:1033AF00F00AA4FD7F021213327F0312370D7F1430
:1033BF0012370DC2277D647F02121332D2277F0C82
:0333CF0002127F68
:10299E00E52B30E706A2E1923C8005E52C33923C14
:1029AE00203C03022A56301E03022A569001F4E000
:1029BE0004F070069001F3E004F0D2379001BDE010
:1029CE00600414F080239001EF7462F01239687B7A
:1029DE00FF7A3A7988120A887F0412127F7D647F0B
:1029EE00021213327F0212127F900207E004F0707F
:1029FE0006900206E004F0D22E900221E075F064FB
:102A0E00A4FFA3E07C002FFFEC35F0FEC39002077D
:102A1E00E09F900206E09E402FE4F0A3F07F11129B
:102A2E00380AE4900136F090021BE0FF900136E088
:102A3E00C39F500F7D647F02121332900136E00463
:102A4E00F080E47F1112370DA23C921E7D147F029E
:062A5E0012133202299E52
:10332500C22FE4900160F090020BE075F005A4FF58
:10333500900160E0C39FE5F06480F87480985016B2
:103345007D027F02121332E52C30E302D22F900169
:1033550060E004F080D17F0A12370D202F17D221AB
:103365009001EFE0FF6005C3946440069001EF749F
:0A3375000BF01239687F0502127F89
:10359F00E4900162F0900216E0FF900162E0C39F99
:1035AF0050147D647F02121332E52B20E108900145
:1035BF0062E004F080DF900216E0FF900162E0C34A
:1035CF009F40082029057F0812380A7F0602127FC4
:103AD800E52C20E5097D027F0212133280F27F1067
:083AE80012380A7F0F02127F61
:10391800E52C20E614D2247D027F02121332900196
:10392800EFE070EC7472F080E7C2249001EFE0B42D
:093938007202E4F07F0E02127F1E
:102A64001234C312379CE53A30E703022B11E52DEB
:102A7400A2E59246A2E69247202C03022AFF900187
:102A8400FD7401F020460330470C7F1612380A7D8E
:102A9400017F0212133220461130200E20470B9082
:102AA40001FD7403F07F1612370D204758301F556F
:102AB40020475220464F7F1612370DE4900163F0F1
:102AC40090021DE0FF900163E0C39F50387F17120E
:102AD400380A900217E075F00AA4FD7F021213323F
:102AE4007F1712370D900217E075F00AA4FD7F02DC
:102AF400121332900163E004F080C57F1612370D83
:102B04007F1712370DA247921FA24692207D027FA3
:072B140002121332022A64D1
:10272200E4900165F07BFF7A3A798C120A881236BE
:10273200CC900165E014601614602014602B1460C4
:1027420046240460030227EFEFB406E2801EEF7016
:10275200028019EFB40602801F8025EFB4010280C7
:102762000BEFB4060280118017EF7008900165E04C
:1027720004F080BAEFB406089001657401F080AEEF
:10278200E4900165F080A7E4900165F0EF75F00A2E
:10279200A49001BDF060303037947BFF7A3A79968D
:1027A200E52B30E2047F4280027F41900169EFF025
:1027B2009001F3E0FFA3E090016ACFF0A3EFF012E3
:1027C2000A88C2370227309001EF7461F01239682B
:1027D2007BFF7A3A799F120A887F0412127F7D6406
:1027E2007F021213327F0212127F022730E490011D
:0527F20065F002273034
:102C7E00C2361234C3E52B90018F30E205740BF08F
:102C8E008003740AF0900194120FC900004B00E407
:102C9E00900198F090018FE0FD7B02E4FF122D244D
:102CAE00900190EFF01239D2900190EFF01215B81A
:102CBE007D027F021213323036F39001F3E0FD7F76
:102CCE00007E02123A6C9001F3A3E0FD7F017E02BA
:102CDE00123A6C900206E0FD7402FFFE123A6C90FE
:102CEE000206A3E0FD7F037E02123A6CE490018F90
:102CFE00F090018FE0FF7E00240BF582E43402F5A4
:102D0E0083E0FD123A6C90018FE004F0E0C3943042
:062D1E0040DFC236809781
:10355800E52D30E1417F0112380A7F0212370D7DD7
:10356800037F02121332D22C7F0412370D202D0C48
:10357800C22A7F0512370D7F0612370D7F071237D3
:103588000DE49001EFF0C221C222C223C224C22559
:07359800C226D227C229223E
:10396800302C20D2337F0112370DE49001BEF07F56
:103978001512370D7F1812370D7F1912370D1237B0
:043988009CC22C228F
:0A380000900223E09001B3F07F185E
:10380A00EF75F008120D822433F8C000E6FEEF755A
:10381A00F008120D82AFF07401A807088002C333C2
:07382A00D8FC4ED000F6228D
:0C370100C234900214E09001B7F07F1A6F
:10370D00EF75F008120D822433F8C000E6FEEF7558
:10371D00F008120D82AFF07401A807088002C333C0
:08372D00D8FCF45ED000F62286
:10383100EF75F008120D822433F8E6FD7C00EF7578
:10384100F008120D82AFF074017E00A80708800510
:10385100C333CE33CED8F9FFEE5CFEEF5D4E24FFCD
:013861002244
:10361D00EF75F008120D82FEC374079E2433F8E691
:10362D00FD7C00EF75F008120D82AFF0C374079F9B
:10363D00FF74017E00A807088005C333CE33CED8B2
:0B364D00F9FFEE5CFEEF5D4E24FF2253
:1038EC00EF75F008120D82FEC374079E242BF8C0EE
:1038FC0000E6FEEF75F008120D82AFF07401A80718
:0C390C00088002C333D8FC4ED000F62225
:1038BF00EF75F008120D82FEC374079E242BF8C01B
:1038CF0000E6FEEF75F008120D82AFF07401A80745
:0D38DF00088002C333D8FCF45ED000F6224E
:1034C300C284C285D286D284A28692527F3F305272
:1034D300051238EC80031238BF900191743EF090CE
:1034E3000191E0FFC3648094804020D285A286923C
:1034F30052C2853052051238EC8008900191E0FFEA
:0C3503001238BF900191E014F080D42237
:10379C00C283C283E4900166F0900166E0FFC364CB
:1037AC008094C05018C28212361D5004D280800200
:1037BC00C280D28200900166E004F080DCD283C229
:0237CC00812258
:1017C3009001A7EBF0A3EAF0A3E9F0E49001AFF0F6
:1017D300C3ED9401EC940050030219BF9001ADE0F6
:1017E3002DFF9001ACE03CFED3EF9445EE94004016
:1017F300030219BF900209E0FEA3E0FFC3ED9FFFC0
:10180300EC9EFE9001AEE01470030218F80460032E
:101813000219C5D39001ADE094009001ACE09400AF
:1018230050030219C5EF9404EE648094805025EFB1
:1018330025E02433F8E6FD9001A7E0FBA3E475F06F
:1018430001120E46A9F0FAED120DEAEF25E0243459
:10185300F8E68076C3EF9434EE6480948050219050
:1018630001A7E0FBA3E475F001120E46A9F0FAE428
:10187300120DEA74072FF58274023EF583E0804A65
:10188300C3EF9443EE6480948050219001A7E0FB62
:10189300A3E475F001120E46A9F0FAE4120DEA74FE
:1018A300C12FF58274013EF583E0801EEF64434E41
:1018B300702D9001A7E0FBA3E475F001120E46A979
:1018C300F0FAE4120DEA9001EFE0FD9001A7E0FBCE
:1018D300A3E475F001120E46A9F0FAED120DEA0F1A
:1018E300BF00010E9001ADE024FFF09001ACE034A5
:1018F300FFF0021816302C030219B7D39001ADE0A4
:1019030094009001ACE0940050030219C5EF9404D5
:10191300EE64809480503A9001A7E0FBA3E475F055
:1019230001120E46A9F0FA120DA4FDEF25E02433AF
:10193300F8A6059001A7E0FBA3E475F001120E469B
:10194300A9F0FA120DA4FDEF25E02434F8A60580D2
:101953004DC3EF9434EE6480948050429001A8E428
:1019630075F001120E309001A7E0FBA3E475F001BE
:10197300120E46A9F0FA120DA4FD74072FF5827416
:10198300023EF583EDF0EF64304E70069001F3F004
:10199300A3F0EF64314E70069002387455F00FBF18
:1019A30000010E9001ADE024FFF09001ACE034FFA4
:1019B300F00218FE9001AF7402F080069001AF743C
:0819C30001F09001AFE0FF22EA
:1027F7009001A3EBF0A3EAF0A3E9F0E49001AAF0BB
:10280700C3ED9401EC940050030228BF9001A9E0A6
:102817002DFF9001A8E03CFED3EF9406EE94004014
:10282700030228BF9001F0E0FEA3E0FFC3ED9FFF86
:10283700EC9EAD07FCD39001A9E094009001A8E0BD
:102847009400407AED64044C70209001F3E0FF900F
:1028570001A3E0FBA3E475F001120E46A9F0FAEF1D
:10286700120DEA9001F3A3E08023ED25E0242BF875
:10287700E6FF9001A3E0FBA3E475F001120E46A961
:10288700F0FAEF120DEAED25E0242CF8E6FF9001AF
:10289700A3E0FBA3E475F001120E46A9F0FAEF12CC
:1028A7000DEA0DBD00010C9001A9E024FFF0900195
:1028B700A8E034FFF002283C9001AA7401F09001CF
:0428C700AAE0FF2262
:03000B000210D907
:1010D400C2AF80FE321210D885D00B75D008FAC288
:1010E4008CE58A2407F58AE58C34B8F58CD28CEC2F
:1010F400248EF8E6BC0F0274FFC39581B41400403B
:10110400CF7910786D16E608700BC2AFE630E103B4
:101114004418F6D2AF08D9EDEA8BD0D25722E50CA9
:10112400FF23246EF80F0808EFB50C06105703438D
:101134008701BF10047F00786EE630E4E800E50C18
:10114400C39F5020050C748D250CF8E6FDA681087C
:10115400E6AE0CBE0F0274FFCDF8E86D60E008E661
:10116400C0E080F6E50CD39F4027E50C248EF8E61A
:10117400AE0CBE0F0274FFFD18E6CDF8E5816D607C
:1011840006D0E0F61880F5E50C248DC8F6150C8021
:10119400D3E50C23246EF87F04C2AFE630E00310DD
:1011A400E20C7F0030E10730E3047F0854F4C2E727
:1011B400C6D2AF5480420722788DA681740F600690
:1011C400FF0876FFDFFB7F10E4786DF608F608DF92
:1011D400FA786E76309039F4740193C0E0E493C0E9
:1011E400E0438901758A00758CB8D28CD2AFD2A93C
:0211F400220FC8
:0825D8004102BAFF4102B7FF06
:1037690020552FC2AC205409205606D2548F998077
:103779001F9002BBE0FE04F0EE541F244DF8A6078B
:103789009002B8E0FF9002BBE06F541F7002D2555F
:03379900D2AC228D
:1033D20090018EEFF0BF0A2130551912132F90027F
:1033E200BAEFF0E4FBFAFD7F011213329002BA74D5
:1033F200FFF080E47F0D12376930551912132F90B8
:1034020002BAEFF0E4FBFAFD7F011213329002BA26
:1034120074FFF080E490018EE0FF12376990018E14
:03342200E0FF22A6
:1036CC009002B6E0FF9002B9E0B5071912132F90E3
:1036DC0002B7EFF0E4FBFAFD7F011213329002B750
:1036EC0074FFF080DB9002B6E0FF04F0EF54072487
:0536FC0045F8E6FF2285
:03002300022E604A
:102E6000C0E0C0F0C083C082C0D075D010C2533063
:102E70009844AF99C298EF24EF600824FE700CD2FA
:102E8000568033A2569253C256802B9002B6E0244D
:102E900008FDE433FC9002B9E06D7001EC600CE0D9
:102EA000FE04F0EE54072445F8A6179002B7E0FFA1
:102EB000F4600312130820990330532FC299900233
:102EC000BBE0FF9002B8E06F601F20561EE0FF04D9
:102ED000F0EF541F244DF8E6F599C2559002BAE080
:102EE000FFF460071213088002C254D0D0D082D001
:062EF00083D0F0D0E032B7
:103A320053877F759850538EBF538EFE53890F4321
:0D3A42008920758BD0758DD0C2ABD28E223D
:10398C0000C2A40000000000000000D2A50000004E
:10399C0000D2A400000000C2A500000000C2A400D8
:0439AC0000000022F5
:103A140000C2A400000000C2A500000000D2A4005F
:0E3A2400000000D2A5000000000000000022FB
:103ABE000000000000C2A400000000C2A50000002B
:0A3ACE0000D2A400000000C2A422F0
:1038910012398C44A0FF1239411238A2AF051239F6
:0138A10041E5
:1038A200D2A500C2A40000000000000000D2A400C3
:0D38B200000000A2A5E433FF0000C2A42224
:1039B000D2A500E4FEEF25E0FFD2A400000000A2A3
:1039C000A5E4334FFF00000000C2A40EEEB408E5EA
:0239D0000022D3
:1039410000E4FEEF30E704D2A58002C2A50000002A
:1039510000D2A400000000C2A400000000EF25E096
:07396100FF0EEEB408DD22A9
:10350F00AC07C2B6EC25E0FC12389112398CEC44B2
:10351F00A1FF1239411238A290012FE06401601906
:10352F001239B0EF120DEA123ABE740129F9E43ADA
:10353F00FA90012FE014F080DF1239B0EF120DEA8C
:09354F001238A2123A14D2B6227D
:1035DF00C2B6EF25E0FF123891900197E060191203
:1035EF000DA4FF1239411238A2740129F9E43AFAF5
:1035FF00900197E014F080E1123A14E4FFFE00000E
:0E360F000FBF00010EBE5DF6BFC0F3D2B622A3
:103AA300AD07AC06ECFF7B017A01792990012F74F5
:0B3AB30001F012350F900129E0FF2206
:103A6C00900191EDF0AB07AA06EAFFAD037B017A5A
:0C3A7C000179919001977401F00235DF90
:1025E000410298026040025104FF1D4203FF201D7A
:1025F00010FF262906FF2F8217FF1391000000000D
:1026000000000000000000000000000000000000CA
:1026100000000000000000000000000000000000BA
:082620000000000000000000B2
:102D2400900191EFF0AE03E4900199F0ED600BC3D4
:102D340094014006EDD394F740089001997402F091
:102D4400807B90024DEDF0900191E0704A90024E2C
:102D540074FFF0A3743AF0A374F0F0900247E4F027
:102D6400A3F0A3F0AF06AD07C005900194E0FCA367
:102D7400E0FDA3E0FEA3E0FF90019C120FBD9001D3
:102D840098E09001A0F090024DE0FFD00512326C63
:102D9400900199EFF080069001997402F0900199E6
:102DA400E0701A120003EF70089001997403F08028
:102DB4000C900191E0900297F0A37401F0900199B6
:032DC400E0FF220B
:101BCB009002BCEBF0A3EAF0A3E9F0AD07E4C39DF0
:101BDB004003021D36ED947F4003021D36C2AF90C9
:101BEB0002BCE0FBA3E0FAA3E04A4B7003021CBF6C
:101BFB00E4A3F0A3F09002BFE0FEA3E0FFC39410B8
:101C0B00EE648094804003021CA6EF7802C333CEAF
:101C1B0033CED8F9FF2452F58274023EF583E0FBF4
:101C2B00A3E0FAA3E04A4B603674522FF58274029C
:101C3B003EF583E0FBA3E0FAA3E0F9C003C002C0CA
:101C4B00019002BCE0FBA3E0FAA3E0F9D082D083C1
:101C5B00D0E06B7008E965827003EA6583702B74C2
:101C6B00512FF58274023EF583EDF09002BCE0FB40
:101C7B00A3E0FAA3E0F974522FF58274023EF583C8
:101C8B00EBF0A3EAF0A3E9F080119002C0E004F0BE
:101C9B0070069002BFE004F0021C009002BFE070DF
:101CAB0004A3E0641060047F0080027F049002C1F3
:101CBB00EFF08073E49002BFF0A3F09002BFE0FE60
:101CCB00A3E0FFC39410EE648094805055EF78022C
:101CDB00C333CE33CED8F92451F58274023EF5834B
:101CEB00E0B5052E9002BFE0FEA3E07802C333CE31
:101CFB0033CED8F9FF2451F58274023EF583E4F01C
:101D0B0074522FF58274023EF583E4F0A3F0A3F036
:101D1B0080109002C0E004F070A19002BFE004F0CC
:101D2B008099E49002C1F0D2AF80069002C1740298
:071D3B00F09002C1E0FF225D
:1037CE00E49002C6F0900298E0B4011A900247E02D
:1037DE00FBA3E0FAA3E04A4B6012900247A3A3E0DA
:1037EE00F912104980069002C67406F09002C6E0E7
:0237FE00FF22A8
:1039D200E4900191F0900298E0B4010A120026E40A
:1039E200900298F080069001917406F0900191E0A7
:0239F200FF22B2
:10373500900298E0701490024EA3E0FAA3E0F9120B
:1037450010499002987401F08007900298E0B40146
:1037550007E49002C7F080069002C77406F0900255
:04376500C7E0FF2298
:1015B800E4900193F0900298E060037F06227B019B
:1015C8007A01799412000EEF640160030217C0904B
:1015D8000194E024FE604E0460030217C090019855
:1015E8007401F0A37402F0A3743FF0A37401F0A394
:1015F8007402F0A37444F07B017A027942122BD270
:10160800900193EFF060030217C090024DE0FF9045
:101618000242E0FE6F6006EE60030217C07F02120E
:101628003B0B0217C090023FE0FBA3E0FAA3E0F9EE
:10163800120DA4900243F09002467401F0E4900168
:1016480091F0A3F0900191E0FEA3E0FFC39410EEA7
:1016580064809480400302174DEF7802C333CE3381
:10166800CED8F92451F58274023EF583E0FF700369
:1016780002174D900243E0FE6F600302173CEE2410
:10168800FD603424FD606C24F6604A24F97003027E
:1016980017192413600302174D9001987401F0A3E1
:1016A8007402F0A37444F090023FE0FBA3E0FAA3B5
:1016B800E0F9121D4280769001987401F0A374023B
:1016C800F0A37444F090023FE0FBA3E0FAA3E0F932
:1016D80012201D80589001987401F0A37402F0A3A1
:1016E8007444F090023FE0FBA3E0FAA3E0F912266D
:1016F80029803A9001987401F0A37402F0A374440D
:10170800F090023FE0FBA3E0FAA3E0F9122F8280F9
:101718001C9001987401F0A37402F0A37444F09033
:10172800023FE0FBA3E0FAA3E0F91213919002460E
:10173800EFF08011900192E004F07006900191E0C2
:1017480004F002164C900242E0606D900246E0FF01
:10175800603FE4900244F0A3F0900243E04480FE2E
:1017680090023FE0FBA3E0FAA3E0F9900244E4759D
:10177800F001120E4685F082F583EE120DFC900200
:1017880044E475F001120E4685F082F583EF120DE0
:10179800FC90024DE0FF90023FE0FBA3E0FAA3E0DB
:1017A800F9900244E0FDA3E0900199CDF0A3EDF09B
:0B17B800122B1B900193EFF07F00222A
:1019CB0000C1814001C0804101C0804100C1814004
:1019DB0001C0804100C1814000C1814001C08041F4
:1019EB0001C0804100C1814000C1814001C08041E4
:1019FB0000C1814001C0804101C0804100C18140D4
:101A0B0001C0804100C1814000C1814001C08041C3
:101A1B0000C1814001C0804101C0804100C18140B3
:101A2B0000C1814001C0804101C0804100C18140A3
:101A3B0001C0804100C1814000C1814001C0804193
:101A4B0001C0804100C1814000C1814001C0804183
:101A5B0000C1814001C0804101C0804100C1814073
:101A6B0000C1814001C0804101C0804100C1814063
:101A7B0001C0804100C1814000C1814001C0804153
:101A8B0000C1814001C0804101C0804100C1814043
:101A9B0001C0804100C1814000C1814001C0804133
:101AAB0001C0804100C1814000C1814001C0804123
:101ABB0000C1814001C0804101C0804100C1814013
:101ACB0000C0C101C30302C2C60607C705C5C404D3
:101ADB00CC0C0DCD0FCFCE0E0ACACB0BC90908C843
:101AEB00D81819D91BDBDA1A1EDEDF1FDD1D1CDC33
:101AFB0014D4D515D71716D6D21213D311D1D010A3
:101B0B00F03031F133F3F23236F6F737F53534F492
:101B1B003CFCFD3DFF3F3EFEFA3A3BFB39F9F83802
:101B2B0028E8E929EB2B2AEAEE2E2FEF2DEDEC2CF2
:101B3B00E42425E527E7E62622E2E323E12120E062
:101B4B00A06061A163A3A26266A6A767A56564A452
:101B5B006CACAD6DAF6F6EAEAA6A6BAB69A9A868C2
:101B6B0078B8B979BB7B7ABABE7E7FBF7DBDBC7CB2
:101B7B00B47475B577B7B67672B2B373B17170B022
:101B8B005090915193535292965657975595945412
:101B9B009C5C5D9D5F9F9E5E5A9A9B5B9959589882
:101BAB00884849894B8B8A4A4E8E8F4F8D4D4C8C72
:101BBB0044848545874746868242438341818040E2
:1032CA009001A0EBF0A3EAF0A3E9F0A3ECF0A3EDE0
:1032DA00F07FFF7DFF9001A374FFF5F0120E4645C3
:1032EA00F060339001A0E0FBA3E475F001120E46F2
:1032FA00A9F0FA120DA46DFB7A0024CBF582EA3408
:10330A0019F583E4936FFD74CB2BF582EA341AF531
:0B331A0083E493FF80BFEFFEEDFF2275
:10326C00E49001A1F0C2AFAF05C00790019CE0FC57
:10327C00A3E0FDA3E0FEA3E0FF9001A3120FBD901D
:10328C0001A77408F09001A0E09001A8F0D00712FB
:10329C002DC7EF64016002801290019CA3A3E0FE95
:1032AC00A3E0FF123476EF640160069001A1740371
:0E32BC00F0D2AFE4900000F09001A1E0FF22FC
:10002600C2AFE4900001F0FD7F01123862123AFE81
:03003600D2AF2224
:0E3AF000C2AFE4FDFF123862123B17D2AF22C4
:102BD200900195EBF0A3EAF0A3E9F0E490019EF0F6
:102BE200A3F0C2AFC3900003E09404900002E0940B
:102BF2000040667B017A007904E0FCA3E0FD12321A
:102C0200CAEF4E7054900004E0FF900195E0FBA3E0
:102C1200E0FAA3E0F9EF120DEA900003E024FDFFD1
:102C2200900002E034FFF990019BE0FBA3E0FAA3DD
:102C3200E0C98FF0120EBF7B017A007905C003C094
:102C420002C001900198E0FBA3E0FAA3E0F9120FA1
:102C5200FA90019E7401F0801B7B017A0079049046
:102C62000002E0FCA3E0FD1232CAEF4E60069001C2
:0C2C72009F7405F0D2AF90019FE0FF229C
:102B1B00E490019BF0C2AF900001E06401600302FE
:102B2B002BC4E924FFF9EA34FFFA900106EBF0A37A
:102B3B00EAF0A3E9F0900104E4F0A304F09001069D
:102B4B00E0FBA3E0FAA3E0F9EF120DEA900199E0A4
:102B5B00FEA3E0FF900105E02FF0900104E03EF0B2
:102B6B00900106E0FBA3E0FAA3E0F9900104E0FC7E
:102B7B00A3E0FD1232CA900104E475F001120E4677
:102B8B00FA740425F0F58274003AF583EFF0EEFF4A
:102B9B00900104E475F001120E46FC740425F0F567
:102BAB008274003CF583EFF09000007401F0FDE4BB
:102BBB00FF123862123202800690019B7405F0D22C
:072BCB00AF90019BE0FF2227
:10309300E49001B1F07B017A0179B2123B209000F8
:1030A30001E014600C1460351460042403705F8025
:1030B3005AE4900002F0A3F09001B2E0FF90000206
:1030C300E475F001120E46FC740425F0F5827400D9
:1030D3003CF583EFF09000017402F0802EC3900062
:1030E30002E09401501F9001B2E0FF900002E475EA
:1030F300F001120E46FC740425F0F58274003CF5D1
:1031030083EFF080069000017403F0123AFE900101
:04311300B1E0FF2206
:10320200E49001B1F0900000E014600C047055E409
:10321200FD7F01123862804C900104E07002A3E04D
:10322200602C900106E0FBA3E0FAA3E0F9120DA4E2
:10323200FF12003E900107E475F001120E3090017A
:1032420005E024FFF0900104E034FFF080167F03D4
:10325200123B0B9001B1EFF0E4FD7F01123862E402
:0A326200900000F09001B1E0FF229F
:10369300E49001B0F0900001E024FE601314601A7E
:1036A30024037016E4FF123B0B9001B0EFF0800A85
:1036B3007F01123B0B9001B0EFF0123B179000011A
:0936C3007401F09001B0E0FF2257
:10347600EF4E602BEF25E0FFEE33FE7C007D0C1255
:10348600104FA804A905AA06AB077F007E807D839E
:103496007C65120F1A9002C2EEF0A3EFF08007E4EB
:1034A6009002C2F0A3F0E4F5D8F5D975DA48900297
:0D34B600C2E0FEA3E0F5EAEEF5FA7F012288
:0D3AFE00E4F5D875DA49F5E9F5F9D2DE22D4
:093B1700C2DE75DA48E4F5D8229B
:03003B0002365832
:10365800C0E0C0F0C083C082C0D075D000C000C038
:1036680001C002C003C004C005C006C007123693DB
:10367800D007D006D005D004D003D002D001D000A6
:0B368800D0D0D082D083D0F0D0E03250
:0100220022BB
:08000300E49002C4F07F012229
:0C3B0B009002C47401F0A3EFF07F0122CF
:10000E00E4FF9002C4E0600BA3E0120DEAE490025C
:04001E00C4F00F22F9
:10386200EF6007ED6004D2908015EF700AED6007FB
:10387200D290539AEF800BEF600CED7009C2904327
:0F3882009A1043AF0122C290539AEF53AFFE2228
:102DC7009001A2EFF07F007EC27D017C00A3E0F8B6
:102DD700A3E0F9A3E0FAA3E0FBD3120FAC5016E48B
:102DE7007F807E25FDFC9001A3E0F8A3A3A3E0C3A9
:102DF700120FAC500A9001A3120FC900004B0090AC
:102E070001A3E0F8A3E0F9A3E0FAA3E0FB7F007ECB
:102E1700807D517C01120F1AE47B20FAF9F8120F1A
:102E27001AEFF404F59C9001A2E0B4011553877FD3
:102E3700759850438E04438E01438E10C29CC2ACDA
:102E47008012538EF7759A50438E04438E10539A0F
:092E5700EF53AFFEC2907F01228F
:05003E008F9B7F0122F1
:083B2000E59B120DEA7F012272
:033B280002320264
:033B2B00023093D2
:030043000234255F
:10342500C0E0C0F0C083C082C0D075D000C000C06D
:1034350001C002C003C004C005C006C007E59A303C
:10344500E006539AFE123B2BE59A30E109539AFDAB
:10345500309003123B28D007D006D005D004D00306
:10346500D002D001D000D0D0D082D083D0F0D0E02F
:013475003224
:0100390022A4
:102F8200900195EBF0A3EAF0A3E9F0E490019DF043
:102F9200900198E0FBA3E0FAA3E0F9120E5C64054D
:102FA20045F0705C900195E0FBA3E0FAA3E0F99094
:102FB2000001120DBD90019BF0A3E4F090000212FB
:102FC2000DBDFF90019BE0F0A3E04FF0E004F07034
:102FD2000690019BE004F0E92403F9E43AFA900137
:102FE2009BE0FCA3E0FD9001ACE4F0A304F0A3F0AD
:102FF2001217C3EF6010123A4F90019DEFF0800656
:0C30020090019D7403F090019DE0FF22FE
:10262900900195EBF0A3EAF0A3E9F0E490019FF0A3
:10263900900198E0FBA3E0FAA3E0F9120E5CC394C1
:1026490006E5F094005003022716900195E0FBA3DC
:10265900E0FAA3E0F9900001120DBD90019BF0A3EF
:10266900E4F0900002120DBDFF90019BE0F0A3E0A1
:102679004FF0E004F0700690019BE004F090000335
:10268900120DBD90019DF0A3E4F0900004120DBD60
:10269900FF90019DE0F0A3E04FF0900005120DBD01
:1026A900FF90019DE0FCA3E0FDC39401EC94004080
:1026B9005CD3ED9478EC94005053ED25E06F704DA8
:1026C900900195E0FBA3E0FAA3E02406F9E43AFAC5
:1026D90090019BE0FCA3E0FDA3E0FFA3E09001AC27
:1026E900CFF0A3EFF0A37401F01217C3EF600A1241
:1026F9003A4F90019FEFF0801A900198E0FBA3E018
:10270900FAA3E0F9E475F005120EBF800690019F67
:092719007403F090019FE0FF221F
:10201D00900195EBF0A3EAF0A3E9F0E49001A2F0B2
:10202D00900198E0FBA3E0FAA3E0F9120E5C6405C1
:10203D0045F0600302217B900195E0FBA3E0FAA33C
:10204D00E0F9900001120DBD90019BF0A3E4F0901A
:10205D000002120DBDFF90019BE0F0A3E04FF0E0F8
:10206D0004F0700690019BE004F0900003120DBD8A
:10207D0090019DF0A3E4F0900004120DBDFF7E00D1
:10208D0090019DEEF0A3EFF0C39401EE9400500388
:10209D0002217BD3E0947D90019DE09400400302EA
:1020AD00217B900195E0F9A3E0FAA3E090019FC98F
:1020BD00F0A3EAF0A3E9F0900198E0FBA3E0FAA306
:1020CD00E0F9E4F5F0120EBF90019FE0FBA3E4757B
:1020DD00F001120E46A9F0FA7403120DEA90019860
:1020ED00E0FBA3E0FAA3E0F9E475F001120E87908E
:1020FD00019DA3E025E0FFA3E0FBA3E475F0011231
:10210D000E46A9F0FAEF120DEA900198E0FBA3E05C
:10211D00FAA3E0F9E475F001120E8790019FE0FB40
:10212D00A3E0FAA3E0F990019BE0FCA3E0FDA3E09E
:10213D00FFA3E09001ACCFF0A3EFF0E4A3F01217F2
:10214D00C3EF600A123A4F9001A2EFF08026900182
:10215D009EE025E0FF90019DE033FE900198E0FBAD
:10216D00A3E0FAA3E0F9EE8FF0120E87800690013E
:0A217D00A27403F09001A2E0FF221B
:10139100900195EBF0A3EAF0A3E9F0E49001A6F047
:1013A100900198E0FBA3E0FAA3E0F9120E5CC3946C
:1013B1000AE5F0940050030215B2900195E0FBA3F9
:1013C100E0FAA3E0F9900001120DBD90019BF0A39A
:1013D100E4F0900002120DBDFF90019BE0F0A3E04C
:1013E1004FF0E004F0700690019BE004F0900003E0
:1013F100120DBD90019DF0A3E4F0900004120DBD0B
:10140100FF90019DE0F0A3E04FF0900005120DBDAB
:1014110090019FF0A3E4F0900006120DBDFF900132
:101421009FE0F0A3E04FF0E004F0700690019FE030
:1014310004F0900007120DBD9001A1F0A3E4F0901B
:101441000008120DBDFF9001A1E0F0A3E04FF09064
:101451000009120DBDFD90019DE0FEA3E0FFC394C4
:1014610001EE940050030215ACD3EF947DEE94008D
:1014710040030215AC9001A1E0FEA3E0FFC394017B
:10148100EE940050030215ACD3EF9479EE94004032
:10149100030215ACEF25E0FFEE33FEED6F7001EEB8
:1014A10060030215AC900195E0FBA3E0FAA3E024F0
:1014B1000AF9E43AFA90019FE0FCA3E0FDA3E0FF02
:1014C100A3E09001ACCFF0A3EFF0A37401F01217E9
:1014D100C3AD07ED600302159E900195E0F9A3E00D
:1014E100FAA3E09001A3C9F0A3EAF0A3E9F0900107
:1014F10098E0FBA3E0FAA3E0F9E4F5F0120EBF9047
:1015010001A3E0FBA3E475F001120E46A9F0FA7401
:1015110017120DEA900198E0FBA3E0FAA3E0F9E4C9
:1015210075F001120E8790019DA3E025E0FF900167
:10153100A3E0FBA3E475F001120E46A9F0FAEF1245
:101541000DEA900198E0FBA3E0FAA3E0F9E475F05D
:1015510001120E879001A3E0FBA3E0FAA3E0F9904A
:10156100019BE0FCA3E0FDA3E0FFA3E09001ACCF71
:10157100F0A3EFF0E4A3F01217C3AD07ED701E90D6
:10158100019EE025E0FF90019DE033FE900198E08F
:10159100FBA3E0FAA3E0F9EE8FF0120E87ED6011E4
:1015A100FF123A4F9001A6EFF080069001A6740356
:0715B100F09001A6E0FF220B
:1023FC00900299EBF0A3EAF0A3E9F090029FE0FFC2
:10240C009002A6E4F0A3EFF0EDAE047803CEC31374
:10241C00CE13D8F9FF9002A4EEF0A3EFF09002A433
:10242C00E0FEA3E07803C333CE33CED8F9FFC3ED7F
:10243C009FFFEC9E9002A6E0FEA3E0A80708800593
:10244C00C333CE33CED8F9F0EE9002A6F090029EB4
:10245C00E0FF74017E00A807088005C333CE33CE9D
:10246C00D8F924FFFFEE34FF9002A2F0A3EFF0A303
:10247C00A3E075F008A4FFC3ED9FFF9002A2E0FE5D
:10248C00A3E0A807088005C333CE33CED8F9F0EE0D
:10249C009002A2F0900299E0FBA3E0FAA3E0F9907D
:1024AC0002A4E0FEA3E0F5828E83120DBDFF900224
:1024BC00A0E4F0A3EFF09002A5E02401FF9002A4A9
:1024CC00E034008F82F583120DBDFE9002A0E04E29
:1024DC00F0A3E0F0A3E0FEA3E0F4FFEEF4FE900224
:1024EC00A0E05EFEA3E05FFF9002A6E04EFEA3E03C
:1024FC004FFF9002A0EEF0A3EFF09002A4E0FCA33B
:10250C00E0FDF5828C83EF120DFC9002A0E08D8231
:06251C008C83A3020DFCFC
:1028CB009002A8EBF0A3EAF0A3E9F0EDAE047803D5
:1028DB00CEC313CE13D8F9FF9002B2EEF0A3EFF0F4
:1028EB009002B2E0FEA3E07803C333CE33CED8F927
:1028FB00FFC3ED9FFFEC9E9002B4F0A3EFF09002AC
:10290B00ADE0FF74017E00A807088005C333CE330A
:10291B00CED8F924FFFFEE34FF9002B0F0A3EFF016
:10292B009002A8E0FBA3E0FAA3E0F99002B2E0FE6C
:10293B00A3E0F5828E83120DBDFF9002AEE4F0A3EF
:10294B00EFF09002B3E02401FF9002B2E034008F6D
:10295B0082F583120DBDFE9002AEE04EF0A3E0F0C7
:10296B009002B4A3E0FF9002AEE0FEA3E0A807083C
:10297B008005CEC313CE13D8F9FF9002AEEEF0A3B1
:10298B00EFF0A3E05EFEA3E05FFF9002AEEEF0A3DC
:03299B00EFF02238
:103A4F00EF14600C24FA600C2407700CE4FE800A5B
:0D3A5F007E0280067E0680027E04AF0622F5
:101D4200900195EBF0A3EAF0A3E9F0E49001A2F090
:101D5200900198E0FBA3E0FAA3E0F9120E5C64059F
:101D620045F06003021EA4900195E0FBA3E0FAA3F4
:101D7200E0F9900001120DBD90019BF0A3E4F090F8
:101D82000002120DBDFF90019BE0F0A3E04FF0E0D6
:101D920004F0700690019BE004F0900003120DBD68
:101DA20090019DF0A3E4F0900004120DBDFF90019C
:101DB2009DE0FEA3E04FFF90019DEEF0FEA3EFF049
:101DC200C39401EE94005003021EA4E0947D90019E
:101DD2009DE094004003021EA4900195E0F9A3E067
:101DE200FAA3E090019FC9F0A3EAF0A3E9F0900101
:101DF20098E0FBA3E0FAA3E0F9E4F5F0120EBF903D
:101E0200019FE0FBA3E475F001120E46A9F0FA74FB
:101E120004120DEA900198E0FBA3E0FAA3E0F9E4D2
:101E220075F001120E8790019DA3E025E0FFA3E06B
:101E3200FBA3E475F001120E46A9F0FAEF120DEAC7
:101E4200900198E0FBA3E0FAA3E0F9E475F0011237
:101E52000E8790019FE0FBA3E0FAA3E0F990019BBB
:101E6200E0FCA3E0FDA3E0FFA3E09001A8CFF0A374
:101E7200EFF01227F7EF600A123A4F9001A2EFF04B
:101E8200802690019EE025E0FF90019DE033FE90C8
:101E92000198E0FBA3E0FAA3E0F9EE8FF0120E87BF
:0E1EA20080069001A27403F09001A2E0FF22DE
:1011F600EFD3940F40037FFF22746E2F2FF8E62063
:10120600E5F4C2AFE64430F6D2AFAE0CEEC39F5063
:10121600210E748D2EF8E6F908E618BE0F0274FF4B
:10122600FDED69600909E71919F7090980F3161632
:1012360080DAEED39F400405810581EED39F4022DC
:10124600748D2EF808E6F9EEB50C02A9811806068B
:10125600E6FDED6960091919E70909F71980F31E1A
:1012660080D9EF248DF8E604F8EF2F049039F49333
:09127600F608EF2F93F67F002229
:10127F00EFD3940F40037FFF22EF23246EF8E63065
:10128F00E5F4C2AFE6548CF6D2AFE50CB5070A749D
:10129F008D2FF8E6F581021122502E748E2FF8E66D
:1012AF00BF0F0274FFFD18E6F9748D2FF8FBE6FCF3
:1012BF00E96C6008A805E7F61D1980F4A803A605D8
:1012CF001FE50CB507E37F0022748E2FF8E6FD189B
:1012DF0086010F748D2FF8A601088604E50CB5075B
:1012EF0002AC81ED6C60080D09A805E6F780F4E506
:0912FF000CB507DE89817F002295
:10130800EFD3940F40037FFF22EF23246EF8C2AF80
:10131800E630E50530E002D2E4D2E2C6D2AF7F0083
:0713280030E2010F02111F6A
:03132F00AF0C22DE
:101332008FF0E4FFFEE50C23246DF8C2A930F70D0F
:101342007F08E6600B2DF660325030800730F106E0
:10135200EDF660277E020830F010C2AFE610E725F6
:101362000E30E20CD2AF7F048014C2AFE610E71554
:1013720054EC4EF6D2AFD2A90211227F0808EF44F4
:0F13820083F4C2AF56C6D2AFD2A954804FFF2218
:102F02000211BCE493A3F8E493A34003F68001F218
:102F120008DFF48029E493A3F85407240CC8C333D0
:102F2200C4540F4420C8834004F456800146F6DF9F
:102F3200E4800B0102040810204080902522E47EE8
:102F4200019360BCA3FF543F30E509541FFEE49394
:102F5200A360010ECF54C025E060A840B8E493A35B
:102F6200FAE493A3F8E493A3C8C582C8CAC583CA86
:102F7200F0A3C8C582C8CAC583CADFE9DEE780BE3E
:0126280000B1
:100D8200C2D530F707B2D563F0FF05F030E70CB2F9
:100D9200D5F4048463F0FF05F080018430D502F4B9
:020DA200042229
:100DA400BB010689828A83E0225002E722BBFE024D
:090DB400E32289828A83E4932280
:100DBD00BB010CE58229F582E5833AF583E02250EB
:100DCD0006E92582F8E622BBFE06E92582F8E22235
:0D0DDD00E58229F582E5833AF583E493224F
:100DEA00BB010689828A83F0225002F722BBFE01E8
:020DFA00F322E2
:100DFC00F8BB010DE58229F582E5833AF583E8F02D
:100E0C00225006E92582C8F622BBFE05E92582C8D8
:020E1C00F222C0
:100E1E00EF8DF0A4A8F0CF8CF0A428CE8DF0A42EE8
:020E2E00FE22A2
:100E3000C5F0F8A3E028F0C5F0F8E582158270024D
:060E40001583E038F022EA
:100E4600A3F8E0C5F025F0F0E5821582700215835F
:060E5600E0C838F0E822BC
:100E5C00BB010A89828A83E0F5F0A3E02250068761
:100E6C00F009E71922BBFE07E3F5F009E319228923
:0B0E7C00828A83E493F5F07401932256
:100E8700BB010789828A83020E30500B09C5F02700
:100E9700F7C5F01937F722BBFE0D09F8E325F0F384
:100EA700C5F019E338F322F889828A837401932500
:080EB700F0C5F0F8E4933822C5
:100EBF00BB010A89828A83F0E5F0A3F0225006F77E
:0F0ECF0009A7F01922BBFE06F3E5F009F319227B
:100EDE0075F008758200EF2FFFEE33FECD33CDCCCB
:100EEE0033CCC58233C5829BED9AEC99E58298404E
:100EFE000CF582EE9BFEED9AFDEC99FC0FD5F0D62B
:100F0E00E4CEFBE4CDFAE4CCF9A88222B800C1B954
:100F1E000059BA002DEC8BF084CFCECDFCE5F0CB92
:100F2E00F97818EF2FFFEE33FEED33FDEC33FCEBCB
:100F3E0033FB10D703994004EB99FB0FD8E5E4F986
:100F4E00FA227818EF2FFFEE33FEED33FDEC33FC73
:100F5E00C933C910D7059BE99A4007EC9BFCE99A67
:100F6E00F90FD8E0E4C9FAE4CCFB2275F010EF2FAC
:100F7E00FFEE33FEED33FDCC33CCC833C810D707AC
:100F8E009BEC9AE899400AED9BFDEC9AFCE899F8E7
:0E0F9E000FD5F0DAE4CDFBE4CCFAE4C8F9227A
:100FAC00EB9FF5F0EA9E42F0E99D42F0E89C45F09B
:010FBC002212
:0C0FBD00ECF0A3EDF0A3EEF0A3EFF022A7
:100FC900A8828583F0D083D082120FE0120FE0123D
:100FD9000FE0120FE0E473E493A3C583C5F0C58362
:100FE900C8C582C8F0A3C583C5F0C583C8C582C872
:010FF90022D5
:100FFA00BB011A89828A83D0F0D0E0F8D0E0F9D018
:10100A00E0FAD0E0FBE8C0E0C0F002109C5016E91C
:10101A00F8D083D082D0E0F9D0E0FAD0E0FBC082E9
:10102A00C08302107CBBFE16E9F8D083D082D0E0E0
:0F103A00F9D0E0FAD0E0FBC082C0830210A522FB
:061049008A838982E47332
:10104F00EC8EF0A4CCC5F0CCCDF8EFA4CEC5F02D2E
:10105F00FDE43CFCE8A42EC8C5F03DFDE43CFCEFEC
:0D106F00A4FFE5F028FEE43DFDE43CFC227A
:100A1D00E5402469F582E43401F583E00540229038
:100A2D000166305003900169E475F00112108502E2
:100A3D000DA42049E97F2ED2498018EF540F249040
:100A4D00D43440D4FF304D0BEF24BFB41A00500303
:100A5D002461FFE541600215410544E5447002053E
:100A6D004330500E900166E475F001121085EF02CF
:100A7D000DEA0233D27403D2508003E4C250F54024
:100A8D0090016612109CE4F541F543F544E5416093
:100A9D00077F20120A6080F57542FFC24AC249C223
:100AAD004BC24CC24EC24FC251120A2CFF700D30B8
:100ABD0050057F00120A71AF44AE4322B4255FC2C8
:100ACD00D5C24D120A2CFF24D0B40A00501A75F06D
:100ADD000A784130D50508B6FF0106C6A426F620D2
:100AED00D5047002D24C80D924CFB41A00EF500433
:100AFD00C2E5D24D020C72D24A80C6D24980C0D214
:100B0D004B80BCD2D580BAD24E80B47F20120A6001
:100B1D00204B077401B5410040F1120A1DFF120A66
:100B2D0060020A9AD251D24F8095120A1DFB120A09
:100B3D001DFA120A1DF94A4B700679437A0D7BFF97
:100B4D00204B2EE541602A7E008E82758300120DAA
:100B5D00BD60060EEE654270F0C2D5EBC0E0EAC096
:100B6D00E0E9C0E0EE120CB9D0E0F9D0E0FAD0E047
:100B7D00FB120DA4FF60AAEBC0E0EAC0E0E9C0E003
:100B8D00120A60D0E02401F9D0E03400FAD0E0FB85
:100B9D00E5420460DCD542D980877BFF7A0C79B5BC
:100BAD00D24B809C791080027908C24FC2518008C7
:100BBD00D2D5790A8004790AC2D5E542047002F5CE
:100BCD0042E4FAFDFEFF120A1DFC7B08204A1312B7
:100BDD000A1DFD7B1030490A120A1DFE120A1DFF67
:100BED007B20EC3382D592D55013C3E43049069F58
:100BFD00FFE49EFEE4204A039DFDE49CFCE4CBF85B
:100C0D00C24AEC700CCFCECDCCE824F8F870F3804E
:100C1D0017C3EF33FFEE33FEED33FDEC33FCEB3357
:100C2D00FB994002FB0FD8E9EB304A05F8D0E0C440
:100C3D0048B24AC0E00AEC4D4E4F78207B0070C29E
:100C4D00EAB5420040BCC0E0120CBBD0F0D0E020B1
:100C5D004A04C4C0E0C4B24AC0F0120A49D0F0D56B
:100C6D00F0EB020A9A1210AE0B37530BB1580B086A
:100C7D004C0B04420BB54F0BBD440BBD490B1D4333
:080C8D000BC3550BA7460BA792
:100C9500450BA7470D63500B0C2D0B102E0B332B5B
:100CA5000B14230B31200D4C2A0ACC4800000B2BCA
:100CB5003F3F3F00790AA2D5204C14304E09B910A8
:100CC500020404B9080104A2D5204F0250010420F2
:100CD5004B68924BB541005034C0E07F20304C1931
:100CE5007F30A24B724F724E500F120D12C24BC283
:100CF5004FC24EC2517F30800F304E03E9C0E01223
:100D05000A60304E03D0E0F9D0E0B541CC304E1743
:100D15007F30B9100C120A607F58304D077F7880FC
:100D250003B90803120A60304B057F2D020A607F64
:100D3500202051F87F2B204FF322924B80CF286E35
:100D4500756C6C2900D24A120A1D304AF8C24A78DD
:100D55004130D50108F6020ACC2D50434958120AF4
:100D65001D2403B405004001E4900D5E93120A5161
:0D0D7500743A120A51D24C754104020BB1C0
:09107C00EBF608EAF608E9F62299
:10108500F8E0FBA3A3E0F925F0F0E58215827002F4
:071095001583E0FA38F02298
:09109C00EBF0A3EAF0A3E9F02255
:0910A500EBF208EAF208E9F2227C
:1010AE00D083D082F8E4937012740193700DA3A3D1
:1010BE0093F8740193F5828883E4737402936860E5
:0610CE00EFA3A3A380DFE5
:00000001FF
