:0239B80031A03C
:0239BA002AD60B
:0239BC00216D7B
:0239BE0030C215
:0239C0000046BF
:0239C20032BD14
:0239C400353795
:0239C80029686C
:0239CA0028AD26
:0239CC0022AF28
:0239CE00065998
:0239D0003317AB
:0239D2002C3790
:0239D40038DCDD
:0239D6003A8134
:03000000022EAF1E
:0C2EAF00787FE4F6D8FD75819C022EF6B9
:1038B0002A2A2D007461736B20434F4D4D20737481
:1038C0006172746564210A000A7665722D2D2D25BA
:0C38D000640A002A2A25632825642900C8
:1025080042020B00014201F2000142020800006091
:102518003001C105031E0306030328082814040517
:10252800050501020C010000030138640B0B1A0AAF
:102538000000000000000000000000000000000093
:102548004D00AAC12BC1B74101F4004101BF00C130
:1025580080C181C102C183C104C105C106C107C1CF
:1025680008C109C10AC10BC10CC10DC10EC10FC1FF
:1025780010C111C112C113C114C115C116C117C1AF
:1025880018C1194101B5004101B6004101B7004128
:1025980001B8004101B9004101BA004101BB004145
:1025A80001BC004201BD0000C11AC11BC11CC11DF4
:0425B800C11FC1205E
:1031A00012201A7F081211F67D0A7F021213327F55
:1031B0000A1211F67D0A7F021213327F091211F6EC
:1031C0007F011211F67D0A7F021213327F0D121158
:1031D000F67D0A7F021213327F0B1211F67D0A7FF1
:1031E0000212133212304B7F021211F67DFA7F0267
:1031F0001213327F041211F67D0A7F02121332E499
:04320000FF02127F38
:10201A001239F6E49001F1F0C22EC221C222C22383
:10202A00C224C225C22690023DF0A3F0A3F0A3F079
:10203A00C227D233C229900207F0C2349001C0F0FD
:10204A00D235900125120FC9000000007F407E0D95
:10205A007D037C00900125E0F8A3E0F9A3E0FAA350
:10206A00E0FBC3120FAC5068E4900124F090012405
:10207A00E0FFC364809488500B74332FF8E4F6E0D1
:10208A0004F080E9E4900124F0900124E0FFC364A5
:10209A008094905019EF3395E0FE74F72FF582740F
:1020AA00013EF583E4F0900124E004F080DB900126
:1020BA0025E0FCA3E0FDA3E0FEA3E02401FFE43E4B
:1020CA00FEE43DFDE43CFC900125120FBD022056C2
:1020DA007F021237A27F011236A5123734C22CE4CE
:1020EA00900124F0900124E0FFC3648094B050254D
:1020FA00EF3395E0FE123A4C900124E0FD3395E06F
:10210A00FC740D2DF58274023CF583EFF0900124E6
:10211A00E004F080CF7F007E02123A4CEF7F00FE8F
:10212A00C006C0070F7E02123A4CEFFDD0E02DFE2A
:10213A00D0E034009001F5F0A3CEF07402FFFE1255
:10214A003A4CEF7F00FEC006C0077F037E02123AB8
:10215A004CEFFDD0E02DFED0E03400900208F0A351
:03216A00CEF02292
:10304B007F031211F67D0A7F021213327F051237AE
:10305B00A27F061237A27F071237A27F0F1236A567
:10306B007F0E1211F67F121237A290021AE075F042
:10307B000AA4FD7F021213327F121236A5302409E7
:10308B007D027F0212133280F47F101237A290025E
:10309B001EE075F00AA490020AF09001FB745DF03B
:1030AB00E52B20E703745BF0E52CA2E2922A922D2C
:0730BB00C2337F020237A2BD
:10216D007D647F02121332E53A30E7030222AE128C
:10217D00345B123734E52C30E005200102D236E510
:10218D002C20E102D203E53A30E70302229CE52D33
:10219D0030E12D30E21020000DE52C20E008203339
:1021AD00051234F08013E52C30E00E20010BE52DE7
:1021BD0020E20630270312392CE4FF1236A58025C4
:1021CD007D0A7F02121332E52D20E1119001F1E01D
:1021DD006005C3946440069001F17411F0E4FF12A0
:1021ED0037A212392C202C1DE52B30E6137D147FE0
:1021FD0002121332E52B30E60C7F041237A2800554
:10220D007F041236A5E52B30E72120E56220E15F42
:10221D0030275C300359E52C30E1547F031237C968
:10222D00404D7F031237A2C203804430271B300379
:10223D0018E52C30E1137F031237C9400CE52D2032
:10224D00E4077F031237A2C203E52D30E4217F039B
:10225D001237C9501A7F141237C94002800C9002F0
:10226D002BE0B4010A7F141236A57F031236A5E5C3
:10227D002B30E50A7F0612127F7F081236A5E52D59
:10228D00A2E29200E52C139201E52BA2E692027DCB
:10229D00027F021213329001FBE090023BF002210B
:0222AD00742299
:1030C20012345B123734E53A20E7603021057F0B7A
:1030D2001237A23022057F0C1237A23023057F0D52
:1030E2001237A23024057F0E1237A27F0230330539
:1030F2001237A2800A1236A57D147F021213327D86
:10310200327F021213327F0B1236A57F0C1236A5C4
:103112007F0D1236A57F0E1236A53033057F0212BF
:1031220036A57D327F0212133280957D027F021214
:043132001332808C48
:10004600C23A12345B123734E53A30E70302064F00
:10005600202C03020625D22830350A90020DE090A6
:1000660001F4F0C2359001FB7403F0E52B30E74450
:100076007F031237C940127D027F021213329001AC
:10008600F1E070EC74CBF080E79001F1E0B4CB02C4
:10009600E4F0E52D20E7127D027F02121332900173
:1000A600F1E070EE747BF080E99001F1E0647B7022
:1000B6007CF080799001FB7404F07D027F021213BC
:1000C60032E52D30E70F30E00CE52B20E0077F13FB
:1000D6001237C9503CE52D20E7099001F1E0700385
:1000E600747BF0E52D20E0099001F1E07003747453
:1000F600F0E52B30E0099001F1E0700374BEF07F6B
:10010600131237C950B49001F1E070AE74DBF08081
:10011600A99001F1E0FF647B600EEF64746009EF63
:1001260064BE6004EFB4DB05E49001F1F0302A030D
:100136000202EA7F0A1237A27F051236A57F06124F
:1001460036A57F071236A57F051211F69001FB74BE
:1001560005F07F061211F67F0F1211F69001FB745F
:1001660007F0E4900132F090020FE0FF900132E0D8
:10017600C39F502B7D0A7F02121332E52B20E31F0B
:100186009001F1E070037467F0900221E06008903E
:100196000132E0600214F0900132E004F080C89071
:1001A60001F1E0B46702E4F0E52C30E5057F1012BA
:1001B60037A290020FE0FFFD90023DE4F0A3EDF0C0
:1001C600900132E0FD90023FE4F0A3EDF0C39F40C2
:1001D600030202BA9001FB7406F0E52B30E355C228
:1001E60030E4900132F090020EE075F005A4FF9025
:1001F6000132E0C39FE5F06480F874809850167D64
:10020600027F02121332E52C30E402D23090013222
:10021600E004F080D17F051237A2203017D2229059
:1002260001F1E0FF6005C3946440069001F1740C8F
:10023600F012392C9001FB7408F0E52B20E4127DB6
:10024600027F021213329001F1E070EE7468F080C2
:10025600E99001F1E0B46802E4F0C231E4900132C1
:10026600F0900212E075F005A4FF900132E0C39F02
:10027600E5F06480F874809850167D027F021213B0
:1002860032E52C30E502D231900132E004F080D123
:100296007F061237A2303103020330D2239001F1D8
:1002A600E0FF6005C3946440069001F1740DF012FE
:1002B600392C80767F0F1237A27F051237A27F0670
:1002C6001237A2900210E075F00AA4FD7F02121305
:1002D600327F0F1236A5900211E075F00AA4900243
:1002E60007F08046C22A9001F1E07003746EF0E5D3
:1002F6002B20E1347F081237A27F1C1237A2E4902C
:100306000132F0900222E0FF900132E0C39F500FCD
:100316007D0A7F02121332900132E004F080E47FFE
:100326001C1236A5C23A8002D23A303A03020418A9
:100336009001FB7409F0E52B20E5127D027F021285
:1003460013329001F1E070EE7469F080E99001F1EA
:10035600E0FF64696004EFB46E05E49001F1F07F9C
:100366000612127F7F081236A5C232E4900132F0DF
:10037600900213E0FF900132E0C39F50227D0A7F76
:1003860002121332E52C30E60ED23290021CE075D2
:10039600F00AA490020AF0900132E004F080D17FC6
:1003A600071237A212373412345B203217D2249048
:1003B60001F1E0FF6005C3946440069001F1740EFC
:1003C600F012392C9001FB740AF012345BE52B30E5
:1003D600E507E52D20E402802FE52D30E436E52BF8
:1003E60020E7317F031236A5E52D30E4127D027F2A
:1003F600021213329001F1E070EE7478F080E99009
:1004060001F1E0B47802E4F07F141237A212373417
:100416008002C23A9001FB740DF0E52B20E703023F
:1004260004C8E52B20E1097D027F0212133280F217
:10043600E52D30E437E52D30E4127D027F021213FC
:10044600329001F1E070EE7478F080E9900217E0E6
:10045600900132F0900132E0D3940040487D647FF1
:1004660002121332900132E014F080E8E490013277
:10047600F090021BE075F00A84FF900132E0C39F02
:10048600500F7D647F02121332900132E004F08037
:10049600E090021BE075F00A84E5F075F00AA4FD11
:1004A6007F021213329001F1E0B47802E4F07F0388
:1004B6001236A57F141236A5D2347F131236A50242
:1004C600064F9001FB740BF0E52B30E510E52D206F
:1004D600E40B9001F1E0B47816E4F080127D027F1F
:1004E600021213329001F1E070DE7478F080D97F49
:1004F600141237A21237347D027F021213327F03A1
:100506001237C95012E52B30E10DE52D20E408E540
:100516002E20E4030205A37F031237C9500FE52BF3
:1005260030E10AE52D20E405E52E20E7707F031271
:1005360037C9400B9001F1E0700E74CBF080099042
:1005460001F1E0B4CB02E4F0E52B20E10B9001F1E0
:10055600E0700E7465F080099001F1E0B46502E484
:10056600F0E52D30E40B9001F1E0700E7478F08028
:10057600099001F1E0B47802E4F0E52E20E70F904F
:1005860001F1E060030204FD7483F00204FD9001B2
:10059600F1E0648360030204FDF00204FD7F1312A0
:1005A60037A29001F1E0FF64CB600EEF646560094D
:1005B600EF64786004EFB48305E49001F1F09001F4
:1005C600FB740CF0E52B20E105E52C20E7307D02DD
:1005D6007F02121332E52B30E10B9001F1E0700E31
:1005E60074BFF080099001F1E0B4BF02E4F0E52C9D
:1005F60020E7D19001F1E070CB7473F080C67F13D1
:100606001236A59001F1E0FF64BF6004EFB47305F4
:10061600E49001F1F07F0C1211F6123734802AC2F1
:1006260028C227C2337F021237A27F0612127F7FAB
:10063600081236A57F051237A27F061237A27F075A
:100646001237A29001FB7401F07D027F0212133271
:0306560002004857
:10065900E53A30E703020A1C900214E0700204F044
:10066900900216E0700204F0E52E139204E52EA222
:10067900E19205A2E29206A2E39207A2E59208A2FC
:10068900E69209E52C339217E52BA2E19219A2E330
:1006990092127F031237C99214300417200D14E403
:1006A9009001C0F07F151236A57F181236A5E49087
:1006B90001B5F0300519200E16E49001B6F07F154A
:1006C9001237C940057F181236A57F191236A53091
:1006D9000705201002D234300D1A200417303414C3
:1006E900900220E0600E302C0B1237987F151237DC
:1006F900A2123699300657200F547F151237C94078
:100709004D7F181237C940467F191237C9403F300B
:10071900042B200528900225E09001B6F07F1812DD
:1007290037A27F191237A2303413900228E09001C2
:10073900C0F0900225E09001B5F012369920040E20
:1007490030340B1237987F151237A2123699E52BE0
:1007590030E72F30172C2016297F151237C9400E84
:100769007F181237C940077F191237C95014E4900E
:1007790001C0F07F151236A57F181236A57F191210
:1007890036A530121520111230280F7F1A1237A200
:10079900900214E09001B7F0C22B9001B7E060021B
:1007A90014F090022CE070269001B7E0B401057FA7
:1007B9001A1236A5301906201803202803302B3BBE
:1007C9007F1A1237A27F1B1237A2C22B802D9001EC
:1007D900B7E0B4010D7F1A1236A5900214E090011A
:1007E900B8F09001B8E0600214F09001B8E0B401EB
:1007F9000A7F1A1237A27F1B1237A29001B9E06053
:100809000214F09001B9E0B401057F1B1236A5204E
:10081900140B301308900220E09001BAF09001BA4D
:10082900E06401704A30043020052D9001B5E07074
:1008390027900225E09001B6F07F181237A27F19A0
:100849001237A2303429900228E09001C0F09002BA
:1008590025E09001B5F08014200414303411900182
:10086900B6E0700B1237987F151237A2123699909D
:1008790001BAE0600214F0A2149213A2129211A21A
:10088900199218A234920CA204920DA205920EA2FA
:1008990006920FA2079210A2179216900207E06023
:1008A9000914F07F091237A280057F091236A59035
:1008B900020AE0600214F090020AE0B401057F1018
:1008C9001236A59001B5E0600214F09001B5E0B4CC
:1008D900010F7F181236A57F151236A5E49001C0C5
:1008E900F09001B6E0600214F09001B6E0B4010A9C
:1008F9007F191236A57F181236A59001F4E0600918
:1009090014F07F1F1237A280057F1F1236A59001B0
:10091900C0E0B401057F151237A29001C0E0600262
:1009290014F0302C51900229E0FF604A7E007C8C43
:100939007DA0120E1E9001BDE475F001120E30FC6F
:10094900C3E5F09FEC9E402EE49001BDF0A3F0902A
:1009590001BBE07021A3E0701DD2157F1D1237A2E3
:100969007F1E1236A5E49001BCF0900226E075F0D6
:100979000AA49001BBF020154230081E200A1B7FF3
:100989001D1237A27F1E1236A5E49001BCF0900219
:1009990026E075F00AA49001BBF030091E200B1B5C
:1009A9007F1E1237A27F1D1236A5E49001BBF0907D
:1009B9000227E075F00AA49001BCF09001BBE06049
:1009C9000214F09001BBE070257F1D1236A5301589
:1009D9001D7F1E1237A27F1D1236A5E49001BBF0C0
:1009E900900227E075F00AA49001BCF0C2159001AD
:1009F900BCE0600214F09001BCE070057F1E123665
:100A0900A5A208920AA209920B7D0A7F021213324B
:040A19000206592256
:1022AF00E52DA2E3921C201C03022341301D0302E3
:1022BF0023417F0A1237C94079E52B30E5097D0AA2
:1022CF007F0212133280F27F0412127FD2297F1203
:1022DF001237A27F051237A27F061237A27F07128D
:1022EF0037A27F091236A57F0612127F7F0812369A
:1022FF00A57F0F1236A57F031236A590021AE0753F
:10230F00F00AA4FD7F021213327F121236A590013C
:10231F00F1E0FF6005C3946440069001F1745AF038
:10232F0012392CD22BE52CA2E2922A922D7F041285
:10233F0011F6A21C921DE52D13921A301A030223D7
:10234F00D4201B030223D47F131237C94077E52B08
:10235F0030E5097D0A7F0212133280F27F041212D8
:10236F007FD2297F121237A27F051237A27F061262
:10237F0037A27F071237A27F091236A57F061212E6
:10238F007F7F081236A57F0F1236A57F031236A561
:10239F0090021AE075F00AA4FD7F021213327F1229
:1023AF001236A59001F1E0FF6005C39464400690DA
:1023BF0001F17410F012392CE52CA2E2922A922D21
:1023CF007F041211F6A21A921B7D057F021213329F
:0323DF000222AF28
:10331700E4900135F0900215E075F00A84FF900102
:1033270035E0C39F500F7D647F0212133290013541
:10333700E004F080E0900215E075F00A84E5F0758E
:10334700F00AA4FD7F021213327F031236A57F1401
:103357001236A5C2277D647F02121332D2277F0C53
:0333670002127FD0
:1028AD00E52C33923C203C0302295A301E030229A9
:1028BD005A9001F6E004F070069001F5E004F0D2B4
:1028CD00379001BFE0600414F080239001F1746231
:1028DD00F012392C7BFF7A3879B0120A887F0412F6
:1028ED00127F7D647F021213327F0212127F9002DB
:1028FD0009E004F07006900208E004F0D22E900278
:10290D0023E075F064A4FFA3E07C002FFFEC35F00D
:10291D00FEC3900209E09F900208E09E402FE4F074
:10292D00A3F07F111237A2E4900136F090021DE062
:10293D00FF900136E0C39F500F7D647F021213326A
:10294D00900136E004F080E47F111236A5A23C928E
:0B295D001E7D147F021213320228AD11
:1032BD00C22FE4900160F090020DE075F005A4FFBF
:1032CD00900160E0C39FE5F06480F874809850161B
:1032DD007D027F02121332E52C30E302D22F9001D2
:1032ED0060E004F080D17F0A1236A5202F17D2217D
:1032FD009001F1E0FF6005C3946440069001F17404
:0A330D000BF012392C7F0502127F2D
:10353700E4900162F0900218E0FF900162E0C39FFF
:1035470050147D647F02121332E52B20E1089001AD
:1035570062E004F080DF900218E0FF900162E0C3B0
:103567009F40082029057F081237A27F0602127F95
:103A8100E52C20E5097D027F0212133280F27F10BE
:083A91001237A27F0F02127F21
:1038DC00E52C20E614D2247D027F021213329001D3
:1038EC00F1E070EC7472F080E7C2249001F1E0B466
:0938FC007202E4F07F0E02127F5B
:1029680012345B123734E53A30E703022A15E52DB5
:10297800A2E59246A2E69247202C03022A03900180
:10298800FF7401F020460330470C7F161237A27DF2
:10299800017F0212133220461130200E20470B907F
:1029A80001FF7403F07F161236A5204758301F55D3
:1029B80020475220464F7F161236A5E4900163F057
:1029C80090021FE0FF900163E0C39F50387F171209
:1029D80037A2900219E075F00AA4FD7F02121332A3
:1029E8007F171236A5900219E075F00AA4FD7F0240
:1029F800121332900163E004F080C57F161236A5E9
:102A08007F171236A5A247921FA24692207D027F09
:072A180002121332022968CB
:102AD600E4900165F0A3F0A3F07BFF7A3879B41295
:102AE6000A887BFF7A3879C890016B7401F0120A64
:102AF60088123664900167E014601314601D146038
:102B060028146043240470E9EFB406E5801EEF70D4
:102B1600028019EFB40602801F8025EFB4010280FF
:102B26000BEFB4060280118017EF7008900167E082
:102B360004F080BDEFB406089001677401F080B11F
:102B4600E4900167F080AAEF75F00AA49001BFF047
:102B5600E4900167F03037997BFF7A3879D3E52B1B
:102B660030E2047F4280027F4190016BEFF09001DA
:102B7600F5E0FFA3E090016CCFF0A3EFF0120A8816
:052B8600C237022AF72E
:102C3700C23612345BE52B90019130E205740BF03C
:102C47008003740AF0900196120FC900004B00E44C
:102C570090019AF0900191E0FD7B02E4FF122CDDD8
:102C6700900192EFF0123996900192EFF01215B899
:102C77007D027F021213323036F39001F5E0FD7FBB
:102C8700007E02123A309001F5A3E0FD7F017E023B
:102C9700123A30900208E0FD7402FFFE123A3090BB
:102CA7000208A3E0FD7F037E02123A30E49001910F
:102CB700F0900191E0FF7E00240DF582E43402F5E7
:102CC70083E0FD123A30900191E004F0E0C39430C4
:062CD70040DFC2368097C9
:1034F000E52D30E1417F011237A27F021236A57D12
:10350000037F02121332D22C7F041236A5202D0C19
:10351000C22A7F051236A57F061236A57F0712360E
:10352000A5E49001F1F0C221C222C223C224C22527
:07353000C226D227C22922A6
:10392C00302C20D2337F011236A5E49001C0F07FF9
:10393C00151236A57F181236A57F191236A5123727
:04394C0034C22C2233
:0A379800900225E09001B5F07F18C3
:1037A200EF75F008120D822433F8C000E6FEEF75C3
:1037B200F008120D82AFF07401A807088002C3332B
:0737C200D8FC4ED000F622F6
:0C369900C234900216E09001B9F07F1AD4
:1036A500EF75F008120D822433F8C000E6FEEF75C1
:1036B500F008120D82AFF07401A807088002C33329
:0836C500D8FCF45ED000F622EF
:1037C900EF75F008120D822433F8E6FD7C00EF75E1
:1037D900F008120D82AFF074017E00A80708800579
:1037E900C333CE33CED8F9FFEE5CFEEF5D4E24FF36
:0137F90022AD
:1035B500EF75F008120D82FEC374079E2433F8E6FA
:1035C500FD7C00EF75F008120D82AFF0C374079F04
:1035D500FF74017E00A807088005C333CE33CED81B
:0B35E500F9FFEE5CFEEF5D4E24FF22BC
:10388400EF75F008120D82FEC374079E242BF8C056
:1038940000E6FEEF75F008120D82AFF07401A80780
:0C38A400088002C333D8FC4ED000F6228E
:10385700EF75F008120D82FEC374079E242BF8C083
:1038670000E6FEEF75F008120D82AFF07401A807AD
:0D387700088002C333D8FCF45ED000F622B6
:10345B00C284C285D286D284A28692527F3F3052DA
:10346B00051238848003123857900193743EF09004
:10347B000193E0FFC3648094804020D285A28692A2
:10348B0052C2853052051238848008900193E0FFB8
:0C349B00123857900193E014F080D42206
:10373400C283C283E4900164F0900164E0FFC36437
:103744008094C05018C2821235B55004D2808002D1
:10375400C280D28200900164E004F080DCD283C293
:023764008122C0
:1017C3009001A9EBF0A3EAF0A3E9F0E49001B1F0F2
:1017D300C3ED9401EC940050030219BF9001AFE0F4
:1017E3002DFF9001AEE03CFED3EF9445EE94004014
:1017F300030219BF90020BE0FEA3E0FFC3ED9FFFBE
:10180300EC9EFE9001B0E01470030218F80460032C
:101813000219C5D39001AFE094009001AEE09400AB
:1018230050030219C5EF9404EE648094805025EFB1
:1018330025E02433F8E6FD9001A9E0FBA3E475F06D
:1018430001120E46A9F0FAED120DEAEF25E0243459
:10185300F8E68076C3EF9434EE6480948050219050
:1018630001A9E0FBA3E475F001120E46A9F0FAE426
:10187300120DEA74092FF58274023EF583E0804A63
:10188300C3EF9443EE6480948050219001A9E0FB60
:10189300A3E475F001120E46A9F0FAE4120DEA74FE
:1018A300C32FF58274013EF583E0801EEF64434E3F
:1018B300702D9001A9E0FBA3E475F001120E46A977
:1018C300F0FAE4120DEA9001F1E0FD9001A9E0FBCA
:1018D300A3E475F001120E46A9F0FAED120DEA0F1A
:1018E300BF00010E9001AFE024FFF09001AEE034A1
:1018F300FFF0021816302C030219B7D39001AFE0A2
:1019030094009001AEE0940050030219C5EF9404D3
:10191300EE64809480503A9001A9E0FBA3E475F053
:1019230001120E46A9F0FA120DA4FDEF25E02433AF
:10193300F8A6059001A9E0FBA3E475F001120E4699
:10194300A9F0FA120DA4FDEF25E02434F8A60580D2
:101953004DC3EF9434EE6480948050429001AAE426
:1019630075F001120E309001A9E0FBA3E475F001BC
:10197300120E46A9F0FA120DA4FD74092FF5827414
:10198300023EF583EDF0EF64304E70069001F5F002
:10199300A3F0EF64314E700690023A744DF00FBF1E
:1019A30000010E9001AFE024FFF09001AEE034FFA0
:1019B300F00218FE9001B17402F080069001B17438
:0819C30001F09001B1E0FF22E8
:102706009001A5EBF0A3EAF0A3E9F0E49001ACF0A8
:10271600C3ED9401EC940050030227CE9001ABE088
:102726002DFF9001AAE03CFED3EF9406EE94004004
:10273600030227CE9001F2E0FEA3E0FFC3ED9FFF68
:10274600EC9EAD07FCD39001ABE094009001AAE0AB
:102756009400407AED64044C70209001F5E0FF90FF
:1027660001A5E0FBA3E475F001120E46A9F0FAEF0D
:10277600120DEA9001F5A3E08023ED25E0242BF865
:10278600E6FF9001A5E0FBA3E475F001120E46A951
:10279600F0FAEF120DEAED25E0242CF8E6FF9001A1
:1027A600A5E0FBA3E475F001120E46A9F0FAEF12BC
:1027B6000DEA0DBD00010C9001ABE024FFF0900185
:1027C600AAE034FFF002274B9001AC7401F09001AF
:0427D600ACE0FF2252
:03000B000210D907
:1010D400C2AF80FE321210D885D00B75D008FAC288
:1010E4008CE58A2407F58AE58C34B8F58CD28CEC2F
:1010F400248EF8E6BC0F0274FFC39581B41400403B
:10110400CF7910786D16E608700BC2AFE630E103B4
:101114004418F6D2AF08D9EDEA8BD0D25722E50CA9
:10112400FF23246EF80F0808EFB50C06105703438D
:101134008701BF10047F00786EE630E4E800E50C18
:10114400C39F5020050C748D250CF8E6FDA681087C
:10115400E6AE0CBE0F0274FFCDF8E86D60E008E661
:10116400C0E080F6E50CD39F4027E50C248EF8E61A
:10117400AE0CBE0F0274FFFD18E6CDF8E5816D607C
:1011840006D0E0F61880F5E50C248DC8F6150C8021
:10119400D3E50C23246EF87F04C2AFE630E00310DD
:1011A400E20C7F0030E10730E3047F0854F4C2E727
:1011B400C6D2AF5480420722788DA681740F600690
:1011C400FF0876FFDFFB7F10E4786DF608F608DF92
:1011D400FA786E76309039B8740193C0E0E493C025
:1011E400E0438901758A00758CB8D28CD2AFD2A93C
:0211F400220FC8
:0825BC004102BCFF4102B9FF1E
:1037010020552FC2AC205409205606D2548F9980DF
:103711001F9002BDE0FE04F0EE541F244DF8A607F1
:103721009002BAE0FF9002BDE06F541F7002D255C3
:03373100D2AC22F5
:10336A00900190EFF0BF0A2130551912132F9002E5
:10337A00BCEFF0E4FBFAFD7F011213329002BC7439
:10338A00FFF080E47F0D12370130551912132F9088
:10339A0002BCEFF0E4FBFAFD7F011213329002BC8B
:1033AA0074FFF080E4900190E0FF123701900190E1
:0333BA00E0FF220F
:103664009002B8E0FF9002BBE0B5071912132F9047
:1036740002B9EFF0E4FBFAFD7F011213329002B9B4
:1036840074FFF080DB9002B8E0FF04F0EF540724ED
:0536940045F8E6FF22ED
:03002300022E1991
:102E1900C0E0C0F0C083C082C0D075D010C25330AA
:102E29009844AF99C298EF24EF600824FE700CD241
:102E3900568033A2569253C256802B9002B8E02492
:102E490008FDE433FC9002BBE06D7001EC600CE01E
:102E5900FE04F0EE54072445F8A6179002B9E0FFE6
:102E6900F4600312130820990330532FC29990027A
:102E7900BDE0FF9002BAE06F601F20561EE0FF041C
:102E8900F0EF541F244DF8E6F599C2559002BCE0C5
:102E9900FFF460071213088002C254D0D0D082D048
:062EA90083D0F0D0E032FE
:1039F60053877F759850538EBF538EFE53890F435E
:0D3A06008920758BD0758DD0C2ABD28E2279
:1039500000C2A40000000000000000D2A50000008A
:1039600000D2A400000000C2A500000000C2A40014
:043970000000002231
:1039D80000C2A400000000C2A500000000D2A4009C
:0E39E800000000D2A500000000000000002238
:103A67000000000000C2A400000000C2A500000082
:0A3A770000D2A400000000C2A42247
:1038290012395044A0FF12390512383AAF0512393E
:013839000589
:10383A00D2A500C2A40000000000000000D2A4002B
:0D384A00000000A2A5E433FF0000C2A4228C
:10397400D2A500E4FEEF25E0FFD2A400000000A2DF
:10398400A5E4334FFF00000000C2A40EEEB408E526
:0239940000220F
:1039050000E4FEEF30E704D2A58002C2A500000066
:1039150000D2A400000000C2A400000000EF25E0D2
:07392500FF0EEEB408DD22E5
:1034A700AC07C2B6EC25E0FC123829123950EC44BF
:1034B700A1FF12390512383A90012FE06401601913
:1034C700123974EF120DEA123A67740129F9E43AD6
:1034D700FA90012FE014F080DF123974EF120DEA31
:0934E70012383A1239D8D2B6228B
:10357700C2B6EF25E0FF123829900199E0601912D1
:103587000DA4FF12390512383A740129F9E43AFA01
:10359700900199E014F080E11239D8E4FFFE0000B1
:0E35A7000FBF00010EBE5DF6BFC0F3D2B6220C
:103A4C00AD07AC06ECFF7B017A01792990012F744C
:0B3A5C0001F01234A7900129E0FF22C6
:103A3000900193EDF0AB07AA06EAFFAD037B017A94
:0C3A40000179939001997401F002357730
:1025C40041029A026040025304FF1D4203FF1EB001
:1025D40010FF260D06FF2F3B17FF1391000000008C
:1025E40000000000000000000000000000000000E7
:1025F40000000000000000000000000000000000D7
:082604000000000000000000CE
:102CDD00900193EFF0AE03E490019BF0ED600BC318
:102CED0094014006EDD394F7400890019B7402F0D7
:102CFD00807B90024FEDF0900193E0704A9002506E
:102D0D0074FFF0A3743AF0A37499F0900249E4F0C3
:102D1D00A3F0A3F0AF06AD07C005900196E0FCA3AC
:102D2D00E0FDA3E0FEA3E0FF90019E120FBD900118
:102D3D009AE09001A2F090024FE0FFD0051232040C
:102D4D0090019BEFF0800690019B7402F090019B27
:102D5D00E0701A120003EF700890019B7403F0806D
:102D6D000C900193E0900299F0A37401F090019BF7
:032D7D00E0FF2252
:101BCB009002BEEBF0A3EAF0A3E9F0AD07E4C39DEE
:101BDB004003021D36ED947F4003021D36C2AF90C9
:101BEB0002BEE0FBA3E0FAA3E04A4B7003021CBF6A
:101BFB00E4A3F0A3F09002C1E0FEA3E0FFC39410B6
:101C0B00EE648094804003021CA6EF7802C333CEAF
:101C1B0033CED8F9FF2454F58274023EF583E0FBF2
:101C2B00A3E0FAA3E04A4B603674542FF58274029A
:101C3B003EF583E0FBA3E0FAA3E0F9C003C002C0CA
:101C4B00019002BEE0FBA3E0FAA3E0F9D082D083BF
:101C5B00D0E06B7008E965827003EA6583702B74C2
:101C6B00532FF58274023EF583EDF09002BEE0FB3C
:101C7B00A3E0FAA3E0F974542FF58274023EF583C6
:101C8B00EBF0A3EAF0A3E9F080119002C2E004F0BC
:101C9B0070069002C1E004F0021C009002C1E070DB
:101CAB0004A3E0641060047F0080027F049002C3F1
:101CBB00EFF08073E49002C1F0A3F09002C1E0FE5C
:101CCB00A3E0FFC39410EE648094805055EF78022C
:101CDB00C333CE33CED8F92453F58274023EF58349
:101CEB00E0B5052E9002C1E0FEA3E07802C333CE2F
:101CFB0033CED8F9FF2453F58274023EF583E4F01A
:101D0B0074542FF58274023EF583E4F0A3F0A3F034
:101D1B0080109002C2E004F070A19002C1E004F0C8
:101D2B008099E49002C3F0D2AF80069002C3740294
:071D3B00F09002C3E0FF225B
:10376600E49002C8F090029AE0B4011A900249E08F
:10377600FBA3E0FAA3E04A4B6012900249A3A3E040
:10378600F912104980069002C87406F09002C8E04B
:02379600FF2210
:10399600E4900193F090029AE0B4010A120026E442
:1039A60090029AF080069001937406F0900193E0DD
:0239B600FF22EE
:1036CD0090029AE07014900250A3E0FAA3E0F91270
:1036DD00104990029A7401F0800790029AE0B401AB
:1036ED0007E49002C9F080069002C97406F09002BA
:0436FD00C9E0FF22FF
:1015B800E4900195F090029AE060037F06227B0197
:1015C8007A01799612000EEF640160030217C09049
:1015D8000196E024FE604E0460030217C090019A51
:1015E8007401F0A37402F0A37441F0A37401F0A392
:1015F8007402F0A37446F07B017A027944122B8BB3
:10160800900195EFF060030217C090024FE0FF9041
:101618000244E0FE6F6006EE60030217C07F02120C
:101628003AB40217C0900241E0FBA3E0FAA3E0F944
:10163800120DA4900245F09002487401F0E4900164
:1016480093F0A3F0900193E0FEA3E0FFC39410EEA3
:1016580064809480400302174DEF7802C333CE3381
:10166800CED8F92453F58274023EF583E0FF700367
:1016780002174D900245E0FE6F600302173CEE240E
:10168800FD603424FD606C24F6604A24F97003027E
:1016980017192413600302174D90019A7401F0A3DF
:1016A8007402F0A37446F0900241E0FBA3E0FAA3B1
:1016B800E0F9121D42807690019A7401F0A3740239
:1016C800F0A37446F0900241E0FBA3E0FAA3E0F92E
:1016D800121EB0805890019A7401F0A37402F0A30E
:1016E8007446F0900241E0FBA3E0FAA3E0F9122669
:1016F8000D803A90019A7401F0A37402F0A3744625
:10170800F0900241E0FBA3E0FAA3E0F9122F3B803E
:101718001C90019A7401F0A37402F0A37446F0902F
:101728000241E0FBA3E0FAA3E0F91213919002480A
:10173800EFF08011900194E004F07006900193E0BE
:1017480004F002164C900244E0606D900248E0FFFD
:10175800603FE4900246F0A3F0900245E04480FE2A
:10176800900241E0FBA3E0FAA3E0F9900246E47599
:10177800F001120E4685F082F583EE120DFC900200
:1017880046E475F001120E4685F082F583EF120DDE
:10179800FC90024FE0FF900241E0FBA3E0FAA3E0D7
:1017A800F9900246E0FDA3E090019BCDF0A3EDF097
:0B17B800122A1F900195EFF07F002225
:1019CB0000C1814001C0804101C0804100C1814004
:1019DB0001C0804100C1814000C1814001C08041F4
:1019EB0001C0804100C1814000C1814001C08041E4
:1019FB0000C1814001C0804101C0804100C18140D4
:101A0B0001C0804100C1814000C1814001C08041C3
:101A1B0000C1814001C0804101C0804100C18140B3
:101A2B0000C1814001C0804101C0804100C18140A3
:101A3B0001C0804100C1814000C1814001C0804193
:101A4B0001C0804100C1814000C1814001C0804183
:101A5B0000C1814001C0804101C0804100C1814073
:101A6B0000C1814001C0804101C0804100C1814063
:101A7B0001C0804100C1814000C1814001C0804153
:101A8B0000C1814001C0804101C0804100C1814043
:101A9B0001C0804100C1814000C1814001C0804133
:101AAB0001C0804100C1814000C1814001C0804123
:101ABB0000C1814001C0804101C0804100C1814013
:101ACB0000C0C101C30302C2C60607C705C5C404D3
:101ADB00CC0C0DCD0FCFCE0E0ACACB0BC90908C843
:101AEB00D81819D91BDBDA1A1EDEDF1FDD1D1CDC33
:101AFB0014D4D515D71716D6D21213D311D1D010A3
:101B0B00F03031F133F3F23236F6F737F53534F492
:101B1B003CFCFD3DFF3F3EFEFA3A3BFB39F9F83802
:101B2B0028E8E929EB2B2AEAEE2E2FEF2DEDEC2CF2
:101B3B00E42425E527E7E62622E2E323E12120E062
:101B4B00A06061A163A3A26266A6A767A56564A452
:101B5B006CACAD6DAF6F6EAEAA6A6BAB69A9A868C2
:101B6B0078B8B979BB7B7ABABE7E7FBF7DBDBC7CB2
:101B7B00B47475B577B7B67672B2B373B17170B022
:101B8B005090915193535292965657975595945412
:101B9B009C5C5D9D5F9F9E5E5A9A9B5B9959589882
:101BAB00884849894B8B8A4A4E8E8F4F8D4D4C8C72
:101BBB0044848545874746868242438341818040E2
:103262009001A2EBF0A3EAF0A3E9F0A3ECF0A3ED46
:10327200F07FFF7DFF9001A574FFF5F0120E464529
:10328200F060339001A2E0FBA3E475F001120E4658
:10329200A9F0FA120DA46DFB7A0024CBF582EA3470
:1032A20019F583E4936FFD74CB2BF582EA341AF59A
:0B32B20083E493FF80BFEFFEEDFF22DE
:10320400E49001A3F0C2AFAF05C00790019EE0FCBB
:10321400A3E0FDA3E0FEA3E0FF9001A5120FBD9083
:1032240001A97408F09001A2E09001AAF0D007125D
:103234002D80EF64016002801290019EA3A3E0FE42
:10324400A3E0FF12340EEF640160069001A374033F
:0E325400F0D2AFE4900000F09001A3E0FF2262
:10002600C2AFE4900001F0FD7F011237FA123AA741
:03003600D2AF2224
:0E3A9900C2AFE4FDFF1237FA123AC0D2AF22DC
:102B8B00900197EBF0A3EAF0A3E9F0E49001A0F039
:102B9B00A3F0C2AFC3900003E09404900002E09452
:102BAB000040667B017A007904E0FCA3E0FD123261
:102BBB0062EF4E7054900004E0FF900197E0FBA38E
:102BCB00E0FAA3E0F9EF120DEA900003E024FDFF19
:102BDB00900002E034FFF990019DE0FBA3E0FAA323
:102BEB00E0C98FF0120EBF7B017A007905C003C0DC
:102BFB0002C00190019AE0FBA3E0FAA3E0F9120FE7
:102C0B00FA9001A07401F0801B7B017A007904908B
:102C1B000002E0FCA3E0FD123262EF4E6006900171
:0C2C2B00A17405F0D2AF9001A1E0FF22DF
:102A1F00E490019DF0C2AF900001E06401600302F9
:102A2F002AC8E924FFF9EA34FFFA900106EBF0A374
:102A3F00EAF0A3E9F0900104E4F0A304F09001069A
:102A4F00E0FBA3E0FAA3E0F9EF120DEA90019BE09F
:102A5F00FEA3E0FF900105E02FF0900104E03EF0AF
:102A6F00900106E0FBA3E0FAA3E0F9900104E0FC7B
:102A7F00A3E0FD123262900104E475F001120E46DC
:102A8F00FA740425F0F58274003AF583EFF0EEFF47
:102A9F00900104E475F001120E46FC740425F0F564
:102AAF008274003CF583EFF09000007401F0FDE4B8
:102ABF00FF1237FA123136800690019D7405F0D25D
:072ACF00AF90019DE0FF2222
:102FC700E49001B3F07B017A0179B4123AC9900019
:102FD70001E014600C1460351460042403705F80F2
:102FE7005AE4900002F0A3F09001B4E0FF900002D1
:102FF700E475F001120E46FC740425F0F5827400A6
:103007003CF583EFF09000017402F0802EC390002E
:1030170002E09401501F9001B4E0FF900002E475B4
:10302700F001120E46FC740425F0F58274003CF59D
:1030370083EFF080069000017403F0123AA7900125
:04304700B3E0FF22D1
:10313600E49001B3F0900000E014600C047055E4D4
:10314600FD7F011237FA804C900104E07002A3E083
:10315600602C900106E0FBA3E0FAA3E0F9120DA4AF
:10316600FF12003E900107E475F001120E30900147
:1031760005E024FFF0900104E034FFF080167F03A1
:10318600123AB49001B3EFF0E4FD7F011237FAE48E
:0A319600900000F09001B3E0FF226A
:10362B00E49001B2F0900001E024FE601314601AE4
:10363B0024037016E4FF123AB49001B2EFF0800A43
:10364B007F01123AB49001B2EFF0123AC090000130
:09365B007401F09001B2E0FF22BD
:10340E00EF4E602BEF25E0FFEE33FE7C007D0C12BD
:10341E00104FA804A905AA06AB077F007E807D8306
:10342E007C65120F1A9002C4EEF0A3EFF08007E451
:10343E009002C4F0A3F0E4F5D8F5D975DA489002FD
:0D344E00C4E0FEA3E0F5EAEEF5FA7F0122EE
:0D3AA700E4F5D875DA49F5E9F5F9D2DE222B
:093AC000C2DE75DA48E4F5D822F3
:03003B000235F09B
:1035F000C0E0C0F0C083C082C0D075D000C000C0A1
:1036000001C002C003C004C005C006C00712362BAB
:10361000D007D006D005D004D003D002D001D0000E
:0B362000D0D0D082D083D0F0D0E032B8
:0100220022BB
:08000300E49002C6F07F012227
:0C3AB4009002C67401F0A3EFF07F012225
:10000E00E4FF9002C6E0600BA3E0120DEAE490025A
:04001E00C6F00F22F7
:1037FA00EF6007ED6004D2908015EF700AED600764
:10380A00D290539AEF800BEF600CED7009C290438F
:0F381A009A1043AF0122C290539AEF53AFFE2290
:102D80009001A4EFF07F007EC27D017C00A3E0F8FB
:102D9000A3E0F9A3E0FAA3E0FBD3120FAC5016E4D2
:102DA0007F807E25FDFC9001A5E0F8A3A3A3E0C3EE
:102DB000120FAC500A9001A5120FC900004B0090F1
:102DC00001A5E0F8A3E0F9A3E0FAA3E0FB7F007E11
:102DD000807D517C01120F1AE47B20FAF9F8120F62
:102DE0001AEFF404F59C9001A4E0B4011553877F19
:102DF000759850438E04438E01438E10C29CC2AC22
:102E00008012538EF7759A50438E04438E10539A56
:092E1000EF53AFFEC2907F0122D6
:05003E008F9B7F0122F1
:083AC900E59B120DEA7F0122CA
:033AD10002313689
:033AD400022FC7F7
:030043000233BDC8
:1033BD00C0E0C0F0C083C082C0D075D000C000C0D6
:1033CD0001C002C003C004C005C006C007E59A30A5
:1033DD00E006539AFE123AD4E59A30E109539AFD6C
:1033ED00309003123AD1D007D006D005D004D003C7
:1033FD00D002D001D000D0D0D082D083D0F0D0E098
:01340D00328C
:0100390022A4
:102F3B00900197EBF0A3EAF0A3E9F0E490019FF086
:102F4B0090019AE0FBA3E0FAA3E0F9120E5C640592
:102F5B0045F0705C900197E0FBA3E0FAA3E0F990D9
:102F6B000001120DBD90019DF0A3E4F09000021240
:102F7B000DBDFF90019DE0F0A3E04FF0E004F07079
:102F8B000690019DE004F0E92403F9E43AFA90017C
:102F9B009DE0FCA3E0FD9001AEE4F0A304F0A3F0F0
:102FAB001217C3EF6010123A1390019FEFF08006D7
:0C2FBB0090019F7403F090019FE0FF2242
:10260D00900197EBF0A3EAF0A3E9F0E49001A1F0BB
:10261D0090019AE0FBA3E0FAA3E0F9120E5CC394DB
:10262D0006E5F0940050030226FA900197E0FBA313
:10263D00E0FAA3E0F9900001120DBD90019DF0A309
:10264D00E4F0900002120DBDFF90019DE0F0A3E0BB
:10265D004FF0E004F0700690019DE004F09000034F
:10266D00120DBD90019FF0A3E4F0900004120DBD7A
:10267D00FF90019FE0F0A3E04FF0900005120DBD1B
:10268D00FF90019FE0FCA3E0FDC39401EC9400409A
:10269D005CD3ED9478EC94005053ED25E06F704DC4
:1026AD00900197E0FBA3E0FAA3E02406F9E43AFADF
:1026BD0090019DE0FCA3E0FDA3E0FFA3E09001AE3F
:1026CD00CFF0A3EFF0A37401F01217C3EF600A125D
:1026DD003A139001A1EFF0801A90019AE0FBA3E06C
:1026ED00FAA3E0F9E475F005120EBF80069001A182
:0926FD007403F09001A1E0FF223A
:101EB000900197EBF0A3EAF0A3E9F0E49001A4F01D
:101EC00090019AE0FBA3E0FAA3E0F9120E5C64052E
:101ED00045F0600302200E900197E0FBA3E0FAA317
:101EE000E0F9900001120DBD90019DF0A3E4F09087
:101EF0000002120DBDFF90019DE0F0A3E04FF0E065
:101F000004F0700690019DE004F0900003120DBDF6
:101F100090019FF0A3E4F0900004120DBDFF7E003D
:101F200090019FEEF0A3EFF0C39401EE94005003F4
:101F300002200ED3E0947D90019FE09400400302C4
:101F4000200E900197E0F9A3E0FAA3E09001A1C967
:101F5000F0A3EAF0A3E9F090019AE0FBA3E0FAA372
:101F6000E0F9E4F5F0120EBF9001A1E0FBA3E475E7
:101F7000F001120E46A9F0FA7403120DEA90019ACC
:101F8000E0FBA3E0FAA3E0F9E475F001120E8790FC
:101F9000019FA3E025E0FFA3E0FBA3E475F001129D
:101FA0000E46A9F0FAEF120DEA90019AE0FBA3E0C9
:101FB000FAA3E0F9E475F001120E879001A1E0FBAD
:101FC000A3E0FAA3E0F990019DE0FCA3E0FDA3E00B
:101FD000FFA3E09001AECFF0A3EFF0E4A3F012175F
:101FE000C3EF600A123A139001A4EFF0802690012B
:101FF000A0E025E0FF90019FE033FE90019AE0FB16
:10200000A3E0FAA3E0F9EE8FF0120E8780069001AC
:0A201000A47403F09001A4E0FF2285
:10139100900197EBF0A3EAF0A3E9F0E49001A8F043
:1013A10090019AE0FBA3E0FAA3E0F9120E5CC3946A
:1013B1000AE5F0940050030215B2900197E0FBA3F7
:1013C100E0FAA3E0F9900001120DBD90019DF0A398
:1013D100E4F0900002120DBDFF90019DE0F0A3E04A
:1013E1004FF0E004F0700690019DE004F0900003DE
:1013F100120DBD90019FF0A3E4F0900004120DBD09
:10140100FF90019FE0F0A3E04FF0900005120DBDA9
:101411009001A1F0A3E4F0900006120DBDFF900130
:10142100A1E0F0A3E04FF0E004F070069001A1E02C
:1014310004F0900007120DBD9001A3F0A3E4F09019
:101441000008120DBDFF9001A3E0F0A3E04FF09062
:101451000009120DBDFD90019FE0FEA3E0FFC394C2
:1014610001EE940050030215ACD3EF947DEE94008D
:1014710040030215AC9001A3E0FEA3E0FFC3940179
:10148100EE940050030215ACD3EF9479EE94004032
:10149100030215ACEF25E0FFEE33FEED6F7001EEB8
:1014A10060030215AC900197E0FBA3E0FAA3E024EE
:1014B1000AF9E43AFA9001A1E0FCA3E0FDA3E0FF00
:1014C100A3E09001AECFF0A3EFF0A37401F01217E7
:1014D100C3AD07ED600302159E900197E0F9A3E00B
:1014E100FAA3E09001A5C9F0A3EAF0A3E9F0900105
:1014F1009AE0FBA3E0FAA3E0F9E4F5F0120EBF9045
:1015010001A5E0FBA3E475F001120E46A9F0FA74FF
:1015110017120DEA90019AE0FBA3E0FAA3E0F9E4C7
:1015210075F001120E8790019FA3E025E0FF900165
:10153100A5E0FBA3E475F001120E46A9F0FAEF1243
:101541000DEA90019AE0FBA3E0FAA3E0F9E475F05B
:1015510001120E879001A5E0FBA3E0FAA3E0F99048
:10156100019DE0FCA3E0FDA3E0FFA3E09001AECF6D
:10157100F0A3EFF0E4A3F01217C3AD07ED701E90D6
:1015810001A0E025E0FF90019FE033FE90019AE089
:10159100FBA3E0FAA3E0F9EE8FF0120E87ED6011E4
:1015A100FF123A139001A8EFF080069001A874038E
:0715B100F09001A8E0FF2209
:1023E20090029BEBF0A3EAF0A3E9F09002A1E0FFD8
:1023F2009002A8E4F0A3EFF0EDAE047803CEC3138D
:10240200CE13D8F9FF9002A6EEF0A3EFF09002A649
:10241200E0FEA3E07803C333CE33CED8F9FFC3ED99
:102422009FFFEC9E9002A8E0FEA3E0A807088005AB
:10243200C333CE33CED8F9F0EE9002A8F09002A0CA
:10244200E0FF74017E00A807088005C333CE33CEB7
:10245200D8F924FFFFEE34FF9002A4F0A3EFF0A31B
:10246200A3E075F008A4FFC3ED9FFF9002A4E0FE75
:10247200A3E0A807088005C333CE33CED8F9F0EE27
:102482009002A4F090029BE0FBA3E0FAA3E0F99093
:1024920002A6E0FEA3E0F5828E83120DBDFF90023C
:1024A200A2E4F0A3EFF09002A7E02401FF9002A6BD
:1024B200E034008F82F583120DBDFE9002A2E04E41
:1024C200F0A3E0F0A3E0FEA3E0F4FFEEF4FE90023E
:1024D200A2E05EFEA3E05FFF9002A8E04EFEA3E052
:1024E2004FFF9002A2EEF0A3EFF09002A6E0FCA351
:1024F200E0FDF5828C83EF120DFC9002A2E08D824A
:062502008C83A3020DFC16
:1027DA009002AAEBF0A3EAF0A3E9F0EDAE047803C5
:1027EA00CEC313CE13D8F9FF9002B4EEF0A3EFF0E4
:1027FA009002B4E0FEA3E07803C333CE33CED8F917
:10280A00FFC3ED9FFFEC9E9002B6F0A3EFF090029B
:10281A00AFE0FF74017E00A807088005C333CE33FA
:10282A00CED8F924FFFFEE34FF9002B2F0A3EFF006
:10283A009002AAE0FBA3E0FAA3E0F99002B4E0FE5A
:10284A00A3E0F5828E83120DBDFF9002B0E4F0A3DF
:10285A00EFF09002B5E02401FF9002B4E034008F5B
:10286A0082F583120DBDFE9002B0E04EF0A3E0F0B7
:10287A009002B6A3E0FF9002B0E0FEA3E0A807082A
:10288A008005CEC313CE13D8F9FF9002B0EEF0A3A1
:10289A00EFF0A3E05EFEA3E05FFF9002B0EEF0A3CC
:0328AA00EFF0222A
:103A1300EF14600C24FA600C2407700CE4FE800A97
:0D3A23007E0280067E0680027E04AF062231
:101D4200900197EBF0A3EAF0A3E9F0E49001A4F08C
:101D520090019AE0FBA3E0FAA3E0F9120E5C64059D
:101D620045F06003021EA4900197E0FBA3E0FAA3F2
:101D7200E0F9900001120DBD90019DF0A3E4F090F6
:101D82000002120DBDFF90019DE0F0A3E04FF0E0D4
:101D920004F0700690019DE004F0900003120DBD66
:101DA20090019FF0A3E4F0900004120DBDFF90019A
:101DB2009FE0FEA3E04FFF90019FEEF0FEA3EFF045
:101DC200C39401EE94005003021EA4E0947D90019E
:101DD2009FE094004003021EA4900197E0F9A3E063
:101DE200FAA3E09001A1C9F0A3EAF0A3E9F09001FF
:101DF2009AE0FBA3E0FAA3E0F9E4F5F0120EBF903B
:101E020001A1E0FBA3E475F001120E46A9F0FA74F9
:101E120004120DEA90019AE0FBA3E0FAA3E0F9E4D0
:101E220075F001120E8790019FA3E025E0FFA3E069
:101E3200FBA3E475F001120E46A9F0FAEF120DEAC7
:101E420090019AE0FBA3E0FAA3E0F9E475F0011235
:101E52000E879001A1E0FBA3E0FAA3E0F990019DB7
:101E6200E0FCA3E0FDA3E0FFA3E09001AACFF0A372
:101E7200EFF0122706EF600A123A139001A4EFF076
:101E820080269001A0E025E0FF90019FE033FE90C4
:101E9200019AE0FBA3E0FAA3E0F9EE8FF0120E87BD
:0E1EA20080069001A47403F09001A4E0FF22DA
:1011F600EFD3940F40037FFF22746E2F2FF8E62063
:10120600E5F4C2AFE64430F6D2AFAE0CEEC39F5063
:10121600210E748D2EF8E6F908E618BE0F0274FF4B
:10122600FDED69600909E71919F7090980F3161632
:1012360080DAEED39F400405810581EED39F4022DC
:10124600748D2EF808E6F9EEB50C02A9811806068B
:10125600E6FDED6960091919E70909F71980F31E1A
:1012660080D9EF248DF8E604F8EF2F049039B8936F
:09127600F608EF2F93F67F002229
:10127F00EFD3940F40037FFF22EF23246EF8E63065
:10128F00E5F4C2AFE6548CF6D2AFE50CB5070A749D
:10129F008D2FF8E6F581021122502E748E2FF8E66D
:1012AF00BF0F0274FFFD18E6F9748D2FF8FBE6FCF3
:1012BF00E96C6008A805E7F61D1980F4A803A605D8
:1012CF001FE50CB507E37F0022748E2FF8E6FD189B
:1012DF0086010F748D2FF8A601088604E50CB5075B
:1012EF0002AC81ED6C60080D09A805E6F780F4E506
:0912FF000CB507DE89817F002295
:10130800EFD3940F40037FFF22EF23246EF8C2AF80
:10131800E630E50530E002D2E4D2E2C6D2AF7F0083
:0713280030E2010F02111F6A
:03132F00AF0C22DE
:101332008FF0E4FFFEE50C23246DF8C2A930F70D0F
:101342007F08E6600B2DF660325030800730F106E0
:10135200EDF660277E020830F010C2AFE610E725F6
:101362000E30E20CD2AF7F048014C2AFE610E71554
:1013720054EC4EF6D2AFD2A90211227F0808EF44F4
:0F13820083F4C2AF56C6D2AFD2A954804FFF2218
:102EBB000211BCE493A3F8E493A34003F68001F260
:102ECB0008DFF48029E493A3F85407240CC8C33318
:102EDB00C4540F4420C8834004F456800146F6DFE7
:102EEB00E4800B0102040810204080902508E47E4A
:102EFB00019360BCA3FF543F30E509541FFEE493DC
:102F0B00A360010ECF54C025E060A840B8E493A3A2
:102F1B00FAE493A3F8E493A3C8C582C8CAC583CACD
:102F2B00F0A3C8C582C8CAC583CADFE9DEE780BE85
:01260C0000CD
:100D8200C2D530F707B2D563F0FF05F030E70CB2F9
:100D9200D5F4048463F0FF05F080018430D502F4B9
:020DA200042229
:100DA400BB010689828A83E0225002E722BBFE024D
:090DB400E32289828A83E4932280
:100DBD00BB010CE58229F582E5833AF583E02250EB
:100DCD0006E92582F8E622BBFE06E92582F8E22235
:0D0DDD00E58229F582E5833AF583E493224F
:100DEA00BB010689828A83F0225002F722BBFE01E8
:020DFA00F322E2
:100DFC00F8BB010DE58229F582E5833AF583E8F02D
:100E0C00225006E92582C8F622BBFE05E92582C8D8
:020E1C00F222C0
:100E1E00EF8DF0A4A8F0CF8CF0A428CE8DF0A42EE8
:020E2E00FE22A2
:100E3000C5F0F8A3E028F0C5F0F8E582158270024D
:060E40001583E038F022EA
:100E4600A3F8E0C5F025F0F0E5821582700215835F
:060E5600E0C838F0E822BC
:100E5C00BB010A89828A83E0F5F0A3E02250068761
:100E6C00F009E71922BBFE07E3F5F009E319228923
:0B0E7C00828A83E493F5F07401932256
:100E8700BB010789828A83020E30500B09C5F02700
:100E9700F7C5F01937F722BBFE0D09F8E325F0F384
:100EA700C5F019E338F322F889828A837401932500
:080EB700F0C5F0F8E4933822C5
:100EBF00BB010A89828A83F0E5F0A3F0225006F77E
:0F0ECF0009A7F01922BBFE06F3E5F009F319227B
:100EDE0075F008758200EF2FFFEE33FECD33CDCCCB
:100EEE0033CCC58233C5829BED9AEC99E58298404E
:100EFE000CF582EE9BFEED9AFDEC99FC0FD5F0D62B
:100F0E00E4CEFBE4CDFAE4CCF9A88222B800C1B954
:100F1E000059BA002DEC8BF084CFCECDFCE5F0CB92
:100F2E00F97818EF2FFFEE33FEED33FDEC33FCEBCB
:100F3E0033FB10D703994004EB99FB0FD8E5E4F986
:100F4E00FA227818EF2FFFEE33FEED33FDEC33FC73
:100F5E00C933C910D7059BE99A4007EC9BFCE99A67
:100F6E00F90FD8E0E4C9FAE4CCFB2275F010EF2FAC
:100F7E00FFEE33FEED33FDCC33CCC833C810D707AC
:100F8E009BEC9AE899400AED9BFDEC9AFCE899F8E7
:0E0F9E000FD5F0DAE4CDFBE4CCFAE4C8F9227A
:100FAC00EB9FF5F0EA9E42F0E99D42F0E89C45F09B
:010FBC002212
:0C0FBD00ECF0A3EDF0A3EEF0A3EFF022A7
:100FC900A8828583F0D083D082120FE0120FE0123D
:100FD9000FE0120FE0E473E493A3C583C5F0C58362
:100FE900C8C582C8F0A3C583C5F0C583C8C582C872
:010FF90022D5
:100FFA00BB011A89828A83D0F0D0E0F8D0E0F9D018
:10100A00E0FAD0E0FBE8C0E0C0F002109C5016E91C
:10101A00F8D083D082D0E0F9D0E0FAD0E0FBC082E9
:10102A00C08302107CBBFE16E9F8D083D082D0E0E0
:0F103A00F9D0E0FAD0E0FBC082C0830210A522FB
:061049008A838982E47332
:10104F00EC8EF0A4CCC5F0CCCDF8EFA4CEC5F02D2E
:10105F00FDE43CFCE8A42EC8C5F03DFDE43CFCEFEC
:0D106F00A4FFE5F028FEE43DFDE43CFC227A
:100A1D00E540246BF582E43401F583E00540229036
:100A2D00016830500390016BE475F00112108502DE
:100A3D000DA42049E97F2ED2498018EF540F249040
:100A4D00D43440D4FF304D0BEF24BFB41A00500303
:100A5D002461FFE541600215410544E5447002053E
:100A6D004330500E900168E475F001121085EF02CD
:100A7D000DEA02336A7403D2508003E4C250F5408C
:100A8D0090016812109CE4F541F543F544E5416091
:100A9D00077F20120A6080F57542FFC24AC249C223
:100AAD004BC24CC24EC24FC251120A2CFF700D30B8
:100ABD0050057F00120A71AF44AE4322B4255FC2C8
:100ACD00D5C24D120A2CFF24D0B40A00501A75F06D
:100ADD000A784130D50508B6FF0106C6A426F620D2
:100AED00D5047002D24C80D924CFB41A00EF500433
:100AFD00C2E5D24D020C72D24A80C6D24980C0D214
:100B0D004B80BCD2D580BAD24E80B47F20120A6001
:100B1D00204B077401B5410040F1120A1DFF120A66
:100B2D0060020A9AD251D24F8095120A1DFB120A09
:100B3D001DFA120A1DF94A4B700679437A0D7BFF97
:100B4D00204B2EE541602A7E008E82758300120DAA
:100B5D00BD60060EEE654270F0C2D5EBC0E0EAC096
:100B6D00E0E9C0E0EE120CB9D0E0F9D0E0FAD0E047
:100B7D00FB120DA4FF60AAEBC0E0EAC0E0E9C0E003
:100B8D00120A60D0E02401F9D0E03400FAD0E0FB85
:100B9D00E5420460DCD542D980877BFF7A0C79B5BC
:100BAD00D24B809C791080027908C24FC2518008C7
:100BBD00D2D5790A8004790AC2D5E542047002F5CE
:100BCD0042E4FAFDFEFF120A1DFC7B08204A1312B7
:100BDD000A1DFD7B1030490A120A1DFE120A1DFF67
:100BED007B20EC3382D592D55013C3E43049069F58
:100BFD00FFE49EFEE4204A039DFDE49CFCE4CBF85B
:100C0D00C24AEC700CCFCECDCCE824F8F870F3804E
:100C1D0017C3EF33FFEE33FEED33FDEC33FCEB3357
:100C2D00FB994002FB0FD8E9EB304A05F8D0E0C440
:100C3D0048B24AC0E00AEC4D4E4F78207B0070C29E
:100C4D00EAB5420040BCC0E0120CBBD0F0D0E020B1
:100C5D004A04C4C0E0C4B24AC0F0120A49D0F0D56B
:100C6D00F0EB020A9A1210AE0B37530BB1580B086A
:100C7D004C0B04420BB54F0BBD440BBD490B1D4333
:080C8D000BC3550BA7460BA792
:100C9500450BA7470D63500B0C2D0B102E0B332B5B
:100CA5000B14230B31200D4C2A0ACC4800000B2BCA
:100CB5003F3F3F00790AA2D5204C14304E09B910A8
:100CC500020404B9080104A2D5204F0250010420F2
:100CD5004B68924BB541005034C0E07F20304C1931
:100CE5007F30A24B724F724E500F120D12C24BC283
:100CF5004FC24EC2517F30800F304E03E9C0E01223
:100D05000A60304E03D0E0F9D0E0B541CC304E1743
:100D15007F30B9100C120A607F58304D077F7880FC
:100D250003B90803120A60304B057F2D020A607F64
:100D3500202051F87F2B204FF322924B80CF286E35
:100D4500756C6C2900D24A120A1D304AF8C24A78DD
:100D55004130D50108F6020ACC2D50434958120AF4
:100D65001D2403B405004001E4900D5E93120A5161
:0D0D7500743A120A51D24C754104020BB1C0
:09107C00EBF608EAF608E9F62299
:10108500F8E0FBA3A3E0F925F0F0E58215827002F4
:071095001583E0FA38F02298
:09109C00EBF0A3EAF0A3E9F02255
:0910A500EBF208EAF208E9F2227C
:1010AE00D083D082F8E4937012740193700DA3A3D1
:1010BE0093F8740193F5828883E4737402936860E5
:0610CE00EFA3A3A380DFE5
:00000001FF
