:0239AB00314A9F
:0239AD002722CF
:0239AF0021876E
:0239B10030D60E
:0239B3000046CC
:0239B50032DC02
:0239B700355683
:0239BB00299E43
:0239BD002E30AA
:0239BF0022C91B
:0239C1000659A5
:0239C300333699
:0239C5002BB81D
:0239C70038CFF7
:0239C9003A8F33
:03000000022EC30A
:0C2EC300787FE4F6D8FD758191022F0A9B
:103A3F002A2A2D0073746172746564210A002A2A80
:0B3A4F00256328256429002A2A2E0088
:1025220042015F0001420146000142015C0000607D
:1025320030011505031E03060303280828140405A9
:10254200050501020C010000030138640B0B1A0A95
:102552000000000000000000000000000000000079
:102562005500AAC12BC1B74101480041011300C166
:1025720080C181C102C183C104C105C106C107C1B5
:1025820008C109C10AC10BC10CC10DC10EC10FC1E5
:1025920010C111C112C113C114C115C116C117C195
:1025A20018C1194101090041010A0041010B004112
:1025B200010C0041010D0041010E0041010F0041DB
:1025C2000110004201110000C11AC11BC11CC11D32
:0625D200C19EC11FC120E3
:10314A00121EB07F081211F67D0A7F021213327F17
:10315A000A1211F67D0A7F021213327F091211F642
:10316A007F011211F67D0A7F021213327F0D1211AE
:10317A00F67D0A7F021213327F0B1211F67D0A7F47
:10318A000212133212305F8000900145E0B46202ED
:10319A00E4F07F021211F67DFA7F021213327F04E5
:0F31AA001211F67D0A7F02121332E4FF02127F28
:101EB0001239E9E4900145F0C22EC221C222C223A8
:101EC000C224C225C226900191F0A3F0A3F0A3F092
:101ED000C227D233C22990015BF0C234900114F0C2
:101EE000D2357D647F021213327D647F0212133279
:101EF0007D647F021213327D647F021213329001DF
:101F0000B1120FC900000000E47F02FEFDFC900149
:101F1000B1E0F8A3E0F9A3E0FAA3E0FBC3120FAC31
:101F20005068E49001B0F09001B0E0FFC364809489
:101F300088500B74322FF8E4F6E004F080E9E49066
:101F400001B0F09001B0E0FFC3648094905019EFAD
:101F50003395E0FE744B2FF58274013EF583E4F077
:101F60009001B0E004F080DB9001B1E0FCA3E0FD63
:101F7000A3E0FEA3E02401FFE43EFEE43DFDE43CDB
:101F8000FC9001B1120FBD021F087F021237C17F02
:101F9000011236C4123753C22CE49001B0F0900104
:101FA000B0E0FFC3648094B05025EF3395E0FE129B
:101FB0003A5A9001B0E0FD3395E0FC74612DF58252
:101FC00074013CF583EFF09001B0E004F080CF7F26
:101FD000007E02123A5AEF7F00FEC006C0070F7E55
:101FE00002123A5AEFFDD0E02DFED0E0340090010D
:101FF00049F0A3CEF07402FFFE123A5AEF7F00FEC2
:10200000C006C0077F037E02123A5AEFFDD0E02DD2
:0D201000FED0E0340090015CF0A3CEF02281
:10305F007F031211F67D0A7F021213327F0512379A
:10306F00C17F061237C17F071237C17F0F1236C4D7
:10307F007F0E1211F67F121237C190016EE075F0BC
:10308F000AA4FD7F021213327F121236C4302409B4
:10309F007D027F0212133280F47F101237C190012C
:1030AF0072E075F00AA490015EF090014F745DF02C
:1030BF00E52A20E703745BF0E52BA2E2922A922D1A
:0730CF00C2337F020237C18A
:102187007D647F02121332E53930E7030222C81259
:10219700347A123753E52B30E005200102D236E5B9
:1021A7002B20E102D203E53930E7030222B6E52C02
:1021B70030E12D30E21020000DE52B20E008203320
:1021C7000512350F8013E52B30E00E20010BE52CAF
:1021D70020E20630270312391FE4FF1236C4802598
:1021E7007D0A7F02121332E52C20E111900145E0B0
:1021F7006005C3946440069001457411F0E4FF1232
:1022070037C112391F202C1DE52A30E6137D147FB4
:1022170002121332E52A30E60C7F041237C180051B
:102227007F041236C4E52A30E72120E56220E15F0A
:1022370030275C300359E52B30E1547F031237E830
:10224700404D7F031237C1C203804430271B300340
:1022570018E52B30E1137F031237E8400CE52C20FB
:10226700E4077F031237C1C203E52C30E4217F0363
:102277001237E8501A7F141237E84002800C900199
:102287007FE0B4010A7F141236C47F031236C4E517
:102297002A30E50A7F0612127F7F081236C4E52C22
:1022A700A2E29200E52B139201E52AA2E692027DB3
:1022B700027F0212133290014FE090018FF002214A
:0222C7008E2265
:1030D60012347A123753E53920E7603021057F0B29
:1030E6001237C13022057F0C1237C13023057F0D00
:1030F6001237C13024057F0E1237C17F02303305E7
:103106001237C1800A1236C47D147F021213327D33
:10311600327F021213327F0B1236C47F0C1236C472
:103126007F0D1236C47F0E1236C43033057F02126D
:1031360036C47D327F0212133280957D027F0212E1
:043146001332808C34
:10004600C23A12347A123753E53930E70302064FC3
:10005600202C03020625D22830350A900161E09053
:100066000148F0C23590014F7403F0E52A30E744A9
:100076007F031237E840127D027F0212133290018D
:1000860045E070EC74CBF080E7900145E0B4CB021C
:10009600E4F0E52C20E7127D027F02121332900174
:1000A60045E070EE747BF080E9900145E0647B707A
:1000B6007CF0807990014F7404F07D027F02121368
:1000C60032E52C30E70F30E00CE52A20E0077F13FD
:1000D6001237E8503CE52C20E709900145E0700313
:1000E600747BF0E52C20E009900145E07003747400
:1000F600F0E52A30E009900145E0700374BEF07F18
:10010600131237E850B4900145E070AE74DBF0800E
:10011600A9900145E0FF647B600EEF64746009EF0F
:1001260064BE6004EFB4DB05E4900145F0302A03B9
:100136000202EA7F0A1237C17F051236C47F061211
:1001460036C47F071236C47F051211F690014F742C
:1001560005F07F061211F67F0F1211F690014F740B
:1001660007F0E49001BEF0900163E0FF9001BEE06D
:10017600C39F502B7D0A7F02121332E52A20E31F0C
:10018600900145E070037467F0900175E060089097
:1001960001BEE0600214F09001BEE004F080C89059
:1001A6000145E0B46702E4F0E52B30E5057F101267
:1001B60037C1900163E0FFFD900191E4F0A3EDF0FB
:1001C6009001BEE0FD900193E4F0A3EDF0C39F40E3
:1001D600030202BA90014F7406F0E52A30E355C2D5
:1001E60030E49001BEF0900162E075F005A4FF9046
:1001F60001BEE0C39FE5F06480F874809850167DD8
:10020600027F02121332E52B30E402D2309001BE97
:10021600E004F080D17F051237C1203017D222903A
:100226000145E0FF6005C394644006900145740CE7
:10023600F012391F90014F7408F0E52A20E4127D70
:10024600027F02121332900145E070EE7468F0806E
:10025600E9900145E0B46802E4F0C231E49001BEE1
:10026600F0900166E075F005A4FF9001BEE0C39F23
:10027600E5F06480F874809850167D027F021213B0
:1002860032E52B30E502D2319001BEE004F080D198
:100296007F061237C1303103020330D22390014565
:1002A600E0FF6005C394644006900145740DF012AA
:1002B600391F80767F0F1237C17F051237C17F063F
:1002C6001237C1900164E075F00AA4FD7F02121393
:1002D600327F0F1236C4900165E075F00AA49001D2
:1002E6005BF08046C22A900145E07003746EF0E52B
:1002F6002A20E1347F081237C17F1C1237C1E490EF
:1003060001BEF0900176E0FF9001BEE0C39F500F62
:100316007D0A7F021213329001BEE004F080E47F72
:100326001C1236C4C23A8002D23A303A030204188A
:1003360090014F7409F0E52A20E5127D027F021232
:100346001332900145E070EE7469F080E990014542
:10035600E0FF64696004EFB46E05E4900145F07F48
:100366000612127F7F081236C4C232E49001BEF034
:10037600900167E0FF9001BEE0C39F50227D0A7F97
:1003860002121332E52B30E60ED232900170E07580
:10039600F00AA490015EF09001BEE004F080D17FE7
:1003A600071237C112375312347A203217D22490EB
:1003B6000145E0FF6005C394644006900145740E54
:1003C600F012391F90014F740AF012347AE52A3080
:1003D600E507E52C20E402802FE52C30E436E52AFB
:1003E60020E7317F031236C4E52C30E4127D027F0C
:1003F60002121332900145E070EE7478F080E990B5
:100406000145E0B47802E4F07F141237C112375385
:100416008002C23A90014F740DF0E52A20E70302EC
:1004260004C8E52A20E1097D027F0212133280F218
:10043600E52C30E437E52C30E4127D027F021213FE
:1004460032900145E070EE7478F080E990016BE03F
:100456009001BEF09001BEE0D3940040487D647FD9
:10046600021213329001BEE014F080E8E49001BE5F
:10047600F090016FE075F00A84FF9001BEE0C39F23
:10048600500F7D647F021213329001BEE004F080AB
:10049600E090016FE075F00A84E5F075F00AA4FDBE
:1004A6007F02121332900145E0B47802E4F07F0334
:1004B6001236C47F141236C4D2347F131236C402E5
:1004C600064F90014F740BF0E52A30E510E52C201D
:1004D600E40B900145E0B47816E4F080127D027FCB
:1004E60002121332900145E070DE7478F080D97FF5
:1004F600141237C11237537D027F021213327F0363
:100506001237E85012E52A30E10DE52C20E408E523
:100516002D20E4030205A37F031237E8500FE52AD6
:1005260030E10AE52C20E405E52D20E7707F031273
:1005360037E8400B900145E0700E74CBF0800990CF
:100546000145E0B4CB02E4F0E52A20E10B90014539
:10055600E0700E7465F08009900145E0B46502E430
:10056600F0E52C30E40B900145E0700E7478F080D5
:1005760009900145E0B47802E4F0E52D20E70F90FC
:100586000145E060030204FD7483F00204FD90015E
:1005960045E0648360030204FDF00204FD7F13124C
:1005A60037C1900145E0FF64CB600EEF64656009DA
:1005B600EF64786004EFB48305E4900145F09001A0
:1005C6004F740CF0E52A20E105E52B20E7307D028B
:1005D6007F02121332E52A30E10B900145E0700EDE
:1005E60074BFF08009900145E0B4BF02E4F0E52B4A
:1005F60020E7D1900145E070CB7473F080C67F137D
:100606001236C4900145E0FF64BF6004EFB4730581
:10061600E4900145F07F0C1211F6123753802AC27E
:1006260028C227C2337F021237C17F0612127F7F8C
:10063600081236C47F051237C17F061237C17F07FD
:100646001237C190014F7401F07D027F02121332FE
:0306560002004857
:10065900E53930E703020A1C900168E0700204F0F2
:1006690090016AE0700204F0E52D139204E52DA2D1
:10067900E19205A2E29206A2E39207A2E59208A2FC
:10068900E69209E52B339217E52AA2E19219A2E332
:1006990092127F031237E89214300417200D14E4E4
:1006A900900114F07F151236C47F181236C4E490F5
:1006B9000109F0300519200E16E490010AF07F15A2
:1006C9001237E840057F181236C47F191236C43034
:1006D9000705201002D234300D1A200417303414C3
:1006E900900174E0600E302C0B1237B77F1512376A
:1006F900C11236B8300657200F547F151237E8401B
:100709004D7F181237E840467F191237E8403F30CD
:10071900042B200528900179E090010AF07F181236
:1007290037C17F191237C130341390017CE0900131
:1007390014F0900179E0900109F01236B820040E06
:1007490030340B1237B77F151237C11236B8E52A84
:1007590030E72F30172C2016297F151237E8400E65
:100769007F181237E840077F191237E85014E490D0
:100779000114F07F151236C47F181236C47F19127E
:1007890036C430121520111230280F7F1A1237C1C2
:10079900900168E090010BF0C22B90010BE0600220
:1007A90014F0900180E0702690010BE0B401057F00
:1007B9001A1236C4301906201803202803302B3B9F
:1007C9007F1A1237C17F1B1237C1C22B802D9001AE
:1007D9000BE0B4010D7F1A1236C4900168E0900154
:1007E9000CF090010CE0600214F090010CE0B401EF
:1007F9000A7F1A1237C17F1B1237C190010DE060C1
:100809000214F090010DE0B401057F1B1236C420DB
:10081900140B301308900174E090010EF090010E52
:10082900E06401704A30043020052D900109E07020
:1008390027900179E090010AF07F181237C17F19DA
:100849001237C130342990017CE0900114F09001F5
:1008590079E0900109F080142004143034119001DA
:100869000AE0700B1237B77F151237C11236B890EC
:10087900010EE0600214F0A2149213A2129211A2C6
:10088900199218A234920CA204920DA205920EA2FA
:1008990006920FA2079210A217921690015BE060D0
:1008A9000914F07F091237C180057F091236C490F7
:1008B900015EE0600214F090015EE0B401057F1072
:1008C9001236C4900109E0600214F0900109E0B405
:1008D900010F7F181236C47F151236C4E490011433
:1008E900F090010AE0600214F090010AE0B4010AF4
:1008F9007F191236C47F181236C4900148E0600986
:1009090014F07F1F1237C180057F1F1236C4900172
:1009190014E0B401057F151237C1900114E060029B
:1009290014F0302C5190017DE0FF604A7E007C8CF0
:100939007DA0120E1E900111E475F001120E30FC1B
:10094900C3E5F09FEC9E402EE4900111F0A3F090D6
:10095900010FE07021A3E0701DD2157F1D1237C170
:100969007F1E1236C4E4900110F090017AE075F010
:100979000AA490010FF020154230081E200A1B7F9F
:100989001D1237C17F1E1236C4E4900110F0900188
:100999007AE075F00AA490010FF030091E200B1BB4
:1009A9007F1E1237C17F1D1236C4E490010FF090EB
:1009B900017BE075F00AA4900110F090010FE0604E
:1009C9000214F090010FE070257F1D1236C4301516
:1009D9001D7F1E1237C17F1D1236C4E490010FF02E
:1009E90090017BE075F00AA4900110F0C215900106
:1009F90010E0600214F0900110E070057F1E1236BD
:100A0900C4A208920AA209920B7D0A7F021213322C
:040A19000206592256
:1022C900E52CA2E3921C201C0302235B301D0302B0
:1022D900235B7F0A1237E84079E52A30E5097D0A50
:1022E9007F0212133280F27F0412127FD2297F12E9
:1022F9001237C17F051237C17F061237C17F071216
:1023090037C17F091236C47F0612127F7F08123641
:10231900C47F0F1236C47F031236C490016EE07574
:10232900F00AA4FD7F021213327F121236C4900103
:1023390045E0FF6005C394644006900145745AF076
:1023490012391FD22BE52BA2E2922A922D7F041279
:1023590011F6A21C921DE52C13921A301A030223BE
:10236900EE201B030223EE7F131237E84077E52A9C
:1023790030E5097D0A7F0212133280F27F041212BE
:102389007FD2297F121237C17F051237C17F06120A
:1023990037C17F071237C17F091236C47F0612126F
:1023A9007F7F081236C47F0F1236C47F031236C4EA
:1023B90090016EE075F00AA4FD7F021213327F12BC
:1023C9001236C4900145E0FF6005C394644006904D
:1023D90001457410F012391FE52BA2E2922A922DC1
:1023E9007F041211F6A21A921B7D057F0212133285
:0323F9000222C9F4
:10333600E49001C1F0900169E075F00A84FF900104
:10334600C1E0C39F500F7D647F021213329001C10A
:10335600E004F080E0900169E075F00A84E5F0751C
:10336600F00AA4FD7F021213327F031236C47F14C3
:103376001236C4C2277D647F02121332D2277F0C15
:0333860002127FB1
:102E3000E52A30E706A2E1923C8005E52B33923C7F
:102E4000303C72201E6F90014AE004F07006900141
:102E500049E004F0D23790015DE004F07006900183
:102E60005CE004F0D22E900177E075F064A4FFA33B
:102E7000E07C002FFFEC35F0FEC390015DE09F90F9
:102E8000015CE09E402FE4F0A3F07F111237C1E413
:102E90009001C2F0900171E0FF9001C2E0C39F5029
:102EA0000F7D647F021213329001C2E004F080E4CF
:102EB0007F111236C4A23C921E7D147F021213327F
:032EC000022E30AF
:1032DC00C22FE49001C3F0900161E075F005A4FFEA
:1032EC009001C3E0C39FE5F06480F8748098501699
:1032FC007D027F02121332E52B30E302D22F9001B4
:10330C00C3E004F080D17F0A1236C4202F17D221DB
:10331C00900145E0FF6005C394644006900145743C
:0A332C000BF012391F7F0502127F1B
:10355600E49001C5F090016CE0FF9001C5E0C39FC7
:1035660050147D647F02121332E52A20E10890018F
:10357600C5E004F080DF90016CE0FF9001C5E0C378
:103586009F40082029057F081237C17F0602127F57
:103A8F00E52B20E5097D027F0212133280F27F10B1
:083A9F001237C17F0F02127FF4
:1038CF00E52B20E614D2247D027F021213329001E1
:1038DF0045E070EC7472F080E7C224900145E0B4CB
:0938EF007202E4F07F0E02127F68
:10299E0012347A123753E53930E703022A4BE52C0D
:1029AE00A2E5923DA2E6923E202C03022A39900126
:1029BE00537401F0203D03303E0C7F161237C17D5B
:1029CE00017F02121332203D1130200E203E0B905B
:1029DE0001537403F07F161236C4203E58301F5533
:1029EE00203E52203D4F7F161236C4E49001C6F0B1
:1029FE00900173E0FF9001C6E0C39F50387F17121D
:102A0E0037C190016DE075F00AA4FD7F02121332FA
:102A1E007F171236C490016DE075F00AA4FD7F0297
:102A2E001213329001C6E004F080C57F161236C430
:102A3E007F171236C4A23E921FA23D92207D027FC6
:072A4E000212133202299E5F
:10272200E49001C8F07BFF7A3A7943120A881236A4
:10273200839001C8E014601614602014602B1460AA
:1027420046240460030227EFEFB406E2801EEF7016
:10275200028019EFB40602801F8025EFB4010280C7
:102762000BEFB4060280118017EF70089001C8E0E9
:1027720004F080BAEFB406089001C87401F080AE8C
:10278200E49001C8F080A7E49001C8F0EF75F00A68
:10279200A4900113F060303037947BFF7A3A794D80
:1027A200E52A30E2047F4280027F419001CCEFF0C3
:1027B200900149E0FFA3E09001CDCFF0A3EFF0122A
:1027C2000A88C2370227309001457461F012391F1E
:1027D2007BFF7A3A7956120A887F0412127F7D644F
:1027E2007F021213327F0212127F022730E490011D
:0527F200C8F0022730D1
:102BB800C23612347AE52A9001F230E205740BF03D
:102BC8008003740AF09001F7120FC900004B00E46B
:102BD8009001FBF09001F2E0FD7B02E4FF122C5E15
:102BE8009001F3EFF01239899001F3EFF01215B864
:102BF8007D027F021213323036F3900149E0FD7FE7
:102C0800007E02123A23900149A3E0FD7F017E0273
:102C1800123A2390015CE0FD7402FFFE123A239001
:102C2800015CA3E0FD7F037E02123A23E49001F2E7
:102C3800F09001F2E0FF7E002461F582E43401F5B2
:102C480083E0FD123A239001F2E004F0E0C39430EF
:062C580040DFC236809748
:10350F00E52C30E1417F011237C17F021236C47DB5
:10351F00037F02121332D22C7F041236C4202D0CDB
:10352F00C22A7F051236C47F061236C47F071236B1
:10353F00C4E4900145F0C221C222C223C224C22595
:07354F00C226D227C2292287
:10391F00302C20D2337F011236C4E4900114F07F93
:10392F00151236C47F181236C47F191236C41237D7
:04393F0053C22C2221
:0A37B700900179E0900109F07F18FD
:1037C100EF75F008120D822432F8C000E6FEEF75A5
:1037D100F008120D82AFF07401A807088002C3330C
:0737E100D8FC4ED000F622D7
:0C36B800C23490016AE090010DF07F1A0E
:1036C400EF75F008120D822432F8C000E6FEEF75A3
:1036D400F008120D82AFF07401A807088002C3330A
:0836E400D8FCF45ED000F622D0
:1037E800EF75F008120D822432F8E6FD7C00EF75C3
:1037F800F008120D82AFF074017E00A8070880055A
:10380800C333CE33CED8F9FFEE5CFEEF5D4E24FF16
:01381800228D
:1035D400EF75F008120D82FEC374079E2432F8E6DC
:1035E400FD7C00EF75F008120D82AFF0C374079FE5
:1035F400FF74017E00A807088005C333CE33CED8FC
:0B360400F9FFEE5CFEEF5D4E24FF229C
:1038A300EF75F008120D82FEC374079E242AF8C038
:1038B30000E6FEEF75F008120D82AFF07401A80761
:0C38C300088002C333D8FC4ED000F6226F
:10387600EF75F008120D82FEC374079E242AF8C065
:1038860000E6FEEF75F008120D82AFF07401A8078E
:0D389600088002C333D8FCF45ED000F62297
:10347A00C284C285D286D284A28692497F3F3049CD
:10348A00051238A380031238769001F4743EF09046
:10349A0001F4E0FFC3648094804020D285A2869222
:1034AA0049C2853049051238A380089001F4E0FF2B
:0C34BA001238769001F4E014F080D42267
:10375300C283C283E49001C9F09001C9E0FFC3644E
:103763008094C05018C2821235D45004D280800293
:10377300C280D282009001C9E004F080DCD283C20F
:023783008122A1
:1017C30090020AEBF0A3EAF0A3E9F0E4900212F02E
:1017D300C3ED9401EC940050030219BF900210E092
:1017E3002DFF90020FE03CFED3EF9445EE940040B2
:1017F300030219BF90015FE0FEA3E0FFC3ED9FFF6B
:10180300EC9EFE900211E01470030218F8046003CA
:101813000219C5D3900210E0940090020FE09400E7
:1018230050030219C5EF9404EE648094805025EFB1
:1018330025E02432F8E6FD90020AE0FBA3E475F00C
:1018430001120E46A9F0FAED120DEAEF25E024335A
:10185300F8E68076C3EF9434EE6480948050219050
:10186300020AE0FBA3E475F001120E46A9F0FAE4C4
:10187300120DEA745D2FF58274013EF583E0804A10
:10188300C3EF9443EE64809480502190020AE0FBFE
:10189300A3E475F001120E46A9F0FAE4120DEA74FE
:1018A300172FF58274013EF583E0801EEF64434EEB
:1018B300702D90020AE0FBA3E475F001120E46A915
:1018C300F0FAE4120DEA900145E0FD90020AE0FB14
:1018D300A3E475F001120E46A9F0FAED120DEA0F1A
:1018E300BF00010E900210E024FFF090020FE034DD
:1018F300FFF0021816302C030219B7D3900210E040
:10190300940090020FE0940050030219C5EF940471
:10191300EE64809480503A90020AE0FBA3E475F0F1
:1019230001120E46A9F0FA120DA4FDEF25E02432B0
:10193300F8A60590020AE0FBA3E475F001120E4637
:10194300A9F0FA120DA4FDEF25E02433F8A60580D3
:101953004DC3EF9434EE64809480504290020BE4C4
:1019630075F001120E3090020AE0FBA3E475F0015A
:10197300120E46A9F0FA120DA4FD745D2FF58274C0
:10198300013EF583EDF0EF64304E7006900149F0AF
:10199300A3F0EF64314E700690018E7455F00FBFC3
:1019A30000010E900210E024FFF090020FE034FFDC
:1019B300F00218FE9002127402F080069002127474
:0819C30001F0900212E0FF2286
:1027F700900206EBF0A3EAF0A3E9F0E490020DF0F3
:10280700C3ED9401EC940050030228BF90020CE042
:102817002DFF90020BE03CFED3EF9406EE940040B0
:10282700030228BF900146E0FEA3E0FFC3ED9FFF30
:10283700EC9EAD07FCD390020CE0940090020BE0F5
:102847009400407AED64044C7020900149E0FF90B9
:102857000206E0FBA3E475F001120E46A9F0FAEFB9
:10286700120DEA900149A3E08023ED25E0242AF820
:10287700E6FF900206E0FBA3E475F001120E46A9FD
:10288700F0FAEF120DEAED25E0242BF8E6FF9002AF
:1028970006E0FBA3E475F001120E46A9F0FAEF1269
:1028A7000DEA0DBD00010C90020CE024FFF0900230
:1028B7000BE034FFF002283C90020D7401F0900207
:0428C7000DE0FF22FF
:03000B000210D907
:1010D400C2AF80FE321210D885D00B75D008FAC288
:1010E4008CE58A2407F58AE58C34B8F58CD28CEC2F
:1010F4002483F8E6BC0F0274FFC39581B414004046
:10110400CF7910786216E608700BC2AFE630E103BF
:101114004418F6D2AF08D9EDEA8BD0D24E22E50CB2
:10112400FF232463F80F0808EFB50C06104E0343A1
:101134008701BF10047F007863E630E4E800E50C23
:10114400C39F5020050C7482250CF8E6FDA6810887
:10115400E6AE0CBE0F0274FFCDF8E86D60E008E661
:10116400C0E080F6E50CD39F4027E50C2483F8E625
:10117400AE0CBE0F0274FFFD18E6CDF8E5816D607C
:1011840006D0E0F61880F5E50C2482C8F6150C802C
:10119400D3E50C232463F87F04C2AFE630E00310E8
:1011A400E20C7F0030E10730E3047F0854F4C2E727
:1011B400C6D2AF54804207227882A681740F60069B
:1011C400FF0876FFDFFB7F10E47862F608F608DF9D
:1011D400FA786376309039AB740193C0E0E493C03D
:1011E400E0438901758A00758CB8D28CD2AFD2A93C
:0211F400220FC8
:0825D800410291FF41028EFF58
:10372000204C2FC2AC204B09204D06D24B8F9980E4
:103730001F900292E0FE04F0EE541F2442F8A60708
:1037400090028FE0FF900292E06F541F7002D24C03
:03375000D2AC22D6
:103389009001F1EFF0BF0A21304C1912132F90026E
:1033990091EFF0E4FBFAFD7F011213329002917470
:1033A900FFF080E47F0D123720304C1912132F9053
:1033B9000291EFF0E4FBFAFD7F01121332900291C2
:1033C90074FFF080E49001F1E0FF1237209001F1E1
:0333D900E0FF22F0
:1036830090028DE0FF900290E0B5071912132F907E
:10369300028EEFF0E4FBFAFD7F0112133290028EEB
:1036A30074FFF080DB90028DE0FF04F0EF540724F9
:0536B3003AF8E6FF22D9
:03002300022D9A11
:102D9A00C0E0C0F0C083C082C0D075D010C24A3033
:102DAA009844AF99C298EF24EF600824FE700CD2C1
:102DBA004D8033A24D924AC24D802B90028DE02461
:102DCA0008FDE433FC900290E06D7001EC600CE0C9
:102DDA00FE04F0EE5407243AF8A61790028EE0FF9C
:102DEA00F46003121308209903304A2FC299900203
:102DFA0092E0FF90028FE06F601F204D1EE0FF04FB
:102E0A00F0EF541F2442F8E6F599C24C900291E083
:102E1A00FFF460071213088002C24BD0D0D082D0D0
:062E2A0083D0F0D0E0327D
:1039E90053877F759850538EBF538EFE53890F436B
:0D39F9008920758BD0758DD0C2ABD28E2287
:1039430000C2A40000000000000000D2A500000097
:1039530000D2A400000000C2A500000000C2A40021
:04396300000000223E
:1039CB0000C2A400000000C2A500000000D2A400A9
:0E39DB00000000D2A500000000000000002245
:103A75000000000000C2A400000000C2A500000074
:0A3A850000D2A400000000C2A42239
:1038480012394344A0FF1238F8123859AF0512381C
:01385800F877
:10385900D2A500C2A40000000000000000D2A4000C
:0D386900000000A2A5E433FF0000C2A4226D
:10396700D2A500E4FEEF25E0FFD2A400000000A2EC
:10397700A5E4334FFF00000000C2A40EEEB408E533
:0239870000221C
:1038F80000E4FEEF30E704D2A58002C2A500000074
:1039080000D2A400000000C2A400000000EF25E0DF
:07391800FF0EEEB408DD22F2
:1034C600AC07C2B6EC25E0FC123848123943EC448E
:1034D600A1FF1238F81238599001BBE06401601957
:1034E600123967EF120DEA123A75740129F9E43AB6
:1034F600FA9001BBE014F080DF123967EF120DEA93
:093506001238591239CBD2B62259
:10359600C2B6EF25E0FF1238489001FAE060191232
:1035A6000DA4FF1238F8123859740129F9E43AFAD1
:1035B6009001FAE014F080E11239CBE4FFFE00003E
:0E35C6000FBF00010EBE5DF6BFC0F3D2B622ED
:103A5A00AD07AC06ECFF7B017A0179B59001BB7426
:0B3A6A0001F01234C69001B5E0FF220D
:103A23009001F4EDF0AB07AA06EAFFAD037B017A40
:0C3A33000179F49001FA7401F00235965C
:1025E00041026F026040022804FF1D4203FF201DCC
:1025F00010FF262906FF2F4F17FF13910000000040
:1026000000000000000000000000000000000000CA
:1026100000000000000000000000000000000000BA
:082620000000000000000000B2
:102C5E009001F4EFF0AE03E49001FCF0ED600BC3D5
:102C6E0094014006EDD394F740089001FC7402F0F5
:102C7E00807B900224EDF09001F4E0704A900225E2
:102C8E0074FFF0A3743AF0A374A7F090021EE4F060
:102C9E00A3F0A3F0AF06AD07C0059001F7E0FCA3CB
:102CAE00E0FDA3E0FEA3E0FF9001FF120FBD900137
:102CBE00FBE0900203F0900224E0FFD005123223D5
:102CCE009001FCEFF080069001FC7402F09001FC84
:102CDE00E0701A120003EF70089001FC7403F0808C
:102CEE000C9001F4E090026EF0A37401F09001FCE0
:032CFE00E0FF22D2
:101BCB00900293EBF0A3EAF0A3E9F0AD07E4C39D19
:101BDB004003021D36ED947F4003021D36C2AF90C9
:101BEB000293E0FBA3E0FAA3E04A4B7003021CBF95
:101BFB00E4A3F0A3F0900296E0FEA3E0FFC39410E1
:101C0B00EE648094804003021CA6EF7802C333CEAF
:101C1B0033CED8F9FF2429F58274023EF583E0FB1D
:101C2B00A3E0FAA3E04A4B603674292FF5827402C5
:101C3B003EF583E0FBA3E0FAA3E0F9C003C002C0CA
:101C4B0001900293E0FBA3E0FAA3E0F9D082D083EA
:101C5B00D0E06B7008E965827003EA6583702B74C2
:101C6B00282FF58274023EF583EDF0900293E0FB92
:101C7B00A3E0FAA3E0F974292FF58274023EF583F1
:101C8B00EBF0A3EAF0A3E9F08011900297E004F0E7
:101C9B007006900296E004F0021C00900296E07031
:101CAB0004A3E0641060047F0080027F049002981C
:101CBB00EFF08073E4900296F0A3F0900296E0FEB2
:101CCB00A3E0FFC39410EE648094805055EF78022C
:101CDB00C333CE33CED8F92428F58274023EF58374
:101CEB00E0B5052E900296E0FEA3E07802C333CE5A
:101CFB0033CED8F9FF2428F58274023EF583E4F045
:101D0B0074292FF58274023EF583E4F0A3F0A3F05F
:101D1B008010900297E004F070A1900296E004F01E
:101D2B008099E4900298F0D2AF80069002987402EA
:071D3B00F0900298E0FF2286
:10378500E490029DF090026FE0B4011A90021EE0F1
:10379500FBA3E0FAA3E04A4B601290021EA3A3E04C
:1037A500F9121049800690029D7406F090029DE082
:0237B500FF22F1
:10398900E49001F4F090026FE0B4010A120026E419
:1039990090026FF080069001F47406F09001F4E053
:0239A900FF22FB
:1036EC0090026FE07014900225A3E0FAA3E0F912A7
:1036FC00104990026F7401F0800790026FE0B401E2
:10370C0007E490029EF0800690029E7406F09002F0
:04371C009EE0FF220A
:1015B800E49001F6F090026FE060037F06227B0161
:1015C8007A0179F712000EEF640160030217C090E8
:1015D80001F7E024FE604E0460030217C09001FB8F
:1015E8007401F0A37402F0A37416F0A37401F0A3BD
:1015F8007402F0A3741BF07B017A027919122B0C88
:101608009001F6EFF060030217C0900224E0FF900B
:101618000219E0FE6F6006EE60030217C07F021237
:101628003AC20217C0900216E0FBA3E0FAA3E0F961
:10163800120DA490021AF090021D7401F0E49001BA
:10164800F4F0A3F09001F4E0FEA3E0FFC39410EEE1
:1016580064809480400302174DEF7802C333CE3381
:10166800CED8F92428F58274023EF583E0FF700392
:1016780002174D90021AE0FE6F600302173CEE2439
:10168800FD603424FD606C24F6604A24F97003027E
:1016980017192413600302174D9001FB7401F0A37E
:1016A8007402F0A3741BF0900216E0FBA3E0FAA307
:1016B800E0F9121D4280769001FB7401F0A37402D8
:1016C800F0A3741BF0900216E0FBA3E0FAA3E0F984
:1016D80012201D80589001FB7401F0A37402F0A33E
:1016E800741BF0900216E0FBA3E0FAA3E0F91226BF
:1016F80029803A9001FB7401F0A37402F0A3741BD3
:10170800F0900216E0FBA3E0FAA3E0F9122F4F8055
:101718001C9001FB7401F0A37402F0A3741BF090F9
:101728000216E0FBA3E0FAA3E0F912139190021D60
:10173800EFF080119001F5E004F070069001F4E0FC
:1017480004F002164C900219E0606D90021DE0FF53
:10175800603FE490021BF0A3F090021AE04480FE80
:10176800900216E0FBA3E0FAA3E0F990021BE475EF
:10177800F001120E4685F082F583EE120DFC900200
:101788001BE475F001120E4685F082F583EF120D09
:10179800FC900224E0FF900216E0FBA3E0FAA3E02D
:1017A800F990021BE0FDA3E09001FCCDF0A3EDF061
:0B17B800122A559001F6EFF07F00228E
:1019CB0000C1814001C0804101C0804100C1814004
:1019DB0001C0804100C1814000C1814001C08041F4
:1019EB0001C0804100C1814000C1814001C08041E4
:1019FB0000C1814001C0804101C0804100C18140D4
:101A0B0001C0804100C1814000C1814001C08041C3
:101A1B0000C1814001C0804101C0804100C18140B3
:101A2B0000C1814001C0804101C0804100C18140A3
:101A3B0001C0804100C1814000C1814001C0804193
:101A4B0001C0804100C1814000C1814001C0804183
:101A5B0000C1814001C0804101C0804100C1814073
:101A6B0000C1814001C0804101C0804100C1814063
:101A7B0001C0804100C1814000C1814001C0804153
:101A8B0000C1814001C0804101C0804100C1814043
:101A9B0001C0804100C1814000C1814001C0804133
:101AAB0001C0804100C1814000C1814001C0804123
:101ABB0000C1814001C0804101C0804100C1814013
:101ACB0000C0C101C30302C2C60607C705C5C404D3
:101ADB00CC0C0DCD0FCFCE0E0ACACB0BC90908C843
:101AEB00D81819D91BDBDA1A1EDEDF1FDD1D1CDC33
:101AFB0014D4D515D71716D6D21213D311D1D010A3
:101B0B00F03031F133F3F23236F6F737F53534F492
:101B1B003CFCFD3DFF3F3EFEFA3A3BFB39F9F83802
:101B2B0028E8E929EB2B2AEAEE2E2FEF2DEDEC2CF2
:101B3B00E42425E527E7E62622E2E323E12120E062
:101B4B00A06061A163A3A26266A6A767A56564A452
:101B5B006CACAD6DAF6F6EAEAA6A6BAB69A9A868C2
:101B6B0078B8B979BB7B7ABABE7E7FBF7DBDBC7CB2
:101B7B00B47475B577B7B67672B2B373B17170B022
:101B8B005090915193535292965657975595945412
:101B9B009C5C5D9D5F9F9E5E5A9A9B5B9959589882
:101BAB00884849894B8B8A4A4E8E8F4F8D4D4C8C72
:101BBB0044848545874746868242438341818040E2
:10328100900203EBF0A3EAF0A3E9F0A3ECF0A3EDC5
:10329100F07FFF7DFF90020674FFF5F0120E4645A8
:1032A100F06033900203E0FBA3E475F001120E46D7
:1032B100A9F0FA120DA46DFB7A0024CBF582EA3451
:1032C10019F583E4936FFD74CB2BF582EA341AF57B
:0B32D10083E493FF80BFEFFEEDFF22BF
:10322300E4900204F0C2AFAF05C0079001FFE0FCD9
:10323300A3E0FDA3E0FEA3E0FF900206120FBD9002
:10324300020A7408F0900203E090020BF0D0071218
:103253002D01EF6401600280129001FFA3A3E0FE41
:10326300A3E0FF12342DEF6401600690020474039F
:0E327300F0D2AFE4900000F0900204E0FF22E1
:10002600C2AFE4900001F0FD7F01123819123AB513
:03003600D2AF2224
:0E3AA700C2AFE4FDFF123819123ACED2AF22A0
:102B0C009001F8EBF0A3EAF0A3E9F0E4900201F0F5
:102B1C00A3F0C2AFC3900003E09404900002E094D1
:102B2C000040667B017A007904E0FCA3E0FD1232E0
:102B3C0081EF4E7054900004E0FF9001F8E0FBA38D
:102B4C00E0FAA3E0F9EF120DEA900003E024FDFF98
:102B5C00900002E034FFF99001FEE0FBA3E0FAA341
:102B6C00E0C98FF0120EBF7B017A007905C003C05B
:102B7C0002C0019001FBE0FBA3E0FAA3E0F9120F05
:102B8C00FA9002017401F0801B7B017A00790490A9
:102B9C000002E0FCA3E0FD123281EF4E60069002D1
:0C2BAC00027405F0D2AF900202E0FF229C
:102A5500E49001FEF0C2AF900001E0640160030262
:102A65002AFEE924FFF9EA34FFFA900106EBF0A308
:102A7500EAF0A3E9F0900104E4F0A304F090010664
:102A8500E0FBA3E0FAA3E0F9EF120DEA9001FCE008
:102A9500FEA3E0FF900105E02FF0900104E03EF079
:102AA500900106E0FBA3E0FAA3E0F9900104E0FC45
:102AB500A3E0FD123281900104E475F001120E4687
:102AC500FA740425F0F58274003AF583EFF0EEFF11
:102AD500900104E475F001120E46FC740425F0F52E
:102AE5008274003CF583EFF09000007401F0FDE482
:102AF500FF1238191231B980069001FE7405F0D223
:072B0500AF9001FEE0FF228A
:102FDB00E4900214F07B017A027915123AD7900033
:102FEB0001E014600C1460351460042403705F80DE
:102FFB005AE4900002F0A3F0900215E0FF9000025B
:10300B00E475F001120E46FC740425F0F582740091
:10301B003CF583EFF09000017402F0802EC390001A
:10302B0002E09401501F900215E0FF900002E4753E
:10303B00F001120E46FC740425F0F58274003CF589
:10304B0083EFF080069000017403F0123AB5900202
:04305B0014E0FF225C
:1031B900E4900214F0900000E014600C047055E4EF
:1031C900FD7F01123819804C900104E07002A3E0E0
:1031D900602C900106E0FBA3E0FAA3E0F9120DA42C
:1031E900FF12003E900107E475F001120E309001C4
:1031F90005E024FFF0900104E034FFF080167F031E
:10320900123AC2900214EFF0E4FD7F01123819E47A
:0A321900900000F0900214E0FF2284
:10364A00E4900213F0900001E024FE601314601A63
:10365A0024037016E4FF123AC2900213EFF0800AB4
:10366A007F01123AC2900213EFF0123ACE90000193
:09367A007401F0900213E0FF223C
:10342D00EF4E602BEF25E0FFEE33FE7C007D0C129E
:10343D00104FA804A905AA06AB077F007E807D83E7
:10344D007C65120F1A900299EEF0A3EFF08007E45D
:10345D00900299F0A3F0E4F5D8F5D975DA48900209
:0D346D0099E0FEA3E0F5EAEEF5FA7F0122FA
:0D3AB500E4F5D875DA49F5E9F5F9D2DE221D
:093ACE00C2DE75DA48E4F5D822E5
:03003B0002360F7B
:10360F00C0E0C0F0C083C082C0D075D000C000C081
:10361F0001C002C003C004C005C006C00712364A6D
:10362F00D007D006D005D004D003D002D001D000EF
:0B363F00D0D0D082D083D0F0D0E03299
:0100220022BB
:08000300E490029BF07F012252
:0C3AC20090029B7401F0A3EFF07F012242
:10000E00E4FF90029BE0600BA3E0120DEAE4900285
:04001E009BF00F2222
:10381900EF6007ED6004D2908015EF700AED600744
:10382900D290539AEF800BEF600CED7009C2904370
:0F3839009A1043AF0122C290539AEF53AFFE2271
:102D0100900205EFF07F007EC27D017C00A3E0F818
:102D1100A3E0F9A3E0FAA3E0FBD3120FAC5016E451
:102D21007F807E25FDFC900206E0F8A3A3A3E0C30B
:102D3100120FAC500A900206120FC900004B00900E
:102D41000206E0F8A3E0F9A3E0FAA3E0FB7F007E2E
:102D5100807D517C01120F1AE47B20FAF9F8120FE1
:102D61001AEFF404F59C900205E0B4011553877F36
:102D7100759850438E04438E01438E10C29CC2ACA1
:102D81008012538EF7759A50438E04438E10539AD6
:092D9100EF53AFFEC2907F012256
:05003E008F9B7F0122F1
:083AD700E59B120DEA7F0122BC
:033ADF000231B9F8
:033AE200022FDBD5
:030043000233DCA9
:1033DC00C0E0C0F0C083C082C0D075D000C000C0B7
:1033EC0001C002C003C004C005C006C007E59A3086
:1033FC00E006539AFE123AE2E59A30E109539AFD3F
:10340C00309003123ADFD007D006D005D004D00399
:10341C00D002D001D000D0D0D082D083D0F0D0E078
:01342C00326D
:0100390022A4
:102F4F009001F8EBF0A3EAF0A3E9F0E4900200F0AF
:102F5F009001FBE0FBA3E0FAA3E0F9120E5C64051D
:102F6F0045F0705C9001F8E0FBA3E0FAA3E0F99064
:102F7F000001120DBD9001FEF0A3E4F090000212CB
:102F8F000DBDFF9001FEE0F0A3E04FF0E004F07004
:102F9F00069001FEE004F0E92403F9E43AFA900107
:102FAF00FEE0FCA3E0FD90020FE4F0A304F0A3F019
:102FBF001217C3EF6010123A06900200EFF080066E
:0C2FCF009002007403F0900200E0FF226A
:102629009001F8EBF0A3EAF0A3E9F0E4900202F0DC
:102639009001FBE0FBA3E0FAA3E0F9120E5CC3945E
:1026490006E5F0940050030227169001F8E0FBA379
:10265900E0FAA3E0F9900001120DBD9001FEF0A38C
:10266900E4F0900002120DBDFF9001FEE0F0A3E03E
:102679004FF0E004F070069001FEE004F0900003D2
:10268900120DBD900200F0A3E4F0900004120DBDFC
:10269900FF900200E0F0A3E04FF0900005120DBD9D
:1026A900FF900200E0FCA3E0FDC39401EC9400401C
:1026B9005CD3ED9478EC94005053ED25E06F704DA8
:1026C9009001F8E0FBA3E0FAA3E02406F9E43AFA62
:1026D9009001FEE0FCA3E0FDA3E0FFA3E090020F60
:1026E900CFF0A3EFF0A37401F01217C3EF600A1241
:1026F9003A06900202EFF0801A9001FBE0FBA3E09A
:10270900FAA3E0F9E475F005120EBF800690020203
:092719007403F0900202E0FF22BB
:10201D009001F8EBF0A3EAF0A3E9F0E4900205F0EB
:10202D009001FBE0FBA3E0FAA3E0F9120E5C64055E
:10203D0045F0600302217B9001F8E0FBA3E0FAA3D9
:10204D00E0F9900001120DBD9001FEF0A3E4F090B7
:10205D000002120DBDFF9001FEE0F0A3E04FF0E095
:10206D0004F070069001FEE004F0900003120DBD27
:10207D00900200F0A3E4F0900004120DBDFF7E006D
:10208D00900200EEF0A3EFF0C39401EE9400500324
:10209D0002217BD3E0947D900200E0940040030286
:1020AD00217B9001F8E0F9A3E0FAA3E0900202C9C8
:1020BD00F0A3EAF0A3E9F09001FBE0FBA3E0FAA3A3
:1020CD00E0F9E4F5F0120EBF900202E0FBA3E47517
:1020DD00F001120E46A9F0FA7403120DEA9001FBFD
:1020ED00E0FBA3E0FAA3E0F9E475F001120E87908E
:1020FD000200A3E025E0FFA3E0FBA3E475F00112CD
:10210D000E46A9F0FAEF120DEA9001FBE0FBA3E0F9
:10211D00FAA3E0F9E475F001120E87900202E0FBDC
:10212D00A3E0FAA3E0F99001FEE0FCA3E0FDA3E03B
:10213D00FFA3E090020FCFF0A3EFF0E4A3F012178E
:10214D00C3EF600A123A06900205EFF08026900266
:10215D0001E025E0FF900200E033FE9001FBE0FB83
:10216D00A3E0FAA3E0F9EE8FF0120E87800690023D
:0A217D00057403F0900205E0FF2254
:101391009001F8EBF0A3EAF0A3E9F0E4900209F080
:1013A1009001FBE0FBA3E0FAA3E0F9120E5CC39409
:1013B1000AE5F0940050030215B29001F8E0FBA396
:1013C100E0FAA3E0F9900001120DBD9001FEF0A337
:1013D100E4F0900002120DBDFF9001FEE0F0A3E0E9
:1013E1004FF0E004F070069001FEE004F09000037D
:1013F100120DBD900200F0A3E4F0900004120DBDA7
:10140100FF900200E0F0A3E04FF0900005120DBD47
:10141100900202F0A3E4F0900006120DBDFF9002CD
:1014210002E0F0A3E04FF0E004F07006900202E069
:1014310004F0900007120DBD900204F0A3E4F090B7
:101441000008120DBDFF900204E0F0A3E04FF09000
:101451000009120DBDFD900200E0FEA3E0FFC39460
:1014610001EE940050030215ACD3EF947DEE94008D
:1014710040030215AC900204E0FEA3E0FFC3940117
:10148100EE940050030215ACD3EF9479EE94004032
:10149100030215ACEF25E0FFEE33FEED6F7001EEB8
:1014A10060030215AC9001F8E0FBA3E0FAA3E0248D
:1014B1000AF9E43AFA900202E0FCA3E0FDA3E0FF9E
:1014C100A3E090020FCFF0A3EFF0A37401F0121785
:1014D100C3AD07ED600302159E9001F8E0F9A3E0AA
:1014E100FAA3E0900206C9F0A3EAF0A3E9F09001A3
:1014F100FBE0FBA3E0FAA3E0F9E4F5F0120EBF90E4
:101501000206E0FBA3E475F001120E46A9F0FA749D
:1015110017120DEA9001FBE0FBA3E0FAA3E0F9E466
:1015210075F001120E87900200A3E025E0FF900202
:1015310006E0FBA3E475F001120E46A9F0FAEF12E2
:101541000DEA9001FBE0FBA3E0FAA3E0F9E475F0FA
:1015510001120E87900206E0FBA3E0FAA3E0F990E6
:1015610001FEE0FCA3E0FDA3E0FFA3E090020FCFAA
:10157100F0A3EFF0E4A3F01217C3AD07ED701E90D6
:101581000201E025E0FF900200E033FE9001FBE064
:10159100FBA3E0FAA3E0F9EE8FF0120E87ED6011E4
:1015A100FF123A06900209EFF080069002097403D7
:0715B100F0900209E0FF22A7
:1023FC00900270EBF0A3EAF0A3E9F0900276E0FF14
:10240C0090027DE4F0A3EFF0EDAE047803CEC3139D
:10241C00CE13D8F9FF90027BEEF0A3EFF090027B85
:10242C00E0FEA3E07803C333CE33CED8F9FFC3ED7F
:10243C009FFFEC9E90027DE0FEA3E0A807088005BC
:10244C00C333CE33CED8F9F0EE90027DF090027506
:10245C00E0FF74017E00A807088005C333CE33CE9D
:10246C00D8F924FFFFEE34FF900279F0A3EFF0A32C
:10247C00A3E075F008A4FFC3ED9FFF900279E0FE86
:10248C00A3E0A807088005C333CE33CED8F9F0EE0D
:10249C00900279F0900270E0FBA3E0FAA3E0F990CF
:1024AC00027BE0FEA3E0F5828E83120DBDFF90024D
:1024BC0077E4F0A3EFF090027CE02401FF90027B24
:1024CC00E034008F82F583120DBDFE900277E04E52
:1024DC00F0A3E0F0A3E0FEA3E0F4FFEEF4FE900224
:1024EC0077E05EFEA3E05FFF90027DE04EFEA3E08E
:1024FC004FFF900277EEF0A3EFF090027BE0FCA38D
:10250C00E0FDF5828C83EF120DFC900277E08D825A
:06251C008C83A3020DFCFC
:1028CB0090027FEBF0A3EAF0A3E9F0EDAE047803FE
:1028DB00CEC313CE13D8F9FF900289EEF0A3EFF01D
:1028EB00900289E0FEA3E07803C333CE33CED8F950
:1028FB00FFC3ED9FFFEC9E90028BF0A3EFF09002D5
:10290B0084E0FF74017E00A807088005C333CE3333
:10291B00CED8F924FFFFEE34FF900287F0A3EFF03F
:10292B0090027FE0FBA3E0FAA3E0F9900289E0FEBE
:10293B00A3E0F5828E83120DBDFF900285E4F0A318
:10294B00EFF090028AE02401FF900289E034008FBF
:10295B0082F583120DBDFE900285E04EF0A3E0F0F0
:10296B0090028BA3E0FF900285E0FEA3E0A807088E
:10297B008005CEC313CE13D8F9FF900285EEF0A3DA
:10298B00EFF0A3E05EFEA3E05FFF900285EEF0A305
:03299B00EFF02238
:103A0600EF14600C24FA600C2407700CE4FE800AA4
:0D3A16007E0280067E0680027E04AF06223E
:101D42009001F8EBF0A3EAF0A3E9F0E4900205F0C9
:101D52009001FBE0FBA3E0FAA3E0F9120E5C64053C
:101D620045F06003021EA49001F8E0FBA3E0FAA391
:101D7200E0F9900001120DBD9001FEF0A3E4F09095
:101D82000002120DBDFF9001FEE0F0A3E04FF0E073
:101D920004F070069001FEE004F0900003120DBD05
:101DA200900200F0A3E4F0900004120DBDFF900237
:101DB20000E0FEA3E04FFF900200EEF0FEA3EFF082
:101DC200C39401EE94005003021EA4E0947D90029D
:101DD20000E094004003021EA49001F8E0F9A3E0A1
:101DE200FAA3E0900202C9F0A3EAF0A3E9F090019D
:101DF200FBE0FBA3E0FAA3E0F9E4F5F0120EBF90DA
:101E02000202E0FBA3E475F001120E46A9F0FA7497
:101E120004120DEA9001FBE0FBA3E0FAA3E0F9E46F
:101E220075F001120E87900200A3E025E0FFA3E007
:101E3200FBA3E475F001120E46A9F0FAEF120DEAC7
:101E42009001FBE0FBA3E0FAA3E0F9E475F00112D4
:101E52000E87900202E0FBA3E0FAA3E0F99001FEF4
:101E6200E0FCA3E0FDA3E0FFA3E090020BCFF0A310
:101E7200EFF01227F7EF600A123A06900205EFF030
:101E82008026900201E025E0FF900200E033FE9000
:101E920001FBE0FBA3E0FAA3E0F9EE8FF0120E875C
:0E1EA20080069002057403F0900205E0FF2216
:1011F600EFD3940F40037FFF2274632F2FF8E6206E
:10120600E5F4C2AFE64430F6D2AFAE0CEEC39F5063
:10121600210E74822EF8E6F908E618BE0F0274FF56
:10122600FDED69600909E71919F7090980F3161632
:1012360080DAEED39F400405810581EED39F4022DC
:1012460074822EF808E6F9EEB50C02A98118060696
:10125600E6FDED6960091919E70909F71980F31E1A
:1012660080D9EF2482F8E604F8EF2F049039AB9387
:09127600F608EF2F93F67F002229
:10127F00EFD3940F40037FFF22EF232463F8E63070
:10128F00E5F4C2AFE6548CF6D2AFE50CB5070A749D
:10129F00822FF8E6F581021122502E74832FF8E683
:1012AF00BF0F0274FFFD18E6F974822FF8FBE6FCFE
:1012BF00E96C6008A805E7F61D1980F4A803A605D8
:1012CF001FE50CB507E37F002274832FF8E6FD18A6
:1012DF0086010F74822FF8A601088604E50CB50766
:1012EF0002AC81ED6C60080D09A805E6F780F4E506
:0912FF000CB507DE89817F002295
:10130800EFD3940F40037FFF22EF232463F8C2AF8B
:10131800E630E50530E002D2E4D2E2C6D2AF7F0083
:0713280030E2010F02111F6A
:03132F00AF0C22DE
:101332008FF0E4FFFEE50C232462F8C2A930F70D1A
:101342007F08E6600B2DF660325030800730F106E0
:10135200EDF660277E020830F010C2AFE610E725F6
:101362000E30E20CD2AF7F048014C2AFE610E71554
:1013720054EC4EF6D2AFD2A90211227F0808EF44F4
:0F13820083F4C2AF56C6D2AFD2A954804FFF2218
:102ECF000211BCE493A3F8E493A34003F68001F24C
:102EDF0008DFF48029E493A3F85407240CC8C33304
:102EEF00C4540F4420C8834004F456800146F6DFD3
:102EFF00E4800B0102040810204080902522E47E1C
:102F0F00019360BCA3FF543F30E509541FFEE493C7
:102F1F00A360010ECF54C025E060A840B8E493A38E
:102F2F00FAE493A3F8E493A3C8C582C8CAC583CAB9
:102F3F00F0A3C8C582C8CAC583CADFE9DEE780BE71
:0126280000B1
:100D8200C2D530F707B2D563F0FF05F030E70CB2F9
:100D9200D5F4048463F0FF05F080018430D502F4B9
:020DA200042229
:100DA400BB010689828A83E0225002E722BBFE024D
:090DB400E32289828A83E4932280
:100DBD00BB010CE58229F582E5833AF583E02250EB
:100DCD0006E92582F8E622BBFE06E92582F8E22235
:0D0DDD00E58229F582E5833AF583E493224F
:100DEA00BB010689828A83F0225002F722BBFE01E8
:020DFA00F322E2
:100DFC00F8BB010DE58229F582E5833AF583E8F02D
:100E0C00225006E92582C8F622BBFE05E92582C8D8
:020E1C00F222C0
:100E1E00EF8DF0A4A8F0CF8CF0A428CE8DF0A42EE8
:020E2E00FE22A2
:100E3000C5F0F8A3E028F0C5F0F8E582158270024D
:060E40001583E038F022EA
:100E4600A3F8E0C5F025F0F0E5821582700215835F
:060E5600E0C838F0E822BC
:100E5C00BB010A89828A83E0F5F0A3E02250068761
:100E6C00F009E71922BBFE07E3F5F009E319228923
:0B0E7C00828A83E493F5F07401932256
:100E8700BB010789828A83020E30500B09C5F02700
:100E9700F7C5F01937F722BBFE0D09F8E325F0F384
:100EA700C5F019E338F322F889828A837401932500
:080EB700F0C5F0F8E4933822C5
:100EBF00BB010A89828A83F0E5F0A3F0225006F77E
:0F0ECF0009A7F01922BBFE06F3E5F009F319227B
:100EDE0075F008758200EF2FFFEE33FECD33CDCCCB
:100EEE0033CCC58233C5829BED9AEC99E58298404E
:100EFE000CF582EE9BFEED9AFDEC99FC0FD5F0D62B
:100F0E00E4CEFBE4CDFAE4CCF9A88222B800C1B954
:100F1E000059BA002DEC8BF084CFCECDFCE5F0CB92
:100F2E00F97818EF2FFFEE33FEED33FDEC33FCEBCB
:100F3E0033FB10D703994004EB99FB0FD8E5E4F986
:100F4E00FA227818EF2FFFEE33FEED33FDEC33FC73
:100F5E00C933C910D7059BE99A4007EC9BFCE99A67
:100F6E00F90FD8E0E4C9FAE4CCFB2275F010EF2FAC
:100F7E00FFEE33FEED33FDCC33CCC833C810D707AC
:100F8E009BEC9AE899400AED9BFDEC9AFCE899F8E7
:0E0F9E000FD5F0DAE4CDFBE4CCFAE4C8F9227A
:100FAC00EB9FF5F0EA9E42F0E99D42F0E89C45F09B
:010FBC002212
:0C0FBD00ECF0A3EDF0A3EEF0A3EFF022A7
:100FC900A8828583F0D083D082120FE0120FE0123D
:100FD9000FE0120FE0E473E493A3C583C5F0C58362
:100FE900C8C582C8F0A3C583C5F0C583C8C582C872
:010FF90022D5
:100FFA00BB011A89828A83D0F0D0E0F8D0E0F9D018
:10100A00E0FAD0E0FBE8C0E0C0F002109C5016E91C
:10101A00F8D083D082D0E0F9D0E0FAD0E0FBC082E9
:10102A00C08302107CBBFE16E9F8D083D082D0E0E0
:0F103A00F9D0E0FAD0E0FBC082C0830210A522FB
:061049008A838982E47332
:10104F00EC8EF0A4CCC5F0CCCDF8EFA4CEC5F02D2E
:10105F00FDE43CFCE8A42EC8C5F03DFDE43CFCEFEC
:0D106F00A4FFE5F028FEE43DFDE43CFC227A
:100A1D00E51824CCF582E43401F583E00518229025
:100A2D0001C93047039001CCE475F0011210850225
:100A3D000DA42040E97F2ED2408018EF540F249052
:100A4D00D43440D4FF30440BEF24BFB41A0050030C
:100A5D002461FFE51960021519051CE51C700205DE
:100A6D001B30470E9001C9E475F001121085EF029D
:100A7D000DEA0233897403D2478003E4C247F518A7
:100A8D009001C912109CE4F519F51BF51CE51960D0
:100A9D00077F20120A6080F5751AFFC241C240C25D
:100AAD0042C243C245C246C248120A2CFF700D30E5
:100ABD0047057F00120A71AF1CAE1B22B4255FC221
:100ACD00D5C244120A2CFF24D0B40A00501A75F076
:100ADD000A781930D50508B6FF0106C6A426F620FA
:100AED00D5047002D24380D924CFB41A00EF50043C
:100AFD00C2E5D244020C72D24180C6D24080C0D22F
:100B0D004280BCD2D580BAD24580B47F20120A6013
:100B1D002042077401B5190040F1120A1DFF120A97
:100B2D0060020A9AD248D2468095120A1DFB120A1B
:100B3D001DFA120A1DF94A4B700679437A0D7BFF97
:100B4D0020422EE519602A7E008E82758300120DDB
:100B5D00BD60060EEE651A70F0C2D5EBC0E0EAC0BE
:100B6D00E0E9C0E0EE120CB9D0E0F9D0E0FAD0E047
:100B7D00FB120DA4FF60AAEBC0E0EAC0E0E9C0E003
:100B8D00120A60D0E02401F9D0E03400FAD0E0FB85
:100B9D00E51A0460DCD51AD980877BFF7A0C79B50C
:100BAD00D242809C791080027908C246C2488008E2
:100BBD00D2D5790A8004790AC2D5E51A047002F5F6
:100BCD001AE4FAFDFEFF120A1DFC7B0820411312E8
:100BDD000A1DFD7B1030400A120A1DFE120A1DFF70
:100BED007B20EC3382D592D55013C3E43040069F61
:100BFD00FFE49EFEE42041039DFDE49CFCE4CBF864
:100C0D00C241EC700CCFCECDCCE824F8F870F38057
:100C1D0017C3EF33FFEE33FEED33FDEC33FCEB3357
:100C2D00FB994002FB0FD8E9EB304105F8D0E0C449
:100C3D0048B241C0E00AEC4D4E4F78207B0070C2A7
:100C4D00EAB51A0040BCC0E0120CBBD0F0D0E020D9
:100C5D004104C4C0E0C4B241C0F0120A49D0F0D57D
:100C6D00F0EB020A9A1210AE0B37530BB1580B086A
:100C7D004C0B04420BB54F0BBD440BBD490B1D4333
:080C8D000BC3550BA7460BA792
:100C9500450BA7470D63500B0C2D0B102E0B332B5B
:100CA5000B14230B31200D4C2A0ACC4800000B2BCA
:100CB5003F3F3F00790AA2D5204314304509B910BA
:100CC500020404B9080104A2D520460250010420FB
:100CD50042689242B519005034C0E07F2030431974
:100CE5007F30A24272467245500F120D12C242C2A7
:100CF50046C245C2487F30800F304503E9C0E01247
:100D05000A60304503D0E0F9D0E0B519CC3045177D
:100D15007F30B9100C120A607F583044077F788005
:100D250003B90803120A603042057F2D020A607F6D
:100D3500202048F87F2B2046F322924280CF286E50
:100D4500756C6C2900D241120A1D3041F8C24178F8
:100D55001930D50108F6020ACC2D50434958120A1C
:100D65001D2403B405004001E4900D5E93120A5161
:0D0D7500743A120A51D243751904020BB1F1
:09107C00EBF608EAF608E9F62299
:10108500F8E0FBA3A3E0F925F0F0E58215827002F4
:071095001583E0FA38F02298
:09109C00EBF0A3EAF0A3E9F02255
:0910A500EBF208EAF208E9F2227C
:1010AE00D083D082F8E4937012740193700DA3A3D1
:1010BE0093F8740193F5828883E4737402936860E5
:0610CE00EFA3A3A380DFE5
:00000001FF
