:0239DE0031C0F6
:0239E000272698
:0239E20021873B
:0239E40030E2CF
:0239E600004699
:0239E80032DFCC
:0239EA0035594D
:0239EE0029B5F9
:0239F0002F5F47
:0239F20022C9E8
:0239F400065972
:0239F600333963
:0239F8002BCFD3
:0239FA00390290
:0239FC003AA7E8
:03000000022E4786
:0C2E4700787FE4F6D8FD758191022E8E94
:10381C002A2A2D007461736B20434F4D4D20737415
:10382C006172746564210A000A7665722D2D2D254E
:10383C00640A002A2A256328256429002A2A2E00D6
:1025280042015F0001420146000142015C00006077
:1025380030011505031E03060303280828140405A3
:10254800050501020C010000030138640B0B1A0A8F
:102558000000000000000000000000000000000073
:102568005000AAC12BC1B74101480041011300C165
:1025780080C181C102C183C104C105C106C107C1AF
:1025880008C109C10AC10BC10CC10DC10EC10FC1DF
:1025980010C111C112C113C114C115C116C117C18F
:1025A80018C1194101090041010A0041010B00410C
:1025B800010C0041010D0041010E0041010F0041D5
:1025C8000110004201110000C11AC11BC11CC11D2C
:0425D800C11FC1203E
:1031C000121EB07F081211F67D0A7F021213327FA1
:1031D0000A1211F67D0A7F021213327F091211F6CC
:1031E0007F011211F67D0A7F021213327F0D121138
:1031F000F67D0A7F021213327F0B1211F67D0A7FD1
:103200000212133212306B80007F021211F67DFA27
:103210007F021213327F041211F67D0A7F0212130D
:0632200032E4FF02127F00
:101EB000123A1CE4900145F0C22EC221C222C22374
:101EC000C224C225C226900191F0A3F0A3F0A3F092
:101ED000C227D233C22990015BF0C234900114F0C2
:101EE000D2357D647F021213327D647F0212133279
:101EF0007D647F021213327D647F021213329001DF
:101F0000B1120FC900000000E47F02FEFDFC900149
:101F1000B1E0F8A3E0F9A3E0FAA3E0FBC3120FAC31
:101F20005068E49001B0F09001B0E0FFC364809489
:101F300088500B74322FF8E4F6E004F080E9E49066
:101F400001B0F09001B0E0FFC3648094905019EFAD
:101F50003395E0FE744B2FF58274013EF583E4F077
:101F60009001B0E004F080DB9001B1E0FCA3E0FD63
:101F7000A3E0FEA3E02401FFE43EFEE43DFDE43CDB
:101F8000FC9001B1120FBD021F087F021237C47FFF
:101F9000011236C7123756C22CE49001B0F09001FE
:101FA000B0E0FFC3648094B05025EF3395E0FE129B
:101FB0003A729001B0E0FD3395E0FC74612DF5823A
:101FC00074013CF583EFF09001B0E004F080CF7F26
:101FD000007E02123A72EF7F00FEC006C0070F7E3D
:101FE00002123A72EFFDD0E02DFED0E034009001F5
:101FF00049F0A3CEF07402FFFE123A72EF7F00FEAA
:10200000C006C0077F037E02123A72EFFDD0E02DBA
:0D201000FED0E0340090015CF0A3CEF02281
:10306B007F031211F67D0A7F021213327F0512378E
:10307B00C47F061237C47F071237C47F0F1236C7BF
:10308B007F0E1211F67F121237C490016EE075F0AD
:10309B000AA4FD7F021213327F121236C7302409A5
:1030AB007D027F0212133280F47F101237C490011D
:1030BB0072E075F00AA490015EF090014F745DF020
:1030CB00E52A20E703745BF0E52BA2E2922A922D0E
:0730DB00C2337F020237C47B
:102187007D647F02121332E53930E7030222C81259
:10219700347D123756E52B30E005200102D236E5B3
:1021A7002B20E102D203E53930E7030222B6E52C02
:1021B70030E12D30E21020000DE52B20E008203320
:1021C700051235128013E52B30E00E20010BE52CAC
:1021D70020E206302703123952E4FF1236C7802562
:1021E7007D0A7F02121332E52C20E111900145E0B0
:1021F7006005C3946440069001457411F0E4FF1232
:1022070037C4123952202C1DE52A30E6137D147F7E
:1022170002121332E52A30E60C7F041237C4800518
:102227007F041236C7E52A30E72120E56220E15F07
:1022370030275C300359E52B30E1547F031237EB2D
:10224700404D7F031237C4C203804430271B30033D
:1022570018E52B30E1137F031237EB400CE52C20F8
:10226700E4077F031237C4C203E52C30E4217F0360
:102277001237EB501A7F141237EB4002800C900193
:102287007FE0B4010A7F141236C77F031236C7E511
:102297002A30E50A7F0612127F7F081236C7E52C1F
:1022A700A2E29200E52B139201E52AA2E692027DB3
:1022B700027F0212133290014FE090018FF002214A
:0222C7008E2265
:1030E20012347D123756E53920E7603021057F0B17
:1030F2001237C43022057F0C1237C43023057F0DEE
:103102001237C43024057F0E1237C47F02303305D4
:103112001237C4800A1236C77D147F021213327D21
:10312200327F021213327F0B1236C77F0C1236C760
:103132007F0D1236C77F0E1236C73033057F02125B
:1031420036C77D327F0212133280957D027F0212D2
:043152001332808C28
:10004600C23A12347D123756E53930E70302064FBD
:10005600202C03020625D22830350A900161E09053
:100066000148F0C23590014F7403F0E52A30E744A9
:100076007F031237EB40127D027F0212133290018A
:1000860045E070EC74CBF080E7900145E0B4CB021C
:10009600E4F0E52C20E7127D027F02121332900174
:1000A60045E070EE747BF080E9900145E0647B707A
:1000B6007CF0807990014F7404F07D027F02121368
:1000C60032E52C30E70F30E00CE52A20E0077F13FD
:1000D6001237EB503CE52C20E709900145E0700310
:1000E600747BF0E52C20E009900145E07003747400
:1000F600F0E52A30E009900145E0700374BEF07F18
:10010600131237EB50B4900145E070AE74DBF0800B
:10011600A9900145E0FF647B600EEF64746009EF0F
:1001260064BE6004EFB4DB05E4900145F0302A03B9
:100136000202EA7F0A1237C47F051236C77F06120B
:1001460036C77F071236C77F051211F690014F7426
:1001560005F07F061211F67F0F1211F690014F740B
:1001660007F0E49001BEF0900163E0FF9001BEE06D
:10017600C39F502B7D0A7F02121332E52A20E31F0C
:10018600900145E070037467F0900175E060089097
:1001960001BEE0600214F09001BEE004F080C89059
:1001A6000145E0B46702E4F0E52B30E5057F101267
:1001B60037C4900163E0FFFD900191E4F0A3EDF0F8
:1001C6009001BEE0FD900193E4F0A3EDF0C39F40E3
:1001D600030202BA90014F7406F0E52A30E355C2D5
:1001E60030E49001BEF0900162E075F005A4FF9046
:1001F60001BEE0C39FE5F06480F874809850167DD8
:10020600027F02121332E52B30E402D2309001BE97
:10021600E004F080D17F051237C4203017D2229037
:100226000145E0FF6005C394644006900145740CE7
:10023600F012395290014F7408F0E52A20E4127D3D
:10024600027F02121332900145E070EE7468F0806E
:10025600E9900145E0B46802E4F0C231E49001BEE1
:10026600F0900166E075F005A4FF9001BEE0C39F23
:10027600E5F06480F874809850167D027F021213B0
:1002860032E52B30E502D2319001BEE004F080D198
:100296007F061237C4303103020330D22390014562
:1002A600E0FF6005C394644006900145740DF012AA
:1002B600395280767F0F1237C47F051237C47F0606
:1002C6001237C4900164E075F00AA4FD7F02121390
:1002D600327F0F1236C7900165E075F00AA49001CF
:1002E6005BF08046C22A900145E07003746EF0E52B
:1002F6002A20E1347F081237C47F1C1237C4E490E9
:1003060001BEF0900176E0FF9001BEE0C39F500F62
:100316007D0A7F021213329001BEE004F080E47F72
:100326001C1236C7C23A8002D23A303A0302041887
:1003360090014F7409F0E52A20E5127D027F021232
:100346001332900145E070EE7469F080E990014542
:10035600E0FF64696004EFB46E05E4900145F07F48
:100366000612127F7F081236C7C232E49001BEF031
:10037600900167E0FF9001BEE0C39F50227D0A7F97
:1003860002121332E52B30E60ED232900170E07580
:10039600F00AA490015EF09001BEE004F080D17FE7
:1003A600071237C412375612347D203217D22490E2
:1003B6000145E0FF6005C394644006900145740E54
:1003C600F012395290014F740AF012347DE52A304A
:1003D600E507E52C20E402802FE52C30E436E52AFB
:1003E60020E7317F031236C7E52C30E4127D027F09
:1003F60002121332900145E070EE7478F080E990B5
:100406000145E0B47802E4F07F141237C41237567F
:100416008002C23A90014F740DF0E52A20E70302EC
:1004260004C8E52A20E1097D027F0212133280F218
:10043600E52C30E437E52C30E4127D027F021213FE
:1004460032900145E070EE7478F080E990016BE03F
:100456009001BEF09001BEE0D3940040487D647FD9
:10046600021213329001BEE014F080E8E49001BE5F
:10047600F090016FE075F00A84FF9001BEE0C39F23
:10048600500F7D647F021213329001BEE004F080AB
:10049600E090016FE075F00A84E5F075F00AA4FDBE
:1004A6007F02121332900145E0B47802E4F07F0334
:1004B6001236C77F141236C7D2347F131236C702DC
:1004C600064F90014F740BF0E52A30E510E52C201D
:1004D600E40B900145E0B47816E4F080127D027FCB
:1004E60002121332900145E070DE7478F080D97FF5
:1004F600141237C41237567D027F021213327F035D
:100506001237EB5012E52A30E10DE52C20E408E520
:100516002D20E4030205A37F031237EB500FE52AD3
:1005260030E10AE52C20E405E52D20E7707F031273
:1005360037EB400B900145E0700E74CBF0800990CC
:100546000145E0B4CB02E4F0E52A20E10B90014539
:10055600E0700E7465F08009900145E0B46502E430
:10056600F0E52C30E40B900145E0700E7478F080D5
:1005760009900145E0B47802E4F0E52D20E70F90FC
:100586000145E060030204FD7483F00204FD90015E
:1005960045E0648360030204FDF00204FD7F13124C
:1005A60037C4900145E0FF64CB600EEF64656009D7
:1005B600EF64786004EFB48305E4900145F09001A0
:1005C6004F740CF0E52A20E105E52B20E7307D028B
:1005D6007F02121332E52A30E10B900145E0700EDE
:1005E60074BFF08009900145E0B4BF02E4F0E52B4A
:1005F60020E7D1900145E070CB7473F080C67F137D
:100606001236C7900145E0FF64BF6004EFB473057E
:10061600E4900145F07F0C1211F6123756802AC27B
:1006260028C227C2337F021237C47F0612127F7F89
:10063600081236C77F051237C47F061237C47F07F4
:100646001237C490014F7401F07D027F02121332FB
:0306560002004857
:10065900E53930E703020A1C900168E0700204F0F2
:1006690090016AE0700204F0E52D139204E52DA2D1
:10067900E19205A2E29206A2E39207A2E59208A2FC
:10068900E69209E52B339217E52AA2E19219A2E332
:1006990092127F031237EB9214300417200D14E4E1
:1006A900900114F07F151236C77F181236C7E490EF
:1006B9000109F0300519200E16E490010AF07F15A2
:1006C9001237EB40057F181236C77F191236C7302B
:1006D9000705201002D234300D1A200417303414C3
:1006E900900174E0600E302C0B1237BA7F15123767
:1006F900C41236BB300657200F547F151237EB4012
:100709004D7F181237EB40467F191237EB403F30C7
:10071900042B200528900179E090010AF07F181236
:1007290037C47F191237C430341390017CE090012B
:1007390014F0900179E0900109F01236BB20040E03
:1007490030340B1237BA7F151237C41236BBE52A7B
:1007590030E72F30172C2016297F151237EB400E62
:100769007F181237EB40077F191237EB5014E490CA
:100779000114F07F151236C77F181236C77F191278
:1007890036C730121520111230280F7F1A1237C4BC
:10079900900168E090010BF0C22B90010BE0600220
:1007A90014F0900180E0702690010BE0B401057F00
:1007B9001A1236C7301906201803202803302B3B9C
:1007C9007F1A1237C47F1B1237C4C22B802D9001A8
:1007D9000BE0B4010D7F1A1236C7900168E0900151
:1007E9000CF090010CE0600214F090010CE0B401EF
:1007F9000A7F1A1237C47F1B1237C490010DE060BB
:100809000214F090010DE0B401057F1B1236C720D8
:10081900140B301308900174E090010EF090010E52
:10082900E06401704A30043020052D900109E07020
:1008390027900179E090010AF07F181237C47F19D7
:100849001237C430342990017CE0900114F09001F2
:1008590079E0900109F080142004143034119001DA
:100869000AE0700B1237BA7F151237C41236BB90E3
:10087900010EE0600214F0A2149213A2129211A2C6
:10088900199218A234920CA204920DA205920EA2FA
:1008990006920FA2079210A217921690015BE060D0
:1008A9000914F07F091237C480057F091236C790F1
:1008B900015EE0600214F090015EE0B401057F1072
:1008C9001236C7900109E0600214F0900109E0B402
:1008D900010F7F181236C77F151236C7E49001142D
:1008E900F090010AE0600214F090010AE0B4010AF4
:1008F9007F191236C77F181236C7900148E0600980
:1009090014F07F1F1237C480057F1F1236C790016C
:1009190014E0B401057F151237C4900114E0600298
:1009290014F0302C5190017DE0FF604A7E007C8CF0
:100939007DA0120E1E900111E475F001120E30FC1B
:10094900C3E5F09FEC9E402EE4900111F0A3F090D6
:10095900010FE07021A3E0701DD2157F1D1237C46D
:100969007F1E1236C7E4900110F090017AE075F00D
:100979000AA490010FF020154230081E200A1B7F9F
:100989001D1237C47F1E1236C7E4900110F0900182
:100999007AE075F00AA490010FF030091E200B1BB4
:1009A9007F1E1237C47F1D1236C7E490010FF090E5
:1009B900017BE075F00AA4900110F090010FE0604E
:1009C9000214F090010FE070257F1D1236C7301513
:1009D9001D7F1E1237C47F1D1236C7E490010FF028
:1009E90090017BE075F00AA4900110F0C215900106
:1009F90010E0600214F0900110E070057F1E1236BD
:100A0900C7A208920AA209920B7D0A7F0212133229
:040A19000206592256
:1022C900E52CA2E3921C201C0302235E301D0302AD
:1022D900235E7F0A1237EB407C302C79E52A30E502
:1022E900097D0A7F0212133280F27F0412127FD213
:1022F900297F121237C47F051237C47F061237C4EB
:102309007F071237C47F091236C77F0612127F7FF3
:10231900081236C77F0F1236C77F031236C79001DE
:102329006EE075F00AA4FD7F021213327F12123695
:10233900C7900145E0FF6005C394644006900145DC
:10234900745AF0123952D22BE52BA2E2922A922D1D
:102359007F041211F6A21C921DE52C13921A301A51
:10236900030223F4201B030223F47F131237EB40EB
:102379007A302C77E52A30E5097D0A7F021213327B
:1023890080F27F0412127FD2297F121237C47F058F
:102399001237C47F061237C47F071237C47F091268
:1023A90036C77F0612127F7F081236C77F0F123693
:1023B900C77F031236C790016EE075F00AA4FD7F4E
:1023C900021213327F121236C7900145E0FF6005F1
:1023D900C3946440069001457410F0123952E52BFC
:1023E900A2E2922A922D7F041211F6A21A921B7D63
:0923F900057F021213320222C911
:10333900E49001C1F0900169E075F00A84FF900101
:10334900C1E0C39F500F7D647F021213329001C107
:10335900E004F080E0900169E075F00A84E5F07519
:10336900F00AA4FD7F021213327F031236C77F14BD
:103379001236C7C2277D647F02121332D2277F0C0F
:0333890002127FAE
:102F5F00E52B33923C303C72201E6F90014AE00407
:102F6F00F07006900149E004F0D23790015DE00463
:102F7F00F0700690015CE004F0D22E900177E075BE
:102F8F00F064A4FFA3E07C002FFFEC35F0FEC390AC
:102F9F00015DE09F90015CE09E402FE4F0A3F07F85
:102FAF00111237C4E49001C2F0900171E0FF90015B
:102FBF00C2E0C39F500F7D647F021213329001C293
:102FCF00E004F080E47F111236C7A23C921E7D14FC
:082FDF007F02121332022F5F82
:1032DF00C22FE49001C3F0900161E075F005A4FFE7
:1032EF009001C3E0C39FE5F06480F8748098501696
:1032FF007D027F02121332E52B30E302D22F9001B1
:10330F00C3E004F080D17F0A1236C7202F17D221D5
:10331F00900145E0FF6005C3946440069001457439
:0A332F000BF01239527F0502127FE5
:10355900E49001C5F090016CE0FF9001C5E0C39FC4
:1035690050147D647F02121332E52A20E10890018C
:10357900C5E004F080DF90016CE0FF9001C5E0C375
:103589009F40082029057F081237C47F0602127F51
:103AA700E52B20E5097D027F0212133280F27F1099
:083AB7001237C47F0F02127FD9
:10390200E52B20E614D2247D027F021213329001AD
:1039120045E070EC7472F080E7C224900145E0B497
:093922007202E4F07F0E02127F34
:1029B50012347D123756E53930E703022A62E52CD9
:1029C500A2E5923DA2E6923E202C03022A509001F8
:1029D500537401F0203D03303E0C7F161237C47D41
:1029E500017F02121332203D1130200E203E0B9044
:1029F50001537403F07F161236C7203E58301F5519
:102A0500203E52203D4F7F161236C7E49001C6F096
:102A1500900173E0FF9001C6E0C39F50387F171205
:102A250037C490016DE075F00AA4FD7F02121332E0
:102A35007F171236C790016DE075F00AA4FD7F027D
:102A45001213329001C6E004F080C57F161236C716
:102A55007F171236C7A23E921FA23D92207D027FAC
:072A6500021213320229B531
:10272600E49001C8F0A3F0A3F07BFF7A3879201279
:102736000A887BFF7A3879349001CE7450F0120AF9
:10274600881236869001CAE0146016146020146060
:102756002B14604624046003022806EFB406E280C8
:102766001EEF70028019EFB40602801F8025EFB4B9
:102776000102800BEFB4060280118017EF700890FB
:1027860001CAE004F080BAEFB406089001CA7401E9
:10279600F080AEE49001CAF080A7E49001CAF0EFA1
:1027A60075F00AA4900113F060303037947BFF7AFD
:1027B60038793FE52A30E2047F4280027F4190016A
:1027C600CEEFF0900149E0FFA3E09001CFCFF0A358
:1027D600EFF0120A88C2370227479001457461F06C
:1027E6001239527BFF7A387948120A887F0412120E
:1027F6007F7D647F021213327F0212127F02274707
:08280600E49001CAF00227472B
:102BCF00C23612347DE52A9001F430E205740BF021
:102BDF008003740AF09001F9120FC900004B00E452
:102BEF009001FDF09001F4E0FD7B02E4FF122C75E3
:102BFF009001F5EFF01239BC9001F5EFF01215B816
:102C0F007D027F021213323036F3900149E0FD7FCF
:102C1F00007E02123A56900149A3E0FD7F017E0229
:102C2F00123A5690015CE0FD7402FFFE123A569084
:102C3F00015CA3E0FD7F037E02123A56E49001F49B
:102C4F00F09001F4E0FF7E002461F582E43401F599
:102C5F0083E0FD123A569001F4E004F0E0C39430A3
:062C6F0040DFC236809731
:10351200E52C30E1417F011237C47F021236C77DAC
:10352200037F02121332D22C7F041236C7202D0CD5
:10353200C22A7F051236C77F061236C77F071236A8
:10354200C7E4900145F0C221C222C223C224C2258F
:07355200C226D227C2292284
:10395200302C20D2337F011236C7E4900114F07F5D
:10396200151236C77F181236C77F191236C712379B
:0439720056C22C22EB
:0A37BA00900179E0900109F07F18FA
:1037C400EF75F008120D822432F8C000E6FEEF75A2
:1037D400F008120D82AFF07401A807088002C33309
:0737E400D8FC4ED000F622D4
:0C36BB00C23490016AE090010DF07F1A0B
:1036C700EF75F008120D822432F8C000E6FEEF75A0
:1036D700F008120D82AFF07401A807088002C33307
:0836E700D8FCF45ED000F622CD
:1037EB00EF75F008120D822432F8E6FD7C00EF75C0
:1037FB00F008120D82AFF074017E00A80708800557
:10380B00C333CE33CED8F9FFEE5CFEEF5D4E24FF13
:01381B00228A
:1035D700EF75F008120D82FEC374079E2432F8E6D9
:1035E700FD7C00EF75F008120D82AFF0C374079FE2
:1035F700FF74017E00A807088005C333CE33CED8F9
:0B360700F9FFEE5CFEEF5D4E24FF2299
:1038D600EF75F008120D82FEC374079E242AF8C005
:1038E60000E6FEEF75F008120D82AFF07401A8072E
:0C38F600088002C333D8FC4ED000F6223C
:1038A900EF75F008120D82FEC374079E242AF8C032
:1038B90000E6FEEF75F008120D82AFF07401A8075B
:0D38C900088002C333D8FCF45ED000F62264
:10347D00C284C285D286D284A28692497F3F3049CA
:10348D00051238D680031238A99001F6743EF090DB
:10349D0001F6E0FFC3648094804020D285A286921D
:1034AD0049C2853049051238D680089001F6E0FFF3
:0C34BD001238A99001F6E014F080D4222F
:10375600C283C283E49001CBF09001CBE0FFC36447
:103766008094C05018C2821235D75004D28080028D
:10377600C280D282009001CBE004F080DCD283C20A
:0237860081229E
:1017C30090020CEBF0A3EAF0A3E9F0E4900214F02A
:1017D300C3ED9401EC940050030219BF900212E090
:1017E3002DFF900211E03CFED3EF9445EE940040B0
:1017F300030219BF90015FE0FEA3E0FFC3ED9FFF6B
:10180300EC9EFE900213E01470030218F8046003C8
:101813000219C5D3900212E09400900211E09400E3
:1018230050030219C5EF9404EE648094805025EFB1
:1018330025E02432F8E6FD90020CE0FBA3E475F00A
:1018430001120E46A9F0FAED120DEAEF25E024335A
:10185300F8E68076C3EF9434EE6480948050219050
:10186300020CE0FBA3E475F001120E46A9F0FAE4C2
:10187300120DEA745D2FF58274013EF583E0804A10
:10188300C3EF9443EE64809480502190020CE0FBFC
:10189300A3E475F001120E46A9F0FAE4120DEA74FE
:1018A300172FF58274013EF583E0801EEF64434EEB
:1018B300702D90020CE0FBA3E475F001120E46A913
:1018C300F0FAE4120DEA900145E0FD90020CE0FB12
:1018D300A3E475F001120E46A9F0FAED120DEA0F1A
:1018E300BF00010E900212E024FFF0900211E034D9
:1018F300FFF0021816302C030219B7D3900212E03E
:101903009400900211E0940050030219C5EF94046F
:10191300EE64809480503A90020CE0FBA3E475F0EF
:1019230001120E46A9F0FA120DA4FDEF25E02432B0
:10193300F8A60590020CE0FBA3E475F001120E4635
:10194300A9F0FA120DA4FDEF25E02433F8A60580D3
:101953004DC3EF9434EE64809480504290020DE4C2
:1019630075F001120E3090020CE0FBA3E475F00158
:10197300120E46A9F0FA120DA4FD745D2FF58274C0
:10198300013EF583EDF0EF64304E7006900149F0AF
:10199300A3F0EF64314E700690018E7450F00FBFC8
:1019A30000010E900212E024FFF0900211E034FFD8
:1019B300F00218FE9002147402F080069002147470
:0819C30001F0900214E0FF2284
:10280E00900208EBF0A3EAF0A3E9F0E490020FF0D7
:10281E00C3ED9401EC940050030228D690020EE012
:10282E002DFF90020DE03CFED3EF9406EE94004097
:10283E00030228D6900146E0FEA3E0FFC3ED9FFF02
:10284E00EC9EAD07FCD390020EE0940090020DE0DA
:10285E009400407AED64044C7020900149E0FF90A2
:10286E000208E0FBA3E475F001120E46A9F0FAEFA0
:10287E00120DEA900149A3E08023ED25E0242AF809
:10288E00E6FF900208E0FBA3E475F001120E46A9E4
:10289E00F0FAEF120DEAED25E0242BF8E6FF900298
:1028AE0008E0FBA3E475F001120E46A9F0FAEF1250
:1028BE000DEA0DBD00010C90020EE024FFF0900217
:1028CE000DE034FFF002285390020F7401F09002D5
:0428DE000FE0FF22E6
:03000B000210D907
:1010D400C2AF80FE321210D885D00B75D008FAC288
:1010E4008CE58A2407F58AE58C34B8F58CD28CEC2F
:1010F4002483F8E6BC0F0274FFC39581B414004046
:10110400CF7910786216E608700BC2AFE630E103BF
:101114004418F6D2AF08D9EDEA8BD0D24E22E50CB2
:10112400FF232463F80F0808EFB50C06104E0343A1
:101134008701BF10047F007863E630E4E800E50C23
:10114400C39F5020050C7482250CF8E6FDA6810887
:10115400E6AE0CBE0F0274FFCDF8E86D60E008E661
:10116400C0E080F6E50CD39F4027E50C2483F8E625
:10117400AE0CBE0F0274FFFD18E6CDF8E5816D607C
:1011840006D0E0F61880F5E50C2482C8F6150C802C
:10119400D3E50C232463F87F04C2AFE630E00310E8
:1011A400E20C7F0030E10730E3047F0854F4C2E727
:1011B400C6D2AF54804207227882A681740F60069B
:1011C400FF0876FFDFFB7F10E47862F608F608DF9D
:1011D400FA786376309039DE740193C0E0E493C00A
:1011E400E0438901758A00758CB8D28CD2AFD2A93C
:0211F400220FC8
:0825DC00410293FF410290FF50
:10372300204C2FC2AC204B09204D06D24B8F9980E1
:103733001F900294E0FE04F0EE541F2442F8A60703
:10374300900291E0FF900294E06F541F7002D24CFC
:03375300D2AC22D3
:10338C009001F3EFF0BF0A21304C1912132F900269
:10339C0093EFF0E4FBFAFD7F011213329002937469
:1033AC00FFF080E47F0D123723304C1912132F904D
:1033BC000293EFF0E4FBFAFD7F01121332900293BB
:1033CC0074FFF080E49001F3E0FF1237239001F3D7
:0333DC00E0FF22ED
:1036860090028FE0FF900292E0B5071912132F9077
:103696000290EFF0E4FBFAFD7F01121332900290E4
:1036A60074FFF080DB90028FE0FF04F0EF540724F4
:0536B6003AF8E6FF22D6
:03002300022DB1FA
:102DB100C0E0C0F0C083C082C0D075D010C24A301C
:102DC1009844AF99C298EF24EF600824FE700CD2AA
:102DD1004D8033A24D924AC24D802B90028FE02448
:102DE10008FDE433FC900292E06D7001EC600CE0B0
:102DF100FE04F0EE5407243AF8A617900290E0FF83
:102E0100F46003121308209903304A2FC2999002EB
:102E110094E0FF900291E06F601F204D1EE0FF04DF
:102E2100F0EF541F2442F8E6F599C24C900293E06A
:102E3100FFF460071213088002C24BD0D0D082D0B9
:062E410083D0F0D0E03266
:103A1C0053877F759850538EBF538EFE53890F4337
:0D3A2C008920758BD0758DD0C2ABD28E2253
:1039760000C2A40000000000000000D2A500000064
:1039860000D2A400000000C2A500000000C2A400EE
:04399600000000220B
:1039FE0000C2A400000000C2A500000000D2A40076
:0E3A0E00000000D2A500000000000000002211
:103A8D000000000000C2A400000000C2A50000005C
:0A3A9D0000D2A400000000C2A42221
:10387B0012397644A0FF12392B12388CAF0512394E
:01388B002B11
:10388C00D2A500C2A40000000000000000D2A400D9
:0D389C00000000A2A5E433FF0000C2A4223A
:10399A00D2A500E4FEEF25E0FFD2A400000000A2B9
:1039AA00A5E4334FFF00000000C2A40EEEB408E500
:0239BA000022E9
:10392B0000E4FEEF30E704D2A58002C2A500000040
:10393B0000D2A400000000C2A400000000EF25E0AC
:07394B00FF0EEEB408DD22BF
:1034C900AC07C2B6EC25E0FC12387B123976EC4425
:1034D900A1FF12392B12388C9001BBE064016019ED
:1034E90012399AEF120DEA123A8D740129F9E43A68
:1034F900FA9001BBE014F080DF12399AEF120DEA5D
:0935090012388C1239FED2B622F0
:10359900C2B6EF25E0FF12387B9001FCE0601912FA
:1035A9000DA4FF12392B12388C740129F9E43AFA67
:1035B9009001FCE014F080E11239FEE4FFFE000006
:0E35C9000FBF00010EBE5DF6BFC0F3D2B622EA
:103A7200AD07AC06ECFF7B017A0179B59001BB740E
:0B3A820001F01234C99001B5E0FF22F2
:103A56009001F6EDF0AB07AA06EAFFAD037B017A0B
:0C3A66000179F69001FC7401F002359922
:1025E400410271026040022A04FF1D4203FF201DC4
:1025F40010FF262D06FF2ED317FF139100000000B5
:1026040000000000000000000000000000000000C6
:1026140000000000000000000000000000000000B6
:082624000000000000000000AE
:102C75009001F6EFF0AE03E49001FEF0ED600BC3BA
:102C850094014006EDD394F740089001FE7402F0DC
:102C9500807B900226EDF09001F6E0704A900227C5
:102CA50074FFF0A3743AF0A374BFF0900220E4F02F
:102CB500A3F0A3F0AF06AD07C0059001F9E0FCA3B2
:102CC500E0FDA3E0FEA3E0FF900201120FBD90011D
:102CD500FDE0900205F0900226E0FFD005123226B5
:102CE5009001FEEFF080069001FE7402F09001FE67
:102CF500E0701A120003EF70089001FE7403F08073
:102D05000C9001F6E0900270F0A37401F09001FEC2
:032D1500E0FF22BA
:101BCB00900295EBF0A3EAF0A3E9F0AD07E4C39D17
:101BDB004003021D36ED947F4003021D36C2AF90C9
:101BEB000295E0FBA3E0FAA3E04A4B7003021CBF93
:101BFB00E4A3F0A3F0900298E0FEA3E0FFC39410DF
:101C0B00EE648094804003021CA6EF7802C333CEAF
:101C1B0033CED8F9FF242BF58274023EF583E0FB1B
:101C2B00A3E0FAA3E04A4B6036742B2FF5827402C3
:101C3B003EF583E0FBA3E0FAA3E0F9C003C002C0CA
:101C4B0001900295E0FBA3E0FAA3E0F9D082D083E8
:101C5B00D0E06B7008E965827003EA6583702B74C2
:101C6B002A2FF58274023EF583EDF0900295E0FB8E
:101C7B00A3E0FAA3E0F9742B2FF58274023EF583EF
:101C8B00EBF0A3EAF0A3E9F08011900299E004F0E5
:101C9B007006900298E004F0021C00900298E0702D
:101CAB0004A3E0641060047F0080027F0490029A1A
:101CBB00EFF08073E4900298F0A3F0900298E0FEAE
:101CCB00A3E0FFC39410EE648094805055EF78022C
:101CDB00C333CE33CED8F9242AF58274023EF58372
:101CEB00E0B5052E900298E0FEA3E07802C333CE58
:101CFB0033CED8F9FF242AF58274023EF583E4F043
:101D0B00742B2FF58274023EF583E4F0A3F0A3F05D
:101D1B008010900299E004F070A1900298E004F01A
:101D2B008099E490029AF0D2AF800690029A7402E6
:071D3B00F090029AE0FF2284
:10378800E490029FF0900271E0B4011A900220E0E8
:10379800FBA3E0FAA3E04A4B6012900220A3A3E047
:1037A800F9121049800690029F7406F090029FE07B
:0237B800FF22EE
:1039BC00E49001F6F0900271E0B4010A120026E4E2
:1039CC00900271F080069001F67406F09001F6E01A
:0239DC00FF22C8
:1036EF00900271E07014900227A3E0FAA3E0F912A0
:1036FF0010499002717401F08007900271E0B401DB
:10370F0007E49002A0F080069002A07406F09002E9
:04371F00A0E0FF2205
:1015B800E49001F8F0900271E060037F06227B015D
:1015C8007A0179F912000EEF640160030217C090E6
:1015D80001F9E024FE604E0460030217C09001FD8B
:1015E8007401F0A37402F0A37418F0A37401F0A3BB
:1015F8007402F0A3741DF07B017A02791B122B236D
:101608009001F8EFF060030217C0900226E0FF9007
:10161800021BE0FE6F6006EE60030217C07F021235
:101628003ADA0217C0900218E0FBA3E0FAA3E0F947
:10163800120DA490021CF090021F7401F0E49001B6
:10164800F6F0A3F09001F6E0FEA3E0FFC39410EEDD
:1016580064809480400302174DEF7802C333CE3381
:10166800CED8F9242AF58274023EF583E0FF700390
:1016780002174D90021CE0FE6F600302173CEE2437
:10168800FD603424FD606C24F6604A24F97003027E
:1016980017192413600302174D9001FD7401F0A37C
:1016A8007402F0A3741DF0900218E0FBA3E0FAA303
:1016B800E0F9121D4280769001FD7401F0A37402D6
:1016C800F0A3741DF0900218E0FBA3E0FAA3E0F980
:1016D80012201D80589001FD7401F0A37402F0A33C
:1016E800741DF0900218E0FBA3E0FAA3E0F91226BB
:1016F8002D803A9001FD7401F0A37402F0A3741DCB
:10170800F0900218E0FBA3E0FAA3E0F9122ED380D0
:101718001C9001FD7401F0A37402F0A3741DF090F5
:101728000218E0FBA3E0FAA3E0F912139190021F5C
:10173800EFF080119001F7E004F070069001F6E0F8
:1017480004F002164C90021BE0606D90021FE0FF4F
:10175800603FE490021DF0A3F090021CE04480FE7C
:10176800900218E0FBA3E0FAA3E0F990021DE475EB
:10177800F001120E4685F082F583EE120DFC900200
:101788001DE475F001120E4685F082F583EF120D07
:10179800FC900226E0FF900218E0FBA3E0FAA3E029
:1017A800F990021DE0FDA3E09001FECDF0A3EDF05D
:0B17B800122A6C9001F8EFF07F002275
:1019CB0000C1814001C0804101C0804100C1814004
:1019DB0001C0804100C1814000C1814001C08041F4
:1019EB0001C0804100C1814000C1814001C08041E4
:1019FB0000C1814001C0804101C0804100C18140D4
:101A0B0001C0804100C1814000C1814001C08041C3
:101A1B0000C1814001C0804101C0804100C18140B3
:101A2B0000C1814001C0804101C0804100C18140A3
:101A3B0001C0804100C1814000C1814001C0804193
:101A4B0001C0804100C1814000C1814001C0804183
:101A5B0000C1814001C0804101C0804100C1814073
:101A6B0000C1814001C0804101C0804100C1814063
:101A7B0001C0804100C1814000C1814001C0804153
:101A8B0000C1814001C0804101C0804100C1814043
:101A9B0001C0804100C1814000C1814001C0804133
:101AAB0001C0804100C1814000C1814001C0804123
:101ABB0000C1814001C0804101C0804100C1814013
:101ACB0000C0C101C30302C2C60607C705C5C404D3
:101ADB00CC0C0DCD0FCFCE0E0ACACB0BC90908C843
:101AEB00D81819D91BDBDA1A1EDEDF1FDD1D1CDC33
:101AFB0014D4D515D71716D6D21213D311D1D010A3
:101B0B00F03031F133F3F23236F6F737F53534F492
:101B1B003CFCFD3DFF3F3EFEFA3A3BFB39F9F83802
:101B2B0028E8E929EB2B2AEAEE2E2FEF2DEDEC2CF2
:101B3B00E42425E527E7E62622E2E323E12120E062
:101B4B00A06061A163A3A26266A6A767A56564A452
:101B5B006CACAD6DAF6F6EAEAA6A6BAB69A9A868C2
:101B6B0078B8B979BB7B7ABABE7E7FBF7DBDBC7CB2
:101B7B00B47475B577B7B67672B2B373B17170B022
:101B8B005090915193535292965657975595945412
:101B9B009C5C5D9D5F9F9E5E5A9A9B5B9959589882
:101BAB00884849894B8B8A4A4E8E8F4F8D4D4C8C72
:101BBB0044848545874746868242438341818040E2
:10328400900205EBF0A3EAF0A3E9F0A3ECF0A3EDC0
:10329400F07FFF7DFF90020874FFF5F0120E4645A3
:1032A400F06033900205E0FBA3E475F001120E46D2
:1032B400A9F0FA120DA46DFB7A0024CBF582EA344E
:1032C40019F583E4936FFD74CB2BF582EA341AF578
:0B32D40083E493FF80BFEFFEEDFF22BC
:10322600E4900206F0C2AFAF05C007900201E0FCD1
:10323600A3E0FDA3E0FEA3E0FF900208120FBD90FD
:10324600020C7408F0900205E090020DF0D007120F
:103256002D18EF640160028012900201A3A3E0FE24
:10326600A3E0FF123430EF64016006900206740397
:0E327600F0D2AFE4900000F0900206E0FF22DC
:10002600C2AFE4900001F0FD7F0112384C123ACDC8
:03003600D2AF2224
:0E3ABF00C2AFE4FDFF12384C123AE6D2AF223D
:102B23009001FAEBF0A3EAF0A3E9F0E4900203F0DA
:102B3300A3F0C2AFC3900003E09404900002E094BA
:102B43000040667B017A007904E0FCA3E0FD1232C9
:102B530084EF4E7054900004E0FF9001FAE0FBA371
:102B6300E0FAA3E0F9EF120DEA900003E024FDFF81
:102B7300900002E034FFF9900200E0FBA3E0FAA327
:102B8300E0C98FF0120EBF7B017A007905C003C044
:102B930002C0019001FDE0FBA3E0FAA3E0F9120FEC
:102BA300FA9002037401F0801B7B017A0079049090
:102BB3000002E0FCA3E0FD123284EF4E60069002B7
:0C2BC300047405F0D2AF900204E0FF2281
:102A6C00E4900200F0C2AF900001E0640160030248
:102A7C002B15E924FFF9EA34FFFA900106EBF0A3D9
:102A8C00EAF0A3E9F0900104E4F0A304F09001064D
:102A9C00E0FBA3E0FAA3E0F9EF120DEA9001FEE0EF
:102AAC00FEA3E0FF900105E02FF0900104E03EF062
:102ABC00900106E0FBA3E0FAA3E0F9900104E0FC2E
:102ACC00A3E0FD123284900104E475F001120E466D
:102ADC00FA740425F0F58274003AF583EFF0EEFFFA
:102AEC00900104E475F001120E46FC740425F0F517
:102AFC008274003CF583EFF09000007401F0FDE46B
:102B0C00FF12384C12315680069002007405F0D238
:072B1C00AF900200E0FF2270
:102FE700E4900216F07B017A027917123AEF90000B
:102FF70001E014600C1460351460042403705F80D2
:103007005AE4900002F0A3F0900217E0FF9000024C
:10301700E475F001120E46FC740425F0F582740085
:103027003CF583EFF09000017402F0802EC390000E
:1030370002E09401501F900217E0FF900002E47530
:10304700F001120E46FC740425F0F58274003CF57D
:1030570083EFF080069000017403F0123ACD9002DE
:0430670016E0FF224E
:10315600E4900216F0900000E014600C047055E450
:10316600FD7F0112384C804C900104E07002A3E010
:10317600602C900106E0FBA3E0FAA3E0F9120DA48F
:10318600FF12003E900107E475F001120E30900127
:1031960005E024FFF0900104E034FFF080167F0381
:1031A600123ADA900216EFF0E4FD7F0112384CE491
:0A31B600900000F0900216E0FF22E6
:10364D00E4900215F0900001E024FE601314601A5E
:10365D0024037016E4FF123ADA900215EFF0800A97
:10366D007F01123ADA900215EFF0123AE69000015E
:09367D007401F0900215E0FF2237
:10343000EF4E602BEF25E0FFEE33FE7C007D0C129B
:10344000104FA804A905AA06AB077F007E807D83E4
:103450007C65120F1A90029BEEF0A3EFF08007E458
:1034600090029BF0A3F0E4F5D8F5D975DA48900204
:0D3470009BE0FEA3E0F5EAEEF5FA7F0122F5
:0D3ACD00E4F5D875DA49F5E9F5F9D2DE2205
:093AE600C2DE75DA48E4F5D822CD
:03003B0002361278
:10361200C0E0C0F0C083C082C0D075D000C000C07E
:1036220001C002C003C004C005C006C00712364D67
:10363200D007D006D005D004D003D002D001D000EC
:0B364200D0D0D082D083D0F0D0E03296
:0100220022BB
:08000300E490029DF07F012250
:0C3ADA0090029D7401F0A3EFF07F012228
:10000E00E4FF90029DE0600BA3E0120DEAE4900283
:04001E009DF00F2220
:10384C00EF6007ED6004D2908015EF700AED600711
:10385C00D290539AEF800BEF600CED7009C290433D
:0F386C009A1043AF0122C290539AEF53AFFE223E
:102D1800900207EFF07F007EC27D017C00A3E0F8FF
:102D2800A3E0F9A3E0FAA3E0FBD3120FAC5016E43A
:102D38007F807E25FDFC900208E0F8A3A3A3E0C3F2
:102D4800120FAC500A900208120FC900004B0090F5
:102D58000208E0F8A3E0F9A3E0FAA3E0FB7F007E15
:102D6800807D517C01120F1AE47B20FAF9F8120FCA
:102D78001AEFF404F59C900207E0B4011553877F1D
:102D8800759850438E04438E01438E10C29CC2AC8A
:102D98008012538EF7759A50438E04438E10539ABF
:092DA800EF53AFFEC2907F01223F
:05003E008F9B7F0122F1
:083AEF00E59B120DEA7F0122A4
:033AF70002315643
:033AFA00022FE7B1
:030043000233DFA6
:1033DF00C0E0C0F0C083C082C0D075D000C000C0B4
:1033EF0001C002C003C004C005C006C007E59A3083
:1033FF00E006539AFE123AFAE59A30E109539AFD24
:10340F00309003123AF7D007D006D005D004D0037E
:10341F00D002D001D000D0D0D082D083D0F0D0E075
:01342F00326A
:0100390022A4
:102ED3009001FAEBF0A3EAF0A3E9F0E4900202F028
:102EE3009001FDE0FBA3E0FAA3E0F9120E5C640598
:102EF30045F0705C9001FAE0FBA3E0FAA3E0F990DF
:102F03000001120DBD900200F0A3E4F09000021244
:102F13000DBDFF900200E0F0A3E04FF0E004F0707D
:102F230006900200E004F0E92403F9E43AFA90027F
:102F330000E0FCA3E0FD900211E4F0A304F0A3F091
:102F43001217C3EF6010123A39900202EFF08006B5
:0C2F53009002027403F0900202E0FF22E2
:10262D009001FAEBF0A3EAF0A3E9F0E4900204F0D4
:10263D009001FDE0FBA3E0FAA3E0F9120E5CC39458
:10264D0006E5F09400500302271A9001FAE0FBA36F
:10265D00E0FAA3E0F9900001120DBD900200F0A385
:10266D00E4F0900002120DBDFF900200E0F0A3E037
:10267D004FF0E004F07006900200E004F0900003CB
:10268D00120DBD900202F0A3E4F0900004120DBDF6
:10269D00FF900202E0F0A3E04FF0900005120DBD97
:1026AD00FF900202E0FCA3E0FDC39401EC94004016
:1026BD005CD3ED9478EC94005053ED25E06F704DA4
:1026CD009001FAE0FBA3E0FAA3E02406F9E43AFA5C
:1026DD00900200E0FCA3E0FDA3E0FFA3E090021157
:1026ED00CFF0A3EFF0A37401F01217C3EF600A123D
:1026FD003A39900204EFF0801A9001FDE0FBA3E05F
:10270D00FAA3E0F9E475F005120EBF8006900204FD
:09271D007403F0900204E0FF22B5
:10201D009001FAEBF0A3EAF0A3E9F0E4900207F0E7
:10202D009001FDE0FBA3E0FAA3E0F9120E5C64055C
:10203D0045F0600302217B9001FAE0FBA3E0FAA3D7
:10204D00E0F9900001120DBD900200F0A3E4F090B4
:10205D000002120DBDFF900200E0F0A3E04FF0E092
:10206D0004F07006900200E004F0900003120DBD24
:10207D00900202F0A3E4F0900004120DBDFF7E006B
:10208D00900202EEF0A3EFF0C39401EE9400500322
:10209D0002217BD3E0947D900202E0940040030284
:1020AD00217B9001FAE0F9A3E0FAA3E0900204C9C4
:1020BD00F0A3EAF0A3E9F09001FDE0FBA3E0FAA3A1
:1020CD00E0F9E4F5F0120EBF900204E0FBA3E47515
:1020DD00F001120E46A9F0FA7403120DEA9001FDFB
:1020ED00E0FBA3E0FAA3E0F9E475F001120E87908E
:1020FD000202A3E025E0FFA3E0FBA3E475F00112CB
:10210D000E46A9F0FAEF120DEA9001FDE0FBA3E0F7
:10211D00FAA3E0F9E475F001120E87900204E0FBDA
:10212D00A3E0FAA3E0F9900200E0FCA3E0FDA3E038
:10213D00FFA3E0900211CFF0A3EFF0E4A3F012178C
:10214D00C3EF600A123A39900207EFF08026900231
:10215D0003E025E0FF900202E033FE9001FDE0FB7D
:10216D00A3E0FAA3E0F9EE8FF0120E87800690023D
:0A217D00077403F0900207E0FF2250
:101391009001FAEBF0A3EAF0A3E9F0E490020BF07C
:1013A1009001FDE0FBA3E0FAA3E0F9120E5CC39407
:1013B1000AE5F0940050030215B29001FAE0FBA394
:1013C100E0FAA3E0F9900001120DBD900200F0A334
:1013D100E4F0900002120DBDFF900200E0F0A3E0E6
:1013E1004FF0E004F07006900200E004F09000037A
:1013F100120DBD900202F0A3E4F0900004120DBDA5
:10140100FF900202E0F0A3E04FF0900005120DBD45
:10141100900204F0A3E4F0900006120DBDFF9002CB
:1014210004E0F0A3E04FF0E004F07006900204E065
:1014310004F0900007120DBD900206F0A3E4F090B5
:101441000008120DBDFF900206E0F0A3E04FF090FE
:101451000009120DBDFD900202E0FEA3E0FFC3945E
:1014610001EE940050030215ACD3EF947DEE94008D
:1014710040030215AC900206E0FEA3E0FFC3940115
:10148100EE940050030215ACD3EF9479EE94004032
:10149100030215ACEF25E0FFEE33FEED6F7001EEB8
:1014A10060030215AC9001FAE0FBA3E0FAA3E0248B
:1014B1000AF9E43AFA900204E0FCA3E0FDA3E0FF9C
:1014C100A3E0900211CFF0A3EFF0A37401F0121783
:1014D100C3AD07ED600302159E9001FAE0F9A3E0A8
:1014E100FAA3E0900208C9F0A3EAF0A3E9F09001A1
:1014F100FDE0FBA3E0FAA3E0F9E4F5F0120EBF90E2
:101501000208E0FBA3E475F001120E46A9F0FA749B
:1015110017120DEA9001FDE0FBA3E0FAA3E0F9E464
:1015210075F001120E87900202A3E025E0FF900200
:1015310008E0FBA3E475F001120E46A9F0FAEF12E0
:101541000DEA9001FDE0FBA3E0FAA3E0F9E475F0F8
:1015510001120E87900208E0FBA3E0FAA3E0F990E4
:101561000200E0FCA3E0FDA3E0FFA3E0900211CFA5
:10157100F0A3EFF0E4A3F01217C3AD07ED701E90D6
:101581000203E025E0FF900202E033FE9001FDE05E
:10159100FBA3E0FAA3E0F9EE8FF0120E87ED6011E4
:1015A100FF123A3990020BEFF0800690020B7403A0
:0715B100F090020BE0FF22A5
:10240200900272EBF0A3EAF0A3E9F0900278E0FF09
:1024120090027FE4F0A3EFF0EDAE047803CEC31395
:10242200CE13D8F9FF90027DEEF0A3EFF090027D7B
:10243200E0FEA3E07803C333CE33CED8F9FFC3ED79
:102442009FFFEC9E90027FE0FEA3E0A807088005B4
:10245200C333CE33CED8F9F0EE90027FF0900277FC
:10246200E0FF74017E00A807088005C333CE33CE97
:10247200D8F924FFFFEE34FF90027BF0A3EFF0A324
:10248200A3E075F008A4FFC3ED9FFF90027BE0FE7E
:10249200A3E0A807088005C333CE33CED8F9F0EE07
:1024A20090027BF0900272E0FBA3E0FAA3E0F990C5
:1024B200027DE0FEA3E0F5828E83120DBDFF900245
:1024C20079E4F0A3EFF090027EE02401FF90027D18
:1024D200E034008F82F583120DBDFE900279E04E4A
:1024E200F0A3E0F0A3E0FEA3E0F4FFEEF4FE90021E
:1024F20079E05EFEA3E05FFF90027FE04EFEA3E084
:102502004FFF900279EEF0A3EFF090027DE0FCA382
:10251200E0FDF5828C83EF120DFC900279E08D8252
:062522008C83A3020DFCF6
:1028E200900281EBF0A3EAF0A3E9F0EDAE047803E5
:1028F200CEC313CE13D8F9FF90028BEEF0A3EFF004
:1029020090028BE0FEA3E07803C333CE33CED8F936
:10291200FFC3ED9FFFEC9E90028DF0A3EFF09002BB
:1029220086E0FF74017E00A807088005C333CE331A
:10293200CED8F924FFFFEE34FF900289F0A3EFF026
:10294200900281E0FBA3E0FAA3E0F990028BE0FEA3
:10295200A3E0F5828E83120DBDFF900287E4F0A3FF
:10296200EFF090028CE02401FF90028BE034008FA4
:1029720082F583120DBDFE900287E04EF0A3E0F0D7
:1029820090028DA3E0FF900287E0FEA3E0A8070873
:102992008005CEC313CE13D8F9FF900287EEF0A3C1
:1029A200EFF0A3E05EFEA3E05FFF900287EEF0A3EC
:0329B200EFF02221
:103A3900EF14600C24FA600C2407700CE4FE800A71
:0D3A49007E0280067E0680027E04AF06220B
:101D42009001FAEBF0A3EAF0A3E9F0E4900207F0C5
:101D52009001FDE0FBA3E0FAA3E0F9120E5C64053A
:101D620045F06003021EA49001FAE0FBA3E0FAA38F
:101D7200E0F9900001120DBD900200F0A3E4F09092
:101D82000002120DBDFF900200E0F0A3E04FF0E070
:101D920004F07006900200E004F0900003120DBD02
:101DA200900202F0A3E4F0900004120DBDFF900235
:101DB20002E0FEA3E04FFF900202EEF0FEA3EFF07E
:101DC200C39401EE94005003021EA4E0947D90029D
:101DD20002E094004003021EA49001FAE0F9A3E09D
:101DE200FAA3E0900204C9F0A3EAF0A3E9F090019B
:101DF200FDE0FBA3E0FAA3E0F9E4F5F0120EBF90D8
:101E02000204E0FBA3E475F001120E46A9F0FA7495
:101E120004120DEA9001FDE0FBA3E0FAA3E0F9E46D
:101E220075F001120E87900202A3E025E0FFA3E005
:101E3200FBA3E475F001120E46A9F0FAEF120DEAC7
:101E42009001FDE0FBA3E0FAA3E0F9E475F00112D2
:101E52000E87900204E0FBA3E0FAA3E0F9900200EF
:101E6200E0FCA3E0FDA3E0FFA3E090020DCFF0A30E
:101E7200EFF012280EEF600A123A39900207EFF0E3
:101E82008026900203E025E0FF900202E033FE90FC
:101E920001FDE0FBA3E0FAA3E0F9EE8FF0120E875A
:0E1EA20080069002077403F0900207E0FF2212
:1011F600EFD3940F40037FFF2274632F2FF8E6206E
:10120600E5F4C2AFE64430F6D2AFAE0CEEC39F5063
:10121600210E74822EF8E6F908E618BE0F0274FF56
:10122600FDED69600909E71919F7090980F3161632
:1012360080DAEED39F400405810581EED39F4022DC
:1012460074822EF808E6F9EEB50C02A98118060696
:10125600E6FDED6960091919E70909F71980F31E1A
:1012660080D9EF2482F8E604F8EF2F049039DE9354
:09127600F608EF2F93F67F002229
:10127F00EFD3940F40037FFF22EF232463F8E63070
:10128F00E5F4C2AFE6548CF6D2AFE50CB5070A749D
:10129F00822FF8E6F581021122502E74832FF8E683
:1012AF00BF0F0274FFFD18E6F974822FF8FBE6FCFE
:1012BF00E96C6008A805E7F61D1980F4A803A605D8
:1012CF001FE50CB507E37F002274832FF8E6FD18A6
:1012DF0086010F74822FF8A601088604E50CB50766
:1012EF0002AC81ED6C60080D09A805E6F780F4E506
:0912FF000CB507DE89817F002295
:10130800EFD3940F40037FFF22EF232463F8C2AF8B
:10131800E630E50530E002D2E4D2E2C6D2AF7F0083
:0713280030E2010F02111F6A
:03132F00AF0C22DE
:101332008FF0E4FFFEE50C232462F8C2A930F70D1A
:101342007F08E6600B2DF660325030800730F106E0
:10135200EDF660277E020830F010C2AFE610E725F6
:101362000E30E20CD2AF7F048014C2AFE610E71554
:1013720054EC4EF6D2AFD2A90211227F0808EF44F4
:0F13820083F4C2AF56C6D2AFD2A954804FFF2218
:102E53000211BCE493A3F8E493A34003F68001F2C8
:102E630008DFF48029E493A3F85407240CC8C33380
:102E7300C4540F4420C8834004F456800146F6DF4F
:102E8300E4800B0102040810204080902528E47E92
:102E9300019360BCA3FF543F30E509541FFEE49344
:102EA300A360010ECF54C025E060A840B8E493A30B
:102EB300FAE493A3F8E493A3C8C582C8CAC583CA36
:102EC300F0A3C8C582C8CAC583CADFE9DEE780BEEE
:01262C0000AD
:100D8200C2D530F707B2D563F0FF05F030E70CB2F9
:100D9200D5F4048463F0FF05F080018430D502F4B9
:020DA200042229
:100DA400BB010689828A83E0225002E722BBFE024D
:090DB400E32289828A83E4932280
:100DBD00BB010CE58229F582E5833AF583E02250EB
:100DCD0006E92582F8E622BBFE06E92582F8E22235
:0D0DDD00E58229F582E5833AF583E493224F
:100DEA00BB010689828A83F0225002F722BBFE01E8
:020DFA00F322E2
:100DFC00F8BB010DE58229F582E5833AF583E8F02D
:100E0C00225006E92582C8F622BBFE05E92582C8D8
:020E1C00F222C0
:100E1E00EF8DF0A4A8F0CF8CF0A428CE8DF0A42EE8
:020E2E00FE22A2
:100E3000C5F0F8A3E028F0C5F0F8E582158270024D
:060E40001583E038F022EA
:100E4600A3F8E0C5F025F0F0E5821582700215835F
:060E5600E0C838F0E822BC
:100E5C00BB010A89828A83E0F5F0A3E02250068761
:100E6C00F009E71922BBFE07E3F5F009E319228923
:0B0E7C00828A83E493F5F07401932256
:100E8700BB010789828A83020E30500B09C5F02700
:100E9700F7C5F01937F722BBFE0D09F8E325F0F384
:100EA700C5F019E338F322F889828A837401932500
:080EB700F0C5F0F8E4933822C5
:100EBF00BB010A89828A83F0E5F0A3F0225006F77E
:0F0ECF0009A7F01922BBFE06F3E5F009F319227B
:100EDE0075F008758200EF2FFFEE33FECD33CDCCCB
:100EEE0033CCC58233C5829BED9AEC99E58298404E
:100EFE000CF582EE9BFEED9AFDEC99FC0FD5F0D62B
:100F0E00E4CEFBE4CDFAE4CCF9A88222B800C1B954
:100F1E000059BA002DEC8BF084CFCECDFCE5F0CB92
:100F2E00F97818EF2FFFEE33FEED33FDEC33FCEBCB
:100F3E0033FB10D703994004EB99FB0FD8E5E4F986
:100F4E00FA227818EF2FFFEE33FEED33FDEC33FC73
:100F5E00C933C910D7059BE99A4007EC9BFCE99A67
:100F6E00F90FD8E0E4C9FAE4CCFB2275F010EF2FAC
:100F7E00FFEE33FEED33FDCC33CCC833C810D707AC
:100F8E009BEC9AE899400AED9BFDEC9AFCE899F8E7
:0E0F9E000FD5F0DAE4CDFBE4CCFAE4C8F9227A
:100FAC00EB9FF5F0EA9E42F0E99D42F0E89C45F09B
:010FBC002212
:0C0FBD00ECF0A3EDF0A3EEF0A3EFF022A7
:100FC900A8828583F0D083D082120FE0120FE0123D
:100FD9000FE0120FE0E473E493A3C583C5F0C58362
:100FE900C8C582C8F0A3C583C5F0C583C8C582C872
:010FF90022D5
:100FFA00BB011A89828A83D0F0D0E0F8D0E0F9D018
:10100A00E0FAD0E0FBE8C0E0C0F002109C5016E91C
:10101A00F8D083D082D0E0F9D0E0FAD0E0FBC082E9
:10102A00C08302107CBBFE16E9F8D083D082D0E0E0
:0F103A00F9D0E0FAD0E0FBC082C0830210A522FB
:061049008A838982E47332
:10104F00EC8EF0A4CCC5F0CCCDF8EFA4CEC5F02D2E
:10105F00FDE43CFCE8A42EC8C5F03DFDE43CFCEFEC
:0D106F00A4FFE5F028FEE43DFDE43CFC227A
:100A1D00E51824CEF582E43401F583E00518229023
:100A2D0001CB3047039001CEE475F0011210850221
:100A3D000DA42040E97F2ED2408018EF540F249052
:100A4D00D43440D4FF30440BEF24BFB41A0050030C
:100A5D002461FFE51960021519051CE51C700205DE
:100A6D001B30470E9001CBE475F001121085EF029B
:100A7D000DEA02338C7403D2478003E4C247F518A4
:100A8D009001CB12109CE4F519F51BF51CE51960CE
:100A9D00077F20120A6080F5751AFFC241C240C25D
:100AAD0042C243C245C246C248120A2CFF700D30E5
:100ABD0047057F00120A71AF1CAE1B22B4255FC221
:100ACD00D5C244120A2CFF24D0B40A00501A75F076
:100ADD000A781930D50508B6FF0106C6A426F620FA
:100AED00D5047002D24380D924CFB41A00EF50043C
:100AFD00C2E5D244020C72D24180C6D24080C0D22F
:100B0D004280BCD2D580BAD24580B47F20120A6013
:100B1D002042077401B5190040F1120A1DFF120A97
:100B2D0060020A9AD248D2468095120A1DFB120A1B
:100B3D001DFA120A1DF94A4B700679437A0D7BFF97
:100B4D0020422EE519602A7E008E82758300120DDB
:100B5D00BD60060EEE651A70F0C2D5EBC0E0EAC0BE
:100B6D00E0E9C0E0EE120CB9D0E0F9D0E0FAD0E047
:100B7D00FB120DA4FF60AAEBC0E0EAC0E0E9C0E003
:100B8D00120A60D0E02401F9D0E03400FAD0E0FB85
:100B9D00E51A0460DCD51AD980877BFF7A0C79B50C
:100BAD00D242809C791080027908C246C2488008E2
:100BBD00D2D5790A8004790AC2D5E51A047002F5F6
:100BCD001AE4FAFDFEFF120A1DFC7B0820411312E8
:100BDD000A1DFD7B1030400A120A1DFE120A1DFF70
:100BED007B20EC3382D592D55013C3E43040069F61
:100BFD00FFE49EFEE42041039DFDE49CFCE4CBF864
:100C0D00C241EC700CCFCECDCCE824F8F870F38057
:100C1D0017C3EF33FFEE33FEED33FDEC33FCEB3357
:100C2D00FB994002FB0FD8E9EB304105F8D0E0C449
:100C3D0048B241C0E00AEC4D4E4F78207B0070C2A7
:100C4D00EAB51A0040BCC0E0120CBBD0F0D0E020D9
:100C5D004104C4C0E0C4B241C0F0120A49D0F0D57D
:100C6D00F0EB020A9A1210AE0B37530BB1580B086A
:100C7D004C0B04420BB54F0BBD440BBD490B1D4333
:080C8D000BC3550BA7460BA792
:100C9500450BA7470D63500B0C2D0B102E0B332B5B
:100CA5000B14230B31200D4C2A0ACC4800000B2BCA
:100CB5003F3F3F00790AA2D5204314304509B910BA
:100CC500020404B9080104A2D520460250010420FB
:100CD50042689242B519005034C0E07F2030431974
:100CE5007F30A24272467245500F120D12C242C2A7
:100CF50046C245C2487F30800F304503E9C0E01247
:100D05000A60304503D0E0F9D0E0B519CC3045177D
:100D15007F30B9100C120A607F583044077F788005
:100D250003B90803120A603042057F2D020A607F6D
:100D3500202048F87F2B2046F322924280CF286E50
:100D4500756C6C2900D241120A1D3041F8C24178F8
:100D55001930D50108F6020ACC2D50434958120A1C
:100D65001D2403B405004001E4900D5E93120A5161
:0D0D7500743A120A51D243751904020BB1F1
:09107C00EBF608EAF608E9F62299
:10108500F8E0FBA3A3E0F925F0F0E58215827002F4
:071095001583E0FA38F02298
:09109C00EBF0A3EAF0A3E9F02255
:0910A500EBF208EAF208E9F2227C
:1010AE00D083D082F8E4937012740193700DA3A3D1
:1010BE0093F8740193F5828883E4737402936860E5
:0610CE00EFA3A3A380DFE5
:00000001FF
